:100000000C949A060C94B7060C94B7060C948D3297
:100010000C94B7060C94B7060C94B7060C94B7066C
:100020000C94B7060C94B7060C94051B0C94C11ADB
:100030000C94C8280C94B7060C94B7060C94B70619
:100040000C94B7060C94B7060C94B7060C94B7063C
:100050000C94B7060C94DE1B0C94B7060C94B706F0
:100060000C94B7060C94B7060C94B7060C94B7061C
:100070000C94B7060C94B7060C94B7060C94B7060C
:100080000C94B7060C94B7060C94B7060C94B706FC
:100090000C94B7060C94B7060C94B7060C94B706EC
:1000A0000C94B7060C94B7060C94B7060501090228
:1000B000A10185020901A1000509190129081500FE
:1000C0002501950875018102050109300931158165
:1000D000257F95027508810609381581257F9501D0
:1000E00075088106050C0A38021581257F95017572
:1000F000088106C0C00660FF0961A1010962150000
:1001000026FF009520750881020963150026FF006F
:10011000952075089102C005010906A1010507197E
:10012000E029E71500250195087501810295017503
:100130000881010507190029FF150026FF00950613
:1001400075088100050819012905950575019102B9
:10015000950175039101C00000000000000000003F
:10016000000000000000000000000000000000008F
:1001700000000000000000000000007E0F00D4FF1F
:10018000FFFFC70000007800000000000000002A08
:100190002B2800000000000000000000000000000C
:1001A000000029000000002C1E34202122243426C7
:1001B00027252E362D3738271E1F202122232425C0
:1001C000263333362E37381F0405060708090A0B75
:1001D0000C0D0E0F101112131415161718191A1BE7
:1001E0001C1D2F3130232D350405060708090A0B85
:1001F0000C0D0E0F101112131415161718191A1BC7
:100200001C1D2F3130354C00DA0281FFD9F1DB2083
:10021000A4A62EAF00A0C000A1C800AED580A81F24
:10022000D300408D14200000041E140A0520004C49
:100230006179657220202000616263646566676889
:10024000696A6B6C6D6E6F707172737475767778A6
:10025000797A313233343536373839305245425471
:100260005F2D3D5B5D5C233B27602C2E2F202027DC
:1002700000204B00202043004B6579202020205295
:100280000020204400303020205300202020202057
:100290004350490042616C6C2000808182838485D8
:1002A000868788898A8B8C8D8E8F9091929394A06B
:1002B000A1A2A3A4A5A6A7A8A9AAABACADAEAFB0B6
:1002C000B1B2B3B4C0C1C2C3C4C5C6C7C8C9CACB22
:1002D000CCCDCECFD0D1D2D3D400000101010101C9
:1002E00001010101020202020202020202030303EF
:1002F00003030303030404040404040405050505BF
:10030000050606060606070707070708080808097E
:100310000909090A0A0A0B0B0B0C0C0C0D0D0D0E2A
:100320000E0E0F0F0F1010111111121213131414BF
:10033000151516161717181819191A1A1B1B1C1D34
:100340001D1E1E1F2020212222232424252626278D
:100350002829292A2B2C2D2D2E2F303132323334BF
:1003600035363738393A3B3C3D3E3F4041424344C5
:1003700045464748494A4C4D4E4F505153545556A7
:1003800058595A5B5D5E5F616264656668696B6C53
:100390006D6F7072737577787A7B7D7E80828385CE
:1003A00087888A8C8E8F91939596989A9C9EA0A20E
:1003B000A3A5A7A9ABADAFB1B3B5B7BABCBEC0C218
:1003C000C4C6C9CBCDCFD1D4D6D8DBDDDFE2E4E7DC
:1003D000E9EBEEF0F3F5F8FAFDFF222325262829B4
:1003E0002A2C2D2F3032333536383A3B3D3E4042B1
:1003F000434547494A4C4E5051535557595A5C5EF4
:100400006062646668696B6D6F71737577797B7D07
:100410007F81838587898A8C8E90929496989A9C06
:100420009E9FA1A3A5A7A8AAACAEAFB1B3B4B6B81E
:10043000B9BBBCBEBFC1C2C3C5C6C7C9CACBCCCD80
:10044000CED0D1D2D2D3D4D5D6D7D7D8D9D9DADA5B
:10045000DBDBDBDCDCDCDCDCDDDDDDDDDCDCDCDCDB
:10046000DCDBDBDBDADAD9D9D8D7D7D6D5D4D3D20F
:10047000D2D1D0CECDCCCBCAC9C7C6C5C3C2C1BFED
:10048000BEBCBBB9B8B6B4B3B1AFAEACAAA8A7A551
:10049000A3A19F9E9C9A98969492908E8C8A89870D
:1004A0008583817F7D7B79777573716F6D6B6968EB
:1004B000666462605E5C5A5957555351504E4C4ABF
:1004C0004947454342403E3D3B3A3836353332306A
:1004D0002F2D2C2A29282625232200AF00AE290003
:1004E0001E001F0020001D001B0006001900210037
:1004F00022002B0014000500E0000251E2001A0067
:100500000800150017002C00000000000000E000AB
:1005100004001600070000000000000000000900B1
:100520000A00E500000000000000000000002300B9
:100530002400250026001000360037003800270070
:100540002D001C00180028622C00E600E7000C00BB
:10055000120013002A0001510000000000000B00EF
:100560000D000E000F00000000000000000033002E
:100570003400110000000000000000000000010035
:100580003A003B003C0001000100010001003D0079
:100590003E00010001000100010001000100010016
:1005A0000100010001000100000000000000010046
:1005B0000100010001000000000000000000010037
:1005C00001000100000000000000000000003F00EA
:1005D0004000410042000100C35CC65CC85C4300AF
:1005E000440001000100CA5C01000100010001009B
:1005F00001000100450001000000000000000100B2
:100600000100C25CC55C0000000000000000C75C87
:10061000C95C0100000000000000000000000100B3
:1006200001000100010001000100010001000100C2
:1006300001000100010001000100010001000100B2
:1006400001000100010001000000000000000100A5
:100650000100010001000000000000000000010096
:100660000100010000000000000000000000010087
:10067000010001000100B25DB45DB65DBA5D01002C
:1006800001000100010007800100010001000100DC
:1006900001000100010001000000000000000880CE
:1006A000B15DB35DB55D0000000000000000B95D04
:1006B000068009800000000000000000000001002A
:1006C0000100010001000100010001000100010022
:1006D000010001000100048001000100010001008F
:1006E0000100010001000100000000000000010005
:1006F0000100008001800000000000000000058073
:100700000380010000000000000000000000010064
:1007100001000100010001000100010001000100D1
:1007200001000100010001000100010001000100C1
:100730000100010001000100000000000000038032
:100740000580008001800000000000000000010022
:100750000100048000000000000000000000090209
:100760005B00030100A0FA0904000001030101007D
:100770000921110100012240000705810308000141
:1007800009040100020300000009211101000122F7
:100790002200070582032000010705030320000152
:1007A00009040200010300000009211101000122D7
:1007B0004900070584032000011201000200000027
:1007C00008383936350100010200010E0352006578
:1007D000006500780035003600000012036B0075DC
:1007E000007300680069006D0061003800000004BB
:1007F0000309040000000000003E5B4F5B3E003E2A
:100800006B4F6B3E001C3E7C3E1C00183C7E3C182F
:10081000001C577D571C001C5E7F5E1C0000183CAE
:10082000180000FFE7C3E7FF00001824180000FFCE
:10083000E7DBE7FF0030483A060E00262979292633
:1008400000407F05050700407F05253F005A3CE733
:100850003C5A007F3E1C1C0800081C1C3E7F0014F4
:10086000227F2214005F5F005F5F0006097F017F27
:1008700000006689956A0060606060600094A2FF75
:10088000A2940008047E04080010207E20100008B6
:10089000082A1C0800081C2A0808001E1010101046
:1008A000000C1E0C1E0C0030383E383000060E3E88
:1008B0000E060000000000000000005F00000000C5
:1008C0000700070000147F147F1400242A7F2A12D7
:1008D00000231308646200364956205000000807C0
:1008E000030000001C224100000041221C00002ADD
:1008F0001C7F1C2A0008083E080800008070300099
:1009000000080808080800000060600000201008C7
:100910000402003E5149453E0000427F4000007203
:1009200049494946002141494D33001814127F10AE
:10093000002745454539003C4A49493100412111CC
:10094000090700364949493600464949291E000031
:100950000014000000004034000000000814224190
:100960000014141414140000412214080002015948
:100970000906003E415D594E007C1211127C007F39
:1009800049494936003E41414122007F4141413EB3
:10099000007F49494941007F09090901003E414161
:1009A0005173007F0808087F0000417F410000204C
:1009B00040413F01007F08142241007F40404040F9
:1009C000007F021C027F007F0408107F003E41412F
:1009D000413E007F09090906003E4151215E007F2A
:1009E000091929460026494949320003017F0103BC
:1009F000003F4040403F001F2040201F003F403844
:100A0000403F00631408146300030478040300618A
:100A100059494D4300007F41414100020408102024
:100A200000004141417F00040201020400404040B7
:100A30004040000003070800002054547840007F25
:100A40002844443800384444442800384444287F2B
:100A50000038545454180000087E09020018242459
:100A60001C78007F080404780000447D40000020CA
:100A700040403D00007F102844000000417F4000BE
:100A8000007C04780478007C08040478003844442E
:100A90004438007C1824241800182424187C007C76
:100AA000080404080048545454240004043F442417
:100AB000003C4040207C001C2040201C003C40307A
:100AC000403C004428102844004C9090907C004406
:100AD00064544C44000008364100000000770000D8
:100AE000000041360800000201020402003C2623F7
:100AF000263C00000000000000F8FCFCFC3C3CFC34
:100B0000FCFCF80080C0F0F8FC7E00000000000053
:100B100000000000000000000000FCFCFCFC0000E5
:100B200000000000000000FCFCFCFC0000000000D5
:100B3000000000000000000000000000FCFCFCFCC5
:100B4000000000000000000000FCFCFCFC000000B5
:100B500000000000000000000000000000007EFC1B
:100B6000F8F0E0C080000080C0E0F0F8FC7E0000FB
:100B700000E0F0F0F0E0ECEEF7F37020007C7C7C1D
:100B80007E007E7E7E7F7F7F000080C0E07E5B4FA8
:100B90005BFEC00000C000DCD7DEDEDED7DC00C0BC
:100BA0000000000000000000000000000000000045
:100BB000000000000000000000FFFFFFFF0000FF3A
:100BC000FFFFFF7F1F0F0701000000000000000073
:100BD00000000000000000000000FFFFFFFF000019
:100BE00000808080800000FFFFFFFF000000000009
:100BF000000000000000000000000000FFFFFFFFF9
:100C0000000080808080000000FFFFFFFF000000E8
:100C100000000000000000000000000000000000D4
:100C200081C3E7FFFFFFFFFFFFE7C3810000000074
:100C3000000F1F3F7F7F7F7F7F3F1E0C001F1F1F06
:100C40003F003F3F3F7F7F7F00307B7F7830202019
:100C500030787F3B0003000F7F0F0F0F7F0F0003E3
:100C60000000000000000000000000000000000084
:100C7000000000000000000000FFFFFFFF00000177
:100C80000101000000000000000000000000000062
:100C9000000000000000000000003F3F3F3F000058
:100CA000003F3F3F3F00003F3F3F3F00000000004C
:100CB0000000000000000000000000003F3F3F3F38
:100CC00000003F3F3F3F0000003F3F3F3F0000002C
:100CD00000000000000000000000000000007E3F57
:100CE0001F0F07030100000103070F1F3F7E0000D5
:100CF00000000000000000000000000000000000F4
:100D000000000000000000000000000000000000E3
:100D100000000000000000000000000000000000D3
:100D200000000000000000000000000000000000C3
:100D30000000000011241FBECFEFDAE0DEBFCDBF00
:100D400011E0A0E0B1E0E4ECF9E602C005900D92FC
:100D5000A83AB107D9F726E0A8EAB1E001C01D9290
:100D6000A133B207E1F70E94EF280C94A3340C944E
:100D70000000E8EDF0E080818E7F80831092E20039
:100D80001092DA001092E100A0EEB0E08C91816048
:100D90008C9380818F77808319BCA7EDB0E08C9114
:100DA0008E7F8C9380818F7E80831092FB030895C9
:100DB0002091E4003091E50095E6A9012091EC0036
:100DC000822F817020FF06C08091E80080FF06C05E
:100DD00080E008952091E80022FD1AC08091090466
:100DE000882389F0853089F08091EB0085FD0FC064
:100DF0002091E4003091E50042175307F9F2915039
:100E0000E1F684E0089582E0089583E0089581E0AA
:100E10000895EF92FF920F931F93CF937C018B0164
:100E20000E94D806C82F811117C08091E80085FD67
:100E30000BC08091E8008E778093E8000E94D8066E
:100E4000882399F3C82F08C0F70181917F0180930F
:100E5000F1000150110949F78C2FCF911F910F918B
:100E6000FF90EF90089580910B0487FF13C080914D
:100E7000E80082FF06C08091E8008B778093E8004D
:100E800004C0809109048111F2CF08958091090472
:100E90008823D9F38091E80080FFF8CF8091E800A3
:100EA0008E77ECCF982F9093E900242F762F50E087
:100EB000891731F07091EC002091ED005091F00015
:100EC00021FD07C09F5F973071F78093E90081E0B3
:100ED00008953091EB003E7F3093EB003091ED00B0
:100EE0003D7F3093ED003091EB0031603093EB00AB
:100EF0007093EC002093ED005093F0002091EE00F1
:100F000027FDE0CF80E00895B0E0A0E0EAE8F7E058
:100F10000C94C733C8EDD0E088818F7E8883E7EDDD
:100F2000F0E080818160808384E082BF81E08093F3
:100F3000FB0388818E7F888302EE10E0F801108227
:100F40001092DA0081EEC82ED12CF6011082888131
:100F50008F77888388818068888388818F7D888364
:100F600019BC1092090410920A04109208041092FD
:100F7000070490EEE92EF12CF70180818B7F8083AE
:100F800088818160888342E060E080E00E945207AF
:100F9000F60180818E7F8083F8018081816080836B
:100FA000808188608083F70180818E7F8083888143
:100FB00080618883CDB7DEB7E8E00C94E333FC01B1
:100FC000809111049091120486179707A0F0611583
:100FD000710529F49091E8009E779093E80090E0E5
:100FE0006115710551F4911108C08091E80082FFEC
:100FF00034C080E00895BC01F2CF809109048823B9
:10100000C1F18530C1F18091E80083FD30C080914D
:10101000E80082FDEACF8091E80080FFE1CF809177
:10102000F3002091F200382F6115710519F0283076
:10103000310558F091E02830310509F090E0209119
:10104000E8002E772093E800CBCF81918093F100C8
:10105000615071092F5F3F4FE7CF809109048823CA
:1010600041F0853041F08091E80083FFBECF81E000
:10107000089582E0089583E00895089508950895FD
:101080008091FE03089587E797E790930108809386
:10109000000888E19AE00FB6F894A8958093600064
:1010A0000FBE90936000FFCF2FB7F8946091F703C5
:1010B0007091F8038091F9039091FA032FBF08957E
:1010C0009C01FC0132969FEF80E04191461751F060
:1010D0009F3F19F4411101C0982F8F5F8630A9F707
:1010E0009F3F09F40895290F311D97FD3A95F901A5
:1010F00062830895FC01680F791F8FEF91E32191BE
:10110000822728E030E087FF09C0880F8927215017
:101110003109C9F7E617F70791F70895880FF7CF58
:10112000FA01811101C0FB01099508950895EAEEC5
:10113000F3E0118282818460828308958091130498
:10114000982F9E7F61F48170826080931304809158
:101150001604853618F084E68093160408958E30C0
:10116000B0F381708C60F1CFAF92BF92DF92EF92BB
:10117000FF920F931F93CF93DF93082F162FE90150
:10118000E42FF0E0E652FD4F611110C0E4915E2FB4
:101190004E2F4983E8835A83DF91CF911F910F919E
:1011A000FF90EF90DF90BF90AF900895E62EF12C66
:1011B0004491D42EE42FF0E026E0829FC001112458
:1011C0002FEF30E0B9010E94A933802F90E0880F03
:1011D000991F55E5569FD001579FB00D11248A1BCA
:1011E0009B0B982F990F890F5901AE18BF08AE9E1F
:1011F000D001AF9EB00DBE9EB00D11245B2F189F85
:1012000080011124012F11275901A01AB10AAE9EA5
:101210008001AF9E100DBE9E100D11245901A81A19
:10122000B108AE9CC001AF9C900DBE9C900D1124E6
:10123000892F9927281B390B2E9FC0012F9F900DB6
:101240003E9F900D1124E92F62307105A1F050F4FA
:101250006115710509F49DCF6130710581F0EB2FA7
:10126000512F97CF6430710569F080F066307105B9
:1012700009F48FCFF4CFE42F4B2F592F8ACFE42FCF
:10128000412F87CFEB2F542F492F83CF4B2F5D2D2D
:10129000E12F7FCFCF93DF93E7EEF2E0838194815C
:1012A000A581B681E90188839983AA83BB831482CF
:1012B000138216821582DF91CF91089580E0089500
:1012C00063E070E080E492E00E947A0890913F022F
:1012D000891318C0E0914002EB30A4F488E0E802E2
:1012E000F0011124E65FFE4F0680F781E02D309774
:1012F00049F023E632E04091420263E472E08091DB
:10130000410209950895EAE0F1E0ADE2B2E05496B9
:101310008C91549780A755968C9183AF08959091A6
:101320009A0292FF06C0282F28712830F9F4877F8F
:10133000846093FF06C0282F28712831F1F4877E3E
:10134000846120919B0220FF06C0382F387138300D
:10135000D9F4877F816021FF06C0282F28712831AA
:10136000D1F4877E816194FD877E0895282F2471B2
:101370002430F9F68B7F8860DCCF282F247124314C
:1013800001F78B7E8861DDCF382F3171313019F74D
:101390008E7F8860E0CF282F2171213121F78E7E4A
:1013A0008861E1CFCF93DF93EC018238910589F119
:1013B000E0F58133910509F499C028F5893291054A
:1013C00009F489C08A9709F498C0C11523E5D207AA
:1013D00008F0B3C0C11532E5D30708F00FC1C1153D
:1013E00040E2D40708F097C0C11581E0D80758F54E
:1013F000C53AD10508F088C0C430D10520F5C13008
:10140000D10509F145C08533910509F45FC0C9973D
:10141000E1F680919A02837009F025C180919B02C8
:1014200083FF11C0C9E2D0E00EC0833E910599F15F
:1014300070F4803E910501F1823E910531F6809174
:101440009A0282FD21C0CE01DF91CF910895863EA0
:10145000910561F1873E910571F1843E910509F096
:10146000B4CF80919B0281FFEECF80919A02C7EEAC
:10147000D0E084FD0DC0E7CF80919A0280FD33C09B
:1014800090919B0290FFDFCFC3EED0E084FFDBCFD3
:10149000D0E0C0E0D8CF80919A0282FDE1C0909167
:1014A0009B0290FDE0C084FFCECFF2CF80919A02E4
:1014B00083FDDDCFC8CF80919A0283FDD7C0909184
:1014C0009B0291FFF0CFC4EED0E0BDCF80919A0295
:1014D00085FFB9CFA7CF80919A0285FDCAC08091C0
:1014E0009B0283FFB0CFC9E3D0E0ADCF80919A02D9
:1014F00086FFA9CFCAE2D0E0A6CF80919A0286FFEC
:10150000A2CFC1E3D0E09FCFCE01815E91090797C2
:1015100008F499CFBDCFC11521E5D20708F069C005
:10152000C11530E5D30708F050C0C11540E4D40719
:1015300008F4AECFDF70D06A86CFC11586E5D80734
:10154000F0F4C11525E5D20708F071C0C11534E5E6
:10155000D30708F067C0CE018370992721E030E0FF
:1015600002C0220F331F8A95E2F7C695C69540E266
:10157000C49FE0011124C22BD32BDA6864CFC115BC
:101580004AE5D40778F4C11589E5D80708F05AC0B0
:10159000C11528E5D20708F47BCFDC2FCC27C06F1C
:1015A000D06A51CFCE0190568115904208F070CF8D
:1015B0008D2F8F710E948F0990E0982F88278827A0
:1015C0009F719C012C2BE9013BC0CE0183709927B0
:1015D00021E030E002C0220F331F8A95E2F7C69562
:1015E000C69540E2C49FE0011124C22BD32BDD68D5
:1015F0002ACFDC2FCC27C16FD06A25CFCE018370D4
:10160000992721E030E002C0220F331F8A95E2F7CC
:10161000C695C69580E2C89FE0011124C22BD32B4A
:10162000DC6811CFDC2FCC27C46FD06A0CCF8C2F95
:101630000E948F09C82FD0E0DC2FCC27CC27DF7188
:10164000D06201CF8C2F8F700E948F0934E0D69525
:10165000C7953A95E1F7CF709C2FEC01D069F3CE96
:10166000C2EED0E0F0CEC0EED0E0EDCEC6EED0E0DF
:10167000EACEC5E3D0E0E7CE80912A028111109234
:101680002A02089580959091FC0398239093FC037F
:10169000089580911F029091EE01981301C0089562
:1016A0008F5F8770FACF9A3080F5883070F548E008
:1016B000949F90011124820F932F911D682F6770C2
:1016C00023E0969587952A95E1F7FC01EE0FFF1F21
:1016D000E80FF91FE653FE4F50E040E080E0219113
:1016E00030E0062E02C0369527950A94E2F7217065
:1016F0003327042E01C0220F0A94EAF7822B4F5F92
:101700005F4F4330510559F7089580E008959A30AE
:1017100098F5883088F548E0949F90011124820F55
:10172000932F911D282F277041E001C0440F2A9567
:10173000EAF723E0969587952A95E1F7FC01EE0FED
:10174000FF1FE80FF91FE653FE4F90E080E070E0C6
:101750005191DF0111979B01082E02C03695279504
:101760000A94E2F7217021952527242325272C931D
:1017700001968330910561F70895982F92959F7097
:1017800011F0892F94E0282F2695269511F09E5F61
:10179000822F869509F09F5F892F0895B0E0A0E021
:1017A000E4EDFBE00C94C733FC01EB019091F902EE
:1017B000911101C094E04081518191509A01092E0C
:1017C00002C0359527950A94E2F7B901092E02C0A7
:1017D000660F771F0A94E2F7461B570B518340832D
:1017E000428153818A01092E02C0159507950A94FA
:1017F000E2F7B80102C0660F771F9A95E2F7461B21
:10180000570B5383428321387FEF37077CF0203812
:10181000310574F421952D8301388FEF180754F0AA
:10182000802F003811053CF08FE705C021E8F2CF8A
:101830002FE7F0CF81E881958C830E9454082D8199
:10184000211103C02C812223B9F06093FA02709316
:10185000FB028093FC029093FD028091FE029BE0CC
:10186000980F973120F4080F0093FE021D82CDB728
:10187000DEB7E8E00C94E333C090FA02D090FB02AC
:10188000E090FC02F090FD026C197D098E099F0921
:10189000643671058105910500F31092FE02DDCFDB
:1018A000CF93C82F8091F4028C1751F00E945408F6
:1018B0006093F5027093F6028093F7029093F8021A
:1018C000C093F402CF9108958091E702F9018083DB
:1018D00008958F708A3010F4805D0895895A0895B4
:1018E000382F20E287FF02C031952DE24AE0832F96
:1018F000642F0E940034905D9093BF0181110BC052
:101900002093BE0120E22093BD0120E22093BC0180
:101910008CEB91E00895642F0E940034905D9093C9
:10192000BE01832F64E60E940034882361F3805D4A
:101930008093BD01EBCF9C01860F971F37FD07C039
:1019400077FD04C097FF02C08FEF9FE7089577FFF0
:10195000FDCF97FDFBCF80E090E80895E82FE2955A
:10196000EF70F0E031A1282F2F7081E090E001C0EE
:10197000880F2A95EAF7382B31A392A18095892305
:1019800082A30895E82FE295EF70F0E031A1282FAF
:101990002F7081E090E001C0880F2A95EAF7982F18
:1019A0009095932391A392A1892B82A30895B0E0EF
:1019B000A0E0EDEDFCE00C94C7337C016B0180915D
:1019C000240601E010E08A3010F40AE010E0C1E0E3
:1019D000D0E06AE276E0C701F6010995811104C002
:1019E00021960C171D072CF4CDB7DEB7E8E00C9458
:1019F000E333CC9F9001CD9F300D300D112490E04A
:101A000080E045E34A95F1F70000019682179307BD
:101A1000C1F7DFCF9C0184E08093E9009FEF8091C4
:101A2000E800915085FD06C085ED8A95F1F700002C
:101A30009111F5CF8091E80085FF0CC050E040E0A7
:101A400066E070E0C9010E9409078091E8008E7786
:101A50008093E8000895CF93DF93EC0181E08093B9
:101A6000E9008FEF9091E800815095FD06C095ED5B
:101A70009A95F1F700008111F5CF8091E80085FF7C
:101A800014C050E040E068E070E0CE010E94090719
:101A90008091E8008E778093E80088E0FE01AFEF48
:101AA000B3E001900D928A95E1F7DF91CF9108950F
:101AB000609176018091130480FF20C080917501B0
:101AC00043E0849FC00111248C5D9C4F539A2BB13D
:101AD000277F3BB138605FB7F894FC01649FE00D4D
:101AE000F11D1124BF0168177907D1F45FBF8FE59D
:101AF00094E00197F1F700C000000895809177010C
:101B00009091780123E0829FF0011124EC5DFC4F5D
:101B10008917A0F61182108212828F5F3396F8CF58
:101B2000FC014191CF01E8E03BB9000000C047FF54
:101B30002BB9440F000000C000C000C02BB900C08A
:101B4000EA9591F7D0CF9091130490FF0EC0909139
:101B500077012091780133E0939FF0011124EC5D2F
:101B6000FC4F921718F00E94580D089581836083EE
:101B700042839F5F3396F5CFA3E0B0E0E2ECFDE057
:101B80000C94CB338C018091ED0381110AC09E012E
:101B90002F5F3F4F44E66FEF0E94B4088A81809325
:101BA000ED03F8016481613069F08091ED0340E05C
:101BB000662361F040E0623011F44091ED0380E073
:101BC00060E004C06091ED0340E080E00E94A30D5E
:101BD000F801848190E0019663E070E00E940E3489
:101BE00084832396E4E00C94E733A3E0B0E0EBEFCA
:101BF000FDE00C94CB338C01DC011496EC91F0E009
:101C0000E652FC4F44918091130480FF11C0453689
:101C100008F044E69E012F5F3F4F609115048091CC
:101C200014040E94B4084B8169818A810E94A30D2B
:101C3000F80184818F5F84832396E4E00C94E7337A
:101C400080912C02811119C082E390E02091E30081
:101C500027FD10C0EFE3FCE93197F1F700C0000069
:101C60000197A1F782E080932C020E94B90610929E
:101C7000090403C081E080932C0281E090912C0242
:101C8000913011F080E0089508950E94200E88237D
:101C900059F0E091F403F091F503309729F00190A9
:101CA000F081E02D0995089580E008950F931F932A
:101CB0000E94200E882329F00E9454081F910F9142
:101CC00008950E9454080091940210919502209169
:101CD000960230919702600F711F821F931FEECF03
:101CE00026982E9A249A2C9885E08A95F1F7000080
:101CF00083B124982C9A90EA9A95F1F790E026E027
:101D0000959587952A95E1F780959095817008952E
:101D1000CF93DF93682F81E06A3019F06D3031F492
:101D200080E00E94160FDF91CF91089580912206E6
:101D30009091230626E0FC01ACE1B6E001900D9203
:101D40002A95E1F7603E08F458C026E0FC011192A4
:101D50002A95E9F7C0912206D091230646E050E08B
:101D6000BE018CE196E00E9445349E012C51344026
:101D7000892B41F1C90145E0969587954A95E1F790
:101D800041E050E0BA0102C0660F771F8A95E2F782
:101D9000CB0160911A0470911B04862B972BB9011B
:101DA0006B5F7F4FE5E076956795EA95E1F702C0B6
:101DB000440F551F6A95E2F7842B952B90931B04D3
:101DC00080931A042A5F3F4F40911904642F70E0FA
:101DD000C9010E94A933481B463010F4240F311D5D
:101DE000211572E0370710F030E020E0245E3B4F11
:101DF000309323062093220696CFF6E06F9FB00122
:101E000011246D50784F46E050E00E942F34A2CF4D
:101E1000CF93DF93EC01FE018491811103C0DF9128
:101E2000CF9108950E94880E2196F5CFCF93382F39
:101E3000E0912206F0912306EC51F4402091190420
:101E4000622F70E0CF010E94A933281B822F332319
:101E500061F066E00E94F433C82FC15010F4CF91B6
:101E6000089580E20E94880EF8CF9F01280F311D4F
:101E70002115324018F080E0F0E0E0E08E0F9F2F57
:101E8000911D845E9B4F9093230680932206E7CF9B
:101E900046E050E069E073E08EE193E00E94453453
:101EA000892B79F0E091F403F091F503309749F034
:101EB00082E080931E030480F581E02D8EE193E0A3
:101EC0000995109220031092210310922203109280
:101ED000230386E0EEE1F3E0A9E0B3E001900D9288
:101EE0008A95E1F708958091FC0390912902892B4E
:101EF0008093AA0190912A02992391F0892B8093D3
:101F0000AA0120E08CEA91E0FC013191CF0131116E
:101F10002F5FF1E0823B9F07B9F721110E943C0B34
:101F200048E050E061E272E08AEA91E00E944534C4
:101F3000892BA9F088E0EAEAF1E0A1E2B2E00190A1
:101F40000D928A95E1F7E091F403F091F503309753
:101F500031F00280F381E02D8AEA91E0099508953D
:101F6000ECEAF1E086E0DF011D928A95E9F7109234
:101F700029020E94730F0895AAE2B0E0E2ECFFE0AC
:101F80000C94CC338BE094E02091F100DC012D9394
:101F9000CD01B4E083319B07B9F780910C04833005
:101FA00009F472C0B8F4813009F449C0823009F4F0
:101FB000B5C08091E80083FF8DC280910B049091A1
:101FC0000C049A3008F086C2E92FF0E0EB55FB4C88
:101FD0000C9422348A3009F490C08B3009F471C01B
:101FE000893039F780910B04813219F780910F0401
:101FF00090911004009711F00297D9F68091E800B3
:10200000877F8093E8008091E80082FF38C090913C
:10201000F3008091F200029731F48091F100813059
:1020200011F0863021F48091F1008093FE038091BD
:10203000E8008B778093E8000E943307BACF809145
:102040000B04813A09F0B5CF8091E800877F809337
:10205000E80080910F0490911004892B61F468E0EE
:102060008FEF93E070E00E94DF078091E8008B77AC
:102070008093E8009ECF60E090E080E0F3CF809115
:1020800009048111C0CF95CF80910B04813A09F0EA
:1020900090CF80910F0490911004892B09F089CF83
:1020A0008091E800877F8093E8008091E80080FFBE
:1020B000FCCF80917B018093F1008091E8008E77C6
:1020C000B9CF80910B04813209F073CF80910F0456
:1020D00090911004892B09F06CCF8091E800877FE4
:1020E0008093E8000E94330780910D0480937B0168
:1020F0001092FC030E94B00F5CCF80910B048132E0
:1021000009F057CF8091E800877F8093E8000E9414
:10211000330780910E048093FD034BCF80910B0415
:10212000813A09F046CF8091E800877F8093E800EC
:102130008091E80080FFFCCF8091FD03BCCF803808
:1021400099F0823809F0C6C180910F048F708730F2
:1021500008F0C0C18093E9008091EB0085FB8827DF
:1021600080F91092E90006C080910704909108045C
:10217000911182609091E800977F9093E80080939E
:10218000F1001092F1008091E8008E779FC18823C2
:1021900009F48DC1823009F09DC180910D04811137
:1021A00090C180910F048F702FEF280F263008F018
:1021B00091C18093E9002091EB0020FF82C1933010
:1021C00031F48091EB0080628093EB007AC19091B2
:1021D000EB0090619093EB0021E030E001C0220F12
:1021E0008A95EAF72093EA001092EA008091EB00CA
:1021F0008860EACF81116EC110910D041F77809124
:10220000E3008078812B8093E3008091E800877F52
:102210008093E8000E9433078091E80080FFFCCFA4
:102220008091E30080688093E30082E0111183E0F5
:10223000809309044FC18058823008F04BC120912F
:102240000D0430910E042C3DE3E03E07A1F583E040
:102250008A838AE289834FB7F894DE01139620E0DF
:102260003EE051E2E32FF0E050935700E49120FF6D
:1022700003C0E295EF703F5FEF708E2F90E0EA3081
:10228000C0F0C7968D939D932F5F243159F74FBFB0
:102290008091E800877F8093E8006AE270E0CE01D9
:1022A00001960E94DF078091E8008B778093E80019
:1022B00011C1C096E7CF80910F0490911004432F75
:1022C00055274330510509F44AC078F5413051058E
:1022D00009F47AC08BE590E0EEE5F7E04230510575
:1022E00009F0F8C02091E800277F2093E8002091B2
:1022F0001104309112048217930708F49C0140E006
:102300002115310509F065C0411163C08091E800D5
:1023100082FDC9CF80910904882329F2853019F202
:102320008091E80083FFF2CFBECF4132510509F41E
:102330003CC04232510509F0CDC08330910508F010
:10234000C9C0FC01EE0FFF1FE556FE4F0190F08162
:10235000E02D88569E4FDC018C9190E01AC0332707
:1023600021303105D1F02115310561F022303105E0
:1023700009F0B0C0EBECF7E0E4918E2F90E0EBECCD
:10238000F7E007C0EFEEF7E0E4918E2F90E0EFEE7C
:10239000F7E0009709F49EC0A5CFEBEDF7E0E491DC
:1023A0008E2F90E0EBEDF7E0F4CF8330910508F04D
:1023B00091C0880F991FFC01EF55FE4F0190F081ED
:1023C000E02D89E090E08ECF82E190E0E9EBF7E04C
:1023D00089CF80910904882309F465CF853009F4F9
:1023E00062CF8091E80083FD5ECF8091E80082FD9E
:1023F0008DCF8091E80080FF83CF9091F300809192
:10240000F2002115310519F08830910550F041E0B6
:10241000089709F040E08091E8008E778093E8000B
:102420006FCF44914093F1003196215031090196CC
:10243000E8CF803809F04EC08091E800877F809314
:10244000E80080910A048093F1009DCE811142C082
:1024500010910D041230F0F58091E800877F809391
:10246000E80010930A040E943307112311F084E05E
:1024700005C08091E30087FDFACF81E080930904D5
:1024800042E061EC81E00E94520742E261EC84E0AC
:102490000E94520742E261EC82E00E94520742E24F
:1024A00060EC83E00E9452078091090413C0809180
:1024B0000D04813079F481E0933009F080E080935D
:1024C00008041092E9008091E800877F8093E8007B
:1024D0000E9433078091E80083FF0AC08091E800E2
:1024E000877F8093E8008091EB0080628093EB000F
:1024F000AA96E3E00C94E8331092FC030E94B00F1C
:102500002FEF84E39CE0215080409040E1F700C031
:10251000000088E19AE00FB6F894A89580936000D7
:102520000FBE90936000FFCF809318041092290291
:102530000E94730F089580911804982F967096301A
:1025400021F488600E9494120895877FFBCF21E0D8
:1025500030E001C0220F8A95EAF720958091180497
:1025600082230E94941208959091200280958923DD
:1025700080932002282F277091F4282F082E000C1A
:10258000330B9217130659F090919B0292FF07C0EC
:102590008595859585950E94A71210922002089531
:1025A00021E030E001C0220F8A95EAF780911804FB
:1025B000822B0E949412089580932B02109229027C
:1025C0000E94730F0895882321F00E94420B0E94FD
:1025D000730F0895882339F09091FC03982B909302
:1025E000FC030E94730F08958823E1F19CEF980F7C
:1025F000913A80F4ECEAF1E022EB31E09191891319
:1026000003C0DF0111971C922E173F07B9F70E94F4
:10261000730F089590E2980F983050F4877091E00E
:1026200001C0990F8A95EAF7892F0E94420BEFCFDC
:102630009BE5980F9330B8F48091C6019091C70143
:10264000892B81F01092C7011092C601E091F4032A
:10265000F091F503309731F00680F781E02D90E09E
:1026600080E009950895885A8731E0F78091C80184
:102670009091C901892BB1F31092C9011092C80140
:10268000E091F403F091F503309761F30084F18554
:10269000E02DE5CFCF93C82F8823A9F08CEF8C0FC6
:1026A000813A00F5ECEAF1E0DF018D91C81769F09D
:1026B00081E0A23BB807C9F76C2F8AEA91E00E943B
:1026C00060080E94730FCF9108958191C81303C0D1
:1026D000DF0111971C9281E0E23BF807B1F70E94FD
:1026E000730FEACF80E28C0F883068F7C77021E063
:1026F00030E001C0220FCA95EAF78091FC03822BDB
:102700008093FC03DECF1F93CF93DF93182FEB0151
:102710000E944A138FE99FE00197F1F700C0000083
:102720002197C1F7812F0E94F412DF91CF911F9161
:1027300008950F931F93CF93DF93EC01FC01019059
:102740000020E9F78F0101501109C017D10728F0C7
:10275000DF91CF911F910F91089589910E94880E6A
:10276000F4CFB0E0A0E0E7EBF3E10C94C7336C01E9
:102770007B0164E670E088E70E940731EC0197FD79
:1027800012C010E000E0F601E00FF11F849164E652
:1027900070E00E947331EC01892B29F40F5F1F4F09
:1027A0000E151F0581F70E94E931CE01CDB7DEB7C6
:1027B000E8E00C94E3338091F2039091F3039111DC
:1027C00003C091E089270895882369F062E070E0F2
:1027D0008CED94E00E94B113892B19F08091F203E3
:1027E00008951092F2038091F203EBCFCF93C09142
:1027F000F2038091F3038823D1F00E945408605AB9
:1028000075418F4F9F4F6093EE037093EF0380935A
:10281000F0039093F103C11108C062E070E08AED0B
:1028200094E00E94B113892B29F0C091F2038C2F00
:10283000CF91089581E08093F203F7CFCF93DF9398
:10284000C7EBD2E060E0CE010E946F342196C11543
:1028500084E0D807B9F7DF91CF9108951F93CF9304
:10286000DF93122F8430E0F46A30D0F44830C0F4A3
:1028700090E1699FE001112450E0440F551FC40FFF
:10288000D51F90EA899FC00DD11D1124632FCE0161
:10289000C7960E946F34612FCE01C8960E946F3494
:1028A000DF91CF911F910895AF92BF92CF92DF92A7
:1028B000EF92FF921F93CF93DF938EEDC82E84E0AB
:1028C000D82ED0E07601C0E014C0F50125913491F6
:1028D000412F6C2F8D2F0E942E1482E0A80EB11C68
:1028E0001F5F183091F780E1E80EF11CCF5FCA300E
:1028F00019F0570110E0E9CFDF5F80EAC80ED11C64
:10290000D43001F7DF91CF911F91FF90EF90DF90CE
:10291000CF90BF90AF90089586E390E00E946F340F
:102920000895CF93C82F6FEF811163E283E390E0A6
:102930000E946F346FEFC11161E084E390E00E9468
:102940006F346FEFC11166E185E390E00E946F3450
:10295000CF91089580E00E94911460E070E0CB0177
:102960000E948C140E9454140E941E1481E00E9444
:1029700091140895CF93C0919B02C2FB992790F9BF
:10298000981791F080FBC2F9C0939B0260919A0264
:1029900084E090E00E946F346C2F82E290E00E940D
:1029A0006F3482E00E94B412CF9108950F931F9369
:1029B000CF93DF93843030F56A3020F5483010F53E
:1029C00020E1629F8001112450E0440F551F040F45
:1029D000151F30EA839F000D111D1124C801C796F1
:1029E0000E945B34C82FD0E0DC2FCC27C801C896EA
:1029F0000E945B349E01282BC901DF91CF911F916A
:102A00000F91089590E080E0F8CF462F843040F495
:102A10007A3030F4683020F4672F0E94D61408957D
:102A200090E080E00895CF92DF92FF920F931F9382
:102A3000CF93DF936C010091180480912B02082B37
:102A4000C7E0D0E010E0FC2EC8010C2E02C0959526
:102A500087950A94E2F780FD0CC02197A0F7F12C2E
:102A60008F2DDF91CF911F910F91FF90DF90CF902D
:102A70000895B6018C2F0E9405150E94D209019776
:102A800061F3EECFCF93DF93EC010E941315BE01EB
:102A90000E9405150E94D209DF91CF910895FC0193
:102AA00083819481892B29F08081918189238F3FB3
:102AB00051F480E00895843FE1F717C0883EA8F004
:102AC000813FB9F712C0808191810E944215929591
:102AD0009F70963099F358F4925F9F70923048F748
:102AE000803F19F040F7883E20F781E008959A5F13
:102AF000F4CF86E390E00E945B34682F70E090E0B2
:102B000080E0089583E390E00E945B34833289F48F
:102B100084E390E00E945B34813059F485E390E0D7
:102B20000E945B3491E0863109F090E0892F81703A
:102B3000089580E0FCCFCF92DF92EF92FF926B017D
:102B40007C010E949E08B701A60188E090E00E94E7
:102B50008134FF90EF90DF90CF900895A3E0B0E034
:102B6000E4EBF5E10C94C933F82E062F142FE22E76
:102B70008091130480FF3DC0E82FE695F0E0EF560A
:102B8000FE4F90819093EA038E7F8230B1F54536F7
:102B900008F044E69E012F5F3F4F602F8F2D0E946B
:102BA000B4084B8169818A810E94A30D809114042D
:102BB0008F1108C080911504801304C08091160401
:102BC000811729F08091EC0382608093EC03F092EE
:102BD00014040093150410931604EE2051F0609134
:102BE00013047091140480911504909116040E94AE
:102BF0009B152396E6E00C94E5339230B9F61091DC
:102C00001604D4CFE3E1F4E043812AE0421B08F448
:102C100040E021E0628181810E94AE150895E3E1E8
:102C2000F4E043812AE0420F08F44FEF21E0628193
:102C300081810E94AE150895E3E1F4E0628121E113
:102C4000621B08F460E021E0438181810E94AE159F
:102C50000895E3E1F4E0628121E1620F08F46FEF8F
:102C600021E0438181810E94AE150895E3E1F4E003
:102C7000818121E04381628181510E94AE150895D6
:102C8000E3E1F4E0818121E0438162818F5E0E9473
:102C9000AE15089580911704882319F08150809310
:102CA000170460911304709114048091150490919D
:102CB00016040E949B15089580911704833018F420
:102CC0008F5F8093170460911304709114048091B6
:102CD0001504909116040E949B150895E3E1F4E019
:102CE00083E0808311828FEF828384E68383148262
:102CF000AAEEB3E012968C911297836012968C9391
:102D000060817181828193810E949B15089568EE94
:102D10007EEF90E080E00E948D3460E082E090E001
:102D20000E946F3460E083E090E00E946F34109264
:102D30002B0260E084E090E00E946F3464E082E265
:102D400090E00E946F3460E085E090E00E946F3474
:102D500060E086E090E00E946F346FEF87E090E0E3
:102D60000E946F3440E050E0BA0188E090E00E9499
:102D7000813460E08DE090E00E946F3440E050E0EC
:102D8000BA0188E190E00E94813460E087E190E040
:102D90000E946F3440E050E0BA018CE190E00E9464
:102DA000813470E060E080E290E00E948D3440E089
:102DB00050E0BA0188E190E00E94813480E00E94F6
:102DC00091140E94AA1440E050E0BA018FE090E014
:102DD0000E94813410921103109212031092130377
:102DE0001092140382E390E09093120380931103F6
:102DF00040911103509112036091130370911403D9
:102E000083E190E00E9481340895B0E0A0E0EBE01F
:102E1000F7E10C94C8337901C82F880FDD0B4115F9
:102E20005105A9F0FE0193E0EE0FFF1F9A95E1F71F
:102E3000E65FFE4F81819281835D9D4F208130E06E
:102E40004217530708F49A01A9010E945234CE0197
:102E50000E943333D82E8823D1F001151105B9F023
:102E600083E0CC0FDD1F8A95E1F7FE01E65FFE4FA0
:102E7000438150E00417150708F4A801C65FDE4F30
:102E80006C817D81635D7D4FC7010E9452348D2D21
:102E9000CDB7DEB7E7E00C94E433A5E0B0E0E3E5BE
:102EA000F7E10C94C5338D83E62E5A01F22E6801AA
:102EB000809124068A3028F080E02596EAE00C9480
:102EC000E1338D818830C4F31A8219828A836B833F
:102ED0002C8363E070E0CE0102960E947A08898319
:102EE000E0923201F092450110E000E030E020E095
:102EF00044E050E0BE016F5F7F4F84E00E94051701
:102F00008823D1F24E2D50E030E020E0B50185E07D
:102F10000E940517882381F230E020E041E050E074
:102F2000BE016B5F7F4F86E00E940517882321F268
:102F30000F2D10E0960150E040E070E060E087E087
:102F40000E940517BACFA8E0B0E0E9EAF7E10C94D7
:102F5000CB3385E0E3E1F4E0DE01119601900D92C0
:102F60008A95E1F78091EA039091EB03A091EC033D
:102F70008E839F83A887288540919002509191026B
:102F800060919202709193023FB7F8948091F70399
:102F90009091F803A091F903B091FA033FBF841B0D
:102FA000950BA60BB70B84369105A105B10510F45E
:102FB0002223C1F010E000E030E020E048E050E0E3
:102FC000BE016F5F7F4F83E00E940517882369F081
:102FD0000E94540860939002709391028093920231
:102FE000909393021092EC0381E02896E4E00C9415
:102FF000E733A4E0B0E0EFEFF7E10C94CB3340917E
:103000008C0250918D0260918E0270918F022FB7C9
:10301000F8948091F7039091F803A091F903B0918F
:10302000FA032FBF841B950BA60BB70B11E0843658
:103030009105A105B10518F10E94560E6E5F7F4FF4
:103040008F4F9F4F69837A838B839C8310E000E0CE
:1030500030E020E044E050E0BE016F5F7F4F82E04F
:103060000E940517182F882351F00E94540860937E
:103070008C0270938D0280938E0290938F02812F29
:103080002496E4E00C94E733A6E0B0E0EAE4F8E14B
:103090000C94C9337B0101E010E09E012A5F3F4F91
:1030A00050E040E070E060E080E00E940517182FDB
:1030B000882309F453C0409188025091890260919D
:1030C0008A0270918B022FB7F8948091F703909148
:1030D000F803A091F903B091FA032FBF841B950B5D
:1030E000A60BB70B84369105A105B10548F465E040
:1030F00070E08EE292E00E947A089E81891771F159
:1031000005E010E09E012F5F3F4F50E040E070E08F
:1031100060E081E00E940517082F65E070E08EE214
:1031200092E00E947A0811E09E81981310E010232B
:1031300001F10E9454086093880270938902809381
:103140008A0290938B0285E0FE013196A3E8B2E0FB
:1031500001900D928A95E1F711E00BC085E0EEE257
:10316000F2E0DE01119601900D928A95E1F71111BE
:10317000EACF85E0E3E8F2E0D70101900D928A956D
:10318000E1F7812F2696E6E00C94E5330E94700E5D
:103190008093090180910901882359F010927501EB
:1031A00080E2809376010E94200E81110E944732B6
:1031B000089580E280937501F4CF90E080E00E9452
:1031C0006934883E9E4F19F40E948215089580E06C
:1031D000089528E030E043E060E087EF0E942F3060
:1031E0000895ACE0B0E0E7EFF8E10C94C7334F830B
:1031F000588769877A878B879C878091E702882325
:1032000099F00E94E91880E50E94A7302AEB2A95E0
:10321000F1F700C00E94BF30887899278038910567
:1032200009F484C00E94D7300E94200E882309F43C
:1032300068C00E9454080091C1011091C201209100
:10324000C3013091C4016B017C01C01AD10AE20AAA
:10325000F30A97018601083011052105310508F4AC
:1032600050C06093C1017093C2018093C3019093D9
:10327000C4010091F5021091F6022091F7023091FD
:10328000F802601B710B820B930B62337105810591
:10329000910580F41092EB021092EA021092ED0276
:1032A0001092EC021092EF021092EE021092F102D4
:1032B0001092F0021091F4020E94700E112309F492
:1032C00062C0BE01695F7F4F8AEE92E00E94CE0B22
:1032D0000091F4021091E7020E94700E011709F4A8
:1032E0007CC0BE01695F7F4F8EEE92E00E94CE0BE4
:1032F00086E0FE013796A3E0B3E001900D928A9537
:10330000E1F786E0FE013796DE01119601900D92FD
:103310008A95E1F729813A814B815C816D817E81BB
:1033200080E090E02C96E8E00C94E3330E94BF30FC
:103330000E94BF307C010E94BF3020E0E22AF82AC0
:103340000E94BF308C010E94BF3020E0022B182B5E
:103350000E94D730F894B7018091EA029091EB0275
:103360000E949B0C9093EB028093EA02B80180913B
:10337000EC029091ED020E949B0C9093ED028093E1
:10338000EC02789451CF8091EA029091EB0281385F
:103390002FEF9207D4F080389105CCF4819589877E
:1033A0008091EC029091ED0281382FEF92078CF022
:1033B0008038910584F48A871092EB021092EA0219
:1033C0001092ED021092EC0283CF81E8E7CF8FE7F5
:1033D000E5CF81E8F0CF8FE7EECF8091EE029091BC
:1033E000EF0281382FEF9207D4F080389105CCF4AA
:1033F000819589878091F0029091F10281382FEFB9
:1034000092078CF08038910584F48A871092EF023D
:103410001092EE021092F1021092F00269CF81E850
:10342000E7CF8FE7E5CF81E8F0CF8FE7EECFCF93FF
:10343000DF93D82FC62F0E94E9188D2F80680E9435
:10344000A7308C2F0E94A7300E94D7308FEC92E0DB
:103450000197F1F700C00000DF91CF910895682F28
:10346000893708F068E76093F20291E09093F302E5
:103470009091E702992359F06150811101C064E0F5
:103480008FE00E94171A60E080E50E94171A0895E5
:10349000FB0180810E942F1A08959091F2029111F0
:1034A00001C095E0282F880F330BA901490F511D4A
:1034B000CA011816190614F081E090E00E942F1A34
:1034C0000895CF93C82F0E94E9188C2F0E94A7302F
:1034D0008FE792E00197F1F700C000000E94BF3033
:1034E000C82F0E94D7309AE69A95F1F700C08C2F2A
:1034F000CF910895CF93DF930E942730879A0E943F
:10350000E9186AE58AE30E94171A2FEF80E792E034
:10351000215080409040E1F700C0000082E00E940E
:10352000611A83E00E94611A84E00E94611A85E0BA
:103530000E94611A86E00E94611A60E080E10E94A8
:10354000171A80E00E94611AD82F81E00E94611A48
:10355000C82F0E94D730D23419F481E0C13009F06D
:1035600080E081708093E702882341F064E08FE07F
:103570000E94171A60E080E50E94171ADF91CF9130
:1035800008951F920F920FB60F9211242F933F931D
:103590004F935F936F937F938F939F93AF93BF935B
:1035A000CF93DF93EF93FF93D091E900DF70809189
:1035B000EC00C82FC17080FDC0E81092E900809136
:1035C000F000877F8093F00078940E94BC0F1092E7
:1035D000E9008091F00088608093F000CD2BCF70DF
:1035E000C093E900FF91EF91DF91CF91BF91AF912F
:1035F0009F918F917F916F915F914F913F912F910B
:103600000F900FBE0F901F9018951F920F920FB63C
:103610000F9211242F933F934F935F936F937F9358
:103620008F939F93AF93BF93EF93FF938091E100AC
:1036300082FF09C08091E20082FF05C08091E10015
:103640008B7F8093E1008091DA0080FF24C080911D
:10365000D80080FF20C08091DA008E7F8093DA004E
:103660008091D90080FF9DC080E189BD82E189BD44
:1036700009B400FEFDCF81E0809309048091FB0333
:10368000811109C00E94B9060E9484078091E2005E
:1036900084608093E2008091E10080FF17C08091F8
:1036A000E20080FF13C08091E2008E7F8093E200F1
:1036B0008091E20080618093E2008091D800806276
:1036C0008093D80019BC85E0809309048091E100C3
:1036D00084FF2BC08091E20084FF27C080E189BD78
:1036E00082E189BD89B5982F917080FFFBCF8091D1
:1036F000D8008F7D8093D8008091E1008F7E8093E9
:10370000E1008091E2008F7E8093E2008091E200F0
:1037100081608093E20080910A04882309F447C005
:1037200084E080930904809109048091E10083FF83
:1037300027C08091E20083FF23C08091E100877F52
:103740008093E10082E08093090410920A04809142
:10375000E1008E7F8093E1008091E2008E7F809374
:10376000E2008091E20080618093E20042E060E04C
:1037700080E00E9452078091F00088608093F00002
:10378000FF91EF91BF91AF919F918F917F916F9139
:103790005F914F913F912F910F900FBE0F901F900F
:1037A000189519BC109209041092FB0374CF8091F4
:1037B000E30087FD93E090930904B5CF78941F92BE
:1037C0001FB61F9211248F939F93AF93BF93809145
:1037D000F7039091F803A091F903B091FA030196D1
:1037E000A11DB11D8093F7039093F803A093F903F3
:1037F000B093FA03BF91AF919F918F911F901FBE1D
:103800001F9018959C014FB7F8948091F703909101
:10381000F803A091F903B091FA034FBF821B930BF9
:1038200008952FB7F8948091F7039091F803A09131
:10383000F903B091FA032FBF08950E94200E882348
:1038400019F00E94111C08950E94560ECB01089594
:1038500060911304669570E041E050E08AE791E0E2
:103860000E943834892B19F481E08093EB030E9485
:103870001D1C9093E5038093E4038091EC03846026
:103880008093EC0308959091130490FF31C09170E0
:1038900081112FC09260909313048091EC0381609A
:1038A0008093EC03662351F060911304709114042B
:1038B00080911504909116040E949B156091130449
:1038C000669570E041E050E08AE791E00E9438346C
:1038D000892BB1F00E94970881E08093E70320E0F4
:1038E0004091160460911504809114040E94AE1555
:1038F0000895873010F09C60CECF880F982BCBCFE7
:103900000E94281CE9CF809113048695815009F408
:1039100086E061E00E94431C08958091130486951F
:103920008F5F873008F081E061E00E94431C0895BA
:103930008091130480FF08C0869582588F7783306A
:1039400018F40E948D1C089561E082E00E94431CDF
:10395000089583E00E94D0120E94111C90931C03D2
:1039600080931B0382E080931D030895AEE1B0E0D5
:10397000ECEBFCE10C94C53340911E0350911F0306
:103980006091200370912103809122039091230381
:103990000E94F11820931E0330931F0340932003CD
:1039A00050932103609322037093230386E0EEE19A
:1039B000F3E0DE01179601900D928A95E1F786E01B
:1039C000FE013796DE011D9601900D928A95E1F772
:1039D00086E0FE013D96DE01119601900D928A95DA
:1039E000E1F786E0FE013196AEE1B3E001900D9281
:1039F0008A95E1F786E0EEE1F3E0DE015996019069
:103A00000D928A95E1F786E0FE017996DE01179620
:103A100001900D928A95E1F70B8DEC8CCE8C0C2CDD
:103A2000000CDD08AD8C0A2C000CBB089E2D902BE1
:103A300080911D03992309F416C1002E000C110B6F
:103A40000E2C000CFF08823009F440C088F481304D
:103A500009F4E0C00E94111C90931C0380931B0387
:103A600081E080931D031092100310920F0334C065
:103A7000833009F45FC0843069F7C701F7FE04C0E2
:103A8000882799278E199F09880F991F980117FF7A
:103A900004C022273327201B310B281739070CF0CD
:103AA00071C08091170390911803E80EF91E20E071
:103AB000F7FE0BC18EECE8168FEFF8060CF45DC034
:103AC000F0921803E092170380E06EC00E94111C70
:103AD00090931C0380931B030987EA86AB86CC86F0
:103AE00086E0FE013796DE01119601900D928A95CF
:103AF000E1F786E0FE013196DE01539601900D92CA
:103B00008A95E1F786E0FE017396DE011796019033
:103B10000D928A95E1F786E0FE013796AEE1B3E0BB
:103B200001900D928A95E1F70E94480F6E96EAE0A7
:103B30000C94E133C701F7FE04C0882799278E193A
:103B40009F09980117FF04C022273327201B310B40
:103B5000280F391F8091190390911A03821B930B30
:103B600090931A0380931903181619060CF0B4CF1A
:103B7000F12CE12C10E000E0AFCF42E3E40EF11CA9
:103B80002E5C96CF8091150390911603080F191F94
:103B900080E017FFA4C00E3C9FEF19078CF1109333
:103BA00016030093150320E0082E000C990B62E326
:103BB00070E00E940E3480911403811125C081E0D1
:103BC00090E0689F6001699FD00C789FD00C112411
:103BD000422F552741950CF45095CA0162E370E0DD
:103BE0000E940E3480911303811111C081E090E096
:103BF000689F5001699FB00C789FB00C1124B8CF1A
:103C00000E5C1F4F8E5CC5CF8FEF9FEFDACF8FEF2B
:103C10009FEFEECFC701F7FE04C0882799278E19C2
:103C20009F09980117FF04C022273327201B310B5F
:103C3000820F931F20910F0330911003820F931F67
:103C40009093100380930F0320911103309112037E
:103C5000821793070CF440CF1092100310920F03B9
:103C60000E94A91C39CF823071F048F4813019F1DB
:103C70001092100310920F0310921D0379CF85301C
:103C800008F476CFF5CF80911B0390911C030E941E
:103C9000021C893E934008F46BCF10921D0383E011
:103CA0000E94A71210921803109217031092160385
:103CB000109215035DCF80911B0390911C030E940D
:103CC000021CC39708F454CFD3CF83E3E816F10462
:103CD0000CF4F6CE52E3E51AF1082253E9CE033391
:103CE00011050CF45CCF02531109825352CFA2E1AB
:103CF000B0E0EDE7FEE10C94BE338C01DC011396DD
:103D00008D919C911497892B39F08C9111969C91EF
:103D100089238F3F09F010C66296E1E10C94DA33F3
:103D20000E941315F82E682F89819A810E94870BB3
:103D300069817A818F2D0E9405157C01F8018281AD
:103D4000882309F4ECC5C70182519F45409708F0CC
:103D5000C4C58FEF93E00E945B34811128C0FEEE52
:103D6000EF0E57EB852E52E0952EE11033C01C82EA
:103D70001B82442443944AE0342E74018FEFE81AE6
:103D8000F80AC4010E945B3489831A82882379F07F
:103D90009FEF980F933060F58A83498292E0890EF5
:103DA000911CC7010E945B348B83811122C08091DA
:103DB0002002877009F4B0CFD80112968C91882325
:103DC00009F4AACF80919B0282FFA6CF82E00E94D5
:103DD000B412A2CF811424E0920649F3C4010E94D8
:103DE0005B34811101C0EA943FEF831A930ABDCF7F
:103DF0004701DE0111967D01F7012081222309F49C
:103E0000BCCF213009F06DC091818281913061F485
:103E1000F2E0EF0EF11C65E070E0893311F460E52B
:103E200070E00E94831307C0923039F522E0E20E61
:103E3000F11C0E944A13FFEFEF1AFF0A8FE99FE07F
:103E40000197F1F700C00000AFE9BFE01197F1F76B
:103E500000C00000EFE9FFE03197F1F700C000007B
:103E60008FE99FE00197F1F700C00000AFE9BFE0E4
:103E70001197F1F700C00000BFCF933031F432E06A
:103E8000E30EF11C0E94F412D6CF943021F08FEF94
:103E9000E81AF80AD0CF92E0E90EF11C30E020E0F9
:103EA000B7016F5F7F4FD70111964C918053990BEB
:103EB0008A30910558F02150310908F4BCCFEFE960
:103EC000FFE03197F1F700C00000F5CF329EF0011E
:103ED000339EF00D11249C012E0F3F1F842F7B0178
:103EE000DFCFE22FF0E0E957FE4F5490822F869506
:103EF0008695869590E0FC01E958FE4F6490277006
:103F0000712C022E02C0759467940A94E2F731E096
:103F100063227724FC01E959FE4FA490B12C022EB4
:103F200002C0B594A7940A94E2F7A1E0AA22BB24A8
:103F3000FC01E95AFE4FC490D12C02C0D594C7941D
:103F40002A95E2F7B1E0CB22DD246114710419F067
:103F500081EE0E944A13A114B10419F086EE0E946A
:103F60004A13E9E365E070E05E1202C060E570E0CC
:103F7000852D0E948313A114B10419F086EE0E94CE
:103F8000F4126114710419F081EE0E94F412C1144C
:103F9000D10409F450CF65E070E08CE242CF81E0BB
:103FA0000E94D0120E949B1202CF81E00E94A712B1
:103FB000F9CF82E0F5CF86E0EEE1F3E0DE011D9679
:103FC00001900D928A95E1F786E0FE013D96DE01B3
:103FD000179601900D928A95E1F7FE8481E090E0BA
:103FE00001C0880F2A95EAF7D80112962C91222356
:103FF00011F1F82A83E080931D038EE190E0909305
:104000001A03809319030E94A91CF88686E0FE011A
:104010003796DE01119601900D928A95E1F786E0C0
:10402000FE013196AEE1B3E001900D928A95E1F781
:104030000E94480FBCCE8095F822E5CFF80182811E
:10404000882321F084E080931D03B1CE0E94A91C37
:10405000AECED80112968C91882309F4A8CE809117
:10406000110390911203059690931203809311030C
:104070004091110350911203609113037091140346
:1040800083E190E00E94813492CEF80182818823FE
:1040900009F48DCE8091110390911203059785301C
:1040A000910514F785E090E0DFCFD80112968C914E
:1040B000882309F47CCE8091130391E089278093B3
:1040C0001303D6CFF8018281882309F470CE809142
:1040D000140391E0892780931403CACF8281882337
:1040E000B1F180911D038350823008F4AFCFB0EE60
:1040F000EB16F104F9F40E94A91CF8018281F6E1A3
:10410000EF16FCE5FF0609F0CAC0882309F4B2C027
:104110008091FC038A7A91E009F490E09093C501C4
:1041200069E2811165E38AEA91E00E9460080E94D9
:10413000730F3DCE10921D0383E00E94A7121092D0
:104140001803109217031092160310921503C7015B
:104150009A9581159F41E8F4F701FF27D80112963F
:104160008C91E43FF10540F0E93FF105A0F0E83B18
:10417000BDE5FB0709F465C0882309F4BECFE15B08
:10418000FD45EA30F10508F0B8CFE155FB4C0C9441
:104190002234F701E3CFE45FF10921E030E001C010
:1041A000220FEA95EAF796E0EEE1F3E0DE011796DA
:1041B00001900D929A95E1F796E0FE013796DE01A7
:1041C0001D9601900D929A95E1F798858823A9F0A4
:1041D000292B2E8786E0FE013D96DE011196019087
:1041E0000D928A95E1F786E0FE013196AEE1B3E0EB
:1041F00001900D928A95E1F780CF20952923E9CF90
:1042000080E00E942F1A1092F902D1CD4091F20263
:104210005091F90250FB47F95695537060E070E0F9
:104220008FE090E02FCF81E00E944D1AC0CD8FEF3C
:10423000FBCF8AE0F9CF86EFF7CF9091F40281E0CF
:1042400089270E94500CB3CD8091F902811101C0E1
:1042500084E08F5F18160CF081E0883008F087E06A
:104260008093F902A4CD8091F902811101C084E00C
:104270008150F0CF8091C50181110FC089E2ECEA35
:10428000F1E022EB31E09191891303C0DF01119736
:104290001C922E173F07B9F74ACF85E3F0CF811163
:1042A00008C18091FC0382722AECE2162CE5F2062A
:1042B00009F4EFC008F07CC095ECE9169CE5F9061E
:1042C00009F4D3C008F059C0B3ECEB16BCE5FB060B
:1042D00009F4C1C008F0C4C0F2ECEF16FCE5FF061B
:1042E00009F48DC0F8018281E080F180882309F40F
:1042F0001EC1C7010E941315D82E682FC7010E9446
:10430000870BB7018D2D0E9405150E94D2097C01F3
:10431000882ED8011296CC9012971596BC90B29424
:104320003FE0B322809120028770C1F0AC2CCC20FA
:10433000B1F08F2D807F803421F080E28E0D8830A7
:1043400068F080919B0282FF09C082E00E94B41253
:10435000809120028770AA24A3948111A12C9F2C04
:1043600092942FE09222BBE0B91508F44FC1E92DD9
:10437000F0E0E754FB4C0C94223427ECE2162CE5D9
:10438000F20609F47CC008F475C098ECE9169CE5C7
:10439000F90609F479C042E056E16FE076E1A9EC54
:1043A000EA16ACE5FA0609F09DCF0E949008FFCC12
:1043B000BEECEB16BCE5FB0609F475C090F4FCEC12
:1043C000EF16FCE5FF0609F469C04AE456E16CE526
:1043D00076E12DECE2162CE5F20638F361E081E09F
:1043E00037C035EDE3163CE5F30609F45FC008F489
:1043F000DECC9DE5E916F90609F4D9CC73CF80919E
:10440000130480FF20C08E7F8093130460911304F7
:104410007091140480911504909116040E949B15CC
:104420000E9497088091EC0381608093EC03AFEFCA
:10443000B0E7E2E0A150B040E040E1F700C000008A
:104440000E94580DB4CC81608093130461E086957E
:104450000E94431CACCC43E85CE16DE87CE1A5CF55
:104460004DE85CE163E87CE1A0CF46E356E160E41F
:1044700076E19BCF40E456E166E376E196CF4CE1EE
:1044800056E169E276E191CF49E256E16CE176E1ED
:104490008CCF4FE056E162E076E187CF4CE556E104
:1044A0006AE476E182CF0E94981C81CC61E086E0CC
:1044B000CFCFFAE5EF16FDE5FF06A9F168F4E114A8
:1044C0003CE5F306B9F08EEDE8168CE5F80609F048
:1044D00009CF0E9487160CC09CE5E9169DE5F906F8
:1044E000C1F018F1B7EAEB16BDE5FB0609F0FACE0C
:1044F0000E947C121092FC030E94B00FEFEFF4E3D5
:104500002CE0E150F0402040E1F700C000000E94A4
:10451000430880919B0282FB882780F991E08927DC
:104520000E94BA14DFCE81E0FBCF80E0F9CFC70153
:104530000E94530BD82EE5CEEF2DEF70DE2E8F2D7F
:10454000807F19F0D29490EFD922CC20B9F0DD20F1
:1045500069F080E28E0D883010F0811009C08091E2
:10456000FC03D82AD092FC030E94730F8E2D4CC0FE
:1045700080912902D82AD0922902F6CF8E2D0E944E
:10458000F412DD2009F442C080E28E0D883010F074
:10459000811004C08D2D0E94420B06C0D0948091E2
:1045A0002902D822D09229020E94730F2FC0FF2D1A
:1045B000FF70DF2E8F2D807F803219F0D29480EF34
:1045C000D822882089F021E0821609F468C0CC2026
:1045D00009F472C0BB2009F468C0F801858180FF2E
:1045E000C5CF8F70858361C020919B0222FD35C0AD
:1045F000CC2069F1DD2039F08091FC03D82AD092DB
:10460000FC030E94730F80E00E944A13E92DE850DA
:10461000FF0B349710F40E94450EAA2009F47CCBBE
:104620008091200280FD78CBD80112961C9285954E
:10463000859585950E94D012C8010E94771E8091B1
:1046400020028595859585950E94A71265CB80E00F
:104650000E94F412DD20D1F29DCFCC2099F09091F0
:104660002A02892F8D29B11003C00E94EA12CECFF1
:1046700031E0B312FACF22FFC9CF981739F28093F5
:104680002A02C4CFB11006C00E943C0B8D2D0E949F
:10469000E312BCCF81E0B81609F4B8CFF5CFCC2037
:1046A00031F095E09B1508F4B1CF8D2DDECFA4E05D
:1046B000AB1508F4ABCFEACFBB2041F3F9E38F127F
:1046C00004C12FEF37EE83E0215030408040E1F706
:1046D00000C000008E2D0E94F41298CF8F2D8370A1
:1046E00091F5C11093CF4E2D429546954770440FDA
:1046F000440F8E2D8F70042E01C0880F0A94EAF7A4
:104700002E2D2071E4FE07C02FE030E001C0220F03
:104710004A95EAF720953F2D36953695337032301D
:1047200069F050F440912B02313029F0822B842320
:104730000E94DC126BCF842B822BFACF282B809126
:104740002B028227F5CF8695CC2011F08F2D81701A
:10475000882309F45BCF4E2D429546954770440F50
:10476000440F8E2D8F70042E01C0880F0A94EAF733
:104770002E2D2071E4FE07C02FE030E001C0220F93
:104780004A95EAF720953F2D3695369533703230AD
:1047900069F050F440911804313029F0822B8423C1
:1047A0000E94941233CF842B822BFACF282B809136
:1047B00018048227F5CFBF2DBF70FB2ECC2029F027
:1047C0008B2F0E94D0128E2D50CF8E2D0E94E3127F
:1047D0008F2D0E94A7121ACF8E2DE2EF8E16B1F107
:1047E000E81570F0F0EF8F16D1F021EF821691F0FE
:1047F000CC2009F45EC0B110B9CE8F2D8F712AC0C4
:1048000033EF831651F194EF8912F2CF80919B021E
:1048100082FD2FC08F2D8F71CC20D9F21BC0CC20F0
:1048200081F0A4E0AB1508F4F1CE2F2D2F7181E0BB
:1048300090E001C0880F2A95EAF790911804892723
:10484000AFCFB5E0BB1508F4E1CEEFCF8F2D8F7160
:10485000C110BFCF0E94D012D9CE80E0CC2009F485
:104860009FCF9F2D9F7181E001C0880F9A95EAF735
:1048700097CFCC2099F0EF2DEF71FE2E8E2F0E9456
:10488000D01280919B0282FF07C0F8E0FF9EC0011A
:1048900011248360809320028F2DDCCF81E00E9461
:1048A000B41221E02B1508F0B1CE82E00E94B412C0
:1048B000ADCEBB2079F0893341F43FEF87EE93E032
:1048C000315080409040E1F703CFAFE1BEE4119753
:1048D000F1F7FECE8F2D8F717CCFB0E1EB16BFE5E7
:1048E000FB0609F45CCBE1E1EE16EFE5FE0609F408
:1048F00060CBF0920003E092FF02F8018081918189
:104900009093020380930103970130582A303105B8
:1049100008F0E4CBF901EB53FB4C0C942234F0E1AA
:10492000EF16FFE5FF0609F440CB21E1E2162FE583
:10493000F206F9F682E03ACB85E0F801DE01119645
:1049400001900D928A95E1F7D80112962C918981F8
:104950009A812111E5C90E94530BF82EE9C91F93D2
:10496000CF93DF938091ED01807F09F049C0809162
:10497000EA01882309F444C080911F02D091EE011E
:104980006091E8017091E901A091EB01B091EC0117
:10499000C62FC72316E0D81799F190E0109711F0B1
:1049A000CF3F19F401968770F6CF189F9001199F99
:1049B000300D1124F901E151FE4F41814713F2CF2F
:1049C00040814613EFCF42814111ECCF43815481A6
:1049D0004A1B5B0B483C510528F78091ED018F7015
:1049E00080618093ED01F901EC50FE4F80818F7062
:1049F0008061808388EE91E00E94771E0E94490BBF
:104A0000DF91CF911F910895A1E1B0E0EAE0F5E2D6
:104A10000C94C5338C0185E0F801DE011D960190F0
:104A20000D928A95E1F7F801E28088EEA82E81E0E8
:104A3000B82E6091EB017091EC016115710509F4DC
:104A400026C19091E8014091E901892F84238F3F8D
:104A500009F41DC120813181C380D480F090EA0126
:104A6000F601E61BF70BFF2009F4DCC08091ED0195
:104A7000582F507FE83CF10508F09FC051116BC0E2
:104A8000FE2C431314C0921312C0E11010C08F709B
:104A900080618093ED01C5010E94771E8091ED0138
:104AA000F80185838F2D6196EAE00C94E133C114FF
:104AB000D10429F0822F83238F3F09F003C180E0C6
:104AC000F82FF170DF2E80FF3CC080911F024091D3
:104AD000EE0156E0841315C02D873E878D859E8597
:104AE0000E944215292F22952F702230F0F0243099
:104AF00018F59F70F1F0F8019581907FD1F4D12CD9
:104B00001EC090E0589FF001599FF00D1124E15113
:104B1000FE4F6181361306C06081261303C0628197
:104B2000E6120FC001968770D5CF9F7011F08823D1
:104B300031F3805E883018F3C8010E94771EFD2C87
:104B4000B1CFEE2009F4AECF8091ED01816080936A
:104B5000ED01F12CA7CF431306C0921304C0F80156
:104B6000EE2009F479C0C8010E944F15882309F18D
:104B7000EE20F9F08091ED01803270F02091E80193
:104B80003091E90138872F831986DB86CA868C87A6
:104B9000CE0107960E94771E86E0F801A8EEB1E0EC
:104BA00001900D928A95E1F70E94AF24FF24F394BF
:104BB00079CFC8010E94771EF9CF51110AC088EE43
:104BC00091E00E94771E86E0F50111928A95E9F73F
:104BD000C0CF43130FC092130DC0E1100BC0F801FA
:104BE0008583C8010E94771E86E0F50111928A959F
:104BF000E9F758CFC8010E944F158823D1F2EE2063
:104C0000C1F28091ED01803238F22091E8013091BB
:104C1000E9013A8329831B82DD82CC828E83CE0117
:104C20000196B8CFE83CF105F8F6FE2CEE2009F22B
:104C300043131FC092131DC08091ED0180FD10C071
:104C4000982F907F69F0F8018583903F31F0982F7D
:104C5000907F905F8F70892B8583C8010E94771E9B
:104C600086E0F801A8EEB1E001900D928A95E1F797
:104C700019CFC8010E944F1581118ECF8091ED018F
:104C800081608093ED01C8010E94771E0BCFEE205A
:104C900009F48FCFC8010E944F15F82E882309F41C
:104CA00088CF86E0F801A8EEB1E001900D928A95D8
:104CB000E1F78091E8019091E9010E9442150E947C
:104CC000AF24F0CE81E08E25FBCEA7E1B0E0EBE68D
:104CD000F6E20C94CC334B8B5C8B6D8B7E8B8F8B85
:104CE0006111109229021A8A198A85E0FE017396D1
:104CF000DE011D9601900D928A95E1F786E0FE0196
:104D00003D96DE01179601900D928A95E1F7CE014E
:104D100007960E940425882359F016E080911F020F
:104D20009091EE01891345C06796E3E00C94E83357
:104D300086E0FE013796DE01119601900D928A956C
:104D4000E1F78A859B85892B41F38F81988589239B
:104D50008F3F19F32091EE0130E0C9010196877071
:104D6000992740911F024817190681F41092FC03FD
:104D70000E94B00F1092EE0110921F0286E0E8EE42
:104D8000F1E0DF011D928A95E9F7C7CF96E0929F87
:104D9000D001939FB00D1124A151BE4FFE01319659
:104DA00001900D929A95E1F78093EE010E94490BD4
:104DB000B4CF819FC001112481519E4F0E940425D0
:104DC000882309F4B1CF80911F0290E0019687708B
:104DD000992780931F02A2CFB0E0A0E0E2EFF6E2B5
:104DE0000C94C13335E0C32E31E0D32E45E2842E3E
:104DF00046E0942E00E011E0712CAA24A394B12C7B
:104E0000D8018D918D010E94AE0C00C0E401688034
:104E100025E0E22E21E0F22EF701D0E0C0E0419142
:104E2000A42FA295AF70B0E090968C9195010C2EB6
:104E300001C0220F0A94EAF790E04F7002C09595E6
:104E400087954A95E2F780FD8EC0622A2196C4308C
:104E5000D10529F7F801319780810E94C20CA0EAA0
:104E6000AA95F1F7F4018081861519F06082772404
:104E70007394FFEF8F1A9F0A21E00530120709F0A3
:104E8000BFCF01E010E0D7018D917D010E94AE0CF3
:104E900000C0C8010C2E01C0880F0A94EAF7782FD1
:104EA000E5E2F6E090E0A92E91E0B92E682F60953A
:104EB000D5012D915D01822F82958F7090E0DC01EC
:104EC00090968C91AF01308190E02F7002C0959543
:104ED00087952A95E2F780FD49C0872F832B808331
:104EE0003196DA018C91381711F077247394CA1433
:104EF000DB04F1F6F701319780810E94C20CB0EA21
:104F0000BA95F1F72196C830D10509F0BCCFC09110
:104F10009902772071F181E08093B4010E94111C05
:104F20009093B3018093B2018091B2019091B3014B
:104F30000E94021C059708F1D0E0CE52DD4F45E0FB
:104F400050E065E276E0CE010E944534892B41F0C5
:104F500085E0E5E2F6E0DE0101900D928A95E1F749
:104F60001092B4010AC02095622270CF862F83234D
:104F7000B6CF8091B4018111D7CF0E94200E182F97
:104F8000E0919902811193C0F0E0EE52FD4F85E06F
:104F9000AEE2B2E001900D928A95E1F765E070E033
:104FA0008EE292E00E947A0880932D02C090330234
:104FB000D0903402E0903502F09036028091B50135
:104FC0009091B601A091B701B091B801C816D90669
:104FD000EA06FB06D1F0C092B501D092B601E0928C
:104FE000B701F092B8010E94200E81110EC00E94FC
:104FF0005408C61AD70AE80AF90AC0929402D09255
:105000009502E0929602F092970280913E028823E8
:1050100079F180FF0DC0809137029091130480FFD9
:105020002DC091609093130460E086950E94431C0C
:1050300080913E0281FF09C020E040913A026091D8
:105040003902809138020E94AE1580913E0282FFA3
:1050500006C080913D02882339F10E94281C80916E
:105060003E0283FF03C081E08093E70310923E027B
:10507000872DCDB7DEB7EEE00C94DD339E7F9093A5
:1050800013040E9497088091EC0381608093EC03E5
:10509000CFEFD0E7E2E0C150D040E040E1F700C000
:1050A00000000E94580DC4CF0E949708D8CFAAE2F2
:1050B000B6E085E0ED0119928A95E9F7CE2FD0E0B0
:1050C000CE52DD4F809124068A30A8F564E478E161
:1050D000CE010E94D70C882309F449C069EF77E11B
:1050E000CE010E94D70C882309F441C063EA77E11E
:1050F000CE010E94D70C8823D1F11092240681E0C2
:105100008093BB01C0919802D0E0CE52DD4F45E0C4
:1051100050E06AE276E0CE010E944534892B09F422
:10512000A7CF85E0EAE2F6E0DE0101900D928A95D4
:10513000E1F7712E9DCF8091B9019091BA010E9443
:10514000021C843F914010F68091BB01882309F432
:105150008FCF1092BB01E0919802F0E0EE52FD4F2C
:1051600095E0DF011D929A95E9F7782E81CF809125
:1051700024068F3F31F08F5F809324068A3008F435
:10518000BECF0E94111C9093BA018093B901DCCF6D
:105190001F921FB61F9211248F939F93AF93BF93BB
:1051A0008091F603811113C08091F7039091F80369
:1051B000A091F903B091FA034196A11DB11D80930E
:1051C000F7039093F803A093F903B093FA03BF9108
:1051D000AF919F918F911F901FBE1F901895CDB7D3
:1051E000DEB7AE970FB6F894DEBF0FBECDBF85B762
:1051F000806885BF85B7806885BF84B7877F84BF97
:105200000FB6F894A8958091600088618093600043
:10521000109260000FBE80E890E00FB6F894809383
:105220006100909361000FBE8EE599E09093A90113
:105230008093A8010E94B9060E9484078091E20031
:1052400084608093E2007894809109048823A1F01F
:105250001091E9001F709091EC00892F817090FDF2
:1052600080E8182B1092E9008091E80083FD0E94ED
:10527000BC0F1F701093E90082E084BD93E095BDE0
:105280009AEF97BD80936E0010929402109295024F
:1052900010929602109297020E948215811102C00C
:1052A0000E94AA140E94C618809109010E94C61883
:1052B000809105010E94C20C809106010E94C20CDF
:1052C000809107010E94C20C809108010E94C20CCB
:1052D00000E011E085E0E82E81E0F82ED8018D9104
:1052E0008D010E94C20CE016F106C1F78091090100
:1052F00095E0811190E09093990285E0891B80935D
:1053000098020E94200E811102C00E944A32E5E2FA
:10531000F6E08FE296E0A2EDB2E011921D928E17B8
:105320009F07D9F70E94DD18811102C00E948716DD
:1053300082E090E00E945B3480939F0284E090E0E2
:105340000E945B34182F82E290E00E945B34982F19
:10535000812F90939B0280939A020E94EC26EFE3A8
:10536000FCE93197F1F700C000000E94EC26809123
:10537000D20280FF08C06FEF7FEF90E080E00E94D4
:105380008D340E94430883E090E00E945B340E94C9
:10539000DC120E94200E882309F459C180E080931A
:1053A000CD0280E8809319040E9401316DE070E025
:1053B0008AE192E00E94B113892BE9F58091CD0238
:1053C00063E070E081FD45C187E192E00E94B11386
:1053D000892B89F56DE070E087E092E00E94B113BF
:1053E000892B49F50E945408605A75418F4F9F4F91
:1053F0006093EE037093EF038093F0039093F103B7
:10540000ECE1F4E080E092E0DF019C011D9221508C
:105410003040E1F7F0932306E09322068FEF9FEFF1
:1054200090931B0480931A0481E08093F30380938C
:10543000F2031092CE0280919C02811138C00E942A
:10544000DD18811104C00E9487160E946E1688E044
:1054500090E00E946334609313047093140480936B
:105460001504909316048091EC0383608093EC0301
:105470006E7F71F40E946E1688E090E00E946334A3
:10548000609313047093140480931504909316048E
:105490000E949E080E9497088091130480FF04C018
:1054A00060E086950E94431C81E080939C020E94EC
:1054B000200E811102C00E944A320E947A1A0E9474
:1054C000200E81112EC084E69CE0909351018093C0
:1054D000500126E130E030934C0120934B0186E3EC
:1054E00090E090934F0180934E014AE459E050932D
:1054F00059014093580130935401209353019093E4
:1055000057018093560148E45AE15093610140935A
:10551000600130935C0120935B0190935F01809365
:105520005E010E94DD18882389F08FE090E00E94E0
:1055300063348B01862F8F770E942F1A001F00275C
:10554000001F1370110F102B1093F90283E190E0EC
:105550000E946334609311037093120380931303CA
:105560009093140382E691E09093F5038093F40303
:10557000B0E46B2EEE24E3948091090400E112E183
:10558000853009F4A7C00E94EC2600EA12E087E803
:1055900091E09CA78BA7BC0122ED32E0F80191912C
:1055A000D9018D919D01DB014D91BD018423AAEAB2
:1055B000CA2EA2E0DA2ECE16DF0609F497C098179D
:1055C00071F30E94200E482EE7E8CE2EE1E0DE2E99
:1055D000F2EDAF2EF2E0BF2E912CD501FD905D01D2
:1055E000F60181916F01F822D8015D908D015F1461
:1055F00029F15F24812C77247394852D8721B1F0C4
:105600004420A1F08EA29FA291E08F2D872109F462
:1056100090E098A70E94111C8160782F9AA789A713
:105620004EA15FA168A58AA50E9465268394770C88
:10563000B8E08B12E2CFF8013197F0829394EAE060
:105640009E12CBCF0E945408FF24F39470C082E0D6
:10565000A6CE84E192E0BACE80910904843039F17B
:105660000E94DB130E94B61C1092F60348E150E042
:105670000FB6F894A895409360000FBE609260004A
:1056800083B7817F846083BF83B7816083BF789451
:10569000889583B78E7F83BF0FB6F894A8958091C5
:1056A0006000886180936000109260000FBE80915E
:1056B0000804882379F00E94EC26A7E8B1E0E2ED27
:1056C000F2E081919D91892309F0A9C452E0EC3D5B
:1056D000F507B9F780910904853009F4BDCF109220
:1056E000FC030E94B00F0E94450E4DCF981369CF66
:1056F0000E94111C8C0180919D0290919E020817BE
:105700001907A1F08FEF89A38AA31BA20E94111C85
:105710008160782F9DA38CA349A15AA16BA18DA173
:105720000E94652610939E0200939D02F12C0E9418
:10573000200E8091EB03882309F463C08091EA0373
:10574000E0911304E695E81BE093E603823009F04C
:1057500075C1F0E0E75DFD4FE4910E2F10E075EFAD
:10576000C72E7DE0D72E8091E703882361F0109249
:10577000E7030E941D1C9093E5038093E4031092BD
:10578000E9031092E8030E941D1CE091E403F091EC
:10579000E5039C012E1B3F0B2F3F3F4790F52091C7
:1057A000AC022223B1F01092AC022091AA023091F7
:1057B000AB02821B930B8F3F9F4758F4205D3A4802
:1057C0003093AB022093AA028091EC03886080930F
:1057D000EC03A090E803B090E9030E0F1F1F109395
:1057E000E5030093E40384EE93E0F60109958091CC
:1057F000E8039091E903892B21F4AB2811F0E092A2
:10580000AC028091F303882351F18091CF029091F3
:10581000D0020E94021CC29708F022C120911A04F3
:1058200030911B042115310509F0CDC18091F2039F
:105830008823A9F00E9454080091EE031091EF0311
:105840002091F0033091F103601B710B820B930BDD
:105850006F3F7F4F8F4F9F4710F40E94DB13F11073
:105860000E94F6130E94B61C0E94450E9091D10230
:10587000891721F08093D1020E9454088091090475
:10588000843009F473C20E94200E882309F474CE78
:105890000E9454082091E20221116BC00091DE02A7
:1058A0001091DF022091E0023091E1026B017C0156
:1058B000C01AD10AE20AF30A97018601043F114097
:1058C0002105310508F455C06093DE027093DF02B4
:1058D0008093E0029093E1028091DC029091DD02DE
:1058E00001969093DD028093DC0219828E010F5F96
:1058F0001F4F21E050E040E060E088E00E944D173B
:10590000811106C08091DC029091DD020A978CF132
:1059100081E08093E2028093E8029981911101C0B5
:1059200080E08093E9028091E70210E0882329F06B
:105930000E94700E11E0811112E08091E90288232B
:1059400009F469C30E94700E811167C382E0182BAD
:105950000E9479156B017C01DC01CB018C7FBC01BD
:10596000CD01612BC616D706E806F90611F00E9494
:105970008C148091E902882309F4FCCD0E9454081C
:105980006B017C018091E3029091E402A091E50219
:10599000B091E602A7019601281B390B4A0B5B0B5D
:1059A000DA01C9010497A105B10580F119821A82B3
:1059B0001B821C828E010F5F1F4F24E050E040E0ED
:1059C00060E089E00E944D178823C1F069817A81E7
:1059D0008091EE029091EF020E949B0C9093EF0257
:1059E0008093EE026B817C818091F0029091F102B4
:1059F0000E949B0C9093F1028093F002C092E3020C
:105A0000D092E402E092E502F092E6028091F30285
:105A1000882309F4AFCD8091F202898310E000E081
:105A200020E0AE014F5F5F4F61E08AE00E944D17BA
:105A3000882309F49FCD1092F3029CCD00ED17E06E
:105A400056E9C52E58E0D52E863009F08CCEE7E217
:105A5000F2E0059114916CEBC62E6DE0D62E83CE4C
:105A60000E94111C9093D0028093CF028CE194E0AD
:105A700090932306809322060E94200E882309F427
:105A80009DC08FE292E00E94080F809118040E944E
:105A9000BD0B0E94690C0E94880E8DE292E00E946C
:105AA000080F81E00E94160F1091FF0288E792E034
:105AB0000E94080F809102030E94690C0E94880EC8
:105AC00084E792E00E94080F809101030E94690C14
:105AD0000E94880E112309F46BC081E792E00E94B6
