:100000000C9422050C943F050C943F050C94872E0C
:100010000C943F050C943F050C943F050C943F0550
:100020000C943F050C943F050C94B2190C946E1976
:100030000C94D2240C943F050C943F050C943F057E
:100040000C943F050C943F050C943F050C943F0520
:100050000C943F050C948B1A0C943F050C943F05AF
:100060000C943F050C943F050C943F050C943F0500
:100070000C943F050C943F050C943F050C943F05F0
:100080000C943F050C943F050C943F050C943F05E0
:100090000C943F050C943F050C943F050C943F05D0
:1000A0000C943F050C943F050C943F050501090293
:1000B000A10185020901A1000509190129081500FE
:1000C0002501950875018102050109300931158165
:1000D000257F95027508810609381581257F9501D0
:1000E00075088106050C0A38021581257F95017572
:1000F000088106C0C00660FF0961A1010962150000
:1001000026FF009520750881020963150026FF006F
:10011000952075089102C005010906A1010507197E
:10012000E029E71500250195087501810295017503
:100130000881010507190029FF150026FF00950613
:1001400075088100050819012905950575019102B9
:10015000950175039101C00000000000000000003F
:10016000000000000000000000000000000000008F
:1001700000000000000000000000007E0F00D4FF1F
:10018000FFFFC70000007800000000000000002A08
:100190002B2800000000000000000000000000000C
:1001A000000029000000002C1E34202122243426C7
:1001B00027252E362D3738271E1F202122232425C0
:1001C000263333362E37381F0405060708090A0B75
:1001D0000C0D0E0F101112131415161718191A1BE7
:1001E0001C1D2F3130232D350405060708090A0B85
:1001F0000C0D0E0F101112131415161718191A1BC7
:100200001C1D2F3130354C00DA0281FFD9F1DB2083
:10021000A4A62EAF00A0C000A1C800AED580A81F24
:10022000D300408D1420000004616263646566673A
:1002300068696A6B6C6D6E6F7071727374757677C6
:1002400078797A313233343536373839305245425D
:10025000545F2D3D5B5D5C233B27602C2E2F2020BF
:100260002700204B0020204300526565783A20206B
:100270005200202044003030202053002020202035
:100280002043504900202020202000808182838448
:1002900085868788898A8B8C8D8E8F909192939496
:1002A000A0A1A2A3A4A5A6A7A8A9AAABACADAEAFD6
:1002B000B0B1B2B3B4C0C1C2C3C4C5C6C7C8C9CA4D
:1002C000CBCCCDCECFD0D1D2D3D40000010101010F
:1002D0000101010101020202020202020202030301
:1002E00003030303030304040404040404050505D1
:1002F0000505060606060607070707070808080893
:10030000090909090A0A0A0B0B0B0C0C0C0D0D0D3F
:100310000E0E0E0F0F0F10101111111212131314D5
:1003200014151516161717181819191A1A1B1B1C4D
:100330001D1D1E1E1F2020212222232424252626A7
:10034000272829292A2B2C2D2D2E2F3031323233DC
:100350003435363738393A3B3C3D3E3F40414243E5
:100360004445464748494A4C4D4E4F5051535455C9
:100370005658595A5B5D5E5F616264656668696B79
:100380006C6D6F7072737577787A7B7D7E808283F7
:100390008587888A8C8E8F91939596989A9C9EA03B
:1003A000A2A3A5A7A9ABADAFB1B3B5B7BABCBEC048
:1003B000C2C4C6C9CBCDCFD1D4D6D8DBDDDFE2E411
:1003C000E7E9EBEEF0F3F5F8FAFDFF00AF00AE2938
:1003D000001E001F0020001D001B00060019002148
:1003E0000022002B0014000500E000E300E2001AE8
:1003F000000800150017002C00000000000000E0BD
:1004000000040016000700000000000000000009C2
:10041000000A00E5000000000000000000000023CA
:100420000024002500260010003600370038002781
:10043000002D001C00180028002C00E600E7000C2E
:1004400000120013002A0065000000000000000BED
:10045000000D000E000F000000000000000000333F
:10046000003400110000000000000000000000093E
:10047000025B00030100A0FA09040000010301016E
:100480000009211101000122400007058103080035
:10049000010904010002030000000921110100010B
:1004A0002222000705820320000107050303200024
:1004B00001090402000103000000092111010001EB
:1004C00022490007058403200001120100020000F8
:1004D0000008383936350100010200010E035200D0
:1004E00065006500780035003600000012036B00DF
:1004F00075007300680069006D006100380000003D
:10050000040309040000000000003E5B4F5B3E0056
:100510003E6B4F6B3E001C3E7C3E1C00183C7E3CFC
:1005200018001C577D571C001C5E7F5E1C000018C5
:100530003C180000FFE7C3E7FF0000182418000084
:10054000FFE7DBE7FF0030483A060E00262979294D
:100550002600407F05050700407F05253F005A3CE7
:10056000E73C5A007F3E1C1C0800081C1C3E7F0014
:1005700014227F2214005F5F005F5F0006097F0185
:100580007F00006689956A0060606060600094A2E8
:10059000FFA2940008047E04080010207E201000B2
:1005A00008082A1C0800081C2A0808001E10101041
:1005B00010000C1E0C1E0C0030383E383000060EA9
:1005C0003E0E060000000000000000005F0000007A
:1005D000000700070000147F147F1400242A7F2ADC
:1005E00012002313086462003649562050000008A8
:1005F00007030000001C224100000041221C0000F3
:100600002A1C7F1C2A0008083E0808000080703061
:1006100000000808080808000000606000002010C2
:10062000080402003E5149453E0000427F40000060
:100630007249494946002141494D33001814127F3F
:1006400010002745454539003C4A494931004121C0
:1006500011090700364949493600464949291E0013
:1006600000001400000000403400000000081422C4
:100670004100141414141400004122140800020153
:10068000590906003E415D594E007C1211127C0052
:100690007F49494936003E41414122007F41414165
:1006A0003E007F49494941007F09090901003E4157
:1006B000415173007F0808087F0000417F4100001E
:1006C0002040413F01007F08142241007F4040400C
:1006D00040007F021C027F007F0408107F003E4123
:1006E00041413E007F09090906003E4151215E005B
:1006F0007F091929460026494949320003017F0133
:1007000003003F4040403F001F2040201F003F406B
:1007100038403F00631408146300030478040300A6
:100720006159494D4300007F4141410002040810D6
:100730002000004141417F000402010204004040CA
:100740004040400000030708000020545478400057
:100750007F2844443800384444442800384444281E
:100760007F0038545454180000087E0902001824F1
:10077000241C78007F080404780000447D400000B9
:100780002040403D00007F102844000000417F4091
:1007900000007C04780478007C0804047800384465
:1007A000444438007C1824241800182424187C00A1
:1007B0007C080404080048545454240004043F44B2
:1007C00024003C4040207C001C2040201C003C4079
:1007D00030403C004428102844004C9090907C000D
:1007E0004464544C44000008364100000000770087
:1007F00000000041360800000201020402003C260D
:1008000023263C00000000000000F8FCFCFC3C3CFF
:10081000FCFCFCF80080C0F0F8FC7E00000000004A
:100820000000000000000000000000FCFCFCFC00D8
:100830000000000000000000FCFCFCFC00000000C8
:1008400000000000000000000000000000FCFCFCB4
:10085000FC000000000000000000FCFCFCFC0000AC
:100860000000000000000000000000000000007E0A
:10087000FCF8F0E0C080000080C0E0F0F8FC7E00F2
:100880000000E0F0F0F0E0ECEEF7F37020007C7C8C
:100890007C7E007E7E7E7F7F7F000080C0E07E5B6E
:1008A0004F5BFEC00000C000DCD7DEDEDED7DC0020
:1008B000C000000000000000000000000000000078
:1008C00000000000000000000000FFFFFFFF00002C
:1008D000FFFFFFFF7F1F0F07010000000000000067
:1008E0000000000000000000000000FFFFFFFF000C
:1008F0000000808080800000FFFFFFFF00000000FC
:1009000000000000000000000000000000FFFFFFEA
:10091000FF000080808080000000FFFFFFFF0000DC
:1009200000000000000000000000000000000000C7
:100930000081C3E7FFFFFFFFFFFFE7C38100000067
:1009400000000F1F3F7F7F7F7F7F3F1E0C001F1F18
:100950001F3F003F3F3F7F7F7F00307B7F7830200D
:100960002030787F3B0003000F7F0F0F0F7F0F00B9
:100970000300000000000000000000000000000074
:1009800000000000000000000000FFFFFFFF00006B
:100990000101010000000000000000000000000054
:1009A00000000000000000000000003F3F3F3F004B
:1009B00000003F3F3F3F00003F3F3F3F000000003F
:1009C000000000000000000000000000003F3F3F6A
:1009D0003F00003F3F3F3F0000003F3F3F3F0000E0
:1009E0000000000000000000000000000000007E89
:1009F0003F1F0F07030100000103070F1F3F7E0089
:100A000000000000000000000000000000000000E6
:100A100000000000000000000000000000000000D6
:100A200000000000000000000000000000000000C6
:100A300000000000000000000000000000000000B6
:100A40000000000011241FBECFEFDAE0DEBFCDBFF3
:100A500011E0A0E0B1E0E4EAF1E602C005900D92F9
:100A6000A43AB107D9F726E0A4EAB1E001C01D928B
:100A7000AE31B207E1F70E94F9240C949D300C943A
:100A80000000E8EDF0E080818E7F80831092E2002C
:100A90001092DA001092E100A0EEB0E08C9181603B
:100AA0008C9380818F77808319BCA7EDB0E08C9107
:100AB0008E7F8C9380818F7E80831092ED030895CA
:100AC0002091E4003091E50095E6A9012091EC0029
:100AD000822F817020FF06C08091E80080FF06C051
:100AE00080E008952091E80022FD1AC08091FB0368
:100AF000882389F0853089F08091EB0085FD0FC057
:100B00002091E4003091E50042175307F9F291502B
:100B1000E1F684E0089582E0089583E0089581E09D
:100B20000895EF92FF920F931F93CF937C018B0157
:100B30000E946005C82F811117C08091E80085FDD3
:100B40000BC08091E8008E778093E8000E946005DA
:100B5000882399F3C82F08C0F70181917F01809302
:100B6000F1000150110949F78C2FCF911F910F917E
:100B7000FF90EF9008958091FD0387FF13C080914F
:100B8000E80082FF06C08091E8008B778093E80040
:100B900004C08091FB038111F2CF08958091FB0383
:100BA0008823D9F38091E80080FFF8CF8091E80096
:100BB0008E77ECCF982F9093E900242F762F50E07A
:100BC000891731F07091EC002091ED005091F00008
:100BD00021FD07C09F5F973071F78093E90081E0A6
:100BE00008953091EB003E7F3093EB003091ED00A3
:100BF0003D7F3093ED003091EB0031603093EB009E
:100C00007093EC002093ED005093F0002091EE00E3
:100C100027FDE0CF80E00895B0E0A0E0E2E1F6E05B
:100C20000C94C12FC8EDD0E088818F7E8883E7EDDA
:100C3000F0E080818160808384E082BF81E08093E6
:100C4000ED0388818E7F888302EE10E0F801108228
:100C50001092DA0081EEC82ED12CF6011082888124
:100C60008F77888388818068888388818F7D888357
:100C700019BC1092FB031092FC031092FA0310921D
:100C8000F90390EEE92EF12CF70180818B7F8083B0
:100C900088818160888342E060E080E00E94DA051C
:100CA000F60180818E7F8083F8018081816080835E
:100CB000808188608083F70180818E7F8083888136
:100CC00080618883CDB7DEB7E8E00C94DD2FFC01AE
:100CD000809103049091040486179707A0F0611592
:100CE000710529F49091E8009E779093E80090E0D8
:100CF0006115710551F4911108C08091E80082FFDF
:100D000034C080E00895BC01F2CF8091FB038823BA
:100D1000C1F18530C1F18091E80083FD30C0809140
:100D2000E80082FDEACF8091E80080FFE1CF80916A
:100D3000F3002091F200382F6115710519F0283069
:100D4000310558F091E02830310509F090E020910C
:100D5000E8002E772093E800CBCF81918093F100BB
:100D6000615071092F5F3F4FE7CF8091FB038823CC
:100D700041F0853041F08091E80083FFBECF81E0F3
:100D8000089582E0089583E00895089508950895F0
:100D90008091F003089587E797E790930108809387
:100DA000000888E19AE00FB6F894A8958093600057
:100DB0000FBE90936000FFCF2FB7F8946091E903C6
:100DC0007091EA038091EB039091EC032FBF08959B
:100DD0009C01FC0132969FEF80E04191461751F053
:100DE0009F3F19F4411101C0982F8F5F8630A9F7FA
:100DF0009F3F09F40895290F311D97FD3A95F90198
:100E000062830895FC01680F791F8FEF91E32191B0
:100E1000822728E030E087FF09C0880F892721500A
:100E20003109C9F7E617F70791F70895880FF7CF4B
:100E3000FA01811101C0FB01099508950895ECEDB7
:100E4000F3E0118282818460828308958091D703C8
:100E5000982F9E7F61F4817082608093D703809188
:100E6000DA03853618F084E68093DA030895863035
:100E7000B0F381708460F1CFAF92BF92DF92EF92B6
:100E8000FF920F931F93CF93DF93082F162FE90143
:100E9000E42FF0E0E553FD4F611110C0E4915E2FA7
:100EA0004E2F4983E8835A83DF91CF911F910F9191
:100EB000FF90EF90DF90BF90AF900895E62EF12C59
:100EC0004491D42EE42FF0E026E0829FC00111244B
:100ED0002FEF30E0B9010E94A32F802F90E0880F00
:100EE000991F55E5569FD001579FB00D11248A1BBD
:100EF0009B0B982F990F890F5901AE18BF08AE9E12
:100F0000D001AF9EB00DBE9EB00D11245B2F189F77
:100F100080011124012F11275901A01AB10AAE9E98
:100F20008001AF9E100DBE9E100D11245901A81A0C
:100F3000B108AE9CC001AF9C900DBE9C900D1124D9
:100F4000892F9927281B390B2E9FC0012F9F900DA9
:100F50003E9F900D1124E92F62307105A1F050F4ED
:100F60006115710509F49DCF6130710581F0EB2F9A
:100F7000512F97CF6430710569F080F066307105AC
:100F800009F48FCFF4CFE42F4B2F592F8ACFE42FC2
:100F9000412F87CFEB2F542F492F83CF4B2F5D2D20
:100FA000E12F7FCFCF93DF93E3EEF2E08381948153
:100FB000A581B681E90188839983AA83BB831482C2
:100FC000138216821582DF91CF91089580E00895F3
:100FD00063E070E08CE392E00E94020790913B0294
:100FE000891318C0E0913C02EB30A4F488E0E802D9
:100FF000F0011124E65FFE4F0680F781E02D309767
:1010000049F02FE532E040913E026FE372E08091BB
:101010003D0209950895EAE0F1E0A9E2B2E05496B4
:101020008C91549780A755968C9183AF0895909199
:10103000960292FF06C0282F28712830F9F4877F86
:10104000846093FF06C0282F28712831F1F4877E31
:1010500084612091970220FF06C0382F3871383004
:10106000D9F4877F816021FF06C0282F287128319D
:10107000D1F4877E816194FD877E0895282F2471A5
:101080002430F9F68B7F8860DCCF282F247124313F
:1010900001F78B7E8861DDCF382F3171313019F740
:1010A0008E7F8860E0CF282F2171213121F78E7E3D
:1010B0008861E1CFCF93DF93EC018238910589F10C
:1010C000E0F58133910509F499C028F5893291053D
:1010D00009F489C08A9709F498C0C11523E5D2079D
:1010E00008F0B3C0C11532E5D30708F00FC1C11530
:1010F00040E2D40708F097C0C11581E0D80758F541
:10110000C53AD10508F088C0C430D10520F5C130FA
:10111000D10509F145C08533910509F45FC0C99730
:10112000E1F680919602837009F025C180919702C3
:1011300083FF11C0C9E2D0E00EC0833E910599F152
:1011400070F4803E910501F1823E910531F6809167
:10115000960282FD21C0CE01DF91CF910895863E97
:10116000910561F1873E910571F1843E910509F089
:10117000B4CF8091970281FFEECF80919602C7EEA7
:10118000D0E084FD0DC0E7CF8091960280FD33C092
:101190009091970290FFDFCFC3EED0E084FFDBCFCA
:1011A000D0E0C0E0D8CF8091960282FDE1C090915E
:1011B000970290FDE0C084FFCECFF2CF80919602DF
:1011C00083FDDDCFC8CF8091960283FDD7C090917B
:1011D000970291FFF0CFC4EED0E0BDCF8091960290
:1011E00085FFB9CFA7CF8091960285FDCAC08091B7
:1011F000970283FFB0CFC9E3D0E0ADCF80919602D4
:1012000086FFA9CFCAE2D0E0A6CF8091960286FFE2
:10121000A2CFC1E3D0E09FCFCE01815E91090797B5
:1012200008F499CFBDCFC11521E5D20708F069C0F8
:10123000C11530E5D30708F050C0C11540E4D4070C
:1012400008F4AECFDF70D06A86CFC11586E5D80727
:10125000F0F4C11525E5D20708F071C0C11534E5D9
:10126000D30708F067C0CE018370992721E030E0F2
:1012700002C0220F331F8A95E2F7C695C69540E259
:10128000C49FE0011124C22BD32BDA6864CFC115AF
:101290004AE5D40778F4C11589E5D80708F05AC0A3
:1012A000C11528E5D20708F47BCFDC2FCC27C06F0F
:1012B000D06A51CFCE0190568115904208F070CF80
:1012C0008D2F8F710E94170890E0982F882788270C
:1012D0009F719C012C2BE9013BC0CE0183709927A3
:1012E00021E030E002C0220F331F8A95E2F7C69555
:1012F000C69540E2C49FE0011124C22BD32BDD68C8
:101300002ACFDC2FCC27C16FD06A25CFCE018370C6
:10131000992721E030E002C0220F331F8A95E2F7BF
:10132000C695C69580E2C89FE0011124C22BD32B3D
:10133000DC6811CFDC2FCC27C46FD06A0CCF8C2F88
:101340000E941708C82FD0E0DC2FCC27CC27DF71F4
:10135000D06201CF8C2F8F700E94170834E0D69591
:10136000C7953A95E1F7CF709C2FEC01D069F3CE89
:10137000C2EED0E0F0CEC0EED0E0EDCEC6EED0E0D2
:10138000EACEC5E3D0E0E7CE80912602811110922B
:101390002602089580959091EE0398239093EE0392
:1013A000089580911B029091EA01981301C008955D
:1013B0008F5F8770FACF9A3080F5883070F548E0FB
:1013C000949F90011124820F932F911D682F6770B5
:1013D00023E0969587952A95E1F7FC01EE0FFF1F14
:1013E000E80FF91FEA53FE4F50E040E080E0219102
:1013F00030E0062E02C0369527950A94E2F7217058
:101400003327042E01C0220F0A94EAF7822B4F5F84
:101410005F4F4330510559F7089580E008959A30A1
:1014200098F5883088F548E0949F90011124820F48
:10143000932F911D282F277041E001C0440F2A955A
:10144000EAF723E0969587952A95E1F7FC01EE0FE0
:10145000FF1FE80FF91FEA53FE4F90E080E070E0B5
:101460005191DF0111979B01082E02C036952795F7
:101470000A94E2F7217021952527242325272C9310
:1014800001968330910561F70895B0E0A0E0EBE4A8
:10149000FAE00C94C12FFC01EB019091F50291113F
:1014A00001C094E04081518191509A01092E02C0FF
:1014B000359527950A94E2F7B901092E02C0660F07
:1014C000771F0A94E2F7461B570B518340834281F2
:1014D00053818A01092E02C0159507950A94E2F7F7
:1014E000B80102C0660F771F9A95E2F7461B570BAB
:1014F0005383428321387FEF37077CF02038310552
:1015000074F421952D8301388FEF180754F0802F44
:10151000003811053CF08FE705C021E8F2CF2FE736
:10152000F0CF81E881958C830E94DC062D8121110A
:1015300003C02C812223B9F06093F6027093F70266
:101540008093F8029093F9028091FA029BE0980F41
:10155000973120F4080F0093FA021D82CDB7DEB751
:10156000E8E00C94DD2FC090F602D090F702E090F6
:10157000F802F090F9026C197D098E099F09643612
:1015800071058105910500F31092FA02DDCFCF932A
:10159000C82F8091F0028C1751F00E94DC066093F6
:1015A000F1027093F2028093F3029093F402C093DD
:1015B000F002CF9108958091E302F90180830895AC
:1015C000382F20E287FF02C031952DE24AE0832FB9
:1015D000642F0E94FA2F905D9093BB0181110BC084
:1015E0002093BA0120E22093B90120E22093B801B0
:1015F00088EB91E00895642F0E94FA2F905D9093FC
:10160000BA01832F64E60E94FA2F882361F3805D7C
:101610008093B901EBCF9C01860F971F37FD07C060
:1016200077FD04C097FF02C08FEF9FE7089577FF13
:10163000FDCF97FDFBCF80E090E80895E82FE2957D
:10164000EF70F0E031A1282F2F7081E090E001C011
:10165000880F2A95EAF7382B31A392A18095892328
:1016600082A30895E82FE295EF70F0E031A1282FD2
:101670002F7081E090E001C0880F2A95EAF7982F3B
:101680009095932391A392A1892B82A30895B0E012
:10169000A0E0EDE4FBE00C94C12F7C016B01809194
:1016A000110601E010E08A3010F40AE010E0C1E019
:1016B000D0E067E176E0C701F6010995811104C029
:1016C00021960C171D072CF4CDB7DEB7E8E00C947B
:1016D000DD2FCC9F9001CD9F300D300D112490E077
:1016E00080E045E34A95F1F70000019682179307E1
:1016F000C1F7DFCF9C0184E08093E9009FEF8091E8
:10170000E800915085FD06C085ED8A95F1F700004F
:101710009111F5CF8091E80085FF0CC050E040E0CA
:1017200066E070E0C9010E9491058091E8008E7723
:101730008093E8000895CF93DF93EC0181E08093DC
:10174000E9008FEF9091E800815095FD06C095ED7E
:101750009A95F1F700008111F5CF8091E80085FF9F
:1017600014C050E040E068E070E0CE010E949105B6
:101770008091E8008E778093E80088E0FE01A1EF79
:10178000B3E001900D928A95E1F7DF91CF91089532
:10179000609176018091D70380FF20C08091750110
:1017A00043E0849FC00111248F5E9C4F539A2BB15C
:1017B000277F3BB138605FB7F894FC01649FE00D70
:1017C000F11D1124BF0168177907D1F45FBF8FE5C0
:1017D00094E00197F1F700C000000895809177012F
:1017E0009091780123E0829FF0011124EF5EFC4F7D
:1017F0008917A0F61182108212828F5F3396F8CF7C
:10180000FC014191CF01E8E03BB9000000C047FF77
:101810002BB9440F000000C000C000C02BB900C0AD
:10182000EA9591F7D0CF9091D70390FF0EC0909199
:1018300077012091780133E0939FF0011124EF5E4E
:10184000FC4F921718F00E94C80B089581836083A3
:1018500042839F5F3396F5CFA3E0B0E0E2E3FCE084
:101860000C94C52F8C018091DF0381110AC09E0169
:101870002F5F3F4F44E66FEF0E943C078A818093C1
:10188000DF03F8016481613069F08091DF0340E09B
:10189000662361F040E0623011F44091DF0380E0A4
:1018A00060E004C06091DF0340E080E00E94130C20
:1018B000F801848190E0019663E070E00E940830B6
:1018C00084832396E4E00C94E12F80912802811117
:1018D00019C082E390E02091E30027FD10C0EFE300
:1018E000FCE93197F1F700C000000197A1F782E011
:1018F000809328020E9441051092FB0303C081E0FF
:101900008093280281E090912802913011F080E0CC
:10191000089508950E94650C882359F0E091E6032C
:10192000F091E703309729F00190F081E02D0995BF
:10193000089580E008950F931F930E94650C8823FB
:1019400029F00E94DC061F910F9108950E94DC0689
:101950000091900210919102209192023091930295
:10196000600F711F821F931FEECF26982E9A249A24
:101970002C9885E08A95F1F7000083B124982C9A81
:1019800090EA9A95F1F790E026E0959587952A954B
:10199000E1F78095909581700895CF93DF93682F3C
:1019A00081E06A3019F06D3031F480E00E945B0D07
:1019B000DF91CF91089580910F069091100626E057
:1019C000FC01A9E0B6E001900D922A95E1F7603E96
:1019D00008F458C026E0FC0111922A95E9F7C0915D
:1019E0000F06D091100646E050E0BE0189E096E077
:1019F0000E943F309E0129503440892B41F1C9019A
:101A000045E0969587954A95E1F741E050E0BA01A7
:101A100002C0660F771F8A95E2F7CB016091070439
:101A200070910804862B972BB9016B5F7F4FE5E01F
:101A300076956795EA95E1F702C0440F551F6A95C0
:101A4000E2F7842B952B90930804809307042A5F78
:101A50003F4F40910604642F70E0C9010E94A32FFC
:101A6000481B463010F4240F311D211572E0370752
:101A700010F030E020E0275F3B4F309310062093BA
:101A80000F0696CFF6E06F9FB00111246C5F7A4F7E
:101A900046E050E00E942930A2CFCF93DF93EC01C3
:101AA000FE018491811103C0DF91CF9108950E94BE
:101AB000CD0C2196F5CFCF93382FE0910F06F09102
:101AC0001006E950F44020910604622F70E0CF0127
:101AD0000E94A32F281B822F332361F066E00E940F
:101AE000EE2FC82FC15010F4CF91089580E20E94CC
:101AF000CD0CF8CF9F01280F311D2115324018F071
:101B000080E0F0E0E0E08E0F9F2F911D875F9B4FFC
:101B10009093100680930F06E7CFAEE1B0E0E3E9C3
:101B2000FDE00C94C72F40910B0350910C03609182
:101B30000D0370910E0380910F03909110030E948A
:101B40009E1720930B0330930C0340930D03509387
:101B50000E0360930F037093100386E0EBE0F3E055
:101B6000DE01179601900D928A95E1F786E0FE015D
:101B70003796DE011D9601900D928A95E1F786E079
:101B8000FE013D96DE01119601900D928A95E1F7D6
:101B900086E0FE013196ABE0B3E001900D928A95AC
:101BA000E1F786E0EBE0F3E0DE01599601900D925B
:101BB0008A95E1F786E0FE017996DE01179601909D
:101BC0000D928A95E1F786E0FE013796DE011196C7
:101BD00001900D928A95E1F786E0FE013196DE01D3
:101BE000539601900D928A95E1F786E0FE01739677
:101BF000DE01179601900D928A95E1F786E0FE01CD
:101C00003796ABE0B3E001900D928A95E1F746E09C
:101C100050E065E073E08BE093E00E943F30892B59
:101C200079F0E091E603F091E703309749F082E024
:101C300080930B030480F581E02D8BE093E0099500
:101C400010920D0310920E0310920F0310921003C6
:101C500086E0EBE0F3E0A5E0B3E001900D928A9519
:101C6000E1F76E96E2E00C94E32F8091EE03909101
:101C70002502892B8093A60190912602992391F049
:101C8000892B8093A60120E088EA91E0FC01319144
:101C9000CF0131112F5FF1E08E3A9F07B9F7211183
:101CA0000E94C40948E050E06DE172E086EA91E0EC
:101CB0000E943F30892BA9F088E0E6EAF1E0ADE12F
:101CC000B2E001900D928A95E1F7E091E603F09180
:101CD000E703309731F00280F381E02D86EA91E04E
:101CE00009950895E8EAF1E086E0DF011D928A9502
:101CF000E9F7109225020E94350E0895AAE2B0E09D
:101D0000E4E8FEE00C94C62F8DEF93E02091F10003
:101D1000DC012D93CD01B4E085309B07B9F78091AC
:101D2000FE03833009F472C0B8F4813009F449C06D
:101D3000823009F4B5C08091E80083FF8DC28091A4
:101D4000FD039091FE039A3008F086C2E92FF0E07F
:101D5000E156FF4C0C941C308A3009F490C08B3053
:101D600009F471C0893039F78091FD03813219F788
:101D70008091010490910204009711F00297D9F626
:101D80008091E800877F8093E8008091E80082FFDF
:101D900038C09091F3008091F200029731F4809165
:101DA000F100813011F0863021F48091F1008093B0
:101DB000F0038091E8008B778093E8000E94BB05D8
:101DC000BACF8091FD03813A09F0B5CF8091E80048
:101DD000877F8093E8008091010490910204892B11
:101DE00061F468E081EF93E070E00E946706809103
:101DF000E8008B778093E8009ECF60E090E080E081
:101E0000F3CF8091FB038111C0CF95CF8091FD036B
:101E1000813A09F090CF8091010490910204892BBE
:101E200009F089CF8091E800877F8093E800809156
:101E3000E80080FFFCCF80917B018093F1008091CE
:101E4000E8008E77B9CF8091FD03813209F073CF1E
:101E50008091010490910204892B09F06CCF80914C
:101E6000E800877F8093E8000E94BB058091FF0314
:101E700080937B011092EE030E94720E5CCF8091E2
:101E8000FD03813209F057CF8091E800877F80936E
:101E9000E8000E94BB05809100048093EF034BCFC4
:101EA0008091FD03813A09F046CF8091E800877F59
:101EB0008093E8008091E80080FFFCCF8091EF03E1
:101EC000BCCF803899F0823809F0C6C180910104F6
:101ED0008F70873008F0C0C18093E9008091EB00DB
:101EE00085FB882780F91092E90006C08091F903EC
:101EF0009091FA03911182609091E800977F9093FE
:101F0000E8008093F1001092F1008091E8008E7754
:101F10009FC1882309F48DC1823009F09DC1809151
:101F2000FF03811190C1809101048F702FEF280F62
:101F3000263008F091C18093E9002091EB0020FF4A
:101F400082C1933031F48091EB0080628093EB008A
:101F50007AC19091EB0090619093EB0021E030E02A
:101F600001C0220F8A95EAF72093EA001092EA0056
:101F70008091EB008860EACF81116EC11091FF0360
:101F80001F778091E3008078812B8093E30080911C
:101F9000E800877F8093E8000E94BB058091E800FD
:101FA00080FFFCCF8091E30080688093E30082E0B3
:101FB000111183E08093FB034FC18058823008F0F9
:101FC0004BC12091FF03309100042C3DE3E03E071C
:101FD000A1F583E08A838AE289834FB7F894DE0112
:101FE000139620E03EE051E2E32FF0E050935700DB
:101FF000E49120FF03C0E295EF703F5FEF708E2FFA
:1020000090E0EA30C0F0C7968D939D932F5F243106
:1020100059F74FBF8091E800877F8093E8006AE21C
:1020200070E0CE0101960E9467068091E8008B77F0
:102030008093E80011C1C096E7CF80910104909190
:102040000204432F55274330510509F44AC078F55F
:102050004130510509F47AC08BE590E0EFE6F4E0F9
:102060004230510509F0F8C02091E800277F209305
:10207000E80020910304309104048217930708F4C8
:102080009C0140E02115310509F065C0411163C094
:102090008091E80082FDC9CF8091FB03882329F25B
:1020A000853019F28091E80083FFF2CFBECF413234
:1020B000510509F43CC04232510509F0CDC08330CE
:1020C000910508F0C9C0FC01EE0FFF1FE956FE4F55
:1020D0000190F081E02D8C569E4FDC018C9190E0B8
:1020E0001AC0332721303105D1F02115310561F0B7
:1020F0002230310509F0B0C0ECEDF4E0E4918E2F10
:1021000090E0ECEDF4E007C0E0E0F5E0E4918E2F24
:1021100090E0E0E0F5E0009709F49EC0A5CFECEE7A
:10212000F4E0E4918E2F90E0ECEEF4E0F4CF833015
:10213000910508F091C0880F991FFC01E356FE4FEE
:102140000190F081E02D89E090E08ECF82E190E077
:10215000EAECF4E089CF8091FB03882309F465CF92
:10216000853009F462CF8091E80083FD5ECF8091D5
:10217000E80082FD8DCF8091E80080FF83CF9091B1
:10218000F3008091F2002115310519F08830910596
:1021900050F041E0089709F040E08091E8008E7728
:1021A0008093E8006FCF44914093F1003196215025
:1021B00031090196E8CF803809F04EC08091E800DF
:1021C000877F8093E8008091FC038093F1009DCE8F
:1021D000811142C01091FF031230F0F58091E800A8
:1021E000877F8093E8001093FC030E94BB051123B6
:1021F00011F084E005C08091E30087FDFACF81E013
:102200008093FB0342E061EC81E00E94DA0542E248
:1022100061EC84E00E94DA0542E261EC82E00E9417
:10222000DA0542E260EC83E00E94DA058091FB036C
:1022300013C08091FF03813079F481E0933009F07D
:1022400080E08093FA031092E9008091E800877F94
:102250008093E8000E94BB058091E80083FF0AC0DC
:102260008091E800877F8093E8008091EB00806296
:102270008093EB00AA96E3E00C94E22F1092EE0319
:102280000E94720E2FEF84E39CE02150804090402A
:10229000E1F700C0000088E19AE00FB6F894A89535
:1022A000809360000FBE90936000FFCF8093050481
:1022B000109225020E94350E089580910504982FF2
:1022C0009670963021F488600E9456110895877F99
:1022D000FBCF21E030E001C0220F8A95EAF720957C
:1022E0008091050482230E945611089590911C024A
:1022F0008095892380931C02282F277091F4282F22
:10230000082E000C330B9217130659F09091970288
:1023100092FF07C08595859585950E946911109259
:102320001C02089521E030E001C0220F8A95EAF7EF
:1023300080910504822B0E945611089580932702F4
:10234000109225020E94350E0895882321F00E94E4
:10235000CA090E94350E0895882339F09091EE0342
:10236000982B9093EE030E94350E08958823E1F197
:102370009CEF980F913A80F4E8EAF1E02EEA31E020
:102380009191891303C0DF0111971C922E173F070B
:10239000B9F70E94350E089590E2980F983050F4E6
:1023A000877091E001C0990F8A95EAF7892F0E9402
:1023B000CA09EFCF9BE5980F9330B8F48091C20122
:1023C0009091C301892B81F01092C3011092C20138
:1023D000E091E603F091E703309731F00680F78152
:1023E000E02D90E080E009950895885A8731E0F764
:1023F0008091C4019091C501892BB1F31092C50160
:102400001092C401E091E603F091E703309761F385
:102410000084F185E02DE5CFCF93C82F8823A9F064
:102420008CEF8C0F813A00F5E8EAF1E0DF018D9145
:10243000C81769F081E0AE3AB807C9F76C2F86EA91
:1024400091E00E94E8060E94350ECF910895819197
:10245000C81303C0DF0111971C9281E0EE3AF80720
:10246000B1F70E94350EEACF80E28C0F883068F712
:10247000C77021E030E001C0220FCA95EAF78091D1
:10248000EE03822B8093EE03DECF1F93CF93DF9377
:10249000182FEB010E940C128FE99FE00197F1F7D2
:1024A00000C000002197C1F7812F0E94B611DF9173
:1024B000CF911F9108950F931F93CF93DF93EC015A
:1024C000FC0101900020E9F78F0101501109C017AC
:1024D000D10728F0DF91CF911F910F910895899135
:1024E0000E94CD0CF4CFB0E0A0E0E9E7F2E10C945B
:1024F000C12F6C017B0164E670E088E70E94012D2A
:10250000EC0197FD12C010E000E0F601E00FF11FB2
:10251000849164E670E00E946D2DEC01892B29F412
:102520000F5F1F4F0E151F0581F70E94E32DCE018F
:10253000CDB7DEB7E8E00C94DD2F8091E4039091F5
:10254000E503911103C091E089270895882369F07C
:1025500062E070E08DEC93E00E947312892B19F019
:102560008091E40308951092E4038091E403EBCF9B
:10257000CF93C091E4038091E5038823D1F00E94BA
:10258000DC06605A75418F4F9F4F6093E003709354
:10259000E1038093E2039093E303C11108C062E07A
:1025A00070E08BEC93E00E947312892B29F0C091AC
:1025B000E4038C2FCF91089581E08093E403F7CF5B
:1025C000CF93DF93C7EBD2E060E0CE010E94693089
:1025D0002196C11584E0D807B9F7DF91CF9108950E
:1025E0001F93CF93DF93122F8430E0F46A30D0F43E
:1025F0004830C0F490E1699FE001112450E0440F9D
:10260000551FC40FD51F90EA899FC00DD11D1124FD
:10261000632FCE01C7960E946930612FCE01C89604
:102620000E946930DF91CF911F910895B0E0A0E042
:10263000ECE1F3E10C94C22F10E000E08FECE82E07
:1026400083E0F82ED12C1AC001151105D1F4FE013A
:10265000EE0FFF1FEE0DFF1D259134914C2F6D2DB8
:1026600080E00E94F0122196C830D10569F780E120
:10267000E80EF11CD3948AE0D81649F0D0E0C0E00F
:10268000E3CF21E030E04C2F6D2D802FEACF0F5F9C
:102690001F4F0430110591F6CDB7DEB7E7E00C947B
:1026A000DE2F86E390E00E9469300895CF93C82F13
:1026B0006FEF811163E283E390E00E9469306FEF76
:1026C000C11161E084E390E00E9469306FEFC111B5
:1026D00066E185E390E00E946930CF91089580E043
:1026E0000E94561360E070E0CB010E9451130E94DB
:1026F00016130E94E01281E00E9456130895CF93B2
:10270000C0919702C2FB992790F9981791F080FB2E
:10271000C2F9C09397026091960284E090E00E9413
:1027200069306C2F82E290E00E94693082E00E9462
:102730007611CF9108950F931F93CF93DF93843039
:1027400030F56A3020F5483010F520E1629F8001B5
:10275000112450E0440F551F040F151F30EA839FCA
:10276000000D111D1124C801C7960E945530C82FB5
:10277000D0E0DC2FCC27C801C8960E9455309E01BE
:10278000282BC901DF91CF911F910F91089590E0FF
:1027900080E0F8CF462F843040F47A3030F468304F
:1027A00020F4672F0E949B13089590E080E0089525
:1027B000CF92DF92FF920F931F93CF93DF936C0121
:1027C0000091050480912702082BC7E0D0E010E0BB
:1027D000FC2EC8010C2E02C0959587950A94E2F74D
:1027E00080FD0CC02197A0F7F12C8F2DDF91CF91A8
:1027F0001F910F91FF90DF90CF900895B6018C2F1D
:102800000E94CA130E945A08019761F3EECFCF933A
:10281000DF93EC010E94D813BE010E94CA130E94EC
:102820005A08DF91CF910895FC0183819481892B0F
:1028300029F08081918189238F3F51F480E00895B0
:10284000843FE1F717C0883EA8F0813FB9F712C076
:10285000808191810E94071492959F70963099F320
:1028600058F4925F9F70923048F7803F19F040F71C
:10287000883E20F781E008959A5FF4CF86E390E0E8
:102880000E945530682F70E090E080E0089583E367
:1028900090E00E945530833289F484E390E00E94F6
:1028A0005530813059F485E390E00E94553091E035
:1028B000863109F090E0892F8170089580E0FCCF87
:1028C000CF92DF92EF92FF926B017C010E9426076C
:1028D000B701A60188E090E00E947B30FF90EF9066
:1028E000DF90CF900895A3E0B0E0E9E7F4E10C9425
:1028F000C32FF82E062F142FE22E8091D70380FFCE
:102900003DC0E82FE695F0E0EF56FE4F90819093A2
:10291000DC038E7F823079F4453608F044E69E0170
:102920002F5F3F4F602F8F2D0E943C074B816981A5
:102930008A810E94130C8091D8038F1108C0809166
:10294000D903801304C08091DA03811729F08091A4
:10295000DE0382608093DE03F092D8030093D903F4
:102960001093DA03EE2051F06091D7037091D803F1
:102970008091D9039091DA030E9460142396E6E0D7
:102980000C94DF2FE7EDF3E043812AE0421B08F4CB
:1029900040E021E0628181810E9473140895E7ED97
:1029A000F3E043812AE0420F08F44FEF21E0628117
:1029B00081810E9473140895E7EDF3E0628121E1C3
:1029C000621B08F460E021E0438181810E9473145E
:1029D0000895E7EDF3E0628121E1620F08F46FEF03
:1029E00021E0438181810E9473140895E7EDF3E0B3
:1029F000818121E04381628181510E947314089595
:102A0000E7EDF3E0818121E0438162818F5E0E94E6
:102A1000731408958091DB03882319F0815080930B
:102A2000DB036091D7037091D8038091D903909113
:102A3000DA030E94601408958091DB03833018F458
:102A40008F5F8093DB036091D7037091D8038091EF
:102A5000D9039091DA030E9460140895E7EDF3E042
:102A600083E0808311828FEF828384E683831482E4
:102A7000ACEDB3E012968C911297836012968C9312
:102A800060817181828193810E946014089568EE53
:102A90007EEF90E080E00E94873060E082E090E08E
:102AA0000E94693060E083E090E00E9469301092FB
:102AB000270260E084E090E00E94693064E082E2F6
:102AC00090E00E94693060E085E090E00E9469300B
:102AD00060E086E090E00E9469306FEF87E090E070
:102AE0000E94693040E050E0BA0188E090E00E9426
:102AF0007B3060E08DE090E00E94693040E050E083
:102B0000BA0188E190E00E947B3060E087E190E0CC
:102B10000E94693040E050E0BA018CE190E00E94F0
:102B20007B3070E060E080E290E00E94873040E01F
:102B300050E0BA0188E190E00E947B3080E00E9482
:102B400056130E946F1340E050E0BA018FE090E00E
:102B50000E947B3040E050E0BA0183E190E00E94A7
:102B60007B300895B0E0A0E0E8EBF5E10C94C22FD3
:102B70007901C82F880FDD0B41155105A9F0FE0121
:102B800093E0EE0FFF1F9A95E1F7E65FFE4F81811C
:102B90009281875D9D4F208130E04217530708F4F2
:102BA0009A01A9010E944C30CE010E942D2FD82EEF
:102BB0008823D1F001151105B9F083E0CC0FDD1F9A
:102BC0008A95E1F7FE01E65FFE4F438150E004176E
:102BD000150708F4A801C65FDE4F6C817D81675D33
:102BE0007D4FC7010E944C308D2DCDB7DEB7E7E099
:102BF0000C94DE2FA5E0B0E0E0E0F6E10C94BF2FEE
:102C00008D83E62E5A01F22E6801809111068A30DA
:102C100028F080E02596EAE00C94DB2F8D81883047
:102C2000C4F31A8219828A836B832C8363E070E079
:102C3000CE0102960E9402078983E0923201F0924F
:102C4000450110E000E030E020E044E050E0BE014B
:102C50006F5F7F4F84E00E94B2158823D1F24E2D22
:102C600050E030E020E0B50185E00E94B2158823F5
:102C700081F230E020E041E050E0BE016B5F7F4F29
:102C800086E00E94B215882321F20F2D10E09601F4
:102C900050E040E070E060E087E00E94B215BACFFB
:102CA000A8E0B0E0E6E5F6E10C94C52F85E0E7ED9D
:102CB000F3E0DE01119601900D928A95E1F7809183
:102CC000DC039091DD03A091DE038E839F83A887B0
:102CD000288540918C0250918D0260918E027091F6
:102CE0008F023FB7F8948091E9039091EA03A09195
:102CF000EB03B091EC033FBF841B950BA60BB70B06
:102D000084369105A105B10510F42223C1F010E02D
:102D100000E030E020E048E050E0BE016F5F7F4F10
:102D200083E00E94B215882369F00E94DC0660935C
:102D30008C0270938D0280938E0290938F0210927A
:102D4000DE0381E02896E4E00C94E12FA4E0B0E0FB
:102D5000ECEAF6E10C94C52F40918802509189026B
:102D600060918A0270918B022FB7F8948091E903E9
:102D70009091EA03A091EB03B091EC032FBF841B69
:102D8000950BA60BB70B11E084369105A105B10593
:102D900018F10E949B0C6E5F7F4F8F4F9F4F69838E
:102DA0007A838B839C8310E000E030E020E044E0F5
:102DB00050E0BE016F5F7F4F82E00E94B215182F76
:102DC000882351F00E94DC06609388027093890288
:102DD00080938A0290938B02812F2496E4E00C94D6
:102DE000E12FA6E0B0E0E7EFF6E10C94C32F7B0102
:102DF00001E010E09E012A5F3F4F50E040E070E0AC
:102E000060E080E00E94B215182F882309F453C0B7
:102E100040918402509185026091860270918702F0
:102E20002FB7F8948091E9039091EA03A091EB0306
:102E3000B091EC032FBF841B950BA60BB70B843608
:102E40009105A105B10548F465E070E08AE292E0E1
:102E50000E9402079E81891771F105E010E09E0132
:102E60002F5F3F4F50E040E070E060E081E00E9463
:102E7000B215082F65E070E08AE292E00E94020736
:102E800011E09E81981310E0102301F10E94DC06EE
:102E900060938402709385028093860290938702E8
:102EA00085E0FE013196AFE7B2E001900D928A9580
:102EB000E1F711E00BC085E0EAE2F2E0DE011196F5
:102EC00001900D928A95E1F71111EACF85E0EFE7C5
:102ED000F2E0D70101900D928A95E1F7812F2696B5
:102EE000E6E00C94DF2F0E94B50C809309018091DD
:102EF0000901882359F01092750180E280937601D0
:102F00000E94650C81110E94412E089580E28093F9
:102F10007501F4CF90E080E00E946330883E9E4FC0
:102F200019F40E944714089580E0089528E030E0E5
:102F300043E060E087EF0E94292C0895ACE0B0E008
:102F4000E4EAF7E10C94C12F4F83588769877A87A9
:102F50008B879C878091E302882399F00E949617C3
:102F600080E50E94A12C2AEB2A95F1F700C00E946F
:102F7000B92C887899278038910509F484C00E947B
:102F8000D12C0E94650C882309F468C00E94DC06DD
:102F90000091BD011091BE012091BF013091C0018F
:102FA0006B017C01C01AD10AE20AF30A970186017B
:102FB000083011052105310508F450C06093BD01AA
:102FC0007093BE018093BF019093C0010091F10204
:102FD0001091F2022091F3023091F402601B710B08
:102FE000820B930B623371058105910580F4109279
:102FF000E7021092E6021092E9021092E8021092A3
:10300000EB021092EA021092ED021092EC02109183
:10301000F0020E94B50C112309F462C0BE01695F81
:103020007F4F86EE92E00E94450A0091F0021091D7
:10303000E3020E94B50C011709F47CC0BE01695F70
:103040007F4F8AEE92E00E94450A86E0FE013796A5
:10305000AFEFB2E001900D928A95E1F786E0FE01B4
:103060003796DE01119601900D928A95E1F729813C
:103070003A814B815C816D817E8180E090E02C966D
:10308000E8E00C94DD2F0E94B92C0E94B92C7C0141
:103090000E94B92C20E0E22AF82A0E94B92C8C0167
:1030A0000E94B92C20E0022B182B0E94D12CF894FE
:1030B000B7018091E6029091E7020E940B0B90937A
:1030C000E7028093E602B8018091E8029091E9025C
:1030D0000E940B0B9093E9028093E802789451CF01
:1030E0008091E6029091E70281382FEF9207D4F0A9
:1030F00080389105CCF4819589878091E802909180
:10310000E90281382FEF92078CF08038910584F422
:103110008A871092E7021092E6021092E90210925A
:10312000E80283CF81E8E7CF8FE7E5CF81E8F0CFF2
:103130008FE7EECF8091EA029091EB0281382FEF7A
:103140009207D4F080389105CCF4819589878091DD
:10315000EC029091ED0281382FEF92078CF08038CD
:10316000910584F48A871092EB021092EA02109281
:10317000ED021092EC0269CF81E8E7CF8FE7E5CF4F
:1031800081E8F0CF8FE7EECFCF93DF93D82FC62F14
:103190000E9496178D2F80680E94A12C8C2F0E9470
:1031A000A12C0E94D12C8FEC92E00197F1F700C086
:1031B0000000DF91CF910895682F893708F068E704
:1031C0006093EE0291E09093EF029091E3029923D5
:1031D00059F06150811101C064E08FE00E94C41871
:1031E00060E080E50E94C4180895FB0180810E9480
:1031F000DC1808959091EE02911101C095E0282FFE
:10320000880F330BA901490F511DCA011816190661
:1032100014F081E090E00E94DC180895CF93C82F4D
:103220000E9496178C2F0E94A12C8FE792E00197A5
:10323000F1F700C000000E94B92CC82F0E94D12CC9
:103240009AE69A95F1F700C08C2FCF910895CF930D
:10325000DF930E94212C879A0E9496176AE58AE3E1
:103260000E94C4182FEF80E792E0215080409040E8
:10327000E1F700C0000082E00E940E1983E00E9486
:103280000E1984E00E940E1985E00E940E1986E056
:103290000E940E1960E080E10E94C41880E00E9444
:1032A0000E19D82F81E00E940E19C82F0E94D12C30
:1032B000D23419F481E0C13009F080E0817080934C
:1032C000E302882341F064E08FE00E94C41860E0CC
:1032D00080E50E94C418DF91CF9108951F920F924C
:1032E0000FB60F9211242F933F934F935F936F93D9
:1032F0007F938F939F93AF93BF93CF93DF93EF937E
:10330000FF93D091E900DF708091EC00C82FC1706D
:1033100080FDC0E81092E9008091F000877F8093E3
:10332000F00078940E947E0E1092E9008091F000E7
:1033300088608093F000CD2BCF70C093E900FF919F
:10334000EF91DF91CF91BF91AF919F918F917F913D
:103350006F915F914F913F912F910F900FBE0F9002
:103360001F9018951F920F920FB60F9211242F9352
:103370003F934F935F936F937F938F939F93AF93FD
:10338000BF93EF93FF938091E10082FF09C080918A
:10339000E20082FF05C08091E1008B7F8093E10015
:1033A0008091DA0080FF24C08091D80080FF20C087
:1033B0008091DA008E7F8093DA008091D90080FFBF
:1033C0009DC080E189BD82E189BD09B400FEFDCFC9
:1033D00081E08093FB038091ED03811109C00E947D
:1033E00041050E940C068091E20084608093E20017
:1033F0008091E10080FF17C08091E20080FF13C040
:103400008091E2008E7F8093E2008091E2008061F3
:103410008093E2008091D80080628093D80019BC2C
:1034200085E08093FB038091E10084FF2BC08091B5
:10343000E20084FF27C080E189BD82E189BD89B5B2
:10344000982F917080FFFBCF8091D8008F7D809363
:10345000D8008091E1008F7E8093E1008091E200AE
:103460008F7E8093E2008091E20081608093E20091
:103470008091FC03882309F447C084E08093FB0318
:103480008091FB038091E10083FF27C08091E200DF
:1034900083FF23C08091E100877F8093E10082E079
:1034A0008093FB031092FC038091E1008E7F809358
:1034B000E1008091E2008E7F8093E2008091E20043
:1034C00080618093E20042E060E080E00E94DA05E3
:1034D0008091F00088608093F000FF91EF91BF91A0
:1034E000AF919F918F917F916F915F914F913F919C
:1034F0002F910F900FBE0F901F90189519BC10922E
:10350000FB031092ED0374CF8091E30087FD93E0FD
:103510009093FB03B5CF78941F921FB61F9211248E
:103520008F939F93AF93BF938091E9039091EA03A8
:10353000A091EB03B091EC030196A11DB11D809306
:10354000E9039093EA03A093EB03B093EC03BF91DC
:10355000AF919F918F911F901FBE1F9018959C0156
:103560004FB7F8948091E9039091EA03A091EB039F
:10357000B091EC034FBF821B930B08952FB7F894C3
:103580008091E9039091EA03A091EB03B091EC03E1
:103590002FBF08950E94650C882319F00E94BE1A5F
:1035A00008950E949B0CCB0108956091D703669506
:1035B00070E041E050E08AE791E00E943230892BD0
:1035C00019F481E08093DD030E94CA1A9093D2031C
:1035D0008093D1038091DE0384608093DE0308959D
:1035E0009091D70390FF31C0917081112FC09260EC
:1035F0009093D7038091DE0381608093DE0366237E
:1036000051F06091D7037091D8038091D9039091C4
:10361000DA030E9460146091D703669570E041E080
:1036200050E08AE791E00E943230892BB1F00E948D
:103630001F0781E08093D40320E04091DA0360917A
:10364000D9038091D8030E9473140895833010F039
:103650009460CECF880F982BCBCF0E94D51AE9CF9C
:103660008091D7038695815009F482E061E00E9441
:10367000F01A08958091D70386958F5F833008F004
:1036800081E061E00E94F01A0895A2E1B0E0EBE46D
:10369000FBE10C94B82F8C01DC0113968D919C9169
:1036A0001497892B39F08C9111969C9189238F3F27
:1036B00009F04CC56296E1E10C94D42F0E94D81316
:1036C000F82E682F89819A810E940F0A69817A8178
:1036D0008F2D0E94CA137C01F8018281882309F48E
:1036E00028C5C70182519F45409708F0E7C48FEF76
:1036F00093E00E945530811128C0FEEEEF0E57EB8B
:10370000852E52E0952EE11033C01C821B8244248A
:1037100043944AE0342E74018FEFE81AF80AC4018A
:103720000E94553089831A82882379F09FEF980F81
:10373000933060F58A83498292E0890E911CC7011B
:103740000E9455308B83811122C080911C028770AA
:1037500009F4B0CFD80112968C91882309F4AACF2E
:103760008091970282FFA6CF82E00E947611A2CFBD
:10377000811424E0920649F3C4010E94553081115E
:1037800001C0EA943FEF831A930ABDCF4701DE01DF
:1037900011967D01F7012081222309F4BCCF21304D
:1037A00009F06DC091818281913061F4F2E0EF0EF9
:1037B000F11C65E070E0893311F460E570E00E946F
:1037C000451207C0923039F522E0E20EF11C0E944A
:1037D0000C12FFEFEF1AFF0A8FE99FE00197F1F754
:1037E00000C00000AFE9BFE01197F1F700C0000092
:1037F000EFE9FFE03197F1F700C000008FE99FE0AB
:103800000197F1F700C00000AFE9BFE01197F1F7B1
:1038100000C00000BFCF933031F432E0E30EF11C62
:103820000E94B611D6CF943021F08FEFE81AF80A33
:10383000D0CF92E0E90EF11C30E020E0B7016F5FDD
:103840007F4FD70111964C918053990B8A30910587
:1038500058F02150310908F4BCCFEFE9FFE031976F
:10386000F1F700C00000F5CF329EF001339EF00D5D
:1038700011249C012E0F3F1F842F7B01DFCFE22FED
:10388000F0E0E957FE4F5490822F869586958695F5
:1038900090E0FC01E958FE4F64902770712C022ED5
:1038A00002C0759467940A94E2F731E063227724AA
:1038B000FC01E959FE4FA490B12C022E02C0B59430
:1038C000A7940A94E2F7A1E0AA22BB24FC01E95ADA
:1038D000FE4FC490D12C02C0D594C7942A95E2F72C
:1038E000B1E0CB22DD246114710419F081EE0E9455
:1038F0000C12A114B10419F086EE0E940C12E9E337
:1039000065E070E05E1202C060E570E0852D0E9407
:103910004512A114B10419F086EE0E94B61161148B
:10392000710419F081EE0E94B611C114D10409F49A
:1039300050CF65E070E08CE242CF81E00E949211AE
:103940000E945D1102CF81E00E946911F9CF82E0EF
:10395000F5CFF701D2C3E45FF10921E030E001C007
:10396000220FEA95EAF796E0EBE0F3E0DE01179626
:1039700001900D929A95E1F796E0FE013796DE01EF
:103980001D9601900D929A95E1F79885882389F10B
:10399000292B2E8786E0FE013D96DE0111960190CF
:1039A0000D928A95E1F786E0FE013196ABE0B3E037
:1039B00001900D928A95E1F7F8018281F6E1EF1608
:1039C000FCE5FF0609F069C0882309F451C0809125
:1039D000EE038A7A91E009F490E09093C10169E2E4
:1039E000811165E386EA91E00E94E8060E94350EA7
:1039F000ACCE20952923CDCF80E00E94DC18109218
:103A0000F502A3CE4091EE025091F50250FB47F92A
:103A10005695537060E070E08FE090E00E947B303C
:103A200094CE81E00E94FA1890CE8FEFFBCF8AE00F
:103A3000F9CF86EFF7CF9091F00281E089270E94BD
:103A4000C70A83CE8091F502811101C084E08F5FA7
:103A500018160CF081E0883008F087E08093F502BA
:103A600074CE8091F502811101C084E08150F0CFC5
:103A70008091C10181110FC089E2E8EAF1E02EEAEC
:103A800031E09191891303C0DF0111971C922E1729
:103A90003F07B9F7ABCF85E3F0CF8111FBC0809131
:103AA000EE03827229ECE2162CE5F20609F4E7C077
:103AB00008F07AC095ECE9169CE5F90609F4DAC03D
:103AC00008F059C0B3ECEB16BCE5FB0609F4C6C020
:103AD00008F0CBC0F2ECEF16FCE5FF0609F492C04B
:103AE000F8018281E080F180882309F411C1C701C7
:103AF0000E94D813D82E682FC7010E940F0AB70161
:103B00008D2D0E94CA130E945A087C01882ED8016C
:103B10001296CC9012971596BC90B2943FE0B322C7
:103B200080911C028770C1F0AC2CCC20B1F08F2D9D
:103B3000807F803421F080E28E0D883068F08091A3
:103B4000970282FF09C082E00E94761180911C02D8
:103B50008770AA24A3948111A12C9F2C92942FE00A
:103B60009222BBE0B91508F442C1E92DF0E0E75517
:103B7000FF4C0C941C304CED54E169EE74E127ECE1
:103B8000E2162CE5F20609F46DC040E055E166EF5F
:103B900074E138ECE3163CE5F30608F463C049EE43
:103BA00054E16CED74E15EC09DECE9169CE5F9060C
:103BB00009F46AC0C8F44AE055E16CE175E1BBEC78
:103BC000EB16BCE5FB0609F44DC04FEC54E162EC8A
:103BD00074E1ECECEE16ECE5FE0608F443C04CE1B3
:103BE00055E16AE075E13EC0F5EDEF16FCE5FF0634
:103BF00009F44DC008F4A9CD3DE5E316F30609F438
:103C0000A4CD6ECF8091D70380FF20C08E7F80939C
:103C1000D7036091D7037091D8038091D903909115
:103C2000DA030E9460140E941F078091DE03816006
:103C30008093DE038FEF90E7A2E081509040A04098
:103C4000E1F700C000000E94C80B7FCD8160809327
:103C5000D70361E086950E94F01A77CD40E35BE1DF
:103C60006AE37BE10E94180770CD4AE35BE160E301
:103C70007BE1F8CF46EF54E160E075E1F3CF42EC31
:103C800054E16FEC74E1EECF61E081E0E4CF61E0FC
:103C900082E0E1CFBAE5EB16BDE5FB06A9F168F4D9
:103CA000E114FCE5FF06B9F02EEDE2162CE5F20674
:103CB00009F016CF0E9447150CC03CE5E3163DE520
:103CC000F306C1F018F197EAE9169DE5F90609F047
:103CD00007CF0E943E111092EE030E94720EAFEFCA
:103CE000B4E3ECE0A150B040E040E1F700C00000D8
:103CF0000E94CB068091970282FB882780F991E091
:103D000089270E947F13ECCE81E0FBCF80E0F9CFC2
:103D1000C7010E94DB09D82EF2CEEF2DEF70DE2E08
:103D20008F2D807F19F0D29490EFD922CC20B9F05A
:103D3000DD2069F080E28E0D883010F0811009C01E
:103D40008091EE03D82AD092EE030E94350E8E2D7C
:103D50004CC080912502D82AD0922502F6CF8E2D14
:103D60000E94B611DD2009F442C080E28E0D883039
:103D700010F0811004C08D2D0E94CA0906C0D09495
:103D800080912502D822D09225020E94350E2FC0A4
:103D9000FF2DFF70DF2E8F2D807F803219F0D2949F
:103DA00080EFD822882089F021E0821609F468C0CB
:103DB000CC2009F472C0BB2009F468C0F8018581E9
:103DC00080FFC5CF8F70858361C02091970222FD4F
:103DD00035C0CC2069F1DD2039F08091EE03D82A7E
:103DE000D092EE030E94350E80E00E940C12E92D65
:103DF000E850FF0B349710F40E948A0CAA2009F4B3
:103E000059CC80911C0280FD55CCD80112961C9291
:103E10008595859585950E949211C8010E94451B44
:103E200080911C028595859585950E94691142CCEB
:103E300080E00E94B611DD20D1F29DCFCC2099F018
:103E400090912602892F8D29B11003C00E94AC11D8
:103E5000CECF31E0B312FACF22FFC9CF981739F293
:103E600080932602C4CFB11006C00E94C4098D2DD4
:103E70000E94A511BCCF81E0B81609F4B8CFF5CFE8
:103E8000CC2031F095E09B1508F4B1CF8D2DDECF1D
:103E9000A4E0AB1508F4ABCFEACFBB2041F3F9E3C4
:103EA0008F1204C12FEF37EE83E021503040804065
:103EB000E1F700C000008E2D0E94B61198CF8F2D23
:103EC000837091F5C11093CF4E2D42954695477062
:103ED000440F440F8E2D8F70042E01C0880F0A945A
:103EE000EAF72E2D2071E4FE07C02FE030E001C07C
:103EF000220F4A95EAF720953F2D36953695337077
:103F0000323069F050F440912702313029F0822B91
:103F100084230E949E116BCF842B822BFACF282BF7
:103F2000809127028227F5CF8695CC2011F08F2D26
:103F30008170882309F45BCF4E2D429546954770DA
:103F4000440F440F8E2D8F70042E01C0880F0A94E9
:103F5000EAF72E2D2071E4FE07C02FE030E001C00B
:103F6000220F4A95EAF720953F2D36953695337006
:103F7000323069F050F440910504313029F0822B41
:103F800084230E94561133CF842B822BFACF282B07
:103F9000809105048227F5CFBF2DBF70FB2ECC206A
:103FA00029F08B2F0E9492118E2D50CF8E2D0E94C2
:103FB000A5118F2D0E9469111ACF8E2DE2EF8E165A
:103FC000B1F1E81570F0F0EF8F16D1F021EF821605
:103FD00091F0CC2009F45EC0B110B9CE8F2D8F7155
:103FE0002AC033EF831651F194EF8912F2CF8091FA
:103FF000970282FD2FC08F2D8F71CC20D9F21BC06C
:10400000CC2081F0A4E0AB1508F4F1CE2F2D2F7158
:1040100081E090E001C0880F2A95EAF790910504AD
:104020008927AFCFB5E0BB1508F4E1CEEFCF8F2DD8
:104030008F71C110BFCF0E949211D9CE80E0CC20E9
:1040400009F49FCF9F2D9F7181E001C0880F9A9541
:10405000EAF797CFCC2099F0EF2DEF71FE2E8E2F3F
:104060000E9492118091970282FF07C0F8E0FF9EA4
:10407000C0011124836080931C028F2DDCCF81E06E
:104080000E94761121E02B1508F0B1CE82E00E944B
:104090007611ADCEBB2079F0893341F43FEF87EE46
:1040A00093E0315080409040E1F703CFAFE1BEE4B0
:1040B0001197F1F7FECE8F2D8F717CCFB0E1EB160B
:1040C000BFE5FB0609F439CCE1E1EE16EFE5FE06AB
:1040D00009F43DCCF092FC02E092FB02F8018081F1
:1040E00091819093FE028093FD02C7019A958115FC
:1040F0009F4108F02ECCF701FF27D80112968C9132
:10410000E43FF10548F0E93FF10508F424CCE83B31
:10411000BDE5FB0709F493CC882309F44DCCE15BA2
:10412000FD45EA30F10508F047CCEB54FF4C0C9408
:104130001C30F0E1EF16FFE5FF0609F404CC21E1A5
:10414000E2162FE5F20631F682E0FECB85E0F801BB
:10415000DE01119601900D928A95E1F7D801129631
:104160002C9189819A812111A9CA0E94DB09F82E1C
:10417000ADCA1F93CF93DF938091E901807F09F04F
:1041800049C08091E601882309F444C080911B0254
:10419000D091EA016091E4017091E501A091E701FD
:1041A000B091E801C62FC72316E0D81799F190E027
:1041B000109711F0CF3F19F401968770F6CF189F32
:1041C0009001199F300D1124F901E551FE4F4181F5
:1041D0004713F2CF40814613EFCF42814111ECCF1C
:1041E000438154814A1B5B0B483C510528F7809161
:1041F000E9018F7080618093E901F901E051FE4F80
:1042000080818F708061808384EE91E00E94451BE5
:104210000E94D109DF91CF911F910895A1E1B0E0F3
:10422000E4E1F1E20C94BF2F8C0185E0F801DE019E
:104230001D9601900D928A95E1F7F801E28084EED7
:10424000A82E81E0B82E6091E7017091E801611518
:10425000710509F426C19091E4014091E501892F8F
:1042600084238F3F09F41DC120813181C380D48014
:10427000F090E601F601E61BF70BFF2009F4DCC025
:104280008091E901582F507FE83CF10508F09FC06C
:1042900051116BC0FE2C431314C0921312C0E110D5
:1042A00010C08F7080618093E901C5010E94451B99
:1042B0008091E901F80185838F2D6196EAE00C94E5
:1042C000DB2FC114D10429F0822F83238F3F09F003
:1042D00003C180E0F82FF170DF2E80FF3CC0809199
:1042E0001B024091EA0156E0841315C02D873E87DA
:1042F0008D859E850E940714292F22952F702230CC
:10430000F0F0243018F59F70F1F0F8019581907F5E
:10431000D1F4D12C1EC090E0589FF001599FF00DB0
:104320001124E551FE4F6181361306C060812613CA
:1043300003C06281E6120FC001968770D5CF9F70CF
:1043400011F0882331F3805E883018F3C8010E9491
:10435000451BFD2CB1CFEE2009F4AECF8091E901D1
:1043600081608093E901F12CA7CF431306C092131B
:1043700004C0F801EE2009F479C0C8010E941414A9
:10438000882309F1EE20F9F08091E901803270F084
:104390002091E4013091E50138872F831986DB866F
:1043A000CA868C87CE0107960E94451B86E0F801DD
:1043B000A4EEB1E001900D928A95E1F70E94B92038
:1043C000FF24F39479CFC8010E94451BF9CF511106
:1043D0000AC084EE91E00E94451B86E0F50111922F
:1043E0008A95E9F7C0CF43130FC092130DC0E110B7
:1043F0000BC0F8018583C8010E94451B86E0F501CA
:1044000011928A95E9F758CFC8010E9414148823A5
:10441000D1F2EE20C1F28091E901803238F2209190
:10442000E4013091E5013A8329831B82DD82CC824D
:104430008E83CE010196B8CFE83CF105F8F6FE2C4C
:10444000EE2009F243131FC092131DC08091E901B1
:1044500080FD10C0982F907F69F0F8018583903F10
:1044600031F0982F907F905F8F70892B8583C801E2
:104470000E94451B86E0F801A4EEB1E001900D9288
:104480008A95E1F719CFC8010E94141481118ECFCB
:104490008091E90181608093E901C8010E94451B78
:1044A0000BCFEE2009F48FCFC8010E941414F82E10
:1044B000882309F488CF86E0F801A4EEB1E00190EA
:1044C0000D928A95E1F78091E4019091E5010E94B7
:1044D00007140E94B920F0CE81E08E25FBCEA7E123
:1044E000B0E0E5E7F2E20C94C62F4B8B5C8B6D8B52
:1044F0007E8B8F8B6111109225021A8A198A85E0B2
:10450000FE017396DE011D9601900D928A95E1F7EA
:1045100086E0FE013D96DE01179601900D928A9588
:10452000E1F7CE0107960E940E21882359F016E08C
:1045300080911B029091EA01891345C06796E3E0E0
:104540000C94E22F86E0FE013796DE011196019071
:104550000D928A95E1F78A859B85892B41F38F819E
:10456000988589238F3F19F32091EA0130E0C90132
:1045700001968770992740911B024817190681F40C
:104580001092EE030E94720E1092EA0110921B022A
:1045900086E0E4EEF1E0DF011D928A95E9F7C7CFEE
:1045A00096E0929FD001939FB00D1124A551BE4F6C
:1045B000FE01319601900D929A95E1F78093EA0100
:1045C0000E94D109B4CF819FC001112485519E4F13
:1045D0000E940E21882309F4B1CF80911B0290E044
:1045E00001968770992780931B02A2CFB0E0A0E0CC
:1045F000ECEFF2E20C94BB2F35E0C32E31E0D32E6A
:1046000042E1842E46E0942E00E011E0712CAA24B1
:10461000A394B12CD8018D918D010E941E0B00C076
:10462000E401688025E0E22E21E0F22EF701D0E0DF
:10463000C0E04191A42FA295AF70B0E090968C910C
:1046400095010C2E01C0220F0A94EAF790E04F70FA
:1046500002C0959587954A95E2F780FD8EC0622A43
:104660002196C430D10529F7F801319780810E9445
:10467000320BA0EAAA95F1F7F4018081861519F0B2
:10468000608277247394FFEF8F1A9F0A21E0053030
:10469000120709F0BFCF01E010E0D7018D917D0135
:1046A0000E941E0B00C0C8010C2E01C0880F0A9486
:1046B000EAF7782FE2E1F6E090E0A92E91E0B92E3A
:1046C000682F6095D5012D915D01822F82958F70A5
:1046D00090E0DC0190968C91AF01308190E02F70DA
:1046E00002C0959587952A95E2F780FD49C0872FEE
:1046F000832B80833196DA018C91381711F077245F
:104700007394CA14DB04F1F6F701319780810E949B
:10471000320BB0EABA95F1F72196C830D10509F00D
:10472000BCCFC0919502772071F181E08093B001F8
:104730000E94BE1A9093AF018093AE018091AE01AA
:104740009091AF010E94AF1A059708F1D0E0C253D3
:10475000DD4F45E050E062E176E0CE010E943F305F
:10476000892B41F085E0E2E1F6E0DE0101900D9257
:104770008A95E1F71092B0010AC02095622270CFAD
:10478000862F8323B6CF8091B0018111D7CF0E94AD
:10479000650C182FE0919502811193C0F0E0E2536F
:1047A000FD4F85E0AAE2B2E001900D928A95E1F713
:1047B00065E070E08AE292E00E940207809329029D
:1047C000C0902F02D0903002E0903102F09032027F
:1047D0008091B1019091B201A091B301B091B40167
:1047E000C816D906EA06FB06D1F0C092B101D092F4
:1047F000B201E092B301F092B4010E94650C811104
:104800000EC00E94DC06C61AD70AE80AF90AC0924E
:104810009002D0929102E0929202F09293028091E3
:104820003A02882379F180FF0DC080913302909184
:10483000D70380FF2DC091609093D70360E08695E9
:104840000E94F01A80913A0281FF09C020E0409155
:10485000360260913502809134020E947314809177
:104860003A0282FF06C080913902882339F10E9402
:10487000D51A80913A0283FF03C081E08093D4036C
:1048800010923A02872DCDB7DEB7EEE00C94D72F09
:104890009E7F9093D7030E941F078091DE03816063
:1048A0008093DE03CFEFD0E7E2E0C150D040E0409C
:1048B000E1F700C000000E94C80BC4CF0E941F0790
:1048C000D8CFA7E1B6E085E0ED0119928A95E9F726
:1048D000CE2FD0E0C253DD4F809111068A30A8F56B
:1048E00061EF76E1CE010E94470B882309F449C0AD
:1048F00066EA76E1CE010E94470B882309F441C0A5
:1049000060E576E1CE010E94470B8823D1F1109239
:10491000110681E08093B701C0919402D0E0C253A8
:10492000DD4F45E050E067E176E0CE010E943F3088
:10493000892B09F4A7CF85E0E7E1F6E0DE010190DD
:104940000D928A95E1F7712E9DCF8091B5019091DE
:10495000B6010E94AF1A843F914010F68091B701D2
:10496000882309F48FCF1092B701E0919402F0E010
:10497000E253FD4F95E0DF011D929A95E9F7782EFD
:1049800081CF809111068F3F31F08F5F80931106A8
:104990008A3008F4BECF0E94BE1A9093B60180936D
:1049A000B501DCCF1F921FB61F9211248F939F93E6
:1049B000AF93BF938091E803811113C08091E90305
:1049C0009091EA03A091EB03B091EC034196A11DF5
:1049D000B11D8093E9039093EA03A093EB03B09396
:1049E000EC03BF91AF919F918F911F901FBE1F90BD
:1049F0001895CDB7DEB7AE970FB6F894DEBF0FBEF1
:104A0000CDBF85B7806885BF85B7806885BF84B70F
:104A1000877F84BF0FB6F894A89580916000886165
:104A200080936000109260000FBE80E890E00FB6A7
:104A3000F89480936100909361000FBE86EE97E03A
:104A40009093A5018093A4010E9441050E940C0649
:104A50008091E20084608093E20078948091FB036F
:104A60008823A1F01091E9001F709091EC00892F2C
:104A7000817090FD80E8182B1092E9008091E80089
:104A800083FD0E947E0E1F701093E90082E084BDBA
:104A900093E095BD9AEF97BD80936E0010929002BF
:104AA0001092910210929202109293020E94471467
:104AB000811102C00E946F130E9473178091090137
:104AC0000E947317809105010E94320B80910601AC
:104AD0000E94320B809107010E94320B80910801E5
:104AE0000E94320B00E011E0D8018D918D010E94EF
:104AF000320BB1E005301B07B9F78091090195E051
:104B0000811190E09093950285E0891B8093940237
:104B10000E94650C811102C00E94442EE2E1F6E081
:104B20008CE196E0AEECB2E011921D928E179F07D9
:104B3000D9F70E948A17811102C00E94471582E0AE
:104B400090E00E94553080939B0284E090E00E94A8
:104B50005530182F82E290E00E945530982F812F17
:104B600090939702809396020E94F622EFE3FCE96D
:104B70003197F1F700C000000E94F6228091CE022A
:104B800080FF08C06FEF7FEF90E080E00E948730E9
:104B90000E94CB0683E090E00E9455300E949E1157
:104BA0000E94650C882309F45AC180E08093C902F1
:104BB00080E8809306040E94FB2C6DE070E08AE19F
:104BC00092E00E947312892BE9F58091C90263E09B
:104BD00070E081FD46C187E192E00E947312892B4B
:104BE00089F56DE070E087E092E00E947312892BF6
:104BF00049F50E94DC06605A75418F4F9F4F6093C4
:104C0000E0037093E1038093E2039093E303E9E010
:104C1000F4E080E092E0DF019C011D9221503040E1
:104C2000E1F7F0931006E0930F068FEF9FEF90935C
:104C300008048093070481E08093E5038093E403F4
:104C40001092CA0280919802811138C00E948A177E
:104C5000811104C00E9447150E942E1588E090E043
:104C60000E945D306093D7037093D8038093D9037B
:104C70009093DA038091DE0383608093DE036E7F7E
:104C800071F40E942E1588E090E00E945D306093E0
:104C9000D7037093D8038093D9039093DA030E94CB
:104CA00026070E941F078091D70380FF04C060E0A1
:104CB00086950E94F01A81E0809398020E94650C0C
:104CC000811102C00E94442E0E9427190E94650C87
:104CD00081112EC08BED9AE0909351018093500189
:104CE00026E130E030934C0120934B0186E390E0C5
:104CF00090934F0180934E0142ED57E0509359013C
:104D000040935801309354012093530190935701DD
:104D10008093560145EF58E1509361014093600143
:104D200030935C0120935B0190935F0180935E015F
:104D30000E948A17882389F08FE090E00E945D30FE
:104D40008B01862F8F770E94DC18001F0027001F21
:104D50001370110F102B1093F5028091D70381600F
:104D60008093D70360E086950E94F01A60E082E0AD
:104D70000E94F01A82E691E09093E7038093E603A5
:104D8000B0E46B2EEE24E3948091FB0300E112E18A
:104D9000853009F4A7C00E94F6220CE912E087E8EA
:104DA00091E09CA78BA7BC012EEC32E0F801919119
:104DB000D9018D919D01DB014D91BD018423A6EAAE
:104DC000CA2EA2E0DA2ECE16DF0609F497C0981795
:104DD00071F30E94650C482E77E8C72E71E0D72E3C
:104DE000EEECAE2EE2E0BE2E912CD501FD905D01E1
:104DF000F60181916F01F822D8015D908D015F1459
:104E000029F15F24812C77247394852D8721B1F0BB
:104E10004420A1F08EA29FA291E08F2D872109F45A
:104E200090E098A70E94BE1A8160782F9AA789A760
:104E30004EA15FA168A58AA50E946F228394770C7A
:104E4000B8E08B12E2CFF8013197F0829394EAE058
:104E50009E12CBCF0E94DC06FF24F39470C082E048
:104E6000A5CE84E192E0B9CE8091FB03843039F184
:104E70000E949D120E948D0D1092E80348E150E0BF
:104E80000FB6F894A895409360000FBE6092600042
:104E900083B7817F846083BF83B7816083BF789449
:104EA000889583B78E7F83BF0FB6F894A8958091BD
:104EB0006000886180936000109260000FBE809156
:104EC000FA03882379F00E94F622A7E8B1E0EEEC1D
:104ED000F2E081919D91892309F09BC452E0E83D65
:104EE000F507B9F78091FB03853009F4BDCF109227
:104EF000EE030E94720E0E948A0C4DCF981369CF68
:104F00000E94BE1A8C018091990290919A02081712
:104F10001907A1F08FEF89A38AA31BA20E94BE1AD2
:104F20008160782F9DA38CA349A15AA16BA18DA16B
:104F30000E946F2210939A0200939902F12C0E9412
:104F4000650C8091DD03882309F466C09091DC0331
:104F50008091D7038695891B8093D30300ED17E0DA
:104F60005EE1C52E57E0D52E923041F4E7E2F2E043
:104F7000059114916CE2C62E6CE0D62E8091D4037C
:104F8000882361F01092D4030E94CA1A9093D2032E
:104F90008093D1031092D6031092D5030E94CA1AAF
:104FA0002091D1033091D203AC01421B530B4F3FF0
:104FB0005F4790F54091A8024423B1F01092A802F7
:104FC0004091A6025091A702841B950B8F3F9F47EB
:104FD00058F4405D5A485093A7024093A60280912E
:104FE000DE0388608093DE03A090D503B090D603E3
:104FF000020F131F1093D2030093D10381ED93E0AE
:10500000F60109958091D5039091D603892B21F45F
:10501000AB2811F0E092A8028091E503882351F1BA
:105020008091CB029091CC020E94AF1AC29708F0F7
:1050300010C120910704309108042115310509F0B1
:10504000BCC18091E4038823A9F00E94DC06009192
:10505000E0031091E1032091E2033091E303601B30
:10506000710B820B930B6F3F7F4F8F4F9F4710F455
:105070000E949D12F1100E94B8120E948D0D0E9494
:105080008A0C9091CD02891721F08093CD020E9465
:10509000DC068091FB03843009F462C20E94650C37
:1050A000882309F471CE0E94DC062091DE022111D2
:1050B0006BC00091DA021091DB022091DC0230918A
:1050C000DD026B017C01C01AD10AE20AF30A9701E2
:1050D0008601043F11402105310508F455C0609355
:1050E000DA027093DB028093DC029093DD02809100
:1050F000D8029091D90201969093D9028093D80258
:1051000019828E010F5F1F4F21E050E040E060E008
:1051100088E00E94FA15811106C08091D802909112
:10512000D9020A978CF181E08093DE028093E40239
:105130009981911101C080E08093E5028091E302A2
:1051400010E0882329F00E94B50C11E0811112E0D3
:105150008091E502882309F458C30E94B50C81119F
:1051600056C382E0182B0E943E146B017C01DC01C7
:10517000CB018C7FBC01CD01612BC616D706E8069A
:10518000F90611F00E9451138091E502882309F479
:10519000F9CD0E94DC066B017C018091DF029091C9
:1051A000E002A091E102B091E202A7019601281B62
:1051B000390B4A0B5B0BDA01C9010497A105B10554
:1051C00080F119821A821B821C828E010F5F1F4F91
:1051D00024E050E040E060E089E00E94FA15882376
:1051E000C1F069817A818091EA029091EB020E947C
:1051F0000B0B9093EB028093EA026B817C81809190
:10520000EC029091ED020E940B0B9093ED028093C3
:10521000EC02C092DF02D092E002E092E102F09252
:10522000E2028091EF02882309F4ACCD8091EE0276
:10523000898310E000E020E0AE014F5F5F4F61E046
:105240008AE00E94FA15882309F49CCD1092EF029F
:1052500099CD0E94BE1A9093CC028093CB0289E034
:1052600094E09093100680930F060E94650C8823AB
:1052700009F49EC01091FB02012F89E692E00E9482
:105280004D0D8091FE028F708A3008F083C0805DE2
:105290000E94CD0C85E692E00E944D0D8091FD02AA
:1052A0008F708A3008F078C0805D0E94CD0C00239A
:1052B00009F478C082E692E00E944D0D812F82951C
:1052C0008F708A3008F06AC0805D0E94CD0C812FFB
:1052D0008F708A3008F064C0805D0E94CD0C8CEF26
:1052E000810F853308F05EC08EE592E00E944D0D7F
:1052F000212F2450330BF901E75DFD4F84910E946B
:10530000CD0C85E892E00E944D0D809101030E9432
:10531000E00A0E945B128091020381950E94E00ADC
:105320000E945B12809104030E94E00A0E945B12BB
:105330008091030381950E94E00A0E945B128CE732
:1053400092E00E944D0D8091EE02811101C085E036
:105350000E94E00A01960E945B1286E792E00E949A
:105360004D0D8091F002811121C080E30E94CD0C8F
:1053700082E792E00E944D0D8091F502811101C0FB
:1053800084E0805D0E94CD0C8091E503882309F4C0
:1053900058CE4FCE895A7CCF895A87CF895A95CF1C
:1053A000895A9BCF81E00E945B0DABCF81E3DECFBA
:1053B0008BE892E00E944D0DE7CF8091CA0261E038
:1053C00070E081113ECE082F10E02B01082E02C0A4
:1053D000440C551C0A94E2F7A90144215521452BA0
:1053E00009F448C09091C90290FD46C08295880F8B
:1053F000807680937001980136952795369527958C
:1054000020937301815E809371011092740124E6F0
:1054100030E047E050E06EE671E088E70E949B2DA7
:10542000892B09F00ECEA80195E0440F551F9A95DF
:10543000E1F78091C90280FD2DC0475F5B4F04E614
:1054400010E020E230E060E488E70E94BC2D892B68
:1054500009F0F7CD0E94B812C20180959095409056
:1054600007045090080448225922509208044092A0
:105470000704E7CD8F5FA7CF880F880F880F809331
:10548000700110927301895F8093710183E08093B2
:105490007401BDCFE9EAF2E080E2DF011D928A9556
:1054A000E9F7E3E8F1E0FEA7EDA70FE711E087E0F9
:1054B000A82E99249394ADA5BEA52D91BEA7ADA706
:1054C000F80121908F01240E352E311CC101875F18
:1054D0009B4F1C01E22FF0E0E755FD4F30E020E04C
:1054E0007A2C721AB92C022E01C0BB0C0A94EAF76E
:1054F000610190E0D6018D916D018B21672D691BB3
:105500006770862E062E000C770BB82F01C0BB0FDC
:105510008A94EAF78B2E71956195710967707727E8
:1055200001C086956A95EAF7882A8081882A808258
:105530009F5F9830F9F62F5F3F4F31962830310545
:1055400079F6E7E8F1E0CDA4DEA4EC15FD0509F05D
:10555000B2CF04E610E020E230E049EA52E073CF37
:1055600083E08093E9008091E80082FF97CD8091ED
:10557000E80090E085FF05C00E946005882399F04F
:1055800091E08091E8008B778093E800992309F4FB
:1055900085CDE981E150E33108F080C0F0E0E154CD
:1055A000FF4C0C941C3000E210E0AE014F5F5F4FE7
:1055B0006A018091E80085FD0AC08091E8008B7740
:1055C0008093E8000E946005882399F3D9CF8091E9
:1055D000F100D6018D936D010150110951F7D0CF23
:1055E0001A828AE08B8310C08A818230A1F18330D5
:1055F000A9F1813009F052C00E94DC060E942230DD
:105600006B837C838D839E838091FB03843009F0C0
:1056100045CD1091E9001F709091EC00892F8170A9
:1056200090FD80E8182B82E08093E9008091E800EB
:1056300080FF0DC050E040E060E270E0CE010196D6
:105640000E9491058091E8008E778093E8001F709A
:105650001093E90023CD0E943E14D0CF9E012D5F10
:105660003F4FEEECF2E08191ABA5BCA59D91BCA7AC
:10567000ABA78923D9018D939D01B2E0E83DFB07DB
:1056800091F7C2CF8A81823049F46B817C818D8110
:105690009E810E9422300E945113B6CF8FEF8983E2
:1056A000B3CF4C816B818A810E949B1398278927F5
:1056B00098279E838D83A8CF2D813E813227232773
:1056C00032274C816B818A810E94F0129DCF0E940B
:1056D00016139ACF80E18A8397CFEA8289E482CF3A
:1056E000CA80DB80DC24CD24DC248E010F5F1F4FB9
:1056F000AC80A00EB12EB11CC60189549D4FA016DE
:10570000B10609F481CFE9E4CE16E1E0DE0658F4F3
:105710000E945530D80114968C93FFEFCF1ADF0A00
:105720000F5F1F4FE9CFF8011482F7CF0A811B8169
:105730001027012710279E012F5F3F4F5901CC8072
:10574000C00ED12ED11CC80189549D4FC016D10660
:1057500009F45ACF093431E0130728F4D50114961F
:105760006C910E946930BFEFAB1ABB0A0F5F1F4FED
:10577000EACF0E94E01248CF84E0ADCFCA80DB8040
:10578000DC24CD24DC248E010F5F1F4FAC80A00EE3
:10579000B12EB11CC601C796A016B10609F434CFCC
:1057A000E0E8CE16E2E0DE0658F40E945530D8015B
:1057B00014968C93FFEFCF1ADF0A0F5F1F4FEACFCB
:1057C000F8011482F7CF0A811B81102701271027C7
:1057D0009E012F5F3F4F5901CC80C00ED12ED11CAE
:1057E000C801C7960C151D0509F40ECF003832E02C
:1057F000130728F4D50114966C910E946930BFEF0D
:10580000AB1ABB0A0F5F1F4FEBCF80E0ABCC81E040
:10581000A9CC09BD19BD09B400FEFDCF8091D80007
:105820008F7D8093D8008091E00082608093E000BB
:105830008091E00081FDFCCF1092EE030E94720E79
:1058400051CB289A219A229A23982B9880E58CBDD7
:10585000089590917C019F3F09F071C08F3F09F43A
:105860006EC0611144C010921D0690911D06423019
:1058700009F441C0433009F442C094604130E1F181
:1058800041E050E042175307E0F190911D0640318E
:10589000510509F452C0C0F54230510509F446C023
:1058A0004830510509F446C09CB520911D06922B45
:1058B0009CBD90911C06992319F09DB591609DBDEA
:1058C00080937C01E82FE295EF70F0E031A1282F62
:1058D0002F7081E090E001C0880F2A95EAF7382BFD
:1058E00031A392A18095892382A381E0089590E25B
:1058F00090931D06BACF986090931D06C1CF9C600F
:10590000FBCF440F551FBECF4034510549F04038FE
:10591000510541F04032510539F621E020931C0633
:10592000926001C0936090931D06BECF91E090936A
:105930001C06BACF21E020931C069160F4CF80E0D2
:105940000895CF93DF938EBD0E94BE1AEC010DB473
:1059500007FE05C08EB590E0DF91CF9108950E94BB
:10596000BE1A8C1B9D0B8436910588F38EEF9FEF3A
:10597000F3CFCF93DF931EBC0E94BE1AEC010DB48F
:1059800007FE05C08EB590E0DF91CF9108950E948B
:10599000BE1A8C1B9D0B8436910588F38EEF9FEF0A
:1059A000F3CF80917C018F3F29F1E82FE295EF70D2
:1059B000F0E041A18F7021E030E0B90102C0660F34
:1059C000771F8A95E2F7CB01942F982B91A392A190
:1059D000892B82A38FEF80937C018DB58E7F8DBD47
:1059E0009CB580911D06809589238CBD10921D0663
:1059F00010921C0608951092B9008CE08093B800B4
:105A00000895B0E0A0E0E7E0FDE20C94BE2FB82ED0
:105A1000EB010E94BE1A6C01EE24E394F12CC43118
:105A2000D10560F025E0E22EF12CCF3FDC0731F00C
:105A3000CE0164E170E00E94A32F7B0184EAA82ECE
:105A400094E8992E1092BC00A092BC000E94BE1A4D
:105A50008C018091BC0087FF0DC08091B900887FC8
:105A60008830F9F08091B900887F8031D1F00FEF54
:105A70001FEF08C0C8010E94AF1AE816F90648F7E0
:105A80000EEF1FEFCF3FDC07E9F2C6010E94AF1A0D
:105A9000C817D907B8F6C801CDB7DEB7EBE00C944C
:105AA000DA2FB092BB009092BC000E94BE1A8C010B
:105AB0008091BC0087FF0AC08091B900887F88313F
:105AC00011F08034A1F610E000E0E5CFC8010E949B
:105AD000AF1AE816F90660F7D3CF0F931F93CF9351
