:100000000C9499060C94B6060C94B6060C946530C4
:100010000C94B6060C94B6060C94B6060C94B60670
:100020000C94B6060C94B6060C946E1B0C942A1B0A
:100030000C94AC260C94B6060C94B6060C94B6063A
:100040000C94B6060C94B6060C94B6060C94B60640
:100050000C94B6060C94471C0C94B6060C94B60689
:100060000C94B6060C94B6060C94B6060C94B60620
:100070000C94B6060C94B6060C94B6060C94B60610
:100080000C94B6060C94B6060C94B6060C94B60600
:100090000C94B6060C94B6060C94B6060C94B606F0
:1000A0000C94B6060C94B6060C94B606050109022B
:1000B000A10185020901A1000509190129081500FE
:1000C0002501950875018102050109300931158165
:1000D000257F95027508810609381581257F9501D0
:1000E00075088106050C0A38021581257F95017572
:1000F000088106C0C00660FF0961A1010962150000
:1001000026FF009520750881020963150026FF006F
:10011000952075089102C005010906A1010507197E
:10012000E029E71500250195087501810295017503
:100130000881010507190029FF150026FF00950613
:1001400075088100050819012905950575019102B9
:10015000950175039101C00000000000000000003F
:10016000000000000000000000000000000000008F
:1001700000000000000000000000007E0F00D4FF1F
:10018000FFFFC70000007800000000000000002A08
:100190002B2800000000000000000000000000000C
:1001A000000029000000002C1E34202122243426C7
:1001B00027252E362D3738271E1F202122232425C0
:1001C000263333362E37381F0405060708090A0B75
:1001D0000C0D0E0F101112131415161718191A1BE7
:1001E0001C1D2F3130232D350405060708090A0B85
:1001F0000C0D0E0F101112131415161718191A1BC7
:100200001C1D2F3130354C00DA0281FFD9F1DB2083
:10021000A4A62EAF00A0C000A1C800AED580A81F24
:10022000D300408D14200000041E140A0520004C49
:100230006179657220202000616263646566676889
:10024000696A6B6C6D6E6F707172737475767778A6
:10025000797A313233343536373839305245425471
:100260005F2D3D5B5D5C233B27602C2E2F202027DC
:1002700000204B00202043004B6579202020205295
:100280000020204400303020205300202020204334
:1002900050490042616C6C20008081828384858695
:1002A0008788898A8B8C8D8E8F9091929394A0A150
:1002B000A2A3A4A5A6A7A8A9AAABACADAEAFB0B1A6
:1002C000B2B3B4C0C1C2C3C4C5C6C7C8C9CACBCC07
:1002D000CDCECFD0D1D2D3D4000001010101010194
:1002E00001010102020202020202020203030303ED
:1002F00003030303040404040404040505050505BD
:10030000060606060607070707070808080809097A
:1003100009090A0A0A0B0B0B0C0C0C0D0D0D0E0E25
:100320000E0F0F0F101011111112121313141415B8
:100330001516161717181819191A1A1B1B1C1D1D2C
:100340001E1E1F2020212222232424252626272882
:1003500029292A2B2C2D2D2E2F30313232333435B2
:10036000363738393A3B3C3D3E3F404142434445B5
:10037000464748494A4C4D4E4F5051535455565894
:10038000595A5B5D5E5F616264656668696B6C6D3E
:100390006F7072737577787A7B7D7E8082838587B4
:1003A000888A8C8E8F91939596989A9C9EA0A2A3F2
:1003B000A5A7A9ABADAFB1B3B5B7BABCBEC0C2C4F7
:1003C000C6C9CBCDCFD1D4D6D8DBDDDFE2E4E7E9B7
:1003D000EBEEF0F3F5F8FAFDFF2223252628292A73
:1003E0002C2D2F3032333536383A3B3D3E40424398
:1003F0004547494A4C4E5051535557595A5C5E60D7
:1004000062646668696B6D6F71737577797B7D7FE8
:1004100081838587898A8C8E90929496989A9C9EE7
:100420009FA1A3A5A7A8AAACAEAFB1B3B4B6B8B903
:10043000BBBCBEBFC1C2C3C5C6C7C9CACBCCCDCE6B
:10044000D0D1D2D2D3D4D5D6D7D7D8D9D9DADADB4E
:10045000DBDBDCDCDCDCDCDDDDDDDDDCDCDCDCDCDA
:10046000DBDBDBDADAD9D9D8D7D7D6D5D4D3D2D219
:10047000D1D0CECDCCCBCAC9C7C6C5C3C2C1BFBE01
:10048000BCBBB9B8B6B4B3B1AFAEACAAA8A7A5A36C
:10049000A19F9E9C9A98969492908E8C8A8987852B
:1004A00083817F7D7B79777573716F6D6B6968660A
:1004B0006462605E5C5A5957555351504E4C4A49DC
:1004C00047454342403E3D3B3A3836353332302F84
:1004D0002D2C2A29282625232200AF00AE29001E14
:1004E000001F0020001D001B000600190021002233
:1004F000002B0014000500E0000251E2001A000881
:1005000000150017000351000000000000E0000487
:100510000016000700000000000000000009000AAB
:1005200000E500000000000000000000002300249F
:100530000025002600100036003700380027002D67
:10054000001C00180028622C00E600E7000C0012D6
:100550000013002A0001510000000000000B000DF4
:10056000000E000F00000000000000000033003407
:100570000011000000000000000000000001003A2F
:10058000003B003C0001000100010001003D003E75
:100590000001000100010001000100010001000153
:1005A0000001000100010000000000000001000146
:1005B0000001000100000000000000000001000137
:1005C000000100000000000000000000003F0040AB
:1005D00000410042000100C35CC65CC85C430044AB
:1005E0000001000100CA5C010001000100010001DE
:1005F00000010045000100000000000000010001B2
:1006000000C25CC55C0000000000000000C75CC9BF
:100610005C0100000000000000000000000000007D
:1006200000000000000000000000000000000000CA
:1006300000000000000000000000000000000000BA
:1006400000000000000000000000000000000000AA
:10065000000000000000000000000000000000009A
:10066000000000000000000000000000000000008A
:10067000000000000000000000000000000000007A
:10068000000000000000000000000000000000006A
:10069000000000000000000000000000000000005A
:1006A000000000000000000000000000000000004A
:1006B0000000000000000000000000000001000138
:1006C0000001000100010001000100010001000122
:1006D0000001000100010001000100010001000112
:1006E0000001000100010000000000000001000105
:1006F00000010001000000000000000000010001F6
:1007000000010000000000000000000000010001E6
:1007100000010001000100010001000100010001D1
:1007200000010001000100010001000100010001C1
:1007300000010001000100000000000000F700F4CB
:1007400000F500F6000000000000000000010001BC
:1007500000F8000000000000000000000009025B3B
:1007600000030100A0FA09040000010301010009CF
:100770002111010001224000070581030800010941
:1007800004010002030000000921110100012222DE
:10079000000705820320000107050303200001096B
:1007A0000402000103000000092111010001224997
:1007B0000007058403200001120100020000000868
:1007C000383936350100010200010E035200650080
:1007D0006500780035003600000012036B007500DC
:1007E0007300680069006D006100380000000403B8
:1007F00009040000000000003E5B4F5B3E003E6BC2
:100800004F6B3E001C3E7C3E1C00183C7E3C18009A
:100810001C577D571C001C5E7F5E1C0000183C1896
:100820000000FFE7C3E7FF00001824180000FFE7FF
:10083000DBE7FF0030483A060E002629792926001A
:10084000407F05050700407F05253F005A3CE73CF7
:100850005A007F3E1C1C0800081C1C3E7F0014220E
:100860007F2214005F5F005F5F0006097F017F0049
:10087000006689956A0060606060600094A2FFA2D3
:10088000940008047E04080010207E201000080850
:100890002A1C0800081C2A0808001E10101010004E
:1008A0000C1E0C1E0C0030383E383000060E3E0E7A
:1008B000060000000000000000005F0000000007CC
:1008C00000070000147F147F1400242A7F2A1200DE
:1008D00023130864620036495620500000080703BD
:1008E0000000001C224100000041221C00002A1CC4
:1008F0007F1C2A0008083E080800008070300000B5
:1009000008080808080000006060000020100804C3
:1009100002003E5149453E0000427F4000007249BE
:10092000494946002141494D33001814127F1000F7
:100930002745454539003C4A4949310041211109C3
:100940000700364949493600464949291E0000003A
:100950001400000000403400000000081422410090
:10096000141414141400004122140800020159093F
:1009700006003E415D594E007C1211127C007F49F9
:10098000494936003E41414122007F4141413E00FC
:100990007F49494941007F09090901003E41415110
:1009A00073007F0808087F0000417F41000020405D
:1009B000413F01007F08142241007F404040400039
:1009C0007F021C027F007F0408107F003E414141EE
:1009D0003E007F09090906003E4151215E007F0962
:1009E0001929460026494949320003017F010300C5
:1009F0003F4040403F001F2040201F003F40384004
:100A00003F00631408146300030478040300615971
:100A1000494D4300007F414141000204081020007D
:100A2000004141417F000402010204004040404077
:100A300040000003070800002054547840007F283D
:100A400044443800384444442800384444287F0053
:100A500038545454180000087E0902001824241C3D
:100A600078007F080404780000447D4000002040A6
:100A7000403D00007F102844000000417F400000FE
:100A80007C04780478007C080404780038444444EA
:100A900038007C1824241800182424187C007C08B2
:100AA0000404080048545454240004043F4424001F
:100AB0003C4040207C001C2040201C003C4030403A
:100AC0003C004428102844004C9090907C004464E2
:100AD000544C44000008364100000000770000003C
:100AE0000041360800000201020402003C262326D1
:100AF0003C00000000000000F8FCFCFC3C3CFCFC5E
:100B0000FCF80080C0F0F8FC7E000000000000004F
:100B1000000000000000000000FCFCFCFC000000E5
:100B2000000000000000FCFCFCFC000000000000D5
:100B30000000000000000000000000FCFCFCFC00C5
:100B40000000000000000000FCFCFCFC00000000B5
:100B5000000000000000000000000000007EFCF823
:100B6000F0E0C080000080C0E0F0F8FC7E000000F3
:100B7000E0F0F0F0E0ECEEF7F37020007C7C7C7E9F
:100B8000007E7E7E7F7F7F000080C0E07E5B4F5BCB
:100B9000FEC00000C000DCD7DEDEDED7DC00C00017
:100BA0000000000000000000000000000000000045
:100BB0000000000000000000FFFFFFFF0000FFFF3B
:100BC000FFFF7F1F0F070100000000000000000072
:100BD000000000000000000000FFFFFFFF00000019
:100BE000808080800000FFFFFFFF00000000000009
:100BF0000000000000000000000000FFFFFFFF00F9
:100C00000080808080000000FFFFFFFF00000000E8
:100C10000000000000000000000000000000008153
:100C2000C3E7FFFFFFFFFFFFE7C3810000000000F5
:100C30000F1F3F7F7F7F7F7F3F1E0C001F1F1F3FC7
:100C4000003F3F3F7F7F7F00307B7F783020203028
:100C5000787F3B0003000F7F0F0F0F7F0F00030013
:100C60000000000000000000000000000000000084
:100C70000000000000000000FFFFFFFF0000010176
:100C80000100000000000000000000000000000063
:100C90000000000000000000003F3F3F3F00000058
:100CA0003F3F3F3F00003F3F3F3F0000000000004C
:100CB00000000000000000000000003F3F3F3F0038
:100CC000003F3F3F3F0000003F3F3F3F000000002C
:100CD000000000000000000000000000007E3F1F38
:100CE0000F07030100000103070F1F3F7E000000F4
:100CF00000000000000000000000000000000000F4
:100D000000000000000000000000000000000000E3
:100D100000000000000000000000000000000000D3
:100D200000000000000000000000000000000000C3
:100D3000000011241FBECFEFDAE0DEBFCDBF11E00F
:100D4000A0E0B1E0E0E6F5E602C005900D92A83A19
:100D5000B107D9F726E0A8EAB1E001C01D92A2329E
:100D6000B207E1F70E94D3260C947B320C9400006A
:100D7000E8EDF0E080818E7F80831092E200109297
:100D8000DA001092E100A0EEB0E08C9181608C93CB
:100D900080818F77808319BCA7EDB0E08C918E7F26
:100DA0008C9380818F7E80831092EC030895209134
:100DB000E4003091E50095E6A9012091EC00822F36
:100DC000817020FF06C08091E80080FF06C080E0AF
:100DD00008952091E80022FD1AC08091FA0388232B
:100DE00089F0853089F08091EB0085FD0FC020915E
:100DF000E4003091E50042175307F9F29150E1F613
:100E000084E0089582E0089583E0089581E00895E4
:100E1000EF92FF920F931F93CF937C018B010E945F
:100E2000D706C82F811117C08091E80085FD0BC03F
:100E30008091E8008E778093E8000E94D70688238F
:100E400099F3C82F08C0F70181917F018093F100C9
:100E50000150110949F78C2FCF911F910F91FF90ED
:100E6000EF9008958091FC0387FF13C08091E80004
:100E700082FF06C08091E8008B778093E80004C071
:100E80008091FA038111F2CF08958091FA038823AB
:100E9000D9F38091E80080FFF8CF8091E8008E7749
:100EA000ECCF982F9093E900242F762F50E08917EC
:100EB00031F07091EC002091ED005091F00021FD97
:100EC00007C09F5F973071F78093E90081E0089534
:100ED0003091EB003E7F3093EB003091ED003D7F91
:100EE0003093ED003091EB0031603093EB00709364
:100EF000EC002093ED005093F0002091EE0027FDD0
:100F0000E0CF80E00895B0E0A0E0E9E8F7E00C94DD
:100F10009F31C8EDD0E088818F7E8883E7EDF0E0D7
:100F200080818160808384E082BF81E08093EC03D4
:100F300088818E7F888302EE10E0F8011082109283
:100F4000DA0081EEC82ED12CF601108288818F77CD
:100F5000888388818068888388818F7D888319BC95
:100F60001092FA031092FB031092F9031092F80307
:100F700090EEE92EF12CF70180818B7F80838881B0
:100F80008160888342E060E080E00E945107F601C2
:100F900080818E7F8083F801808181608083808161
:100FA00088608083F70180818E7F80838881806163
:100FB0008883CDB7DEB7E8E00C94BB31FC018091AB
:100FC00002049091030486179707A0F0611571053C
:100FD00029F49091E8009E779093E80090E06115E5
:100FE000710551F4911108C08091E80082FF34C06E
:100FF00080E00895BC01F2CF8091FA038823C1F10B
:101000008530C1F18091E80083FD30C08091E80017
:1010100082FDEACF8091E80080FFE1CF8091F3006C
:101020002091F200382F6115710519F02830310533
:1010300058F091E02830310509F090E02091E80067
:101040002E772093E800CBCF81918093F1006150FF
:1010500071092F5F3F4FE7CF8091FA03882341F05A
:10106000853041F08091E80083FFBECF81E0089594
:1010700082E0089583E00895089508950895809189
:10108000EF03089587E797E790930108809300089E
:1010900088E19AE00FB6F894A895809360000FBE9F
:1010A00090936000FFCF2FB7F8946091E8037091A0
:1010B000E9038091EA039091EB032FBF08959C010F
:1010C000FC0132969FEF80E04191461751F09F3F1F
:1010D00019F4411101C0982F8F5F8630A9F79F3F07
:1010E00009F40895290F311D97FD3A95F90162839E
:1010F0000895FC01680F791F8FEF91E321918227FA
:1011000028E030E087FF09C0880F89272150310986
:10111000C9F7E617F70791F70895880FF7CFFA0197
:10112000811101C0FB01099508950895EBEDF3E0ED
:101130001182828184608283089580910404982FB3
:101140009E7F61F481708260809304048091070423
:10115000853618F084E68093070408958E30B0F346
:1011600081708C60F1CFAF92BF92DF92EF92FF92CD
:101170000F931F93CF93DF93082F162FE901E42FCE
:10118000F0E0E752FD4F611110C0E4915E2F4E2F49
:101190004983E8835A83DF91CF911F910F91FF908C
:1011A000EF90DF90BF90AF900895E62EF12C449120
:1011B000D42EE42FF0E026E0829FC00111242FEF0F
:1011C00030E0B9010E948131802F90E0880F991F93
:1011D00055E5569FD001579FB00D11248A1B9B0BDC
:1011E000982F990F890F5901AE18BF08AE9ED001F4
:1011F000AF9EB00DBE9EB00D11245B2F189F8001D5
:101200001124012F11275901A01AB10AAE9E8001A5
:10121000AF9E100DBE9E100D11245901A81AB108E1
:10122000AE9CC001AF9C900DBE9C900D1124892FE7
:101230009927281B390B2E9FC0012F9F900D3E9F91
:10124000900D1124E92F62307105A1F050F4611561
:10125000710509F49DCF6130710581F0EB2F512F9D
:1012600097CF6430710569F080F06630710509F43C
:101270008FCFF4CFE42F4B2F592F8ACFE42F412F5C
:1012800087CFEB2F542F492F83CF4B2F5D2DE12F8D
:101290007FCFCF93DF93E7EEF2E083819481A58146
:1012A000B681E90188839983AA83BB831482138260
:1012B00016821582DF91CF91089580E0089563E052
:1012C00070E080E492E00E94790890913F028913D7
:1012D00018C0E0914002EB30A4F488E0E802F0018D
:1012E0001124E65FFE4F0680F781E02D309749F02C
:1012F00023E632E04091420263E472E080914102D1
:1013000009950895EAE0F1E0ADE2B2E054968C91DF
:10131000549780A755968C9183AF089590919A0227
:1013200092FF06C0282F28712830F9F4877F846047
:1013300093FF06C0282F28712831F1F4877E84613D
:1013400020919B0220FF06C0382F38713830D9F425
:10135000877F816021FF06C0282F28712831D1F4B2
:10136000877E816194FD877E0895282F2471243023
:10137000F9F68B7F8860DCCF282F2471243101F7A8
:101380008B7E8861DDCF382F3171313019F78E7F38
:101390008860E0CF282F2171213121F78E7E88616E
:1013A000E1CFCF93DF93EC018238910589F1E0F52D
:1013B0008133910509F499C028F58932910509F422
:1013C00089C08A9709F498C0C11523E5D20708F0AF
:1013D000B3C0C11532E5D30708F00FC1C11540E213
:1013E000D40708F097C0C11581E0D80758F5C53A71
:1013F000D10508F088C0C430D10520F5C130D10531
:1014000009F145C08533910509F45FC0C997E1F63C
:1014100080919A02837009F025C180919B0283FF1D
:1014200011C0C9E2D0E00EC0833E910599F170F47D
:10143000803E910501F1823E910531F680919A023C
:1014400082FD21C0CE01DF91CF910895863E9105A6
:1014500061F1873E910571F1843E910509F0B4CFA9
:1014600080919B0281FFEECF80919A02C7EED0E07F
:1014700084FD0DC0E7CF80919A0280FD33C090912A
:101480009B0290FFDFCFC3EED0E084FFDBCFD0E044
:10149000C0E0D8CF80919A0282FDE1C090919B027A
:1014A00090FDE0C084FFCECFF2CF80919A0283FD01
:1014B000DDCFC8CF80919A0283FDD7C090919B0267
:1014C00091FFF0CFC4EED0E0BDCF80919A0285FFAE
:1014D000B9CFA7CF80919A0285FDCAC080919B02A7
:1014E00083FFB0CFC9E3D0E0ADCF80919A0286FFF1
:1014F000A9CFCAE2D0E0A6CF80919A0286FFA2CF00
:10150000C1E3D0E09FCFCE01815E9109079708F437
:1015100099CFBDCFC11521E5D20708F069C0C1152B
:1015200030E5D30708F050C0C11540E4D40708F4F3
:10153000AECFDF70D06A86CFC11586E5D807F0F44C
:10154000C11525E5D20708F071C0C11534E5D307F0
:1015500008F067C0CE018370992721E030E002C017
:10156000220F331F8A95E2F7C695C69540E2C49FC5
:10157000E0011124C22BD32BDA6864CFC1154AE5F0
:10158000D40778F4C11589E5D80708F05AC0C11509
:1015900028E5D20708F47BCFDC2FCC27C06FD06AB8
:1015A00051CFCE0190568115904208F070CF8D2F0B
:1015B0008F710E948E0990E0982F882788279F714D
:1015C0009C012C2BE9013BC0CE018370992721E0BF
:1015D00030E002C0220F331F8A95E2F7C695C69508
:1015E00040E2C49FE0011124C22BD32BDD682ACF37
:1015F000DC2FCC27C16FD06A25CFCE01837099270D
:1016000021E030E002C0220F331F8A95E2F7C69531
:10161000C69580E2C89FE0011124C22BD32BDC6861
:1016200011CFDC2FCC27C46FD06A0CCF8C2F0E9437
:101630008E09C82FD0E0DC2FCC27CC27DF71D062F9
:1016400001CF8C2F8F700E948E0934E0D695C795FC
:101650003A95E1F7CF709C2FEC01D069F3CEC2EE42
:10166000D0E0F0CEC0EED0E0EDCEC6EED0E0EACED7
:10167000C5E3D0E0E7CE80912A02811110922A02C0
:10168000089580959091ED0398239093ED0308952C
:1016900080911F029091EE01981301C008958F5F11
:1016A0008770FACF9A3080F5883070F548E0949FC3
:1016B00090011124820F932F911D682F677023E0F2
:1016C000969587952A95E1F7FC01EE0FFF1FE80F2D
:1016D000F91FE653FE4F50E040E080E0219130E0FA
:1016E000062E02C0369527950A94E2F7217033271B
:1016F000042E01C0220F0A94EAF7822B4F5F5F4F3E
:101700004330510559F7089580E008959A3098F5CF
:10171000883088F548E0949F90011124820F932F20
:10172000911D282F277041E001C0440F2A95EAF748
:1017300023E0969587952A95E1F7FC01EE0FFF1FB0
:10174000E80FF91FE653FE4F90E080E070E0519102
:10175000DF0111979B01082E02C0369527950A9448
:10176000E2F7217021952527242325272C93019624
:101770008330910561F70895982F92959F7011F02D
:10178000892F94E0282F2695269511F09E5F822FB1
:10179000869509F09F5F892F0895B0E0A0E0E3ED02
:1017A000FBE00C949F31FC01EB019091F902911147
:1017B00001C094E04081518191509A01092E02C0EC
:1017C000359527950A94E2F7B901092E02C0660FF4
:1017D000771F0A94E2F7461B570B518340834281DF
:1017E00053818A01092E02C0159507950A94E2F7E4
:1017F000B80102C0660F771F9A95E2F7461B570B98
:101800005383428321387FEF37077CF0203831053E
:1018100074F421952D8301388FEF180754F0802F31
:10182000003811053CF08FE705C021E8F2CF2FE723
:10183000F0CF81E881958C830E9453082D8121117E
:1018400003C02C812223B9F06093FA027093FB024B
:101850008093FC029093FD028091FE029BE0980F22
:10186000973120F4080F0093FE021D82CDB7DEB73A
:10187000E8E00C94BB31C090FA02D090FB02E090FB
:10188000FC02F090FD026C197D098E099F096436F7
:1018900071058105910500F31092FE02DDCFCF9313
:1018A000C82F8091F4028C1751F00E945308609366
:1018B000F5027093F6028093F7029093F802C093BA
:1018C000F402CF9108958091E702F9018083089591
:1018D0008F708A3010F4805D0895895A0895382FEA
:1018E00020E287FF02C031952DE24AE0832F642F6A
:1018F0000E94D831905D9093BF0181110BC020935D
:10190000BE0120E22093BD0120E22093BC018CEBBC
:1019100091E00895642F0E94D831905D9093BE01AC
:10192000832F64E60E94D831882361F3805D809321
:10193000BD01EBCF9C01860F971F37FD07C077FDD8
:1019400004C097FF02C08FEF9FE7089577FFFDCF98
:1019500097FDFBCF80E090E80895E82FE295EF70C7
:10196000F0E031A1282F2F7081E090E001C0880FB6
:101970002A95EAF7382B31A392A18095892382A377
:101980000895E82FE295EF70F0E031A1282F2F7035
:1019900081E090E001C0880F2A95EAF7982F909592
:1019A000932391A392A1892B82A30895B0E0A0E094
:1019B000ECEDFCE00C949F317C016B0180911506ED
:1019C00001E010E08A3010F40AE010E0C1E0D0E05D
:1019D0006BE176E0C701F6010995811104C02196FB
:1019E0000C171D072CF4CDB7DEB7E8E00C94BB3123
:1019F000CC9F9001CD9F300D300D112490E080E000
:101A000045E34A95F1F70000019682179307C1F765
:101A1000DFCF9C0184E08093E9009FEF8091E80094
:101A2000915085FD06C085ED8A95F1F70000911172
:101A3000F5CF8091E80085FF0CC050E040E066E003
:101A400070E0C9010E9408078091E8008E778093BA
:101A5000E8000895CF93DF93EC0181E08093E900E3
:101A60008FEF9091E800815095FD06C095ED9A9515
:101A7000F1F700008111F5CF8091E80085FF14C0D7
:101A800050E040E068E070E0CE010E9408078091DD
:101A9000E8008E778093E80088E0FE01A0EFB3E0D5
:101AA00001900D928A95E1F7DF91CF9108956091B1
:101AB00076018091040480FF20C08091750143E08D
:101AC000849FC00111248B5E9C4F539A2BB1277FBA
:101AD0003BB138605FB7F894FC01649FE00DF11DE5
:101AE0001124BF0168177907D1F45FBF8FE594E037
:101AF0000197F1F700C0000008958091770190915F
:101B0000780123E0829FF0011124EB5EFC4F8917DE
:101B1000A0F61182108212828F5F3396F8CFFC01FB
:101B20004191CF01E8E03BB9000000C047FF2BB96D
:101B3000440F000000C000C000C02BB900C0EA95EF
:101B400091F7D0CF9091040490FF0EC0909177014F
:101B50002091780133E0939FF0011124EB5EFC4F5C
:101B6000921718F00E94570D089581836083428375
:101B70009F5F3396F5CFA3E0B0E0E1ECFDE00C947D
:101B8000A3318C018091DE0381110AC09E012F5F79
:101B90003F4F44E66FEF0E94B3088A818093DE03D3
:101BA000F8016481613069F08091DE0340E06623D2
:101BB00061F040E0623011F44091DE0380E060E0CB
:101BC00004C06091DE0340E080E00E94A20DF801B5
:101BD000848190E0019663E070E00E94E6318483A6
:101BE0002396E4E00C94BF31A3E0B0E0EAEFFDE01F
:101BF0000C94A3318C01DC011496EC91F0E0E752D7
:101C0000FC4F44918091040480FF11C0453608F0D8
:101C100044E69E012F5F3F4F6091060480910504CA
:101C20000E94B3084B8169818A810E94A20DF8014C
:101C300084818F5F84832396E4E00C94BF3180918C
:101C40002C02811119C082E390E02091E30027FD6E
:101C500010C0EFE3FCE93197F1F700C000000197F5
:101C6000A1F782E080932C020E94B8061092FA033A
:101C700003C081E080932C0281E090912C0291308E
:101C800011F080E0089508950E941F0E882359F0F6
:101C9000E091E503F091E603309729F00190F0819F
:101CA000E02D0995089580E008950F931F930E94F9
:101CB0001F0E882329F00E9453081F910F91089549
:101CC0000E9453080091940210919502209196026F
:101CD00030919702600F711F821F931FEECF2698DD
:101CE0002E9A249A2C9885E08A95F1F7000083B10A
:101CF00024982C9A90EA9A95F1F790E026E0959531
:101D000087952A95E1F78095909581700895CF93F6
:101D1000DF93682F81E06A3019F06D3031F480E094
:101D20000E94150FDF91CF91089580911306909135
:101D3000140626E0FC01ADE0B6E001900D922A9574
:101D4000E1F7603E08F458C026E0FC0111922A95A4
:101D5000E9F7C0911306D091140646E050E0BE01A9
:101D60008DE096E00E941D329E012D503440892B5B
:101D700041F1C90145E0969587954A95E1F741E023
:101D800050E0BA0102C0660F771F8A95E2F7CB01D7
:101D900060910B0470910C04862B972BB9016B5F3B
:101DA0007F4FE5E076956795EA95E1F702C0440F2D
:101DB000551F6A95E2F7842B952B90930C04809322
:101DC0000B042A5F3F4F40910A04642F70E0C90161
:101DD0000E948131481B463010F4240F311D21151B
:101DE00072E0370710F030E020E0235F3B4F309384
:101DF00014062093130696CFF6E06F9FB0011124CE
:101E00006E50784F46E050E00E940732A2CFCF9349
:101E1000DF93EC01FE018491811103C0DF91CF912A
:101E200008950E94870E2196F5CFCF93382FE09129
:101E30001306F0911406ED50F44020910A04622F2D
:101E400070E0CF010E948131281B822F332361F083
:101E500066E00E94CC31C82FC15010F4CF91089594
:101E600080E20E94870EF8CF9F01280F311D2115B7
:101E7000324018F080E0F0E0E0E08E0F9F2F911DDF
:101E8000835F9B4F9093140680931306E7CFAEE1D8
:101E9000B0E0EDE4FFE00C94A53140910F035091C8
:101EA00010036091110370911203809113039091BC
:101EB00014030E945A1920930F0330931003409388
:101EC000110350931203609313037093140386E07D
:101ED000EFE0F3E0DE01179601900D928A95E1F7AD
:101EE00086E0FE013796DE011D9601900D928A95DF
:101EF000E1F786E0FE013D96DE01119601900D921C
:101F00008A95E1F786E0FE013196AFE0B3E00190FB
:101F10000D928A95E1F786E0EFE0F3E0DE01599655
:101F200001900D928A95E1F786E0FE017996DE0137
:101F3000179601900D928A95E1F786E0FE0137969B
:101F4000DE01119601900D928A95E1F786E0FE017F
:101F50003196DE01539601900D928A95E1F786E065
:101F6000FE017396DE01179601900D928A95E1F7B6
:101F700086E0FE013796AFE0B3E001900D928A95BE
:101F8000E1F746E050E069E073E08FE093E00E9403
:101F90001D32892B79F0E091E503F091E60330974B
:101FA00049F082E080930F030480F581E02D8FE0FB
:101FB00093E00995109211031092120310921303EB
:101FC0001092140386E0EFE0F3E0A9E0B3E00190A3
:101FD0000D928A95E1F76E96E2E00C94C131809102
:101FE000ED0390912902892B8093AA0190912A02F6
:101FF000992391F0892B8093AA0120E08CEA91E04B
:10200000FC013191CF0131112F5FF1E0823B9F073D
:10201000B9F721110E943B0B48E050E061E272E009
:102020008AEA91E00E941D32892BA9F088E0EAEA51
:10203000F1E0A1E2B2E001900D928A95E1F7E09122
:10204000E503F091E603309731F00280F381E02D53
:102050008AEA91E009950895ECEAF1E086E0DF0173
:102060001D928A95E9F7109229020E94EF0F0895B8
:10207000AAE2B0E0EEE3F0E10C94A4318CEF93E03F
:102080002091F100DC012D93CD01B4E084309B0759
:10209000B9F78091FD03833009F472C0B8F4813040
:1020A00009F449C0823009F4B5C08091E80083FF8B
:1020B0008DC28091FC039091FD039A3008F086C296
:1020C000E92FF0E0E358FD4C0C94FA318A3009F422
:1020D00090C08B3009F471C0893039F78091FC03CE
:1020E000813219F78091000490910104009711F05A
:1020F0000297D9F68091E800877F8093E80080916D
:10210000E80082FF38C09091F3008091F2000297BE
:1021100031F48091F100813011F0863021F480910A
:10212000F1008093EF038091E8008B778093E800C3
:102130000E943207BACF8091FC03813A09F0B5CFF3
:102140008091E800877F8093E8008091000490915F
:102150000104892B61F468E080EF93E070E00E9455
:10216000DE078091E8008B778093E8009ECF60E0E7
:1021700090E080E0F3CF8091FA038111C0CF95CF3A
:102180008091FC03813A09F090CF809100049091F6
:102190000104892B09F089CF8091E800877F809323
:1021A000E8008091E80080FFFCCF80917B01809364
:1021B000F1008091E8008E77B9CF8091FC038132E5
:1021C00009F073CF8091000490910104892B09F0EC
:1021D0006CCF8091E800877F8093E8000E943207EF
:1021E0008091FE0380937B011092ED030E942C10DE
:1021F0005CCF8091FC03813209F057CF8091E800D9
:10220000877F8093E8000E9432078091FF038093CC
:10221000EE034BCF8091FC03813A09F046CF8091C9
:10222000E800877F8093E8008091E80080FFFCCF82
:102230008091EE03BCCF803899F0823809F0C6C196
:10224000809100048F70873008F0C0C18093E9004E
:102250008091EB0085FB882780F91092E90006C089
:102260008091F8039091F903911182609091E800B8
:10227000977F9093E8008093F1001092F100809195
:10228000E8008E779FC1882309F48DC1823009F060
:102290009DC18091FE03811190C1809100048F70D7
:1022A0002FEF280F263008F091C18093E90020918C
:1022B000EB0020FF82C1933031F48091EB0080620B
:1022C0008093EB007AC19091EB0090619093EB00CA
:1022D00021E030E001C0220F8A95EAF72093EA005E
:1022E0001092EA008091EB008860EACF81116EC104
:1022F0001091FE031F778091E3008078812B8093FB
:10230000E3008091E800877F8093E8000E94320715
:102310008091E80080FFFCCF8091E300806880938B
:10232000E30082E0111183E08093FA034FC18058EB
:10233000823008F04BC12091FE033091FF032C3D09
:10234000E3E03E07A1F583E08A838AE289834FB701
:10235000F894DE01139620E03EE051E2E32FF0E036
:1023600050935700E49120FF03C0E295EF703F5F68
:10237000EF708E2F90E0EA30C0F0C7968D939D935A
:102380002F5F243159F74FBF8091E800877F8093FA
:10239000E8006AE270E0CE0101960E94DE078091BB
:1023A000E8008B778093E80011C1C096E7CF809159
:1023B000000490910104432F55274330510509F43F
:1023C0004AC078F54130510509F47AC08BE590E0B8
:1023D000EDE5F7E04230510509F0F8C02091E80042
:1023E000277F2093E8002091020430910304821794
:1023F000930708F49C0140E02115310509F065C000
:10240000411163C08091E80082FDC9CF8091FA0339
:10241000882329F2853019F28091E80083FFF2CFFA
:10242000BECF4132510509F43CC04232510509F09A
:10243000CDC08330910508F0C9C0FC01EE0FFF1F2D
:10244000E556FE4F0190F081E02D88569E4FDC014D
:102450008C9190E01AC0332721303105D1F021153D
:10246000310561F02230310509F0B0C0EAECF7E047
:10247000E4918E2F90E0EAECF7E007C0EEEEF7E093
:10248000E4918E2F90E0EEEEF7E0009709F49EC005
:10249000A5CFEAEDF7E0E4918E2F90E0EAEDF7E0CA
:1024A000F4CF8330910508F091C0880F991FFC018B
:1024B000EF55FE4F0190F081E02D89E090E08ECF46
:1024C00082E190E0E8EBF7E089CF8091FA0388237E
:1024D00009F465CF853009F462CF8091E80083FD6F
:1024E0005ECF8091E80082FD8DCF8091E80080FF73
:1024F00083CF9091F3008091F2002115310519F0FE
:102500008830910550F041E0089709F040E0809153
:10251000E8008E778093E8006FCF44914093F100FC
:102520003196215031090196E8CF803809F04EC02C
:102530008091E800877F8093E8008091FB0380937F
:10254000F1009DCE811142C01091FE031230F0F5D2
:102550008091E800877F8093E8001093FB030E943E
:102560003207112311F084E005C08091E30087FD5C
:10257000FACF81E08093FA0342E061EC81E00E94AF
:10258000510742E261EC84E00E94510742E261ECB3
:1025900082E00E94510742E260EC83E00E94510712
:1025A0008091FA0313C08091FE03813079F481E0B9
:1025B000933009F080E08093F9031092E900809154
:1025C000E800877F8093E8000E9432078091E8004E
:1025D00083FF0AC08091E800877F8093E8008091A4
:1025E000EB0080628093EB00AA96E3E00C94C0318C
:1025F0001092ED030E942C102FEF84E39CE02150F9
:1026000080409040E1F700C0000088E19AE00FB6FA
:10261000F894A895809360000FBE90936000FFCF60
:1026200080930904109229020E94EF0F089580916F
:102630000904982F9670963021F488600E94101338
:102640000895877FFBCF21E030E001C0220F8A95FB
:10265000EAF720958091090482230E9410130895BF
:10266000909120028095892380932002282F277043
:1026700091F4282F082E000C330B9217130659F0F3
:1026800090919B0292FF07C08595859585950E9444
:10269000231310922002089521E030E001C0220FA0
:1026A0008A95EAF780910904822B0E9410130895FD
:1026B00080932B02109229020E94EF0F0895882325
:1026C00021F00E94410B0E94EF0F0895882339F0FA
:1026D0009091ED03982B9093ED030E94EF0F0895D6
:1026E0008823E1F19CEF980F913A80F4ECEAF1E055
:1026F00022EB31E09191891303C0DF0111971C9205
:102700002E173F07B9F70E94EF0F089590E2980F38
:10271000983050F4877091E001C0990F8A95EAF7DC
:10272000892F0E94410BEFCF9BE5980F9330B8F4AF
:102730008091C6019091C701892B81F01092C70149
:102740001092C601E091E503F091E603309731F075
:102750000680F781E02D90E080E009950895885A81
:102760008731E0F78091C8019091C901892BB1F3BD
:102770001092C9011092C801E091E503F091E603BF
:10278000309761F30084F185E02DE5CFCF93C82F1A
:102790008823A9F08CEF8C0F813A00F5ECEAF1E088
:1027A000DF018D91C81769F081E0A23BB807C9F736
:1027B0006C2F8AEA91E00E945F080E94EF0FCF9190
:1027C00008958191C81303C0DF0111971C9281E025
:1027D000E23BF807B1F70E94EF0FEACF80E28C0FDF
:1027E000883068F7C77021E030E001C0220FCA9539
:1027F000EAF78091ED03822B8093ED03DECF1F93E8
:10280000CF93DF93182FEB010E94C6138FE99FE04F
:102810000197F1F700C000002197C1F7812F0E94B6
:102820007013DF91CF911F9108950F931F93CF9352
:10283000DF93EC01FC0101900020E9F78F010150CA
:102840001109C017D10728F0DF91CF911F910F9187
:10285000089589910E94870EF4CFB0E0A0E0E3E3F1
:10286000F4E10C949F316C017B0164E670E088E731
:102870000E94DF2EEC0197FD12C010E000E0F6018F
:10288000E00FF11F849164E670E00E944B2FEC0191
:10289000892B29F40F5F1F4F0E151F0581F70E942A
:1028A000C12FCE01CDB7DEB7E8E00C94BB318091EB
:1028B000E3039091E403911103C091E08927089507
:1028C000882369F062E070E08BED94E00E942D14A3
:1028D000892B19F08091E30308951092E30380910E
:1028E000E303EBCFCF93C091E3038091E40388230C
:1028F000D1F00E945308605A75418F4F9F4F6093EB
:10290000DF037093E0038093E1039093E203C1112E
:1029100008C062E070E089ED94E00E942D14892BDC
:1029200029F0C091E3038C2FCF91089581E080932B
:10293000E303F7CFCF93DF93C7EBD2E060E0CE01A4
:102940000E9447322196C11584E0D807B9F7DF917C
:10295000CF9108951F93CF93DF93122F8430E0F42B
:102960006A30D0F44830C0F490E1699FE00111244E
:1029700050E0440F551FC40FD51F90EA899FC00D2A
:10298000D11D1124632FCE01C7960E944732612FBB
:10299000CE01C8960E944732DF91CF911F910895D2
:1029A000AF92BF92CF92DF92EF92FF921F93CF939D
:1029B000DF938DEDC82E84E0D82ED0E07601C0E004
:1029C00014C0F50125913491412F6C2F8D2F0E9459
:1029D000AA1482E0A80EB11C1F5F183091F780E1A5
:1029E000E80EF11CCF5FCA3019F0570110E0E9CFB3
:1029F000DF5F80EAC80ED11CD43001F7DF91CF91A0
:102A00001F91FF90EF90DF90CF90BF90AF9008950F
:102A100086E390E00E9447320895CF93C82F6FEF6E
:102A2000811163E283E390E00E9447326FEFC111AE
:102A300061E084E390E00E9447326FEFC11166E1EC
:102A400085E390E00E944732CF91089580E00E9494
:102A50000D1560E070E0CB010E9408150E94D014B3
:102A60000E949A1481E00E940D150895CF93C091A1
:102A70009B02C2FB992790F9981791F080FBC2F94D
:102A8000C0939B0260919A0284E090E00E944732DA
:102A90006C2F82E290E00E94473282E00E94301365
:102AA000CF9108950F931F93CF93DF93843030F528
:102AB0006A3020F5483010F520E1629F8001112432
:102AC00050E0440F551F040F151F30EA839F000D7F
:102AD000111D1124C801C7960E943332C82FD0E0BF
:102AE000DC2FCC27C801C8960E9433329E01282BC8
:102AF000C901DF91CF911F910F91089590E080E07F
:102B0000F8CF462F843040F47A3030F4683020F427
:102B1000672F0E945215089590E080E00895CF92AB
:102B2000DF92FF920F931F93CF93DF936C0100917D
:102B3000090480912B02082BC7E0D0E010E0FC2EA6
:102B4000C8010C2E02C0959587950A94E2F780FD86
:102B50000CC02197A0F7F12C8F2DDF91CF911F9101
:102B60000F91FF90DF90CF900895B6018C2F0E94B7
:102B700081150E94D109019761F3EECFCF93DF93C6
:102B8000EC010E948F15BE010E9481150E94D1099F
:102B9000DF91CF910895FC0183819481892B29F0E5
:102BA0008081918189238F3F51F480E00895843F93
:102BB000E1F717C0883EA8F0813FB9F712C08081C5
:102BC00091810E94BE1592959F70963099F358F4AA
:102BD000925F9F70923048F7803F19F040F7883E2F
:102BE00020F781E008959A5FF4CF86E390E00E9499
:102BF0003332682F70E090E080E0089583E390E046
:102C00000E943332833289F484E390E00E943332AD
:102C1000813059F485E390E00E94333291E08631AF
:102C200009F090E0892F8170089580E0FCCFCF9269
:102C3000DF92EF92FF926B017C010E949D08B70129
:102C4000A60188E090E00E945932FF90EF90DF905B
:102C5000CF900895A3E0B0E0E0E3F6E10C94A13159
:102C6000F82E062F142FE22E8091040480FF3DC021
:102C7000E82FE695F0E0EF56FE4F90819093DB034E
:102C80008E7F8230B1F5453608F044E69E012F5F15
:102C90003F4F602F8F2D0E94B3084B8169818A813D
:102CA0000E94A20D809105048F1108C08091060436
:102CB000801304C080910704811729F08091DD03FF
:102CC00082608093DD03F092050400930604109364
:102CD0000704EE2051F06091040470910504809186
:102CE0000604909107040E9417162396E6E00C94C0
:102CF000BD319230B9F610910704D4CFE4E0F4E08E
:102D000043812AE0421B08F440E021E06281818196
:102D10000E942A160895E4E0F4E043812AE0420F7D
:102D200008F44FEF21E0628181810E942A16089504
:102D3000E4E0F4E0628121E1621B08F460E021E05C
:102D4000438181810E942A160895E4E0F4E06281C3
:102D500021E1620F08F46FEF21E0438181810E943D
:102D60002A160895E4E0F4E0818121E04381628144
:102D700081510E942A160895E4E0F4E0818121E067
:102D8000438162818F5E0E942A1608958091080413
:102D9000882319F081508093080460910404709195
:102DA000050480910604909107040E941716089567
:102DB00080910804833018F48F5F80930804609139
:102DC00004047091050480910604909107040E9408
:102DD00017160895E4E0F4E083E0808311828FEF1A
:102DE000828384E683831482ABEDB3E012968C91E8
:102DF0001297836012968C93608171818281938196
:102E00000E941716089568EE7EEF90E080E00E9421
:102E1000653260E082E090E00E94473260E083E04B
:102E200090E00E94473210922B0260E084E090E034
:102E30000E94473264E082E290E00E94473260E004
:102E400085E090E00E94473260E086E090E00E94DA
:102E500047326FEF87E090E00E94473240E050E059
:102E6000BA0188E090E00E94593260E08DE090E085
:102E70000E94473240E050E0BA0188E190E00E94B1
:102E8000593260E087E190E00E94473240E050E034
:102E9000BA018CE190E00E94593270E060E080E27B
:102EA00090E00E94653240E050E0BA0188E190E095
:102EB0000E94593280E00E940D150E94261540E0C4
:102EC00050E0BA018FE090E00E94593240E050E0BB
:102ED000BA0183E190E00E9459320895B0E0A0E089
:102EE000E4E7F7E10C94A0317901C82F880FDD0BDE
:102EF00041155105A9F0FE0193E0EE0FFF1F9A95D1
:102F0000E1F7E65FFE4F81819281835D9D4F2081D5
:102F100030E04217530708F49A01A9010E942A32AF
:102F2000CE010E940B31D82E8823D1F00115110556
:102F3000B9F083E0CC0FDD1F8A95E1F7FE01E65F73
:102F4000FE4F438150E00417150708F4A801C65F3F
:102F5000DE4F6C817D81635D7D4FC7010E942A3207
:102F60008D2DCDB7DEB7E7E00C94BC31A5E0B0E025
:102F7000ECEBF7E10C949D318D83E62E5A01F22E95
:102F80006801809115068A3028F080E02596EAE0F5
:102F90000C94B9318D818830C4F31A8219828A83E6
:102FA0006B832C8363E070E0CE0102960E94790867
:102FB0008983E0923201F092450110E000E030E0B8
:102FC00020E044E050E0BE016F5F7F4F84E00E944C
:102FD0006E178823D1F24E2D50E030E020E0B5018D
:102FE00085E00E946E17882381F230E020E041E006
:102FF00050E0BE016B5F7F4F86E00E946E17882312
:1030000021F20F2D10E0960150E040E070E060E00A
:1030100087E00E946E17BACFA8E0B0E0E2E1F8E1E5
:103020000C94A33185E0E4E0F4E0DE011196019018
:103030000D928A95E1F78091DB039091DC03A091DA
:10304000DD038E839F83A88728854091900250914D
:10305000910260919202709193023FB7F89480912F
:10306000E8039091E903A091EA03B091EB033FBF1D
:10307000841B950BA60BB70B84369105A105B105F2
:1030800010F42223C1F010E000E030E020E048E03E
:1030900050E0BE016F5F7F4F83E00E946E17882370
:1030A00069F00E945308609390027093910280939C
:1030B0009202909393021092DD0381E02896E4E05F
:1030C0000C94BF31A4E0B0E0E8E6F8E10C94A33141
:1030D00040918C0250918D0260918E0270918F020E
:1030E0002FB7F8948091E8039091E903A091EA0347
:1030F000B091EB032FBF841B950BA60BB70B11E010
:1031000084369105A105B10518F10E94550E6E5F38
:103110007F4F8F4F9F4F69837A838B839C8310E00F
:1031200000E030E020E044E050E0BE016F5F7F4F00
:1031300082E00E946E17182F882351F00E945308D6
:1031400060938C0270938D0280938E0290938F0215
:10315000812F2496E4E00C94BF31A6E0B0E0E3EBCD
:10316000F8E10C94A1317B0101E010E09E012A5F9F
:103170003F4F50E040E070E060E080E00E946E175A
:10318000182F882309F453C0409188025091890276
:1031900060918A0270918B022FB7F8948091E803B6
:1031A0009091E903A091EA03B091EB032FBF841B38
:1031B000950BA60BB70B84369105A105B10548F414
:1031C00065E070E08EE292E00E9479089E818917A6
:1031D00071F105E010E09E012F5F3F4F50E040E0AD
:1031E00070E060E081E00E946E17082F65E070E0FB
:1031F0008EE292E00E94790811E09E81981310E01F
:10320000102301F10E945308609388027093890291
:1032100080938A0290938B0285E0FE013196A3E8A9
:10322000B2E001900D928A95E1F711E00BC085E0C4
:10323000EEE2F2E0DE01119601900D928A95E1F73F
:103240001111EACF85E0E3E8F2E0D70101900D9299
:103250008A95E1F7812F2696E6E00C94BD310E9415
:103260006F0E8093090180910901882359F0109213
:10327000750180E2809376010E941F0E81110E94E9
:103280001F30089580E280937501F4CF90E080E0D4
:103290000E944132883E9E4F19F40E94FE15089507
:1032A00080E0089528E030E043E060E087EF0E948E
:1032B000072E0895ACE0B0E0E0E6F9E10C949F3110
:1032C0004F83588769877A878B879C878091E7022D
:1032D000882399F00E94521980E50E947F2E2AEBE4
:1032E0002A95F1F700C00E94972E88789927803898
:1032F000910509F484C00E94AF2E0E941F0E8823FE
:1033000009F468C00E9453080091C1011091C201E4
:103310002091C3013091C4016B017C01C01AD10A14
:10332000E20AF30A970186010830110521053105EB
:1033300008F450C06093C1017093C2018093C3012F
:103340009093C4010091F5021091F6022091F702CA
:103350003091F802601B710B820B930B6233710585
:103360008105910580F41092EB021092EA0210920E
:10337000ED021092EC021092EF021092EE02109207
:10338000F1021092F0021091F4020E946F0E1123CC
:1033900009F462C0BE01695F7F4F8AEE92E00E942D
:1033A000CD0B0091F4021091E7020E946F0E0117FD
:1033B00009F47CC0BE01695F7F4F8EEE92E00E94EF
:1033C000CD0B86E0FE013796A3E0B3E001900D92AD
:1033D0008A95E1F786E0FE013796DE0111960190AD
:1033E0000D928A95E1F729813A814B815C816D814B
:1033F0007E8180E090E02C96E8E00C94BB310E9446
:10340000972E0E94972E7C010E94972E20E0E22AA0
:10341000F82A0E94972E8C010E94972E20E0022B02
:10342000182B0E94AF2EF894B7018091EA02909178
:10343000EB020E949A0C9093EB028093EA02B8018F
:103440008091EC029091ED020E949A0C9093ED0213
:103450008093EC02789451CF8091EA029091EB0234
:1034600081382FEF9207D4F080389105CCF4819504
:1034700089878091EC029091ED0281382FEF9207BD
:103480008CF08038910584F48A871092EB021092B8
:10349000EA021092ED021092EC0283CF81E8E7CFAE
:1034A0008FE7E5CF81E8F0CF8FE7EECF8091EE0296
:1034B0009091EF0281382FEF9207D4F08038910578
:1034C000CCF4819589878091F0029091F102813846
:1034D0002FEF92078CF08038910584F48A87109240
:1034E000EF021092EE021092F1021092F00269CFF8
:1034F00081E8E7CF8FE7E5CF81E8F0CF8FE7EECF28
:10350000CF93DF93D82FC62F0E9452198D2F80683A
:103510000E947F2E8C2F0E947F2E0E94AF2E8FEC58
:1035200092E00197F1F700C00000DF91CF9108957C
:10353000682F893708F068E76093F20291E0909372
:10354000F3029091E702992359F06150811101C073
:1035500064E08FE00E94801A60E080E50E94801A9B
:103560000895FB0180810E94981A08959091F202BB
:10357000911101C095E0282F880F330BA901490F45
:10358000511DCA011816190614F081E090E00E943E
:10359000981A0895CF93C82F0E9452198C2F0E9419
:1035A0007F2E8FE792E00197F1F700C000000E94A4
:1035B000972EC82F0E94AF2E9AE69A95F1F700C079
:1035C0008C2FCF910895CF93DF930E94FF2D879A80
:1035D0000E9452196AE58AE30E94801A2FEF80E761
:1035E00092E0215080409040E1F700C0000082E06E
:1035F0000E94CA1A83E00E94CA1A84E00E94CA1A72
:1036000085E00E94CA1A86E00E94CA1A60E080E142
:103610000E94801A80E00E94CA1AD82F81E00E947E
:10362000CA1AC82F0E94AF2ED23419F481E0C130DB
:1036300009F080E081708093E702882341F064E024
:103640008FE00E94801A60E080E50E94801ADF917E
:10365000CF9108951F920F920FB60F9211242F93BE
:103660003F934F935F936F937F938F939F93AF930A
:10367000BF93CF93DF93EF93FF93D091E900DF7077
:103680008091EC00C82FC17080FDC0E81092E90065
:103690008091F000877F8093F00078940E9438102A
:1036A0001092E9008091F00088608093F000CD2BAB
:1036B000CF70C093E900FF91EF91DF91CF91BF915F
:1036C000AF919F918F917F916F915F914F913F91BA
:1036D0002F910F900FBE0F901F9018951F920F9271
:1036E0000FB60F9211242F933F934F935F936F93D5
:1036F0007F938F939F93AF93BF93EF93FF938091AB
:10370000E10082FF09C08091E20082FF05C0809144
:10371000E1008B7F8093E1008091DA0080FF24C07C
:103720008091D80080FF20C08091DA008E7F809346
:10373000DA008091D90080FF9DC080E189BD82E1DF
:1037400089BD09B400FEFDCF81E08093FA0380912A
:10375000EC03811109C00E94B8060E948307809182
:10376000E20084608093E2008091E10080FF17C056
:103770008091E20080FF13C08091E2008E7F8093F1
:10378000E2008091E20080618093E2008091D800A5
:1037900080628093D80019BC85E08093FA03809101
:1037A000E10084FF2BC08091E20084FF27C080E10C
:1037B00089BD82E189BD89B5982F917080FFFBCFCB
:1037C0008091D8008F7D8093D8008091E1008F7E1A
:1037D0008093E1008091E2008F7E8093E2008091EF
:1037E000E20081608093E2008091FB03882309F46A
:1037F00047C084E08093FA038091FA038091E1004E
:1038000083FF27C08091E20083FF23C08091E10005
:10381000877F8093E10082E08093FA031092FB039C
:103820008091E1008E7F8093E1008091E2008E7FA5
:103830008093E2008091E20080618093E20042E0A8
:1038400060E080E00E9451078091F00088608093E2
:10385000F000FF91EF91BF91AF919F918F917F9178
:103860006F915F914F913F912F910F900FBE0F90ED
:103870001F90189519BC1092FA031092EC0374CFA4
:103880008091E30087FD93E09093FA03B5CF78949D
:103890001F921FB61F9211248F939F93AF93BF93D4
:1038A0008091E8039091E903A091EA03B091EB03C2
:1038B0000196A11DB11D8093E8039093E903A093A5
:1038C000EA03B093EB03BF91AF919F918F911F904B
:1038D0001FBE1F9018959C014FB7F8948091E80384
:1038E0009091E903A091EA03B091EB034FBF821BD3
:1038F000930B08952FB7F8948091E8039091E90312
:10390000A091EA03B091EB032FBF08950E941F0E10
:10391000882319F00E947A1C08950E94550ECB014D
:10392000089560910404669570E041E050E08AE7F4
:1039300091E00E941032892B19F481E08093DC031E
:103940000E94861C9093D6038093D5038091DD035B
:1039500084608093DD0308959091040490FF31C04A
:10396000917081112FC09260909304048091DD03C7
:1039700081608093DD03662351F0609104047091AF
:10398000050480910604909107040E941716609127
:103990000404669570E041E050E08AE791E00E94FF
:1039A0001032892BB1F00E94960881E08093D803F1
:1039B00020E04091070460910604809105040E9474
:1039C0002A160895873010F09C60CECF880F982B70
:1039D000CBCF0E94911CE9CF809104048695815041
:1039E00009F486E061E00E94AC1C08958091040413
:1039F00086958F5F873008F081E061E00E94AC1C03
:103A000008958091040480FF08C0869582588F77BE
:103A1000833018F40E94F61C089561E082E00E9451
:103A2000AC1C0895A2E1B0E0E8E1FDE10C94963110
:103A30008C01DC0113968D919C911497892B39F0A0
:103A40008C9111969C9189238F3F09F059C56296FC
:103A5000E1E10C94B2310E948F15F82E682F898114
:103A60009A810E94860B69817A818F2D0E9481152F
:103A70007C01F8018281882309F435C5C701825190
:103A80009F45409708F0F4C48FEF93E00E943332D3
:103A9000811128C0FEEEEF0E57EB852E52E0952ED9
:103AA000E11033C01C821B82442443944AE0342E2C
:103AB00074018FEFE81AF80AC4010E943332898337
:103AC0001A82882379F09FEF980F933060F58A83EC
:103AD000498292E0890E911CC7010E9433328B8388
:103AE000811122C080912002877009F4B0CFD801E3
:103AF00012968C91882309F4AACF80919B0282FFB1
:103B0000A6CF82E00E943013A2CF811424E0920657
:103B100049F3C4010E943332811101C0EA943FEF9E
:103B2000831A930ABDCF4701DE0111967D01F7018B
:103B30002081222309F4BCCF213009F06DC091818E
:103B40008281913061F4F2E0EF0EF11C65E070E0EB
:103B5000893311F460E570E00E94FF1307C09230D2
:103B600039F522E0E20EF11C0E94C613FFEFEF1AB6
:103B7000FF0A8FE99FE00197F1F700C00000AFE96D
:103B8000BFE01197F1F700C00000EFE9FFE03197C7
:103B9000F1F700C000008FE99FE00197F1F700C046
:103BA0000000AFE9BFE01197F1F700C00000BFCF00
:103BB000933031F432E0E30EF11C0E947013D6CF43
:103BC000943021F08FEFE81AF80AD0CF92E0E90E96
:103BD000F11C30E020E0B7016F5F7F4FD7011196F5
:103BE0004C918053990B8A30910558F0215031093E
:103BF00008F4BCCFEFE9FFE03197F1F700C0000017
:103C0000F5CF329EF001339EF00D11249C012E0F52
:103C10003F1F842F7B01DFCFE22FF0E0E957FE4FFB
:103C20005490822F86958695869590E0FC01E95800
:103C3000FE4F64902770712C022E02C07594679419
:103C40000A94E2F731E063227724FC01E959FE4F40
:103C5000A490B12C022E02C0B594A7940A94E2F766
:103C6000A1E0AA22BB24FC01E95AFE4FC490D12C4A
:103C700002C0D594C7942A95E2F7B1E0CB22DD24A7
:103C80006114710419F081EE0E94C613A114B104ED
:103C900019F086EE0E94C613E9E365E070E05E125B
:103CA00002C060E570E0852D0E94FF13A114B104ED
:103CB00019F086EE0E9470136114710419F081EE00
:103CC0000E947013C114D10409F450CF65E070E074
:103CD0008CE242CF81E00E944C130E94171302CF66
:103CE00081E00E942313F9CF82E0F5CFF701DFC313
:103CF000E45FF10921E030E001C0220FEA95EAF724
:103D000096E0EFE0F3E0DE01179601900D929A95B0
:103D1000E1F796E0FE013796DE011D9601900D92C7
:103D20009A95E1F79885882389F1292B2E8786E0DB
:103D3000FE013D96DE01119601900D928A95E1F704
:103D400086E0FE013196AFE0B3E001900D928A95D6
:103D5000E1F7F8018281F6E1EF16FCE5FF0609F0D4
:103D600069C0882309F451C08091ED038A7A91E0FB
:103D700009F490E09093C50169E2811165E38AEA54
:103D800091E00E945F080E94EF0FACCE209529239E
:103D9000CDCF80E00E94981A1092F902A3CE4091F4
:103DA000F2025091F90250FB47F95695537060E0CA
:103DB00070E08FE090E00E94593294CE81E00E9442
:103DC000B61A90CE8FEFFBCF8AE0F9CF86EFF7CF10
:103DD0009091F40281E089270E944F0C83CE80915C
:103DE000F902811101C084E08F5F18160CF081E0A8
:103DF000883008F087E08093F90274CE8091F90250
:103E0000811101C084E08150F0CF8091C501811102
:103E10000FC089E2ECEAF1E022EB31E091918913E5
:103E200003C0DF0111971C922E173F07B9F7ABCFE4
:103E300085E3F0CF811108C18091ED0382722AECF5
:103E4000E2162CE5F20609F4EFC008F07CC095EC10
:103E5000E9169CE5F90609F4D3C008F059C0B3ECA3
:103E6000EB16BCE5FB0609F4C1C008F0C4C0F2ECD7
:103E7000EF16FCE5FF0609F48DC0F8018281E080B1
:103E8000F180882309F41EC1C7010E948F15D82E26
:103E9000682FC7010E94860BB7018D2D0E948115E6
:103EA0000E94D1097C01882ED8011296CC901297DD
:103EB0001596BC90B2943FE0B322809120028770A7
:103EC000C1F0AC2CCC20B1F08F2D807F803421F05C
:103ED00080E28E0D883068F080919B0282FF09C0DD
:103EE00082E00E943013809120028770AA24A3945C
:103EF0008111A12C9F2C92942FE09222BBE0B91546
:103F000008F44FC1E92DF0E0E957FD4C0C94FA316B
:103F100027ECE2162CE5F20609F47CC008F475C023
:103F200098ECE9169CE5F90609F479C04EE756E1EC
:103F30006BE876E1A9ECEA16ACE5FA0609F09DCF4C
:103F40000E948F08CFCDBEECEB16BCE5FB0609F452
:103F500075C090F4FCECEF16FCE5FF0609F469C0AF
:103F600046EC56E168ED76E12DECE2162CE5F20622
:103F700038F361E081E037C035EDE3163CE5F30648
:103F800009F45FC008F4AECD9DE5E916F90609F421
:103F9000A9CD73CF8091040480FF20C08E7F8093D1
:103FA00004046091040470910504809106049091CA
:103FB00007040E9417160E9496088091DD03816015
:103FC0008093DD03AFEFB0E7E2E0A150B040E04006
:103FD000E1F700C000000E94570D84CD81608093FE
:103FE000040461E086950E94AC1C7CCD4CEE5CE143
:103FF00066EF7CE1A5CF46EF5CE16CEE7CE1A0CF03
:1040000042EB56E16CEB76E19BCF4CEB56E162EB79
:1040100076E196CF48E956E165EA76E191CF45EA47
:1040200056E168E976E18CCF4BE856E16EE776E140
:1040300087CF48ED56E166EC76E182CF0E94011D04
:1040400051CD61E086E0CFCFFAE5EF16FDE5FF0642
:10405000A9F168F4E1143CE5F306B9F08EEDE81639
:104060008CE5F80609F009CF0E9403170CC09CE507
:10407000E9169DE5F906C1F018F1B7EAEB16BDE5C2
:10408000FB0609F0FACE0E94F8121092ED030E948E
:104090002C10EFEFF4E32CE0E150F0402040E1F78A
:1040A00000C000000E94420880919B0282FB88278A
:1040B00080F991E089270E943615DFCE81E0FBCFA1
:1040C00080E0F9CFC7010E94520BD82EE5CEEF2D2C
:1040D000EF70DE2E8F2D807F19F0D29490EFD922D1
:1040E000CC20B9F0DD2069F080E28E0D883010F030
:1040F000811009C08091ED03D82AD092ED030E946F
:10410000EF0F8E2D4CC080912902D82AD09229021F
:10411000F6CF8E2D0E947013DD2009F442C080E29C
:104120008E0D883010F0811004C08D2D0E94410B3F
:1041300006C0D09480912902D822D09229020E94F0
:10414000EF0F2FC0FF2DFF70DF2E8F2D807F80326D
:1041500019F0D29480EFD822882089F021E08216CD
:1041600009F468C0CC2009F472C0BB2009F468C00F
:10417000F801858180FFC5CF8F70858361C0209154
:104180009B0222FD35C0CC2069F1DD2039F0809101
:10419000ED03D82AD092ED030E94EF0F80E00E9439
:1041A000C613E92DE850FF0B349710F40E94440E1B
:1041B000AA2009F44CCC8091200280FD48CCD80183
:1041C00012961C928595859585950E944C13C80181
:1041D0000E94121D809120028595859585950E94EB
:1041E000231335CC80E00E947013DD20D1F29DCFE7
:1041F000CC2099F090912A02892F8D29B11003C00B
:104200000E946613CECF31E0B312FACF22FFC9CF9E
:10421000981739F280932A02C4CFB11006C00E94C9
:104220003B0B8D2D0E945F13BCCF81E0B81609F4C3
:10423000B8CFF5CFCC2031F095E09B1508F4B1CF85
:104240008D2DDECFA4E0AB1508F4ABCFEACFBB20B9
:1042500041F3F9E38F1204C12FEF37EE83E02150D1
:1042600030408040E1F700C000008E2D0E947013A6
:1042700098CF8F2D837091F5C11093CF4E2D42951D
:1042800046954770440F440F8E2D8F70042E01C049
:10429000880F0A94EAF72E2D2071E4FE07C02FE064
:1042A00030E001C0220F4A95EAF720953F2D369560
:1042B00036953370323069F050F440912B02313032
:1042C00029F0822B84230E9458136BCF842B822BDE
:1042D000FACF282B80912B028227F5CF8695CC2010
:1042E00011F08F2D8170882309F45BCF4E2D4295FC
:1042F00046954770440F440F8E2D8F70042E01C0D9
:10430000880F0A94EAF72E2D2071E4FE07C02FE0F3
:1043100030E001C0220F4A95EAF720953F2D3695EF
:1043200036953370323069F050F4409109043130E1
:1043300029F0822B84230E94101333CF842B822BED
:10434000FACF282B809109048227F5CFBF2DBF70AB
:10435000FB2ECC2029F08B2F0E944C138E2D50CF9A
:104360008E2D0E945F138F2D0E9423131ACF8E2D46
:10437000E2EF8E16B1F1E81570F0F0EF8F16D1F084
:1043800021EF821691F0CC2009F45EC0B110B9CEB5
:104390008F2D8F712AC033EF831651F194EF89125C
:1043A000F2CF80919B0282FD2FC08F2D8F71CC2088
:1043B000D9F21BC0CC2081F0A4E0AB1508F4F1CEFB
:1043C0002F2D2F7181E090E001C0880F2A95EAF728
:1043D000909109048927AFCFB5E0BB1508F4E1CE71
:1043E000EFCF8F2D8F71C110BFCF0E944C13D9CE4C
:1043F00080E0CC2009F49FCF9F2D9F7181E001C008
:10440000880F9A95EAF797CFCC2099F0EF2DEF71AE
:10441000FE2E8E2F0E944C1380919B0282FF07C0BC
:10442000F8E0FF9EC00111248360809320028F2D4D
:10443000DCCF81E00E94301321E02B1508F0B1CED3
:1044400082E00E943013ADCEBB2079F0893341F475
:104450003FEF87EE93E0315080409040E1F703CF8B
:10446000AFE1BEE41197F1F7FECE8F2D8F717CCFB7
:10447000B0E1EB16BFE5FB0609F42CCCE1E1EE164A
:10448000EFE5FE0609F430CCF0920003E092FF0263
:10449000F801808191819093020380930103C70109
:1044A0009A9581159F4108F021CCF701FF27D8018B
:1044B00012968C91E43FF10548F0E93FF10508F4CC
:1044C00017CCE83BBDE5FB0709F486CC882309F44B
:1044D00040CCE15BFD45EA30F10508F03ACCED5601
:1044E000FD4C0C94FA31F0E1EF16FFE5FF0609F4FC
:1044F000F7CB21E1E2162FE5F20631F682E0F1CBAF
:1045000085E0F801DE01119601900D928A95E1F7A0
:10451000D80112962C9189819A8121119CCA0E94FE
:10452000520BF82EA0CA1F93CF93DF938091ED0119
:10453000807F09F049C08091EA01882309F444C0D2
:1045400080911F02D091EE016091E8017091E90124
:10455000A091EB01B091EC01C62FC72316E0D8174C
:1045600099F190E0109711F0CF3F19F40196877000
:10457000F6CF189F9001199F300D1124F901E151D8
:10458000FE4F41814713F2CF40814613EFCF428166
:104590004111ECCF438154814A1B5B0B483C5105D0
:1045A00028F78091ED018F7080618093ED01F90112
:1045B000EC50FE4F80818F708061808388EE91E0A7
:1045C0000E94121D0E94480BDF91CF911F91089508
:1045D000A1E1B0E0EEEEF2E20C949D318C0185E0B9
:1045E000F801DE011D9601900D928A95E1F7F80120
:1045F000E28088EEA82E81E0B82E6091EB017091E8
:10460000EC016115710509F426C19091E801409112
:10461000E901892F84238F3F09F41DC12081318155
:10462000C380D480F090EA01F601E61BF70BFF206F
:1046300009F4DCC08091ED01582F507FE83CF10572
:1046400008F09FC051116BC0FE2C431314C092138D
:1046500012C0E11010C08F7080618093ED01C50120
:104660000E94121D8091ED01F80185838F2D6196C6
:10467000EAE00C94B931C114D10429F0822F8323CC
:104680008F3F09F003C180E0F82FF170DF2E80FF2B
:104690003CC080911F024091EE0156E0841315C08A
:1046A0002D873E878D859E850E94BE15292F2295D8
:1046B0002F702230F0F0243018F59F70F1F0F801DF
:1046C0009581907FD1F4D12C1EC090E0589FF001CD
:1046D000599FF00D1124E151FE4F6181361306C040
:1046E0006081261303C06281E6120FC001968770B5
:1046F000D5CF9F7011F0882331F3805E883018F396
:10470000C8010E94121DFD2CB1CFEE2009F4AECFDE
:104710008091ED0181608093ED01F12CA7CF4313CF
:1047200006C0921304C0F801EE2009F479C0C80154
:104730000E94CB15882309F1EE20F9F08091ED015C
:10474000803270F02091E8013091E90138872F83A1
:104750001986DB86CA868C87CE0107960E94121DB9
:1047600086E0F801A8EEB1E001900D928A95E1F79C
:104770000E949322FF24F39479CFC8010E94121D56
:10478000F9CF51110AC088EE91E00E94121D86E017
:10479000F50111928A95E9F7C0CF43130FC0921328
:1047A0000DC0E1100BC0F8018583C8010E94121DE5
:1047B00086E0F50111928A95E9F758CFC8010E9469
:1047C000CB158823D1F2EE20C1F28091ED01803229
:1047D00038F22091E8013091E9013A8329831B8264
:1047E000DD82CC828E83CE010196B8CFE83CF10504
:1047F000F8F6FE2CEE2009F243131FC092131DC0E1
:104800008091ED0180FD10C0982F907F69F0F80134
:104810008583903F31F0982F907F905F8F70892B28
:104820008583C8010E94121D86E0F801A8EEB1E060
:1048300001900D928A95E1F719CFC8010E94CB151E
:1048400081118ECF8091ED0181608093ED01C801CF
:104850000E94121D0BCFEE2009F48FCFC8010E94D9
:10486000CB15F82E882309F488CF86E0F801A8EE4E
:10487000B1E001900D928A95E1F78091E801909165
:10488000E9010E94BE150E949322F0CE81E08E25A0
:10489000FBCEA7E1B0E0EFE4F4E20C94A4314B8B43
:1048A0005C8B6D8B7E8B8F8B6111109229021A8A23
:1048B000198A85E0FE017396DE011D9601900D9226
:1048C0008A95E1F786E0FE013D96DE01179601909C
:1048D0000D928A95E1F7CE0107960E94E82288237F
:1048E00059F016E080911F029091EE01891345C0A6
:1048F0006796E3E00C94C03186E0FE013796DE0156
:10490000119601900D928A95E1F78A859B85892BF6
:1049100041F38F81988589238F3F19F32091EE0110
:1049200030E0C90101968770992740911F0248170E
:10493000190681F41092ED030E942C101092EE01E2
:1049400010921F0286E0E8EEF1E0DF011D928A95E9
:10495000E9F7C7CF96E0929FD001939FB00D112445
:10496000A151BE4FFE01319601900D929A95E1F74B
:104970008093EE010E94480BB4CF819FC0011124A7
:1049800081519E4F0E94E822882309F4B1CF809183
:104990001F0290E001968770992780931F02A2CF93
:1049A000B0E0A0E0E6EDF4E20C94993135E0C32EDE
:1049B00031E0D32E46E1842E46E0942E00E011E053
:1049C000712CAA24A394B12CD8018D918D010E9441
:1049D000AD0C00C0E401688025E0E22E21E0F22E5B
:1049E000F701D0E0C0E04191A42FA295AF70B0E0F4
:1049F00090968C9195010C2E01C0220F0A94EAF733
:104A000090E04F7002C0959587954A95E2F780FD3A
:104A10008EC0622A2196C430D10529F7F80131975A
:104A200080810E94C10CA0EAAA95F1F7F40180816F
:104A3000861519F0608277247394FFEF8F1A9F0A0E
:104A400021E00530120709F0BFCF01E010E0D701E7
:104A50008D917D010E94AD0C00C0C8010C2E01C0DB
:104A6000880F0A94EAF7782FE6E1F6E090E0A92EA5
:104A700091E0B92E682F6095D5012D915D01822FAF
:104A800082958F7090E0DC0190968C91AF0130811F
:104A900090E02F7002C0959587952A95E2F780FDEA
:104AA00049C0872F832B80833196DA018C91381788
:104AB00011F077247394CA14DB04F1F6F7013197EF
:104AC00080810E94C10CB0EABA95F1F72196C830F6
:104AD000D10509F0BCCFC0919902772071F181E036
:104AE0008093B4010E947A1C9093B3018093B20129
:104AF0008091B2019091B3010E946B1C059708F15F
:104B0000D0E0CE52DD4F45E050E066E176E0CE01E8
:104B10000E941D32892B41F085E0E6E1F6E0DE01DE
:104B200001900D928A95E1F71092B4010AC0209588
:104B3000622270CF862F8323B6CF8091B40181117A
:104B4000D7CF0E941F0E182FE0919902811193C0B8
:104B5000F0E0EE52FD4F85E0AEE2B2E001900D9242
:104B60008A95E1F765E070E08EE292E00E947908B4
:104B700080932D02C0903302D0903402E090350231
:104B8000F09036028091B5019091B601A091B701E5
:104B9000B091B801C816D906EA06FB06D1F0C0925A
:104BA000B501D092B601E092B701F092B8010E942F
:104BB0001F0E81110EC00E945308C61AD70AE80AB8
:104BC000F90AC0929402D0929502E0929602F09275
:104BD000970280913E02882379F180FF0DC0809179
:104BE00037029091040480FF2DC0916090930404DB
:104BF00060E086950E94AC1C80913E0281FF09C056
:104C000020E040913A0260913902809138020E947E
:104C10002A1680913E0282FF06C080913D028823C1
:104C200039F10E94911C80913E0283FF03C081E014
:104C30008093D80310923E02872DCDB7DEB7EEE009
:104C40000C94B5319E7F909304040E949608809145
:104C5000DD0381608093DD03CFEFD0E7E2E0C15058
:104C6000D040E040E1F700C000000E94570DC4CFE3
:104C70000E949608D8CFABE1B6E085E0ED0119922D
:104C80008A95E9F7CE2FD0E0CE52DD4F8091150600
:104C90008A30A8F56DEA78E1CE010E94D60C88230F
:104CA00009F449C062E678E1CE010E94D60C88235F
:104CB00009F441C06CE078E1CE010E94D60C882353
:104CC000D1F11092150681E08093BB01C09198024A
:104CD000D0E0CE52DD4F45E050E06BE176E0CE0112
:104CE0000E941D32892B09F4A7CF85E0EBE1F6E0A5
:104CF000DE0101900D928A95E1F7712E9DCF809192
:104D0000B9019091BA010E946B1C843F914010F64A
:104D10008091BB01882309F48FCF1092BB01E091F1
:104D20009802F0E0EE52FD4F95E0DF011D929A955A
:104D3000E9F7782E81CF809115068F3F31F08F5F94
:104D4000809315068A3008F4BECF0E947A1C909397
:104D5000BA018093B901DCCF1F921FB61F921124B4
:104D60008F939F93AF93BF938091E703811113C0FB
:104D70008091E8039091E903A091EA03B091EB03DD
:104D80004196A11DB11D8093E8039093E903A09380
:104D9000EA03B093EB03BF91AF919F918F911F9066
:104DA0001FBE1F901895CDB7DEB7AE970FB6F8941B
:104DB000DEBF0FBECDBF85B7806885BF85B7806871
:104DC00085BF84B7877F84BF0FB6F894A89580917C
:104DD0006000886180936000109260000FBE80E8E0
:104DE00090E00FB6F89480936100909361000FBE3D
:104DF0008DE599E09093A9018093A8010E94B806DF
:104E00000E9483078091E20084608093E20078949E
:104E10008091FA038823A1F01091E9001F7090910E
:104E2000EC00892F817090FD80E8182B1092E9002A
:104E30008091E80083FD0E9438101F701093E900F4
:104E400082E084BD93E095BD9AEF97BD80936E009C
:104E5000109294021092950210929602109297026C
:104E60000E94FE15811102C00E9426150E942F1972
:104E7000809109010E942F19809105010E94C10CA7
:104E8000809106010E94C10C809107010E94C10C13
:104E9000809108010E94C10C00E011E085E0E82E3D
:104EA00081E0F82ED8018D918D010E94C10CE01691
:104EB000F106C1F78091090195E0811190E090938E
:104EC000990285E0891B809398020E941F0E811130
:104ED00002C00E942230E6E1F6E080E296E0A2ED18
:104EE000B2E011921D928E179F07D9F70E944619C2
:104EF000811102C00E94031782E090E00E943332C9
:104F000080939F0284E090E00E943332182F82E267
:104F100090E00E943332982F812F90939B028093D0
:104F20009A020E94D024EFE3FCE93197F1F700C028
:104F300000000E94D0248091D20280FF08C06FEF51
:104F40007FEF90E080E00E9465320E94420883E09B
:104F500090E00E9433320E9458130E941F0E882353
:104F600009F44DC180E08093CD0280E880930A046B
:104F70000E94D92E6DE070E08AE192E00E942D142B
:104F8000892BE9F58091CD0263E070E081FD39C1A4
:104F900087E192E00E942D14892B89F56DE070E085
:104FA00087E092E00E942D14892B49F50E94530856
:104FB000605A75418F4F9F4F6093DF037093E003FA
:104FC0008093E1039093E203EDE0F4E080E092E06F
:104FD000DF019C011D9221503040E1F7F09314064F
:104FE000E09313068FEF9FEF90930C0480930B04D4
:104FF00081E08093E4038093E3031092CE028091DA
:105000009C02811138C00E944619811104C00E947F
:1050100003170E94EA1688E090E00E943B326093FA
:105020000404709305048093060490930704809110
:10503000DD0383608093DD036E7F71F40E94EA16C6
:1050400088E090E00E943B32609304047093050472
:1050500080930604909307040E949D080E9496087E
:105060008091040480FF04C060E086950E94AC1C1F
:1050700081E080939C020E941F0E811102C00E9459
:1050800022300E94E31A0E941F0E81112EC083E677
:105090009CE0909351018093500126E130E03093E1
:1050A0004C0120934B0186E390E090934F01809355
:1050B0004E0149E459E0509359014093580130930F
:1050C000540120935301909357018093560141EB73
:1050D0005AE1509361014093600130935C01209349
:1050E0005B0190935F0180935E010E9446198823C3
:1050F00089F08FE090E00E943B328B01862F8F7702
:105100000E94981A001F0027001F1370110F102B08
:105110001093F90282E691E09093E6038093E50311
:10512000B0E46B2EEE24E3948091FA0300E112E1E7
:10513000853009F4A7C00E94D02400EA12E087E875
:1051400091E09CA78BA7BC0122ED32E0F801919180
:10515000D9018D919D01DB014D91BD018423AAEA06
:10516000CA2EA2E0DA2ECE16DF0609F497C09817F1
:1051700071F30E941F0E482EE7E8CE2EE1E0DE2EEE
:10518000F2EDAF2EF2E0BF2E912CD501FD905D0126
:10519000F60181916F01F822D8015D908D015F14B5
:1051A00029F15F24812C77247394852D8721B1F018
:1051B0004420A1F08EA29FA291E08F2D872109F4B7
:1051C00090E098A70E947A1C8160782F9AA789A7FF
:1051D0004EA15FA168A58AA50E9449248394770CFB
:1051E000B8E08B12E2CFF8013197F0829394EAE0B5
:1051F0009E12CBCF0E945308FF24F39470C082E02C
:10520000B2CE84E192E0C6CE8091FA03843039F1C7
:105210000E9457140E94470F1092E70348E150E0A4
:105220000FB6F894A895409360000FBE609260009E
:1052300083B7817F846083BF83B7816083BF7894A5
:10524000889583B78E7F83BF0FB6F894A895809119
:105250006000886180936000109260000FBE8091B2
:10526000F903882379F00E94D024A7E8B1E0E2EDA9
:10527000F2E081919D91892309F0A9C452E0EC3DAF
:10528000F507B9F78091FA03853009F4BDCF109284
:10529000ED030E942C100E94440E4DCF981369CF4D
:1052A0000E947A1C8C0180919D0290919E020817A9
:1052B0001907A1F08FEF89A38AA31BA20E947A1C71
:1052C0008160782F9DA38CA349A15AA16BA18DA1C8
:1052D0000E94492410939E0200939D02F12C0E948B
:1052E0001F0E8091DC03882309F463C08091DB03E7
:1052F000E0910404E695E81BE093D703823009F0BF
:1053000075C1F0E0E75DFD4FE4910E2F10E074EF02
:10531000C72E7DE0D72E8091D803882361F01092AC
:10532000D8030E94861C9093D6038093D5031092D5
:10533000DA031092D9030E94861CE091D503F09104
:10534000D6039C012E1B3F0B2F3F3F4790F520912A
:10535000AC022223B1F01092AC022091AA0230914B
:10536000AB02821B930B8F3F9F4758F4205D3A4856
:105370003093AB022093AA028091DD038860809372
:10538000DD03A090D903B090DA030E0F1F1F109316
:10539000D6030093D50385ED93E0F601099580913E
:1053A000D9039091DA03892B21F4AB2811F0E09214
:1053B000AC028091E403882351F18091CF02909157
:1053C000D0020E946B1CC29708F022C120910B04EE
:1053D00030910C042115310509F0CDC18091E30312
:1053E0008823A9F00E9453080091DF031091E00385
:1053F0002091E1033091E203601B710B820B930B50
:105400006F3F7F4F8F4F9F4710F40E945714F1104A
:105410000E9472140E94470F0E94440E9091D10284
:10542000891721F08093D1020E9453088091FA03DA
:10543000843009F473C20E941F0E882309F474CECD
:105440000E9453082091E20221116BC00091DE02FC
:105450001091DF022091E0023091E1026B017C01AA
:10546000C01AD10AE20AF30A97018601043F1140EB
:105470002105310508F455C06093DE027093DF0208
:105480008093E0029093E1028091DC029091DD0232
:1054900001969093DD028093DC0219828E010F5FEA
:1054A0001F4F21E050E040E060E088E00E94B61726
:1054B000811106C08091DC029091DD020A978CF187
:1054C00081E08093E2028093E8029981911101C00A
:1054D00080E08093E9028091E70210E0882329F0C0
:1054E0000E946F0E11E0811112E08091E902882381
:1054F00009F469C30E946F0E811167C382E0182B03
:105500000E94F5156B017C01DC01CB018C7FBC0195
:10551000CD01612BC616D706E806F90611F00E94E8
:1055200008158091E902882309F4FCCD0E945308F4
:105530006B017C018091E3029091E402A091E5026D
:10554000B091E602A7019601281B390B4A0B5B0BB1
:10555000DA01C9010497A105B10580F119821A8207
:105560001B821C828E010F5F1F4F24E050E040E041
:1055700060E089E00E94B6178823C1F069817A81D2
:105580008091EE029091EF020E949A0C9093EF02AC
:105590008093EE026B817C818091F0029091F10208
:1055A0000E949A0C9093F1028093F002C092E30261
:1055B000D092E402E092E502F092E6028091F302DA
:1055C000882309F4AFCD8091F202898310E000E0D6
:1055D00020E0AE014F5F5F4F61E08AE00E94B617A6
:1055E000882309F49FCD1092F3029CCD00ED17E0C3
:1055F00055E9C52E58E0D52E863009F08CCEE7E26D
:10560000F2E0059114916BEBC62E6DE0D62E83CEA1
:105610000E947A1C9093D0028093CF028DE094E098
:1056200090931406809313060E941F0E882309F49A
:105630009DC08FE292E00E94070F809109040E94B2
:10564000BC0B0E94680C0E94870E8DE292E00E94C3
:10565000070F81E00E94150F1091FF0288E792E08A
:105660000E94070F809102030E94680C0E94870E1F
:1056700084E792E00E94070F809101030E94680C6A
:105680000E94870E112309F46BC081E792E00E940B
:10569000070F812F82958F700E94680C0E94870EE1
:1056A000812F0E94680C0E94870E8CEF810F85333A
:1056B00008F056C08DE692E00E94070F212F24507B
:1056C000330BF901E85CFD4F84910E94870E83E95A
:1056D00092E00E94070F809105030E946F0C0E94C8
:1056E00015148091060381950E946F0C0E94151479
:1056F000809108030E946F0C0E941514809107038B
:1057000081950E946F0C0E9415148BE892E00E9414
:10571000070F8091F202811101C085E00E946F0C99
:1057200001960E94151485E892E00E94070F80916F
:10573000F402811119C080E30E94870E81E892E093
:105740000E94070F8091F902811101C084E0805D01
:105750000E94870E8091E403882309F43FCE36CE61
:1057600081E00E94150FB3CF81E3E6CF89E992E093
:105770000E94070FEFCF8091CE0261E070E08111AF
:105780002DCE082F10E02B01082E02C0440C551C12
:105790000A94E2F7A90144215521452B09F448C098
:1057A0009091CD0290FD46C08295880F80768093BF
:1057B00070019801369527953695279520937301AA
:1057C000815E809371011092740124E630E047E01D
:1057D00050E06EE671E088E70E94792F892B09F08E
:1057E000FDCDA80195E0440F551F9A95E1F78091F2
:1057F000CD0280FD2DC0435F5B4F04E610E020E248
:1058000030E060E488E70E949A2F892B09F0E6CD0A
:105810000E947214C2018095909540900B045090A4
:105820000C044822592250920C0440920B04D6CD0D
:105830008F5FA7CF880F880F880F80937001109219
:105840007301895F8093710183E080937401BDCF00
:10585000EDEAF2E080E2DF011D928A95E9F7E3E8E4
:10586000F1E0FEA7EDA70FE711E087E0A82E99244D
:105870009394ADA5BEA52D91BEA7ADA7F80121902B
:105880008F01240E352E311CC101835F9B4F1C01FB
:10589000E22FF0E0E355FD4F30E020E07A2C721A61
:1058A000B92C022E01C0BB0C0A94EAF7610190E00A
:1058B000D6018D916D018B21672D691B6770862E36
:1058C000062E000C770BB82F01C0BB0F8A94EAF7A5
:1058D0008B2E7195619571096770772701C0869548
:1058E0006A95EAF7882A8081882A80829F5F9830AB
:1058F000F9F62F5F3F4F31962830310579F6E7E80A
:10590000F1E0CDA4DEA4EC15FD0509F0B2CF04E66C
:1059100010E020E230E04DEA52E073CF83E0809364
:10592000E9008091E80082FF86CD8091E80090E058
:1059300085FF05C00E94D706882399F091E08091E9
:10594000E8008B778093E800992309F474CDE9810E
:10595000E150E33108F080C0F0E0E356FD4C0C94D8
:10596000FA3100E210E0AE014F5F5F4F6A018091B3
:10597000E80085FD0AC08091E8008B778093E800FD
:105980000E94D706882399F3D9CF8091F100D601E0
:105990008D936D010150110951F7D0CF1A828AE021
:1059A0008B8310C08A818230A1F18330A9F18130CC
:1059B00009F052C00E9453080E9400326B837C831E
:1059C0008D839E838091FA03843009F034CD109149
:1059D000E9001F709091EC00892F817090FD80E8A4
:1059E000182B82E08093E9008091E80080FF0DC0D1
:1059F00050E040E060E270E0CE0101960E940807AE
:105A00008091E8008E778093E8001F701093E90082
:105A100012CD0E94F515D0CF9E012D5F3F4FE2EDD4
:105A2000F2E08191ABA5BCA59D91BCA7ABA7892352
:105A3000D9018D939D01B2E0EC3DFB0791F7C2CFF8
:105A40008A81823049F46B817C818D819E810E94A4
:105A500000320E940815B6CF8FEF8983B3CF4C81F7
:105A60006B818A810E9452159827892798279E83E7
:105A70008D83A8CF2D813E813227232732274C8169
:105A80006B818A810E94AA149DCF0E94D0149ACF64
:105A900080E18A8397CFEA8289E482CFCA80DB8063
:105AA000DC24CD24DC248E010F5F1F4FAC80A00EC0
:105AB000B12EB11CC60189549D4FA016B10609F440
:105AC00081CFE9E4CE16E1E0DE0658F40E943332DD
:105AD000D80114968C93FFEFCF1ADF0A0F5F1F4F88
