:100000000C945C040C9479040C9479040C943B31AA
:100010000C9479040C9479040C9479040C9479046C
:100020000C9479040C9479040C94CE180C948A18CE
:100030000C9469280C9479040C9479040C94790438
:100040000C9479040C9479040C9479040C9479043C
:100050000C9479040C94A7190C9479040C947904E9
:100060000C9479040C9479040C9479040C9479041C
:100070000C9479040C9479040C9479040C9479040C
:100080000C9479040C9479040C9479040C947904FC
:100090000C9479040C9479040C9479040C947904EC
:1000A0000C9479040C9479040C94790405010902E8
:1000B000A10185020901A1000509190129081500FE
:1000C0002501950875018102050109300931158165
:1000D000257F95027508810609381581257F9501D0
:1000E00075088106050C0A38021581257F95017572
:1000F000088106C0C00660FF0961A1010962150000
:1001000026FF009520750881020963150026FF006F
:10011000952075089102C005010906A1010507197E
:10012000E029E71500250195087501810295017503
:100130000881010507190029FF150026FF00950613
:100140007508810005081901290515002501950587
:1001500075019102950175039101C0000000000036
:10016000000000000000000000000000000000008F
:100170000000000000000000000000000000007E01
:100180000F00D4FFFFFFC700000078000000000050
:100190000000002A2B2800000000000000000000E2
:1001A00000000000000029000000002C1E34202167
:1001B0002224342627252E362D3738271E1F2021AE
:1001C00022232425263333362E37381F040506070D
:1001D00008090A0B0C0D0E0F101112131415161727
:1001E00018191A1B1C1D2F3130232D350405060745
:1001F00008090A0B0C0D0E0F101112131415161707
:1002000018191A1B1C1D2F3130354C61626364654F
:10021000666768696A6B6C6D6E6F70717273747506
:10022000767778797A313233343536373839305217
:100230004542545F2D3D5B5D5C233B27602C2E2F98
:1002400000DA0281FFD9F1DB20A4A62EAF00A0C006
:10025000D30000A1C8D30000AED580A81F408D14E4
:1002600020000004643214783C1E000101010101E9
:10027000010101010202020202020202020303035F
:10028000030303030304040404040404050505052F
:1002900005060606060607070707070808080809EF
:1002A0000909090A0A0A0B0B0B0C0C0C0D0D0D0E9B
:1002B0000E0E0F0F0F101011111112121313141430
:1002C000151516161717181819191A1A1B1B1C1DA5
:1002D0001D1E1E1F202021222223242425262627FE
:1002E0002829292A2B2C2D2D2E2F30313232333430
:1002F00035363738393A3B3C3D3E3F404142434436
:1003000045464748494A4C4D4E4F50515354555617
:1003100058595A5B5D5E5F616264656668696B6CC3
:100320006D6F7072737577787A7B7D7E808283853E
:1003300087888A8C8E8F91939596989A9C9EA0A27E
:10034000A3A5A7A9ABADAFB1B3B5B7BABCBEC0C288
:10035000C4C6C9CBCDCFD1D4D6D8DBDDDFE2E4E74C
:10036000E9EBEEF0F3F5F8FAFDFF00AF00AEC2C323
:10037000004CB6B772B100202000BABB004B6579C3
:1003800020B10020C0C100B4B500B2B300BEBF00B0
:10039000484F005654003030200020202020B1BCAF
:1003A000BD0042616C6CB10020200029001E001FBE
:1003B0000020001D001B0006001900210022002B58
:1003C0000014000500E000E300E2001A0008001538
:1003D0000017002C00000000000000E000040016E0
:1003E000000700000000000000000009000A00E50E
:1003F0000000000000000000000000230024002591
:10040000002600100036003700380027002D001CA1
:1004100000180028002C00E600E7000C0012001372
:10042000002A0065000000000000000B000D000E17
:10043000000F000000000000000000330034001135
:10044000000000000000000000000009025B000343
:100450000100A0FA090400000103010100092111B3
:10046000010001224400070581030800010904017D
:1004700000020300000009211101000122220007EF
:10048000058203200001070503032000010904027F
:1004900000010300000009211101000122490007A9
:1004A0000584032000011201000200000008383911
:1004B00036350100010200010E037200650065007F
:1004C000780035003600000012036B0075007300E1
:1004D000680069006D006100380000000403090431
:1004E00000000000000000002F00000000070007CF
:1004F0000000123F123F1200242A7F2A1200360900
:100500001E241B00182629122800000007000000E6
:10051000001E214000000040211E000014083E087B
:10052000140008083E0808000000307000000808A9
:100530000808080000003030000020100C02010004
:100540001E2925231E0000223F20000022312929D8
:100550002600122125251A001814123F1000172515
:10056000252518001E252525180001310905030041
:100570001A2525251A00062929291E0000003333D3
:100580000000000033730000081414222200141429
:100590001414140022221414080002012905020078
:1005A0003E59555D3E003816111638003F25252569
:1005B0001A001E21212112003F2121211E003F256A
:1005C000252521003F09090901001E2121291A00C2
:1005D0003F0404043F0000213F21000010202020A0
:1005E0001F003F040C1221003F20202020003F026A
:1005F00004023F003F020C103F001E2121211E007B
:100600003F09090906001E2129112E003F09091979
:10061000260012252529120001013F0101001F209B
:1006200020201F000718201807000F300C300F0083
:1006300021120C1221000304380403003129252360
:100640002100007F4141000001020C102000004108
:10065000417F00000402010204004040404040008D
:10066000000103040000102A2A2A3C003F24222211
:100670001C001C22222224001C2222243F001C2AAF
:100680002A2A0C0000043E0505000C5252543E007C
:100690003F080404380000003D0000002040403DB9
:1006A00000003F080814220000013F2000003E0225
:1006B0003C023C003E0402023C001C2222221C00A0
:1006C0007E1422221C001C2222147E003E04020200
:1006D0000400242A2A2A120000021F2200001E20E1
:1006E00020103E000618201806000E300C300E00B8
:1006F0002214081422000E5050483E0022322A26AE
:10070000220008087741410000007F0000004141BD
:1007100077080800180408100C0000000000000012
:10072000F8FCFCFC3C3CFCFCFCF80080C0F0F8FC55
:100730007E00000000FCFCFCFC000000000000004B
:100740000000FCFCFCFC0000000000FCFCFCFC00C9
:100750000000000000000000FCFCFCFC00000000A9
:10076000007EFCF8F0E0C080000080C0E0F0F8FC03
:100770007E000000000000000000000000000000FB
:10078000FFFFFFFF0000FFFFFFFF7F1F0F070100BC
:100790000000000000FFFFFFFF000000808080805D
:1007A0000000FFFFFFFF0000000000FFFFFFFF0051
:1007B0000080808080000000FFFFFFFF000000003D
:1007C00000000081C3E7FFFFFFFFFFFFE7C38100D9
:1007D0000000000000000000000000000000000019
:1007E000FFFFFFFF0000010101000000000000000A
:1007F00000000000003F3F3F3F0000003F3F3F3F01
:1008000000003F3F3F3F00000000003F3F3F3F00F0
:10081000003F3F3F3F0000003F3F3F3F00000000E0
:10082000007E3F1F0F07030100000103070F1F3F5A
:100830007E0000000000000000000000000000003A
:100840000010101000000000550000003E635D5DC8
:10085000637F417B77413E00001C22221C003E0A40
:10086000003E0A00322A3C0026281E001C2A2C00CA
:1008700000003F09360000001E212100000000009A
:100880003F0837001E2121001E2121003F090600DC
:10089000213F2100222519001E2121003F09360099
:1008A0003F211E00213F21000F300F003E093E0076
:1008B0003F063F003F20200011241FBECFEFDAE0AB
:1008C000DEBFCDBF11E0A0E0B1E0EEECF7E602C084
:1008D00005900D92A23EB107D9F726E0A2EEB1E055
:1008E00001C01D92AB34B207E1F70E9490280C942E
:1008F00097330C940000482F209132049091F90313
:1009000057E0291302C080E0089530E0529FF001C3
:10091000539FF00D1124E650FC4F8181681306C0EF
:100920008081481303C085818111EECF2F5F3F4F37
:100930002770E7CFE8EDF0E080818E7F8083109212
:10094000E2001092DA001092E100A0EEB0E08C918B
:1009500081608C9380818F77808319BCA7EDB0E094
:100960008C918E7F8C9380818F7E80831092E103A7
:1009700008952091E4003091E50095E6A9012091C9
:10098000EC00822F817020FF06C08091E80080FF7C
:1009900006C080E008952091E80022FD1AC08091F1
:1009A000EF03882389F0853089F08091EB0085FD85
:1009B0000FC02091E4003091E50042175307F9F28F
:1009C0009150E1F684E0089582E0089583E008956F
:1009D00081E008958091F10387FF13C08091E800C2
:1009E00082FF06C08091E8008B778093E80004C006
:1009F0008091EF038111F2CF08958091EF03882356
:100A0000D9F38091E80080FFF8CF8091E8008E77DD
:100A1000ECCF982F9093E900242F762F50E0891780
:100A200031F07091EC002091ED005091F00021FD2B
:100A300007C09F5F973071F78093E90081E00895C8
:100A40003091EB003E7F3093EB003091ED003D7F25
:100A50003093ED003091EB0031603093EB007093F8
:100A6000EC002093ED005093F0002091EE0027FD64
:100A7000E0CF80E00895B0E0A0E0E1E4F5E00C9480
:100A80007532C8EDD0E088818F7E8883E7EDF0E095
:100A900080818160808384E082BF81E08093E10374
:100AA00088818E7F888302EE10E0F8011082109218
:100AB000DA0081EEC82ED12CF601108288818F7762
:100AC000888388818068888388818F7D888319BC2A
:100AD0001092EF031092F0031092EE031092ED03C8
:100AE00090EEE92EF12CF70180818B7F8083888145
:100AF0008160888342E060E080E00E940905F601A1
:100B000080818E7F8083F8018081816080838081F5
:100B100088608083F70180818E7F808388818061F7
:100B20008883CDB7DEB7E8E00C949132FC01809168
:100B3000F7039091F80386179707A0F061157105E8
:100B400029F49091E8009E779093E80090E0611579
:100B5000710551F4911108C08091E80082FF34C002
:100B600080E00895BC01F2CF8091EF038823C1F1AA
:100B70008530C1F18091E80083FD30C08091E800AC
:100B800082FDEACF8091E80080FFE1CF8091F30001
:100B90002091F200382F6115710519F028303105C8
:100BA00058F091E02830310509F090E02091E800FC
:100BB0002E772093E800CBCF81918093F100615094
:100BC00071092F5F3F4FE7CF8091EF03882341F0FA
:100BD000853041F08091E80083FFBECF81E0089529
:100BE00082E0089583E00895089508958091E403D4
:100BF000089587E797E7909301088093000888E1BC
:100C00009AE00FB6F894A895809360000FBE909379
:100C10006000FFCF2FB7F8946091DD037091DE0381
:100C20008091DF039091E0032FBF0895FC01680FCE
:100C3000791F8FEF91E32191822728E030E087FF31
:100C400009C0880F892721503109C9F7E617F7072E
:100C500091F70895880FF7CFFA01811101C0FB01C8
:100C600009950895E3EEF2E0118282818460828327
:100C700008958091A703982F9E7F61F48170826010
:100C80008093A7038091AA03853618F084E68093A9
:100C9000AA0308958831B0F381708661F1CFAF92D5
:100CA000BF92DF92EF92FF920F931F93CF93DF9348
:100CB000082F162FE901E42FF0E0E659FD4F6111EE
:100CC00010C0E4915E2F4E2F4983E8835A83DF9151
:100CD000CF911F910F91FF90EF90DF90BF90AF9059
:100CE0000895E62EF12C4491D42EE42FF0E026E076
:100CF000829FC00111242FEF30E0B9010E945732CA
:100D0000802F90E0880F991F55E5569FD001579F7F
:100D1000B00D11248A1B9B0B982F990F890F590135
:100D2000AE18BF08AE9ED001AF9EB00DBE9EB00DF6
:100D300011245B2F189F80011124012F11275901C5
:100D4000A01AB10AAE9E8001AF9E100DBE9E100D7E
:100D500011245901A81AB108AE9CC001AF9C900D96
:100D6000BE9C900D1124892F9927281B390B2E9F8B
:100D7000C0012F9F900D3E9F900D1124E92F6230EE
:100D80007105A1F050F46115710509F49DCF613032
:100D9000710581F0EB2F512F97CF6430710569F009
:100DA00080F06630710509F48FCFF4CFE42F4B2F1C
:100DB000592F8ACFE42F412F87CFEB2F542F492F64
:100DC00083CF4B2F5D2DE12F7FCF9091830188231F
:100DD00041F09F5F909383011092800110927F01F8
:100DE00008959150F7CFE8E7F1E0828591E08927F7
:100DF000828710861782089580918101811114C025
:100E000080918301811110C08091820181110CC0F9
:100E10009091DC0296959695969581E020917901C6
:100E2000921380E08170089581E0FCCFCF93DF932F
:100E3000E4E8F1E084819581A681B781E9018883A6
:100E40009983AA83BB831582148217821682DF914D
:100E5000CF91089580E0089563E070E08BE492E024
:100E60000E94160690914A02891318C0E0914B0225
:100E7000EC30A4F488E0E802F0011124E65FFE4FB4
:100E80000680F781E02D309749F02EE632E0409160
:100E90004D026EE472E080914C0209950895E4E3FE
:100EA000F2E0808D80933A01818D80934D01089509
:100EB000811522E5920780F5811530E5930708F04A
:100EC000ABC0883E9105A0F4803E910558F4853A68
:100ED000910548F48430910528F48130910511F092
:100EE00090E080E008958D3C9105D0F390650895E1
:100EF000811540E4940708F044C0811550E295073D
:100F000008F0A3C0811561E0960750F320E0392F67
:100F1000A901482BCA010895803872E59707A8F403
:100F2000803622E5920708F05AC0803432E59307F4
:100F300008F03FC0803242E5940730F18F7190E0B5
:100F4000982F8827816F906A0895803C52E5950715
:100F500060F4282F2F71803A924508F456C0822FF2
:100F600090E0982F882790620895803E72E5970759
:100F700008F0B6CF982F882788279F71806F906AD6
:100F800008959F70906A0895282F2695269550E21F
:100F9000259F90011124837041E050E0BA0102C006
:100FA000660F771F8A95E2F7CB01822B932B9D6802
:100FB0000895282F26952695277070E2279F900187
:100FC0001124837041E050E0BA0102C0660F771F20
:100FD0008A95E2F7CB01822B932B9C680895282FEA
:100FE00026952695277070E2279F90011124837023
:100FF00041E050E0BA0102C0660F771F8A95E2F720
:10100000CB01822B932B9A680895822F90E0982F22
:101010008827846F906A08959C0195E036952795FE
:101020009A95E1F72F7030E0322F2227482F4F7129
:1010300050E084FF05C084E0440F551F8A95E1F716
:10104000C901842B952B906908959F718CCF809551
:101050009091E20398239093E203089580913204E3
:101060009091F903981301C008958F5F8770FACFAC
:101070009A3080F5883070F548E0949F90011124F3
:10108000820F932F911D682F677023E096958795A7
:101090002A95E1F7FC01EE0FFF1FE80FF91FEF5F44
:1010A000FD4F50E040E080E0219130E0062E02C08C
:1010B000369527950A94E2F721703327042E01C054
:1010C000220F0A94EAF7822B4F5F5F4F433051059E
:1010D00059F7089580E008959A3098F5883088F59A
:1010E00048E0949F90011124820F932F911D282F87
:1010F000277041E001C0440F2A95EAF723E0969556
:1011000087952A95E1F7FC01EE0FFF1FE80FF91F05
:10111000EF5FFD4F90E080E070E05191DF011197AB
:101120009B01082E02C0369527950A94E2F721709C
:1011300021952527242325272C930196833091057B
:1011400061F708958093AF0308959091AF0321E074
:1011500030E0F90101C0EE0F8A95EAF7D90102C02B
:10116000AA0FBB1F6A95E2F7EA2B01C0220F4A952E
:10117000EAF7892F8E23E81305C0292B822F0E94BE
:10118000A208089520952923F9CF21E030E001C07D
:10119000220F8A95EAF720958091AF0382230E945F
:1011A000A20808959091DC02809589238093DC0247
:1011B000282F277069F4891759F09091AA0292FF9D
:1011C00007C08695869586950E94C5081092DC0218
:1011D000089521E030E001C0220F8A95EAF780915E
:1011E000AF03822B0E94A2080895809330020895D5
:1011F000CF93C82F809192018C1751F00E940A065C
:10120000609393017093940180939501909396015C
:10121000C0939201CF91089580918401F901808358
:101220000895EF92FF920F931F93CF93DF938C015A
:10123000EB01DC01ED91FC91222309F45FC04091A8
:101240009701411101C044E04150550B81E090E00D
:101250007C01042E02C0EE0CFF1C0A94E2F7CF01C1
:10126000B7010E94BC329B01CB01042E02C0880F43
:10127000991F0A94E2F7E81BF90BD8011196FC9329
:10128000EE931296ED91FC91CF01B7010E94BC3212
:10129000CB0102C0880F991F4A95E2F7E81BF90BB2
:1012A000D8011396FC93EE9312972138BFEF3B07BA
:1012B000CCF020383105C4F421952D836138EFEF4F
:1012C0007E07A4F0603871059CF461956C83809171
:1012D0009801882379F0813079F0CDB7DEB7E6E068
:1012E0000C94933221E8E8CF2FE7E6CF61E8EDCF09
:1012F0006FE7EBCF1D82F1CF1C82EFCFE1382FEFEC
:10130000F207BCF0E038F105B4F4E195EA83D801C6
:1013100012968D919C918138BFEF9B0774F08038B5
:1013200091056CF48B83F801118210821382128272
:10133000D4CFE1E8EACFEFE7E8CF81E8F3CF8FE75A
:10134000F1CF8F708A3010F4805D0895895A089526
:10135000382F20E287FF02C031952DE24AE0832F2B
:10136000642F0E94AE32905D9093F90181110BC001
:101370002093F80120E22093F70120E22093F60168
:1013800086EF91E00895642F0E94AE32905D9093B5
:10139000F801832F64E60E94AE32882361F3805DFA
:1013A0008093F701EBCF9C01860F971F37FD07C095
:1013B00077FD04C097FF02C08FEF9FE7089577FF86
:1013C000FDCF97FDFBCF80E090E80895E82FE295F0
:1013D000EF70F0E031A1282F2F7081E090E001C084
:1013E000880F2A95EAF7382B31A392A1809589239B
:1013F00082A30895E82FE295EF70F0E031A1282F45
:101400002F7081E090E001C0880F2A95EAF7982FAD
:101410009095932391A392A1892B82A30895B0E084
:10142000A0E0E5E1FAE00C9475327C016B0180915B
:101430003E0601E010E08A3010F40AE010E0C1E05E
:10144000D0E064E476E0C701F6010995811104C09B
:1014500021960C171D072CF4CDB7DEB7E8E00C94ED
:101460009132CC9F9001CD9F300D300D112490E032
:1014700080E045E34A95F1F7000001968217930753
:10148000C1F7DFCF0F931F93CF93DF938B01EA0157
:101490009091EF03943061F58093E9008FEF909184
:1014A000E800815095FD06C095ED9A95F1F7000092
:1014B0008111F5CF8091E80085FF1AC00E94B90420
:1014C000811111C08091E80085FD06C08091E8007F
:1014D0008E778093E800F2CFF80181918F0180939D
:1014E000F100219779F78091E8008E778093E800EA
:1014F000DF91CF911F910F91089546E050E0BC011C
:1015000084E00E94420A0895CF93DF93EC0148E003
:1015100050E0BC0181E00E94420A88E0FE01A5EE95
:10152000B3E001900D928A95E1F7DF91CF91089594
:10153000609174018091A70380FF20C080917301A6
:1015400043E0849FC00111248A519D4F539A2BB1CF
:10155000277F3BB138605FB7F894FC01649FE00DD2
:10156000F11D1124BF0168177907D1F45FBF8FE522
:1015700094E00197F1F700C0000008958091750193
:101580009091760123E0829FF0011124EA51FD4FF2
:101590008917A0F61182108212828F5F3396F8CFDE
:1015A000FC014191CF01E8E03BB9000000C047FFDA
:1015B0002BB9440F000000C000C000C02BB900C010
:1015C000EA9591F7D0CFEF92FF921F93CF93DF93DD
:1015D000EC0110E0EE24EA94F12C609177011617EB
:1015E00070F00E94980A9A818C8190FF2AC08F5FC8
:1015F0008C83DF91CF911F91FF90EF900895209100
:101600007501422F410F5527551FCA019A01220F1C
:10161000331F280F391F2A513D4F4091AA034536E9
:1016200008F044E670E0C7010E94BC32962F8C811E
:101630006091A903199F800D11240E944F061F5F1E
:10164000CCCF8150D5CF9091A70390FF0EC0909141
:1016500075012091760133E0939FF0011124EA5146
:10166000FD4F921718F00E94980A089581836083B5
:1016700042839F5F3396F5CFA3E0B0E0E2E4FBE066
:101680000C9479328C018091A60381110AC09E01CD
:101690002F5F3F4F44E66FEF0E944F068A81809391
:1016A000A603F8016481613069F08091A60340E0EF
:1016B000662361F040E0623011F44091A60380E0BF
:1016C00060E004C06091A60340E080E00E94230B2C
:1016D000F801848190E0019663E070E00E94BC32E2
:1016E00084832396E4E00C949532A3E0B0E0EBE72A
:1016F000FBE00C9479328C018091A70380FF13C02A
:101700004091AA03453608F044E69E012F5F3F4F03
:101710006091A903F80184810E944F064B81698181
:101720008A810E94230BF80184818F5F8483239632
:10173000E4E00C949532E7EAF3E080818E7F8083C9
:101740000E943206E3EEF2E08281816082830E9491
:10175000980A089580913302811119C088EC90E0B5
:101760002091E30027FD10C0EFE3FCE93197F1F78A
:1017700000C000000197A1F782E0809333020E942D
:101780009A041092EF0303C081E08093330281E05A
:1017900090913302913011F080E0089508950E94F5
:1017A000AA0B882359F0E091DA03F091DB0330971C
:1017B00029F00190F081E02D0995089580E00895C9
:1017C0000F931F930E94AA0B882329F00E940A06F8
:1017D0001F910F9108950E940A060091A302109193
:1017E000A4022091A5023091A602600F711F821FF2
:1017F000931FEECF26982E9A249A2C9885E08A95EE
:10180000F1F7000083B124982C9A90EA9A95F1F7A9
:1018100090E026E0959587952A95E1F7809590953B
:1018200081700895E1E8F1E083E0DF011D928A957F
:10183000E9F7EDE7F1E084E0DF011D928A95E9F731
:10184000089520917A0130917B012817390731F0F2
:1018500090937B0180937A010E94120C08959091DD
:101860007801981721F0809378010E94120C089556
:10187000CF939091D7028091D002981323C080918A
:10188000D802882321F09091D10289131BC0809146
:10189000D902882321F09091D202891313C080913C
:1018A000DB02882321F09091D40289130BC0909120
:1018B000DA02992329F081E02091D302291303C091
:1018C00080E001C081E0C82FC17080FF0FC0E091AF
:1018D000DA03F091DB03309749F082E08093D6027F
:1018E0000480F581E02D86ED92E009959091D70274
:1018F00086E0E6EDF2E0DF01282F1D922A95E9F758
:101900009093D702AFECB2E001900D928A95E1F787
:1019100081E0C11103C0911101C080E08170CF91BD
:1019200008952FE2280F283078F481E090E001C07C
:10193000880F2A95EAF72091D702662331F0822B8F
:101940008093D7020E94380C089580958223F8CFA7
:10195000CF93DF93282F81E02A3019F02D3031F416
:1019600080E00E943C0DDF91CF91089580913C066C
:1019700090913D0636E0FC01A6E3B6E001900D92A1
:101980003A95E1F730EE320F343A08F458C026E0C9
:10199000FC0111922A95E9F7C0913C06D0913D06D1
:1019A00046E050E0BE0186E396E00E9429339E01A6
:1019B00026533440892B41F1C90145E0969587951E
:1019C0004A95E1F741E050E0BA0102C0660F771F87
:1019D0008A95E2F7CB016091340470913504862B2F
:1019E000972BB9016B5F7F4FE5E076956795EA9598
:1019F000E1F702C0440F551F6A95E2F7842B952B3F
:101A000090933504809334042A5F3F4F4091330410
:101A1000642F70E0C9010E945732481B463010F411
:101A2000240F311D211572E0370710F030E020E05F
:101A30002A5C3B4F30933D0620933C0694CF2052C6
:101A4000330B46E0429FB001439F700D112460525A
:101A50007B4F46E050E00E9413339ECFCF93DF933D
:101A6000EC01FE018491811103C0DF91CF910895B3
:101A70000E94A80C2196F5CFCF93382FE0913C0619
:101A8000F0913D06E653F44020913304622F70E05C
:101A9000CF010E945732281B822F332361F066E06A
:101AA0000E94A232C82FC15010F4CF91089580E255
:101AB0000E94A80CF8CF9F01280F311D211532403C
:101AC00018F080E0F0E0E0E08E0F9F2F911D8A5C1F
:101AD0009B4F90933D0680933C06E7CF8091E203B5
:101AE00090912F02892B8093E40190912E029923EB
:101AF00091F0892B8093E40120E086EE91E0FC01D7
:101B00003191CF0131112F5FF1E08C3E9F07B9F782
:101B1000211110922E0248E050E066E272E084EE5D
:101B200091E00E942933892BA9F088E0E4EEF1E0EE
:101B3000A6E2B2E001900D928A95E1F7E091DA0316
:101B4000F091DB03309731F00280F381E02D84EED9
:101B500091E009950895E6EEF1E086E0DF011D923F
:101B60008A95E9F710922F020E946E0D0895AAE25D
:101B7000B0E0EDEBFDE00C947A3281EF93E0209140
:101B8000F100DC012D93CD01B3E0893F9B07B9F74C
:101B90008091F203833009F472C0B8F4813009F403
:101BA00049C0823009F4B5C08091E80083FF8DC23E
:101BB0008091F1039091F2039A3008F086C2E92FE8
:101BC000F0E0E756FC4C0C94D0328A3009F490C017
:101BD0008B3009F471C0893039F78091F10381327B
:101BE00019F78091F5039091F603009711F0029791
:101BF000D9F68091E800877F8093E8008091E80023
:101C000082FF38C09091F3008091F200029731F486
:101C10008091F100813011F0863021F48091F10043
:101C20008093E4038091E8008B778093E8000E9422
:101C3000EA04BACF8091F103813A09F0B5CF8091DF
:101C4000E800877F8093E8008091F5039091F60388
:101C5000892B61F468E085EE93E070E00E949605C0
:101C60008091E8008B778093E8009ECF60E090E061
:101C700080E0F3CF8091EF038111C0CF95CF8091A9
:101C8000F103813A09F090CF8091F5039091F6032A
:101C9000892B09F089CF8091E800877F8093E80045
:101CA0008091E80080FFFCCF8091B1018093F1002A
:101CB0008091E8008E77B9CF8091F103813209F0ED
:101CC00073CF8091F5039091F603892B09F06CCFC7
:101CD0008091E800877F8093E8000E94EA04809169
:101CE000F3038093B1011092E2030E94AB0D5CCF2D
:101CF0008091F103813209F057CF8091E800877F0E
:101D00008093E8000E94EA048091F4038093E30347
:101D10004BCF8091F103813A09F046CF8091E800E2
:101D2000877F8093E8008091E80080FFFCCF80915E
:101D3000E303BCCF803899F0823809F0C6C18091A6
:101D4000F5038F70873008F0C0C18093E90080915F
:101D5000EB0085FB882780F91092E90006C080918E
:101D6000ED039091EE03911182609091E800977FCE
:101D70009093E8008093F1001092F1008091E800C8
:101D80008E779FC1882309F48DC1823009F09DC1EF
:101D90008091F303811190C18091F5038F702FEF33
:101DA000280F263008F091C18093E9002091EB00C4
:101DB00020FF82C1933031F48091EB0080628093E8
:101DC000EB007AC19091EB0090619093EB0021E0E1
:101DD00030E001C0220F8A95EAF72093EA001092C2
:101DE000EA008091EB008860EACF81116EC110910A
:101DF000F3031F778091E3008078812B8093E300C9
:101E00008091E800877F8093E8000E94EA04809137
:101E1000E80080FFFCCF8091E30080688093E300BE
:101E200082E0111183E08093EF034FC1805882302C
:101E300008F04BC12091F3033091F4032C3DE3E013
:101E40003E07A1F583E08A838AE289834FB7F8943D
:101E5000DE01139620E03EE051E2E32FF0E05093E4
:101E60005700E49120FF03C0E295EF703F5FEF70F1
:101E70008E2F90E0EA30C0F0C7968D939D932F5F30
:101E8000243159F74FBF8091E800877F8093E800A5
:101E90006AE270E0CE0101960E9496058091E8000A
:101EA0008B778093E80011C1C096E7CF8091F5034E
:101EB0009091F603432F55274330510509F44AC04A
:101EC00078F54130510509F47AC08BE590E0EBE4F8
:101ED000F4E04230510509F0F8C02091E800277F76
:101EE0002093E8002091F7033091F80382179307BD
:101EF00008F49C0140E02115310509F065C041114D
:101F000063C08091E80082FDC9CF8091EF038823F0
:101F100029F2853019F28091E80083FFF2CFBECF1D
:101F20004132510509F43CC04232510509F0CDC09F
:101F30008330910508F0C9C0FC01EE0FFF1FEA5283
:101F4000FE4F0190F081E02D8D529E4FDC018C916F
:101F500090E01AC0332721303105D1F02115310529
:101F600061F02230310509F0B0C0E8EBF4E0E49113
:101F70008E2F90E0E8EBF4E007C0ECEDF4E0E491A4
:101F80008E2F90E0ECEDF4E0009709F49EC0A5CF11
:101F9000E8ECF4E0E4918E2F90E0E8ECF4E0F4CF8C
:101FA0008330910508F091C0880F991FFC01E4521D
:101FB000FE4F0190F081E02D89E090E08ECF82E12C
:101FC00090E0E6EAF4E089CF8091EF03882309F4FA
:101FD00065CF853009F462CF8091E80083FD5ECF44
:101FE0008091E80082FD8DCF8091E80080FF83CF53
:101FF0009091F3008091F2002115310519F088309D
:10200000910550F041E0089709F040E08091E80028
:102010008E778093E8006FCF44914093F100319622
:10202000215031090196E8CF803809F04EC08091E7
:10203000E800877F8093E8008091F0038093F100AF
:102040009DCE811142C01091F3031230F0F58091C2
:10205000E800877F8093E8001093F0030E94EA0471
:10206000112311F084E005C08091E30087FDFACFD1
:1020700081E08093EF0342E061EC81E00E9409057A
:1020800042E261EC84E00E94090542E261EC82E0F8
:102090000E94090542E260EC83E00E9409058091FC
:1020A000EF0313C08091F303813079F481E0933022
:1020B00009F080E08093EE031092E9008091E8003F
:1020C000877F8093E8000E94EA048091E80083FF04
:1020D0000AC08091E800877F8093E8008091EB0040
:1020E00080628093EB00AA96E3E00C949632109203
:1020F000E2030E94AB0D2FEF84E39CE0215080406F
:102100009040E1F700C0000088E19AE00FB6F89433
:10211000A895809360000FBE90936000FFCF882346
:1021200021F00E9427080E946E0D0895882339F03F
:102130009091E203982B9093E2030E946E0D089514
:10214000882349F19CEF980F913A80F4E6EEF1E094
:102150002CEE31E09191891303C0DF0111971C929D
:102160002E173F07B9F70E946E0D089590E2980F61
:10217000983050F4877091E001C0990F8A95EAF782
:10218000892F0E942708EFCF93E3980F933118F41B
:1021900060E00E94910C08950F931F93CF93C82F76
:1021A000882341F18CEF8C0F813AB0F506EE11E0F7
:1021B0008CEE91E0F8012191C21701F18E179F0773
:1021C000D1F7EFEF80E0D8019D918D01C91781F023
:1021D000EF3F19F4911101C0E82F8F5F863099F716
:1021E000EF3F31F00E2E000CFF0BEC51FE4FC2837F
:1021F0000E946E0DCF911F910F910895E6EEF1E0D0
:102200002191C21303C0DF0111971C928E179F0703
:10221000B9F70E946E0DD5CF80E28C0F883068F43C
:10222000C77021E030E001C0220FCA95EAF7809123
:10223000E203822B8093E203DBCF83E38C0F8331B5
:10224000C8F661E08C2F0E94910CD4CF1F93CF93DE
:10225000DF93182FEB010E94CC108FE99FE00197CC
:10226000F1F700C000002197C1F7812F0E94A01054
:10227000DF91CF911F9108950F931F93CF93DF9319
:10228000EC01FC0101900020E9F78F0101501109D8
:10229000C017D10728F0DF91CF911F910F910895BA
:1022A00089910E94A80CF4CFCF93DF93C9EBD2E0C1
:1022B00060E0CE010E9463332196C11584E0D80707
:1022C000B9F7DF91CF9108951F93CF93DF93122F2A
:1022D0008430E0F46A30D0F44830C0F490E1699F73
:1022E000E001112450E0440F551FC40FD51F90EAA0
:1022F000899FC00DD11D1124632FCE01C9960E9464
:102300006333612FCE01CA960E946333DF91CF9170
:102310001F910895EF92FF920F931F93CF93DF9336
:10232000C0E08BEAE82E83E0F82ED0E01CC0402FFE
:1023300021E030E0C11108C0F801EE0FFF1FEE0DE3
:10234000FF1D859194919C016D2F8C2F0E9464112B
:102350000F5F1F4F0830110551F7DF5F80E1E80E76
:10236000F11CDA3019F010E000E0E1CFCF5FC430AB
:10237000C1F6CDB7DEB7E6E00C94933288E390E087
:102380000E9463330895CF93C82F6FEF811163E2EA
:1023900085E390E00E9463336FEFC11161E086E353
:1023A00090E00E9463336FEFC11166E187E390E034
:1023B0000E946333CF91089580E00E94C31160E0D2
:1023C00070E0CB010E94BE110E948A110E9454113C
:1023D00081E00E94C31108950F931F93CF93DF9361
:1023E000843030F56A3020F5483010F520E1629FE6
:1023F0008001112450E0440F551F040F151F30EACF
:10240000839F000D111D1124C801C9960E943F33FE
:10241000C82FD0E0DC2FCC27C801CA960E943F33DA
:102420009E01282BC901DF91CF911F910F91089533
:1024300090E080E0F8CF462F7A3040F4683030F4F6
:10244000843020F4672F0E94EC11089590E080E022
:102450000895CF92DF92FF920F931F93CF93DF9354
:102460006C010091AF0380913002082BC3E0D0E0F3
:1024700010E0FC2EC8010C2E02C0959587950A9499
:10248000E2F780FD0CC02197A0F7F12C8F2DDF9192
:10249000CF911F910F91FF90DF90CF900895B601DB
:1024A0008C2F0E941B120E945807019761F3EECFF8
:1024B000CF93DF93EC010E942912BE010E941B12F0
:1024C0000E945807DF91CF910895FC0124812223B7
:1024D000C1F0808191810E94581292959F70963030
:1024E00091F058F4925F9F70923058F4803F19F049
:1024F00030F4883E30F481E008959A5FF4CF843F51
:10250000D1F380E00895883EB0F3813FD1F7F3CF57
:10251000A6E0B0E0EEE8F2E10C947A3249835A8307
:1025200049815A819923A1F0222391F0CA010E9486
:102530002912182F682F89819A810E946C0869815D
:102540007A81812F0E941B122696E3E00C9496322A
:10255000CA010E943808182FF2CF88E390E00E9449
:102560003F33682F70E090E080E0089585E390E0CD
:102570000E943F33833289F486E390E00E943F3328
:10258000813059F487E390E00E943F3391E0863137
:1025900009F090E0892F8170089580E0FCCFB0E0D1
:1025A000A0E0E5EDF2E10C9475326C017B0164E68C
:1025B00070E088E70E94B52F8C01E601EC0CFD1C51
:1025C00017FD0BC0FE01849164E670E00E9421308B
:1025D0008C012196CE15DF0599F70E94973081E096
:1025E0000115110509F080E0CDB7DEB7E8E00C94E5
:1025F00091328091D6039091D903911103C091E05B
:1026000089270895882369F062E070E08CE693E002
:102610000E94CF12811103C08091D60308951092B9
:10262000D6038091D603EBCFCF93C091D603809190
:10263000D9038823D1F00E940A06605A75418F4F52
:102640009F4F6093D2037093D3038093D4039093EE
:10265000D503C11108C062E070E08AE693E00E94F1
:10266000CF12811105C0C091D6038C2FCF91089550
:1026700081E08093D603F7CFB0E0A0E0E2E4F3E19D
:102680000C94713249015A016B017C010E94390698
:102690008401A4016A2D7B2D88E090E00E947533AF
:1026A00094014A2D5B2DB601C70100E20E94F83269
:1026B000622F84E290E00E946333CDB7DEB7ECE096
:1026C0000C948D32A3E0B0E0E8E6F3E10C947732AD
:1026D000182FF62E042FE22E8091A70380FF43C00F
:1026E0009091A803911308C02091A903261304C058
:1026F0002091AA03241729F02091E502226020935B
:10270000E502E82FE695F0E0E154FE4F20812093AA
:10271000E3028E7F823059F5402F053608F044E6FB
:102720009E012F5F3F4F6F2D812F0E944F064B81DF
:1027300069818A810E94230B1093A803F092A90358
:102740000093AA03EE2079F02091A7036091AB03D8
:102750007091AC03312F4F2D502F8091AD0390918C
:10276000AE030E943C132396E6E00C949332223091
:1027700011F0253009F7192FDFCFE7EAF3E04381A5
:102780002AE0421B08F440E021E0628181810E943E
:1027900062130895E7EAF3E043812AE0420F08F468
:1027A0004FEF21E0628181810E9462130895E7EA80
:1027B000F3E0628121E1621B08F460E021E04381E3
:1027C00081810E9462130895E7EAF3E0628121E1CA
:1027D000620F08F46FEF21E0438181810E94621350
:1027E0000895E7EAF3E0818121E04381628181512C
:1027F0000E9462130895E7EAF3E0818121E04381BA
:1028000062818F5E0E94621308958091AB038823DA
:1028100019F081508093AB032091A7033091A80356
:102820004091A9035091AA036091AB037091AC034E
:102830008091AD039091AE030E943C130895809166
:10284000AB03833018F48F5F8093AB032091A70311
:102850003091A8034091A9035091AA036091AB0362
:102860007091AC038091AD039091AE030E943C1334
:102870000895E7EAF3E083E0808311828FEF82839B
:1028800084E683831482A3EEB2E012968C911297B1
:10289000836012968C93758123E030E04FEF54E60D
:1028A00060E0868197810E943C1308959091AA026E
:1028B00092FB222720F9281779F080FB92F9909358
:1028C000AA026091A9027091AA0284E090E00E949D
:1028D000813382E00E94D208089590E080E00E9457
:1028E0004D33863E9E4F19F40E94B612089580E043
:1028F0000895B0E0A0E0EFE7F4E10C9476327901BE
:10290000C82F880FDD0B41155105A9F0FE0193E09A
:10291000EE0FFF1F9A95E1F7E65FFE4F81819281EE
:102920008C5C9D4F208130E04217530708F49A01D8
:10293000A9010E943633CE010E94E131D82E8823AE
:10294000D1F001151105B9F083E0CC0FDD1F8A9598
:10295000E1F7FE01E65FFE4F438150E004171507E3
:1029600008F4A801C65FDE4F6C817D816C5C7D4FF1
:10297000C7010E9436338D2DCDB7DEB7E7E00C944A
:102980009232A5E0B0E0E7ECF4E10C9473328D8371
:10299000E62E5A01F22E680180913E068A3028F018
:1029A00080E02596EAE00C948F328D818930C4F363
:1029B0001A8219828A836B832C8363E070E0CE01D4
:1029C00002960E9416068983E0923A01F0924D0128
:1029D00010E000E030E020E044E050E0BE016F5F36
:1029E0007F4F85E00E9479148823D1F24E2D50E06C
:1029F00030E020E0B50186E00E947914882381F25E
:102A000030E020E041E050E0BE016B5F7F4F87E0A7
:102A10000E947914882321F20F2D10E0960150E0D6
:102A200040E070E060E088E00E947914BACFA4E052
:102A3000B0E0EDE1F5E10C947932409197025091CC
:102A400098026091990270919A022FB7F894809140
:102A5000DD039091DE03A091DF03B091E0032FBF6F
:102A6000841B950BA60BB70B11E084369105A105CD
:102A7000B10518F10E94E00B6E5F7F4F8F4F9F4FA3
:102A800069837A838B839C8310E000E030E020E050
:102A900044E050E0BE016F5F7F4F82E00E947914F6
:102AA000182F882351F00E940A06609397027093B2
:102AB00098028093990290939A02812F2496E4E0E1
:102AC0000C949532A6E0B0E0E8E6F5E10C9477329C
:102AD0007B0101E010E09E012A5F3F4F50E040E0A3
:102AE00070E060E080E00E947914182F882309F4D8
:102AF00053C040919302509194026091950270915D
:102B000096022FB7F8948091DD039091DE03A09197
:102B1000DF03B091E0032FBF841B950BA60BB70B0F
:102B200084369105A105B10548F465E070E085E3C0
:102B300092E00E9416069E81891771F105E010E06F
:102B40009E012F5F3F4F50E040E070E060E081E089
:102B50000E947914082F65E070E085E392E00E94FE
:102B6000160611E09E81981310E0102301F10E94D7
:102B70000A06609393027093940280939502909357
:102B8000960285E0FE013196AEE8B2E001900D922A
:102B90008A95E1F711E00BC085E0E5E3F2E0DE01A4
:102BA000119601900D928A95E1F71111EACF85E017
:102BB000EEE8F2E0D70101900D928A95E1F7812FBE
:102BC0002696E6E00C9493328F929F92AF92BF923A
:102BD000EF92FF920F931F93CF937B01942FB90134
:102BE000A801F70180809180A280B380EFB7F894AC
:102BF0000091DD031091DE032091DF033091E003AB
:102C0000EFBF081919092A093B09043611052105E6
:102C1000310518F4C1E0992381F010E000E030E0C4
:102C200020E00E947914C82F882339F00E940A06F8
:102C3000F70160837183828393838C2FCF911F91DF
:102C40000F91FF90EF90BF90AF909F908F9008955D
:102C5000A1E0B0E0EEE2F6E10C9479328091D60387
:102C600089832091490290E041E02817190609F470
:102C700040E001E010E09E012F5F3F4F6FE972E0FE
:102C800084E00E94E4152196E4E00C949532ABE0D8
:102C9000B0E0EDE4F6E10C94793288E0E7EAF3E0A5
:102CA000DE01119601900D928A95E1F78091E30281
:102CB0009091E402A091E50289879A87AB8741E071
:102CC0008B85811101C040E00BE010E09E012F5F79
:102CD0003F4F6BE972E083E00E94E415811110928E
:102CE000E5022B96E4E00C9495320E94FA0B809357
:102CF000090180910901882359F01092730180E243
:102D0000809374010E94AA0B81110E94F5300895EE
:102D100080E280937301F4CFA8E0B0E0E2E9F6E14D
:102D20000C947B3266EE7EEF90E080E00E9481336F
:102D300060E082E090E00E94633360E083E090E036
:102D40000E9463331092300260E074E184E090E00E
:102D50000E94813360E086E090E00E9463336FEF71
:102D600087E090E00E94633340E050E0BA0188E0E1
:102D700090E00E94753360E084E290E00E9463334B
:102D800060E087E190E00E94633360E08CE090E0D7
:102D90000E94633360E08DE090E00E94633319820B
:102DA0001A821B821C821D821E821F82188648E0A6
:102DB00050E068E170E0CE0101960E94533340E09C
:102DC00050E0BA0180E290E00E94753380E00E94FA
:102DD000C3110E94DC1140E050E0BA018FE090E0A6
:102DE0000E94753340E050E0BA0183E190E00E9418
:102DF00075332896E2E00C94973228E030E043E007
:102E000060E087EF0E94DD2E0895CF93DF93D82FE7
:102E1000C62F0E94FD168D2F80680E94552F8C2F83
:102E20000E94552F8AEB8A95F1F700C00E94852FEA
:102E300083E492E00197F1F700C00000DF91CF91A9
:102E40000895682F843208F063E26093900191E066
:102E50009093910190918401992339F061508111EF
:102E600001C064E08FE00E9405170895FB01808196
:102E70000E942117089590919001911101C095E051
:102E8000282F880F330BA901490F511DCA011816AD
:102E9000190614F081E090E00E9421170895ACE03B
:102EA000B0E0E5E5F7E10C9475324F835887698708
:102EB0007A878B879C8780918401882309F446C098
:102EC0008091FB01811107C060E080E50E94051739
:102ED00081E08093FB010E94FD1680E50E94552F42
:102EE0008AEB8A95F1F700C00E946D2F0E946D2F2A
:102EF0000E946D2F7C010E946D2F20E0E22AF82AAB
:102F00000E946D2F8C010E946D2F20E0022B182B48
:102F10000E94852F85E08A95F1F70000F894B701AB
:102F200080918801909189010E94D3099093890131
:102F300080938801B80180918A0190918B010E9451
:102F4000D30990938B0180938A0178940E94AA0BF5
:102F5000882309F468C00E940A060091FC011091C0
:102F6000FD012091FE013091FF016B017C01C01A2F
:102F7000D10AE20AF30A97018601083011052105FA
:102F8000310508F450C06093FC017093FD018093FB
:102F9000FE019093FF010091930110919401209103
:102FA000950130919601601B710B820B930B62337C
:102FB00071058105910580F41092890110928801B4
:102FC00010928B0110928A0110928D0110928C0147
:102FD00010928F0110928E01109192010E94FA0BB3
:102FE000212F482FBE01695F7F4F88E891E00E9442
:102FF0001109109192018091840118270E94FA0B07
:1030000041E04827212FBE01695F7F4F8CE891E0A6
:103010000E94110986E0FE013796ADE9B1E001900A
:103020000D928A95E1F786E0FE013796DE01119652
:1030300001900D928A95E1F729813A814B815C815B
:103040006D817E8180E090E02C96E8E00C949132D6
:10305000CF93C82F0E94FD168C2F0E94552F8FE70B
:1030600092E00197F1F700C000000E946D2FC82F79
:1030700095E09A95F1F700000E94852F85E68A95E4
:10308000F1F700001092FB018C2FCF910895CF93A0
:10309000DF930E94D52E879A0E94FD166AE58AE387
:1030A0000E9405172FEF80E792E02150804090406A
:1030B000E1F700C0000082E00E94281883E00E942F
:1030C000281884E00E94281885E00E94281886E0CD
:1030D0000E94281860E080E10E94051780E00E94AD
:1030E0002818D82F81E00E942818C82F0E94852F09
:1030F000D23419F481E0C13009F080E0817080930E
:103100008401882321F064E08FE00E940517DF919D
:10311000CF9108951F920F920FB60F9211242F9303
:103120003F934F935F936F937F938F939F93AF934F
:10313000BF93CF93DF93EF93FF93D091E900DF70BC
:103140008091EC00C82FC17080FDC0E81092E900AA
:103150008091F000877F8093F00078940E94B70DF3
:103160001092E9008091F00088608093F000CD2BF0
:10317000CF70C093E900FF91EF91DF91CF91BF91A4
:10318000AF919F918F917F916F915F914F913F91FF
:103190002F910F900FBE0F901F9018951F920F92B6
:1031A0000FB60F9211242F933F934F935F936F931A
:1031B0007F938F939F93AF93BF93EF93FF938091F0
:1031C000E10082FF09C08091E20082FF05C080918A
:1031D000E1008B7F8093E1008091DA0080FF24C0C2
:1031E0008091D80080FF20C08091DA008E7F80938C
:1031F000DA008091D90080FF9DC080E189BD82E125
:1032000089BD09B400FEFDCF81E08093EF0380917A
:10321000E103811109C00E949A040E943B0580913C
:10322000E20084608093E2008091E10080FF17C09B
:103230008091E20080FF13C08091E2008E7F809336
:10324000E2008091E20080618093E2008091D800EA
:1032500080628093D80019BC85E08093EF03809151
:10326000E10084FF2BC08091E20084FF27C080E151
:1032700089BD82E189BD89B5982F917080FFFBCF10
:103280008091D8008F7D8093D8008091E1008F7E5F
:103290008093E1008091E2008F7E8093E200809134
:1032A000E20081608093E2008091F003882309F4BA
:1032B00047C084E08093EF038091EF038091E100A9
:1032C00083FF27C08091E20083FF23C08091E1004B
:1032D000877F8093E10082E08093EF031092F003F8
:1032E0008091E1008E7F8093E1008091E2008E7FEB
:1032F0008093E2008091E20080618093E20042E0EE
:1033000060E080E00E9409058091F0008860809371
:10331000F000FF91EF91BF91AF919F918F917F91BD
:103320006F915F914F913F912F910F900FBE0F9032
:103330001F90189519BC1092EF031092E10374CFFF
:103340008091E30087FD93E09093EF03B5CF7894ED
:103350001F921FB61F9211248F939F93AF93BF9319
:103360008091DD039091DE03A091DF03B091E00333
:103370000196A11DB11D8093DD039093DE03A09300
:10338000DF03B093E003BF91AF919F918F911F90A6
:103390001FBE1F9018959C014FB7F8948091DD03D4
:1033A0009091DE03A091DF03B091E0034FBF821B39
:1033B000930B08952FB7F8948091DD039091DE036D
:1033C000A091DF03B091E0032FBF08952F923F92A9
:1033D0005F926F927F928F929F92AF92BF92CF92A5
:1033E000DF92EF92FF920F931F93CF93DF93809121
:1033F000D903882309F403C18091D7039091D8039E
:103400000E94CB19C29708F4DAC00E94DA1990938F
:10341000D8038093D70386E394E090933D0680938E
:103420003C060E94AA0B882309F401C181E793E0BE
:103430000E942E0DC1E0D0E08091AF03882309F4F3
:10344000A0C090E00C2E02C0959587950A94E2F7F3
:1034500080FF97C08C2F0E94A1090E94A80C219682
:10346000C830D10549F780E20E94A80C8EE693E0AF
:103470000E942E0D80917801882309F484C08AE887
:1034800093E00E942E0D80917A0190917B016AE079
:1034900070E00E945732862F0E94A80901960E9470
:1034A0003C1180E30E94A80C8DE793E00E942E0D52
:1034B00088EB0E94A80C80919C010E94A1090E94A7
:1034C000A80C89EB0E94A80C80919B010E94A10985
:1034D0000E94A80C8AE793E00E942E0D809199012A
:1034E00090919A0154E0969587955A95E1F70E943C
:1034F000A1090E94A80C809199010E94A1090E9433
:10350000A80C87E793E00E942E0D83EA91E00E94C9
:103510003C1182EA93E00E942E0D80919F010E944F
:10352000A8090E943C118091A0010E94A8090E9454
:103530003C118091A2010E94A8090E943C11809137
:10354000A1010E94A8090E943C118AE993E00E940F
:103550002E0D80919001811101C085E00E94A80983
:1035600001960E943C1186E993E00E942E0D809105
:103570009801882359F0813009F453C08DE893E015
:1035800007C080EB6ACF87E893E07BCF83E993E0C5
:103590000E942E0D80919201882309F445C08AE88B
:1035A00093E00E942E0D83E893E00E942E0D8091FF
:1035B0009701811101C084E0805D0E94A80C809178
:1035C000340490913504892B09F047C08091D603CB
:1035D0008823A9F00E940A060091D2031091D30318
:1035E0002091D4033091D503601B710B820B930B98
:1035F0006F3F7F4F8F4F9F4710F40E94F912DF916A
:10360000CF911F910F91FF90EF90DF90CF90BF90DF
:10361000AF909F908F907F906F905F903F902F9092
:10362000089580E993E0B4CF87E893E0BACFC0E98A
:10363000D0EFDC0F88EA93E00E942E0D11E01D0F01
:103640008D2F0E94A80CD12F1C13F8CF80E00E9470
:103650003C0DC05FC03C61F7B2CF8091D903882395
:1036600009F4B4CF8091D1038111B0CF0E9414131B
:1036700020913404309135042115310509F4A6CF89
:1036800080E041E050E0082F10E01A01082E02C04F
:10369000220C331C0A94E2F7B10162237323672BD7
:1036A00011F48F5FF0CF9091D00390FF95C0880FF9
:1036B000880F880F8093AC011092AF01895F8093CF
:1036C000AD0183E08093B00124E630E047E050E0B4
:1036D0006AEA71E088E70E944F30892B09F076CFC3
:1036E000A80125E0440F551F2A95E1F78091D003EA
:1036F00080FF84C0E0EBF3E080E2DF011D928A9559
:10370000E9F7AFECB1E00BEC11E083EDC82E81E0FE
:10371000D82E97E0592E772473948D91E801299142
:103720008E01240F352F311D2A5C3B4FE82FF0E02E
:10373000E055FC4F90E080E0652C681A872C082E3D
:1037400001C0880C0A94EAF77901A12CE701B9902D
:103750007E01B820662D6A196770962E062E000C21
:10376000770BDB2D01C0DD0F9A94EAF77195619517
:1037700071096770772701C0B6946A95EAF7BD2A88
:103780006081962E9B289082A39468E0A612DECFDB
:10379000019631968830910579F6CA16DB0609F054
:1037A000BCCF04E610E020E230E040EB53E060E400
:1037B00088E70E947030892B09F008CFE101C0959D
:1037C000D0958091340490913504C823D923D093A7
:1037D0003504C0933404FACE8295880F80768093A6
:1037E000AC01980136952795369527952093AF0122
:1037F000815E8093AD012093B00166CF4A5C5B4F40
:1038000004E610E020E230E0D2CFAEE1B0E0EBE041
:10381000FCE10C947A324091D6025091D70260912B
:10382000D8027091D9028091DA029091DB020E9455
:103830004F172093D6023093D7024093D80250936B
:10384000D9026093DA027093DB0286E0E6EDF2E0E3
:10385000DE01179601900D928A95E1F786E0FE0150
:103860003796DE011D9601900D928A95E1F786E06C
:10387000FE013D96DE01119601900D928A95E1F7C9
:1038800086E0FE013196A6EDB2E001900D928A9598
:10389000E1F786E0E6EDF2E0DE01599601900D9247
:1038A0008A95E1F786E0FE017996DE011796019090
:1038B0000D928A95E1F786E0FE013796DE011196BA
:1038C00001900D928A95E1F786E0FE013196DE01C6
:1038D000539601900D928A95E1F786E0FE0173966A
:1038E000DE01179601900D928A95E1F786E0FE01C0
:1038F0003796A6EDB2E001900D928A95E1F786E049
:10390000E6EDF2E0DE01179601900D928A95E1F75F
:1039100080917801882309F445C080917D019091C0
:103920007E010E94CB1920917C0128171906D0F541
:1039300080917F01909180010E94CB19893C910573
:1039400088F18A859985892B9B85892B9C85892B74
:103950009885892B91E009F490E0909381010E9471
:10396000FC061091AF03882351F10E94DA1990935D
:103970007E0180937D011092800110927F018091E1
:103980007901111105C0882369F00E94E9080AC075
:10399000212F30E0082E02C0359527950A94E2F7D2
:1039A00020FFF3CF0E94380C81112FC08091D502E7
:1039B0001092D50281706E96E3E00C94963280915D
:1039C0007901111118C08111EDCF80917D01909185
:1039D0007E010E94CB1920917A0130917B0128173A
:1039E000390700F7809179010E94C50810927E0185
:1039F00010927D01D7CF212F30E002C03595279559
:103A00008A95E2F720FFCECFE0CF81E090E0D0CFE3
:103A10000E94AA0B882319F00E94DA1908950E94C7
:103A2000E00BCB0108956091A703669570E041E03B
:103A300050E082E791E00E941C33892B19F481E069
:103A40008093E4020E94081D9093DE028093DD02C1
:103A50008091E50284608093E50208959091A70328
:103A600090FF39C09170811137C092609093A70385
:103A70008091E50281608093E502662391F02091B8
:103A8000A7033091A8034091A9035091AA03609124
:103A9000AB037091AC038091AD039091AE030E9493
:103AA0003C136091A703669570E041E050E082E727
:103AB00091E00E941C33892BB1F00E94320681E014
:103AC0008093E00220E04091AA036091A9038091D5
:103AD000A8030E94621308958C3010F09661C6CF3F
:103AE000880F982BC3CF0E94131DE9CFE7EAF3E0BC
:103AF00080818160808360E086950E942E1D0895FC
:103B00008091A7038695815009F48BE061E00E94C3
:103B10002E1D08958091A70386958F5F8C3008F045
:103B200081E061E00E942E1D08959091A70390FF0F
:103B300008C09695981728F0961718F40E948A1DC9
:103B4000089561E00E942E1D0895A8E0B0E0EBEA20
:103B5000FDE10C946D328C01DC0114968C9114976C
:103B6000882309F4BDC021E04C9111965C91119716
:103B700012966C91129713967C91139715969C91BF
:103B80000E9488127C01F801D580DD2009F469C10A
:103B900097578038910508F064C1FFE0FE1508F4DE
:103BA0008FC08FEF93E00E943F33811189C0E9EB12
:103BB000AE2EE2E0BE2EE1104DC0FE01339686E04F
:103BC000DF011D928A95E9F77AE0472E7501BFEF74
:103BD000EB1AFB0AC5010E943F3389831A828823AE
:103BE00009F46EC0813009F07FC06501E2E0CE0EBD
:103BF000D11CC7010E943F338A83882309F460C027
:103C00009FEF980F9330A0F5F3E0AF0EB11CC60103
:103C10000E943F338B83882309F452C01C82DE014B
:103C200011967D01F7012081222381F2213009F0D4
:103C3000BAC091818281913009F058C0F2E0EF0E54
:103C4000F11C65E070E0893311F460E570E00E94DA
:103C5000261153C0A11424E0B20691F1C5010E94BF
:103C60003F33811101C0EA943FEFA31AB30AA3CFF7
:103C700056018430A1F662E0E62EF12C56012FEFBA
:103C8000A21AB20AC6010E943F33E1E0F0E0EC0F55
:103C9000FD1FEE0DFF1D8083882391F08C3741F4CA
:103CA000E2E0F0E0EC0FFD1FEE0DFF1D1082B7CF3C
:103CB0003FEFE31AF30A650187E0E816F104F1F635
:103CC0008091DC02877061F0D80115968C91882371
:103CD00039F08091AA0282FF03C082E00E94D208DC
:103CE0002896E0E10C948932570199CF923039F54A
:103CF00022E0E20EF11C0E94CC10FFEFEF1AFF0A47
:103D00008FE99FE00197F1F700C00000AFE9BFE045
:103D10001197F1F700C00000EFE9FFE03197F1F7EC
:103D200000C000008FE99FE00197F1F700C000009C
:103D3000AFE9BFE01197F1F700C0000073CF9330F7
:103D400031F432E0E30EF11C0E94A010D6CF943083
:103D500021F08FEFE81AF80AD0CF92E0E90EF11CBB
:103D600030E020E0B7016F5F7F4FD70111964C9193
:103D70008053990B8A30910558F02150310908F48D
:103D8000BCCFEFE9FFE03197F1F700C00000F5CFBD
:103D9000429EF001439EF00D11249C012E0F3F1F07
:103DA000842F7B01DFCFE22FF0E0E557FE4F5490E8
:103DB000822F86958695869590E0FC01E558FE4F0A
:103DC00064902770712C022E02C0759467940A9437
:103DD000E2F731E063227724FC01E559FE4F84903D
:103DE000912C022E02C0959487940A94E2F7A1E0E8
:103DF0008A229924FC01E55AFE4FC490D12C02C0BE
:103E0000D594C7942A95E2F7B1E0CB22DD24611462
:103E1000710419F081EE0E94CC108114910419F004
:103E200086EE0E94CC10E9E365E070E05E1202C00D
:103E300060E570E0852D0E9426118114910419F02F
:103E400086EE0E94A0106114710419F081EE0E94A8
:103E5000A010C114D10409F450CF65E070E08CE2E9
:103E6000F6CE80917801882309F46FC0B0E2EB169A
:103E7000B2E5FB0608F052C0E114E2E5FE0608F0E8
:103E8000B7C0E114F0E4FF06E0F5E11420E2F20629
:103E900008F0DAC030EEE316F10450F088EEE816D0
:103EA000F10408F44DC0E11491E0F90608F048C0AF
:103EB000F8018481882309F443C0F7E0EF16FEE798
:103EC000FF0609F4ACC0C7018D5C9109439708F463
:103ED000A6C00E94FC06811133C0DD2059F08091FC
:103EE00079012091AF032111B6C0882309F4BCC029
:103EF0000E94120C0E94DA199093800180937F0136
:103F00001FC0E114A0E5FA0608F08DC0F801868113
:103F1000807F09F099C08F2D99278BC0B0E8EB16F0
:103F2000B2E5FB0608F03BC0E0E6EE16E2E5FE0671
:103F300008F05EC0F0E4EF16F2E5FF0608F466C094
:103F40008091830187FD10928301F0929A01E092A3
:103F50009901D8018D919C91119790939C01809328
:103F60009B01F7013497E533F10508F086C0E55F62
:103F7000FD4FE49115968C9120EB811102C02E2FFC
:103F8000E0EBA3EAB1E090E080E03D9132136FC036
:103F90008C579E4FDC015F96EC93F70175C020ECC7
:103FA000E21622E5F20660F230EEE31632E5F306A1
:103FB00008F07ECF20917901C7018F7199272817CA
:103FC000190609F0BDCF8D2D0E94E506D801169681
:103FD0008C911697807F803509F0B2CF15968C9121
:103FE000882361F180918301815080938301A8CF60
:103FF00020917901C7018F7199272817190609F0B7
:104000009FCFD1109DCF0E94F3069ACF20917901C6
:10401000C7018F7199272817190609F091CF8D2DA7
:104020000E94E5068DCFC70155E0969587955A9574
:10403000E1F78F70992720917901EDCF0E94F30667
:10404000809183018F5FD1CFD80116968C91807FAC
:1040500009F476CF2DCF30E0082E02C03595279594
:104060000A94E2F720FF44CF0E94C50841CF019691
:104070008630910509F089CF90CFC7019A95F70155
:1040800081159F4108F4FF27D80115968C91E13DD9
:10409000F10538F0E93DF10570F0E730BEE7FB07C8
:1040A00009F1882361F0FE57E031F10540F4ED5548
:1040B000FC4C0C94D032682F8E2F0E94910CD801AA
:1040C00015968C918111A4C38091E2038272F7014D
:1040D000E052F847E531F10508F0F3C0ED54FC4C2F
:1040E0000C94D0320E94F808EACF80E00E94211799
:1040F0001092970180E00E942F0C8AE892E00E94C3
:10410000210CDECD409190012091970120FB47F9D1
:10411000269523708091780180FB22F980917A01A5
:1041200090917B0162E370E00E9457325FEF560F7F
:10413000550F550F550F522B60919801637070E029
:104140008FE090E00E947533BBCD81E00E943B1769
:10415000B7CD8FEFFBCF8AE0F9CF86EFF7CF909105
:10416000920181E089270E94F808AACD80919701E9
:10417000811101C084E08F5F18160CF081E0883057
:1041800008F087E0809397019BCD80919701811182
:1041900001C084E08150F0CF81E08093980190CD00
:1041A000109298018DCD82E0F8CF9091780181E056
:1041B00089270E942F0C84CD80917A0190917B01F8
:1041C000C296893EE3E09E0708F499CF88EE93E01B
:1041D00096CF80917A0190917B01C29784369105A8
:1041E00008F08DCF84E690E08ACF8091A70380FF0E
:1041F0001EC0282F2E7F2093A7033091A803409143
:10420000A9035091AA036091AB037091AC03809114
:10421000AD039091AE030E943C130E943206809140
:10422000E50281608093E5020E94980A49CD816091
:104230008093A70361E086950E942E1D41CD40E842
:104240005DE16AE87DE10E942C063ACD4AE85DE135
:1042500060E87DE1F8CF41EF53E16BEF73E1F3CF1D
:104260004BEF53E161EF73E1EECF47ED53E164EEC5
:1042700073E1E9CF44EE53E167ED73E1E4CF4DEB39
:1042800053E16AEC73E1DFCF4AEC53E16DEB73E18C
:10429000DACF45E054E16FE174E1D5CF4FE154E16D
:1042A00065E074E1D0CF61E081E0C6CF64E082E0F8
:1042B0000E94951D05CD6AE085E0FACF61E08BE0B4
:1042C000BBCFB7E7EB16BCE7FB0609F460C0E8E735
:1042D000EE16ECE7FE0609F45EC0F8018581E08089
:1042E000F180882309F49FC0C7010E942912D82EAB
:1042F000682FC7010E946C08B7018D2D0E941B1208
:104300000E9458077C01882ED8011596AC9015970D
:1043100016969C9092943FE093228091DC028770E5
:10432000F1F0CA2CAA20E1F08F2D807F803451F06B
:1043300080E28E0D883098F0911004C08F2D807E21
:10434000803269F08091AA0282FF09C082E00E9457
:10435000D2088091DC028770CC24C3948111C12CD7
:10436000BF2CB2942FE0B222BBE0BB1508F4C3C04F
:10437000EB2DF0E0E853FC4C0C94D03281E00E942D
:10438000E90843E062E081E00E94A50899CC81E061
:104390000E94C508F6CF82E0FBCFF3E0EF16FCE702
:1043A000FF0671F160F4E1143CE7F306D1F081E01F
:1043B000E8168CE7F80609F090CF0E9477109BE58D
:1043C000E9169CE7F90669F1ACE5EA16ACE7FA06EE
:1043D000F1F0BAE5EB16BCE7FB0609F07ECF81E011
:1043E0001DC01092E2030E94AB0DEFEFF4E32CE04E
:1043F000E150F0402040E1F700C000000E94F905C4
:104400006FEF7FEF90E080E00E948133D6CF809104
:10441000AA0282FB882780F991E089270E9456141E
:104420005CCF80E0FBCFC7010E943808D82E64CF54
:10443000EF2DEF70DE2E8F2D807F19F0D29490EF4C
:10444000D922AA20B9F0DD2069F080E28E0D8830F3
:1044500010F0811009C08091E203D82AD092E203C3
:104460000E946E0D8E2D45C080912F02D82AD092C9
:104470002F02F6CF8E2D0E94A010DD20E1F180E208
:104480008E0D883010F0811004C08D2D0E942708F9
:1044900006C0D09480912F02D822D0922F020E9481
:1044A0006E0D29C0FF2DFF70DF2E8F2D807F803293
:1044B00019F0D29480EFD822882059F021E082169A
:1044C00009F481C0AA2009F48DC0992009F44FC0D5
:1044D000C9CF8091AA0282FD46C0AA20F1F1DD2059
:1044E00039F08091E203D82AD092E2030E946E0D47
:1044F00080E00E94CC10AB2DA850BB0B149710F499
:104500000E94CF0BCC20A9F08091DC0280FD11C06D
:10451000F80115828695869586950E94E908C8015E
:104520000E94A51D8091DC028695869586950E9445
:10453000C50820E0D8014C9111965C911197129614
:104540006C91129713967C91139714968C911497F3
:1045500015969C910E948812C3CB80E00E94A01007
:10456000DD2049F292CFAA20A1F0911004C08D2D38
:104570000E949610C0CF31E09312BDCF80912E02E1
:104580009D2D9823D91609F4B6CFD82AD0922E02A1
:10459000B2CF9110B0CF8D2D0E948F1090912E022E
:1045A0008D2D892329F08D2D8095892380932E02CE
:1045B000809100029D2D982309F49DCFD094D8229C
:1045C000D092000298CFAA2029F085E0891508F43E
:1045D00092CFCDCF94E0991508F48DCF8D2D0E9408
:1045E0008F1089CF9920D1F3A9E38A1209C1BFEFB7
:1045F000E7EEF3E0B150E040F040E1F700C000002A
:104600008E2D0E94A01077CF6A2D8E2D0E94910CC6
:1046100072CF8F2D837091F5A1106DCF4E2D4295E5
:1046200046954770440F440F8E2D8F70042E01C0A5
:10463000880F0A94EAF72E2D2071E4FE07C02FE0C0
:1046400030E001C0220F4A95EAF720953F2D3695BC
:1046500036953370323069F050F440913002313089
:1046600029F0822B84230E94F50845CF842B822BCE
:10467000FACF282B809130028227F5CF8695AA2089
:1046800011F08F2D8170882309F435CF4E2D42957E
:1046900046954770440F440F8E2D8F70042E01C035
:1046A000880F0A94EAF72E2D2071E4FE07C02FE050
:1046B00030E001C0220F4A95EAF720953F2D36954C
:1046C00036953370323069F050F44091AF03313099
:1046D00029F0822B84230E94A2080DCF842B822BE9
:1046E000FACF282B8091AF038227F5CF9F2D9F70A3
:1046F000F92EAA2029F0892F0E94E9088E2D38CFA3
:104700008E2D0E948F108F2D0E94C508F4CE8E2D05
:10471000A2EF8A16B1F1A81570F0B0EF8B16D1F0A8
:10472000E1EF8E1691F0AA2009F45EC091109ACEA6
:104730008F2D8F712AC0F3EF8F1651F124EF821263
:10474000F2CF8091AA0282FD2FC08F2D8F71AA20F7
:10475000D9F21BC0AA2081F034E0391508F4CBCE81
:104760002F2D2F7181E090E001C0880F2A95EAF784
:104770009091AF038927AFCF85E0891508F4BBCEB0
:10478000EFCF8F2D8F71A110BFCF0E94E908B3CE5C
:1047900080E0AA2009F49FCF9F2D9F7181E001C086
:1047A000880F9A95EAF797CFAA2099F09F2D9F71CD
:1047B000F92E892F0E94E9088091AA0282FF07C082
:1047C000A8E0FA9EC001112483608093DC028F2D43
:1047D000DCCF81E00E94D208B1E0B91508F08BCEA1
:1047E00082E00E94D20887CE992079F0893341F483
:1047F000EFEFF7EE23E0E150F0402040E1F7FECE8E
:104800008FE19EE40197F1F7F9CE8F2D8F717CCF68
:10481000B7E7EB16BCE7FB0609F4B0CDE8E7EE1608
:10482000ECE7FE0609F0B9CD82E0A9CDCF93DF9386
:1048300080912502807F09F04DC080912402882359
:1048400009F448C0E09132045091F903C09120026C
:10485000D0911F02609121027091220247E05E1701
:10486000C9F18E2F90E0E49FF0011124E650FC4F37
:104870002481222391F1489FF001499FF00D1124DA
:10488000DF01A650BC4F11962C9111972C1325C017
:104890002C912D1322C015962C91159721111DC016
:1048A00012962D913C91261B370B283C3105A8F41C
:1048B000809125028F70806180932502E050FC4F2B
:1048C00080818F70806180838FE192E00E94A51DBE
:1048D0000E942E08DF91CF910895FC013196E77078
:1048E000BECFA4E1B0E0E7E7F4E20C9471328C01B2
:1048F00086E0F801DE011F9601900D928A95E1F79E
:10490000F8018481E5809FE1A92E92E0B92E909173
:104910002302911128C0882319F1EE20F1F0C8017B
:104920000E946512F82E8823C1F087E0F801D501B6
:1049300001900D928A95E1F780912302813031F444
:1049400080911F02909120020E9458120E9416240A
:104950008F2D6496ECE00C948D32C8010E94A51D49
:10496000FF24F394F5CFD080C18082809380F090B3
:1049700024022091210230912202A401421B530BF8
:10498000FF2009F4D9C0483C510508F092C08823A3
:10499000F9F29091200280912502282F207F09F0C2
:1049A00056C0C91214C090911F02D91210C0E11054
:1049B00048C08F708061809325028FE192E00E9451
:1049C000A51D80912502F8018683F12CC1CFE1104D
:1049D00038C06C2D8D2D0E947B046C2D8D2D0E9476
:1049E0007B04E82E8111F1CFDF86C88A8F859889F4
:1049F0000E945812292F22952F70243058F49F704E
:104A0000223088F0992399F0F8019681907F79F40B
:104A1000FE2C9ECF2A5F2F70223068F0C8010E94C2
:104A2000A51DEF2CF5CF992311F0882389F3805E23
:104A3000883070F3F3CF803F58F3815F833070F795
:104A4000E7CF80912502816080932502BECFC912F5
:104A500007C090911F02D91203C0EE2009F48DC047
:104A6000C8010E946512882309F477CFEE2009F46B
:104A700074CF80912502803288F020911F023091FE
:104A80002002398728879B868A86909123029C87FB
:104A90001D868E87CE0108960E94A51D87E0F8012D
:104AA000AFE1B2E001900D928A95E1F70E941624E1
:104AB00057CF90912502292F207F51F48FE192E06A
:104AC0000E94A51D87E0F50111928A95E9F77DCF37
:104AD000882309F43DCF809120028C1110C0809171
:104AE0001F02D8120CC0E1100AC09683C8010E94B0
:104AF000A51D87E0F50111928A95E9F729CFC80134
:104B00000E946512882309F428CFEE2009F425CFEE
:104B100080912502803210F220911F0230912002F4
:104B20003A8329839C828B82909123029D831E82EB
:104B30008F83CE010196B0CF483C5105D0F6882333
:104B400009F40ECFFE2CEE2009F407CF809120024D
:104B50008C1120C080911F02D8121CC080912502A8
:104B600080FD0FC0982F907F61F08683903F31F0D9
:104B7000982F907F905F8F70892B8683C8010E9449
:104B8000A51D87E0F801AFE1B2E001900D928A9592
:104B9000E1F7DECEC8010E94651281117FCF8091BE
:104BA0002502816080932502C8010E94A51DD0CEF8
:104BB000ABE1B0E0EEEDF5E20C9479324E8B5F8B19
:104BC000688F798F8A8F9B8F192F911110922F02E6
:104BD0001D8A86E0FE017696DE011F9601900D92F9
:104BE0008A95E1F70A8D002341F021E04F8558892D
:104BF00069897A89C8010E9488120B8B1C8B87E017
:104C0000FE013F96DE01189601900D928A95E1F71C
:104C1000CE0108960E94712481110CC087E0FE012C
:104C20003896DE01119601900D928A95E1F78C85F8
:104C300081110BC017E0809132049091F903891320
:104C400033C06B96E4E00C9495322091F90330E088
:104C5000C9010196877099274091320448171906B7
:104C600099F097E0929FD001939FB00D1124A65028
:104C7000BC4FFE01319601900D929A95E1F7809319
:104C8000F9030E942E08D6CF1092E2030E94AB0DCA
:104C90001092F9031092320487E0EFE1F2E0DF01B5
:104CA0001D928A95E9F7C6CF819FC00111248650D5
:104CB0009C4F0E947124882321F28091320490E05D
:104CC00001968770992780933204B5CFA6E0B0E0B3
:104CD000ECE6F6E20C9479320E94DA198C018091AC
:104CE0003102909132028017910781F019821A8265
:104CF0000E94DA19682F49815A81792F80E090E06B
:104D00000E94D82510933202009331022696E4E0E7
:104D10000C949532ABE0B0E0E0E9F6E20C946D3231
:104D2000CE0101967C018AE0D7011D928A95E9F7B0
:104D30003701570190E0C92E91E0D92E44244394C5
:104D4000512CF60181916F010E94E60900C085E0B7
:104D5000882E81E0982EF40110E000E02191A22F2E
:104D6000A295AF70B0E090968C9190E02F7002C049
:104D7000959587952A95E2F780FD0AC0D5018C911B
:104D80009201002E01C0220F0A94EAF7822B8C9325
:104D90000F5F1F4F0430110509F7F601319780812D
:104DA0000E94FA09B0EABA95F1F7EFEFAE1ABE0A1F
:104DB000F5E0CF16F1E0DF0621F6DD24D394D4012F
:104DC0008D914D010E94E60900C03D2D002E01C0CD
:104DD000330F0A94EAF7F70140E051E0DA012D9130
:104DE000AD01822F82958F7090E0DC0190968C91BE
:104DF00090E02F7002C0959587952A95E2F780FD87
:104E000003C08081832B80833196B1E045305B07FE
:104E100029F7F401319780810E94FA09E0EAEA95C6
:104E2000F1F70F5F1F4F0830110549F6EFE3F6E089
:104E300097012B5F3F4FD12CD3018D913D01919173
:104E4000891729F0DF0111978C93DD24D39426155F
:104E5000370591F70091A802DD2041F181E08093B0
:104E6000EE010E94DA199093ED018093EC0180919C
:104E7000EC019091ED010E94CB190597D8F010E05C
:104E800005541D4F45E050E06FE376E0C8010E94F5
:104E90002933892B41F085E0EFE3F6E0D80101905A
:104EA0000D928A95E1F71092EE0104C08091EE0117
:104EB0008111DDCF0E94AA0BC82EE091A8028111BA
:104EC0008EC0F0E0E554FD4F85E0A5E3B2E001902F
:104ED0000D928A95E1F765E070E085E392E00E942B
:104EE00016068093340280903A0290903B02A09084
:104EF0003C02B0903D028091EF019091F001A091B1
:104F0000F101B091F20188169906AA06BB06D1F00C
:104F10008092EF019092F001A092F101B092F20123
:104F20000E94AA0B81110EC00E940A06861A970AD7
:104F3000A80AB90A8092A3029092A402A092A502A4
:104F4000B092A6028BE0EEE3F2E0D70101900D9261
:104F50008A95E1F780913E028695F0903F02E090BD
:104F60004002C09041020091470210914802109205
:104F70004802112301F110FF0BC0998190FF26C058
:104F80009091A70391609093A70360E00E942E1D6B
:104F900011FF06C020E04C2D6E2D8F2D0E94621354
:104FA00012FF04C00023A9F00E94131D13FF03C0C9
:104FB00081E08093E00280914902882369F00E9499
:104FC00014138D2D2B96E0E10C9489320E949B0BDB
:104FD000DFCF0E943206EACF0E94F912F2CF24E41A
:104FE00036E085E0D9011D928A95E9F70E2F10E091
:104FF00005541D4F80913E068A30E8F562E675E162
:10500000C8010E940F0A882309F452C067E175E1C4
:10501000C8010E940F0A882309F44AC067E476E1B8
:10502000C8010E940F0A882309F442C068E276E1B1
:10503000C8010E940F0A8823D9F110923E0681E030
:105040008093F5010091A70210E005541D4F45E043
:1050500050E064E476E0C8010E942933892B09F40A
:10506000B0CF85E0E4E4F6E0D80101900D928A9596
:10507000E1F7DC2CA6CF8091F3019091F4010E941E
:10508000CB19843F914008F0B9CF8091F501882376
:1050900009F497CF1092F501E091A702F0E0E554F2
:1050A000FD4F95E0DF011D929A95E9F7D82E89CF43
:1050B00080913E068F3F31F08F5F80933E068A30AD
:1050C00008F4BDCF0E94DA199093F4018093F301A4
:1050D000DCCF1F921FB61F9211248F939F93AF9323
:1050E000BF938091DC03811113C08091DD03909107
:1050F000DE03A091DF03B091E0034196A11DB11D35
:105100008093DD039093DE03A093DF03B093E0036D
:10511000BF91AF919F918F911F901FBE1F901895C7
:10512000CDB7DEB7A6970FB6F894DEBF0FBECDBFE2
:1051300085B7806885BF85B7806885BF84B7877F5E
:1051400084BF0FB6F894A895809160008861809321
:105150006000109260000FBE80E890E00FB6F894F7
:1051600080936100909361000FBE8AE297E0909374
:10517000E3018093E2010E949A040E943B05809122
:10518000E20084608093E20078948091EF038823AA
:10519000A1F01091E9001F709091EC00892F8170AF
:1051A00090FD80E8182B1092E9008091E80083FDC3
:1051B0000E94B70D1F701093E90082E084BD93E058
:1051C00095BD9AEF97BD80936E001092A302109246
:1051D000A4021092A5021092A6020E94B61281119A
:1051E00002C00E94DC110E947516809109010E9484
:1051F0007516809105010E94FA09809106010E94AE
:10520000FA09809107010E94FA09809108010E9421
:10521000FA0900E011E0E5E0EE2EE1E0FE2ED80113
:105220008D918D010E94FA09E016F106C1F7809177
:10523000090195E0811190E09093A80285E0891B17
:105240008093A7020E94AA0B811102C00E94F8302D
:10525000EFE3F6E089E496E0ABEBB2E011921D9249
:105260008E179F07D9F70E946D14811102C00E940A
:105270008C1682E090E00E943F338093AC0284E081
:1052800090E00E944D339093AA028093A9020E945D
:105290008A26EFE3FCE93197F1F700C000000E9495
:1052A0008A268091BB0280FF08C06FEF7FEF90E0FD
:1052B00080E00E9481330E94F90583E090E00E9423
:1052C0003F330E94F5080E94AA0B882309F4AEC15F
:1052D00080E08093D00380E8809333040E94AF2F56
:1052E0006BE070E087E592E00E94CF128823E9F13D
:1052F0008091D00365E070E081FD9AC182E592E083
:105300000E94CF12882389F16DE070E080E492E082
:105310000E94CF12882349F10E940A06605A754103
:105320008F4F9F4F6093D2037093D3038093D40326
:105330009093D503E6E3F4E080E092E0DF019C0186
:105340001D9221503040E1F7F0933D06E0933C067A
:105350008FEF9FEF909335048093340481E0809326
:10536000D9038093D6031092D1038091AB028111AF
:1053700078C00E946D14811104C00E948C160E9496
:10538000391488E090E00E9447334B015C0184E2CD
:1053900090E00E943F33282F30E040E050E060E092
:1053A00070E080E090E000E20E94DD322829392997
:1053B0004A295B292093A7033093A8034093A903AC
:1053C0005093AA036093AB037093AC038093AD0337
:1053D0009093AE038091E50283608093E5022E7F77
:1053E00089F50E94391488E090E00E9447336B01F0
:1053F0007C0184E290E00E943F33282F30E040E0BF
:1054000050E060E070E080E090E00E94DD32B22F7A
:10541000A32FF42FE52F5B0197018601BC29A12B57
:10542000FE29E32BB093A703A093A803F093A9034D
:10543000E093AA036093AB03B092AC038093AD03F7
:105440009093AE030E9439060E9432068091A70312
:1054500080FF04C060E086950E942E1D81E080934D
:10546000AB020E94AA0B811102C00E94F8300E9478
:1054700047180E94AA0B81112EC08CE099E09093EE
:105480005901809358012AE130E030935401209370
:1054900053018AE390E0909357018093560146E1CF
:1054A00057E0509361014093600130935C01209379
:1054B0005B0190935F0180935E0146E357E1509357
:1054C00069014093680130936401209363019093D4
:1054D0006701809366010E946D14882379F18FE043
:1054E00090E00E9447338B01F82E862F8F770E9421
:1054F0002117001F0027001F612F6370660F602BAC
:105500006093970112FB882780F90E942F0C812F4E
:10551000887F09F490C0169516951695212F30E0D6
:105520002F5F3F4F42E3429FC001439F900D1124E4
:105530000E94210C8F2D8370809398010E94761D0C
:1055400060E08BE00E942E1D8AE691E09093DB03E1
:105550008093DA0368E1A62EB12C75EC872E72E0F9
:10556000972E8091EF0300E112E1853009F4A2C08B
:105570000E948A260DEA12E055EBE52E51E0F52E49
:10558000B7012BEB32E0F8019191D9018D919D018A
:10559000DB014D91BD018423B2E0E73BFB0709F439
:1055A00095C0981789F30E94AA0B282E4BEBC42EA6
:1055B00042E0D42E612CF60171906F01D7018D91DC
:1055C0007D017822F80131908F01371431F13724B1
:1055D000512C44244394842D8321B9F02220A9F036
:1055E00059A26AA20E94DA199CA38BA3F1E0FDA341
:1055F00091E0842D872109F490E09EA349A15AA14E
:105600006BA17CA18DA10E94D8255394440C28E065
:105610005212E1CFF8013197708263943AE063123D
:10562000CACF0E94E00B7724739455C082E051CE1C
:105630008DE492E065CE8AE892E07ACF8091EF0324
:10564000843031F10E94F9120E94051C1092DC0393
:1056500030E40FB6F894A895A09260000FBE309386
:10566000600083B7817F846083BF83B7816083BF1D
:105670007894889583B78E7F83BF0FB6F894A895EA
:1056800080916000886180936000109260000FBE7E
:105690008091EE03882371F00E948A26A5EBB1E089
:1056A000EBEBF2E081919D91892309F066C38E16A0
:1056B0009F06C1F78091EF03853009F4BFCF1092A8
:1056C000E2030E94AB0D0E94CF0B52CF98136BCF19
:1056D0000E946626712C0E94AA0B8091E402882306
:1056E00009F464C08091E302E091A703E695E81B0A
:1056F000E093DF02823009F064C0F0E0E959FD4F29
:10570000E4910E2F10E035E7E32E3BE0F32E80917D
:10571000E002882361F01092E0020E94081D90933D
:10572000DE028093DD021092E2021092E1020E94FA
:10573000081DE091DD02F091DE029C012E1B3F0B63
:105740002F3F3F4798F52091B9022223B1F01092E4
:10575000B9022091B7023091B802821B930B8F3FA0
:105760009F4758F4205D3A483093B8022093B7021F
:105770008091E50288608093E502C090E102D090BC
:10578000E2020E0F1F1F1093DE020093DD028DED6B
:1057900092E0F70109958091E1029091E202892B54
:1057A00029F4CD2819F081E08093B9020E94051CEC
:1057B000882339F10E94E00B0E94E6190E9414131D
:1057C00024C0853061F4E695F0E0EC59FD4FE4919A
:1057D0000E2F10E023EEE22E2AE0F22E98CF8B302F
:1057E00049F4E2E6F2E0059114919CE3E92E9BE096
:1057F000F92E8DCF00ED17E084EFE82E85E0F82E2E
:1058000086CF0E94E6197110D9CF0E94CF0B9091DC
:10581000BA02891721F08093BA020E940A06809189
:10582000EF03843009F4DBC00E94AA0B882309F43B
:1058300098CE0E940A062091870121116BC0009129
:10584000C7021091C8022091C9023091CA026B01AF
:105850007C01C01AD10AE20AF30A97018601043FCB
:1058600011402105310508F455C06093C7027093BB
:10587000C8028093C9029093CA028091C502909198
:10588000C60201969093C6028093C50219828E01CA
:105890000F5F1F4F21E050E040E060E089E00E9490
:1058A000C114811106C08091C5029091C6020A9769
:1058B0008CF181E08093870180938501998191111A
:1058C00001C080E0809386018091840110E08823EC
:1058D00029F00E94FA0B11E0811112E080918601FB
:1058E000882309F446C20E94FA0B811144C282E067
:1058F000182B0E94AD126B017C01DC01CB018C7F67
:10590000BC01CD01612BC616D706E806F90611F0D9
:105910000E94BE1180918601882309F422CE0E9444
:105920000A066B017C018091CB029091CC02A09180
:10593000CD02B091CE02A7019601281B390B4A0B6C
:105940005B0BDA01C9010497A105B10580F1198249
:105950001A821B821C828E010F5F1F4F24E050E0D1
:1059600040E060E08AE00E94C1148823C1F06981B0
:105970007A8180918C0190918D010E94D30990933E
:105980008D0180938C016B817C8180918E0190913F
:105990008F010E94D30990938F0180938E01C09252
:1059A000CB02D092CC02E092CD02F092CE02809156
:1059B0009101882309F4D5CD80919001898310E06D
:1059C00000E020E0AE014F5F5F4F61E08BE00E949E
:1059D000C114882309F4C5CD10929101C2CD83E092
:1059E0008093E9008091E80082FF1ECF8091E8005B
:1059F00090E085FF05C00E94B904882399F091E0EA
:105A00008091E8008B778093E800992309F40CCF0C
:105A10008981EFEFE80FE33160F5F0E0EC52FC4CE8
:105A20000C94D03200E210E09E012F5F3F4F7901CD
:105A30008091E80085FD0AC08091E8008B77809313
:105A4000E8000E94B904882399F3D9CF8091F1002E
:105A5000D7018D937D010150110951F7D0CF1A82E2
:105A60008CE08B831AC08A81823001F128F4813066
:105A700061F08FEF898311C08330D9F08430C9F78A
:105A80001B821C821D821E8208C00E940A060E9480
:105A9000D6326B837C838D839E8340E250E0BE01CF
:105AA0006F5F7F4F82E00E94420ABECE0E94AD121D
:105AB000EECF2B81822F90E0FE013496245E8A3057
:105AC000910558F7AC0145545D4FBC016B547E4FB6
:105AD000DA013C91DB014C91342331930196281378
