:100000000C942B050C9448050C9448050C94A731CE
:100010000C9448050C9448050C9448050C9448052C
:100020000C9448050C9448050C943A1A0C94F61953
:100030000C9413290C9448050C9448050C9448051D
:100040000C9448050C9448050C9448050C944805FC
:100050000C9448050C94131B0C9448050C9448050B
:100060000C9448050C9448050C9448050C944805DC
:100070000C9448050C9448050C9448050C944805CC
:100080000C9448050C9448050C9448050C944805BC
:100090000C9448050C9448050C9448050C944805AC
:1000A0000C9448050C9448050C9448050501090278
:1000B000A10185020901A1000509190129081500FE
:1000C0002501950875018102050109300931158165
:1000D000257F95027508810609381581257F9501D0
:1000E00075088106050C0A38021581257F95017572
:1000F000088106C0C00660FF0961A1010962150000
:1001000026FF009520750881020963150026FF006F
:10011000952075089102C005010906A1010507197E
:10012000E029E71500250195087501810295017503
:100130000881010507190029FF150026FF00950613
:100140007508810005081901290515002501950587
:1001500075019102950175039101C0000000000036
:10016000000000000000000000000000000000008F
:100170000000000000000000000000000000007E01
:100180000F00D4FFFFFFC700000078000000000050
:100190000000002A2B2800000000000000000000E2
:1001A00000000000000029000000002C1E34202167
:1001B0002224342627252E362D3738271E1F2021AE
:1001C00022232425263333362E37381F040506070D
:1001D00008090A0B0C0D0E0F101112131415161727
:1001E00018191A1B1C1D2F3130232D350405060745
:1001F00008090A0B0C0D0E0F101112131415161707
:1002000018191A1B1C1D2F3130354C00DA0281FFE2
:10021000D9F1DB20A4A62EAF00A0C0D30000A1C856
:10022000D30000AED580A81F408D1420000004002C
:1002300001010101010101010102020202020202A7
:10024000020203030303030303030404040404047A
:100250000405050505050606060606070707070740
:1002600008080808090909090A0A0A0B0B0B0C0CF3
:100270000C0D0D0D0E0E0E0F0F0F1010111111128F
:100280001213131414151516161717181819191A0E
:100290001A1B1B1C1D1D1E1E1F2020212222232471
:1002A00024252626272829292A2B2C2D2D2E2F30B0
:1002B000313232333435363738393A3B3C3D3E3FC4
:1002C000404142434445464748494A4C4D4E4F50B1
:1002D000515354555658595A5B5D5E5F616264656F
:1002E0006668696B6C6D6F7072737577787A7B7DF9
:1002F0007E8082838587888A8C8E8F91939596984D
:100300009A9C9EA0A2A3A5A7A9ABADAFB1B3B5B768
:10031000BABCBEC0C2C4C6C9CBCDCFD1D4D6D8DB3F
:10032000DDDFE2E4E7E9EBEEF0F3F5F8FAFDFF00DC
:10033000AF00AE20004C6179657220202000616220
:10034000636465666768696A6B6C6D6E6F70717205
:10035000737475767778797A313233343536373845
:100360003930524542545F2D3D5B5D5C233B276035
:100370002C2E2F20202700204B00202043004B65EF
:1003800079202020205200202044003030202053AB
:100390000020202020204350490042616C6C200046
:1003A000808182838485868788898A8B8C8D8E8FD5
:1003B0009091929394A0A1A2A3A4A5A6A7A8A9AA4C
:1003C000ABACADAEAFB0B1B2B3B4C0C1C2C3C4C5C3
:1003D000C6C7C8C9CACBCCCDCECFD0D1D2D3D4001A
:1003E00029001E001F0020001D001B000600190030
:1003F000210022002B0014000500E000E300E200D1
:100400001A000800150017002C0000000000000072
:10041000E0000400160007000000000000000000DB
:1004200009000A00E50000000000000000000000D4
:100430002300240025002600100036003700380075
:1004400027002D001C00180028002C00E600E70003
:100450000C00120013002A006500000000000000DC
:100460000B000D000E000F00000000000000000057
:100470003300340011000000000000000000000004
:1004800009025B00030100A0FA0904000001030156
:100490000100092111010001224400070581030820
:1004A00000010904010002030000000921110100FC
:1004B0000122220007058203200001070503032013
:1004C00000010904020001030000000921110100DC
:1004D00001224900070584032000011201000200E7
:1004E000000008383936350100010200010E0372A0
:1004F0000065006500780035003600000012036BCF
:100500000075007300680069006D0061003800002C
:1005100000040309040000000000003E5B4F5B3E46
:10052000003E6B4F6B3E001C3E7C3E1C00183C7E28
:100530003C18001C577D571C001C5E7F5E1C000091
:10054000183C180000FFE7C3E7FF0000182418005C
:1005500000FFE7DBE7FF0030483A060E0026297966
:10056000292600407F05050700407F05253F005AEA
:100570003CE73C5A007F3E1C1C0800081C1C3E7FC8
:100580000014227F2214005F5F005F5F0006097F76
:10059000017F00006689956A006060606060009479
:1005A000A2FFA2940008047E04080010207E201000
:1005B0000008082A1C0800081C2A0808001E101041
:1005C0001010000C1E0C1E0C0030383E3830000697
:1005D0000E3E0E060000000000000000005F00005C
:1005E00000000700070000147F147F1400242A7FF6
:1005F0002A12002313086462003649562050000076
:100600000807030000001C224100000041221C00DA
:10061000002A1C7F1C2A0008083E08080000807081
:100620003000000808080808000000606000002092
:1006300010080402003E5149453E0000427F400040
:10064000007249494946002141494D3300181412AE
:100650007F10002745454539003C4A494931004152
:100660002111090700364949493600464949291EE2
:1006700000000014000000004034000000000814D6
:100680002241001414141414000041221408000222
:1006900001590906003E415D594E007C1211127C41
:1006A000007F49494936003E41414122007F414196
:1006B000413E007F49494941007F09090901003E47
:1006C00041415173007F0808087F0000417F4100CD
:1006D000002040413F01007F08142241007F40403C
:1006E0004040007F021C027F007F0408107F003E14
:1006F0004141413E007F09090906003E4151215E0A
:10070000007F091929460026494949320003017F23
:100710000103003F4040403F001F2040201F003F9A
:100720004038403F00631408146300030478040356
:10073000006159494D4300007F41414100020408D6
:10074000102000004141417F0004020102040040EA
:100750004040404000000307080000205454784007
:10076000007F284444380038444444280038444436
:10077000287F0038545454180000087E09020018DD
:1007800024241C78007F080404780000447D400085
:10079000002040403D00007F102844000000417FC1
:1007A0004000007C04780478007C08040478003859
:1007B00044444438007C1824241800182424187C4D
:1007C000007C080404080048545454240004043FE6
:1007D0004424003C4040207C001C2040201C003C65
:1007E0004030403C004428102844004C9090907CBD
:1007F000004464544C440000083641000000007777
:100800000000000041360800000201020402003C22
:100810002623263C00000000000000F8FCFCFC3C05
:100820003CFCFCFCF80080C0F0F8FC7E00000000FE
:10083000000000000000000000000000FCFCFCFCC8
:10084000000000000000000000FCFCFCFC000000B8
:100850000000000000000000000000000000FCFCA0
:10086000FCFC000000000000000000FCFCFCFC00A0
:100870000000000000000000000000000000000078
:100880007EFCF8F0E0C080000080C0E0F0F8FC7E64
:10089000000000E0F0F0F0E0ECEEF7F37020007CF8
:1008A0007C7C7E007E7E7E7F7F7F000080C0E07E3D
:1008B0005B4F5BFEC00000C000DCD7DEDEDED7DCB5
:1008C00000C0000000000000000000000000000068
:1008D0000000000000000000000000FFFFFFFF001C
:1008E00000FFFFFFFF7F1F0F070100000000000057
:1008F000000000000000000000000000FFFFFFFFFC
:10090000000000808080800000FFFFFFFF000000EB
:100910000000000000000000000000000000FFFFD9
:10092000FFFF000080808080000000FFFFFFFF00CD
:1009300000000000000000000000000000000000B7
:10094000000081C3E7FFFFFFFFFFFFE7C381000057
:100950000000000F1F3F7F7F7F7F7F3F1E0C001F27
:100960001F1F3F003F3F3F7F7F7F00307B7F7830FE
:10097000202030787F3B0003000F7F0F0F0F7F0F89
:100980000003000000000000000000000000000064
:100990000000000000000000000000FFFFFFFF005B
:1009A0000001010100000000000000000000000044
:1009B0000000000000000000000000003F3F3F3F3B
:1009C0000000003F3F3F3F00003F3F3F3F0000002F
:1009D00000000000000000000000000000003F3F99
:1009E0003F3F00003F3F3F3F0000003F3F3F3F0091
:1009F00000000000000000000000000000000000F7
:100A00007E3F1F0F07030100000103070F1F3F7EFA
:100A100000000000000000000000000000000000D6
:100A200000000000000000000000000000000000C6
:100A300000000000000000000000000000000000B6
:100A400000000000000000000000000000000000A6
:100A500000000000000011241FBECFEFDAE0DEBF6F
:100A6000CDBF11E0A0E0B1E0EAE9F8E602C00590F0
:100A70000D92AC3AB107D9F726E0ACEAB1E001C07B
:100A80001D92A233B207E1F70E943A290C94033475
:100A90000C940000482F209119049091E00357E036
:100AA000291302C080E0089530E0529FF001539F67
:100AB000F00D1124EF51FC4F8181681306C0808135
:100AC000481303C085818111EECF2F5F3F4F277000
:100AD000E7CFE8EDF0E080818E7F80831092E20026
:100AE0001092DA001092E100A0EEB0E08C918160EB
:100AF0008C9380818F77808319BCA7EDB0E08C91B7
:100B00008E7F8C9380818F7E80831092C80308959E
:100B10002091E4003091E50095E6A9012091EC00D8
:100B2000822F817020FF06C08091E80080FF06C000
:100B300080E008952091E80022FD1AC08091D6033C
:100B4000882389F0853089F08091EB0085FD0FC006
:100B50002091E4003091E50042175307F9F29150DB
:100B6000E1F684E0089582E0089583E0089581E04D
:100B700008958091D80387FF13C08091E80082FF19
:100B800006C08091E8008B778093E80004C08091D4
:100B9000D6038111F2CF08958091D6038823D9F32B
:100BA0008091E80080FFF8CF8091E8008E77ECCF4D
:100BB000982F9093E900242F762F50E0891731F079
:100BC0007091EC002091ED005091F00021FD07C0E4
:100BD0009F5F973071F78093E90081E0089530912D
:100BE000EB003E7F3093EB003091ED003D7F309382
:100BF000ED003091EB0031603093EB007093EC002E
:100C00002093ED005093F0002091EE0027FDE0CFFF
:100C100080E00895B0E0A0E0E0E1F6E00C94E1327D
:100C2000C8EDD0E088818F7E8883E7EDF0E0808199
:100C30008160808384E082BF81E08093C8038881E3
:100C40008E7F888302EE10E0F80110821092DA00A5
:100C500081EEC82ED12CF601108288818F7788838F
:100C600088818068888388818F7D888319BC1092F1
:100C7000D6031092D7031092D5031092D40390EEAE
:100C8000E92EF12CF70180818B7F80838881816040
:100C9000888342E060E080E00E94D805F601808110
:100CA0008E7F8083F801808181608083808188606D
:100CB0008083F70180818E7F808388818061888333
:100CC000CDB7DEB7E8E00C94FD32FC018091DE0385
:100CD0009091DF0386179707A0F06115710529F43D
:100CE0009091E8009E779093E80090E0611571057F
:100CF00051F4911108C08091E80082FF34C080E077
:100D00000895BC01F2CF8091D6038823C1F18530CC
:100D1000C1F18091E80083FD30C08091E80082FD40
:100D2000EACF8091E80080FFE1CF8091F30020912D
:100D3000F200382F6115710519F02830310558F08F
:100D400091E02830310509F090E02091E8002E77FD
:100D50002093E800CBCF81918093F100615071091D
:100D60002F5F3F4FE7CF8091D603882341F0853036
:100D700041F08091E80083FFBECF81E0089582E0DA
:100D8000089583E00895089508958091CB03089510
:100D900087E797E7909301088093000888E19AE03D
:100DA0000FB6F894A895809360000FBE90936000F2
:100DB000FFCF2FB7F8946091C4037091C503809161
:100DC000C6039091C7032FBF0895FC01680F791FD8
:100DD0008FEF91E32191822728E030E087FF09C05F
:100DE000880F892721503109C9F7E617F70791F7CE
:100DF0000895880FF7CFFA01811101C0FB01099511
:100E00000895EFE6F3E01182828184608283089581
:100E100080916703982F9E7F61F481708260809338
:100E2000670380916A03853618F084E680936A032D
:100E300008958630B0F381708460F1CFAF92BF9295
:100E4000DF92EF92FF920F931F93CF93DF93082FC0
:100E5000162FE901E42FF0E0E15DFD4F611110C0B4
:100E6000E4915E2F4E2F4983E8835A83DF91CF911F
:100E70001F910F91FF90EF90DF90BF90AF9008957A
:100E8000E62EF12C4491D42EE42FF0E026E0829F50
:100E9000C00111242FEF30E0B9010E94C332802F2E
:100EA00090E0880F991F55E5569FD001579FB00DD0
:100EB00011248A1B9B0B982F990F890F5901AE188B
:100EC000BF08AE9ED001AF9EB00DBE9EB00D1124E6
:100ED0005B2F189F80011124012F11275901A01A9F
:100EE000B10AAE9E8001AF9E100DBE9E100D112462
:100EF0005901A81AB108AE9CC001AF9C900DBE9CD0
:100F0000900D1124892F9927281B390B2E9FC00182
:100F10002F9F900D3E9F900D1124E92F6230710597
:100F2000A1F050F46115710509F49DCF6130710590
:100F300081F0EB2F512F97CF6430710569F080F06D
:100F40006630710509F48FCFF4CFE42F4B2F592F62
:100F50008ACFE42F412F87CFEB2F542F492F83CFF8
:100F60004B2F5D2DE12F7FCF90917501882341F0AC
:100F70009F5F909375011092720110927101089514
:100F80009150F7CFEAE6F1E0828591E089278287E8
:100F900010861782089580917301811114C0809189
:100FA0007501811110C08091740181110CC0909164
:100FB000A00296959695969581E020916B019213EB
:100FC00080E08170089581E0FCCFCF93DF93E4E768
:100FD000F3E084819581A681B781E90188839983B3
:100FE000AA83BB831582148217821682DF91CF9168
:100FF000089580E0089563E070E083E192E00E944C
:10100000E50690911202891318C0E0911302EB30AB
:10101000A4F488E0E802F0011124E65FFE4F0680A8
:10102000F781E02D309749F026E332E04091150238
:1010300066E172E08091140209950895EAE0F1E01A
:10104000ADEFB1E057968C91579780A758968C9149
:1010500083AF089590916D0292FF10C041E0282F58
:101060002471243009F040E031E0282F2871283025
:1010700009F030E0431711F02CE0822793FF10C0F5
:1010800041E0282F2471243109F040E031E0282F7D
:101090002871283109F030E0431711F02CE0822745
:1010A00030916E0230FF10C051E0282F21712130A5
:1010B00009F050E041E0282F2871283009F040E085
:1010C000541711F029E0822731FF10C041E0282F8A
:1010D0002171213109F040E031E0282F28712831B9
:1010E00009F030E0431711F029E0822794FD877E54
:1010F000089582389105B9F1B0F48133910509F46E
:101100007DC048F48932910509F46DC08A32910599
:1011100009F47BC008958533910509F45FC08933D4
:10112000910509F10895833E9105D9F138F4803E87
:10113000910529F1823E910579F10895863E910548
:10114000D9F1873E910509F43EC0843E910541F5F1
:1011500020916E0221FF24C080916D0284FD19C090
:1011600087EE90E0089520916D02237009F05AC037
:1011700020916E0223FF14C089E290E0089520912F
:101180006D0220FD38C030916E0230FF09C024FF8F
:1011900043C090E080E0089520916D0222FDF7CFDA
:1011A000089520916D0222FD3AC030916E0230FD0B
:1011B00039C024FFF5CFEDCF20916D0223FFF0CF92
:1011C00024FDE7CFCDCF20916D0223FD2EC03091BD
:1011D0006E0231FFEECF84EE90E0089520916D0213
:1011E00025FFDECFC9CF20916D0225FD21C02091C2
:1011F0006E0223FFD5CF89E390E0D2CF20916D021C
:1012000026FFCECF8AE290E0089520916D0226FF5E
:10121000C7CF81E390E0089583EE90E0089582EED9
:1012200090E0089580EE90E0089586EE90E00895B5
:1012300085E390E008951F93CF93DF930E94790890
:10124000EC01C11582E5D80708F03FC0C11590E553
:10125000D90708F0C2C0C83ED105C0F4C03ED105D0
:1012600080F4C53AD10548F4C430D10550F4C130FA
:10127000D10539F0D0E0C0E004C0CD3CD105D0F3B9
:10128000D065CE01DF91CF911F910895C11580E403
:10129000D80708F053C0C11590E2D90708F0B7C0CD
:1012A000C11581E0D80730F38D2F0E942A08182F2E
:1012B000CE0199270E947908C12FD0E0DC2FCC27DE
:1012C000CC27DF71C82BD92BDCCFC03892E5D907EA
:1012D000A8F4C03682E5D80708F063C0C03492E5B0
:1012E000D90708F049C0C03282E5D80788F1CF712C
:1012F000D0E0DC2FCC27C16FD06AC3CFC03C92E5D1
:10130000D90780F48C2F8F71C03AD24508F45EC0A3
:101310000E942A08C82FD0E0DC2FCC27CC27DF7111
:10132000D062AFCFC03E82E5D80708F0A3CFDC2F54
:10133000CC27CC27DF71C06FD06AA3CFCE0199270D
:101340000E947908CC27DF70C82BD92BD06A99CF9F
:101350002C2F2695269590E2299F900111248C2F01
:101360008370C1E0D0E002C0CC0FDD1F8A95E2F7A8
:10137000C22BD32BDD6885CF2C2F26952695277081
:1013800080E2289F900111248C2F8370C1E0D0E06F
:1013900002C0CC0FDD1F8A95E2F7C22BD32BDC688D
:1013A00070CF2C2F26952695277090E2299F9001CB
:1013B00011248C2F8370C1E0D0E002C0CC0FDD1F60
:1013C0008A95E2F7C22BD32BDA685BCFC82FD0E027
:1013D000DC2FCC27C46FD06A54CF8C2F8F710E9422
:1013E0002A0855E0D695C7955A95E1F7CF70D0E019
:1013F000DC2FCC27282F30E084FF05C044E0220FEB
:10140000331F4A95E1F7C22BD32BD0693ACF8D2FEA
:101410008F710E942A08182FCE0199270E947908FF
:10142000C12FD0E0DC2FCC27CC27DF71C82BD92BE4
:1014300077CF80959091C90398239093C90308951D
:10144000809119049091E003981301C008958F5F73
:101450008770FACF9A3080F5883070F548E0949F15
:1014600090011124820F932F911D682F677023E044
:10147000969587952A95E1F7FC01EE0FFF1FE80F7F
:10148000F91FE653FE4F50E040E080E0219130E04C
:10149000062E02C0369527950A94E2F7217033276D
:1014A000042E01C0220F0A94EAF7822B4F5F5F4F90
:1014B0004330510559F7089580E008959A3098F522
:1014C000883088F548E0949F90011124820F932F73
:1014D000911D282F277041E001C0440F2A95EAF79B
:1014E00023E0969587952A95E1F7FC01EE0FFF1F03
:1014F000E80FF91FE653FE4F90E080E070E0519155
:10150000DF0111979B01082E02C0369527950A949A
:10151000E2F7217021952527242325272C93019676
:101520008330910561F70895809373030895909136
:10153000730321E030E0F90101C0EE0F8A95EAF76C
:10154000D90102C0AA0FBB1F6A95E2F7EA2B01C0BE
:10155000220F4A95EAF7892F8E23E81305C0292B1D
:10156000822F0E94940A089520952923F9CF21E023
:1015700030E001C0220F8A95EAF72095809173032D
:1015800082230E94940A08959091A0028095892355
:101590008093A002282F277069F4891759F0909141
:1015A0006E0292FF07C08695869586950E94B70ABF
:1015B0001092A002089521E030E001C0220F8A9528
:1015C000EAF780917303822B0E94940A0895809316
:1015D000F9010895982F92959F7011F0892F94E04A
:1015E000282F2695269511F09E5F822F869509F06B
:1015F0009F5F892F0895B0E0A0E0E1E0FBE00C944C
:10160000E132FC01EB0190918703911101C094E05C
:101610004081518191509A01092E02C0359527953C
:101620000A94E2F7B901092E02C0660F771F0A94E7
:10163000E2F7461B570B51834083428153818A0155
:10164000092E02C0159507950A94E2F7B80102C069
:10165000660F771F9A95E2F7461B570B5383428319
:1016600021387FEF37077CF02038310574F421955D
:101670002D8301388FEF180754F0802F00381105A3
:101680003CF08FE705C021E8F2CF2FE7F0CF81E8EB
:1016900081958C830E94D9062D81211103C02C8154
:1016A0002223B9F0609388037093890380938A039F
:1016B00090938B0380918C039BE0980F973120F4DB
:1016C000080F00938C031D82CDB7DEB7E8E00C94C1
:1016D000FD32C0908803D0908903E0908A03F09097
:1016E0008B036C197D098E099F096436710581058C
:1016F000910500F310928C03DDCFCF93C82F80911A
:1017000082038C1751F00E94D90660938303709373
:1017100084038093850390938603C0938203CF91C3
:10172000089580917403F901808308958F708A3041
:1017300010F4805D0895895A0895382F20E287FFBC
:1017400002C031952DE24AE0832F642F0E941A33A4
:10175000905D9093C30181110BC02093C20120E2E0
:101760002093C10120E22093C00180EC91E0089514
:10177000642F0E941A33905D9093C201832F64E618
:101780000E941A33882361F3805D8093C101EBCFFF
:101790009C01860F971F37FD07C077FD04C097FF98
:1017A00002C08FEF9FE7089577FFFDCF97FDFBCF36
:1017B00080E090E80895E82FE295EF70F0E031A125
:1017C000282F2F7081E090E001C0880F2A95EAF75A
:1017D000382B31A392A18095892382A30895E82F05
:1017E000E295EF70F0E031A1282F2F7081E090E0BA
:1017F00001C0880F2A95EAF7982F9095932391A31B
:1018000092A1892B82A30895B0E0A0E0EAE0FCE079
:101810000C94E1327C016B018091250601E010E01F
:101820008A3010F40AE010E0C1E0D0E06BE276E02C
:10183000C701F6010995811104C021960C171D07F7
:101840002CF4CDB7DEB7E8E00C94FD32CC9F9001CC
:10185000CD9F300D300D112490E080E045E34A9596
:10186000F1F70000019682179307C1F7DFCF0F93BE
:101870001F93CF93DF938B01EA019091D6039430AD
:1018800061F58093E9008FEF9091E800815095FD1C
:1018900006C095ED9A95F1F700008111F5CF809182
:1018A000E80085FF1AC00E948805811111C080914F
:1018B000E80085FD06C08091E8008E778093E800FF
:1018C000F2CFF80181918F018093F100219779F790
:1018D0008091E8008E778093E800DF91CF911F918F
:1018E0000F91089546E050E0BC0184E00E94370C5F
:1018F0000895CF93DF93EC0148E050E0BC0181E014
:101900000E94370C88E0FE01ACECB3E001900D9230
:101910008A95E1F7DF91CF910895609177018091E9
:10192000670380FF20C08091760143E0849FC0015F
:1019300011248F559D4F539A2BB1277F3BB13860AF
:101940005FB7F894FC01649FE00DF11D1124BF0105
:1019500068177907D1F45FBF8FE594E00197F1F73D
:1019600000C000000895809178019091790123E0F2
:10197000829FF0011124EF55FD4F8917A0F61182C7
:10198000108212828F5F3396F8CFFC014191CF0114
:10199000E8E03BB9000000C047FF2BB9440F00004E
:1019A00000C000C000C02BB900C0EA9591F7D0CFAD
:1019B0009091670390FF0EC090917801209179017A
:1019C00033E0939FF0011124EF55FD4F921718F06B
:1019D0000E948D0C08958183608342839F5F3396BC
:1019E000F5CFA3E0B0E0E7EFFCE00C94E5328C012A
:1019F0008091720381110AC09E012F5F3F4F44E620
:101A00006FEF0E941E078A8180937203F801648140
:101A1000613069F08091720340E0662361F040E03C
:101A2000623011F44091720380E060E004C0609184
:101A3000720340E080E00E94D80CF801848190E0BD
:101A4000019663E070E00E94283384832396E4E0EB
:101A50000C940133E7E6F3E080818E7F80830E945F
:101A60000107EFE6F3E08281816082830E948D0CA2
:101A700008958091FC01811119C082E390E02091CA
:101A8000E30027FD10C0EFE3FCE93197F1F700C058
:101A900000000197A1F782E08093FC010E94690594
:101AA0001092D60303C081E08093FC0181E0909105
:101AB000FC01913011F080E0089508950E94390DE5
:101AC000882359F0E091C103F091C203309729F0C7
:101AD0000190F081E02D0995089580E008950F931D
:101AE0001F930E94390D882329F00E94D9061F9167
:101AF0000F9108950E94D906009167021091680223
:101B00002091690230916A02600F711F821F931F3A
:101B1000EECF26982E9A249A2C9885E08A95F1F794
:101B2000000083B124982C9A90EA9A95F1F790E0FE
:101B300026E0959587952A95E1F780959095817097
:101B40000895CF9390919B0280919402981323C0A3
:101B500080919C02882321F09091950289131BC0EB
:101B600080919D02882321F090919602891313C0E1
:101B700080919F02882321F09091980289130BC0D5
:101B800090919E02992329F081E0209197022913D8
:101B900003C080E001C081E0C82FC17080FF0FC08A
:101BA000E091C103F091C203309749F082E0809345
:101BB0009A020480F581E02D8AE992E009959091DE
:101BC0009B0286E0EAE9F2E0DF01282F1D922A95C8
:101BD000E9F790939B02A3E9B2E001900D928A95F8
:101BE000E1F781E0C11103C0911101C080E0817073
:101BF000CF9108952FE2280F283078F481E090E00B
:101C000001C0880F2A95EAF720919B02662331F0E4
:101C1000822B80939B020E94A10D089580958223C0
:101C2000F8CFCF93DF93682F81E06A3019F06D30E1
:101C300031F480E00E949F0EDF91CF910895809152
:101C400023069091240626E0FC01ADE1B6E0019068
:101C50000D922A95E1F7603E08F458C026E0FC0199
:101C600011922A95E9F7C0912306D091240646E007
:101C700050E0BE018DE196E00E9495339E012D510A
:101C80003440892B41F1C90145E0969587954A95E5
:101C9000E1F741E050E0BA0102C0660F771F8A9574
:101CA000E2F7CB0160911B0470911C04862B972BEB
:101CB000B9016B5F7F4FE5E076956795EA95E1F7AF
:101CC00002C0440F551F6A95E2F7842B952B909321
:101CD0001C0480931B042A5F3F4F40911A04642F19
:101CE00070E0C9010E94C332481B463010F4240F33
:101CF000311D211572E0370710F030E020E0235E3F
:101D00003B4F309324062093230696CFF6E06F9F37
:101D1000B00111246B5E7A4F46E050E00E947F33A1
:101D2000A2CFCF93DF93EC01FE018491811103C018
:101D3000DF91CF9108950E94110E2196F5CFCF9398
:101D4000382FE0912306F0912406ED51F4402091C4
:101D50001A04622F70E0CF010E94C332281B822F29
:101D6000332361F066E00E940E33C82FC15010F497
:101D7000CF91089580E20E94110EF8CF9F01280FA5
:101D8000311D2115324018F080E0F0E0E0E08E0FC8
:101D90009F2F911D835E9B4F909324068093230673
:101DA000E7CF8091C9039091F801892B8093AE0110
:101DB0009091F701992391F0892B8093AE0120E057
:101DC00080EB91E0FC013191CF0131112F5FF1E007
:101DD000863B9F07B9F721111092F70148E050E0C8
:101DE0006FEE71E08EEA91E00E949533892BA9F0A5
:101DF00088E0EEEAF1E0AFEEB1E001900D928A9555
:101E0000E1F7E091C103F091C203309731F0028015
:101E1000F381E02D8EEA91E009950895E0EBF1E081
:101E200086E0DF011D928A95E9F71092F8010E9481
:101E3000D10E0895AAE2B0E0E0E2FFE00C94E632B1
:101E400088ED93E02091F100DC012D93CD01B3E00A
:101E5000803E9B07B9F78091D903833009F472C0A3
:101E6000B8F4813009F449C0823009F4B5C08091DA
:101E7000E80083FF8DC28091D8039091D9039A30F6
:101E800008F086C2E92FF0E0EB5FFB4C0C943C338A
:101E90008A3009F490C08B3009F471C0893039F769
:101EA0008091D803813219F78091DC039091DD0392
:101EB000009711F00297D9F68091E800877F809310
:101EC000E8008091E80082FF38C09091F300809193
:101ED000F200029731F48091F100813011F08630E8
:101EE00021F48091F1008093CB038091E8008B77FF
:101EF0008093E8000E94B905BACF8091D803813A57
:101F000009F0B5CF8091E800877F8093E800809149
:101F1000DC039091DD03892B61F468E08CEC93E0A5
:101F200070E00E9465068091E8008B778093E8005E
:101F30009ECF60E090E080E0F3CF8091D6038111E6
:101F4000C0CF95CF8091D803813A09F090CF80918E
:101F5000DC039091DD03892B09F089CF8091E800A3
:101F6000877F8093E8008091E80080FFFCCF80911C
:101F700083018093F1008091E8008E77B9CF809142
:101F8000D803813209F073CF8091DC039091DD0397
:101F9000892B09F06CCF8091E800877F8093E8005F
:101FA0000E94B9058091DA03809383011092C903DE
:101FB0000E940E0F5CCF8091D803813209F057CF79
:101FC0008091E800877F8093E8000E94B9058091A6
:101FD000DB038093CA034BCF8091D803813A09F089
:101FE00046CF8091E800877F8093E8008091E800E9
:101FF00080FFFCCF8091CA03BCCF803899F0823833
:1020000009F0C6C18091DC038F70873008F0C0C131
:102010008093E9008091EB0085FB882780F910927E
:10202000E90006C08091D4039091D503911182609C
:102030009091E800977F9093E8008093F1001092D0
:10204000F1008091E8008E779FC1882309F48DC14B
:10205000823009F09DC18091DA03811190C1809195
:10206000DC038F702FEF280F263008F091C180938A
:10207000E9002091EB0020FF82C1933031F4809180
:10208000EB0080628093EB007AC19091EB0090614D
:102090009093EB0021E030E001C0220F8A95EAF72F
:1020A0002093EA001092EA008091EB008860EACF6A
:1020B00081116EC11091DA031F778091E30080785F
:1020C000812B8093E3008091E800877F8093E80074
:1020D0000E94B9058091E80080FFFCCF8091E30069
:1020E00080688093E30082E0111183E08093D6033F
:1020F0004FC18058823008F04BC12091DA033091F3
:10210000DB032C3DE3E03E07A1F583E08A838AE20E
:1021100089834FB7F894DE01139620E03EE051E248
:10212000E32FF0E050935700E49120FF03C0E295C5
:10213000EF703F5FEF708E2F90E0EA30C0F0C796EF
:102140008D939D932F5F243159F74FBF8091E80005
:10215000877F8093E8006AE270E0CE0101960E94DA
:1021600065068091E8008B778093E80011C1C096E6
:10217000E7CF8091DC039091DD03432F5527433057
:10218000510509F44AC078F54130510509F47AC087
:102190008BE590E0E0E8F4E04230510509F0F8C04A
:1021A0002091E800277F2093E8002091DE03309102
:1021B000DF038217930708F49C0140E021153105E5
:1021C00009F065C0411163C08091E80082FDC9CF6C
:1021D0008091D603882329F2853019F28091E80096
:1021E00083FFF2CFBECF4132510509F43CC04232E9
:1021F000510509F0CDC08330910508F0C9C0FC013C
:10220000EE0FFF1FE156FE4F0190F081E02D845646
:102210009E4FDC018C9190E01AC0332721303105AC
:10222000D1F02115310561F02230310509F0B0C03F
:10223000EDEEF4E0E4918E2F90E0EDEEF4E007C0D7
:10224000E1E1F5E0E4918E2F90E0E1E1F5E0009727
:1022500009F49EC0A5CFEDEFF4E0E4918E2F90E05D
:10226000EDEFF4E0F4CF8330910508F091C0880FD2
:10227000991FFC01EB55FE4F0190F081E02D89E0A4
:1022800090E08ECF82E190E0EBEDF4E089CF809199
:10229000D603882309F465CF853009F462CF809195
:1022A000E80083FD5ECF8091E80082FD8DCF8091B4
:1022B000E80080FF83CF9091F3008091F200211518
:1022C000310519F08830910550F041E0089709F088
:1022D00040E08091E8008E778093E8006FCF4491D2
:1022E0004093F1003196215031090196E8CF8038B2
:1022F00009F04EC08091E800877F8093E8008091CC
:10230000D7038093F1009DCE811142C01091DA0372
:102310001230F0F58091E800877F8093E8001093F9
:10232000D7030E94B905112311F084E005C0809104
:10233000E30087FDFACF81E08093D60342E061ECB1
:1023400081E00E94D80542E261EC84E00E94D80559
:1023500042E261EC82E00E94D80542E260EC83E058
:102360000E94D8058091D60313C08091DA03813092
:1023700079F481E0933009F080E08093D5031092E6
:10238000E9008091E800877F8093E8000E94B9050A
:102390008091E80083FF0AC08091E800877F8093E6
:1023A000E8008091EB0080628093EB00AA96E3E066
:1023B0000C9402331092C9030E940E0F2FEF84E396
:1023C0009CE0215080409040E1F700C0000088E18F
:1023D0009AE00FB6F894A895809360000FBE909392
:1023E0006000FFCF882321F00E94190A0E94D10EBD
:1023F0000895882339F09091C903982B9093C903CD
:102400000E94D10E0895882349F19CEF980F913ACC
:1024100080F4E0EBF1E026EB31E09191891303C009
:10242000DF0111971C922E173F07B9F70E94D10EBA
:10243000089590E2980F983050F4877091E001C0B1
:10244000990F8A95EAF7892F0E94190AEFCF93E333
:10245000980F933118F460E00E94FA0D08950F93DD
:102460001F93CF93C82F882341F18CEF8C0F813AB3
:10247000B0F500EB11E086EB91E0F8012191C21775
:1024800001F18E179F07D1F7EFEF80E0D8019D9102
:102490008D01C91781F0EF3F19F4911101C0E82FA8
:1024A0008F5F863099F7EF3F31F00E2E000CFF0B57
:1024B000E255FE4FC2830E94D10ECF911F910F9122
:1024C0000895E0EBF1E02191C21303C0DF01119701
:1024D0001C928E179F07B9F70E94D10ED5CF80E2CC
:1024E0008C0F883068F4C77021E030E001C0220F03
:1024F000CA95EAF78091C903822B8093C903DBCF89
:1025000083E38C0F8331C8F661E08C2F0E94FA0DB3
:10251000D4CF1F93CF93DF93182FEB010E942F127C
:102520008FE99FE00197F1F700C000002197C1F704
:10253000812F0E940312DF91CF911F9108950F9375
:102540001F93CF93DF93EC01FC0101900020E9F78A
:102550008F0101501109C017D10728F0DF91CF91E9
:102560001F910F91089589910E94110EF4CFCF937E
:10257000DF93C9EBD2E060E0CE010E94CF33219619
:10258000C11584E0D807B9F7DF91CF9108951F9363
:10259000CF93DF93122F8430E0F46A30D0F44830C8
:1025A000C0F490E1699FE001112450E0440F551FF1
:1025B000C40FD51F90EA899FC00DD11D1124632F30
:1025C000CE01C9960E94CF33612FCE01CA960E94D8
:1025D000CF33DF91CF911F910895EF92FF920F9328
:1025E0001F93CF93DF93C0E080EEE82E83E0F82EB8
:1025F000D0E01CC0402F21E030E0C11108C0F8013C
:10260000EE0FFF1FEE0DFF1D859194919C016D2F24
:102610008C2F0E94C7120F5F1F4F0830110551F712
:10262000DF5F80E1E80EF11CDA3019F010E000E025
:10263000E1CFCF5FC430C1F6CDB7DEB7E6E00C9492
:10264000FF3288E390E00E94CF330895CF93C82FE4
:102650006FEF811163E285E390E00E94CF336FEF6B
:10266000C11161E086E390E00E94CF336FEFC111AA
:1026700066E187E390E00E94CF33CF91089580E038
:102680000E94261360E070E0CB010E9421130E949B
:10269000ED120E94B71281E00E94261308950F9355
:1026A0001F93CF93DF93843030F56A3020F54830A4
:1026B00010F520E1629F8001112450E0440F551F66
:1026C000040F151F30EA839F000D111D1124C8014E
:1026D000C9960E94AB33C82FD0E0DC2FCC27C801AD
:1026E000CA960E94AB339E01282BC901DF91CF917E
:1026F0001F910F91089590E080E0F8CF462F7A3037
:1027000040F4683030F4843020F4672F0E944F1377
:10271000089590E080E00895CF92DF92FF920F93AA
:102720001F93CF93DF936C01009173038091F901A4
:10273000082BC3E0D0E010E0FC2EC8010C2E02C034
:10274000959587950A94E2F780FD0CC02197A0F734
:10275000F12C8F2DDF91CF911F910F91FF90DF9082
:10276000CF900895B6018C2F0E947E130E941B0902
:10277000019761F3EECFCF93DF93EC010E948C13AE
:10278000BE010E947E130E941B09DF91CF91089524
:10279000FC0124812223C1F0808191810E94BB131E
:1027A00092959F70963091F058F4925F9F7092309E
:1027B00058F4803F19F030F4883E30F481E00895F9
:1027C0009A5FF4CF843FD1F380E00895883EB0F360
:1027D000813FD1F7F3CFA6E0B0E0E1EFF3E10C9455
:1027E000E63249835A8349815A819923A1F02223F1
:1027F00091F0CA010E948C13182F682F89819A8149
:102800000E945E0A69817A81812F0E947E1326963A
:10281000E3E00C940233CA010E942A0A182FF2CF77
:1028200088E390E00E94AB33682F70E090E080E096
:10283000089585E390E00E94AB33833289F486E308
:1028400090E00E94AB33813059F487E390E00E941E
:10285000AB3391E0863109F090E0892F81700895C3
:1028600080E0FCCFB0E0A0E0E8E3F4E10C94E132DA
:102870006C017B0164E670E088E70E9421308C01E6
:10288000E601EC0CFD1C17FD0BC0FE01849164E613
:1028900070E00E948D308C012196CE15DF0599F7EE
:1028A0000E94033181E00115110509F080E0CDB7E8
:1028B000DEB7E8E00C94FD328091BD039091C00337
:1028C000911103C091E089270895882369F062E09F
:1028D00070E081E393E00E943214811103C0809183
:1028E000BD0308951092BD038091BD03EBCFCF933C
:1028F000C091BD038091C0038823D1F00E94D90606
:10290000605A75418F4F9F4F6093B9037093BA031C
:102910008093BB039093BC03C11108C062E070E0D8
:102920008FE293E00E943214811105C0C091BD0373
:102930008C2FCF91089581E08093BD03F7CFB0E055
:10294000A0E0E5EAF4E10C94DD3249015A016B01A3
:102950007C010E9408078401A4016A2D7B2D88E078
:1029600090E00E94E13394014A2D5B2DB601C7012E
:1029700000E20E946433622F84E290E00E94CF3331
:10298000CDB7DEB7ECE00C94F932A3E0B0E0EBECAD
:10299000F4E10C94E332F82E062F142FE22E8091EE
:1029A000670380FF42C0909168039F1108C0909117
:1029B0006903961304C090916A03941729F09091CB
:1029C0007103926090937103E82FE695F0E0EF5663
:1029D000FE4F908190936F038E7F823081F4412F60
:1029E000153608F044E69E012F5F3F4F602F8F2D74
:1029F0000E941E074B8169818A810E94D80CF09247
:102A000068030093690310936A03EE2071F020912C
:102A1000670360916B0370916C033F2DA801809157
:102A20006D0390916E030E949F142396E6E00C9430
:102A3000FF32E7E6F3E043812AE0421B08F440E07E
:102A400021E0628181810E94C5140895E7E6F3E0E8
:102A500043812AE0420F08F44FEF21E06281818137
:102A60000E94C5140895E7E6F3E0628121E1621B4C
:102A700008F460E021E0438181810E94C51408953B
:102A8000E7E6F3E0628121E1620F08F46FEF21E0F5
:102A9000438181810E94C5140895E7E6F3E08181B6
:102AA00021E04381628181510E94C5140895E7E6C7
:102AB000F3E0818121E0438162818F5E0E94C51431
:102AC000089580916B03882319F0815080936B03E4
:102AD00020916703309168034091690350916A0324
:102AE00060916B0370916C0380916D0390916E0304
:102AF0000E949F14089580916B03833018F48F5FB8
:102B000080936B03209167033091680340916903C0
:102B100050916A0360916B0370916C0380916D0317
:102B200090916E030E949F140895E7E6F3E083E01E
:102B3000808311828FEF828384E683831482AFE6E1
:102B4000B3E012968C911297836012968C937581E4
:102B500023E030E04FEF54E660E0868197810E94E9
:102B60009F14089590916E0292FB222720F9281756
:102B700079F080FB92F990936E0260916D027091F2
:102B80006E0284E090E00E94ED3382E00E94C40A6D
:102B9000089590E080E00E94B933863E9E4F19F47C
:102BA0000E941914089580E00895B0E0A0E0EBEDD4
:102BB000F5E10C94E2327901C82F880FDD0B411545
:102BC0005105A9F0FE0193E0EE0FFF1F9A95E1F782
:102BD000E65FFE4F8181928183509E4F208130E0DD
:102BE0004217530708F49A01A9010E94A233CE01AB
:102BF0000E944D32D82E8823D1F001151105B9F06D
:102C000083E0CC0FDD1F8A95E1F7FE01E65FFE4F02
:102C1000438150E00417150708F4A801C65FDE4F92
:102C20006C817D8163507E4FC7010E94A2338D2D40
:102C3000CDB7DEB7E7E00C94FE32A5E0B0E0E3E20A
:102C4000F6E10C94DF328D83E62E5A01F22E6801F4
:102C5000809125068A3028F080E02596EAE00C94E1
:102C6000FB328D818830C4F31A8219828A836B8388
:102C70002C8363E070E0CE0102960E94E506898312
:102C8000E0923201F092450110E000E030E020E0F7
:102C900044E050E0BE016F5F7F4F84E00E94D51595
:102CA0008823D1F24E2D50E030E020E0B50185E0E0
:102CB0000E94D515882381F230E020E041E050E009
:102CC000BE016B5F7F4F86E00E94D515882321F2FD
:102CD0000F2D10E0960150E040E070E060E087E0EA
:102CE0000E94D515BACFABE0B0E0E9E7F6E10C946D
:102CF000E53288E0E7E6F3E0DE01119601900D92FF
:102D00008A95E1F780916F0390917003A091710310
:102D100089879A87AB872B85409163025091640223
:102D200060916502709166023FB7F8948091C40388
:102D30009091C503A091C603B091C7033FBF841B08
:102D4000950BA60BB70B84369105A105B10510F4C0
:102D50002223C1F010E000E030E020E04BE050E042
:102D6000BE016F5F7F4F83E00E94D515882369F015
:102D70000E94D90660936302709364028093650297
:102D8000909366021092710381E02B96E4E00C941C
:102D90000133A4E0B0E0EFECF6E10C94E5324091B1
:102DA0005F025091600260916102709162022FB7E0
:102DB000F8948091C4039091C503A091C603B0918B
:102DC000C7032FBF841B950BA60BB70B11E08436EE
:102DD0009105A105B10518F10E946F0D6E5F7F4F3F
:102DE0008F4F9F4F69837A838B839C8310E000E031
:102DF00030E020E044E050E0BE016F5F7F4F82E0B2
:102E00000E94D515182F882351F00E94D90660938F
:102E10005F02709360028093610290936202812F3F
:102E20002496E4E00C940133A6E0B0E0EAE1F7E197
:102E30000C94E3327B0101E010E09E012A5F3F4FDA
:102E400050E040E070E060E080E00E94D515182F6F
:102E5000882309F453C040915B0250915C02609159
:102E60005D0270915E022FB7F8948091C403909137
:102E7000C503A091C603B091C7032FBF841B950B58
:102E8000A60BB70B84369105A105B10548F465E0A2
:102E900070E08EEF91E00E94E5069E81891771F146
:102EA00005E010E09E012F5F3F4F50E040E070E0F2
:102EB00060E081E00E94D515082F65E070E08EEF9C
:102EC00091E00E94E50611E09E81981310E0102326
:102ED00001F10E94D90660935B0270935C028093BB
:102EE0005D0290935E0285E0FE013196A6E5B2E0B8
:102EF00001900D928A95E1F711E00BC085E0EEEFAD
:102F0000F1E0DE01119601900D928A95E1F7111121
:102F1000EACF85E0E6E5F2E0D70101900D928A95CF
:102F2000E1F7812F2696E6E00C94FF320E94890D8E
:102F30008093090180910901882359F0109276014C
:102F400080E2809377010E94390D81110E946131E6
:102F5000089580E280937601F4CFA8E0B0E0E3EB3F
:102F6000F7E10C94E73266EE7EEF90E080E00E949D
:102F7000ED3360E082E090E00E94CF3360E083E0D8
:102F800090E00E94CF331092F90160E074E184E098
:102F900090E00E94ED3360E086E090E00E94CF3345
:102FA0006FEF87E090E00E94CF3340E050E0BA013D
:102FB00088E090E00E94E13360E084E290E00E94CB
:102FC000CF3360E087E190E00E94CF3360E08CE097
:102FD00090E00E94CF3360E08DE090E00E94CF331C
:102FE00019821A821B821C821D821E821F821886F1
:102FF00048E050E068E170E0CE0101960E94BF33E6
:1030000040E050E0BA0180E290E00E94E13380E0CD
:103010000E9426130E943F1340E050E0BA018FE067
:1030200090E00E94E13340E050E0BA0183E190E09B
:103030000E94E1332896E2E00C94033328E030E06C
:1030400043E060E087EF0E94492F0895ACE0B0E0D4
:10305000ECE2F8E10C94E1324F83588769877A8774
:103060008B879C8780917403882399F00E941E1897
:1030700080E50E94C12F2AEB2A95F1F700C00E943B
:10308000D92F887899278038910509F484C00E9447
:10309000F12F0E94390D882309F468C00E94D906D7
:1030A0000091C5011091C6012091C7013091C8015E
:1030B0006B017C01C01AD10AE20AF30A970186016A
:1030C000083011052105310508F450C06093C50191
:1030D0007093C6018093C7019093C8010091830348
:1030E000109184032091850330918603601B710B3E
:1030F000820B930B623371058105910580F4109268
:1031000079031092780310927B0310927A03109245
:103110007D0310927C0310927F0310927E03109126
:1031200082030E94890D112309F462C0BE01695F08
:103130007F4F88E793E00E94FB0A00918203109181
:1031400074030E94890D011709F47CC0BE01695FF8
:103150007F4F8CE793E00E94FB0A86E0FE013796E2
:10316000A1E9B3E001900D928A95E1F786E0FE01B6
:103170003796DE01119601900D928A95E1F729812B
:103180003A814B815C816D817E8180E090E02C965C
:10319000E8E00C94FD320E94D92F0E94D92F7C01C7
:1031A0000E94D92F20E0E22AF82A0E94D92F8C0110
:1031B0000E94D92F20E0022B182B0E94F12FF894A7
:1031C000B70180917803909179030E94C80B909386
:1031D000790380937803B80180917A0390917B03FF
:1031E0000E94C80B90937B0380937A03789451CF0D
:1031F000809178039091790381382FEF9207D4F072
:1032000080389105CCF48195898780917A039091DB
:103210007B0381382FEF92078CF08038910584F47E
:103220008A87109279031092780310927B03109290
:103230007A0383CF81E8E7CF8FE7E5CF81E8F0CF4E
:103240008FE7EECF80917C0390917D0381382FEF43
:103250009207D4F080389105CCF4819589878091CC
:103260007E0390917F0381382FEF92078CF0803896
:10327000910584F48A8710927D0310927C0310924A
:103280007F0310927E0369CF81E8E7CF8FE7E5CF18
:1032900081E8F0CF8FE7EECFCF93DF93D82FC62F03
:1032A0000E941E188D2F80680E94C12F8C2F0E94B3
:1032B000C12F0E94F12F8FEC92E00197F1F700C02F
:1032C0000000DF91CF910895682F843208F063E207
:1032D0006093800391E0909381039091740399230C
:1032E00059F06150811101C064E08FE00E944C19D7
:1032F00060E080E50E944C190895FB0180810E94E6
:103300006419089590918003911101C095E0282FD0
:10331000880F330BA901490F511DCA011816190650
:1033200014F081E090E00E9464190895CF93C82FB3
:103330000E941E188C2F0E94C12F8FE792E00197E8
:10334000F1F700C000000E94D92FC82F0E94F12F72
:103350009AE69A95F1F700C08C2FCF910895CF93FC
:10336000DF930E94412F879A0E941E186AE58AE324
:103370000E944C192FEF80E792E02150804090404E
:10338000E1F700C0000082E00E94961983E00E94ED
:10339000961984E00E94961985E00E94961986E0AD
:1033A0000E94961960E080E10E944C1980E00E9422
:1033B0009619D82F81E00E949619C82F0E94F12FEC
:1033C000D23419F481E0C13009F080E0817080933B
:1033D0007403882341F064E08FE00E944C1960E0A0
:1033E00080E50E944C19DF91CF9108951F920F92B2
:1033F0000FB60F9211242F933F934F935F936F93C8
:103400007F938F939F93AF93BF93CF93DF93EF936C
:10341000FF93D091E900DF708091EC00C82FC1705C
:1034200080FDC0E81092E9008091F000877F8093D2
:10343000F00078940E941A0F1092E9008091F00039
:1034400088608093F000CD2BCF70C093E900FF918E
:10345000EF91DF91CF91BF91AF919F918F917F912C
:103460006F915F914F913F912F910F900FBE0F90F1
:103470001F9018951F920F920FB60F9211242F9341
:103480003F934F935F936F937F938F939F93AF93EC
:10349000BF93EF93FF938091E10082FF09C0809179
:1034A000E20082FF05C08091E1008B7F8093E10004
:1034B0008091DA0080FF24C08091D80080FF20C076
:1034C0008091DA008E7F8093DA008091D90080FFAE
:1034D0009DC080E189BD82E189BD09B400FEFDCFB8
:1034E00081E08093D6038091C803811109C00E94B6
:1034F00069050E940A068091E20084608093E200E0
:103500008091E10080FF17C08091E20080FF13C02E
:103510008091E2008E7F8093E2008091E2008061E2
:103520008093E2008091D80080628093D80019BC1B
:1035300085E08093D6038091E10084FF2BC08091C9
:10354000E20084FF27C080E189BD82E189BD89B5A1
:10355000982F917080FFFBCF8091D8008F7D809352
:10356000D8008091E1008F7E8093E1008091E2009D
:103570008F7E8093E2008091E20081608093E20080
:103580008091D703882309F447C084E08093D60351
:103590008091D6038091E10083FF27C08091E200F3
:1035A00083FF23C08091E100877F8093E10082E068
:1035B0008093D6031092D7038091E1008E7F809391
:1035C000E1008091E2008E7F8093E2008091E20032
:1035D00080618093E20042E060E080E00E94D805D4
:1035E0008091F00088608093F000FF91EF91BF918F
:1035F000AF919F918F917F916F915F914F913F918B
:103600002F910F900FBE0F901F90189519BC10921C
:10361000D6031092C80374CF8091E30087FD93E036
:103620009093D603B5CF78941F921FB61F921124A2
:103630008F939F93AF93BF938091C4039091C503E1
:10364000A091C603B091C7030196A11DB11D80933F
:10365000C4039093C503A093C603B093C703BF915F
:10366000AF919F918F911F901FBE1F9018959C0145
:103670004FB7F8948091C4039091C503A091C603FD
:10368000B091C7034FBF821B930B08952FB7F894D7
:103690008091C4039091C503A091C603B091C70364
:1036A0002FBF08952F923F925F926F927F928F92D9
:1036B0009F92AF92BF92CF92DF92EF92FF920F93C1
:1036C0001F93CF93DF938091C003882309F4CAC06E
:1036D0008091BE039091BF030E94371BC29708F4EC
:1036E000A2C00E94461B9093BF038093BE038DE14E
:1036F00094E090932406809323060E94390D88233A
:1037000009F4C8C085E393E00E94910E8091730391
:103710000E94EA0A0E94960B0E94110E83E393E036
:103720000E94910E81E00E949F0EC0918D038EE752
:1037300093E00E94910E809190030E94960B0E944C
:10374000110E8AE793E00E94910E80918F030E94F0
:10375000960B0E94110ECC2309F496C087E793E0E4
:103760000E94910E8C2F82958F700E94960B0E9462
:10377000110E8C2F0E94960B0E94110E8CEF8C0F55
:10378000853308F081C083E793E00E94910E8C2F6F
:103790008450990BFC01E25CFC4F84910E94110E55
:1037A0008AE993E00E94910E809193030E949D0B01
:1037B0000E949F128091940381950E949D0B0E940C
:1037C0009F12809196030E949D0B0E949F128091F0
:1037D000950381950E949D0B0E949F1281E993E0C1
:1037E0000E94910E80918003811101C085E00E94AA
:1037F0009D0B01960E949F128BE893E00E94910E10
:1038000080918203811144C080E30E94110E87E8F9
:1038100093E00E94910E80918703811101C084E0A2
:10382000805D0E94110E80911B0490911C04892BD5
:10383000B1F58091BD038823A9F00E94D9060091BB
:10384000B9031091BA032091BB033091BC03601BF4
:10385000710B820B930B6F3F7F4F8F4F9F4710F47D
:103860000E945C14DF91CF911F910F91FF90EF9018
:10387000DF90CF90BF90AF909F908F907F906F9090
:103880005F903F902F90089581E00E949F0E88CF17
:1038900081E3BBCF80EA93E00E94910EC4CF809178
:1038A000C003882331F28091B8038111C2CF0E94F6
:1038B000771420911B0430911C042115310509F463
:1038C000B8CF80E041E050E0082F10E01A01082E48
:1038D00002C0220C331C0A94E2F7B1016223732365
:1038E000672B11F48F5FF0CF9091B70390FF95C0D5
:1038F000880F880F880F80937E0110928101895F65
:1039000080937F0183E08093820124E630E047E0EA
:1039100050E06CE771E088E70E94BB30892B09F02A
:1039200088CFA80125E0440F551F2A95E1F7809123
:10393000B70380FF84C0E7E9F3E080E2DF011D9276
:103940008A95E9F7A8E9B1E004E911E08CE9C82E0D
:1039500081E0D82E97E0592E772473948D91E80159
:1039600029918E01240F352F311D235E3B4FE82F07
:10397000F0E0E956FC4F90E080E0652C681A872C57
:10398000082E01C0880C0A94EAF77901A12CE701FE
:10399000B9907E01B820662D6A196770962E062EA2
:1039A000000C770BDB2D01C0DD0F9A94EAF77195BF
:1039B000619571096770772701C0B6946A95EAF737
:1039C000BD2A6081962E9B289082A39468E0A6125F
:1039D000DECF019631968830910579F6CA16DB065E
:1039E00009F0BCCF04E610E020E230E047E953E004
:1039F00060E488E70E94DC30892B09F01ACFE101EE
:103A0000C095D09580911B0490911C04C823D923A4
:103A1000D0931C04C0931B040CCF8295880F807632
:103A200080937E01980136952795369527952093AA
:103A30008101815E80937F012093820166CF435E86
:103A40005B4F04E610E020E230E0D2CFAEE1B0E020
:103A5000ECE2FDE10C94E63240919A0250919B0217
:103A600060919C0270919D0280919E0290919F02B4
:103A70000E94261820939A0230939B0240939C0246
:103A800050939D0260939E0270939F0286E0EAE944
:103A9000F2E0DE01179601900D928A95E1F786E03B
:103AA000FE013796DE011D9601900D928A95E1F791
:103AB00086E0FE013D96DE01119601900D928A95F9
:103AC000E1F786E0FE013196AAE9B2E001900D929D
:103AD0008A95E1F786E0EAE9F2E0DE015996019085
:103AE0000D928A95E1F786E0FE017996DE01179640
:103AF00001900D928A95E1F786E0FE013796DE018E
:103B0000119601900D928A95E1F786E0FE013196BB
:103B1000DE01539601900D928A95E1F786E0FE0151
:103B20007396DE01179601900D928A95E1F786E073
:103B3000FE013796AAE9B2E001900D928A95E1F76D
:103B400086E0EAE9F2E0DE01179601900D928A958F
:103B5000E1F780916A01882309F445C080916F01E3
:103B6000909170010E94371B20916E012817190651
:103B7000D0F580917101909172010E94371B893CB0
:103B8000910588F18A859985892B9B85892B9C8550
:103B9000892B9885892B91E009F490E0909373012B
:103BA0000E94CB0710917303882351F10E94461B9A
:103BB0009093700180936F011092720110927101C5
:103BC00080916B01111105C0882369F00E94DB0A06
:103BD0000AC0212F30E0082E02C0359527950A949F
:103BE000E2F720FFF3CF0E94A10D81112FC0809139
:103BF00099021092990281706E96E3E00C94023360
:103C000080916B01111118C08111EDCF80916F016E
:103C1000909170010E94371B20916C0130916D01D1
:103C20002817390700F780916B010E94B70A10929C
:103C3000700110926F01D7CF212F30E002C035956F
:103C400027958A95E2F720FFCECFE0CF81E090E084
:103C5000D0CF0E94390D882319F00E94461B089589
:103C60000E946F0DCB01089560916703669570E027
:103C700041E050E08BE791E00E948833892B19F4F2
:103C800081E0809370030E94291E909362038093C9
:103C90006103809171038460809371030895909112
:103CA000670390FF39C09170811137C09260909383
:103CB000670380917103816080937103662391F0A3
:103CC00020916703309168034091690350916A0322
:103CD00060916B0370916C0380916D0390916E0302
:103CE0000E949F1460916703669570E041E050E088
:103CF0008BE791E00E948833892BB1F00E94010785
:103D000081E08093640320E040916A03609169033D
:103D1000809168030E94C5140895833010F0946068
:103D2000C6CF880F982BC3CF0E94341EE9CFE7E699
:103D3000F3E080818160808360E086950E944F1E61
:103D40000895809167038695815009F482E061E0CF
:103D50000E944F1E08958091670386958F5F833080
:103D600008F081E061E00E944F1E0895A8E0B0E0F5
:103D7000ECEBFEE10C94D7328C01DC0114968C91B3
:103D80001497882309F4E1C021E04C9111965C91CD
:103D9000119712966C91129713967C911397159622
:103DA0009C910E94EB137C01F801D580DD2009F481
:103DB00073C197578038910508F06EC1FFE0FE157A
:103DC00008F4B3C08FEF93E00E94AB338111ADC014
:103DD000E9EBAE2EE2E0BE2EE11073C0CE010196FB
:103DE0004C0188E0D4011D928A95E9F77AE0372EDC
:103DF0006501BFEFCB1ADB0AC5010E94AB33898393
:103E00001A82882309F491C0813009F0A2C075019B
:103E1000E2E0EE0EF11CC6010E94AB338A838823D8
:103E200009F483C09FEF980F933008F058C0F3E077
:103E3000AF0EB11CC7010E94AB338B83882309F4FA
:103E400074C01C827401D7012C91222389F2213085
:103E500009F0C3C011968C911197813009F07BC095
:103E60006701B2E0CB0ED11CF701828165E070E002
:103E7000893311F460E570E00E9489127601FFEF4A
:103E8000EF1AFF0A8FE99FE00197F1F700C00000E9
:103E9000AFE9BFE01197F1F700C00000EFE9FFE0E4
:103EA0003197F1F700C000008FE99FE00197F1F72B
:103EB00000C00000AFE9BFE01197F1F700C00000BB
:103EC000C2CFA11424E0B20681F1C5010E94AB3338
:103ED000811101C0EA943FEFA31AB30A7DCF5701C5
:103EE000843009F0AFCF62E0C62ED12C57012FEFFE
:103EF000A21AB20AC7010E94AB33F401EC0DFD1DFA
:103F00008083882391F08C3741F4E2E0F0E0EC0FFD
:103F1000FD1FEC0DFD1D108295CF3FEFC31AD30A94
:103F2000750187E0C816D10409F78091A002877057
:103F300061F0D80115968C91882339F080916E023A
:103F400082FF03C082E00E94C40A2896E2E10C943A
:103F5000F332560177CF823049F46701F2E0CF0E99
:103F6000D11C12968C910E942F1288CF833049F475
:103F70006701B2E0CB0ED11CF70182810E940312CF
:103F80007DCF843021F0FFEFEF1AFF0A78CF129631
:103F90002C91F70132967F0190E080E0A7014F5FFE
:103FA0005F4F2053330B2A30310550F0019708F44E
:103FB00066CFEFE9FFE03197F1F700C00000F6CFE0
:103FC000389EB001399E700D1124C901860F971FCC
:103FD000D70111962C917A01E1CFE22FF0E0E5575D
:103FE000FE4F2490822F86958695869590E0FC0161
:103FF000E558FE4F44902770512C022E02C0559474
:1040000047940A94E2F731E043225524FC01E55934
:10401000FE4F6490712C022E02C0759467940A942E
:10402000E2F7A1E06A227724FC01E55AFE4FC49032
:10403000D12C02C0D594C7942A95E2F7B1E0CB22E7
:10404000DD244114510419F081EE0E942F126114F5
:10405000710419F086EE0E942F12E9E365E070E02A
:104060002E1202C060E570E0822D0E948912611458
:10407000710419F086EE0E9403124114510419F0E4
:1040800081EE0E940312CD2809F4F9CE65E070E0BC
:104090008CE20E948912F3CE80916A01882309F490
:1040A00076C0B0E2EB16B2E5FB0608F059C0E114A9
:1040B000E2E5FE0608F0C2C0E114F0E4FF0608F0F5
:1040C00042C0E11420E2F20608F0E4C030EEE3164C
:1040D000F10450F088EEE816F10408F453C0E1143E
:1040E00091E0F90608F04EC0F8018481882309F4B4
:1040F00049C0C7018D5C9109439708F4B6C00E947E
:10410000CB0781113FC0DD20B9F080916B01209178
:1041100073032111C6C0882309F4CCC0E3E7F1E0A2
:1041200083E0DF011D928A95E9F7EFE6F1E084E094
:10413000DF011D928A95E9F70E94461B9093720158
:10414000809371011FC0E114A0E5FA0608F091C048
:10415000F8018681807F09F09DC08F2D99278FC03F
:10416000B0E8EB16B2E5FB0608F03FC0E0E6EE165D
:10417000E2E5FE0608F062C0F0E4EF16F2E5FF06A5
:1041800008F46AC08091750187FD10927501F09264
:104190008E03E0928D03F8018081918190939003CA
:1041A00080938F03C7019A9581159F4108F085C0C0
:1041B000F701FF27D80115968C91E13DF10548F0F4
:1041C000E93DF10508F47BC0E730BEE7FB0709F4E1
:1041D000AFC0882309F477C0FE57EA30F10508F034
:1041E00072C0E15FFB4C0C943C3320ECE21622E5FC
:1041F000F20640F230EEE31632E5F30608F074CF33
:1042000020916B01C7018F7199272817190609F0B2
:10421000B9CF8D2D0E94B407D80116968C911697B0
:10422000807F803509F0AECF15968C91882361F19F
:1042300080917501815080937501A4CF20916B010D
:10424000C7018F7199272817190609F09BCFD11044
:1042500099CF0E94C20796CF20916B01C7018F7141
:1042600099272817190609F08DCF8D2D0E94B407C4
:1042700089CFC70155E0969587955A95E1F78F70DC
:10428000992720916B01EDCF0E94C20780917501A3
:104290008F5FD1CFD80116968C91807F09F472CFB1
:1042A00023CF30E0082E02C0359527950A94E2F717
:1042B00020FF34CF0E94B70A31CFF7017BCF682FA0
:1042C0008E2F0E94FA0DF8018581811155C38091CE
:1042D000C9038272F701E052F847E531F10508F0B1
:1042E000A4C0E75EFB4C0C943C3380E00E94641950
:1042F000109287031ACE409180035091870350FBA0
:1043000047F95695537060E070E08FE090E00E94AE
:10431000E1330BCE81E00E94821907CE8FEFFBCFF5
:104320008AE0F9CF86EFF7CF9091820381E0892769
:104330000E947D0BFACD80918703811101C084E03A
:104340008F5F18160CF081E0883008F087E08093CA
:104350008703EBCD80918703811101C084E08150F8
:10436000F0CF8091670380FF1EC0282F2E7F2093FF
:104370006703309168034091690350916A0360912B
:104380006B0370916C0380916D0390916E030E949A
:104390009F140E94010780917103816080937103D3
:1043A0000E948D0CC2CD81608093670361E0869589
:1043B0000E944F1EBACD41EA5EE16BEA7EE10E94A7
:1043C000FB06B3CD4BEA5EE161EA7EE1F8CF4DE456
:1043D00055E167E575E1F3CF47E555E16DE475E13A
:1043E000EECF43E355E160E475E1E9CF40E455E108
:1043F00063E375E1E4CF49E155E166E275E1DFCFC2
:1044000046E255E169E175E1DACF41E655E16BE756
:1044100075E1D5CF4BE755E161E675E1D0CF61E0BD
:1044200081E0C6CF61E082E0C3CFF7E7EF16FCE79B
:10443000FF0609F460C028E7E2162CE7F20609F44B
:104440005EC0F8018581E080F180882309F49FC077
:10445000C7010E948C13D82E682FC7010E945E0AE4
:10446000B7018D2D0E947E130E941B097C01882EAE
:10447000D8011596AC90159716969C9092943FE0B3
:1044800093228091A0028770F1F0CA2CAA20E1F05B
:104490008F2D807F803451F080E28E0D883098F02F
:1044A000911004C08F2D807E803269F080916E0261
:1044B00082FF09C082E00E94C40A8091A002877036
:1044C000CC24C3948111C12CBF2CB2942FE0B22212
:1044D000BBE0BB1508F4C3C0EB2DF0E0E25DFB4C84
:1044E0000C943C3381E00E94DB0A43E062E081E00F
:1044F0000E94970A1ACD81E00E94B70AF6CF82E0A7
:10450000FBCF33E0E3163CE7F30671F160F4E1140E
:104510009CE7F906D1F0A1E0EA16ACE7FA0609F04B
:1045200090CF0E94DA11BBE5EB16BCE7FB0669F100
:10453000ECE5EE16ECE7FE06F1F0FAE5EF16FCE727
:10454000FF0609F07ECF81E01DC01092C9030E94D2
:104550000E0F2FEF34E38CE0215030408040E1F724
:1045600000C000000E94C8066FEF7FEF90E080E07F
:104570000E94ED33D6CF80916E0282FB882780F9AE
:1045800091E089270E94B2155CCF80E0FBCFC70184
:104590000E942A0AD82E64CFEF2DEF70DE2E8F2DC9
:1045A000807F19F0D29490EFD922AA20B9F0DD20B3
:1045B00069F080E28E0D883010F0811009C0809182
:1045C000C903D82AD092C9030E94D10E8E2D45C0AE
:1045D0008091F801D82AD092F801F6CF8E2D0E9452
:1045E0000312DD20E1F180E28E0D883010F08110A1
:1045F00004C08D2D0E94190A06C0D0948091F80144
:10460000D822D092F8010E94D10E29C0FF2DFF7050
:10461000DF2E8F2D807F803219F0D29480EFD82248
:10462000882059F021E0821609F481C0AA2009F4FB
:104630008DC0992009F44FC0C9CF80916E0282FDD0
:1046400046C0AA20F1F1DD2039F08091C903D82AB3
:10465000D092C9030E94D10E80E00E942F12AB2D90
:10466000A850BB0B149710F40E945E0DCC20A9F04B
:104670008091A00280FD11C0F80115828695869573
:1046800086950E94DB0AC8010E94B61E8091A00296
:104690008695869586950E94B70A20E0D8014C91B0
:1046A00011965C91119712966C91129713967C91CA
:1046B000139714968C91149715969C910E94EB1366
:1046C00044CC80E00E940312DD2049F292CFAA2060
:1046D000A1F0911004C08D2D0E94F911C0CF31E0DE
:1046E0009312BDCF8091F7019D2D9823D91609F41F
:1046F000B6CFD82AD092F701B2CF9110B0CF8D2D7E
:104700000E94F2119091F7018D2D892329F08D2DB2
:10471000809589238093F7018091C9019D2D98236D
:1047200009F49DCFD094D822D092C90198CFAA2065
:1047300029F085E0891508F492CFCDCF94E0991542
:1047400008F48DCF8D2D0E94F21189CF9920D1F3DD
:10475000A9E38A1209C1BFEFE7EEF3E0B150E040F0
:10476000F040E1F700C000008E2D0E94031277CFC9
:104770006A2D8E2D0E94FA0D72CF8F2D837091F5C8
:10478000A1106DCF4E2D429546954770440F440FB2
:104790008E2D8F70042E01C0880F0A94EAF72E2DFB
:1047A0002071E4FE07C02FE030E001C0220F4A95DF
:1047B000EAF720953F2D369536953370323069F003
:1047C00050F44091F901313029F0822B84230E946A
:1047D000E70A45CF842B822BFACF282B8091F90151
:1047E0008227F5CF8695AA2011F08F2D817088231E
:1047F00009F435CF4E2D429546954770440F440F2E
:104800008E2D8F70042E01C0880F0A94EAF72E2D8A
:104810002071E4FE07C02FE030E001C0220F4A956E
:10482000EAF720953F2D369536953370323069F092
:1048300050F440917303313029F0822B84230E947D
:10484000940A0DCF842B822BFACF282B80917303EF
:104850008227F5CF9F2D9F70F92EAA2029F0892F4E
:104860000E94DB0A8E2D38CF8E2D0E94F2118F2DE3
:104870000E94B70AF4CE8E2DA2EF8A16B1F1A815C8
:1048800070F0B0EF8B16D1F0E1EF8E1691F0AA2008
:1048900009F45EC091109ACE8F2D8F712AC0F3EF6C
:1048A0008F1651F124EF8212F2CF80916E0282FDB9
:1048B0002FC08F2D8F71AA20D9F21BC0AA2081F0A2
:1048C00034E0391508F4CBCE2F2D2F7181E090E024
:1048D00001C0880F2A95EAF7909173038927AFCF1B
:1048E00085E0891508F4BBCEEFCF8F2D8F71A11015
:1048F000BFCF0E94DB0AB3CE80E0AA2009F49FCF8D
:104900009F2D9F7181E001C0880F9A95EAF797CF9C
:10491000AA2099F09F2D9F71F92E892F0E94DB0A02
:1049200080916E0282FF07C0A8E0FA9EC0011124A8
:1049300083608093A0028F2DDCCF81E00E94C40AA7
:10494000B1E0B91508F08BCE82E00E94C40A87CE90
:10495000992079F0893341F4EFEFF7EE23E0E1504D
:10496000F0402040E1F7FECE8FE19EE40197F1F7A1
:10497000F9CE8F2D8F717CCFB7E7EB16BCE7FB0626
:1049800009F4B0CDE8E7EE16ECE7FE0609F0B9CD84
:1049900082E0A9CDCF93DF938091EE01807F09F073
:1049A0004DC08091ED01882309F448C0E0911904BD
:1049B0005091E003C091E901D091E8016091EA01D2
:1049C0007091EB0147E05E17C9F18E2F90E0E49FF4
:1049D000F0011124EF51FC4F2481222391F1489FD3
:1049E000F001499FF00D1124DF01AF51BC4F11962A
:1049F0002C9111972C1325C02C912D1322C01596A4
:104A00002C91159721111DC012962D913C91261BBA
:104A1000370B283C3105A8F48091EE018F7080613E
:104A20008093EE01E951FC4F80818F70806180831B
:104A300088EE91E00E94B61E0E94200ADF91CF917D
:104A40000895FC013196E770BECFA4E1B0E0EBE23F
:104A5000F5E20C94DD328C0186E0F801DE011F9650
:104A600001900D928A95E1F7F8018481E58098EE36
:104A7000A92E91E0B92E9091EC01911128C08823C4
:104A800019F1EE20F1F0C8010E94C813F82E882316
:104A9000C1F087E0F801D50101900D928A95E1F708
:104AA0008091EC01813031F48091E8019091E9012D
:104AB0000E94BB130E94CA248F2D6496ECE00C94D4
:104AC000F932C8010E94B61EFF24F394F5CFD080BE
:104AD000C18082809380F090ED012091EA013091B5
:104AE000EB01A401421B530BFF2009F4D9C0483C41
:104AF000510508F092C08823F9F29091E901809164
:104B0000EE01282F207F09F056C0C91214C09091E1
:104B1000E801D91210C0E11048C08F708061809305
:104B2000EE0188EE91E00E94B61E8091EE01F80140
:104B30008683F12CC1CFE11038C06C2D8D2D0E94E1
:104B40004A056C2D8D2D0E944A05E82E8111F1CF6A
:104B5000DF86C88A8F8598890E94BB13292F2295EA
:104B60002F70243058F49F70223088F0992399F0E8
:104B7000F8019681907F79F4FE2C9ECF2A5F2F70EA
:104B8000223068F0C8010E94B61EEF2CF5CF9923A1
:104B900011F0882389F3805E883070F3F3CF803F73
:104BA00058F3815F833070F7E7CF8091EE01816029
:104BB0008093EE01BECFC91207C09091E801D912CF
:104BC00003C0EE2009F48DC0C8010E94C8138823D9
:104BD00009F477CFEE2009F474CF8091EE01803292
:104BE00088F02091E8013091E901398728879B8678
:104BF0008A869091EC019C871D868E87CE0108964F
:104C00000E94B61E87E0F801A8EEB1E001900D9277
:104C10008A95E1F70E94CA2457CF9091EE01292F7F
:104C2000207F51F488EE91E00E94B61E87E0F501E6
:104C300011928A95E9F77DCF882309F43DCF8091C1
:104C4000E9018C1110C08091E801D8120CC0E1106C
:104C50000AC09683C8010E94B61E87E0F501119232
:104C60008A95E9F729CFC8010E94C813882309F45F
:104C700028CFEE2009F425CF8091EE01803210F28A
:104C80002091E8013091E9013A8329839C828B824B
:104C90009091EC019D831E828F83CE010196B0CF4F
:104CA000483C5105D0F6882309F40ECFFE2CEE20A7
:104CB00009F407CF8091E9018C1120C08091E801AF
:104CC000D8121CC08091EE0180FD0FC0982F907FFC
:104CD00061F08683903F31F0982F907F905F8F70C6
:104CE000892B8683C8010E94B61E87E0F801A8EED2
:104CF000B1E001900D928A95E1F7DECEC8010E94E5
:104D0000C81381117FCF8091EE0181608093EE0105
:104D1000C8010E94B61ED0CEABE1B0E0E2E9F6E2F7
:104D20000C94E5324E8B5F8B688F798F8A8F9B8FC7
:104D3000192F91111092F8011D8A86E0FE017696D6
:104D4000DE011F9601900D928A95E1F70A8D0023EE
:104D500041F021E04F85588969897A89C8010E940C
:104D6000EB130B8B1C8B87E0FE013F96DE01189640
:104D700001900D928A95E1F7CE0108960E942525B3
:104D800081110CC087E0FE013896DE01119601907A
:104D90000D928A95E1F78C8581110BC017E0809107
:104DA00019049091E003891333C06B96E4E00C94EE
:104DB00001332091E00330E0C90101968770992703
:104DC000409119044817190699F097E0929FD00175
:104DD000939FB00D1124AF51BC4FFE01319601904D
:104DE0000D929A95E1F78093E0030E94200AD6CFB6
:104DF0001092C9030E940E0F1092E0031092190442
:104E000087E0E8EEF1E0DF011D928A95E9F7C6CF71
:104E1000819FC00111248F519C4F0E94252588231A
:104E200021F28091190490E0019687709927809370
:104E30001904B5CFA6E0B0E0E0E2F7E20C94E53269
:104E40000E94461B8C018091FA019091FB01801712
:104E5000910781F019821A820E94461B682F4981AE
:104E60005A81792F80E090E00E948C261093FB01FC
:104E70000093FA012696E4E00C940133ABE0B0E035
:104E8000E4E4F7E20C94D93245E0642E41E0742E5C
:104E900056E2E52E56E0F52E60E0C62E61E0D62EF5
:104EA000512C88248394912CD6018D916D010E9400
:104EB000DB0B00C0F701408035E0A32E31E0B32EBC
:104EC000F50110E000E04191A42FA295AF70B0E091
:104ED00090968C919401002E01C0220F0A94EAF75B
:104EE00090E04F7002C0959587954A95E2F780FD56
:104EF00092C0422A0F5F1F4F0430110521F7F601BF
:104F0000319780810E94EF0BF0EAFA95F1F7D70113
:104F10008C91841519F04C9255245394BFEFEB1AE1
:104F2000FB0AE5E0CE16E1E0DE0609F0BDCFEE2497
:104F3000E394F12CD5018D915D010E94DB0B00C043
:104F4000C701002E01C0880F0A94EAF7782FE6E225
:104F5000F6E090E0C92E91E0D92E682F6095D60139
:104F60002D916D01822F82958F7090E0DC019096DB
:104F70008C91AF01308190E02F7002C0959587959C
:104F80002A95E2F780FD4AC0872F832B80833196D4
:104F9000DA018C91381711F0552453946C147D0468
:104FA000F1F6F501319780810E94EF0BB0EABA95D6
:104FB000F1F70F5F1F4F0830110509F0BBCF0091CB
:104FC0006C02552071F181E08093B8010E94461B6C
:104FD0009093B7018093B6018091B6019091B7018B
:104FE0000E94371B059708F110E001581D4F45E05E
:104FF00050E066E276E0C8010E949533892B41F0CB
:1050000085E0E6E2F6E0D80101900D928A95E1F79D
:105010001092B8010AC0209542226CCF862F8323BC
:10502000B5CF8091B8018111D7CF0E94390DF82EEC
:10503000E0916C02811186C0F0E0E158FD4F85E0FF
:10504000AEEFB1E001900D928A95E1F765E070E076
:105050008EEF91E00E94E5068093FD01C09003026F
:10506000D0900402E0900502F09006028091B90110
:105070009091BA01A091BB01B091BC01C816D906AC
:10508000EA06FB06D1F0C092B901D092BA01E092D3
:10509000BB01F092BC010E94390D81110EC00E942B
:1050A000D906C61AD70AE80AF90AC0926702D0924E
:1050B0006802E0926902F0926A028BE0E7E0F2E0B7
:1050C000DE01119601900D928A95E1F78091070219
:1050D0008695F0900802E0900902D0900A020091B3
:1050E00010021091110210921102112301F110FF10
:1050F0000BC0998190FF20C09091670391609093BD
:10510000670360E00E944F1E11FF06C020E04D2D96
:105110006E2D8F2D0E94C51412FF04C0002379F05C
:105120000E94341E13FF03C081E080936403852D29
:105130002B96E0E10C94F5320E942A0DE5CF0E94F7
:105140000107F0CF2BE236E085E0D9011D928A9568
:10515000E9F70E2F10E001581D4F809125068A3087
:10516000A8F564E177E1C8010E94040C882309F4E2
:1051700049C069EC76E1C8010E94040C882309F457
:1051800041C063E776E1C8010E94040C8823D1F195
:105190001092250681E08093BF0100916B0210E020
:1051A00001581D4F45E050E06BE276E0C8010E94D7
:1051B0009533892B09F4BBCF85E0EBE2F6E0D8010B
:1051C00001900D928A95E1F75F2CB1CF8091BD01DE
:1051D0009091BE010E94371B843F914010F6809150
:1051E000BF01882309F4A3CF1092BF01E0916B02A5
:1051F000F0E0E158FD4F95E0DF011D929A95E9F747
:10520000582E95CF809125068F3F31F08F5F809388
:1052100025068A3008F4BECF0E94461B9093BE013B
:105220008093BD01DCCF1F921FB61F9211248F9374
:105230009F93AF93BF938091C303811113C080915B
:10524000C4039091C503A091C603B091C7034196D2
:10525000A11DB11D8093C4039093C503A093C60301
:10526000B093C703BF91AF919F918F911F901FBEC5
:105270001F901895CDB7DEB7A6970FB6F894DEBF8E
:105280000FBECDBF85B7806885BF85B7806885BFF5
:1052900084B7877F84BF0FB6F894A895809160008B
:1052A000886180936000109260000FBE80E890E0FB
:1052B0000FB6F89480936100909361000FBE89EF60
:1052C00097E09093AD018093AC010E9469050E9424
:1052D0000A068091E20084608093E20078948091D5
:1052E000D6038823A1F01091E9001F709091EC0083
:1052F000892F817090FD80E8182B1092E900809131
:10530000E80083FD0E941A0F1F701093E90082E0ED
:1053100084BD93E095BD9AEF97BD80936E00109287
:105320006702109268021092690210926A020E944B
:105330001914811102C00E943F130E949617809198
:1053400009010E949617809105010E94EF0B809140
:1053500006010E94EF0B809107010E94EF0B8091E4
:1053600008010E94EF0B00E011E065E0E62E61E02D
:10537000F62ED8018D918D010E94EF0BE016F106FB
:10538000C1F78091090195E0811190E090936C0242
:1053900085E0891B80936B020E94390D811102C048
:1053A0000E946431E6E2F6E080E396E0AFE7B2E027
:1053B00011921D928E179F07D9F70E94C91581116E
:1053C00002C00E94AD1782E090E00E94AB33809350
:1053D000700284E090E00E94B93390936E02809353
:1053E0006D020E943E27EFE3FCE93197F1F700C020
:1053F00000000E943E2780917F0280FF08C06FEF6F
:105400007FEF90E080E00E94ED330E94C80683E0C9
:1054100090E00E94AB330E94E70A0E94390D882376
:1054200009F490C180E08093B70380E880931A0468
:105430000E941B306BE070E082E292E00E94321426
:105440008823E9F18091B70365E070E081FD7CC1BC
:105450008DE192E00E943214882389F16DE070E0C2
:105460008BE092E00E943214882349F10E94D90611
:10547000605A75418F4F9F4F6093B9037093BA0381
:105480008093BB039093BC03EDE1F4E080E092E0F5
:10549000DF019C011D9221503040E1F7F09324067A
:1054A000E09323068FEF9FEF90931C0480931B04DF
:1054B00081E08093C0038093BD031092B803809174
:1054C0006F02811178C00E94C915811104C00E9429
:1054D000AD170E94951588E090E00E94B3334B0110
:1054E0005C0184E290E00E94AB33282F30E040E082
:1054F00050E060E070E080E090E000E20E9449331C
:10550000282939294A295B292093670330936803A6
:105510004093690350936A0360936B0370936C0329
:1055200080936D0390936E038091710383608093E9
:1055300071032E7F89F50E94951588E090E00E9406
:10554000B3336B017C0184E290E00E94AB33282FDF
:1055500030E040E050E060E070E080E090E00E94E9
:105560004933B22FA32FF42FE52F5B01970186015A
:10557000BC29A12BFE29E32BB0936703A0936803FA
:10558000F0936903E0936A0360936B03B0926C033A
:1055900080936D0390936E030E9408070E94010799
:1055A0008091670380FF04C060E086950E944F1ED3
:1055B00081E080936F020E94390D811102C00E9428
:1055C00064310E94AF190E94390D81112EC081E90A
:1055D0009BE0909351018093500129E130E030939A
:1055E0004C0120934B0189E390E090934F0180930D
:1055F0004E0145EE57E050935901409358013093C6
:1056000054012093530190935701809356014DE725
:1056100059E1509361014093600130935C01209304
:105620005B0190935F0180935E010E94C9158823FE
:1056300089F08FE090E00E94B3338B01862F8F7743
:105640000E946419001F0027001F1370110F102BF8
:10565000109387030E94971E60E082E00E944F1E15
:1056600082E691E09093C2038093C10348E1A42EA7
:10567000B12C59E8852E52E0952E8091D60300E199
:1056800012E1853009F49FC00E943E2701E712E035
:1056900037E8E32E31E0F32EB7012FE732E0F801CF
:1056A0009191D9018D919D01DB014D91BD01842323
:1056B000B2E0EB37FB0709F492C0981789F30E9418
:1056C000390D282E2FE7C22E22E0D22E612CF601B2
:1056D00071906F01D7018D917D017822F801319091
:1056E0008F01371431F13724512C44244394842DF5
:1056F0008321B9F02220A9F059A26AA20E94461B78
:105700009CA38BA3F1E0FDA391E0842D872109F4F4
:1057100090E09EA349A15AA16BA17CA18DA10E94FA
:105720008C265394440C28E05212E1CFF8013197B3
:10573000708263943AE06312CACF0E946F0D77249F
:10574000739452C082E06FCE88E192E083CE809164
:10575000D603843031F10E945C140E94261D109201
:10576000C30330E40FB6F894A895A09260000FBE72
:105770003093600083B7817F846083BF83B781608B
:1057800083BF7894889583B78E7F83BF0FB6F894D4
:10579000A8958091600088618093600010926000FD
:1057A0000FBE8091D503882371F00E943E27A7E8A1
:1057B000B1E0EFE7F2E081919D91892309F049C3BF
:1057C0008E169F06C1F78091D603853009F4BFCFAE
:1057D0001092C9030E940E0F0E945E0D55CF9813C0
:1057E0006ECF0E941A27712C0E94390D8091700390
:1057F000882309F467C090916F03809167038695B1
:10580000891B8093630300ED17E083ECE82E86E0AC
:10581000F82E923041F4EDE2F2E00591149191EF0F
:10582000E92E9CE0F92E80916403882361F01092A8
:1058300064030E94291E9093620380936103109277
:105840006603109265030E94291E20916103309126
:105850006203AC01421B530B4F3F5F4798F54091E9
:105860007D024423B1F010927D0240917B02509161
:105870007C02841B950B8F3F9F4758F4405D5A482C
:1058800050937C0240937B028091710388608093E7
:105890007103C0906503D0906603020F131F10932D
:1058A00062030093610381E693E0F701099580911B
:1058B000650390916603892B29F4CD2819F081E0C6
:1058C00080937D020E94261D882339F00E946F0D6F
:1058D0000E94521B0E94771404C00E94521B711038
:1058E000F9CF0E945E0D90917E02891721F080937E
:1058F0007E020E94D9068091D603843009F4DBC071
:105900000E94390D882309F4B8CE0E94D90620914F
:10591000770321116BC000918B0210918C022091B2
:105920008D0230918E026B017C01C01AD10AE20A0D
:10593000F30A97018601043F11402105310508F45F
:1059400055C060938B0270938C0280938D0290936C
:105950008E028091890290918A02019690938A0228
:105960008093890219828E010F5F1F4F21E050E062
:1059700040E060E088E00E941D16811106C0809121
:10598000890290918A020A978CF181E080937703D3
:10599000809375039981911101C080E08093760313
:1059A0008091740310E0882329F00E94890D11E092
:1059B000811112E080917603882309F446C20E9487
:1059C000890D811144C282E0182B0E9410146B01D2
:1059D0007C01DC01CB018C7FBC01CD01612BC616A3
:1059E000D706E806F90611F00E942113809176038C
:1059F000882309F442CE0E94D9066B017C01809174
:105A00008F0290919002A0919102B0919202A70111
:105A10009601281B390B4A0B5B0BDA01C90104976D
:105A2000A105B10580F119821A821B821C828E01A8
:105A30000F5F1F4F24E050E040E060E089E00E94EB
:105A40001D168823C1F069817A8180917C03909131
:105A50007D030E94C80B90937D0380937C036B8130
:105A60007C8180917E0390917F030E94C80B90936C
:105A70007F0380937E03C0928F02D0929002E092C7
:105A80009102F092920280918103882309F4F5CD6E
:105A900080918003898310E000E020E0AE014F5F39
:105AA0005F4F61E08AE00E941D16882309F4E5CD6E
:105AB00010928103E2CD83E08093E9008091E800B9
:105AC00082FF1ECF8091E80090E085FF05C00E9414
:105AD0008805882399F091E08091E8008B77809386
