:100000000C9499060C94B6060C94B6060C948432A3
:100010000C94B6060C94B6060C94B6060C94B60670
:100020000C94B6060C94B6060C94041B0C94C01ADF
:100030000C94BF280C94B6060C94B6060C94B60625
:100040000C94B6060C94B6060C94B6060C94B60640
:100050000C94B6060C94DD1B0C94B6060C94B606F4
:100060000C94B6060C94B6060C94B6060C94B60620
:100070000C94B6060C94B6060C94B6060C94B60610
:100080000C94B6060C94B6060C94B6060C94B60600
:100090000C94B6060C94B6060C94B6060C94B606F0
:1000A0000C94B6060C94B6060C94B606050109022B
:1000B000A10185020901A1000509190129081500FE
:1000C0002501950875018102050109300931158165
:1000D000257F95027508810609381581257F9501D0
:1000E00075088106050C0A38021581257F95017572
:1000F000088106C0C00660FF0961A1010962150000
:1001000026FF009520750881020963150026FF006F
:10011000952075089102C005010906A1010507197E
:10012000E029E71500250195087501810295017503
:100130000881010507190029FF150026FF00950613
:1001400075088100050819012905950575019102B9
:10015000950175039101C00000000000000000003F
:10016000000000000000000000000000000000008F
:1001700000000000000000000000007E0F00D4FF1F
:10018000FFFFC70000007800000000000000002A08
:100190002B2800000000000000000000000000000C
:1001A000000029000000002C1E34202122243426C7
:1001B00027252E362D3738271E1F202122232425C0
:1001C000263333362E37381F0405060708090A0B75
:1001D0000C0D0E0F101112131415161718191A1BE7
:1001E0001C1D2F3130232D350405060708090A0B85
:1001F0000C0D0E0F101112131415161718191A1BC7
:100200001C1D2F3130354C00DA0281FFD9F1DB2083
:10021000A4A62EAF00A0C000A1C800AED580A81F24
:10022000D300408D14200000041E140A0520004C49
:100230006179657220202000616263646566676889
:10024000696A6B6C6D6E6F707172737475767778A6
:10025000797A313233343536373839305245425471
:100260005F2D3D5B5D5C233B27602C2E2F202027DC
:1002700000204B00202043004B6579202020205295
:100280000020204400303020205300202020204334
:1002900050490042616C6C20008081828384858695
:1002A0008788898A8B8C8D8E8F9091929394A0A150
:1002B000A2A3A4A5A6A7A8A9AAABACADAEAFB0B1A6
:1002C000B2B3B4C0C1C2C3C4C5C6C7C8C9CACBCC07
:1002D000CDCECFD0D1D2D3D4000001010101010194
:1002E00001010102020202020202020203030303ED
:1002F00003030303040404040404040505050505BD
:10030000060606060607070707070808080809097A
:1003100009090A0A0A0B0B0B0C0C0C0D0D0D0E0E25
:100320000E0F0F0F101011111112121313141415B8
:100330001516161717181819191A1A1B1B1C1D1D2C
:100340001E1E1F2020212222232424252626272882
:1003500029292A2B2C2D2D2E2F30313232333435B2
:10036000363738393A3B3C3D3E3F404142434445B5
:10037000464748494A4C4D4E4F5051535455565894
:10038000595A5B5D5E5F616264656668696B6C6D3E
:100390006F7072737577787A7B7D7E8082838587B4
:1003A000888A8C8E8F91939596989A9C9EA0A2A3F2
:1003B000A5A7A9ABADAFB1B3B5B7BABCBEC0C2C4F7
:1003C000C6C9CBCDCFD1D4D6D8DBDDDFE2E4E7E9B7
:1003D000EBEEF0F3F5F8FAFDFF2223252628292A73
:1003E0002C2D2F3032333536383A3B3D3E40424398
:1003F0004547494A4C4E5051535557595A5C5E60D7
:1004000062646668696B6D6F71737577797B7D7FE8
:1004100081838587898A8C8E90929496989A9C9EE7
:100420009FA1A3A5A7A8AAACAEAFB1B3B4B6B8B903
:10043000BBBCBEBFC1C2C3C5C6C7C9CACBCCCDCE6B
:10044000D0D1D2D2D3D4D5D6D7D7D8D9D9DADADB4E
:10045000DBDBDCDCDCDCDCDDDDDDDDDCDCDCDCDCDA
:10046000DBDBDBDADAD9D9D8D7D7D6D5D4D3D2D219
:10047000D1D0CECDCCCBCAC9C7C6C5C3C2C1BFBE01
:10048000BCBBB9B8B6B4B3B1AFAEACAAA8A7A5A36C
:10049000A19F9E9C9A98969492908E8C8A8987852B
:1004A00083817F7D7B79777573716F6D6B6968660A
:1004B0006462605E5C5A5957555351504E4C4A49DC
:1004C00047454342403E3D3B3A3836353332302F84
:1004D0002D2C2A29282625232200AF00AE29001E14
:1004E000001F0020001D001B000600190021002233
:1004F000002B0014000500E0000251E2001A000881
:1005000000150017002C00000000000000E00004AF
:100510000016000700000000000000000009000AAB
:1005200000E500000000000000000000002300249F
:100530000025002600100036003700380027002D67
:10054000001C00180028622C00E600E7000C0012D6
:100550000013002A0001510000000000000B000DF4
:10056000000E000F00000000000000000033003407
:100570000011000000000000000000000001003A2F
:10058000003B003C0001000100010001003D003E75
:100590000001000100010001000100010001000153
:1005A0000001000100010000000000000001000146
:1005B0000001000100000000000000000001000137
:1005C000000100000000000000000000003F0040AB
:1005D00000410042000100C35CC65CC85C430044AB
:1005E0000001000100CA5C010001000100010001DE
:1005F00000010045000100000000000000010001B2
:1006000000C25CC55C0000000000000000C75CC9BF
:100610005C0100000000000000000000000100017B
:1006200000010001000100010001000100010001C2
:1006300000010001000100010001000100010001B2
:1006400000010001000100000000000000010001A5
:100650000001000100000000000000000001000196
:100660000001000000000000000000000001000187
:100670000001000100B25DB45DB65DBA5D0100012C
:1006800000010001000780010001000100010001DC
:10069000000100010001000000000000000880B11E
:1006A0005DB35DB55D0000000000000000B95D06AF
:1006B000800980000000000000000000000100012F
:1006C0000001000100010001000100010001000122
:1006D000000100010004800100010001000100018F
:1006E0000001000100010000000000000001000105
:1006F0000000800180000000000000000005800371
:100700008001000000000000000000000001000166
:1007100000010001000100010001000100010001D1
:1007200000010001000100010001000100010001C1
:10073000000100010001000000000000000380052E
:100740008000800180000000000000000001000126
:100750000004800000000000000000000009025BAF
:1007600000030100A0FA09040000010301010009CF
:100770002111010001224000070581030800010941
:1007800004010002030000000921110100012222DE
:10079000000705820320000107050303200001096B
:1007A0000402000103000000092111010001224997
:1007B0000007058403200001120100020000000868
:1007C000383936350100010200010E035200650080
:1007D0006500780035003600000012036B007500DC
:1007E0007300680069006D006100380000000403B8
:1007F00009040000000000003E5B4F5B3E003E6BC2
:100800004F6B3E001C3E7C3E1C00183C7E3C18009A
:100810001C577D571C001C5E7F5E1C0000183C1896
:100820000000FFE7C3E7FF00001824180000FFE7FF
:10083000DBE7FF0030483A060E002629792926001A
:10084000407F05050700407F05253F005A3CE73CF7
:100850005A007F3E1C1C0800081C1C3E7F0014220E
:100860007F2214005F5F005F5F0006097F017F0049
:10087000006689956A0060606060600094A2FFA2D3
:10088000940008047E04080010207E201000080850
:100890002A1C0800081C2A0808001E10101010004E
:1008A0000C1E0C1E0C0030383E383000060E3E0E7A
:1008B000060000000000000000005F0000000007CC
:1008C00000070000147F147F1400242A7F2A1200DE
:1008D00023130864620036495620500000080703BD
:1008E0000000001C224100000041221C00002A1CC4
:1008F0007F1C2A0008083E080800008070300000B5
:1009000008080808080000006060000020100804C3
:1009100002003E5149453E0000427F4000007249BE
:10092000494946002141494D33001814127F1000F7
:100930002745454539003C4A4949310041211109C3
:100940000700364949493600464949291E0000003A
:100950001400000000403400000000081422410090
:10096000141414141400004122140800020159093F
:1009700006003E415D594E007C1211127C007F49F9
:10098000494936003E41414122007F4141413E00FC
:100990007F49494941007F09090901003E41415110
:1009A00073007F0808087F0000417F41000020405D
:1009B000413F01007F08142241007F404040400039
:1009C0007F021C027F007F0408107F003E414141EE
:1009D0003E007F09090906003E4151215E007F0962
:1009E0001929460026494949320003017F010300C5
:1009F0003F4040403F001F2040201F003F40384004
:100A00003F00631408146300030478040300615971
:100A1000494D4300007F414141000204081020007D
:100A2000004141417F000402010204004040404077
:100A300040000003070800002054547840007F283D
:100A400044443800384444442800384444287F0053
:100A500038545454180000087E0902001824241C3D
:100A600078007F080404780000447D4000002040A6
:100A7000403D00007F102844000000417F400000FE
:100A80007C04780478007C080404780038444444EA
:100A900038007C1824241800182424187C007C08B2
:100AA0000404080048545454240004043F4424001F
:100AB0003C4040207C001C2040201C003C4030403A
:100AC0003C004428102844004C9090907C004464E2
:100AD000544C44000008364100000000770000003C
:100AE0000041360800000201020402003C262326D1
:100AF0003C00000000000000F8FCFCFC3C3CFCFC5E
:100B0000FCF80080C0F0F8FC7E000000000000004F
:100B1000000000000000000000FCFCFCFC000000E5
:100B2000000000000000FCFCFCFC000000000000D5
:100B30000000000000000000000000FCFCFCFC00C5
:100B40000000000000000000FCFCFCFC00000000B5
:100B5000000000000000000000000000007EFCF823
:100B6000F0E0C080000080C0E0F0F8FC7E000000F3
:100B7000E0F0F0F0E0ECEEF7F37020007C7C7C7E9F
:100B8000007E7E7E7F7F7F000080C0E07E5B4F5BCB
:100B9000FEC00000C000DCD7DEDEDED7DC00C00017
:100BA0000000000000000000000000000000000045
:100BB0000000000000000000FFFFFFFF0000FFFF3B
:100BC000FFFF7F1F0F070100000000000000000072
:100BD000000000000000000000FFFFFFFF00000019
:100BE000808080800000FFFFFFFF00000000000009
:100BF0000000000000000000000000FFFFFFFF00F9
:100C00000080808080000000FFFFFFFF00000000E8
:100C10000000000000000000000000000000008153
:100C2000C3E7FFFFFFFFFFFFE7C3810000000000F5
:100C30000F1F3F7F7F7F7F7F3F1E0C001F1F1F3FC7
:100C4000003F3F3F7F7F7F00307B7F783020203028
:100C5000787F3B0003000F7F0F0F0F7F0F00030013
:100C60000000000000000000000000000000000084
:100C70000000000000000000FFFFFFFF0000010176
:100C80000100000000000000000000000000000063
:100C90000000000000000000003F3F3F3F00000058
:100CA0003F3F3F3F00003F3F3F3F0000000000004C
:100CB00000000000000000000000003F3F3F3F0038
:100CC000003F3F3F3F0000003F3F3F3F000000002C
:100CD000000000000000000000000000007E3F1F38
:100CE0000F07030100000103070F1F3F7E000000F4
:100CF00000000000000000000000000000000000F4
:100D000000000000000000000000000000000000E3
:100D100000000000000000000000000000000000D3
:100D200000000000000000000000000000000000C3
:100D3000000011241FBECFEFDAE0DEBFCDBF11E00F
:100D4000A0E0B1E0E2EBF9E602C005900D92A83A0E
:100D5000B107D9F726E0A8EAB1E001C01D92A1339E
:100D6000B207E1F70E94E6280C949A340C94000034
:100D7000E8EDF0E080818E7F80831092E200109297
:100D8000DA001092E100A0EEB0E08C9181608C93CB
:100D900080818F77808319BCA7EDB0E08C918E7F26
:100DA0008C9380818F7E80831092FB030895209125
:100DB000E4003091E50095E6A9012091EC00822F36
:100DC000817020FF06C08091E80080FF06C080E0AF
:100DD00008952091E80022FD1AC08091090488231B
:100DE00089F0853089F08091EB0085FD0FC020915E
:100DF000E4003091E50042175307F9F29150E1F613
:100E000084E0089582E0089583E0089581E00895E4
:100E1000EF92FF920F931F93CF937C018B010E945F
:100E2000D706C82F811117C08091E80085FD0BC03F
:100E30008091E8008E778093E8000E94D70688238F
:100E400099F3C82F08C0F70181917F018093F100C9
:100E50000150110949F78C2FCF911F910F91FF90ED
:100E6000EF90089580910B0487FF13C08091E800F4
:100E700082FF06C08091E8008B778093E80004C071
:100E8000809109048111F2CF08958091090488238B
:100E9000D9F38091E80080FFF8CF8091E8008E7749
:100EA000ECCF982F9093E900242F762F50E08917EC
:100EB00031F07091EC002091ED005091F00021FD97
:100EC00007C09F5F973071F78093E90081E0089534
:100ED0003091EB003E7F3093EB003091ED003D7F91
:100EE0003093ED003091EB0031603093EB00709364
:100EF000EC002093ED005093F0002091EE0027FDD0
:100F0000E0CF80E00895B0E0A0E0E9E8F7E00C94DD
:100F1000BE33C8EDD0E088818F7E8883E7EDF0E0B6
:100F200080818160808384E082BF81E08093FB03C5
:100F300088818E7F888302EE10E0F8011082109283
:100F4000DA0081EEC82ED12CF601108288818F77CD
:100F5000888388818068888388818F7D888319BC95
:100F60001092090410920A041092080410920704C7
:100F700090EEE92EF12CF70180818B7F80838881B0
:100F80008160888342E060E080E00E945107F601C2
:100F900080818E7F8083F801808181608083808161
:100FA00088608083F70180818E7F80838881806163
:100FB0008883CDB7DEB7E8E00C94DA33FC0180918A
:100FC00011049091120486179707A0F0611571051E
:100FD00029F49091E8009E779093E80090E06115E5
:100FE000710551F4911108C08091E80082FF34C06E
:100FF00080E00895BC01F2CF809109048823C1F1FB
:101000008530C1F18091E80083FD30C08091E80017
:1010100082FDEACF8091E80080FFE1CF8091F3006C
:101020002091F200382F6115710519F02830310533
:1010300058F091E02830310509F090E02091E80067
:101040002E772093E800CBCF81918093F1006150FF
:1010500071092F5F3F4FE7CF80910904882341F04A
:10106000853041F08091E80083FFBECF81E0089594
:1010700082E0089583E00895089508950895809189
:10108000FE03089587E797E790930108809300088F
:1010900088E19AE00FB6F894A895809360000FBE9F
:1010A00090936000FFCF2FB7F8946091F703709191
:1010B000F8038091F9039091FA032FBF08959C01E2
:1010C000FC0132969FEF80E04191461751F09F3F1F
:1010D00019F4411101C0982F8F5F8630A9F79F3F07
:1010E00009F40895290F311D97FD3A95F90162839E
:1010F0000895FC01680F791F8FEF91E321918227FA
:1011000028E030E087FF09C0880F89272150310986
:10111000C9F7E617F70791F70895880FF7CFFA0197
:10112000811101C0FB01099508950895EAEEF3E0ED
:101130001182828184608283089580911304982FA4
:101140009E7F61F481708260809313048091160405
:10115000853618F084E68093160408958E30B0F337
:1011600081708C60F1CFAF92BF92DF92EF92FF92CD
:101170000F931F93CF93DF93082F162FE901E42FCE
:10118000F0E0E752FD4F611110C0E4915E2F4E2F49
:101190004983E8835A83DF91CF911F910F91FF908C
:1011A000EF90DF90BF90AF900895E62EF12C449120
:1011B000D42EE42FF0E026E0829FC00111242FEF0F
:1011C00030E0B9010E94A033802F90E0880F991F72
:1011D00055E5569FD001579FB00D11248A1B9B0BDC
:1011E000982F990F890F5901AE18BF08AE9ED001F4
:1011F000AF9EB00DBE9EB00D11245B2F189F8001D5
:101200001124012F11275901A01AB10AAE9E8001A5
:10121000AF9E100DBE9E100D11245901A81AB108E1
:10122000AE9CC001AF9C900DBE9C900D1124892FE7
:101230009927281B390B2E9FC0012F9F900D3E9F91
:10124000900D1124E92F62307105A1F050F4611561
:10125000710509F49DCF6130710581F0EB2F512F9D
:1012600097CF6430710569F080F06630710509F43C
:101270008FCFF4CFE42F4B2F592F8ACFE42F412F5C
:1012800087CFEB2F542F492F83CF4B2F5D2DE12F8D
:101290007FCFCF93DF93E7EEF2E083819481A58146
:1012A000B681E90188839983AA83BB831482138260
:1012B00016821582DF91CF91089580E0089563E052
:1012C00070E080E492E00E94790890913F028913D7
:1012D00018C0E0914002EB30A4F488E0E802F0018D
:1012E0001124E65FFE4F0680F781E02D309749F02C
:1012F00023E632E04091420263E472E080914102D1
:1013000009950895EAE0F1E0ADE2B2E054968C91DF
:10131000549780A755968C9183AF089590919A0227
:1013200092FF06C0282F28712830F9F4877F846047
:1013300093FF06C0282F28712831F1F4877E84613D
:1013400020919B0220FF06C0382F38713830D9F425
:10135000877F816021FF06C0282F28712831D1F4B2
:10136000877E816194FD877E0895282F2471243023
:10137000F9F68B7F8860DCCF282F2471243101F7A8
:101380008B7E8861DDCF382F3171313019F78E7F38
:101390008860E0CF282F2171213121F78E7E88616E
:1013A000E1CFCF93DF93EC018238910589F1E0F52D
:1013B0008133910509F499C028F58932910509F422
:1013C00089C08A9709F498C0C11523E5D20708F0AF
:1013D000B3C0C11532E5D30708F00FC1C11540E213
:1013E000D40708F097C0C11581E0D80758F5C53A71
:1013F000D10508F088C0C430D10520F5C130D10531
:1014000009F145C08533910509F45FC0C997E1F63C
:1014100080919A02837009F025C180919B0283FF1D
:1014200011C0C9E2D0E00EC0833E910599F170F47D
:10143000803E910501F1823E910531F680919A023C
:1014400082FD21C0CE01DF91CF910895863E9105A6
:1014500061F1873E910571F1843E910509F0B4CFA9
:1014600080919B0281FFEECF80919A02C7EED0E07F
:1014700084FD0DC0E7CF80919A0280FD33C090912A
:101480009B0290FFDFCFC3EED0E084FFDBCFD0E044
:10149000C0E0D8CF80919A0282FDE1C090919B027A
:1014A00090FDE0C084FFCECFF2CF80919A0283FD01
:1014B000DDCFC8CF80919A0283FDD7C090919B0267
:1014C00091FFF0CFC4EED0E0BDCF80919A0285FFAE
:1014D000B9CFA7CF80919A0285FDCAC080919B02A7
:1014E00083FFB0CFC9E3D0E0ADCF80919A0286FFF1
:1014F000A9CFCAE2D0E0A6CF80919A0286FFA2CF00
:10150000C1E3D0E09FCFCE01815E9109079708F437
:1015100099CFBDCFC11521E5D20708F069C0C1152B
:1015200030E5D30708F050C0C11540E4D40708F4F3
:10153000AECFDF70D06A86CFC11586E5D807F0F44C
:10154000C11525E5D20708F071C0C11534E5D307F0
:1015500008F067C0CE018370992721E030E002C017
:10156000220F331F8A95E2F7C695C69540E2C49FC5
:10157000E0011124C22BD32BDA6864CFC1154AE5F0
:10158000D40778F4C11589E5D80708F05AC0C11509
:1015900028E5D20708F47BCFDC2FCC27C06FD06AB8
:1015A00051CFCE0190568115904208F070CF8D2F0B
:1015B0008F710E948E0990E0982F882788279F714D
:1015C0009C012C2BE9013BC0CE018370992721E0BF
:1015D00030E002C0220F331F8A95E2F7C695C69508
:1015E00040E2C49FE0011124C22BD32BDD682ACF37
:1015F000DC2FCC27C16FD06A25CFCE01837099270D
:1016000021E030E002C0220F331F8A95E2F7C69531
:10161000C69580E2C89FE0011124C22BD32BDC6861
:1016200011CFDC2FCC27C46FD06A0CCF8C2F0E9437
:101630008E09C82FD0E0DC2FCC27CC27DF71D062F9
:1016400001CF8C2F8F700E948E0934E0D695C795FC
:101650003A95E1F7CF709C2FEC01D069F3CEC2EE42
:10166000D0E0F0CEC0EED0E0EDCEC6EED0E0EACED7
:10167000C5E3D0E0E7CE80912A02811110922A02C0
:10168000089580959091FC0398239093FC0308950E
:1016900080911F029091EE01981301C008958F5F11
:1016A0008770FACF9A3080F5883070F548E0949FC3
:1016B00090011124820F932F911D682F677023E0F2
:1016C000969587952A95E1F7FC01EE0FFF1FE80F2D
:1016D000F91FE653FE4F50E040E080E0219130E0FA
:1016E000062E02C0369527950A94E2F7217033271B
:1016F000042E01C0220F0A94EAF7822B4F5F5F4F3E
:101700004330510559F7089580E008959A3098F5CF
:10171000883088F548E0949F90011124820F932F20
:10172000911D282F277041E001C0440F2A95EAF748
:1017300023E0969587952A95E1F7FC01EE0FFF1FB0
:10174000E80FF91FE653FE4F90E080E070E0519102
:10175000DF0111979B01082E02C0369527950A9448
:10176000E2F7217021952527242325272C93019624
:101770008330910561F70895982F92959F7011F02D
:10178000892F94E0282F2695269511F09E5F822FB1
:10179000869509F09F5F892F0895B0E0A0E0E3ED02
:1017A000FBE00C94BE33FC01EB019091F902911126
:1017B00001C094E04081518191509A01092E02C0EC
:1017C000359527950A94E2F7B901092E02C0660FF4
:1017D000771F0A94E2F7461B570B518340834281DF
:1017E00053818A01092E02C0159507950A94E2F7E4
:1017F000B80102C0660F771F9A95E2F7461B570B98
:101800005383428321387FEF37077CF0203831053E
:1018100074F421952D8301388FEF180754F0802F31
:10182000003811053CF08FE705C021E8F2CF2FE723
:10183000F0CF81E881958C830E9453082D8121117E
:1018400003C02C812223B9F06093FA027093FB024B
:101850008093FC029093FD028091FE029BE0980F22
:10186000973120F4080F0093FE021D82CDB7DEB73A
:10187000E8E00C94DA33C090FA02D090FB02E090DA
:10188000FC02F090FD026C197D098E099F096436F7
:1018900071058105910500F31092FE02DDCFCF9313
:1018A000C82F8091F4028C1751F00E945308609366
:1018B000F5027093F6028093F7029093F802C093BA
:1018C000F402CF9108958091E702F9018083089591
:1018D0008F708A3010F4805D0895895A0895382FEA
:1018E00020E287FF02C031952DE24AE0832F642F6A
:1018F0000E94F733905D9093BF0181110BC020933C
:10190000BE0120E22093BD0120E22093BC018CEBBC
:1019100091E00895642F0E94F733905D9093BE018B
:10192000832F64E60E94F733882361F3805D809300
:10193000BD01EBCF9C01860F971F37FD07C077FDD8
:1019400004C097FF02C08FEF9FE7089577FFFDCF98
:1019500097FDFBCF80E090E80895E82FE295EF70C7
:10196000F0E031A1282F2F7081E090E001C0880FB6
:101970002A95EAF7382B31A392A18095892382A377
:101980000895E82FE295EF70F0E031A1282F2F7035
:1019900081E090E001C0880F2A95EAF7982F909592
:1019A000932391A392A1892B82A30895B0E0A0E094
:1019B000ECEDFCE00C94BE337C016B0180912406BD
:1019C00001E010E08A3010F40AE010E0C1E0D0E05D
:1019D0006AE276E0C701F6010995811104C02196FB
:1019E0000C171D072CF4CDB7DEB7E8E00C94DA3302
:1019F000CC9F9001CD9F300D300D112490E080E000
:101A000045E34A95F1F70000019682179307C1F765
:101A1000DFCF9C0184E08093E9009FEF8091E80094
:101A2000915085FD06C085ED8A95F1F70000911172
:101A3000F5CF8091E80085FF0CC050E040E066E003
:101A400070E0C9010E9408078091E8008E778093BA
:101A5000E8000895CF93DF93EC0181E08093E900E3
:101A60008FEF9091E800815095FD06C095ED9A9515
:101A7000F1F700008111F5CF8091E80085FF14C0D7
:101A800050E040E068E070E0CE010E9408078091DD
:101A9000E8008E778093E80088E0FE01AFEFB3E0C6
:101AA00001900D928A95E1F7DF91CF9108956091B1
:101AB00076018091130480FF20C08091750143E07E
:101AC000849FC00111248C5D9C4F539A2BB1277FBA
:101AD0003BB138605FB7F894FC01649FE00DF11DE5
:101AE0001124BF0168177907D1F45FBF8FE594E037
:101AF0000197F1F700C0000008958091770190915F
:101B0000780123E0829FF0011124EC5DFC4F8917DE
:101B1000A0F61182108212828F5F3396F8CFFC01FB
:101B20004191CF01E8E03BB9000000C047FF2BB96D
:101B3000440F000000C000C000C02BB900C0EA95EF
:101B400091F7D0CF9091130490FF0EC09091770140
:101B50002091780133E0939FF0011124EC5DFC4F5C
:101B6000921718F00E94570D089581836083428375
:101B70009F5F3396F5CFA3E0B0E0E1ECFDE00C947D
:101B8000C2338C018091ED0381110AC09E012F5F49
:101B90003F4F44E66FEF0E94B3088A818093ED03C4
:101BA000F8016481613069F08091ED0340E06623C3
:101BB00061F040E0623011F44091ED0380E060E0BC
:101BC00004C06091ED0340E080E00E94A20DF801A6
:101BD000848190E0019663E070E00E940534848384
:101BE0002396E4E00C94DE33A3E0B0E0EAEFFDE0FE
:101BF0000C94C2338C01DC011496EC91F0E0E752B6
:101C0000FC4F44918091130480FF11C0453608F0C9
:101C100044E69E012F5F3F4F6091150480911404AC
:101C20000E94B3084B8169818A810E94A20DF8014C
:101C300084818F5F84832396E4E00C94DE3380916B
:101C40002C02811119C082E390E02091E30027FD6E
:101C500010C0EFE3FCE93197F1F700C000000197F5
:101C6000A1F782E080932C020E94B806109209042A
:101C700003C081E080932C0281E090912C0291308E
:101C800011F080E0089508950E941F0E882359F0F6
:101C9000E091F403F091F503309729F00190F08181
:101CA000E02D0995089580E008950F931F930E94F9
:101CB0001F0E882329F00E9453081F910F91089549
:101CC0000E9453080091940210919502209196026F
:101CD00030919702600F711F821F931FEECF2698DD
:101CE0002E9A249A2C9885E08A95F1F7000083B10A
:101CF00024982C9A90EA9A95F1F790E026E0959531
:101D000087952A95E1F78095909581700895CF93F6
:101D1000DF93682F81E06A3019F06D3031F480E094
:101D20000E94150FDF91CF91089580912206909126
:101D3000230626E0FC01ACE1B6E001900D922A9565
:101D4000E1F7603E08F458C026E0FC0111922A95A4
:101D5000E9F7C0912206D091230646E050E0BE018B
:101D60008CE196E00E943C349E012C513440892B3A
:101D700041F1C90145E0969587954A95E1F741E023
:101D800050E0BA0102C0660F771F8A95E2F7CB01D7
:101D900060911A0470911B04862B972BB9016B5F1D
:101DA0007F4FE5E076956795EA95E1F702C0440F2D
:101DB000551F6A95E2F7842B952B90931B04809313
:101DC0001A042A5F3F4F40911904642F70E0C90143
:101DD0000E94A033481B463010F4240F311D2115FA
:101DE00072E0370710F030E020E0245E3B4F309384
:101DF00023062093220696CFF6E06F9FB0011124B0
:101E00006E50784F46E050E00E942634A2CFCF9328
:101E1000DF93EC01FE018491811103C0DF91CF912A
:101E200008950E94870E2196F5CFCF93382FE09129
:101E30002206F0912306EC51F44020911904622F00
:101E400070E0CF010E94A033281B822F332361F062
:101E500066E00E94EB33C82FC15010F4CF91089573
:101E600080E20E94870EF8CF9F01280F311D2115B7
:101E7000324018F080E0F0E0E0E08E0F9F2F911DDF
:101E8000845E9B4F9093230680932206E7CF46E023
:101E900050E069E073E08EE193E00E943C34892BCE
:101EA00079F0E091F403F091F503309749F082E086
:101EB00080931E030480F581E02D8EE193E0099567
:101EC00010922003109221031092220310922303F8
:101ED00086E0EEE1F3E0A9E0B3E001900D928A958F
:101EE000E1F708958091FC0390912902892B80935A
:101EF000AA0190912A02992391F0892B8093AA013B
:101F000020E08CEA91E0FC013191CF0131112F5F8B
:101F1000F1E0823B9F07B9F721110E943B0B48E09B
:101F200050E061E272E08AEA91E00E943C34892B41
:101F3000A9F088E0EAEAF1E0A1E2B2E001900D92B6
:101F40008A95E1F7E091F403F091F503309731F0D1
:101F50000280F381E02D8AEA91E009950895ECEA88
:101F6000F1E086E0DF011D928A95E9F710922902DF
:101F70000E94720F0895AAE2B0E0E1ECFFE00C9439
:101F8000C3338BE094E02091F100DC012D93CD016F
:101F9000B4E083319B07B9F780910C04833009F4D6
:101FA00072C0B8F4813009F449C0823009F4B5C078
:101FB0008091E80083FF8DC280910B0490910C0406
:101FC0009A3008F086C2E92FF0E0E456FB4C0C94FE
:101FD00019348A3009F490C08B3009F471C089300B
:101FE00039F780910B04813219F780910F04909199
:101FF0001004009711F00297D9F68091E800877FCE
:102000008093E8008091E80082FF38C09091F3004F
:102010008091F200029731F48091F100813011F04B
:10202000863021F48091F1008093FE038091E800D6
:102030008B778093E8000E943207BACF80910B041F
:10204000813A09F0B5CF8091E800877F8093E8005E
:1020500080910F0490911004892B61F468E08FEF58
:1020600093E070E00E94DE078091E8008B77809318
:10207000E8009ECF60E090E080E0F3CF809109041B
:102080008111C0CF95CF80910B04813A09F090CF98
:1020900080910F0490911004892B09F089CF8091D1
:1020A000E800877F8093E8008091E80080FFFCCF04
:1020B00080917B018093F1008091E8008E77B9CF09
:1020C00080910B04813209F073CF80910F049091BD
:1020D0001004892B09F06CCF8091E800877F8093F2
:1020E000E8000E94320780910D0480937B011092DA
:1020F000FC030E94AF0F5CCF80910B04813209F08A
:1021000057CF8091E800877F8093E8000E943207D4
:1021100080910E048093FD034BCF80910B04813A94
:1021200009F046CF8091E800877F8093E800809196
:10213000E80080FFFCCF8091FD03BCCF803899F090
:10214000823809F0C6C180910F048F70873008F083
:10215000C0C18093E9008091EB0085FB882780F95E
:102160001092E90006C08091070490910804911133
:1021700082609091E800977F9093E8008093F1004F
:102180001092F1008091E8008E779FC1882309F4B6
:102190008DC1823009F09DC180910D04811190C1E3
:1021A00080910F048F702FEF280F263008F091C117
:1021B0008093E9002091EB0020FF82C1933031F43D
:1021C0008091EB0080628093EB007AC19091EB00EC
:1021D00090619093EB0021E030E001C0220F8A95DE
:1021E000EAF72093EA001092EA008091EB00886001
:1021F000EACF81116EC110910D041F778091E30029
:102200008078812B8093E3008091E800877F809322
:10221000E8000E9432078091E80080FFFCCF8091A7
:10222000E30080688093E30082E0111183E08093F3
:1022300009044FC18058823008F04BC120910D0431
:1022400030910E042C3DE3E03E07A1F583E08A8344
:102250008AE289834FB7F894DE01139620E03EE0CE
:1022600051E2E32FF0E050935700E49120FF03C0C8
:10227000E295EF703F5FEF708E2F90E0EA30C0F094
:10228000C7968D939D932F5F243159F74FBF80914F
:10229000E800877F8093E8006AE270E0CE01019653
:1022A0000E94DE078091E8008B778093E80011C1DF
:1022B000C096E7CF80910F0490911004432F5527CB
:1022C0004330510509F44AC078F54130510509F40D
:1022D0007AC08BE590E0EDE5F7E04230510509F07A
:1022E000F8C02091E800277F2093E8002091110496
:1022F000309112048217930708F49C0140E02115E5
:10230000310509F065C0411163C08091E80082FD8C
:10231000C9CF80910904882329F2853019F2809170
:10232000E80083FFF2CFBECF4132510509F43CC033
:102330004232510509F0CDC08330910508F0C9C083
:10234000FC01EE0FFF1FE556FE4F0190F081E02DDE
:1023500088569E4FDC018C9190E01AC033272130C3
:102360003105D1F02115310561F02230310509F038
:10237000B0C0EAECF7E0E4918E2F90E0EAECF7E0F1
:1023800007C0EEEEF7E0E4918E2F90E0EEEEF7E07E
:10239000009709F49EC0A5CFEAEDF7E0E4918E2FF7
:1023A00090E0EAEDF7E0F4CF8330910508F091C0BA
:1023B000880F991FFC01EF55FE4F0190F081E02D31
:1023C00089E090E08ECF82E190E0E8EBF7E089CF02
:1023D00080910904882309F465CF853009F462CF20
:1023E0008091E80083FD5ECF8091E80082FD8DCF73
:1023F0008091E80080FF83CF9091F3008091F200FC
:102400002115310519F08830910550F041E0089709
:1024100009F040E08091E8008E778093E8006FCF6C
:1024200044914093F1003196215031090196E8CF53
:10243000803809F04EC08091E800877F8093E800E3
:1024400080910A048093F1009DCE811142C01091C9
:102450000D041230F0F58091E800877F8093E8004A
:1024600010930A040E943207112311F084E005C082
:102470008091E30087FDFACF81E08093090442E078
:1024800061EC81E00E94510742E261EC84E00E942D
:10249000510742E261EC82E00E94510742E260ECA7
:1024A00083E00E9451078091090413C080910D04BC
:1024B000813079F481E0933009F080E08093080462
:1024C0001092E9008091E800877F8093E8000E94E5
:1024D00032078091E80083FF0AC08091E800877F7F
:1024E0008093E8008091EB0080628093EB00AA96D5
:1024F000E3E00C94DF331092FC030E94AF0F2FEF48
:1025000084E39CE0215080409040E1F700C000004F
:1025100088E19AE00FB6F894A895809360000FBE0A
:1025200090936000FFCF80931804109229020E94BC
:10253000720F089580911804982F9670963021F4A8
:1025400088600E9493120895877FFBCF21E030E0DE
:1025500001C0220F8A95EAF7209580911804822302
:102560000E94931208959091200280958923809370
:102570002002282F277091F4282F082E000C330BEF
:102580009217130659F090919B0292FF07C0859510
:10259000859585950E94A61210922002089521E04B
:1025A00030E001C0220F8A95EAF780911804822B4F
:1025B0000E949312089580932B02109229020E9488
:1025C000720F0895882321F00E94410B0E94720F20
:1025D0000895882339F09091FC03982B9093FC0385
:1025E0000E94720F08958823E1F19CEF980F913AB1
:1025F00080F4ECEAF1E022EB31E09191891303C021
:10260000DF0111971C922E173F07B9F70E94720F36
:10261000089590E2980F983050F4877091E001C0CF
:10262000990F8A95EAF7892F0E94410BEFCF9BE51E
:10263000980F9330B8F48091C6019091C701892B0F
:1026400081F01092C7011092C601E091F403F0915D
:10265000F503309731F00680F781E02D90E080E0BF
:1026600009950895885A8731E0F78091C8019091C3
:10267000C901892BB1F31092C9011092C801E091F0
:10268000F403F091F503309761F30084F185E02DB8
:10269000E5CFCF93C82F8823A9F08CEF8C0F813A18
:1026A00000F5ECEAF1E0DF018D91C81769F081E0F7
:1026B000A23BB807C9F76C2F8AEA91E00E945F0835
:1026C0000E94720FCF9108958191C81303C0DF015A
:1026D00011971C9281E0E23BF807B1F70E94720F5C
:1026E000EACF80E28C0F883068F7C77021E030E0D5
:1026F00001C0220FCA95EAF78091FC03822B8093D8
:10270000FC03DECF1F93CF93DF93182FEB010E94C2
:1027100049138FE99FE00197F1F700C0000021976E
:10272000C1F7812F0E94F312DF91CF911F9108957D
:102730000F931F93CF93DF93EC01FC0101900020D6
:10274000E9F78F0101501109C017D10728F0DF9177
:10275000CF911F910F91089589910E94870EF4CF18
:10276000B0E0A0E0E6EBF3E10C94BE336C017B013A
:1027700064E670E088E70E94FE30EC0197FD12C02D
:1027800010E000E0F601E00FF11F849164E670E0D4
:102790000E946A31EC01892B29F40F5F1F4F0E153F
:1027A0001F0581F70E94E031CE01CDB7DEB7E8E02A
:1027B0000C94DA338091F2039091F303911103C0EA
:1027C00091E089270895882369F062E070E08BED3D
:1027D00094E00E94B013892B19F08091F2030895C0
:1027E0001092F2038091F203EBCFCF93C091F203EA
:1027F0008091F3038823D1F00E945308605A7541F9
:102800008F4F9F4F6093EE037093EF038093F0031D
:102810009093F103C11108C062E070E089ED94E08B
:102820000E94B013892B29F0C091F2038C2FCF9115
:10283000089581E08093F203F7CFCF93DF93C7EB46
:10284000D2E060E0CE010E9466342196C11584E09A
:10285000D807B9F7DF91CF9108951F93CF93DF93F6
:10286000122F8430E0F46A30D0F44830C0F490E1A4
:10287000699FE001112450E0440F551FC40FD51F7C
:1028800090EA899FC00DD11D1124632FCE01C796F8
:102890000E946634612FCE01C8960E946634DF9193
:1028A000CF911F910895AF92BF92CF92DF92EF9296
:1028B000FF921F93CF93DF938DEDC82E84E0D82E27
:1028C000D0E07601C0E014C0F50125913491412F8C
:1028D0006C2F8D2F0E942D1482E0A80EB11C1F5F5B
:1028E000183091F780E1E80EF11CCF5FCA3019F083
:1028F000570110E0E9CFDF5F80EAC80ED11CD43069
:1029000001F7DF91CF911F91FF90EF90DF90CF9073
:10291000BF90AF90089586E390E00E9466340895DA
:10292000CF93C82F6FEF811163E283E390E00E94A1
:1029300066346FEFC11161E084E390E00E94663479
:102940006FEFC11166E185E390E00E946634CF919C
:10295000089580E00E94901460E070E0CB010E9436
:102960008B140E9453140E941D1481E00E94901445
:102970000895CF93C0919B02C2FB992790F99817B5
:1029800091F080FBC2F9C0939B0260919A0284E0AF
:1029900090E00E9466346C2F82E290E00E946634E0
:1029A00082E00E94B312CF9108950F931F93CF93AB
:1029B000DF93843030F56A3020F5483010F520E19F
:1029C000629F8001112450E0440F551F040F151F12
:1029D00030EA839F000D111D1124C801C7960E9483
:1029E0005234C82FD0E0DC2FCC27C801C8960E94F3
:1029F00052349E01282BC901DF91CF911F910F9175
:102A0000089590E080E0F8CF462F843040F47A308B
:102A100030F4683020F4672F0E94D514089590E0B8
:102A200080E00895CF92DF92FF920F931F93CF9390
:102A3000DF936C010091180480912B02082BC7E0F2
:102A4000D0E010E0FC2EC8010C2E02C095958795B1
:102A50000A94E2F780FD0CC02197A0F7F12C8F2D8E
:102A6000DF91CF911F910F91FF90DF90CF9008954C
:102A7000B6018C2F0E9404150E94D109019761F3C1
:102A8000EECFCF93DF93EC010E941215BE010E949E
:102A900004150E94D109DF91CF910895FC01838133
:102AA0009481892B29F08081918189238F3F51F472
:102AB00080E00895843FE1F717C0883EA8F0813F89
:102AC000B9F712C0808191810E94411592959F7043
:102AD000963099F358F4925F9F70923048F7803F98
:102AE00019F040F7883E20F781E008959A5FF4CF0F
:102AF00086E390E00E945234682F70E090E080E01E
:102B0000089583E390E00E945234833289F484E391
:102B100090E00E945234813059F485E390E00E94A5
:102B2000523491E0863109F090E0892F8170089548
:102B300080E0FCCFCF92DF92EF92FF926B017C019D
:102B40000E949D08B701A60188E090E00E947834B9
:102B5000FF90EF90DF90CF900895A3E0B0E0E3EB1B
:102B6000F5E10C94C033F82E062F142FE22E80913D
:102B7000130480FF3DC0E82FE695F0E0EF56FE4FCE
:102B800090819093EA038E7F8230B1F5453608F04C
:102B900044E69E012F5F3F4F602F8F2D0E94B308A8
:102BA0004B8169818A810E94A20D809114048F114A
:102BB00008C080911504801304C080911604811709
:102BC00029F08091EC0382608093EC03F09214046E
:102BD0000093150410931604EE2051F06091130435
:102BE0007091140480911504909116040E949A1516
:102BF0002396E6E00C94DC339230B9F6109116047B
:102C0000D4CFE3E1F4E043812AE0421B08F440E042
:102C100021E0628181810E94AD150895E3E1F4E035
:102C200043812AE0420F08F44FEF21E06281818165
:102C30000E94AD150895E3E1F4E0628121E1621B99
:102C400008F460E021E0438181810E94AD15089580
:102C5000E3E1F4E0628121E1620F08F46FEF21E02B
:102C6000438181810E94AD150895E3E1F4E0818103
:102C700021E04381628181510E94AD150895E3E115
:102C8000F4E0818121E0438162818F5E0E94AD1575
:102C9000089580911704882319F0815080931704B8
:102CA000609113047091140480911504909116049E
:102CB0000E949A15089580911704833018F48F5F4D
:102CC000809317046091130470911404809115048B
:102CD000909116040E949A150895E3E1F4E083E0D0
:102CE000808311828FEF828384E683831482AAEE2D
:102CF000B3E012968C911297836012968C93608148
:102D00007181828193810E949A15089568EE7EEF09
:102D100090E080E00E94843460E082E090E00E94D5
:102D2000663460E083E090E00E94663410922B02EB
:102D300060E084E090E00E94663464E082E290E02B
:102D40000E94663460E085E090E00E94663460E0B6
:102D500086E090E00E9466346FEF87E090E00E948A
:102D6000663440E050E0BA0188E090E00E94783498
:102D700060E08DE090E00E94663440E050E0BA01EF
:102D800088E190E00E94783460E087E190E00E9462
:102D9000663440E050E0BA018CE190E00E94783463
:102DA00070E060E080E290E00E94843440E050E017
:102DB000BA0188E190E00E94783480E00E9490148B
:102DC0000E94A91440E050E0BA018FE090E00E9418
:102DD0007834109211031092120310921303109280
:102DE000140382E390E090931203809311034091C7
:102DF000110350911203609113037091140383E146
:102E000090E00E9478340895B0E0A0E0EAE0F7E1B5
:102E10000C94BF337901C82F880FDD0B4115510584
:102E2000A9F0FE0193E0EE0FFF1F9A95E1F7E65F30
:102E3000FE4F81819281835D9D4F208130E042175A
:102E4000530708F49A01A9010E944934CE010E9457
:102E50002A33D82E8823D1F001151105B9F083E06B
:102E6000CC0FDD1F8A95E1F7FE01E65FFE4F43813F
:102E700050E00417150708F4A801C65FDE4F6C8107
:102E80007D81635D7D4FC7010E9449348D2DCDB793
:102E9000DEB7E7E00C94DB33A5E0B0E0E2E5F7E174
:102EA0000C94BC338D83E62E5A01F22E680180917A
:102EB00024068A3028F080E02596EAE00C94D83386
:102EC0008D818830C4F31A8219828A836B832C83A4
:102ED00063E070E0CE0102960E9479088983E09257
:102EE0003201F092450110E000E030E020E044E0E3
:102EF00050E0BE016F5F7F4F84E00E94041788237B
:102F0000D1F24E2D50E030E020E0B50185E00E9486
:102F10000417882381F230E020E041E050E0BE0158
:102F20006B5F7F4F86E00E940417882321F20F2DEC
:102F300010E0960150E040E070E060E087E00E9421
:102F40000417BACFA8E0B0E0E8EAF7E10C94C23386
:102F500085E0E3E1F4E0DE01119601900D928A959F
:102F6000E1F78091EA039091EB03A091EC038E834B
:102F70009F83A8872885409190025091910260918B
:102F80009202709193023FB7F8948091F703909169
:102F9000F803A091F903B091FA033FBF841B950B8E
:102FA000A60BB70B84369105A105B10510F42223B9
:102FB000C1F010E000E030E020E048E050E0BE0169
:102FC0006F5F7F4F83E00E940417882369F00E949F
:102FD00053086093900270939102809392029093B1
:102FE00093021092EC0381E02896E4E00C94DE3327
:102FF000A4E0B0E0EEEFF7E10C94C23340918C0214
:1030000050918D0260918E0270918F022FB7F894CB
:103010008091F7039091F803A091F903B091FA031E
:103020002FBF841B950BA60BB70B11E084369105BF
:10303000A105B10518F10E94550E6E5F7F4F8F4FAD
:103040009F4F69837A838B839C8310E000E030E09C
:1030500020E044E050E0BE016F5F7F4F82E00E94BD
:103060000417182F882351F00E94530860938C0294
:1030700070938D0280938E0290938F02812F2496FD
:10308000E4E00C94DE33A6E0B0E0E9E4F8E10C946F
:10309000C0337B0101E010E09E012A5F3F4F50E00A
:1030A00040E070E060E080E00E940417182F882361
:1030B00009F453C0409188025091890260918A02BC
:1030C00070918B022FB7F8948091F7039091F803D9
:1030D000A091F903B091FA032FBF841B950BA60BA7
:1030E000B70B84369105A105B10548F465E070E0A1
:1030F0008EE292E00E9479089E81891771F105E0C5
:1031000010E09E012F5F3F4F50E040E070E060E034
:1031100081E00E940417082F65E070E08EE292E0E3
:103120000E94790811E09E81981310E0102301F1AC
:103130000E945308609388027093890280938A02E8
:1031400090938B0285E0FE013196A3E8B2E00190F6
:103150000D928A95E1F711E00BC085E0EEE2F2E016
:10316000DE01119601900D928A95E1F71111EACFD7
:1031700085E0E3E8F2E0D70101900D928A95E1F74E
:10318000812F2696E6E00C94DC330E946F0E80932C
:10319000090180910901882359F01092750180E29C
:1031A000809376010E941F0E81110E943E32089585
:1031B00080E280937501F4CF90E080E00E9460345B
:1031C000883E9E4F19F40E948115089580E008956D
:1031D00028E030E043E060E087EF0E942630089569
:1031E000ACE0B0E0E6EFF8E10C94BE334F835887D3
:1031F00069877A878B879C878091E702882399F07B
:103200000E94E81880E50E949E302AEB2A95F1F78B
:1032100000C00E94B630887899278038910509F45B
:1032200084C00E94CE300E941F0E882309F468C01B
:103230000E9453080091C1011091C2012091C30165
:103240003091C4016B017C01C01AD10AE20AF30A71
:1032500097018601083011052105310508F450C099
:103260006093C1017093C2018093C3019093C40124
:103270000091F5021091F6022091F7023091F802C8
:10328000601B710B820B930B6233710581059105F5
:1032900080F41092EB021092EA021092ED0210926A
:1032A000EC021092EF021092EE021092F1021092D4
:1032B000F0021091F4020E946F0E112309F462C013
:1032C000BE01695F7F4F8AEE92E00E94CD0B0091B4
:1032D000F4021091E7020E946F0E011709F47CC0FE
:1032E000BE01695F7F4F8EEE92E00E94CD0B86E0BB
:1032F000FE013796A3E0B3E001900D928A95E1F7C5
:1033000086E0FE013796DE01119601900D928A95B6
:10331000E1F729813A814B815C816D817E8180E07A
:1033200090E02C96E8E00C94DA330E94B6300E94CC
:10333000B6307C010E94B63020E0E22AF82A0E94D2
:10334000B6308C010E94B63020E0022B182B0E9470
:10335000CE30F894B7018091EA029091EB020E947E
:103360009A0C9093EB028093EA02B8018091EC02F0
:103370009091ED020E949A0C9093ED028093EC02E2
:10338000789451CF8091EA029091EB0281382FEF2F
:103390009207D4F080389105CCF48195898780918B
:1033A000EC029091ED0281382FEF92078CF080387B
:1033B000910584F48A871092EB021092EA0210922F
:1033C000ED021092EC0283CF81E8E7CF8FE7E5CFE3
:1033D00081E8F0CF8FE7EECF8091EE029091EF027F
:1033E00081382FEF9207D4F080389105CCF4819585
:1033F00089878091F0029091F10281382FEF920736
:103400008CF08038910584F48A871092EF02109234
:10341000EE021092F1021092F00269CF81E8E7CF3C
:103420008FE7E5CF81E8F0CF8FE7EECFCF93DF9343
:10343000D82FC62F0E94E8188D2F80680E949E30DA
:103440008C2F0E949E300E94CE308FEC92E001972C
:10345000F1F700C00000DF91CF910895682F893700
:1034600008F068E76093F20291E09093F302909184
:10347000E702992359F06150811101C064E08FE0A7
:103480000E94161A60E080E50E94161A0895FB015A
:1034900080810E942E1A08959091F202911101C02C
:1034A00095E0282F880F330BA901490F511DCA0140
:1034B0001816190614F081E090E00E942E1A089563
:1034C000CF93C82F0E94E8188C2F0E949E308FE760
:1034D00092E00197F1F700C000000E94B630C82FBB
:1034E0000E94CE309AE69A95F1F700C08C2FCF91CA
:1034F0000895CF93DF930E941E30879A0E94E818A8
:103500006AE58AE30E94161A2FEF80E792E02150C5
:1035100080409040E1F700C0000082E00E94601A05
:1035200083E00E94601A84E00E94601A85E00E9495
:10353000601A86E00E94601A60E080E10E94161A1C
:1035400080E00E94601AD82F81E00E94601AC82F84
:103550000E94CE30D23419F481E0C13009F080E00D
:1035600081708093E702882341F064E08FE00E943D
:10357000161A60E080E50E94161ADF91CF91089537
:103580001F920F920FB60F9211242F933F934F93D8
:103590005F936F937F938F939F93AF93BF93CF93DB
:1035A000DF93EF93FF93D091E900DF708091EC00FF
:1035B000C82FC17080FDC0E81092E9008091F00032
:1035C000877F8093F00078940E94BB0F1092E900EF
:1035D0008091F00088608093F000CD2BCF70C09375
:1035E000E900FF91EF91DF91CF91BF91AF919F9152
:1035F0008F917F916F915F914F913F912F910F909C
:103600000FBE0F901F9018951F920F920FB60F923A
:1036100011242F933F934F935F936F937F938F93D7
:103620009F93AF93BF93EF93FF938091E10082FF4D
:1036300009C08091E20082FF05C08091E1008B7F8C
:103640008093E1008091DA0080FF24C08091D8004F
:1036500080FF20C08091DA008E7F8093DA00809115
:10366000D90080FF9DC080E189BD82E189BD09B498
:1036700000FEFDCF81E0809309048091FB0381115E
:1036800009C00E94B8060E9483078091E20084600E
:103690008093E2008091E10080FF17C08091E200FA
:1036A00080FF13C08091E2008E7F8093E2008091C2
:1036B000E20080618093E2008091D8008062809374
:1036C000D80019BC85E0809309048091E10084FF53
:1036D0002BC08091E20084FF27C080E189BD82E198
:1036E00089BD89B5982F917080FFFBCF8091D8005C
:1036F0008F7D8093D8008091E1008F7E8093E100E0
:103700008091E2008F7E8093E2008091E2008160F0
:103710008093E20080910A04882309F447C084E082
:1037200080930904809109048091E10083FF27C000
:103730008091E20083FF23C08091E100877F809326
:10374000E10082E08093090410920A048091E10074
:103750008E7F8093E1008091E2008E7F8093E20073
:103760008091E20080618093E20042E060E080E0CE
:103770000E9451078091F00088608093F000FF91D3
:10378000EF91BF91AF919F918F917F916F915F91D9
:103790004F913F912F910F900FBE0F901F90189552
:1037A00019BC109209041092FB0374CF8091E300BE
:1037B00087FD93E090930904B5CF78941F921FB6CC
:1037C0001F9211248F939F93AF93BF938091F70320
:1037D0009091F803A091F903B091FA030196A11D0D
:1037E000B11D8093F7039093F803A093F903B0936E
:1037F000FA03BF91AF919F918F911F901FBE1F90B1
:1038000018959C014FB7F8948091F7039091F803B5
:10381000A091F903B091FA034FBF821B930B089557
:103820002FB7F8948091F7039091F803A091F903D2
:10383000B091FA032FBF08950E941F0E882319F03C
:103840000E94101C08950E94550ECB0108956091AE
:103850001304669570E041E050E08AE791E00E9431
:103860002F34892B19F481E08093EB030E941C1CF8
:103870009093E5038093E4038091EC03846080934C
:10388000EC0308959091130490FF31C09170811161
:103890002FC09260909313048091EC038160809319
:1038A000EC03662351F0609113047091140480912D
:1038B0001504909116040E949A1560911304669560
:1038C00070E041E050E08AE791E00E942F34892BBC
:1038D000B1F00E94960881E08093E70320E04091D8
:1038E000160460911504809114040E94AD1508958A
:1038F000873010F09C60CECF880F982BCBCF0E94E2
:10390000271CE9CF809113048695815009F486E045
:1039100061E00E94421C08958091130486958F5F98
:10392000873008F081E061E00E94421C0895809198
:10393000130480FF08C0869582588F77833018F46F
:103940000E948C1C089561E082E00E94421C089550
:1039500083E00E94CF120E94101C90931C0380935E
:103960001B0382E080931D030895AEE1B0E0EBEB12
:10397000FCE10C94C03340911E0350911F036091F1
:1039800020037091210380912203909123030E94D0
:10399000F01820931E0330931F034093200350938D
:1039A0002103609322037093230386E0EEE1F3E0AA
:1039B000DE01179601900D928A95E1F786E0FE01EF
:1039C0003796DE011D9601900D928A95E1F786E00B
:1039D000FE013D96DE01119601900D928A95E1F768
:1039E00086E0FE013196AEE1B3E001900D928A953A
:1039F000E1F786E0EEE1F3E0DE01599601900D92E9
:103A00008A95E1F786E0FE017996DE01179601902E
:103A10000D928A95E1F70B8DEC8C9E2D902B809169
:103A20001D03992309F416C1002E000C110B0E2C56
:103A3000000CFF088230F1F188F4813009F4E1C014
:103A40000E94101C90931C0380931B0381E08093C1
:103A50001D031092100310920F0332C0833099F1AE
:103A6000843071F7C701F7FE04C0882799278E19A3
:103A70009F09880F991F980117FF04C02227332739
:103A8000201B310B281739070CF042C08091170317
:103A900090911803E80EF91E40E0F7FE0DC17EEC90
:103AA000E7167FEFF7067CF1F0921803E092170318
:103AB00080E041C00E94101C90931C0380931B0364
:103AC00080E020E069C0C701F7FE04C0882799277D
:103AD0008E199F09980117FF04C022273327201B46
:103AE000310B280F391F8091190390911A03821B03
:103AF000930B90931A03809319031816190604F771
:103B000080E020E045C022E3E20EF11C4E5CC5CF10
:103B10008091150390911603080F191F80E017FF7D
:103B2000D5C00E3C9FEF19070CF464C01093160328
:103B30000093150340E0082E000C990B62E370E03F
:103B40000E94053480911403811158C081E090E0F7
:103B5000689F9001699F300D789F300D1124642F6C
:103B6000772761950CF47095CB0162E370E00E94B9
:103B700005348091130341E050E0882311F04FEFAA
:103B80005FEF649FC001659F900D749F900D11249D
:103B9000F12CE12C10E000E00987EA868B872C8766
:103BA00086E0FE013796DE01119601900D928A950E
:103BB000E1F786E0FE013196DE01539601900D9209
:103BC0008A95E1F786E0FE017396DE011796019073
:103BD0000D928A95E1F786E0FE013796AEE1B3E0FB
:103BE00001900D928A95E1F70E94470F6E96E6E0EC
:103BF0000C94DC330E5C1F4F8E5C91CF8FEF9FEFE8
:103C0000A7CFC701F7FE04C0882799278E199F09FF
:103C1000980117FF04C022273327201B310B820F86
:103C2000931F20910F0330911003820F931F9093E5
:103C3000100380930F032091110330911203821718
:103C400093070CF43DCF1092100310920F030E94C3
:103C5000A81C36CF823071F048F4813019F11092EF
:103C6000100310920F0310921D034ACF853008F401
:103C700047CFF5CF80911B0390911C030E94011C3C
:103C8000893E934008F43CCF10921D0383E00E94CC
:103C9000A612109218031092170310921603109296
:103CA00015032ECF80911B0390911C030E94011CD1
:103CB000C39708F425CFD3CF83E3E816F1040CF4BF
:103CC000F3CE62E3E61AF1084253E7CE033311055F
:103CD0000CF42CCF02531109825321CFA2E1B0E0A2
:103CE000E4E7FEE10C94B5338C01DC0113968D9171
:103CF0009C911497892B39F08C9111969C91892372
:103D00008F3F09F010C66296E1E10C94D1330E9416
:103D10001215F82E682F89819A810E94860B69817D
:103D20007A818F2D0E9404157C01F80182818823FD
:103D300009F4ECC5C70182519F45409708F0C4C5FE
:103D40008FEF93E00E945234811128C0FEEEEF0EF7
:103D500057EB852E52E0952EE11033C01C821B825A
:103D6000442443944AE0342E74018FEFE81AF80A91
:103D7000C4010E94523489831A82882379F09FEF0C
:103D8000980F933060F58A83498292E0890E911CE6
:103D9000C7010E9452348B83811122C0809120027E
:103DA000877009F4B0CFD80112968C91882309F45A
:103DB000AACF80919B0282FFA6CF82E00E94B3121D
:103DC000A2CF811424E0920649F3C4010E94523428
:103DD000811101C0EA943FEF831A930ABDCF4701D6
:103DE000DE0111967D01F7012081222309F4BCCF69
:103DF000213009F06DC091818281913061F4F2E04F
:103E0000EF0EF11C65E070E0893311F460E570E0BD
:103E10000E94821307C0923039F522E0E20EF11CB5
:103E20000E944913FFEFEF1AFF0A8FE99FE0019705
:103E3000F1F700C00000AFE9BFE01197F1F700C053
:103E40000000EFE9FFE03197F1F700C000008FE9D3
:103E50009FE00197F1F700C00000AFE9BFE01197C4
:103E6000F1F700C00000BFCF933031F432E0E30E31
:103E7000F11C0E94F312D6CF943021F08FEFE81A94
:103E8000F80AD0CF92E0E90EF11C30E020E0B70153
:103E90006F5F7F4FD70111964C918053990B8A30F9
:103EA000910558F02150310908F4BCCFEFE9FFE04B
:103EB0003197F1F700C00000F5CF329EF001339E3C
:103EC000F00D11249C012E0F3F1F842F7B01DFCFAB
:103ED000E22FF0E0E957FE4F5490822F86958695A9
:103EE000869590E0FC01E958FE4F64902770712C94
:103EF000022E02C0759467940A94E2F731E06322BF
:103F00007724FC01E959FE4FA490B12C022E02C087
:103F1000B594A7940A94E2F7A1E0AA22BB24FC017D
:103F2000E95AFE4FC490D12C02C0D594C7942A956B
:103F3000E2F7B1E0CB22DD246114710419F081EEC7
:103F40000E944913A114B10419F086EE0E9449138E
:103F5000E9E365E070E05E1202C060E570E0852D87
:103F60000E948213A114B10419F086EE0E94F3128C
:103F70006114710419F081EE0E94F312C114D1048E
:103F800009F450CF65E070E08CE242CF81E00E94FE
:103F9000CF120E949A1202CF81E00E94A612F9CF9E
:103FA00082E0F5CF86E0EEE1F3E0DE011D960190C0
:103FB0000D928A95E1F786E0FE013D96DE011796A7
:103FC00001900D928A95E1F7FE8481E090E001C0B6
:103FD000880F2A95EAF7D80112962C91222311F125
:103FE000F82A83E080931D038EE190E090931A03FA
:103FF000809319030E94A81CF88686E0FE0137967C
:10400000DE01119601900D928A95E1F786E0FE019E
:104010003196AEE1B3E001900D928A95E1F70E94EE
:10402000470FBCCE8095F822E5CFF8018281882326
:1040300021F084E080931D03B1CE0E94A81CAECE77
:10404000D80112968C91882309F4A8CE809111038F
:10405000909112030596909312038093110340915F
:10406000110350911203609113037091140383E1C3
:1040700090E00E94783492CEF8018281882309F47E
:104080008DCE809111039091120305978530910593
:1040900014F785E090E0DFCFD80112968C91882349
:1040A00009F47CCE8091130391E089278093130358
:1040B000D6CFF8018281882309F470CE8091140351
:1040C00091E0892780931403CACF82818823B1F1BC
:1040D00080911D038350823008F4AFCFB0EEEB1611
:1040E000F104F9F40E94A81CF8018281F6E1EF16B0
:1040F000FCE5FF0609F0CAC0882309F4B2C080912C
:10410000FC038A7A91E009F490E09093C50169E29A
:10411000811165E38AEA91E00E945F080E94720FB4
:104120003DCE10921D0383E00E94A6121092180348
:10413000109217031092160310921503C7019A9557
:1041400081159F41E8F4F701FF27D80112968C9161
:10415000E43FF10540F0E93FF105A0F0E83BBDE5A3
:10416000FB0709F465C0882309F4BECFE15BFD4578
:10417000EA30F10508F0B8CFEA55FB4C0C9419343D
:10418000F701E3CFE45FF10921E030E001C0220F45
:10419000EA95EAF796E0EEE1F3E0DE01179601908A
:1041A0000D929A95E1F796E0FE013796DE011D9695
:1041B00001900D929A95E1F798858823A9F0292B13
:1041C0002E8786E0FE013D96DE01119601900D924C
:1041D0008A95E1F786E0FE013196AEE1B3E0019009
:1041E0000D928A95E1F780CF20952923E9CF80E0D1
:1041F0000E942E1A1092F902D1CD4091F2025091F4
:10420000F90250FB47F95695537060E070E08FE07B
:1042100090E02FCF81E00E944C1AC0CD8FEFFBCFF2
:104220008AE0F9CF86EFF7CF9091F40281E08927F9
:104230000E944F0CB3CD8091F902811101C084E03E
:104240008F5F18160CF081E0883008F087E08093CB
:10425000F902A4CD8091F902811101C084E081505E
:10426000F0CF8091C50181110FC089E2ECEAF1E045
:1042700022EB31E09191891303C0DF0111971C9269
:104280002E173F07B9F74ACF85E3F0CF811108C158
:104290008091FC0382722AECE2162CE5F20609F406
:1042A000EFC008F07CC095ECE9169CE5F90609F42E
:1042B000D3C008F059C0B3ECEB16BCE5FB0609F41B
:1042C000C1C008F0C4C0F2ECEF16FCE5FF0609F42B
:1042D0008DC0F8018281E080F180882309F41EC13D
:1042E000C7010E941215D82E682FC7010E94860BA5
:1042F000B7018D2D0E9404150E94D1097C01882EE2
:10430000D8011296CC9012971596BC90B2943FE0CB
:10431000B322809120028770C1F0AC2CCC20B1F088
:104320008F2D807F803421F080E28E0D883068F000
:1043300080919B0282FF09C082E00E94B3128091AB
:1043400020028770AA24A3948111A12C9F2C9294FF
:104350002FE09222BBE0B91508F44FC1E92DF0E03F
:10436000E055FB4C0C94193427ECE2162CE5F206D0
:1043700009F47CC008F475C098ECE9169CE5F906D0
:1043800009F479C041E056E16EE076E1A9ECEA1665
:10439000ACE5FA0609F09DCF0E948F08FFCCBEEC79
:1043A000EB16BCE5FB0609F475C090F4FCECEF16C7
:1043B000FCE5FF0609F469C049E456E16BE576E1E6
:1043C0002DECE2162CE5F20638F361E081E037C00F
:1043D00035EDE3163CE5F30609F45FC008F4DECCE6
:1043E0009DE5E916F90609F4D9CC73CF8091130441
:1043F00080FF20C08E7F809313046091130470911E
:10440000140480911504909116040E949A150E943C
:1044100096088091EC0381608093EC03AFEFB0E7E6
:10442000E2E0A150B040E040E1F700C000000E948F
:10443000570DB4CC81608093130461E086950E948F
:10444000421CACCC42E85CE16CE87CE1A5CF4CE8D6
:104450005CE162E87CE1A0CF45E356E16FE376E101
:104460009BCF4FE356E165E376E196CF4BE156E112
:1044700068E276E191CF48E256E16BE176E18CCFDC
:104480004EE056E161E076E187CF4BE556E169E425
:1044900076E182CF0E94971C81CC61E086E0CFCF8D
:1044A000FAE5EF16FDE5FF06A9F168F4E1143CE535
:1044B000F306B9F08EEDE8168CE5F80609F009CFA1
:1044C0000E9486160CC09CE5E9169DE5F906C1F030
:1044D00018F1B7EAEB16BDE5FB0609F0FACE0E942B
:1044E0007B121092FC030E94AF0FEFEFF4E32CE07D
:1044F000E150F0402040E1F700C000000E94420877
:1045000080919B0282FB882780F991E089270E9495
:10451000B914DFCE81E0FBCF80E0F9CFC7010E9464
:10452000520BD82EE5CEEF2DEF70DE2E8F2D807F33
:1045300019F0D29490EFD922CC20B9F0DD2069F0A7
:1045400080E28E0D883010F0811009C08091FC034C
:10455000D82AD092FC030E94720F8E2D4CC08091FD
:104560002902D82AD0922902F6CF8E2D0E94F3126A
:10457000DD2009F442C080E28E0D883010F08110F9
:1045800004C08D2D0E94410B06C0D0948091290259
:10459000D822D09229020E94720F2FC0FF2DFF70E7
:1045A000DF2E8F2D807F803219F0D29480EFD822B9
:1045B000882089F021E0821609F468C0CC2009F433
:1045C00072C0BB2009F468C0F801858180FFC5CFA7
:1045D0008F70858361C020919B0222FD35C0CC2065
:1045E00069F1DD2039F08091FC03D82AD092FC03D8
:1045F0000E94720F80E00E944913E92DE850FF0BE2
:10460000349710F40E94440EAA2009F47CCB8091C8
:10461000200280FD78CBD80112961C928595859555
:1046200085950E94CF12C8010E946E1E80912002C3
:104630008595859585950E94A61265CB80E00E94A0
:10464000F312DD20D1F29DCFCC2099F090912A0277
:10465000892F8D29B11003C00E94E912CECF31E01D
:10466000B312FACF22FFC9CF981739F280932A02EA
:10467000C4CFB11006C00E943B0B8D2D0E94E212E8
:10468000BCCF81E0B81609F4B8CFF5CFCC2031F01B
:1046900095E09B1508F4B1CF8D2DDECFA4E0AB15CE
:1046A00008F4ABCFEACFBB2041F3F9E38F1204C18A
:1046B0002FEF37EE83E0215030408040E1F700C01B
:1046C00000008E2D0E94F31298CF8F2D837091F5EC
:1046D000C11093CF4E2D429546954770440F440F1D
:1046E0008E2D8F70042E01C0880F0A94EAF72E2DAC
:1046F0002071E4FE07C02FE030E001C0220F4A9590
:10470000EAF720953F2D369536953370323069F0B3
:1047100050F440912B02313029F0822B84230E94E7
:10472000DB126BCF842B822BFACF282B80912B02AC
:104730008227F5CF8695CC2011F08F2D81708823AC
:1047400009F45BCF4E2D429546954770440F440FB8
:104750008E2D8F70042E01C0880F0A94EAF72E2D3B
:104760002071E4FE07C02FE030E001C0220F4A951F
:10477000EAF720953F2D369536953370323069F043
:1047800050F440911804313029F0822B84230E9488
:10479000931233CF842B822BFACF282B80911804CD
:1047A0008227F5CFBF2DBF70FB2ECC2029F08B2F99
:1047B0000E94CF128E2D50CF8E2D0E94E2128F2D8F
:1047C0000E94A6121ACF8E2DE2EF8E16B1F1E815D7
:1047D00070F0F0EF8F16D1F021EF821691F0CC201F
:1047E00009F45EC0B110B9CE8F2D8F712AC033EF9E
:1047F000831651F194EF8912F2CF80919B0282FDD2
:104800002FC08F2D8F71CC20D9F21BC0CC2081F00E
:10481000A4E0AB1508F4F1CE2F2D2F7181E090E0CC
:1048200001C0880F2A95EAF7909118048927AFCF25
:10483000B5E0BB1508F4E1CEEFCF8F2D8F71C1101D
:10484000BFCF0E94CF12D9CE80E0CC2009F49FCFF9
:104850009F2D9F7181E001C0880F9A95EAF797CF4D
:10486000CC2099F0EF2DEF71FE2E8E2F0E94CF12EB
:1048700080919B0282FF07C0F8E0FF9EC0011124D7
:104880008360809320028F2DDCCF81E00E94B312E1
:1048900021E02B1508F0B1CE82E00E94B312ADCE1C
:1048A000BB2079F0893341F43FEF87EE93E031503C
:1048B00080409040E1F703CFAFE1BEE41197F1F7FC
:1048C000FECE8F2D8F717CCFB0E1EB16BFE5FB06DE
:1048D00009F45CCBE1E1EE16EFE5FE0609F460CBEE
:1048E000F0920003E092FF02F801808191819093A1
:1048F000020380930103970130582A30310508F0F4
:10490000E4CBF901E454FB4C0C941934F0E1EF16BC
:10491000FFE5FF0609F440CB21E1E2162FE5F206A0
:10492000F9F682E03ACB85E0F801DE0111960190BC
:104930000D928A95E1F7D80112962C9189819A817E
:104940002111E5C90E94520BF82EE9C91F93CF939C
:10495000DF938091ED01807F09F049C08091EA01E9
:10496000882309F444C080911F02D091EE01609128
:10497000E8017091E901A091EB01B091EC01C62F23
:10498000C72316E0D81799F190E0109711F0CF3FA8
:1049900019F401968770F6CF189F9001199F300D7A
:1049A0001124F901E151FE4F41814713F2CF4081BB
:1049B0004613EFCF42814111ECCF438154814A1B12
:1049C0005B0B483C510528F78091ED018F708061A9
:1049D0008093ED01F901EC50FE4F80818F70806172
:1049E000808388EE91E00E946E1E0E94480BDF914A
:1049F000CF911F910895A1E1B0E0E1E0F5E20C94C0
:104A0000BC338C0185E0F801DE011D9601900D920A
:104A10008A95E1F7F801E28088EEA82E81E0B82EB1
:104A20006091EB017091EC016115710509F426C1EB
:104A30009091E8014091E901892F84238F3F09F487
:104A40001DC120813181C380D480F090EA01F6013C
:104A5000E61BF70BFF2009F4DCC08091ED01582F15
:104A6000507FE83CF10508F09FC051116BC0FE2C4F
:104A7000431314C0921312C0E11010C08F708061F4
:104A80008093ED01C5010E946E1E8091ED01F80139
:104A900085838F2D6196EAE00C94D833C114D1043C
:104AA00029F0822F83238F3F09F003C180E0F82F84
:104AB000F170DF2E80FF3CC080911F024091EE011B
:104AC00056E0841315C02D873E878D859E850E94F4
:104AD0004115292F22952F702230F0F0243018F53F
:104AE0009F70F1F0F8019581907FD1F4D12C1EC018
:104AF00090E0589FF001599FF00D1124E151FE4FB5
:104B00006181361306C06081261303C06281E612FC
:104B10000FC001968770D5CF9F7011F0882331F3B5
:104B2000805E883018F3C8010E946E1EFD2CB1CF44
:104B3000EE2009F4AECF8091ED0181608093ED010C
:104B4000F12CA7CF431306C0921304C0F801EE2046
:104B500009F479C0C8010E944E15882309F1EE209E
:104B6000F9F08091ED01803270F02091E8013091F0
:104B7000E90138872F831986DB86CA868C87CE01A8
:104B800007960E946E1E86E0F801A8EEB1E0019043
:104B90000D928A95E1F70E94A624FF24F39479CF21
:104BA000C8010E946E1EF9CF51110AC088EE91E033
:104BB0000E946E1E86E0F50111928A95E9F7C0CF3A
:104BC00043130FC092130DC0E1100BC0F801858391
:104BD000C8010E946E1E86E0F50111928A95E9F7E0
:104BE00058CFC8010E944E158823D1F2EE20C1F2A1
:104BF0008091ED01803238F22091E8013091E90195
:104C00003A8329831B82DD82CC828E83CE0101967A
:104C1000B8CFE83CF105F8F6FE2CEE2009F243137C
:104C20001FC092131DC08091ED0180FD10C0982F10
:104C3000907F69F0F8018583903F31F0982F907F45
:104C4000905F8F70892B8583C8010E946E1E86E05D
:104C5000F801A8EEB1E001900D928A95E1F719CF25
:104C6000C8010E944E1581118ECF8091ED018160A7
:104C70008093ED01C8010E946E1E0BCFEE2009F457
:104C80008FCFC8010E944E15F82E882309F488CFD3
:104C900086E0F801A8EEB1E001900D928A95E1F767
:104CA0008091E8019091E9010E9441150E94A6249B
:104CB000F0CE81E08E25FBCEA7E1B0E0E2E6F6E2A1
:104CC0000C94C3334B8B5C8B6D8B7E8B8F8B611104
:104CD000109229021A8A198A85E0FE017396DE0174
:104CE0001D9601900D928A95E1F786E0FE013D96B2
:104CF000DE01179601900D928A95E1F7CE01079695
:104D00000E94FB24882359F016E080911F029091A5
:104D1000EE01891345C06796E3E00C94DF3386E02B
:104D2000FE013796DE01119601900D928A95E1F70A
:104D30008A859B85892B41F38F81988589238F3FB5
:104D400019F32091EE0130E0C9010196877099278F
:104D500040911F024817190681F41092FC030E942B
:104D6000AF0F1092EE0110921F0286E0E8EEF1E024
:104D7000DF011D928A95E9F7C7CF96E0929FD00197
:104D8000939FB00D1124A151BE4FFE0131960190A9
:104D90000D929A95E1F78093EE010E94480BB4CFF3
:104DA000819FC001112481519E4F0E94FB248823C2
:104DB00009F4B1CF80911F0290E001968770992786
:104DC00080931F02A2CFB0E0A0E0E9EEF6E20C94DF
:104DD000B83335E0C32E31E0D32E45E2842E46E0D1
:104DE000942E00E011E0712CAA24A394B12CD801D8
:104DF0008D918D010E94AD0C00C0E401688025E01A
:104E0000E22E21E0F22EF701D0E0C0E04191A42F84
:104E1000A295AF70B0E090968C9195010C2E01C0D8
:104E2000220F0A94EAF790E04F7002C0959587959B
:104E30004A95E2F780FD8EC0622A2196C430D105E2
:104E400029F7F801319780810E94C10CA0EAAA9548
:104E5000F1F7F4018081861519F06082772473944C
:104E6000FFEF8F1A9F0A21E00530120709F0BFCF2C
:104E700001E010E0D7018D917D010E94AD0C00C0D2
:104E8000C8010C2E01C0880F0A94EAF7782FE5E2DA
:104E9000F6E090E0A92E91E0B92E682F6095D5013B
:104EA0002D915D01822F82958F7090E0DC019096AC
:104EB0008C91AF01308190E02F7002C0959587955D
:104EC0002A95E2F780FD49C0872F832B8083319696
:104ED000DA018C91381711F077247394CA14DB042B
:104EE000F1F6F701319780810E94C10CB0EABA95C2
:104EF000F1F72196C830D10509F0BCCFC0919902D5
:104F0000772071F181E08093B4010E94101C90938E
:104F1000B3018093B2018091B2019091B3010E94DC
:104F2000011C059708F1D0E0CE52DD4F45E050E07E
:104F300065E276E0CE010E943C34892B41F085E0A9
:104F4000E5E2F6E0DE0101900D928A95E1F710921C
:104F5000B4010AC02095622270CF862F8323B6CF7A
:104F60008091B4018111D7CF0E941F0E182FE091BC
:104F70009902811193C0F0E0EE52FD4F85E0AEE260
:104F8000B2E001900D928A95E1F765E070E08EE263
:104F900092E00E94790880932D02C0903302D09055
:104FA0003402E0903502F09036028091B501909184
:104FB000B601A091B701B091B801C816D906EA06AA
:104FC000FB06D1F0C092B501D092B601E092B701D4
:104FD000F092B8010E941F0E81110EC00E9453086A
:104FE000C61AD70AE80AF90AC0929402D09295022A
:104FF000E0929602F092970280913E02882379F126
:1050000080FF0DC0809137029091130480FF2DC066
:1050100091609093130460E086950E94421C8091F9
:105020003E0281FF09C020E040913A0260913902BE
:10503000809138020E94AD1580913E0282FF06C029
:1050400080913D02882339F10E94271C80913E0205
:1050500083FF03C081E08093E70310923E02872D17
:10506000CDB7DEB7EEE00C94D4339E7F909313045B
:105070000E9496088091EC0381608093EC03CFEF4F
:10508000D0E7E2E0C150D040E040E1F700C00000CE
:105090000E94570DC4CF0E949608D8CFAAE2B6E06E
:1050A00085E0ED0119928A95E9F7CE2FD0E0CE5236
:1050B000DD4F809124068A30A8F563E478E1CE01C3
:1050C0000E94D60C882309F449C068EF77E1CE012D
:1050D0000E94D60C882309F441C062EA77E1CE0130
:1050E0000E94D60C8823D1F11092240681E080938F
:1050F000BB01C0919802D0E0CE52DD4F45E050E0B8
:105100006AE276E0CE010E943C34892B09F4A7CFF5
:1051100085E0EAE2F6E0DE0101900D928A95E1F782
:10512000712E9DCF8091B9019091BA010E94011C0E
:10513000843F914010F68091BB01882309F48FCF02
:105140001092BB01E0919802F0E0EE52FD4F95E025
:10515000DF011D929A95E9F7782E81CF8091240680
:105160008F3F31F08F5F809324068A3008F4BECFE2
:105170000E94101C9093BA018093B901DCCF1F925A
:105180001FB61F9211248F939F93AF93BF9380916B
:10519000F603811113C08091F7039091F803A09159
:1051A000F903B091FA034196A11DB11D8093F70355
:1051B0009093F803A093F903B093FA03BF91AF91D2
:1051C0009F918F911F901FBE1F901895CDB7DEB78E
:1051D000AE970FB6F894DEBF0FBECDBF85B780681F
:1051E00085BF85B7806885BF84B7877F84BF0FB6CA
:1051F000F894A89580916000886180936000109277
:1052000060000FBE80E890E00FB6F89480936100D4
:10521000909361000FBE8DE599E09093A901809372
:10522000A8010E94B8060E9483078091E200846072
:105230008093E2007894809109048823A1F0109172
:10524000E9001F709091EC00892F817090FD80E83B
:10525000182B1092E9008091E80083FD0E94BB0F9B
:105260001F701093E90082E084BD93E095BD9AEF32
:1052700097BD80936E001092940210929502109246
:105280009602109297020E948115811102C00E941D
:10529000A9140E94C518809109010E94C518809127
:1052A00005010E94C10C809106010E94C10C8091F1
:1052B00007010E94C10C809108010E94C10C00E00E
:1052C00011E085E0E82E81E0F82ED8018D918D0166
:1052D0000E94C10CE016F106C1F78091090195E02A
:1052E000811190E09093990285E0891B8093980248
:1052F0000E941F0E811102C00E944132E5E2F6E0D9
:105300008FE296E0A2EDB2E011921D928E179F07F8
:10531000D9F70E94DC18811102C00E94861682E033
:1053200090E00E94523480939F0284E090E00E94BB
:105330005234182F82E290E00E945234982F812F2D
:1053400090939B0280939A020E94E326EFE3FCE98C
:105350003197F1F700C000000E94E3268091D2024D
:1053600080FF08C06FEF7FEF90E080E00E94843400
:105370000E94420883E090E00E9452340E94DB12B7
:105380000E941F0E882309F459C180E08093CD024A
:1053900080E8809319040E94F8306DE070E08AE1A3
:1053A00092E00E94B013892BE9F58091CD0263E071
:1053B00070E081FD45C187E192E00E94B013892B26
:1053C00089F56DE070E087E092E00E94B013892BD0
:1053D00049F50E945308605A75418F4F9F4F609363
:1053E000EE037093EF038093F0039093F103ECE1ED
:1053F000F4E080E092E0DF019C011D9221503040FA
:10540000E1F7F0932306E09322068FEF9FEF90934E
:105410001B0480931A0481E08093F3038093F203CA
:105420001092CE0280919C02811138C00E94DC183B
:10543000811104C00E9486160E946D1688E090E0DB
:105440000E945A34609313047093140480931504DB
:10545000909316048091EC0383608093EC036E7F3D
:1054600071F40E946D1688E090E00E945A346093B7
:1054700013047093140480931504909316040E94EF
:105480009D080E9496088091130480FF04C060E08C
:1054900086950E94421C81E080939C020E941F0E10
:1054A000811102C00E9441320E94791A0E941F0E8F
:1054B00081112EC083E69CE09093510180935001AE
:1054C00026E130E030934C0120934B0186E390E0DD
:1054D00090934F0180934E0149E459E05093590154
:1054E00040935801309354012093530190935701F6
:1054F0008093560147E45AE1509361014093600163
:1055000030935C0120935B0190935F0180935E0177
:105510000E94DC18882389F08FE090E00E945A34C2
:105520008B01862F8F770E942E1A001F0027001FE5
:105530001370110F102B1093F90283E190E00E9479
:105540005A34609311037093120380931303909362
:10555000140382E691E09093F5038093F403B0E4A2
:105560006B2EEE24E3948091090400E112E1853072
:1055700009F4A7C00E94E32600EA12E087E891E060
:105580009CA78BA7BC0122ED32E0F8019191D901D3
:105590008D919D01DB014D91BD018423AAEACA2EA4
:1055A000A2E0DA2ECE16DF0609F497C0981771F341
:1055B0000E941F0E482EE7E8CE2EE1E0DE2EF2ED2F
:1055C000AF2EF2E0BF2E912CD501FD905D01F601CA
:1055D00081916F01F822D8015D908D015F1429F14E
:1055E0005F24812C77247394852D8721B1F044208A
:1055F000A1F08EA29FA291E08F2D872109F490E067
:1056000098A70E94101C8160782F9AA789A74EA1A5
:105610005FA168A58AA50E945C268394770CB8E0F8
:105620008B12E2CFF8013197F0829394EAE09E1258
:10563000CBCF0E945308FF24F39470C082E0A6CE23
:1056400084E192E0BACE80910904843039F10E945D
:10565000DA130E94B51C1092F60348E150E00FB631
:10566000F894A895409360000FBE6092600083B7E5
:10567000817F846083BF83B7816083BF789488957E
:1056800083B78E7F83BF0FB6F894A8958091600092
:10569000886180936000109260000FBE80910804C2
:1056A000882379F00E94E326A7E8B1E0E2EDF2E07A
:1056B00081919D91892309F0A9C452E0EC3DF50741
:1056C000B9F780910904853009F4BDCF1092FC032D
:1056D0000E94AF0F0E94440E4DCF981369CF0E94D5
:1056E000101C8C0180919D0290919E020817190751
:1056F000A1F08FEF89A38AA31BA20E94101C8160D6
:10570000782F9DA38CA349A15AA16BA18DA10E94C2
:105710005C2610939E0200939D02F12C0E941F0EA6
:105720008091EB03882309F463C08091EA03E09140
:105730001304E695E81BE093E603823009F075C197
:10574000F0E0E75DFD4FE4910E2F10E074EFC72EFF
:105750007DE0D72E8091E703882361F01092E70364
:105760000E941C1C9093E5038093E4031092E903CC
:105770001092E8030E941C1CE091E403F091E50301
:105780009C012E1B3F0B2F3F3F4790F52091AC0211
:105790002223B1F01092AC022091AA023091AB0208
:1057A000821B930B8F3F9F4758F4205D3A483093FC
:1057B000AB022093AA028091EC0388608093EC03F3
:1057C000A090E803B090E9030E0F1F1F1093E503AC
:1057D0000093E40384EE93E0F60109958091E803D9
:1057E0009091E903892B21F4AB2811F0E092AC02EF
:1057F0008091F303882351F18091CF029091D002E0
:105800000E94011CC29708F022C120911A04309115
:105810001B042115310509F0CDC18091F2038823C5
:10582000A9F00E9453080091EE031091EF0320911C
:10583000F0033091F103601B710B820B930B6F3FF0
:105840007F4F8F4F9F4710F40E94DA13F1100E9490
:10585000F5130E94B51C0E94440E9091D102891745
:1058600021F08093D1020E94530880910904843072
:1058700009F473C20E941F0E882309F474CE0E949B
:1058800053082091E20221116BC00091DE021091B9
:10589000DF022091E0023091E1026B017C01C01A2D
:1058A000D10AE20AF30A97018601043F114021055B
:1058B000310508F455C06093DE027093DF028093D7
:1058C000E0029093E1028091DC029091DD0201966A
:1058D0009093DD028093DC0219828E010F5F1F4FCF
:1058E00021E050E040E060E088E00E944C17811128
:1058F00006C08091DC029091DD020A978CF181E074
:105900008093E2028093E8029981911101C080E0C6
:105910008093E9028091E70210E0882329F00E9439
:105920006F0E11E0811112E08091E902882309F4E1
:1059300069C30E946F0E811167C382E0182B0E9419
:1059400078156B017C01DC01CB018C7FBC01CD01A2
:10595000612BC616D706E806F90611F00E948B14D3
:105960008091E902882309F4FCCD0E9453086B0161
:105970007C018091E3029091E402A091E502B09154
:10598000E602A7019601281B390B4A0B5B0BDA01D3
:10599000C9010497A105B10580F119821A821B8201
:1059A0001C828E010F5F1F4F24E050E040E060E05A
:1059B00089E00E944C178823C1F069817A81809127
:1059C000EE029091EF020E949A0C9093EF02809366
:1059D000EE026B817C818091F0029091F1020E9435
:1059E0009A0C9093F1028093F002C092E302D0925D
:1059F000E402E092E502F092E6028091F30288234D
:105A000009F4AFCD8091F202898310E000E020E03C
:105A1000AE014F5F5F4F61E08AE00E944C17882320
:105A200009F49FCD1092F3029CCD00ED17E055E9EB
:105A3000C52E58E0D52E863009F08CCEE7E2F2E094
:105A4000059114916BEBC62E6DE0D62E83CE0E948D
:105A5000101C9093D0028093CF028CE194E090933D
:105A60002306809322060E941F0E882309F49DC0FE
:105A70008FE292E00E94070F809118040E94BC0BF5
:105A80000E94680C0E94870E8DE292E00E94070F30
:105A900081E00E94150F1091FF0288E792E00E94BA
:105AA000070F809102030E94680C0E94870E84E712
:105AB00092E00E94070F809101030E94680C0E94EF
:105AC000870E112309F46BC081E792E00E94070F53
:105AD000812F82958F700E94680C0E94870E812F03
