:100000000C949D060C94BA060C94BA060C94FF331B
:100010000C94BA060C94BA060C94BA060C94BA0660
:100020000C94BA060C94BA060C94C61B0C94821B52
:100030000C944D2B0C94BA060C94BA060C94BA0688
:100040000C94BA060C94BA060C94BA060C94BA0630
:100050000C94BA060C949F1C0C94BA060C94BA0625
:100060000C94BA060C94BA060C94BA060C94BA0610
:100070000C94BA060C94BA060C94BA060C94BA0600
:100080000C94BA060C94BA060C94BA060C94BA06F0
:100090000C94BA060C94BA060C94BA060C94BA06E0
:1000A0000C94BA060C94BA060C94BA06050109021F
:1000B000A10185020901A1000509190129081500FE
:1000C0002501950875018102050109300931158165
:1000D000257F95027508810609381581257F9501D0
:1000E00075088106050C0A38021581257F95017572
:1000F000088106C0C00660FF0961A1010962150000
:1001000026FF009520750881020963150026FF006F
:10011000952075089102C005010906A1010507197E
:10012000E029E71500250195087501810295017503
:100130000881010507190029FF150026FF00950613
:100140007508810005081901290515002501950587
:1001500075019102950175039101C0000000000036
:10016000000000000000000000000000000000008F
:100170000000000000000000000000000000007E01
:100180000F00D4FFFFFFC700000078000000000050
:100190000000002A2B2800000000000000000000E2
:1001A00000000000000029000000002C1E34202167
:1001B0002224342627252E362D3738271E1F2021AE
:1001C00022232425263333362E37381F040506070D
:1001D00008090A0B0C0D0E0F101112131415161727
:1001E00018191A1B1C1D2F3130232D350405060745
:1001F00008090A0B0C0D0E0F101112131415161707
:1002000018191A1B1C1D2F3130354C00DA0281FFE2
:10021000D9F1DB20A4A62EAF00A0C0D30000A1C856
:10022000D30000AED580A81F408D14200000041E0E
:10023000140A05000101010101010101010202028C
:100240000202020202020303030303030303040482
:10025000040404040405050505050606060606074C
:100260000707070708080808090909090A0A0A0B05
:100270000B0B0C0C0C0D0D0D0E0E0E0F0F0F1010A6
:10028000111111121213131414151516161717182D
:100290001819191A1A1B1B1C1D1D1E1E1F20202198
:1002A0002222232424252626272829292A2B2C2DDF
:1002B0002D2E2F30313232333435363738393A3B00
:1002C0003C3D3E3F404142434445464748494A4CF5
:1002D0004D4E4F50515354555658595A5B5D5E5FC1
:1002E000616264656668696B6C6D6F707273757757
:1002F000787A7B7D7E8082838587888A8C8E8F91B9
:10030000939596989A9C9EA0A2A3A5A7A9ABADAFE2
:10031000B1B3B5B7BABCBEC0C2C4C6C9CBCDCFD1CC
:10032000D4D6D8DBDDDFE2E4E7E9EBEEF0F3F5F875
:10033000FAFDFF2223252628292A2C2D2F3032339F
:100340003536383A3B3D3E4042434547494A4C4E9C
:100350005051535557595A5C5E6062646668696BC8
:100360006D6F71737577797B7D7F81838587898ACE
:100370008C8E90929496989A9C9E9FA1A3A5A7A8D4
:10038000AAACAEAFB1B3B4B6B8B9BBBCBEBFC1C204
:10039000C3C5C6C7C9CACBCCCDCED0D1D2D2D3D497
:1003A000D5D6D7D7D8D9D9DADADBDBDBDCDCDCDCB5
:1003B000DCDDDDDDDDDCDCDCDCDCDBDBDBDADAD983
:1003C000D9D8D7D7D6D5D4D3D2D2D1D0CECDCCCB05
:1003D000CAC9C7C6C5C3C2C1BFBEBCBBB9B8B6B423
:1003E000B3B1AFAEACAAA8A7A5A3A19F9E9C9A98B3
:1003F000969492908E8C8A89878583817F7D7B7984
:10040000777573716F6D6B6968666462605E5C5A64
:100410005957555351504E4C4A4947454342403E27
:100420003D3B3A3836353332302F2D2C2A292826B9
:1004300025232200AF00AE20004C61796572202098
:1004400020006162636465666768696A6B6C6D6EE3
:100450006F707172737475767778797A313233345C
:10046000353637383930524542545F2D3D5B5D5C3F
:10047000233B27602C2E2F20202700204B002020FC
:1004800043004B657920202020520020204400307A
:10049000302020530020202020204350490042617A
:1004A0006C6C2000808182838485868788898A8B12
:1004B0008C8D8E8F9091929394A0A1A2A3A4A5A6B7
:1004C000A7A8A9AAABACADAEAFB0B1B2B3B4C0C12E
:1004D000C2C3C4C5C6C7C8C9CACBCCCDCECFD0D184
:1004E000D2D3D40029001E001F0020001D001B00D5
:1004F00006001900210022002B0014000500E00076
:100500002252E2001A000800150017002C0000001B
:1005100000000000E00004001600070000000000DA
:100520000000000009000A00E500000000000000D3
:1005300000000000230024002500260010003600E3
:100540003700380027002D001C00180028222C003E
:10055000E600E7000C00120013002A002152000000
:10056000000000000B000D000E000F000000000056
:100570000000000033003400110000000000000003
:100580000000000001003A003B003C0001000100B7
:10059000010001003D003E000100010001000100DA
:1005A0000100010001000100010001000100000044
:1005B0000000000001000100010001000000000037
:1005C0000000000001000100010000000000000028
:1005D000000000003F00400041004200010021787F
:1005E00024782678430044000100010028780100A7
:1005F00001000100010001000100450001000000B0
:1006000000000000010001002078237800000000B5
:10061000000000002578277801000000000000009D
:1006200000000000010001000100010001000100C4
:1006300001000100010001000100010001000100B2
:1006400001000100010001000100010001000000A3
:100650000000000001000100010001000000000096
:100660000000000001000100010000000000000087
:10067000000000000100010001000100017E037E76
:10068000057E097E0100010001000100117E0100CC
:100690000100010001000100010001000100000053
:1006A00000000000127E007E027E047E000000003A
:1006B00000000000087E107E137E00000000000095
:1006C0000000000001000100010001000100010024
:1006D0000100010001000100010001000E7E010087
:1006E0000100010001000100010001000100000003
:1006F00000000000010001000A7E0B7E00000000E7
:10070000000000000F7E0D7E0100000000000000D0
:1007100000000000010001000100010001000100D3
:1007200001000100010001000100010001000100C1
:1007300001000100010001000100010001000000B2
:10074000000000000D7E0F7E0A7E0B7E0000000080
:1007500000000000010001000E7E0000000000000B
:100760000000000009025B00030100A0FA09040078
:1007700000010301010009211101000122440007C9
:1007800005810308000109040100020300000009BB
:100790002111010001222200070582032000010728
:1007A0000503032000010904020001030000000901
:1007B00021110100012249000705840320000112D4
:1007C000010002000000083839363501000102003E
:1007D000010E0372006500650078003500360000E8
:1007E0000012036B0075007300680069006D006102
:1007F0000038000000040309040000000000003E6F
:100800005B4F5B3E003E6B4F6B3E001C3E7C3E1CD4
:1008100000183C7E3C18001C577D571C001C5E7F56
:100820005E1C0000183C180000FFE7C3E7FF000053
:100830001824180000FFE7DBE7FF0030483A060EF7
:1008400000262979292600407F05050700407F05FD
:10085000253F005A3CE73C5A007F3E1C1C0800081C
:100860001C1C3E7F0014227F2214005F5F005F5F2C
:100870000006097F017F00006689956A006060605C
:1008800060600094A2FFA2940008047E0408001097
:10089000207E20100008082A1C0800081C2A0808CE
:1008A000001E10101010000C1E0C1E0C0030383EE4
:1008B000383000060E3E0E0600000000000000006A
:1008C000005F000000000700070000147F147F1481
:1008D00000242A7F2A120023130864620036495636
:1008E000205000000807030000001C224100000007
:1008F00041221C00002A1C7F1C2A0008083E080810
:10090000000080703000000808080808000000603F
:100910006000002010080402003E5149453E0000DE
:10092000427F4000007249494946002141494D3308
:10093000001814127F10002745454539003C4A49EC
:10094000493100412111090700364949493600461D
:100950004949291E00000014000000004034000036
:100960000000081422410014141414140000412241
:100970001408000201590906003E415D594E007CF1
:100980001211127C007F49494936003E4141412203
:10099000007F4141413E007F49494941007F0909AB
:1009A0000901003E41415173007F0808087F0000A3
:1009B000417F4100002040413F01007F0814224157
:1009C000007F40404040007F021C027F007F0408FF
:1009D000107F003E4141413E007F09090906003E6B
:1009E0004151215E007F09192946002649494932B3
:1009F0000003017F0103003F4040403F001F2040B3
:100A0000201F003F4038403F006314081463000378
:100A100004780403006159494D4300007F4141417E
:100A200000020408102000004141417F000402013F
:100A3000020400404040404000000307080000203E
:100A400054547840007F28444438003844444428B3
:100A500000384444287F0038545454180000087E5D
:100A60000902001824241C78007F08040478000080
:100A7000447D4000002040403D00007F102844009D
:100A80000000417F4000007C04780478007C08046A
:100A90000478003844444438007C18242418001892
:100AA0002424187C007C080404080048545454246E
:100AB0000004043F4424003C4040207C001C2040B3
:100AC000201C003C4030403C004428102844004C8E
:100AD0009090907C004464544C44000008364100DF
:100AE000000000770000000041360800000201020B
:100AF0000402003C2623263C00000000000000F811
:100B0000FCFCFC3C3CFCFCFCF80080C0F0F8FC7EEB
:100B100000000000000000000000000000000000D5
:100B2000FCFCFCFC000000000000000000FCFCFCE1
:100B3000FC000000000000000000000000000000B9
:100B40000000FCFCFCFC000000000000000000FCB9
:100B5000FCFCFC00000000000000000000000000A1
:100B6000000000007EFCF8F0E0C080000080C0E0E3
:100B7000F0F8FC7E000000E0F0F0F0E0ECEEF7F3BF
:100B80007020007C7C7C7E007E7E7E7F7F7F0000EC
:100B900080C0E07E5B4F5BFEC00000C000DCD7DEA3
:100BA000DEDED7DC00C00000000000000000000016
:100BB000000000000000000000000000000000FF36
:100BC000FFFFFF0000FFFFFFFF7F1F0F0701000077
:100BD0000000000000000000000000000000000015
:100BE000FFFFFFFF000000808080800000FFFFFF0C
:100BF000FF000000000000000000000000000000F6
:100C00000000FFFFFFFF000080808080000000FFE9
:100C1000FFFFFF00000000000000000000000000D7
:100C200000000000000081C3E7FFFFFFFFFFFFE7B8
:100C3000C38100000000000F1F3F7F7F7F7F7F3F49
:100C40001E0C001F1F1F3F003F3F3F7F7F7F003074
:100C50007B7F7830202030787F3B0003000F7F0FB0
:100C60000F0F7F0F000300000000000000000000D5
:100C7000000000000000000000000000000000FF75
:100C8000FFFFFF0000010101000000000000000064
:100C90000000000000000000000000000000000054
:100CA0003F3F3F3F0000003F3F3F3F00003F3F3F8F
:100CB0003F000000000000000000000000000000F5
:100CC00000003F3F3F3F00003F3F3F3F0000003FED
:100CD0003F3F3F0000000000000000000000000057
:100CE000000000007E3F1F0F070301000001030703
:100CF0000F1F3F7E00000000000000000000000009
:100D000000000000000000000000000000000000E3
:100D100000000000000000000000000000000000D3
:100D200000000000000000000000000000000000C3
:100D30000000000000000000000011241FBECFEFE3
:100D4000DAE0DEBFCDBF11E0A0E0B1E0EEE5FDE608
:100D500002C005900D92A43AB107D9F726E0A4EAA3
:100D6000B1E001C01D92A933B207E1F70E94742BD4
:100D70000C945B360C940000FC0190911C04818162
:100D8000981321C080911D04882319F09281891342
:100D90001AC080911E04882319F09381891313C00F
:100DA00080912004882319F0958189130CC08091CB
:100DB0001F04882351F091E02481281301C090E0A2
:100DC000892F8170089581E0FCCF80E0FACF482F11
:100DD000209112049091D90357E0291302C080E0BA
:100DE000089530E0529FF001539FF00D1124E65218
:100DF000FC4F8181681306C08081481303C0858140
:100E00008111EECF2F5F3F4F2770E7CFE8EDF0E085
:100E100080818E7F80831092E2001092DA0010921F
:100E2000E100A0EEB0E08C9181608C9380818F779F
:100E3000808319BCA7EDB0E08C918E7F8C9380816C
:100E40008F7E80831092C10308952091E400309139
:100E5000E50095E6A9012091EC00822F817020FF2A
:100E600006C08091E80080FF06C080E008952091D0
:100E7000E80022FD1AC08091CF03882389F08530D5
:100E800089F08091EB0085FD0FC02091E400309146
:100E9000E50042175307F9F29150E1F684E0089516
:100EA00082E0089583E0089581E008958091D10360
:100EB00087FF13C08091E80082FF06C08091E800A0
:100EC0008B778093E80004C08091CF038111F2CF2B
:100ED00008958091CF038823D9F38091E80080FFA3
:100EE000F8CF8091E8008E77ECCF982F9093E900AF
:100EF000242F762F50E0891731F07091EC0020916B
:100F0000ED005091F00021FD07C09F5F973071F711
:100F10008093E90081E008953091EB003E7F3093AB
:100F2000EB003091ED003D7F3093ED003091EB0010
:100F300031603093EB007093EC002093ED00509300
:100F4000F0002091EE0027FDE0CF80E00895B0E0B2
:100F5000A0E0EDEAF7E00C943935C8EDD0E08881E7
:100F60008F7E8883E7EDF0E080818160808384E07C
:100F700082BF81E08093C10388818E7F888302EEE7
:100F800010E0F80110821092DA0081EEC82ED12C08
:100F9000F601108288818F778883888180688883B2
:100FA00088818F7D888319BC1092CF031092D00363
:100FB0001092CE031092CD0390EEE92EF12CF701A2
:100FC00080818B7F808388818160888342E060E0BC
:100FD00080E00E947507F60180818E7F8083F80192
:100FE000808181608083808188608083F701808137
:100FF0008E7F8083888180618883CDB7DEB7E8E00B
:101000000C945535FC018091D7039091D803861735
:101010009707A0F06115710529F49091E8009E777B
:101020009093E80090E06115710551F4911108C0AA
:101030008091E80082FF34C080E00895BC01F2CFC7
:101040008091CF038823C1F18530C1F18091E80000
:1010500083FD30C08091E80082FDEACF8091E800F6
:1010600080FFE1CF8091F3002091F200382F6115CD
:10107000710519F02830310558F091E0283031051C
:1010800009F090E02091E8002E772093E800CBCF84
:1010900081918093F100615071092F5F3F4FE7CF3D
:1010A0008091CF03882341F0853041F08091E800A2
:1010B00083FFBECF81E0089582E0089583E0089524
:1010C000089508958091C403089587E797E7909362
:1010D00001088093000888E19AE00FB6F894A8957B
:1010E000809360000FBE90936000FFCF2FB7F894FD
:1010F0006091BD037091BE038091BF039091C003C6
:101100002FBF0895FC01680F791F8FEF91E32191A4
:10111000822728E030E087FF09C0880F8927215007
:101120003109C9F7E617F70791F70895880FF7CF48
:10113000FA01811101C0FB0109950895E9E6F3E088
:101140001182828184608283089580911304982F94
:101150009E7F61F4817082608093130480911604F5
:10116000853618F084E68093160408958E30B0F327
:1011700081708C60F1CFAF92BF92DF92EF92FF92BD
:101180000F931F93CF93DF93082F162FE901E42FBE
:10119000F0E0ED5CFD4F611110C0E4915E2F4E2F29
:1011A0004983E8835A83DF91CF911F910F91FF907C
:1011B000EF90DF90BF90AF900895E62EF12C449110
:1011C000D42EE42FF0E026E0829FC00111242FEFFF
:1011D00030E0B9010E941B35802F90E0880F991FE5
:1011E00055E5569FD001579FB00D11248A1B9B0BCC
:1011F000982F990F890F5901AE18BF08AE9ED001E4
:10120000AF9EB00DBE9EB00D11245B2F189F8001C4
:101210001124012F11275901A01AB10AAE9E800195
:10122000AF9E100DBE9E100D11245901A81AB108D1
:10123000AE9CC001AF9C900DBE9C900D1124892FD7
:101240009927281B390B2E9FC0012F9F900D3E9F81
:10125000900D1124E92F62307105A1F050F4611551
:10126000710509F49DCF6130710581F0EB2F512F8D
:1012700097CF6430710569F080F06630710509F42C
:101280008FCFF4CFE42F4B2F592F8ACFE42F412F4C
:1012900087CFEB2F542F492F83CF4B2F5D2DE12F7D
:1012A0007FCFCF93DF93EEE6F3E083819481A58136
:1012B000B681E90188839983AA83BB831482138250
:1012C00016821582DF91CF91089580E0089563E042
:1012D00070E08CE092E00E94820890910B028913EA
:1012E00018C0E0910C02EB30A4F488E0E802F001B1
:1012F0001124E65FFE4F0680F781E02D309749F01C
:101300002FE232E040910E026FE072E080910D0218
:1013100009950895EAE0F1E0A6EFB1E057968C91C7
:10132000579780A758968C9183AF08959091660245
:1013300092FF10C041E0282F2471243009F040E0D2
:1013400031E0282F2871283009F030E0431711F0E0
:101350002CE0822793FF10C041E0282F2471243114
:1013600009F040E031E0282F2871283109F030E001
:10137000431711F02CE082273091670230FF10C034
:1013800051E0282F2171213009F050E041E0282F51
:101390002871283009F040E0541711F029E0822725
:1013A00031FF10C041E0282F2171213109F040E0C8
:1013B00031E0282F2871283109F030E0431711F06F
:1013C00029E0822794FD877E089582389105B9F13E
:1013D000B0F48133910509F47DC048F48932910558
:1013E00009F46DC08A32910509F47BC008958533F4
:1013F000910509F45FC08933910509F10895833E91
:101400009105D9F138F4803E910529F1823E91058C
:1014100079F10895863E9105D9F1873E910509F449
:101420003EC0843E910541F52091670221FF24C012
:101430008091660284FD19C087EE90E008952091A6
:101440006602237009F05AC02091670223FF14C07E
:1014500089E290E008952091660220FD38C0309125
:10146000670230FF09C024FF43C090E080E0089588
:101470002091660222FDF7CF08952091660222FD99
:101480003AC03091670230FD39C024FFF5CFEDCF6F
:101490002091660223FFF0CF24FDE7CFCDCF20912E
:1014A000660223FD2EC03091670231FFEECF84EE3D
:1014B00090E008952091660225FFDECFC9CF2091EC
:1014C000660225FD21C02091670223FFD5CF89E365
:1014D00090E0D2CF2091660226FFCECF8AE290E044
:1014E00008952091660226FFC7CF81E390E008951A
:1014F00083EE90E0089582EE90E0089580EE90E013
:10150000089586EE90E0089585E390E008951F9396
:10151000CF93DF930E94E509EC01C11582E5D8075E
:1015200008F03FC0C11590E5D90708F0C2C0C83E19
:10153000D105C0F4C03ED10580F4C53AD10548F4C8
:10154000C430D10550F4C130D10539F0D0E0C0E04D
:1015500004C0CD3CD105D0F3D065CE01DF91CF9151
:101560001F910895C11580E4D80708F053C0C11534
:1015700090E2D90708F0B7C0C11581E0D80730F371
:101580008D2F0E949609182FCE0199270E94E509F8
:10159000C12FD0E0DC2FCC27CC27DF71C82BD92B73
:1015A000DCCFC03892E5D907A8F4C03682E5D80769
:1015B00008F063C0C03492E5D90708F049C0C032D2
:1015C00082E5D80788F1CF71D0E0DC2FCC27C16F3E
:1015D000D06AC3CFC03C92E5D90780F48C2F8F71BD
:1015E000C03AD24508F45EC00E949609C82FD0E0E8
:1015F000DC2FCC27CC27DF71D062AFCFC03E82E595
:10160000D80708F0A3CFDC2FCC27CC27DF71C06F21
:10161000D06AA3CFCE0199270E94E509CC27DF70BD
:10162000C82BD92BD06A99CF2C2F2695269590E2DE
:10163000299F900111248C2F8370C1E0D0E002C05B
:10164000CC0FDD1F8A95E2F7C22BD32BDD6885CF47
:101650002C2F26952695277080E2289F9001112433
:101660008C2F8370C1E0D0E002C0CC0FDD1F8A95C3
:10167000E2F7C22BD32BDC6870CF2C2F2695269552
:10168000277090E2299F900111248C2F8370C1E074
:10169000D0E002C0CC0FDD1F8A95E2F7C22BD32B1E
:1016A000DA685BCFC82FD0E0DC2FCC27C46FD06ABC
:1016B00054CF8C2F8F710E94960955E0D695C7950F
:1016C0005A95E1F7CF70D0E0DC2FCC27282F30E0FF
:1016D00084FF05C044E0220F331F4A95E1F7C22B77
:1016E000D32BD0693ACF8D2F8F710E949609182F76
:1016F000CE0199270E94E509C12FD0E0DC2FCC272D
:10170000CC27DF71C82BD92B77CF80959091C2035E
:1017100098239093C2030895809112049091D90365
:10172000981301C008958F5F8770FACF9A3080F5C3
:10173000883070F548E0949F90011124820F932F18
:10174000911D682F677023E0969587952A95E1F79C
:10175000FC01EE0FFF1FE80FF91FEE53FE4F50E0A4
:1017600040E080E0219130E0062E02C036952795BA
:101770000A94E2F721703327042E01C0220F0A9445
:10178000EAF7822B4F5F5F4F4330510559F70895B9
:1017900080E008959A3098F5883088F548E0949F65
:1017A00090011124820F932F911D282F277041E063
:1017B00001C0440F2A95EAF723E0969587952A956C
:1017C000E1F7FC01EE0FFF1FE80FF91FEE53FE4F8C
:1017D00090E080E070E05191DF0111979B01082EAD
:1017E00002C0369527950A94E2F7217021952527A6
:1017F000242325272C9301968330910561F70895C2
:1018000080936D03089590916D0321E030E0F9011C
:1018100001C0EE0F8A95EAF7D90102C0AA0FBB1FDB
:101820006A95E2F7EA2B01C0220F4A95EAF7892F61
:101830008E23E81305C0292B822F0E94000C0895E7
:1018400020952923F9CF21E030E001C0220F8A95AD
:10185000EAF7209580916D0382230E94000C089581
:101860009091E701809589238093E701282F2770C5
:1018700069F4891759F09091670292FF07C0869525
:10188000869586950E94230C1092E701089521E029
:1018900030E001C0220F8A95EAF780916D03822B18
:1018A0000E94000C08958093F2010895982F92955C
:1018B0009F7011F0892F94E0282F2695269511F01E
:1018C0009E5F822F869509F09F5F892F0895B0E073
:1018D000A0E0EDE6FCE00C943935FC01EB019091C1
:1018E0008003911101C094E04081518191509A018F
:1018F000092E02C0359527950A94E2F7B901092E01
:1019000002C0660F771F0A94E2F7461B570B5183FC
:101910004083428153818A01092E02C015950795A3
:101920000A94E2F7B80102C0660F771F9A95E2F7B2
:10193000461B570B5383428321387FEF37077CF0D8
:101940002038310574F421952D8301388FEF180765
:1019500054F0802F003811053CF08FE705C021E8D6
:10196000F2CF2FE7F0CF81E881958C830E94760833
:101970002D81211103C02C812223B9F060938103B2
:1019800070938203809383039093840380918503F3
:101990009BE0980F973120F4080F009385031D8278
:1019A000CDB7DEB7E8E00C945535C0908103D090F8
:1019B0008203E0908303F09084036C197D098E0903
:1019C0009F09643671058105910500F31092850326
:1019D000DDCFCF93C82F80917B038C1751F00E94ED
:1019E000760860937C0370937D0380937E039093CD
:1019F0007F03C0937B03CF91089580916E03F9011B
:101A0000808308958F708A3010F4805D0895895A1C
:101A10000895382F20E287FF02C031952DE24AE079
:101A2000832F642F0E947235905D9093BB018111CA
:101A30000BC02093BA0120E22093B90120E2209349
:101A4000B80188EB91E00895642F0E947235905D93
:101A50009093BA01832F64E60E947235882361F364
:101A6000805D8093B901EBCF9C01860F971F37FDF6
:101A700007C077FD04C097FF02C08FEF9FE708956E
:101A800077FFFDCF97FDFBCF80E090E80895E82F2A
:101A9000E295EF70F0E031A1282F2F7081E090E007
:101AA00001C0880F2A95EAF7382B31A392A18095BF
:101AB000892382A30895E82FE295EF70F0E031A129
:101AC000282F2F7081E090E001C0880F2A95EAF757
:101AD000982F9095932391A392A1892B82A3089587
:101AE000B0E0A0E0E6E7FDE00C9439357C016B0145
:101AF00080912C0601E010E08A3010F40AE010E03A
:101B0000C1E0D0E062E376E0C701F60109958111FA
:101B100004C021960C171D072CF4CDB7DEB7E8E002
:101B20000C945535CC9F9001CD9F300D300D112474
:101B300090E080E045E34A95F1F7000001968217B6
:101B40009307C1F7DFCF0F931F93CF93DF938B01E1
:101B5000EA019091CF03943061F58093E9008FEF13
:101B60009091E800815095FD06C095ED9A95F1F7AA
:101B700000008111F5CF8091E80085FF1AC00E9416
:101B80002507811111C08091E80085FD06C0809174
:101B9000E8008E778093E800F2CFF80181918F0101
:101BA0008093F100219779F78091E8008E778093F8
:101BB000E800DF91CF911F910F91089546E050E02A
:101BC000BC0184E00E94A30D0895CF93DF93EC0144
:101BD00048E050E0BC0181E00E94A30D88E0FE01D6
:101BE000A5ECB3E001900D928A95E1F7DF91CF91DA
:101BF000089560916B018091130480FF20C0809153
:101C00006A0143E0849FC00111248D559D4F539A72
:101C10002BB1277F3BB138605FB7F894FC01649F1C
:101C2000E00DF11D1124BF0168177907D1F45FBFE2
:101C30008FE594E00197F1F700C0000008958091CE
:101C40006C0190916D0123E0829FF0011124ED550C
:101C5000FD4F8917A0F61182108212828F5F339692
:101C6000F8CFFC014191CF01E8E03BB9000000C092
:101C700047FF2BB9440F000000C000C000C02BB9C3
:101C800000C0EA9591F7D0CF9091130490FF0EC059
:101C900090916C0120916D0133E0939FF00111242C
:101CA000ED55FD4F921718F00E94F90D08958183AC
:101CB000608342839F5F3396F5CFA3E0B0E0E3E615
:101CC000FEE00C943D358C0180916C0381110AC0BB
:101CD0009E012F5F3F4F44E66FEF0E94BB088A8151
:101CE00080936C03F8016481613069F080916C032A
:101CF00040E0662361F040E0623011F440916C03F3
:101D000080E060E004C060916C0340E080E00E94ED
:101D1000440EF801848190E0019663E070E00E9437
:101D2000803584832396E4E00C945935A3E0B0E039
:101D3000ECE9FEE00C943D358C01DC011496EC914D
:101D4000F0E0ED5CFC4F44918091130480FF11C0E2
:101D5000453608F044E69E012F5F3F4F6091150421
:101D6000809114040E94BB084B8169818A810E9482
:101D7000440EF80184818F5F84832396E4E00C9401
:101D80005935E3E1F4E080818E7F80830E949E08D4
:101D9000E9E6F3E08281816082830E94F90D089573
:101DA0008091F501811119C082E390E02091E30058
:101DB00027FD10C0EFE3FCE93197F1F700C0000008
:101DC0000197A1F782E08093F5010E940607109227
:101DD000CF0303C081E08093F50181E09091F5018C
:101DE000913011F080E0089508950E94D00E88236C
:101DF00059F0E091BA03F091BB03309729F00190BC
:101E0000F081E02D0995089580E008950F931F93C8
:101E10000E94D00E882329F00E9476081F910F910E
:101E200008950E947608009160021091610220914D
:101E3000620230916302600F711F821F931FEECF09
:101E400026982E9A249A2C9885E08A95F1F700001E
:101E500083B124982C9A90EA9A95F1F790E026E0C5
:101E6000959587952A95E1F78095909581700895CD
:101E7000CF938DE892E00E94BC06C82F882379F0AA
:101E8000E091BA03F091BB03309749F082E0809370
:101E90001B040480F581E02D8BE194E0099590917D
:101EA0001C0486E0EBE1F4E0DF01282F1D922A9567
:101EB000E9F790931C04ADE8B2E001900D928A9589
:101EC000E1F781E0C11103C0911101C080E0817090
:101ED000CF9108952FE2280F283078F481E090E028
:101EE00001C0880F2A95EAF720911C04662331F07F
:101EF000822B80931C040E94380F089580958223C2
:101F0000F8CFCF93DF93682F81E06A3019F06D30FE
:101F100031F480E00E940F10DF91CF9108958091FD
:101F20002A0690912B0626E0FC01A4E2B6E001907F
:101F30000D922A95E1F7603E08F458C026E0FC01B6
:101F400011922A95E9F7C0912A06D0912B0646E016
:101F500050E0BE0184E296E00E94ED359E012452DD
:101F60003440892B41F1C90145E0969587954A9502
:101F7000E1F741E050E0BA0102C0660F771F8A9591
:101F8000E2F7CB016091220470912304862B972BFA
:101F9000B9016B5F7F4FE5E076956795EA95E1F7CC
:101FA00002C0440F551F6A95E2F7842B952B90933E
:101FB0002304809322042A5F3F4F40912104642F21
:101FC00070E0C9010E941B35481B463010F4240FF5
:101FD000311D211572E0370710F030E020E02C5D54
:101FE0003B4F30932B0620932A0696CFF6E06F9F47
:101FF000B00111246750784F46E050E00E94D73579
:10200000A2CFCF93DF93EC01FE018491811103C035
:10201000DF91CF9108950E94810F2196F5CFCF9344
:10202000382FE0912A06F0912B06E452F4402091DB
:102030002104622F70E0CF010E941B35281B822FE4
:10204000332361F066E00E946635C82FC15010F45A
:10205000CF91089580E20E94810FF8CF9F01280F51
:10206000311D2115324018F080E0F0E0E0E08E0FE5
:102070009F2F911D8C5D9B4F90932B0680932A067A
:10208000E7CF8091C2039091F101892B8093A60143
:102090009091F001992391F0892B8093A60120E083
:1020A00088EA91E0FC013191CF0131112F5FF1E01D
:1020B0008E3A9F07B9F721111092F00148E050E0E5
:1020C00068EE71E086EA91E00E94ED35892BA9F077
:1020D00088E0E6EAF1E0A8EEB1E001900D928A9581
:1020E000E1F7E091BA03F091BB03309731F0028041
:1020F000F381E02D86EA91E009950895E8EAF1E0A0
:1021000086E0DF011D928A95E9F71092F1010E94A5
:1021100041100895AAE2B0E0E0E9F0E10C943E3508
:1021200081ED93E02091F100DC012D93CD01B3E02E
:10213000893D9B07B9F78091D203833009F472C0BF
:10214000B8F4813009F449C0823009F4B5C08091F7
:10215000E80083FF8DC28091D1039091D2039A3021
:1021600008F086C2E92FF0E0E35AF94C0C9494355C
:102170008A3009F490C08B3009F471C0893039F786
:102180008091D103813219F78091D5039091D603C4
:10219000009711F00297D9F68091E800877F80932D
:1021A000E8008091E80082FF38C09091F3008091B0
:1021B000F200029731F48091F100813011F0863005
:1021C00021F48091F1008093C4038091E8008B7723
:1021D0008093E8000E945607BACF8091D103813ADC
:1021E00009F0B5CF8091E800877F8093E800809167
:1021F000D5039091D603892B61F468E085EC93E0D8
:1022000070E00E9402088091E8008B778093E800DC
:102210009ECF60E090E080E0F3CF8091CF0381110A
:10222000C0CF95CF8091D103813A09F090CF8091B2
:10223000D5039091D603892B09F089CF8091E800CE
:10224000877F8093E8008091E80080FFFCCF809139
:1022500077018093F1008091E8008E77B9CF80916B
:10226000D103813209F073CF8091D5039091D603C9
:10227000892B09F06CCF8091E800877F8093E8007C
:102280000E9456078091D303809377011092C20376
:102290000E947E105CCF8091D103813209F057CF2C
:1022A0008091E800877F8093E8000E945607809124
:1022B000D4038093C3034BCF8091D103813A09F0BB
:1022C00046CF8091E800877F8093E8008091E80006
:1022D00080FFFCCF8091C303BCCF803899F0823857
:1022E00009F0C6C18091D5038F70873008F0C0C156
:1022F0008093E9008091EB0085FB882780F910929C
:10230000E90006C08091CD039091CE0391118260C7
:102310009091E800977F9093E8008093F1001092ED
:10232000F1008091E8008E779FC1882309F48DC168
:10233000823009F09DC18091D303811190C18091B9
:10234000D5038F702FEF280F263008F091C18093AE
:10235000E9002091EB0020FF82C1933031F480919D
:10236000EB0080628093EB007AC19091EB0090616A
:102370009093EB0021E030E001C0220F8A95EAF74C
:102380002093EA001092EA008091EB008860EACF87
:1023900081116EC11091D3031F778091E300807883
:1023A000812B8093E3008091E800877F8093E80091
:1023B0000E9456078091E80080FFFCCF8091E300E7
:1023C00080688093E30082E0111183E08093CF0363
:1023D0004FC18058823008F04BC12091D303309117
:1023E000D4032C3DE3E03E07A1F583E08A838AE233
:1023F00089834FB7F894DE01139620E03EE051E266
:10240000E32FF0E050935700E49120FF03C0E295E2
:10241000EF703F5FEF708E2F90E0EA30C0F0C7960C
:102420008D939D932F5F243159F74FBF8091E80022
:10243000877F8093E8006AE270E0CE0101960E94F7
:1024400002088091E8008B778093E80011C1C09664
:10245000E7CF8091D5039091D603432F5527433082
:10246000510509F44AC078F54130510509F47AC0A4
:102470008BE590E0E4E6F7E04230510509F0F8C062
:102480002091E800277F2093E8002091D703309126
:10249000D8038217930708F49C0140E02115310509
:1024A00009F065C0411163C08091E80082FDC9CF89
:1024B0008091CF03882329F2853019F28091E800BA
:1024C00083FFF2CFBECF4132510509F43CC0423206
:1024D000510509F0CDC08330910508F0C9C0FC0159
:1024E000EE0FFF1FE956FE4F0190F081E02D8C5654
:1024F0009E4FDC018C9190E01AC0332721303105CA
:10250000D1F02115310561F02230310509F0B0C05C
:10251000E1EDF7E0E4918E2F90E0E1EDF7E007C008
:10252000E5EFF7E0E4918E2F90E0E5EFF7E000971C
:1025300009F49EC0A5CFE1EEF7E0E4918E2F90E084
:10254000E1EEF7E0F4CF8330910508F091C0880FF9
:10255000991FFC01E356FE4F0190F081E02D89E0C8
:1025600090E08ECF82E190E0EFEBF7E089CF8091B1
:10257000CF03882309F465CF853009F462CF8091B9
:10258000E80083FD5ECF8091E80082FD8DCF8091D1
:10259000E80080FF83CF9091F3008091F200211535
:1025A000310519F08830910550F041E0089709F0A5
:1025B00040E08091E8008E778093E8006FCF4491EF
:1025C0004093F1003196215031090196E8CF8038CF
:1025D00009F04EC08091E800877F8093E8008091E9
:1025E000D0038093F1009DCE811142C01091D3039E
:1025F0001230F0F58091E800877F8093E800109317
:10260000D0030E945607112311F084E005C0809189
:10261000E30087FDFACF81E08093CF0342E061ECD5
:1026200081E00E94750742E261EC84E00E94750738
:1026300042E261EC82E00E94750742E260EC83E0D6
:102640000E9475078091CF0313C08091D30381301E
:1026500079F481E0933009F080E08093CE0310920A
:10266000E9008091E800877F8093E8000E94560788
:102670008091E80083FF0AC08091E800877F809303
:10268000E8008091EB0080628093EB00AA96E3E083
:102690000C945A351092C2030E947E102FEF84E3EF
:1026A0009CE0215080409040E1F700C0000088E1AC
:1026B0009AE00FB6F894A895809360000FBE9093AF
:1026C0006000FFCF882321F00E94850B0E944110FB
:1026D0000895882339F09091C203982B9093C203F8
:1026E0000E9441100895882349F19CEF980F913A78
:1026F00080F4E8EAF1E02EEA31E09191891303C019
:10270000DF0111971C922E173F07B9F70E94411065
:10271000089590E2980F983050F4877091E001C0CE
:10272000990F8A95EAF7892F0E94850BEFCF93E3E3
:10273000980F933118F460E00E946A0F08950F9388
:102740001F93CF93C82F882341F18CEF8C0F813AD0
:10275000B0F508EA11E08EEA91E0F8012191C21784
:1027600001F18E179F07D1F7EFEF80E0D8019D911F
:102770008D01C91781F0EF3F19F4911101C0E82FC5
:102780008F5F863099F7EF3F31F00E2E000CFF0B74
:10279000EA55FE4FC2830E944110CF911F910F91C5
:1027A0000895E8EAF1E02191C21303C0DF01119717
:1027B0001C928E179F07B9F70E944110D5CF80E277
:1027C0008C0F883068F4C77021E030E001C0220F20
:1027D000CA95EAF78091C203822B8093C203DBCFB4
:1027E00083E38C0F8331C8F661E08C2F0E946A0F5F
:1027F000D4CF1F93CF93DF93182FEB010E949F1329
:102800008FE99FE00197F1F700C000002197C1F721
:10281000812F0E947313DF91CF911F9108950F9321
:102820001F93CF93DF93EC01FC0101900020E9F7A7
:102830008F0101501109C017D10728F0DF91CF9106
:102840001F910F91089589910E94810FF4CFCF932A
:10285000DF93C9EBD2E060E0CE010E9427362196DB
:10286000C11584E0D807B9F7DF91CF9108951F9380
:10287000CF93DF93122F8430E0F46A30D0F44830E5
:10288000C0F490E1699FE001112450E0440F551F0E
:10289000C40FD51F90EA899FC00DD11D1124632F4D
:1028A000CE01C9960E942736612FCE01CA960E949A
:1028B0002736DF91CF911F910895AF92BF92CF92AB
:1028C000DF92EF92FF921F93CF93DF9384EEC82E97
:1028D00084E0D82ED0E07601C0E014C0F501259147
:1028E0003491412F6C2F8D2F0E94371482E0A80E57
:1028F000B11C1F5F183091F780E1E80EF11CCF5F2B
:10290000CA3019F0570110E0E9CFDF5F80EAC80E46
:10291000D11CD43001F7DF91CF911F91FF90EF9040
:10292000DF90CF90BF90AF90089588E390E00E9431
:1029300027360895CF93C82F6FEF811163E285E3A7
:1029400090E00E9427366FEFC11161E086E390E0CE
:102950000E9427366FEFC11166E187E390E00E9485
:102960002736CF91089580E00E949A1460E070E0CD
:10297000CB010E9495140E945D140E94271481E0EF
:102980000E949A1408950F931F93CF93DF9384307E
:1029900030F56A3020F5483010F520E1629F800163
:1029A000112450E0440F551F040F151F30EA839F78
:1029B000000D111D1124C801C9960E940336C82FAD
:1029C000D0E0DC2FCC27C801CA960E9403369E01B6
:1029D000282BC901DF91CF911F910F91089590E0AD
:1029E00080E0F8CF462F7A3040F4683030F48430FD
:1029F00020F4672F0E94C314089590E080E00895AA
:102A0000CF92DF92FF920F931F93CF93DF936C01CE
:102A100000916D038091F201082BC3E0D0E010E03B
:102A2000FC2EC8010C2E02C0959587950A94E2F7FA
:102A300080FD0CC02197A0F7F12C8F2DDF91CF9155
:102A40001F910F91FF90DF90CF900895B6018C2FCA
:102A50000E94F2140E94870A019761F3EECFCF9390
:102A6000DF93EC010E940015BE010E94F2140E9447
:102A7000870ADF91CF910895FC0124812223C1F0C0
:102A8000808191810E942F1592959F70963091F0D0
:102A900058F4925F9F70923058F4803F19F030F4F0
:102AA000883E30F481E008959A5FF4CF843FD1F3FB
:102AB00080E00895883EB0F3813FD1F7F3CFA6E0E0
:102AC000B0E0E5E6F5E10C943E3549835A8349814F
:102AD0005A819923A1F0222391F0CA010E94001586
:102AE000182F682F89819A810E94CA0B69817A8187
:102AF000812F0E94F2142696E3E00C945A35CA0105
:102B00000E94960B182FF2CF88E390E00E940336C4
:102B1000682F70E090E080E0089585E390E00E94E7
:102B20000336833289F486E390E00E9403368130D5
:102B300059F487E390E00E94033691E0863109F072
:102B400090E0892F8170089580E0FCCFB0E0A0E094
:102B5000ECEAF5E10C9439356C017B0164E670E038
:102B600088E70E9479328C01E601EC0CFD1C17FD10
:102B70000BC0FE01849164E670E00E94E5328C0196
:102B80002196CE15DF0599F70E945B3381E0011590
:102B9000110509F080E0CDB7DEB7E8E00C945535BB
:102BA0008091B6039091B903911103C091E08927F8
:102BB0000895882369F062E070E085E394E00E9464
:102BC000A615811103C08091B60308951092B60333
:102BD0008091B603EBCFCF93C091B6038091B90338
:102BE0008823D1F00E947608605A75418F4F9F4F1D
:102BF0006093B2037093B3038093B4039093B503CF
:102C0000C11108C062E070E083E394E00E94A61561
:102C1000811105C0C091B6038C2FCF91089581E03A
:102C20008093B603F7CFB0E0A0E0E9E1F6E10C94C1
:102C3000353549015A016B017C010E94A5088401C8
:102C4000A4016A2D7B2D88E090E00E943936940122
:102C50004A2D5B2DB601C70100E20E94BC35622FF0
:102C600084E290E00E942736CDB7DEB7ECE00C940A
:102C70005135A3E0B0E0EFE3F6E10C943B35F82EDC
:102C8000062F142FE22E8091130480FF42C09091F2
:102C900014049F1108C090911504961304C09091DC
:102CA0001604941729F090916B03926090936B0334
:102CB000E82FE695F0E0EB57FE4F90819093690383
:102CC0008E7F823051F5412F153608F044E69E0183
:102CD0002F5F3F4F602F8F2D0E94BB084B81698172
:102CE0008A810E94440EF0921404009315041093FC
:102CF0001604EE2071F02091130460911704709176
:102D000018043F2DA8018091190490911A040E9483
:102D100013162396E6E00C945735923021F7109164
:102D20001604E1CFE3E1F4E043812AE0421B08F41A
:102D300040E021E0628181810E9439160895E3E13B
:102D4000F4E043812AE0420F08F44FEF21E0628172
:102D500081810E9439160895E3E1F4E0628121E166
:102D6000621B08F460E021E0438181810E943916F2
:102D70000895E3E1F4E0628121E1620F08F46FEF6E
:102D800021E0438181810E9439160895E3E1F4E056
:102D9000818121E04381628181510E943916089529
:102DA000E3E1F4E0818121E0438162818F5E0E9452
:102DB0003916089580911704882319F08150809363
:102DC000170420911304309114044091150450917C
:102DD0001604609117047091180480911904909161
:102DE0001A040E941316089580911704833018F472
:102DF0008F5F809317042091130430911404409145
:102E00001504509116046091170470911804809174
:102E1000190490911A040E9413160895E3E1F4E056
:102E200083E0808311828FEF828384E68383148220
:102E3000A9E6B3E012968C911297836012968C9358
:102E4000758123E030E04FEF54E660E086819781A2
:102E50000E94131608959091670292FB222720F991
:102E6000281779F080FB92F99093670260916602CF
:102E70007091670284E090E00E94453682E00E94F3
:102E8000300C089590E080E00E941136863E9E4FFF
:102E900019F40E948D15089580E00895B0E0A0E037
:102EA000E4E5F7E10C943A357901C82F880FDD0B82
:102EB00041155105A9F0FE0193E0EE0FFF1F9A9511
:102EC000E1F7E65FFE4F818192818A509E4F20811B
:102ED00030E04217530708F49A01A9010E94FA351D
:102EE000CE010E94A534D82E8823D1F001151105FA
:102EF000B9F083E0CC0FDD1F8A95E1F7FE01E65FB4
:102F0000FE4F438150E00417150708F4A801C65F7F
:102F1000DE4F6C817D816A507E4FC7010E94FA3579
:102F20008D2DCDB7DEB7E7E00C945635A5E0B0E0C7
:102F3000ECE9F7E10C9437358D83E62E5A01F22E39
:102F4000680180912C068A3028F080E02596EAE01E
:102F50000C9453358D818830C4F31A8219828A8388
:102F60006B832C8363E070E0CE0102960E9482089E
:102F70008983E0923201F092450110E000E030E0F8
:102F800020E044E050E0BE016F5F7F4F84E00E948C
:102F90004E178823D1F24E2D50E030E020E0B501ED
:102FA00085E00E944E17882381F230E020E041E066
:102FB00050E0BE016B5F7F4F86E00E944E17882372
:102FC00021F20F2D10E0960150E040E070E060E04B
:102FD00087E00E944E17BACFABE0B0E0E2EFF7E136
:102FE0000C943D3588E0E3E1F4E0DE0111960190B8
:102FF0000D928A95E1F78091690390916A03A091FF
:103000006B0389879A87AB872B8540915C0250912F
:103010005D0260915E0270915F023FB7F89480910B
:10302000BD039091BE03A091BF03B091C0033FBF09
:10303000841B950BA60BB70B84369105A105B10532
:1030400010F42223C1F010E000E030E020E04BE07B
:1030500050E0BE016F5F7F4F83E00E944E178823D0
:1030600069F00E94760860935C0270935D02809321
:103070005E0290935F0210926B0381E02B96E4E076
:103080000C945935A4E0B0E0E8E4F8E10C943D3547
:10309000409158025091590260915A0270915B021E
:1030A0002FB7F8948091BD039091BE03A091BF0308
:1030B000B091C0032FBF841B950BA60BB70B11E07B
:1030C00084369105A105B10518F10E94060F6E5FC7
:1030D0007F4F8F4F9F4F69837A838B839C8310E050
:1030E00000E030E020E044E050E0BE016F5F7F4F41
:1030F00082E00E944E17182F882351F00E94760814
:10310000609358027093590280935A0290935B0225
:10311000812F2496E4E00C945935A6E0B0E0E3E971
:10312000F8E10C943B357B0101E010E09E012A5F41
:103130003F4F50E040E070E060E080E00E944E17BA
:10314000182F882309F453C040915402509155021E
:1031500060915602709157022FB7F8948091BD0389
:103160009091BE03A091BF03B091C0032FBF841BF9
:10317000950BA60BB70B84369105A105B10548F454
:1031800065E070E087EF91E00E9482089E818917D8
:1031900071F105E010E09E012F5F3F4F50E040E0ED
:1031A00070E060E081E00E944E17082F65E070E05B
:1031B00087EF91E00E94820811E09E81981310E051
:1031C000102301F10E947608609354027093550217
:1031D000809356029093570285E0FE013196AFE44A
:1031E000B2E001900D928A95E1F711E00BC085E005
:1031F000E7EFF1E0DE01119601900D928A95E1F77B
:103200001111EACF85E0EFE4F2E0D70101900D92D1
:103210008A95E1F7812F2696E6E00C9457350E94B7
:10322000200F8093090180910901882359F01092A1
:103230006A0180E280936B010E94D00E81110E948E
:10324000B933089580E280936A01F4CFA8E0B0E03A
:10325000ECE2F9E10C943F3566EE7EEF90E080E021
:103260000E94453660E082E090E00E94273660E0F0
:1032700083E090E00E9427361092F20160E074E152
:1032800084E090E00E94453660E086E090E00E9495
:1032900027366FEF87E090E00E94273640E050E04D
:1032A000BA0188E090E00E94393660E084E290E064
:1032B0000E94273660E087E190E00E94273660E0B8
:1032C0008CE090E00E94273660E08DE090E00E9464
:1032D000273619821A821B821C821D821E821F823F
:1032E000188648E050E068E170E0CE0101960E9447
:1032F000173640E050E0BA0180E290E00E94393693
:1033000080E00E949A140E94B31440E050E0BA0199
:103310008FE090E00E94393610929502109296024A
:10332000109297021092980282E390E09093960296
:103330008093950240919502509196026091970278
:103340007091980283E190E00E9439362896E2E07D
:103350000C945B3528E030E043E060E087EF0E94AA
:10336000A1310895ACE0B0E0E8EBF9E10C94393517
:103370004F83588769877A878B879C8780916E03F4
:10338000882399F00E94AA1980E50E9419322AEB3D
:103390002A95F1F700C00E94313288789927803849
:1033A000910509F484C00E9449320E94D00E8823FE
:1033B00009F468C00E9476080091BD011091BE0119
:1033C0002091BF013091C0016B017C01C01AD10A6C
:1033D000E20AF30A9701860108301105210531053B
:1033E00008F450C06093BD017093BE018093BF018B
:1033F0009093C00100917C0310917D0320917E0386
:1034000030917F03601B710B820B930B623371054C
:103410008105910580F4109272031092710310924D
:103420007403109273031092760310927503109236
:1034300078031092770310917B030E94200F1123D1
:1034400009F462C0BE01695F7F4F81E793E00E948B
:10345000670C00917B0310916E030E94200F0117EF
:1034600009F47CC0BE01695F7F4F85E793E00E944D
:10347000670C86E0FE013796AAE8B3E001900D9252
:103480008A95E1F786E0FE013796DE0111960190FC
:103490000D928A95E1F729813A814B815C816D819A
:1034A0007E8180E090E02C96E8E00C9455350E94F7
:1034B00031320E9431327C010E94313220E0E22A16
:1034C000F82A0E9431328C010E94313220E0022B16
:1034D000182B0E944932F894B701809171039091A2
:1034E00072030E94340D9093720380937103B801AC
:1034F00080917303909174030E94340D9093740330
:1035000080937303789451CF8091710390917203EB
:1035100081382FEF9207D4F080389105CCF4819553
:103520008987809173039091740381382FEF9207FC
:103530008CF08038910584F48A871092720310927F
:103540007103109274031092730383CF81E8E7CF65
:103550008FE7E5CF81E8F0CF8FE7EECF809175035D
:103560009091760381382FEF9207D4F0803891053F
:10357000CCF4819589878091770390917803813885
:103580002FEF92078CF08038910584F48A8710928F
:10359000760310927503109278031092770369CF27
:1035A00081E8E7CF8FE7E5CF81E8F0CF8FE7EECF77
:1035B000CF93DF93D82FC62F0E94AA198D2F806832
:1035C0000E9419328C2F0E9419320E9449328FECCE
:1035D00092E00197F1F700C00000DF91CF910895CC
:1035E000682F893708F068E76093790391E090933A
:1035F0007A0390916E03992359F06150811101C0B3
:1036000064E08FE00E94D81A60E080E50E94D81A3A
:103610000895FB0180810E94F01A0895909179032A
:10362000911101C095E0282F880F330BA901490F94
:10363000511DCA011816190614F081E090E00E948D
:10364000F01A0895CF93C82F0E94AA198C2F0E94B8
:1036500019328FE792E00197F1F700C000000E9455
:103660003132C82F0E9449329AE69A95F1F700C08C
:103670008C2FCF910895CF93DF930E949931879A31
:103680000E94AA196AE58AE30E94D81A2FEF80E700
:1036900092E0215080409040E1F700C0000082E0BD
:1036A0000E94221B83E00E94221B84E00E94221BB6
:1036B00085E00E94221B86E00E94221B60E080E1E0
:1036C0000E94D81A80E00E94221BD82F81E00E941D
:1036D000221BC82F0E944932D23419F481E0C13034
:1036E00009F080E0817080936E03882341F064E0EC
:1036F0008FE00E94D81A60E080E50E94D81ADF911E
:10370000CF9108951F920F920FB60F9211242F930D
:103710003F934F935F936F937F938F939F93AF9359
:10372000BF93CF93DF93EF93FF93D091E900DF70C6
:103730008091EC00C82FC17080FDC0E81092E900B4
:103740008091F000877F8093F00078940E948A1027
:103750001092E9008091F00088608093F000CD2BFA
:10376000CF70C093E900FF91EF91DF91CF91BF91AE
:10377000AF919F918F917F916F915F914F913F9109
:103780002F910F900FBE0F901F9018951F920F92C0
:103790000FB60F9211242F933F934F935F936F9324
:1037A0007F938F939F93AF93BF93EF93FF938091FA
:1037B000E10082FF09C08091E20082FF05C0809194
:1037C000E1008B7F8093E1008091DA0080FF24C0CC
:1037D0008091D80080FF20C08091DA008E7F809396
:1037E000DA008091D90080FF9DC080E189BD82E12F
:1037F00089BD09B400FEFDCF81E08093CF038091A5
:10380000C103811109C00E9406070E94A707809189
:10381000E20084608093E2008091E10080FF17C0A5
:103820008091E20080FF13C08091E2008E7F809340
:10383000E2008091E20080618093E2008091D800F4
:1038400080628093D80019BC85E08093CF0380917B
:10385000E10084FF2BC08091E20084FF27C080E15B
:1038600089BD82E189BD89B5982F917080FFFBCF1A
:103870008091D8008F7D8093D8008091E1008F7E69
:103880008093E1008091E2008F7E8093E20080913E
:10389000E20081608093E2008091D003882309F4E4
:1038A00047C084E08093CF038091CF038091E100F3
:1038B00083FF27C08091E20083FF23C08091E10055
:1038C000877F8093E10082E08093CF031092D00342
:1038D0008091E1008E7F8093E1008091E2008E7FF5
:1038E0008093E2008091E20080618093E20042E0F8
:1038F00060E080E00E9475078091F000886080930E
:10390000F000FF91EF91BF91AF919F918F917F91C7
:103910006F915F914F913F912F910F900FBE0F903C
:103920001F90189519BC1092CF031092C10374CF49
:103930008091E30087FD93E09093CF03B5CF789417
:103940001F921FB61F9211248F939F93AF93BF9323
:103950008091BD039091BE03A091BF03B091C003BD
:103960000196A11DB11D8093BD039093BE03A0934A
:10397000BF03B093C003BF91AF919F918F911F90F0
:103980001FBE1F9018959C014FB7F8948091BD03FE
:103990009091BE03A091BF03B091C0034FBF821BA3
:1039A000930B08952FB7F8948091BD039091BE03B7
:1039B000A091BF03B091C0032FBF08952F923F92F3
:1039C0005F926F927F928F929F92AF92BF92CF92AF
:1039D000DF92EF92FF920F931F93CF93DF9380912B
:1039E000B903882309F4CAC08091B7039091B80342
:1039F0000E94C31CC29708F4A2C00E94D21C9093DC
:103A0000B8038093B70384E294E090932B068093ED
:103A10002A060E94D00E882309F4C8C089E394E0E6
:103A20000E94011080916D030E94560C0E94020DAD
:103A30000E94810F87E394E00E94011081E00E94C0
:103A40000F10C091860382E894E00E9401108091DB
:103A500089030E94020D0E94810F8EE794E00E946C
:103A60000110809188030E94020D0E94810FCC23D7
:103A700009F496C08BE794E00E9401108C2F829588
:103A80008F700E94020D0E94810F8C2F0E94020DE8
:103A90000E94810F8CEF8C0F853308F081C087E77F
:103AA00094E00E9401108C2F8450990BFC01EE5B76
:103AB000FB4F84910E94810F8EE994E00E940110D7
:103AC00080918C030E94090D0E940F1480918D0338
:103AD00081950E94090D0E940F1480918F030E940E
:103AE000090D0E940F1480918E0381950E94090D8B
:103AF0000E940F1485E994E00E94011080917903DF
:103B0000811101C085E00E94090D01960E940F14E9
:103B10008FE894E00E94011080917B03811144C0E2
:103B200080E30E94810F8BE894E00E940110809155
:103B30008003811101C084E0805D0E94810F80912B
:103B4000220490912304892BB1F58091B603882338
:103B5000A9F00E9476080091B2031091B30320915E
:103B6000B4033091B503601B710B820B930B6F3F55
:103B70007F4F8F4F9F4710F40E94D015DF91CF9158
:103B80001F910F91FF90EF90DF90CF90BF90AF907B
:103B90009F908F907F906F905F903F902F900895AF
:103BA00081E00E940F1088CF81E3BBCF84EA94E0CC
:103BB0000E940110C4CF8091B903882331F2809113
:103BC000B1038111C2CF0E94EB15209122043091E4
:103BD00023042115310509F4B8CF80E041E050E01D
:103BE000082F10E01A01082E02C0220C331C0A9480
:103BF000E2F7B10162237323672B11F48F5FF0CFDB
:103C00009091B00390FF95C0880F880F880F809324
:103C1000720110927501895F8093730183E0809334
:103C2000760124E630E047E050E060E771E088E7A5
:103C30000E941333892B09F088CFA80125E0440F97
:103C4000551F2A95E1F78091B00380FF84C0E0E919
:103C5000F3E080E2DF011D928A95E9F7A0E9B1E087
:103C60000CE811E084E9C82E81E0D82E97E0592EA7
:103C7000772473948D91E80129918E01240F352FBB
:103C8000311D2C5D3B4FE82FF0E0E057FC4F90E0FA
:103C900080E0652C681A872C082E01C0880C0A94D5
:103CA000EAF77901A12CE701B9907E01B820662DD1
:103CB0006A196770962E062E000C770BDB2D01C05B
:103CC000DD0F9A94EAF7719561957109677077270E
:103CD00001C0B6946A95EAF7BD2A6081962E9B28AA
:103CE0009082A39468E0A612DECF019631968830C8
:103CF000910579F6CA16DB0609F0BCCF04E610E0A0
:103D000020E230E040E953E060E488E70E94343389
:103D1000892B09F01ACFE101C095D095809122043A
:103D200090912304C823D923D0932304C093220461
:103D30000CCF8295880F807680937201980136951A
:103D400027953695279520937501815E80937301A1
:103D50002093760166CF4C5D5B4F04E610E020E2D5
:103D600030E0D2CF0E94D00E882319F00E94D21CDE
:103D700008950E94060FCB01089560911304669583
:103D800070E041E050E08FE691E00E94E035892B41
:103D900019F481E080936A030E94B21E9093640339
:103DA0008093630380916B03846080936B03089519
:103DB0009091130490FF39C09170811137C09260C7
:103DC0009093130480916B03816080936B0366234F
:103DD00091F02091130430911404409115045091F6
:103DE0001604609117047091180480911904909141
:103DF0001A040E94131660911304669570E041E066
:103E000050E08FE691E00E94E035892BB1F00E94EE
:103E10009E0881E08093660320E040911604609143
:103E20001504809114040E9439160895873010F00B
:103E30009C60C6CF880F982BC3CF0E94BD1EE9CFD0
:103E4000809113048695815009F486E061E00E9418
:103E5000D81E08958091130486958F5F873008F0EF
:103E600081E061E00E94D81E08958091130480FFD4
:103E700008C0869582588F77833018F40E942A1FD5
:103E8000089561E082E00E94D81E089583E00E94B8
:103E9000470C0E94D21C9093A00280939F0282E064
:103EA0008093A1020895AEE1B0E0E9E5FFE10C9452
:103EB000373540911B0450911C0460911D04709192
:103EC0001E0480911F04909120040E94B219209337
:103ED0001B0430931C0440931D0450931E046093F4
:103EE0001F047093200486E0EBE1F4E0DE011796F6
:103EF00001900D928A95E1F786E0FE013796DE018A
:103F00001D9601900D928A95E1F786E0FE013D969F
:103F1000DE01119601900D928A95E1F786E0FE018F
:103F20003196ABE1B4E001900D928A95E1F786E01D
:103F3000EBE1F4E0DE01599601900D928A95E1F7EC
:103F400086E0FE017996DE01179601900D928A9522
:103F5000E1F70B8DEC8CCE8C0C2C000CDD08AD8CBD
:103F60000A2C000CBB089E2D902B8091A102992356
:103F700009F41DC1002E000C110B0E2C000CFF08C3
:103F8000823009F440C088F4813009F4E7C00E940F
:103F9000D21C9093A00280939F0281E08093A102A3
:103FA000109294021092930234C0833009F466C0D8
:103FB000843069F7980117FF04C022273327201B9C
:103FC000310BC701F7FE04C0882799278E199F0976
:103FD000880F991F281739070CF078C080919B0231
:103FE00090919C02E80EF91E20E0F7FE15C18EECC0
:103FF000E8168FEFF8060CF464C0F0929C02E09291
:104000009B0280E075C00E94D21C9093A002809316
:104010009F020987EA86AB86CC8686E0FE0137964A
:10402000DE01119601900D928A95E1F786E0FE017E
:104030003196DE01539601900D928A95E1F786E064
:10404000FE017396DE01179601900D928A95E1F7B5
:1040500086E0FE013796ABE1B4E001900D928A95BF
:10406000E1F70E94380F8111D4C08091A202109212
:10407000A20281706E96EAE00C945335C701F7FEF8
:1040800004C0882799278E199F09980117FF04C03B
:1040900022273327201B310B280F391F80919D02C7
:1040A00090919E02821B930B90939E0280939D029F
:1040B000181619060CF0ADCFF12CE12C10E000E041
:1040C000A8CF42E3E40EF11C2E5C8FCF80919902C1
:1040D00090919A02080F191F80E017FFA7C00E3CAD
:1040E0009FEF19078CF110939A020093990220E038
:1040F000082E000C990B62E370E00E9480358091DD
:104100009802811125C081E090E0689F6001699F5D
:10411000D00C789FD00C1124422F552741950CF4D8
:104120005095CA0162E370E00E9480358091970249
:10413000811111C081E090E0689F5001699FB00C2F
:10414000789FB00C1124B8CF0E5C1F4F8E5CC5CF8A
:104150008FEF9FEFDACF8FEF9FEFEECFC701F7FE24
:1041600004C0882799278E199F09980117FF04C05A
:1041700022273327201B310B820F931F209193029C
:1041800030919402820F931F909394028093930234
:104190002091950230919602821793070CF439CF43
:1041A00010929402109293020E94461F32CF8230E6
:1041B00071F048F4813019F1109294021092930238
:1041C0001092A10279CF853008F476CFF5CF809197
:1041D0009F029091A0020E94C31C893E934008F464
:1041E0006BCF1092A10283E00E94230C10929C02DC
:1041F00010929B0210929A02109299025DCF8091C8
:104200009F029091A0020E94C31CC39708F454CF50
:10421000D3CF81E090E02BCF83E3E816F1040CF4D8
:10422000ECCE52E3E51AF1082253DFCE0333110539
:104230000CF459CF0253110982534FCFA4E1B0E0DF
:10424000E4E2F1E20C9431358C01DC0114968C919E
:104250001497882309F4BEC021E04C9111965C911B
:10426000119712966C91129713967C91139715964D
:104270009C910E945F157C01F8018581882309F4D7
:104280006AC1C70197578038910508F064C1FFE003
:10429000FE1508F48FC08FEF93E00E940336811162
:1042A00089C069EBA62E62E0B62EE1104DC0FE017A
:1042B000339686E0DF011D928A95E9F75AE0452E94
:1042C0007501BFEFEB1AFB0AC5010E940336898313
:1042D0001A82882309F46EC0813009F07FC065011D
:1042E000E2E0CE0ED11CC7010E9403368A838823E8
:1042F00009F460C09FEF980F9330A0F5F3E0AF0E84
:10430000B11CC6010E9403368B83882309F452C076
:104310001C82DE0111967D01F7012081222381F2AA
:10432000213009F0BAC091818281913009F058C0E2
:10433000F2E0EF0EF11C65E070E0893311F460E506
:1043400070E00E94F91353C0A11424E0B20691F169
:10435000C5010E940336811101C0EA943FEFA31A00
:10436000B30AA3CF56018430A1F642E0E42EF12C2B
:1043700056012FEFA21AB20AC6010E940336E1E0ED
:10438000F0E0EC0FFD1FEE0DFF1D8083882391F000
:104390008C3741F4E2E0F0E0EC0FFD1FEE0DFF1D65
:1043A0001082B7CF3FEFE31AF30A650187E0E81602
:1043B000F104F1F68091E701877061F0D80115965C
:1043C0008C91882339F08091670282FF03C082E0DC
:1043D0000E94300C6496E0E10C944D35570199CF62
:1043E000923039F522E0E20EF11C0E949F13FFEF9C
:1043F000EF1AFF0A8FE99FE00197F1F700C0000074
:10440000AFE9BFE01197F1F700C00000EFE9FFE06E
:104410003197F1F700C000008FE99FE00197F1F7B5
:1044200000C00000AFE9BFE01197F1F700C0000045
:1044300073CF933031F432E0E30EF11C0E9473131A
:10444000D6CF943021F08FEFE81AF80AD0CF92E05F
:10445000E90EF11C30E020E0B7016F5F7F4FD7011C
:1044600011964C918053990B8A30910558F0215048
:10447000310908F4BCCFEFE9FFE03197F1F700C054
:104480000000F5CF429EF001439EF00D11249C01E7
:104490002E0F3F1F842F7B01DFCFE22FF0E0E55787
:1044A000FE4F5490822F86958695869590E0FC016C
:1044B000E558FE4F64902770712C022E02C075944F
:1044C00067940A94E2F731E063227724FC01E5590E
:1044D000FE4F8490912C022E02C0959487940A94EA
:1044E000E2F7A1E08A229924FC01E55AFE4FC4902C
:1044F000D12C02C0D594C7942A95E2F7B1E0CB2223
:10450000DD246114710419F081EE0E949F1381145F
:10451000910419F086EE0E949F13E9E365E070E0D4
:104520005E1202C060E570E0852D0E94F9138114CF
:10453000910419F086EE0E9473136114710419F04E
:1045400081EE0E947313C114D10409F450CF65E0C9
:1045500070E08CE2F6CEF0928703E0928603F801D9
:1045600080819181909389038093880397012A50D9
:104570003E472A30310508F09EC0F901E959F94C4F
:104580000C94943586E0EBE1F4E0DE01199601909D
:104590000D928A95E1F786E0FE013996DE011F96BD
:1045A00001900D928A95E1F7FA8481E090E001C0D4
:1045B000880F2A95EAF7D80115962C91222341F10C
:1045C000F82A83E08093A1028EE190E090939E020E
:1045D00080939D020E94461FF88A86E0FE013F9666
:1045E000DE01119601900D928A95E1F7CE010196B8
:1045F0000E94BC068093A20286E0FE013196ABE1E8
:10460000B4E001900D928A95E1F70E94380FD2CE66
:104610008095F822DFCFF8018581882321F084E09E
:104620008093A102C7CE0E94461FC4CED801159622
:104630008C91882309F4BECE8091950290919602C8
:104640000596909396028093950240919502509121
:104650009602609197027091980283E190E00E9427
:104660003936A8CEF8018581882309F4A3CE80913C
:1046700095029091960205978530910514F785E093
:1046800090E0DFCFD80115968C91882309F492CE63
:104690008091970291E0892780939702D6CFF80105
:1046A0008581882309F486CE8091980291E089273C
:1046B00080939802CACF8581882359F18091A10205
:1046C0008350823008F4AFCFB0EEEB16F104A1F4C2
:1046D0000E94461FF8018581811188C38091C20321
:1046E0008272F701E052F847E531F10508F0D7C0D2
:1046F000EF58F94C0C9494351092A10283E00E947B
:10470000230C10929C0210929B0210929A0210921B
:104710009902C7019A9581159F41C8F4F701FF27B7
:10472000D80115968C91E13DF10538F0E93DF10590
:1047300080F0E730BEE7FB0791F1882359F2FE577E
:10474000EA30F10538F6EA57F94C0C949435F70144
:10475000E7CF682F8E2F0E946A0FBCCF80E00E94A7
:10476000F01A1092800326CE409179035091800375
:1047700050FB47F95695537060E070E08FE090E091
:104780006ECF81E00E940E1B15CE8FEFFBCF8AE02B
:10479000F9CF86EFF7CF90917B0381E089270E94C4
:1047A000E90C08CE80918003811101C084E08F5F05
:1047B00018160CF081E0883008F087E080938003C1
:1047C000F9CD80918003811101C084E08150F0CF48
:1047D0008091130480FF1EC0282F2E7F2093130486
:1047E00030911404409115045091160460911704FF
:1047F000709118048091190490911A040E94131664
:104800000E949E0880916B03816080936B030E94DD
:10481000F90DD0CD81608093130461E086950E94EC
:10482000D81EC8CD40E25FE16AE27FE10E949808AD
:10483000C1CD4AE25FE160E27FE1F8CF46EC56E1AC
:1048400060ED76E1F3CF40ED56E166EC76E1EECF38
:104850004CEA56E169EB76E1E9CF49EB56E16CEAC7
:1048600076E1E4CF42E956E16FE976E1DFCF4FE947
:1048700056E162E976E1DACF4AED56E164EF76E19E
:10488000D5CF44EF56E16AED76E1D0CF61E081E02B
:10489000C6CF0E94351F8ECD61E086E0C0CFF7E71E
:1048A000EF16FCE7FF0609F460C028E7E2162CE7E4
:1048B000F20609F45EC0F8018581E080F18088236A
:1048C00009F49FC0C7010E940015D82E682FC701A8
:1048D0000E94CA0BB7018D2D0E94F2140E94870A14
:1048E0007C01882ED8011596AC90159716969C9051
:1048F00092943FE093228091E7018770F1F0CA2CF7
:10490000AA20E1F08F2D807F803451F080E28E0D5F
:10491000883098F0911004C08F2D807E803269F02D
:104920008091670282FF09C082E00E94300C809172
:10493000E7018770CC24C3948111C12CBF2CB294A1
:104940002FE0B222BBE0BB1508F4C3C0EB2DF0E0B2
:10495000E057F94C0C94943581E00E94470C43E0F9
:1049600062E081E00E94030C25CD81E00E94230CCF
:10497000F6CF82E0FBCF33E0E3163CE7F30671F1BC
:1049800060F4E1149CE7F906D1F0A1E0EA16ACE787
:10499000FA0609F090CF0E944A13BBE5EB16BCE77C
:1049A000FB0669F1ECE5EE16ECE7FE06F1F0FAE540
:1049B000EF16FCE7FF0609F07ECF81E01DC01092E4
:1049C000C2030E947E102FEF34E38CE02150304070
:1049D0008040E1F700C000000E9465086FEF7FEFA4
:1049E00090E080E00E944536D6CF8091670282FB3E
:1049F000882780F991E089270E942B175CCF80E0FF
:104A0000FBCFC7010E94960BD82E64CFEF2DEF701D
:104A1000DE2E8F2D807F19F0D29490EFD922AA201C
:104A2000B9F0DD2069F080E28E0D883010F0811041
:104A300009C08091C203D82AD092C2030E944110BB
:104A40008E2D45C08091F101D82AD092F101F6CF88
:104A50008E2D0E947313DD20E1F180E28E0D8830EF
:104A600010F0811004C08D2D0E94850B06C0D094DB
:104A70008091F101D822D092F1010E94411029C009
:104A8000FF2DFF70DF2E8F2D807F803219F0D294A2
:104A900080EFD822882059F021E0821609F481C0E5
:104AA000AA2009F48DC0992009F44FC0C9CF809184
:104AB000670282FD46C0AA20F1F1DD2039F0809125
:104AC000C203D82AD092C2030E94411080E00E9403
:104AD0009F13AB2DA850BB0B149710F40E94F50E3A
:104AE000CC20A9F08091E70180FD11C0F80115826A
:104AF0008695869586950E94470CC8010E941E21C6
:104B00008091E7018695869586950E94230C20E08A
:104B1000D8014C9111965C91119712966C91129755
:104B200013967C91139714968C91149715969C91DB
:104B30000E945F154FCC80E00E947313DD2049F284
:104B400092CFAA20A1F0911004C08D2D0E9469136C
:104B5000C0CF31E09312BDCF8091F0019D2D9823FD
:104B6000D91609F4B6CFD82AD092F001B2CF91105D
:104B7000B0CF8D2D0E9462139091F0018D2D89236D
:104B800029F08D2D809589238093F0018091C101BA
:104B90009D2D982309F49DCFD094D822D092C101A5
:104BA00098CFAA2029F085E0891508F492CFCDCFBF
:104BB00094E0991508F48DCF8D2D0E94621389CF52
:104BC0009920D1F3A9E38A1209C1BFEFE7EEF3E020
:104BD000B150E040F040E1F700C000008E2D0E948F
:104BE000731377CF6A2D8E2D0E946A0F72CF8F2D8F
:104BF000837091F5A1106DCF4E2D4295469547706B
:104C0000440F440F8E2D8F70042E01C0880F0A941C
:104C1000EAF72E2D2071E4FE07C02FE030E001C03E
:104C2000220F4A95EAF720953F2D36953695337039
:104C3000323069F050F44091F201313029F0822B8A
:104C400084230E94530C45CF842B822BFACF282B30
:104C50008091F2018227F5CF8695AA2011F08F2D41
:104C60008170882309F435CF4E2D429546954770C3
:104C7000440F440F8E2D8F70042E01C0880F0A94AC
:104C8000EAF72E2D2071E4FE07C02FE030E001C0CE
:104C9000220F4A95EAF720953F2D369536953370C9
:104CA000323069F050F440916D03313029F0822B9D
:104CB00084230E94000C0DCF842B822BFACF282B4B
:104CC00080916D038227F5CF9F2D9F70F92EAA202A
:104CD00029F0892F0E94470C8E2D38CF8E2D0E94EF
:104CE00062138F2D0E94230CF4CE8E2DA2EF8A1614
:104CF000B1F1A81570F0B0EF8B16D1F0E1EF8E1680
:104D000091F0AA2009F45EC091109ACE8F2D8F7178
:104D10002AC0F3EF8F1651F124EF8212F2CF809167
:104D2000670282FD2FC08F2D8F71AA20D9F21BC080
:104D3000AA2081F034E0391508F4CBCE2F2D2F7145
:104D400081E090E001C0880F2A95EAF790916D0309
:104D50008927AFCF85E0891508F4BBCEEFCF8F2D23
:104D60008F71A110BFCF0E94470CB3CE80E0AA2064
:104D700009F49FCF9F2D9F7181E001C0880F9A9504
:104D8000EAF797CFAA2099F09F2D9F71F92E892FCE
:104D90000E94470C8091670282FF07C0A8E0FA9E3C
:104DA000C001112483608093E7018F2DDCCF81E067
:104DB0000E94300CB1E0B91508F08BCE82E00E9461
:104DC000300C87CE992079F0893341F4EFEFF7EE7C
:104DD00023E0E150F0402040E1F7FECE8FE19EE479
:104DE0000197F1F7F9CE8F2D8F717CCFB7E7EB16D6
:104DF000BCE7FB0609F4B0CDE8E7EE16ECE7FE06EB
:104E000009F0B9CD82E0A9CDCF93DF938091E6017F
:104E1000807F09F04DC08091E501882309F448C0E6
:104E2000E09112045091D903C091E101D091E001C9
:104E30006091E2017091E30147E05E17C9F18E2FA6
:104E400090E0E49FF0011124E652FC4F24812223DC
:104E500091F1489FF001499FF00D1124DF01A65206
:104E6000BC4F11962C9111972C1325C02C912D130A
:104E700022C015962C91159721111DC012962D91C7
:104E80003C91261B370B283C3105A8F48091E601A4
:104E90008F7080618093E601E052FC4F80818F70BB
:104EA0008061808380EE91E00E941E210E948C0B25
:104EB000DF91CF910895FC013196E770BECFA4E158
:104EC000B0E0E5E6F7E20C9435358C0186E0F801B8
:104ED000DE011F9601900D928A95E1F7F801848119
:104EE000E58090EEA92E91E0B92E9091E401911108
:104EF00028C0882319F1EE20F1F0C8010E943C156A
:104F0000F82E8823C1F087E0F801D50101900D92B9
:104F10008A95E1F78091E401813031F48091E001DC
:104F20009091E1010E942F150E9404278F2D649615
:104F3000ECE00C945135C8010E941E21FF24F3942B
:104F4000F5CFD080C18082809380F090E5012091E0
:104F5000E2013091E301A401421B530BFF2009F44D
:104F6000D9C0483C510508F092C08823F9F29091CD
:104F7000E1018091E601282F207F09F056C0C91277
:104F800014C09091E001D91210C0E11048C08F7098
:104F900080618093E60180EE91E00E941E21809165
:104FA000E601F8018683F12CC1CFE11038C06C2DE9
:104FB0008D2D0E94E7066C2D8D2D0E94E706E82EB0
:104FC0008111F1CFDF86C88A8F8598890E942F15BD
:104FD000292F22952F70243058F49F70223088F0AA
:104FE000992399F0F8019681907F79F4FE2C9ECF59
:104FF0002A5F2F70223068F0C8010E941E21EF2C1A
:10500000F5CF992311F0882389F3805E883070F3FF
:10501000F3CF803F58F3815F833070F7E7CF809103
:10502000E60181608093E601BECFC91207C090916E
:10503000E001D91203C0EE2009F48DC0C8010E941E
:105040003C15882309F477CFEE2009F474CF8091C2
:10505000E601803288F02091E0013091E10139874A
:1050600028879B868A869091E4019C871D868E877F
:10507000CE0108960E941E2187E0F801A0EEB1E063
:1050800001900D928A95E1F70E94042757CF9091E5
:10509000E601292F207F51F480EE91E00E941E212D
:1050A00087E0F50111928A95E9F77DCF882309F40D
:1050B0003DCF8091E1018C1110C08091E001D812A8
:1050C0000CC0E1100AC09683C8010E941E2187E02F
:1050D000F50111928A95E9F729CFC8010E943C1584
:1050E000882309F428CFEE2009F425CF8091E6012A
:1050F000803210F22091E0013091E1013A8329835E
:105100009C828B829091E4019D831E828F83CE01CD
:105110000196B0CF483C5105D0F6882309F40ECF54
:10512000FE2CEE2009F407CF8091E1018C1120C004
:105130008091E001D8121CC08091E60180FD0FC073
:10514000982F907F61F08683903F31F0982F907F69
:10515000905F8F70892B8683C8010E941E2187E093
:10516000F801A0EEB1E001900D928A95E1F7DECE54
:10517000C8010E943C1581117FCF8091E6018160BA
:105180008093E601C8010E941E21D0CEABE1B0E0C1
:10519000ECECF8E20C943D354E8B5F8B688F798F89
:1051A0008A8F9B8F192F91111092F1011D8A86E031
:1051B000FE017696DE011F9601900D928A95E1F729
:1051C0000A8D002341F021E04F85588969897A8949
:1051D000C8010E945F150B8B1C8B87E0FE013F9678
:1051E000DE01189601900D928A95E1F7CE0108969E
:1051F0000E945F2781110CC087E0FE013896DE0116
:10520000119601900D928A95E1F78C8581110BC062
:1052100017E0809112049091D903891333C06B96E3
:10522000E4E00C9459352091D90330E0C90101968E
:1052300087709927409112044817190699F097E052
:10524000929FD001939FB00D1124A652BC4FFE0136
:10525000319601900D929A95E1F78093D9030E94BF
:105260008C0BD6CF1092C2030E947E101092D903ED
:105270001092120487E0E0EEF1E0DF011D928A95C2
:10528000E9F7C6CF819FC001112486529C4F0E942E
:105290005F27882321F28091120490E001968770A5
:1052A000992780931204B5CFA6E0B0E0EAE5F9E2D1
:1052B0000C943D350E94D21C8C018091F301909199
:1052C000F4018017910781F019821A820E94D21C82
:1052D000682F49815A81792F80E090E00E94C6288A
:1052E0001093F4010093F3012696E4E00C945935F1
:1052F000ABE0B0E0EEE7F9E20C94313545E0642E26
:1053000041E0742E5DE2E52E56E0F52E60E0C62EFB
:1053100061E0D62E512C88248394912CD6018D9156
:105320006D010E94470D00C0F701408035E0A32EBB
:1053300031E0B32EF50110E000E04191A42FA295D9
:10534000AF70B0E090968C919401002E01C0220FB6
:105350000A94EAF790E04F7002C0959587954A95B8
:10536000E2F780FD92C0422A0F5F1F4F0430110503
:1053700021F7F601319780810E945B0DF0EAFA95E2
:10538000F1F7D7018C91841519F04C925524539460
:10539000BFEFEB1AFB0AE5E0CE16E1E0DE0609F00E
:1053A000BDCFEE24E394F12CD5018D915D010E94D7
:1053B000470D00C0C701002E01C0880F0A94EAF70C
:1053C000782FEDE2F6E090E0C92E91E0D92E682F1B
:1053D0006095D6012D916D01822F82958F7090E09E
:1053E000DC0190968C91AF01308190E02F7002C06B
:1053F000959587952A95E2F780FD4AC0872F832BE4
:1054000080833196DA018C91381711F0552453942A
:105410006C147D04F1F6F501319780810E945B0DDB
:10542000B0EABA95F1F70F5F1F4F0830110509F088
:10543000BBCF00916502552071F181E08093B001EE
:105440000E94D21C9093AF018093AE018091AE0177
:105450009091AF010E94C31C059708F110E0085815
:105460001D4F45E050E06DE276E0C8010E94ED3549
:10547000892B41F085E0EDE2F6E0D80101900D9234
:105480008A95E1F71092B0010AC0209542226CCFB4
:10549000862F8323B5CF8091B0018111D7CF0E9491
:1054A000D00EF82EE0916502811186C0F0E0E85838
:1054B000FD4F85E0A7EFB1E001900D928A95E1F7ED
:1054C00065E070E087EF91E00E9482088093F6012A
:1054D000C090FC01D090FD01E090FE01F090FF0132
:1054E0008091B1019091B201A091B301B091B4014A
:1054F000C816D906EA06FB06D1F0C092B101D092D7
:10550000B201E092B301F092B4010E94D00E811179
:105510000EC00E947608C61AD70AE80AF90AC09295
:105520006002D0926102E0926202F09263028BE02C
:10553000E0E0F2E0DE01119601900D928A95E1F72C
:10554000809100028695F0900102E0900202D090D6
:1055500003020091090210910A0210920A0211231B
:1055600001F110FF0BC0998190FF20C090911304AE
:1055700091609093130460E00E94D81E11FF06C052
:1055800020E04D2D6E2D8F2D0E94391612FF04C084
:10559000002379F00E94BD1E13FF03C081E08093B9
:1055A0006603852D2B96E0E10C944D350E94C10ECB
:1055B000E5CF0E949E08F0CF22E336E085E0D901D6
:1055C0001D928A95E9F70E2F10E008581D4F809123
:1055D0002C068A30A8F56DE878E1C8010E94700DAC
:1055E000882309F449C062E478E1C8010E94700D83
:1055F000882309F441C06CEE77E1C8010E94700D68
:105600008823D1F110922C0681E08093B70100919C
:10561000640210E008581D4F45E050E062E376E078
:10562000C8010E94ED35892B09F4BBCF85E0E2E388
:10563000F6E0D80101900D928A95E1F75F2CB1CF89
:105640008091B5019091B6010E94C31C843F9140A6
:1056500010F68091B701882309F4A3CF1092B70107
:10566000E0916402F0E0E858FD4F95E0DF011D9203
:105670009A95E9F7582E95CF80912C068F3F31F0FF
:105680008F5F80932C068A3008F4BECF0E94D21C14
:105690009093B6018093B501DCCF1F921FB61F9285
:1056A00011248F939F93AF93BF938091BC0381117B
:1056B00013C08091BD039091BE03A091BF03B09130
:1056C000C0034196A11DB11D8093BD039093BE03FD
:1056D000A093BF03B093C003BF91AF919F918F91EF
:1056E0001F901FBE1F901895CDB7DEB7A6970FB6B7
:1056F000F894DEBF0FBECDBF85B7806885BF85B784
:10570000806885BF84B7877F84BF0FB6F894A8955B
:1057100080916000886180936000109260000FBEED
:1057200080E890E00FB6F894809361009093610058
:105730000FBE85E699E09093A5018093A4010E9495
:1057400006070E94A7078091E20084608093E20030
:1057500078948091CF038823A1F01091E9001F7005
:105760009091EC00892F817090FD80E8182B1092A9
:10577000E9008091E80083FD0E948A101F70109359
:10578000E90082E084BD93E095BD9AEF97BD8093D8
:105790006E001092600210926102109262021092EA
:1057A00063020E948D15811102C00E94B3140E94F1
:1057B0000F19809109010E940F19809105010E9423
:1057C0005B0D809106010E945B0D809107010E9494
:1057D0005B0D809108010E945B0D00E011E075E017
:1057E000E72E71E0F72ED8018D918D010E945B0D9F
:1057F000E016F106C1F78091090195E0811190E072
:105800009093650285E0891B809364020E94D00E0C
:10581000811102C00E94BC33EDE2F6E0A8E7B2E0DD
:1058200011921D9226E0E733F207D1F70E9442174A
:10583000811102C00E94261982E090E00E94033686
:105840008093690284E090E00E9411369093670291
:10585000809366020E9478298FE39CE90197F1F713
:1058600000C000000E9478298091780280FF08C063
:105870006FEF7FEF90E080E00E9445360E94650860
:1058800083E090E00E9403360E94530C0E94D00EE9
:10589000882309F496C180E08093B00380E8809368
:1058A00021040E9473326BE070E082E292E00E9479
:1058B000A6158823E9F18091B00365E070E081FDD1
:1058C00082C18DE192E00E94A615882389F16DE0E6
:1058D00070E08BE092E00E94A615882349F10E94B7
:1058E0007608605A75418F4F9F4F6093B203709353
:1058F000B3038093B4039093B503E4E2F4E080E053
:1059000092E0DF019C011D9221503040E1F7F093BD
:105910002B06E0932A068FEF9FEF9093230480934A
:10592000220481E08093B9038093B6031092B103FF
:1059300080916802811178C00E944217811104C0D1
:105940000E9426190E940E1788E090E00E940B36F4
:105950004B015C0184E290E00E940336282F30E086
:1059600040E050E060E070E080E090E000E20E9403
:10597000A135282939294A295B292093130430931A
:105980001404409315045093160460931704709305
:1059900018048093190490931A0480916B03836018
:1059A00080936B032E7F89F50E940E1788E090E0AC
:1059B0000E940B366B017C0184E290E00E9403366A
:1059C000282F30E040E050E060E070E080E090E0C0
:1059D0000E94A135B22FA32FF42FE52F5B01970171
:1059E0008601BC29A12BFE29E32BB0931304A093BD
:1059F0001404F0931504E093160460931704B09216
:105A000018048093190490931A040E94A5080E9418
:105A10009E088091130480FF04C060E086950E9478
:105A2000D81E81E0809368020E94D00E811102C0CE
:105A30000E94BC330E943B1B0E94D00E81112EC0DD
:105A40008DEF9CE0909351018093500129E130E06B
:105A500030934C0120934B0189E390E090934F01E8
:105A600080934E0141E559E050935901409358010C
:105A70003093540120935301909357018093560122
:105A800049E05BE1509361014093600130935C0118
:105A900020935B0190935F0180935E010E94421707
:105AA000882389F08FE090E00E940B368B01862FCF
:105AB0008F770E94F01A001F0027001F1370110F2C
:105AC000102B1093800383E190E00E940B366093CB
:105AD000950270939602809397029093980282E6C3
