:100000000C94DF060C94FC060C94FC060C940D3248
:100010000C94FC060C94FC060C94FC060C94FC0658
:100020000C94FC060C94FC060C947B1C0C94371C62
:100030000C946B290C94FC060C94FC060C94FC06A6
:100040000C94FC060C94FC060C94FC060C94FC0628
:100050000C94FC060C94541D0C94FC060C94FC06A9
:100060000C94FC060C94FC060C94FC060C94FC0608
:100070000C94FC060C94FC060C94FC060C94FC06F8
:100080000C94FC060C94FC060C94FC060C94FC06E8
:100090000C94FC060C94FC060C94FC060C94FC06D8
:1000A0000C94FC060C94FC060C94FC060501090259
:1000B000A10185020901A1000509190129081500FE
:1000C0002501950875018102050109300931158165
:1000D000257F95027508810609381581257F9501D0
:1000E00075088106050C0A38021581257F95017572
:1000F000088106C0C00660FF0961A1010962150000
:1001000026FF009520750881020963150026FF006F
:10011000952075089102C005010906A1010507197E
:10012000E029E71500250195087501810295017503
:100130000881010507190029FF150026FF00950613
:100140007508810005081901290515002501950587
:1001500075019102950175039101C0000000000036
:10016000000000000000000000000000000000008F
:100170000000000000000000000000000000007E01
:100180000F00D4FFFFFFC700000078000000000050
:100190000000002A2B2800000000000000000000E2
:1001A00000000000000029000000002C1E34202167
:1001B0002224342627252E362D3738271E1F2021AE
:1001C00022232425263333362E37381F040506070D
:1001D00008090A0B0C0D0E0F101112131415161727
:1001E00018191A1B1C1D2F3130232D350405060745
:1001F00008090A0B0C0D0E0F101112131415161707
:1002000018191A1B1C1D2F3130354C00DA0281FFE2
:10021000D9F1DB20A4A62EAF00A0C0D30000A1C856
:10022000D30000AED580A81F408D14200000041E0E
:10023000140A05000101010101010101010202028C
:100240000202020202020303030303030303040482
:10025000040404040405050505050606060606074C
:100260000707070708080808090909090A0A0A0B05
:100270000B0B0C0C0C0D0D0D0E0E0E0F0F0F1010A6
:10028000111111121213131414151516161717182D
:100290001819191A1A1B1B1C1D1D1E1E1F20202198
:1002A0002222232424252626272829292A2B2C2DDF
:1002B0002D2E2F30313232333435363738393A3B00
:1002C0003C3D3E3F404142434445464748494A4CF5
:1002D0004D4E4F50515354555658595A5B5D5E5FC1
:1002E000616264656668696B6C6D6F707273757757
:1002F000787A7B7D7E8082838587888A8C8E8F91B9
:10030000939596989A9C9EA0A2A3A5A7A9ABADAFE2
:10031000B1B3B5B7BABCBEC0C2C4C6C9CBCDCFD1CC
:10032000D4D6D8DBDDDFE2E4E7E9EBEEF0F3F5F875
:10033000FAFDFF2223252628292A2C2D2F3032339F
:100340003536383A3B3D3E4042434547494A4C4E9C
:100350005051535557595A5C5E6062646668696BC8
:100360006D6F71737577797B7D7F81838587898ACE
:100370008C8E90929496989A9C9E9FA1A3A5A7A8D4
:10038000AAACAEAFB1B3B4B6B8B9BBBCBEBFC1C204
:10039000C3C5C6C7C9CACBCCCDCED0D1D2D2D3D497
:1003A000D5D6D7D7D8D9D9DADADBDBDBDCDCDCDCB5
:1003B000DCDDDDDDDDDCDCDCDCDCDBDBDBDADAD983
:1003C000D9D8D7D7D6D5D4D3D2D2D1D0CECDCCCB05
:1003D000CAC9C7C6C5C3C2C1BFBEBCBBB9B8B6B423
:1003E000B3B1AFAEACAAA8A7A5A3A19F9E9C9A98B3
:1003F000969492908E8C8A89878583817F7D7B7984
:10040000777573716F6D6B6968666462605E5C5A64
:100410005957555351504E4C4A4947454342403E27
:100420003D3B3A3836353332302F2D2C2A292826B9
:1004300025232200AF00AE20004C61796572202098
:1004400020006162636465666768696A6B6C6D6EE3
:100450006F707172737475767778797A313233345C
:10046000353637383930524542545F2D3D5B5D5C3F
:10047000233B27602C2E2F20202700204B002020FC
:1004800043004B657920202020520020204400307A
:10049000302020530020202020204350490042617A
:1004A0006C6C2000808182838485868788898A8B12
:1004B0008C8D8E8F9091929394A0A1A2A3A4A5A6B7
:1004C000A7A8A9AAABACADAEAFB0B1B2B3B4C0C12E
:1004D000C2C3C4C5C6C7C8C9CACBCCCDCECFD0D184
:1004E000D2D3D40029001E001F0020001D001B00D5
:1004F00006001900210022002B0014000500E00076
:100500002252E2001A0008001500170023520000D2
:1005100000000000E00004001600070000000000DA
:100520000000000009000A00E500000000000000D3
:1005300000000600000000000400050000000000AC
:1005400007000800230024002500260010003600C4
:100550003700380027002D001C00180028222C002E
:10056000E600E7000C00120013002A0021520000F0
:10057000000000000B000D000E000F000000000046
:1005800000000000330034001100000000000000F3
:1005900000000B000000000009000A00000000003D
:1005A0000C000D0001003A003B003C00010001007E
:1005B000010001003D003E000100010001000100BA
:1005C0000100010001000100010001000100000024
:1005D0000000000001000100010001000000000017
:1005E0000000000001000100010000000000000008
:1005F00000000600000000000400050000000000EC
:10060000070008003F00400041004200010021783F
:100610002478267843004400010001002878010076
:10062000010001000100010001004500010000007F
:100630000000000001000100207823780000000085
:10064000000000002578277801000000000000006D
:1006500000000B000000000009000A00000000007C
:100660000C000D000100010001000100010001006B
:100670000100010001000100010001000100010072
:100680000100010001000100010001000100000063
:100690000000000001000100010001000000000056
:1006A0000000000001000100010000000000000047
:1006B000000006000000000004000500000000002B
:1006C000070008000100010001000100077E037E11
:1006D000057E097E0100010001000100010001000A
:1006E0000100010001000100010001000100000003
:1006F00000000000007E067E027E047E00000000F6
:1007000000000000087E0100017E000000000000E3
:1007100000000B000000000009000A0000000000BB
:100720000C000D00010001000100010001000100AA
:1007300001000100010001000100010001000100B1
:1007400001000100010001000100010001000000A2
:100750000000000001000100010001000000000095
:100760000000000001000100010000000000000086
:10077000000006000000000004000500000000006A
:100780000700080001000100010001000100010054
:100790000100010001000100010001000100010051
:1007A0000100010001000100010001000100000042
:1007B00000000000D400D100D200D30000000000EF
:1007C0000000000001000100D50000000000000052
:1007D00000000B000000000009000A0000000000FB
:1007E0000C000D0009025B00030100A0FA090400DF
:1007F0000001030101000921110100012244000749
:10080000058103080001090401000203000000093A
:1008100021110100012222000705820320000107A7
:100820000503032000010904020001030000000980
:100830002111010001224900070584032000011253
:100840000100020000000838393583010001020070
:1008500001120372006500650078003500360065FE
:10086000007800000012036B0075007300680069D7
:10087000006D00610038000000040309040000005E
:100880000000003E5B4F5B3E003E6B4F6B3E001C2A
:100890003E7C3E1C00183C7E3C18001C577D571CBB
:1008A000001C5E7F5E1C0000183C180000FFE7C3C0
:1008B000E7FF00001824180000FFE7DBE7FF003027
:1008C000483A060E00262979292600407F050507AB
:1008D00000407F05253F005A3CE73C5A007F3E1C04
:1008E0001C0800081C1C3E7F0014227F2214005F9D
:1008F0005F005F5F0006097F017F00006689956ADF
:100900000060606060600094A2FFA2940008047E12
:1009100004080010207E20100008082A1C08000887
:100920001C2A0808001E10101010000C1E0C1E0CB3
:100930000030383E383000060E3E0E060000000043
:1009400000000000005F0000000007000700001426
:100950007F147F1400242A7F2A1200231308646264
:1009600000364956205000000807030000001C22F2
:100970004100000041221C00002A1C7F1C2A0008A4
:10098000083E0808000080703000000808080808C9
:10099000000000606000002010080402003E514981
:1009A000453E0000427F400000724949494600210F
:1009B00041494D33001814127F1000274545453931
:1009C000003C4A4949310041211109070036494993
:1009D000493600464949291E000000140000000065
:1009E00040340000000008142241001414141414B0
:1009F000000041221408000201590906003E415D31
:100A0000594E007C1211127C007F49494936003E44
:100A100041414122007F4141413E007F49494941D6
:100A2000007F09090901003E41415173007F080818
:100A3000087F0000417F4100002040413F01007FCE
:100A400008142241007F40404040007F021C027F8A
:100A5000007F0408107F003E4141413E007F0909AC
:100A60000906003E4151215E007F091929460026F2
:100A7000494949320003017F0103003F4040403FA4
:100A8000001F2040201F003F4038403F00631408F3
:100A90001463000304780403006159494D430000C6
:100AA0007F41414100020408102000004141417F84
:100AB00000040201020400404040404000000307DF
:100AC0000800002054547840007F284444380038FF
:100AD0004444442800384444287F0038545454186F
:100AE0000000087E0902001824241C78007F0804F6
:100AF00004780000447D4000002040403D00007F1D
:100B0000102844000000417F4000007C04780478F5
:100B1000007C08040478003844444438007C1824DD
:100B2000241800182424187C007C080404080048B9
:100B3000545454240004043F4424003C4040207C8E
:100B4000001C2040201C003C4030403C0044281049
:100B50002844004C9090907C004464544C44000025
:100B60000836410000000077000000004136080010
:100B7000000201020402003C2623263C0000000083
:100B8000000000F8FCFCFC3C3CFCFCFCF80080C0D5
:100B9000F0F8FC7E000000000000000000000000F3
:100BA00000000000FCFCFCFC000000000000000055
:100BB00000FCFCFCFC000000000000000000000045
:100BC000000000000000FCFCFCFC00000000000035
:100BD000000000FCFCFCFC00000000000000000025
:100BE00000000000000000007EFCF8F0E0C0800083
:100BF0000080C0E0F0F8FC7E000000E0F0F0F0E0E3
:100C0000ECEEF7F37020007C7C7C7E007E7E7E7FA5
:100C10007F7F000080C0E07E5B4F5BFEC00000C0B5
:100C200000DCD7DEDEDED7DC00C000000000000004
:100C300000000000000000000000000000000000B4
:100C4000000000FFFFFFFF0000FFFFFFFF7F1F0FFF
:100C5000070100000000000000000000000000008C
:100C600000000000FFFFFFFF000000808080800088
:100C700000FFFFFFFF000000000000000000000078
:100C8000000000000000FFFFFFFF00008080808068
:100C9000000000FFFFFFFF00000000000000000058
:100CA0000000000000000000000081C3E7FFFFFF1C
:100CB000FFFFFFE7C38100000000000F1F3F7F7FA1
:100CC0007F7F7F3F1E0C001F1F1F3F003F3F3F7F66
:100CD0007F7F00307B7F7830202030787F3B00039F
:100CE000000F7F0F0F0F7F0F0003000000000000B8
:100CF00000000000000000000000000000000000F4
:100D0000000000FFFFFFFF000001010100000000E4
:100D100000000000000000000000000000000000D3
:100D2000000000003F3F3F3F0000003F3F3F3F00CB
:100D3000003F3F3F3F0000000000000000000000B7
:100D40000000000000003F3F3F3F00003F3F3F3FAB
:100D50000000003F3F3F3F00000000000000000097
:100D600000000000000000007E3F1F0F070301008D
:100D7000000103070F1F3F7E00000000000000007D
:100D80000000000000000000000000000000000063
:100D90000000000000000000000000000000000053
:100DA0000000000000000000000000000000000043
:100DB00000000000000000000000000000001124FE
:100DC0001FBECFEFDAE0DEBFCDBF11E0A0E0B1E0A3
:100DD000E6E6F9E602C005900D92A63AB107D9F70A
:100DE00026E0A6EAB1E001C01D92AA33B207E1F7FE
:100DF0000E9492290C9469340C940000482F209191
:100E000017049091DE0357E0291302C080E0089593
:100E100030E0529FF001539FF00D1124E152FC4F3E
:100E20008181681306C08081481303C085818111C8
:100E3000EECF2F5F3F4F2770E7CFE8EDF0E08081E6
:100E40008E7F80831092E2001092DA001092E1000F
:100E5000A0EEB0E08C9181608C9380818F7780834D
:100E600019BCA7EDB0E08C918E7F8C9380818F7E32
:100E700080831092C60308952091E4003091E5002C
:100E800095E6A9012091EC00822F817020FF06C019
:100E90008091E80080FF06C080E008952091E8007E
:100EA00022FD1AC08091D403882389F0853089F00F
:100EB0008091EB0085FD0FC02091E4003091E500AA
:100EC00042175307F9F29150E1F684E0089582E069
:100ED000089583E0089581E008958091D60387FF07
:100EE00013C08091E80082FF06C08091E8008B77F4
:100EF0008093E80004C08091D4038111F2CF08955B
:100F00008091D4038823D9F38091E80080FFF8CF43
:100F10008091E8008E77ECCF982F9093E900242FF2
:100F2000762F50E0891731F07091EC002091ED00A0
:100F30005091F00021FD07C09F5F973071F78093BB
:100F4000E90081E008953091EB003E7F3093EB00A3
:100F50003091ED003D7F3093ED003091EB0031603A
:100F60003093EB007093EC002093ED005093F00071
:100F70002091EE0027FDE0CF80E00895B0E0A0E0F2
:100F8000E4ECF7E00C944733C8EDD0E088818F7E25
:100F90008883E7EDF0E080818160808384E082BF18
:100FA00081E08093C60388818E7F888302EE10E003
:100FB000F80110821092DA0081EEC82ED12CF601D1
:100FC000108288818F778883888180688883888170
:100FD0008F7D888319BC1092D4031092D503109290
:100FE000D3031092D20390EEE92EF12CF701808109
:100FF0008B7F808388818160888342E060E080E02D
:101000000E948C07F60180818E7F8083F8018081A9
:1010100081608083808188608083F70180818E7FFA
:101020008083888180618883CDB7DEB7E8E00C9447
:101030006333FC018091DC039091DD0386179707F1
:10104000A0F06115710529F49091E8009E779093C6
:10105000E80090E06115710551F4911108C080918C
:10106000E80082FF34C080E00895BC01F2CF809197
:10107000D4038823C1F18530C1F18091E80083FD5C
:1010800030C08091E80082FDEACF8091E80080FFC7
:10109000E1CF8091F3002091F200382F61157105A6
:1010A00019F02830310558F091E02830310509F069
:1010B00090E02091E8002E772093E800CBCF81913B
:1010C0008093F100615071092F5F3F4FE7CF80910E
:1010D000D403882341F0853041F08091E80083FFFC
:1010E000BECF81E0089582E0089583E008950895D9
:1010F00008958091C903089587E797E790930108C1
:101100008093000888E19AE00FB6F894A895809340
:1011100060000FBE90936000FFCF2FB7F8946091EE
:10112000C2037091C3038091C4039091C5032FBF84
:101130000895FC01680F791F8FEF91E321918227B9
:1011400028E030E087FF09C0880F89272150310946
:10115000C9F7E617F70791F70895880FF7CFFA0157
:10116000811101C0FB0109950895EEE6F3E01182BB
:10117000828184608283089580911804982F9E7FD5
:1011800061F4817082608093180480911B0485361D
:1011900018F084E680931B0408958E30B0F38170BC
:1011A0008C60F1CFAF92BF92DF92EF92FF920F93DC
:1011B0001F93CF93DF93082F162FE901E42FF0E060
:1011C000ED5CFD4F611110C0E4915E2F4E2F4983FD
:1011D000E8835A83DF91CF911F910F91FF90EF9099
:1011E000DF90BF90AF900895E62EF12C4491D42E5D
:1011F000E42FF0E026E0829FC00111242FEF30E0C1
:10120000B9010E942933802F90E0880F991F55E57E
:10121000569FD001579FB00D11248A1B9B0B982F0E
:10122000990F890F5901AE18BF08AE9ED001AF9E2D
:10123000B00DBE9EB00D11245B2F189F80011124AC
:10124000012F11275901A01AB10AAE9E8001AF9E4D
:10125000100DBE9E100D11245901A81AB108AE9CA4
:10126000C001AF9C900DBE9C900D1124892F992731
:10127000281B390B2E9FC0012F9F900D3E9F900D74
:101280001124E92F62307105A1F050F46115710548
:1012900009F49DCF6130710581F0EB2F512F97CF6D
:1012A0006430710569F080F06630710509F48FCF04
:1012B000F4CFE42F4B2F592F8ACFE42F412F87CF24
:1012C000EB2F542F492F83CF4B2F5D2DE12F7FCF55
:1012D000CF93DF93E3E7F3E083819481A581B68127
:1012E000E90188839983AA83BB83148213821682BF
:1012F0001582DF91CF91089580E0089563E070E05A
:1013000085E192E00E94990890911402891318C017
:10131000E0911502EB30A4F488E0E802F00111241A
:10132000E55FFE4F0680F781E02D309749F028E316
:1013300032E04091170268E172E08091160209954F
:101340000895EBE0F1E0AEEFB1E058968C9158973C
:1013500080A759968C9183AF08959091700292FF67
:1013600010C041E0282F2471243009F040E031E022
:10137000282F2871283009F030E0431711F02CE0B5
:10138000822793FF10C041E0282F2471243109F0F7
:1013900040E031E0282F2871283109F030E0431770
:1013A00011F02CE082273091710230FF10C051E023
:1013B000282F2171213009F050E041E0282F2871B9
:1013C000283009F040E0541711F029E0822731FF5E
:1013D00010C041E0282F2171213109F040E031E0B7
:1013E000282F2871283109F030E0431711F029E047
:1013F000822794FD877E089582389105B9F1B0F473
:101400008133910509F47DC048F48932910509F4CE
:101410006DC08A32910509F47BC00895853391052A
:1014200009F45FC08933910509F10895833E910560
:10143000D9F138F4803E910529F1823E910579F188
:101440000895863E9105D9F1873E910509F43EC085
:10145000843E910541F52091710221FF24C08091C5
:10146000700284FD19C087EE90E00895209170020B
:10147000237009F05AC02091710223FF14C089E241
:1014800090E008952091700220FD38C030917102E3
:1014900030FF09C024FF43C090E080E00895209110
:1014A000700222FDF7CF08952091700222FD3AC00C
:1014B0003091710230FD39C024FFF5CFEDCF20917E
:1014C000700223FFF0CF24FDE7CFCDCF2091700233
:1014D00023FD2EC03091710231FFEECF84EE90E0FB
:1014E00008952091700225FFDECFC9CF20917002B0
:1014F00025FD21C02091710223FFD5CF89E390E023
:10150000D2CF2091700226FFCECF8AE290E00895DC
:101510002091700226FFC7CF81E390E0089583EE0B
:1015200090E0089582EE90E0089580EE90E00895B6
:1015300086EE90E0089585E390E008951F93CF93A1
:10154000DF930E94FC09EC01C11582E5D80708F081
:101550003FC0C11590E5D90708F0C2C0C83ED1050B
:10156000C0F4C03ED10580F4C53AD10548F4C4307A
:10157000D10550F4C130D10539F0D0E0C0E004C04D
:10158000CD3CD105D0F3D065CE01DF91CF911F9135
:101590000895C11580E4D80708F053C0C11590E242
:1015A000D90708F0B7C0C11581E0D80730F38D2FF7
:1015B0000E94AD09182FCE0199270E94FC09C12F66
:1015C000D0E0DC2FCC27CC27DF71C82BD92BDCCF88
:1015D000C03892E5D907A8F4C03682E5D80708F0EC
:1015E00063C0C03492E5D90708F049C0C03282E533
:1015F000D80788F1CF71D0E0DC2FCC27C16FD06A3B
:10160000C3CFC03C92E5D90780F48C2F8F71C03ACC
:10161000D24508F45EC00E94AD09C82FD0E0DC2F8F
:10162000CC27CC27DF71D062AFCFC03E82E5D80790
:1016300008F0A3CFDC2FCC27CC27DF71C06FD06A96
:10164000A3CFCE0199270E94FC09CC27DF70C82BBD
:10165000D92BD06A99CF2C2F2695269590E2299FD9
:10166000900111248C2F8370C1E0D0E002C0CC0F18
:10167000DD1F8A95E2F7C22BD32BDD6885CF2C2F97
:1016800026952695277080E2289F900111248C2FA3
:101690008370C1E0D0E002C0CC0FDD1F8A95E2F775
:1016A000C22BD32BDC6870CF2C2F26952695277064
:1016B00090E2299F900111248C2F8370C1E0D0E02B
:1016C00002C0CC0FDD1F8A95E2F7C22BD32BDA685C
:1016D0005BCFC82FD0E0DC2FCC27C46FD06A54CFAB
:1016E0008C2F8F710E94AD0955E0D695C7955A95FC
:1016F000E1F7CF70D0E0DC2FCC27282F30E084FF3B
:1017000005C044E0220F331F4A95E1F7C22BD32BCB
:10171000D0693ACF8D2F8F710E94AD09182FCE015D
:1017200099270E94FC09C12FD0E0DC2FCC27CC27C1
:10173000DF71C82BD92B77CF80959091C703982361
:101740009093C7030895809117049091DE03981336
:1017500001C008958F5F8770FACF9C3080F5883084
:1017600070F548E0949F90011124820F932F911DF2
:10177000682F677023E0969587952A95E1F7FC011D
:10178000EE0FFF1FE80FF91FEC53FE4F50E040E053
:1017900080E0219130E0062E02C0369527950A940C
:1017A000E2F721703327042E01C0220F0A94EAF7D2
:1017B000822B4F5F5F4F4330510559F7089580E00A
:1017C00008959C3098F5883088F548E0949F900102
:1017D0001124820F932F911D282F277041E001C003
:1017E000440F2A95EAF723E0969587952A95E1F725
:1017F000FC01EE0FFF1FE80FF91FEC53FE4F90E0C6
:1018000080E070E05191DF0111979B01082E02C02A
:10181000369527950A94E2F72170219525272423F0
:1018200025272C9301968330910561F708958093C5
:10183000720308959091720321E030E0F90101C034
:10184000EE0F8A95EAF7D90102C0AA0FBB1F6A956D
:10185000E2F7EA2B01C0220F4A95EAF7892F8E237F
:10186000E81305C0292B822F0E94170C089520959C
:101870002923F9CF21E030E001C0220F8A95EAF751
:1018800020958091720382230E94170C08959091F5
:10189000EF01809589238093EF01282F277069F449
:1018A000891759F09091710292FF07C0869586952D
:1018B00086950E943A0C1092EF01089521E030E0E5
:1018C00001C0220F8A95EAF780917203822B0E9451
:1018D000170C08958093FA010895982F92959F70A0
:1018E00011F0892F94E0282F2695269511F09E5F00
:1018F000822F869509F09F5F892F0895B0E0A0E0C0
:10190000E4E8FCE00C944733FC01EB019091850383
:10191000911101C094E04081518191509A01092EAA
:1019200002C0359527950A94E2F7B901092E02C045
:10193000660F771F0A94E2F7461B570B51834083CB
:10194000428153818A01092E02C0159507950A9498
:10195000E2F7B80102C0660F771F9A95E2F7461BBF
:10196000570B5383428321387FEF37077CF02038B1
:10197000310574F421952D8301388FEF180754F049
:10198000802F003811053CF08FE705C021E8F2CF29
:101990002FE7F0CF81E881958C830E948D082D81FF
:1019A000211103C02C812223B9F060938603709328
:1019B0008703809388039093890380918A039BE037
:1019C000980F973120F4080F00938A031D82CDB73A
:1019D000DEB7E8E00C946333C0908603D0908703B1
:1019E000E0908803F09089036C197D098E099F09A6
:1019F000643671058105910500F310928A03DDCFED
:101A0000CF93C82F809180038C1751F00E948D08CE
:101A10006093810370938203809383039093840384
:101A2000C0938003CF91089580917303F90180835F
:101A300008958F708A3010F4805D0895895A089552
:101A4000382F20E287FF02C031952DE24AE0832F34
:101A5000642F0E948033905D9093BD0181110BC073
:101A60002093BC0120E22093BB0120E22093BA0125
:101A70008AEB91E00895642F0E948033905D9093EB
:101A8000BC01832F64E60E948033882361F3805D6C
:101A90008093BB01EBCF9C01860F971F37FD07C0DA
:101AA00077FD04C097FF02C08FEF9FE7089577FF8F
:101AB000FDCF97FDFBCF80E090E80895E82FE295F9
:101AC000EF70F0E031A1282F2F7081E090E001C08D
:101AD000880F2A95EAF7382B31A392A180958923A4
:101AE00082A30895E82FE295EF70F0E031A1282F4E
:101AF0002F7081E090E001C0880F2A95EAF7982FB7
:101B00009095932391A392A1892B82A30895B0E08D
:101B1000A0E0EDE8FDE00C9447337C016B0180917F
:101B20002B0601E010E08A3010F40AE010E0C1E07A
:101B3000D0E062E376E0C701F6010995811104C0A7
:101B400021960C171D072CF4CDB7DEB7E8E00C94F6
:101B50006333CC9F9001CD9F300D300D112490E068
:101B600080E045E34A95F1F700000196821793075C
:101B7000C1F7DFCF0F931F93CF93DF938B01EA0160
:101B80009091D403943061F58093E9008FEF9091A8
:101B9000E800815095FD06C095ED9A95F1F700009B
:101BA0008111F5CF8091E80085FF1AC00E943C07A3
:101BB000811111C08091E80085FD06C08091E80088
:101BC0008E778093E800F2CFF80181918F018093A6
:101BD000F100219779F78091E8008E778093E800F3
:101BE000DF91CF911F910F91089546E050E0BC0125
:101BF00084E00E94BA0D0895CF93DF93EC0148E092
:101C000050E0BC0181E00E94BA0D88E0FE01AAEC20
:101C1000B3E001900D928A95E1F7DF91CF9108959D
:101C200060916C018091180480FF20C080916B014D
:101C300043E0849FC001112488559D4F539A2BB1D6
:101C4000277F3BB138605FB7F894FC01649FE00DDB
:101C5000F11D1124BF0168177907D1F45FBF8FE52B
:101C600094E00197F1F700C00000089580916D01A4
:101C700090916E0123E0829FF0011124E855FD4F01
:101C80008917A0F61182108212828F5F3396F8CFE7
:101C9000FC014191CF01E8E03BB9000000C047FFE3
:101CA0002BB9440F000000C000C000C02BB900C019
:101CB000EA9591F7D0CF9091180490FF0EC09091C3
:101CC0006D0120916E0133E0939FF0011124E855DE
:101CD000FD4F921718F00E94100E089581836083C3
:101CE00042839F5F3396F5CFA3E0B0E0EAE7FEE0E2
:101CF0000C944B338C018091710381110AC09E01B9
:101D00002F5F3F4F44E66FEF0E94D2088A81809395
:101D10007103F8016481613069F08091710340E0E2
:101D2000662361F040E0623011F44091710380E07D
:101D300060E004C06091710340E080E00E945B0EAF
:101D4000F801848190E0019663E070E00E948E3398
:101D500084832396E4E00C946733A3E0B0E0E3EBE4
:101D6000FEE00C944B338C01DC011496EC91F0E016
:101D7000ED5CFC4F44918091180480FF11C0453602
:101D800008F044E69E012F5F3F4F60911A04809156
:101D900019040E94D2084B8169818A810E945B0EDE
:101DA000F80184818F5F84832396E4E00C94673389
:101DB000E8E1F4E080818E7F80830E94B508EEE642
:101DC000F3E08281816082830E94100E08958091E9
:101DD000FD01811119C082E390E02091E30027FD0D
:101DE00010C0EFE3FCE93197F1F700C00000019764
:101DF000A1F782E08093FD010E941D071092D40399
:101E000003C081E08093FD0181E09091FD0191305C
:101E100011F080E0089508950E94E70E882359F09C
:101E2000E091BF03F091C003309729F00190F08159
:101E3000E02D0995089580E008950F931F930E9467
:101E4000E70E882329F00E948D081F910F910895B5
:101E50000E948D0800916A0210916B0220916C0221
:101E600030916D02600F711F821F931FEECF269875
:101E70002E9A249A2C9885E08A95F1F7000083B178
:101E800024982C9A90EA9A95F1F790E026E095959F
:101E900087952A95E1F78095909581700895CF9365
:101EA0009091A30280919C02981323C08091A40278
:101EB000882321F090919D0289131BC08091A50277
:101EC000882321F090919E02891313C08091A7026C
:101ED000882321F09091A00289130BC09091A60253
:101EE000992329F081E020919F02291303C080E00B
:101EF00001C081E0C82FC17080FF0FC0E091BF0317
:101F0000F091C003309749F082E08093A2020480F0
:101F1000F581E02D82EA92E009959091A30286E096
:101F2000E2EAF2E0DF01282F1D922A95E9F790936B
:101F3000A302ABE9B2E001900D928A95E1F781E04E
:101F4000C11103C0911101C080E08170CF9108954B
:101F5000AEE1B0E0EEEAFFE00C944D334091A20216
:101F60005091A3026091A4027091A5028091A602F3
:101F70009091A7020E94671A2093A2023093A302B5
:101F80004093A4025093A5026093A6027093A70207
:101F900086E0E2EAF2E0DE01179601900D928A9562
:101FA000E1F786E0FE013796DE011D9601900D9265
:101FB0008A95E1F786E0FE013D96DE0111960190DB
:101FC0000D928A95E1F786E0FE013196A2EAB2E031
:101FD00001900D928A95E1F786E0E2EAF2E0DE01F7
:101FE000599601900D928A95E1F786E0FE01799667
:101FF000DE01179601900D928A95E1F786E0FE01C9
:102000003796DE01119601900D928A95E1F786E0F0
:10201000FE013196DE01539601900D928A95E1F70B
:1020200086E0FE017396DE01179601900D928A9567
:10203000E1F786E0FE013796A2EAB2E001900D9248
:102040008A95E1F70E944F0F811109C08091A1028A
:102050001092A10281706E96E2E00C94693381E0E7
:1020600090E0F6CF2FE2280F283078F481E090E05E
:1020700001C0880F2A95EAF72091A302662331F068
:10208000822B8093A3020E944F0F08958095822394
:10209000F8CFCF93DF93682F81E06A3019F06D306D
:1020A00031F480E00E94D710DF91CF9108958091A4
:1020B000290690912A0626E0FC01A3E2B6E00190F1
:1020C0000D922A95E1F7603E08F458C026E0FC0125
:1020D00011922A95E9F7C0912906D0912A0646E087
:1020E00050E0BE0183E296E00E94FB339E01235242
:1020F0003440892B41F1C90145E0969587954A9571
:10210000E1F741E050E0BA0102C0660F771F8A95FF
:10211000E2F7CB016091210470912204862B972B6A
:10212000B9016B5F7F4FE5E076956795EA95E1F73A
:1021300002C0440F551F6A95E2F7842B952B9093AC
:102140002204809321042A5F3F4F40912004642F92
:1021500070E0C9010E942933481B463010F4240F57
:10216000311D211572E0370710F030E020E02D5DC1
:102170003B4F30932A062093290696CFF6E06F9FB7
:10218000B00111246358774F46E050E00E94E533D8
:10219000A2CFCF93DF93EC01FE018491811103C0A4
:1021A000DF91CF9108950E9449102196F5CFCF93EA
:1021B000382FE0912906F0912A06E352F44020914D
:1021C0002004622F70E0CF010E942933281B822F48
:1021D000332361F066E00E947433C82FC15010F4BD
:1021E000CF91089580E20E944910F8CF9F01280FF7
:1021F000311D2115324018F080E0F0E0E0E08E0F54
:102200009F2F911D8D5D9B4F90932A0680932906E9
:10221000E7CF8091C7039091F901892B8093A801A2
:102220009091F801992391F0892B8093A80120E0E7
:102230008AEA91E0FC013191CF0131112F5FF1E089
:10224000803B9F07B9F721111092F80148E050E058
:1022500060EF71E088EA91E00E94FB33892BA9F0DE
:1022600088E0E8EAF1E0A0EFB1E001900D928A95F4
:10227000E1F7E091BF03F091C003309731F00280A5
:10228000F381E02D88EA91E009950895EAEAF1E00A
:1022900086E0DF011D928A95E9F71092F9010E940C
:1022A00009110895AAE2B0E0E8E5F1E10C944C339D
:1022B00086ED93E02091F100DC012D93CD01B3E098
:1022C0008E3D9B07B9F78091D703833009F472C024
:1022D000B8F4813009F449C0823009F4B5C0809166
:1022E000E80083FF8DC28091D6039091D7039A3086
:1022F00008F086C2E92FF0E0E559FB4C0C94A233BC
:102300008A3009F490C08B3009F471C0893039F7F4
:102310008091D603813219F78091DA039091DB0323
:10232000009711F00297D9F68091E800877F80939B
:10233000E8008091E80082FF38C09091F30080911E
:10234000F200029731F48091F100813011F0863073
:1023500021F48091F1008093C9038091E8008B778C
:102360008093E8000E946D07BACF8091D603813A2E
:1023700009F0B5CF8091E800877F8093E8008091D5
:10238000DA039091DB03892B61F468E08AEC93E037
:1023900070E00E9419088091E8008B778093E80034
:1023A0009ECF60E090E080E0F3CF8091D403811174
:1023B000C0CF95CF8091D603813A09F090CF80911C
:1023C000DA039091DB03892B09F089CF8091E80033
:1023D000877F8093E8008091E80080FFFCCF8091A8
:1023E00078018093F1008091E8008E77B9CF8091D9
:1023F000D603813209F073CF8091DA039091DB0329
:10240000892B09F06CCF8091E800877F8093E800EA
:102410000E946D078091D803809378011092C703C2
:102420000E9446115CCF8091D603813209F057CFCC
:102430008091E800877F8093E8000E946D0780917B
:10244000D9038093C8034BCF8091D603813A09F01A
:1024500046CF8091E800877F8093E8008091E80074
:1024600080FFFCCF8091C803BCCF803899F08238C0
:1024700009F0C6C18091DA038F70873008F0C0C1BF
:102480008093E9008091EB0085FB882780F910920A
:10249000E90006C08091D2039091D303911182602C
:1024A0009091E800977F9093E8008093F10010925C
:1024B000F1008091E8008E779FC1882309F48DC1D7
:1024C000823009F09DC18091D803811190C1809123
:1024D000DA038F702FEF280F263008F091C1809318
:1024E000E9002091EB0020FF82C1933031F480910C
:1024F000EB0080628093EB007AC19091EB009061D9
:102500009093EB0021E030E001C0220F8A95EAF7BA
:102510002093EA001092EA008091EB008860EACFF5
:1025200081116EC11091D8031F778091E3008078EC
:10253000812B8093E3008091E800877F8093E800FF
:102540000E946D078091E80080FFFCCF8091E3003E
:1025500080688093E30082E0111183E08093D403CC
:102560004FC18058823008F04BC12091D803309180
:10257000D9032C3DE3E03E07A1F583E08A838AE29C
:1025800089834FB7F894DE01139620E03EE051E2D4
:10259000E32FF0E050935700E49120FF03C0E29551
:1025A000EF703F5FEF708E2F90E0EA30C0F0C7967B
:1025B0008D939D932F5F243159F74FBF8091E80091
:1025C000877F8093E8006AE270E0CE0101960E9466
:1025D00019088091E8008B778093E80011C1C096BC
:1025E000E7CF8091DA039091DB03432F55274330E7
:1025F000510509F44AC078F54130510509F47AC013
:102600008BE590E0E4EEF7E04230510509F0F8C0C8
:102610002091E800277F2093E8002091DC0330918F
:10262000DD038217930708F49C0140E02115310572
:1026300009F065C0411163C08091E80082FDC9CFF7
:102640008091D403882329F2853019F28091E80023
:1026500083FFF2CFBECF4132510509F43CC0423274
:10266000510509F0CDC08330910508F0C9C0FC01C7
:10267000EE0FFF1FE656FE4F0190F081E02D8956C8
:102680009E4FDC018C9190E01AC033272130310538
:10269000D1F02115310561F02230310509F0B0C0CB
:1026A000E1E5F8E0E4918E2F90E0E1E5F8E007C085
:1026B000E9E7F8E0E4918E2F90E0E9E7F8E0009791
:1026C00009F49EC0A5CFE5E6F8E0E4918E2F90E0F6
:1026D000E5E6F8E0F4CF8330910508F091C0880F6B
:1026E000991FFC01E056FE4F0190F081E02D89E03A
:1026F00090E08ECF82E190E0EFE3F8E089CF809127
:10270000D403882309F465CF853009F462CF809122
:10271000E80083FD5ECF8091E80082FD8DCF80913F
:10272000E80080FF83CF9091F3008091F2002115A3
:10273000310519F08830910550F041E0089709F013
:1027400040E08091E8008E778093E8006FCF44915D
:102750004093F1003196215031090196E8CF80383D
:1027600009F04EC08091E800877F8093E800809157
:10277000D5038093F1009DCE811142C01091D80302
:102780001230F0F58091E800877F8093E800109385
:10279000D5030E946D07112311F084E005C08091DC
:1027A000E30087FDFACF81E08093D40342E061EC3F
:1027B00081E00E948C0742E261EC84E00E948C0779
:1027C00042E261EC82E00E948C0742E260EC83E02E
:1027D0000E948C078091D40313C08091D80381306C
:1027E00079F481E0933009F080E08093D303109274
:1027F000E9008091E800877F8093E8000E946D07E0
:102800008091E80083FF0AC08091E800877F809371
:10281000E8008091EB0080628093EB00AA96E3E0F1
:102820000C9468331092C7030E9446112FEF84E383
:102830009CE0215080409040E1F700C0000088E11A
:102840009AE00FB6F894A895809360000FBE90931D
:102850006000FFCF882321F00E949C0B0E94091189
:102860000895882339F09091C703982B9093C7035C
:102870000E9409110895882349F19CEF980F913A1D
:1028800080F4EAEAF1E020EB31E09191891303C092
:10289000DF0111971C922E173F07B9F70E9409110B
:1028A000089590E2980F983050F4877091E001C03D
:1028B000990F8A95EAF7892F0E949C0BEFCF93E33B
:1028C000980F933118F460E00E94321008950F932E
:1028D0001F93CF93C82F882341F18CEF8C0F813A3F
:1028E000B0F50AEA11E080EB91E0F8012191C217FE
:1028F00001F18E179F07D1F7EFEF80E0D8019D918E
:102900008D01C91781F0EF3F19F4911101C0E82F33
:102910008F5F863099F7EF3F31F00E2E000CFF0BE2
:10292000E855FE4FC2830E940911CF911F910F916C
:102930000895EAEAF1E02191C21303C0DF01119783
:102940001C928E179F07B9F70E940911D5CF80E21C
:102950008C0F883068F4C77021E030E001C0220F8E
:10296000CA95EAF78091C703822B8093C703DBCF18
:1029700083E38C0F8331C8F661E08C2F0E94321004
:10298000D4CF1F93CF93DF93182FEB010E946714CE
:102990008FE99FE00197F1F700C000002197C1F790
:1029A000812F0E943B14DF91CF911F9108950F93C7
:1029B0001F93CF93DF93EC01FC0101900020E9F716
:1029C0008F0101501109C017D10728F0DF91CF9175
:1029D0001F910F91089589910E944910F4CFCF93D0
:1029E000DF93C9E3D3E060E0CE010E943534219645
:1029F000C11584E0D807B9F7DF91CF9108951F93EF
:102A0000CF93DF93122F8430E0F46C30D0F4483051
:102A1000C0F490E1699FE001112450E0440F551F7C
:102A2000C40FD51F90EC899FC00DD11D1124632FB9
:102A3000CE01C9960E943534612FCE01CA960E94FC
:102A40003534DF91CF911F910895AF92BF92CF920D
:102A5000DF92EF92FF921F93CF93DF9384EEC82E05
:102A600084E0D82ED0E07601C0E014C0F5012591B5
:102A70003491412F6C2F8D2F0E94FF1482E0A80EFD
:102A8000B11C1F5F183091F780E1E80EF11CCF5F99
:102A9000CC3019F0570110E0E9CFDF5F80ECC80EB1
:102AA000D11CD43001F7DF91CF911F91FF90EF90AF
:102AB000DF90CF90BF90AF90089588E390E00E94A0
:102AC00035340895CF93C82F6FEF811163E285E30A
:102AD00090E00E9435346FEFC11161E086E390E031
:102AE0000E9435346FEFC11166E187E390E00E94E8
:102AF0003534CF91089580E00E94621560E070E067
:102B0000CB010E945D150E9425150E94EF1481E003
:102B10000E94621508950F931F93CF93DF93843023
:102B200030F56C3020F5483010F520E1629F8001CF
:102B3000112450E0440F551F040F151F30EC839FE4
:102B4000000D111D1124C801C9960E941134C82F0F
:102B5000D0E0DC2FCC27C801CA960E9411349E0118
:102B6000282BC901DF91CF911F910F91089590E01B
:102B700080E0F8CF462F7C3040F4683030F4843069
:102B800020F4672F0E948B15089590E080E008954F
:102B9000CF92DF92FF920F931F93CF93DF936C013D
:102BA000009172038091FA01082BC3E0D0E010E09D
:102BB000FC2EC8010C2E02C0959587950A94E2F769
:102BC00080FD0CC02197A0F7F12C8F2DDF91CF91C4
:102BD0001F910F91FF90DF90CF900895B6018C2F39
:102BE0000E94BA150E949E0A019761F3EECFCF931F
:102BF000DF93EC010E94C815BE010E94BA150E9425
:102C00009E0ADF91CF910895FC0124812223C1F017
:102C1000808191810E94F71592959F70963091F076
:102C200058F4925F9F70923058F4803F19F030F45E
:102C3000883E30F481E008959A5FF4CF843FD1F369
:102C400080E00895883EB0F3813FD1F7F3CFA6E04E
:102C5000B0E0EDE2F6E10C944C3349835A834981AC
:102C60005A819923A1F0222391F0CA010E94C8152C
:102C7000182F682F89819A810E94E10B69817A81DE
:102C8000812F0E94BA152696E3E00C946833CA019E
:102C90000E94AD0B182FF2CF88E390E00E94113410
:102CA000682F70E090E080E0089585E390E00E9456
:102CB0001134833289F486E390E00E94113481302C
:102CC00059F487E390E00E94113491E0863109F0D5
:102CD00090E0892F8170089580E0FCCFB0E0A0E003
:102CE000E4E7F6E10C9447336C017B0164E670E0A5
:102CF00088E70E9487308C01E601EC0CFD1C17FD73
:102D00000BC0FE01849164E670E00E94F3308C01F8
:102D10002196CE15DF0599F70E94693181E00115F2
:102D2000110509F080E0CDB7DEB7E8E00C9463331D
:102D30008091BB039091BE03911103C091E089275C
:102D40000895882369F062E070E085E394E00E94D2
:102D50006E16811103C08091BB0308951092BB03CE
:102D60008091BB03EBCFCF93C091BB038091BE0397
:102D70008823D1F00E948D08605A75418F4F9F4F74
:102D80006093B7037093B8038093B9039093BA0329
:102D9000C11108C062E070E083E394E00E946E1607
:102DA000811105C0C091BB038C2FCF91089581E0A4
:102DB0008093BB03F7CFB0E0A0E0E1EEF6E10C9426
:102DC000433349015A016B017C010E94BC08840114
:102DD000A4016A2D7B2D88E090E00E944734940185
:102DE0004A2D5B2DB601C70100E20E94CA33622F53
:102DF00084E290E00E943534CDB7DEB7ECE00C946D
:102E00005F33A3E0B0E0E7E0F7E10C944933F82E3C
:102E1000062F142FE22E8091180480FF42C090915B
:102E200019049F1108C090911A04961304C0909140
:102E30001B04941729F09091700392609093700393
:102E4000E82FE695F0E0E857FE4F908190936E03EF
:102E50008E7F823051F5412F153608F044E69E01F1
:102E60002F5F3F4F602F8F2D0E94D2084B816981C9
:102E70008A810E945B0EF092190400931A04109349
:102E80001B04EE2071F02091180460911C047091D5
:102E90001D043F2DA80180911E0490911F040E94E3
:102EA000DB162396E6E00C946533923021F71091FF
:102EB0001B04E1CFE8E1F4E043812AE0421B08F47F
:102EC00040E021E0628181810E9401170895E8E1DC
:102ED000F4E043812AE0420F08F44FEF21E06281E1
:102EE00081810E9401170895E8E1F4E0628121E107
:102EF000621B08F460E021E0438181810E94011798
:102F00000895E8E1F4E0628121E1620F08F46FEFD7
:102F100021E0438181810E9401170895E8E1F4E0F6
:102F2000818121E04381628181510E9401170895CE
:102F3000E8E1F4E0818121E0438162818F5E0E94BB
:102F40000117089580911C04882319F08150809303
:102F50001C04209118043091190440911A045091D6
:102F60001B0460911C0470911D0480911E049091BB
:102F70001F040E94DB16089580911C04833018F40E
:102F80008F5F80931C0420911804309119044091A4
:102F90001A0450911B0460911C0470911D048091CF
:102FA0001E0490911F040E94DB160895E8E1F4E0EE
:102FB00083E0808311828FEF828384E6838314828F
:102FC000AEE6B3E012968C911297836012968C93C2
:102FD000758123E030E04FEF54E660E08681978111
:102FE0000E94DB1608959091710292FB222720F92E
:102FF000281779F080FB92F990937102609170022A
:103000007091710284E090E00E94533482E00E944B
:10301000470C089590E080E00E941F34863E9E4F4A
:1030200019F40E945516089580E00895B0E0A0E0DC
:10303000ECE1F8E10C9448337901C82F880FDD0BDF
:1030400041155105A9F0FE0193E0EE0FFF1F9A957F
:10305000E1F7E55FFE4F8181928182509E4F208192
:1030600030E04217530708F49A01A9010E9408347E
:10307000CE010E94B332D82E8823D1F0011511055C
:10308000B9F083E0CC0FDD1F8A95E1F7FE01E55F23
:10309000FE4F438150E00417150708F4A801C55FEF
:1030A000DE4F6C817D8162507E4FC7010E940834E3
:1030B0008D2DCDB7DEB7E7E00C946433A5E0B0E02A
:1030C000E4E6F8E10C9445338D83E62E5A01F22EA6
:1030D000680180912B068A3028F080E02596EAE08E
:1030E0000C9461338D818830C4F31A8219828A83EB
:1030F0006B832C8363E070E0CE0102960E949908F6
:103100008983E0923301F092460110E000E030E064
:1031100020E044E050E0BE016F5F7F4F84E00E94FA
:1031200016188823D1F24E2D50E030E020E0B50192
:1031300085E00E941618882381F230E020E041E00B
:1031400050E0BE016B5F7F4F86E00E941618882317
:1031500021F20F2D10E0960150E040E070E060E0B9
:1031600087E00E941618BACFABE0B0E0EAEBF8E1D6
:103170000C944B3388E0E8E1F4E0DE011196019015
:103180000D928A95E1F780916E0390916F03A09163
:10319000700389879A87AB872B854091660250918F
:1031A000670260916802709169023FB7F89480915C
:1031B000C2039091C303A091C403B091C5033FBF64
:1031C000841B950BA60BB70B84369105A105B105A1
:1031D00010F42223C1F010E000E030E020E04BE0EA
:1031E00050E0BE016F5F7F4F83E00E941618882376
:1031F00069F00E948D086093660270936702809365
:103200006802909369021092700381E02B96E4E0CB
:103210000C946733A4E0B0E0E0E1F9E10C944B33A7
:103220004091620250916302609164027091650264
:103230002FB7F8948091C2039091C303A091C40367
:10324000B091C5032FBF841B950BA60BB70B11E0E4
:1032500084369105A105B10518F10E941D0F6E5F1E
:103260007F4F8F4F9F4F69837A838B839C8310E0BE
:1032700000E030E020E044E050E0BE016F5F7F4FAF
:1032800082E00E941618182F882351F00E948D08A2
:10329000609362027093630280936402909365026C
:1032A000812F2496E4E00C946733A7E0B0E0EBE5CF
:1032B000F9E10C9449337B0101E010E09E01295FA4
:1032C0003F4F50E040E070E060E080E00E94161860
:1032D000182F882309F453C040915E0250915F0279
:1032E00060916002709161022FB7F8948091C203DF
:1032F0009091C303A091C403B091C5032FBF841B59
:10330000950BA60BB70B84369105A105B10548F4C2
:1033100066E070E08FEF91E00E9499089F81891725
:1033200071F106E010E09E012F5F3F4F50E040E05A
:1033300070E060E081E00E941618082F66E070E0FF
:103340008FEF91E00E94990811E09F81981310E09F
:10335000102301F10E948D0860935E0270935F025A
:10336000809360029093610286E0FE013196A8E5A9
:10337000B2E001900D928A95E1F711E00BC086E072
:10338000EFEFF1E0DE01119601900D928A95E1F7E1
:103390001111EACF86E0E8E5F2E0D70101900D9245
:1033A0008A95E1F7812F2796E6E00C9465330E9419
:1033B000370F80930A0180910A01882359F01092F7
:1033C0006B0180E280936C010E94E70E81110E94E4
:1033D000C731089580E280936B01F4CFA8E0B0E09C
:1033E000E4EFF9E10C944D3366EE7EEF90E080E07F
:1033F0000E94533460E082E090E00E94353460E047
:1034000083E090E00E9435341092FA0160E074E1AC
:1034100084E090E00E94533460E086E090E00E94F7
:1034200035346FEF87E090E00E94353440E050E0A3
:10343000BA0188E090E00E94473460E084E290E0C6
:103440000E94353460E087E190E00E94353460E00E
:103450008CE090E00E94353460E08DE090E00E94C6
:10346000353419821A821B821C821D821E821F82A1
:10347000188648E050E068E170E0CE0101960E94B5
:10348000253440E050E0BA0180E290E00E944734E9
:1034900080E00E9462150E947B1540E050E0BA0176
:1034A0008FE090E00E94473440E050E0BA0183E1B1
:1034B00090E00E9447342896E2E00C94693328E0BB
:1034C00030E043E060E087EF0E94AF2F0895ACE06A
:1034D000B0E0EDE6FAE10C9447334F8358876987F3
:1034E0007A878B879C8780917303882399F00E9449
:1034F0005F1A80E50E9427302AEB2A95F1F700C079
:103500000E943F30887899278038910509F484C05B
:103510000E9457300E94E70E882309F468C00E9479
:103520008D080091BF011091C0012091C10130911F
:10353000C2016B017C01C01AD10AE20AF30A9701A9
:103540008601083011052105310508F450C060934B
:10355000BF017093C0018093C1019093C20100919B
:103560008103109182032091830330918403601BB7
:10357000710B820B930B623371058105910580F409
:1035800010927703109276031092790310927803C9
:1035900010927B0310927A0310927D0310927C03A9
:1035A000109180030E94370F112309F462C0BE01FD
:1035B000695F7F4F86E793E00E947E0C0091800355
:1035C000109173030E94370F011709F47CC0BE01EC
:1035D000695F7F4F8AE793E00E947E0C86E0FE01E0
:1035E0003796AFE8B3E001900D928A95E1F786E057
:1035F000FE013796DE01119601900D928A95E1F752
:1036000029813A814B815C816D817E8180E090E0EF
:103610002C96E8E00C9463330E943F300E943F30C8
:103620007C010E943F3020E0E22AF82A0E943F30CD
:103630008C010E943F3020E0022B182B0E94573053
:10364000F894B70180917603909177030E944B0D17
:103650009093770380937603B801809178039091DB
:1036600079030E944B0D90937903809378037894AB
:1036700051CF809176039091770381382FEF920795
:10368000D4F080389105CCF48195898780917803B6
:103690009091790381382FEF92078CF08038910553
:1036A00084F48A871092770310927603109279033C
:1036B0001092780383CF81E8E7CF8FE7E5CF81E8E9
:1036C000F0CF8FE7EECF80917A0390917B03813822
:1036D0002FEF9207D4F080389105CCF4819589873B
:1036E00080917C0390917D0381382FEF92078CF0BD
:1036F0008038910584F48A8710927B0310927A03B4
:1037000010927D0310927C0369CF81E8E7CF8FE7A9
:10371000E5CF81E8F0CF8FE7EECFCF93DF93D82FBF
:10372000C62F0E945F1A8D2F80680E9427308C2F31
:103730000E9427300E9457308FEC92E00197F1F7FA
:1037400000C00000DF91CF910895682F893708F0FD
:1037500068E760937E0391E090937F0390917303F9
:10376000992359F06150811101C064E08FE00E94FB
:103770008D1B60E080E50E948D1B0895FB01808118
:103780000E94A51B089590917E03911101C095E0C0
:10379000282F880F330BA901490F511DCA01181694
:1037A000190614F081E090E00E94A51B0895CF93C4
:1037B000C82F0E945F1A8C2F0E9427308FE792E05B
:1037C0000197F1F700C000000E943F30C82F0E940F
:1037D00057309AE69A95F1F700C08C2FCF91089553
:1037E000CF93DF930E94A72F879A0E945F1A6AE502
:1037F0008AE30E948D1B2FEF80E792E021508040EA
:103800009040E1F700C0000082E00E94D71B83E0F7
:103810000E94D71B84E00E94D71B85E00E94D71B23
:1038200086E00E94D71B60E080E10E948D1B80E053
:103830000E94D71BD82F81E00E94D71BC82F0E945F
:103840005730D23419F481E0C13009F080E0817042
:1038500080937303882341F064E08FE00E948D1B06
:1038600060E080E50E948D1BDF91CF9108951F924B
:103870000F920FB60F9211242F933F934F935F93A4
:103880006F937F938F939F93AF93BF93CF93DF9368
:10389000EF93FF93D091E900DF708091EC00C82F87
:1038A000C17080FDC0E81092E9008091F000877F30
:1038B0008093F00078940E9452111092E900809158
:1038C000F00088608093F000CD2BCF70C093E900AA
:1038D000FF91EF91DF91CF91BF91AF919F918F9128
:1038E0007F916F915F914F913F912F910F900FBEFC
:1038F0000F901F9018951F920F920FB60F921124E0
:103900002F933F934F935F936F937F938F939F93E7
:10391000AF93BF93EF93FF938091E10082FF09C0C3
:103920008091E20082FF05C08091E1008B7F80934F
:10393000E1008091DA0080FF24C08091D80080FFF0
:1039400020C08091DA008E7F8093DA008091D900C8
:1039500080FF9DC080E189BD82E189BD09B400FE80
:10396000FDCF81E08093D4038091C603811109C00B
:103970000E941D070E94BE078091E2008460809330
:10398000E2008091E10080FF17C08091E20080FF9B
:1039900013C08091E2008E7F8093E2008091E2006C
:1039A00080618093E2008091D80080628093D8008B
:1039B00019BC85E08093D4038091E10084FF2BC083
:1039C0008091E20084FF27C080E189BD82E189BD4A
:1039D00089B5982F917080FFFBCF8091D8008F7DA3
:1039E0008093D8008091E1008F7E8093E1008091E8
:1039F000E2008F7E8093E2008091E20081608093FC
:103A0000E2008091D503882309F447C084E08093C5
:103A1000D4038091D4038091E10083FF27C080917B
:103A2000E20083FF23C08091E100877F8093E10063
:103A300082E08093D4031092D5038091E1008E7FC1
:103A40008093E1008091E2008E7F8093E20080917C
:103A5000E20080618093E20042E060E080E00E944A
:103A60008C078091F00088608093F000FF91EF91C7
:103A7000BF91AF919F918F917F916F915F914F9186
:103A80003F912F910F900FBE0F901F90189519BC6A
:103A90001092D4031092C60374CF8091E30087FD87
:103AA00093E09093D403B5CF78941F921FB61F92E2
:103AB00011248F939F93AF93BF938091C2039091F2
:103AC000C303A091C403B091C5030196A11DB11D0C
:103AD0008093C2039093C303A093C403B093C50320
:103AE000BF91AF919F918F911F901FBE1F9018950E
:103AF0009C014FB7F8948091C2039091C303A091A9
:103B0000C403B091C5034FBF821B930B08952FB719
:103B1000F8948091C2039091C303A091C403B09123
:103B2000C5032FBF08952F923F925F926F927F92AD
:103B30008F929F92AF92BF92CF92DF92EF92FF92BD
:103B40000F931F93CF93DF938091BE03882309F4D3
:103B5000CAC08091BC039091BD030E94781DC2979A
:103B600008F4A2C00E94871D9093BD038093BC03FC
:103B700083E294E090932A06809329060E94E70E40
:103B8000882309F4C8C089E394E00E94C910809199
:103B900072030E946D0C0E94190D0E94491087E368
:103BA00094E00E94C91081E00E94D710C0918B035D
:103BB00082E894E00E94C91080918E030E94190D42
:103BC0000E9449108EE794E00E94C91080918D03F5
:103BD0000E94190D0E944910CC2309F496C08BE76E
:103BE00094E00E94C9108C2F82958F700E94190D4D
:103BF0000E9449108C2F0E94190D0E9449108CEFD1
:103C00008C0F853308F081C087E794E00E94C910CB
:103C10008C2F8450990BFC01EE5BFB4F84910E942A
:103C200049108EE994E00E94C910809191030E948E
:103C3000200D0E94D7148091920381950E94200D3F
:103C40000E94D714809194030E94200D0E94D714E3
:103C50008091930381950E94200D0E94D71485E9DD
:103C600094E00E94C91080917E03811101C085E01B
:103C70000E94200D01960E94D7148FE894E00E94C4
:103C8000C91080918003811144C080E30E944910D3
:103C90008BE894E00E94C91080918503811101C0D6
:103CA00084E0805D0E94491080912104909122045B
:103CB000892BB1F58091BB038823A9F00E948D0860
:103CC0000091B7031091B8032091B9033091BA0362
:103CD000601B710B820B930B6F3F7F4F8F4F9F4782
:103CE00010F40E949816DF91CF911F910F91FF90D1
:103CF000EF90DF90CF90BF90AF909F908F907F908C
:103D00006F905F903F902F90089581E00E94D710B0
:103D100088CF81E3BBCF84EA94E00E94C910C4CF6E
:103D20008091BE03882331F28091B6038111C2CF06
:103D30000E94B316209121043091220421153105EF
:103D400009F4B8CF80E041E050E0082F10E01A01FC
:103D5000082E02C0220C331C0A94E2F7B101622340
:103D60007323672B11F48F5FF0CF9091B50390FF11
:103D700095C0880F880F880F809373011092760189
:103D8000895F8093740183E08093770124E630E0BB
:103D900047E050E061E771E088E70E942131892B1C
:103DA00009F088CFA80125E0440F551F2A95E1F7B7
:103DB0008091B50380FF84C0E5E9F3E080E2DF0194
:103DC0001D928A95E9F7A3E9B1E00FE811E087E9D0
:103DD000C82E81E0D82E97E0592E772473948D91C8
:103DE000E80129918E01240F352F311D2D5D3B4FA8
:103DF000E82FF0E0EB56FC4F90E080E0652C681A6D
:103E0000872C082E01C0880C0A94EAF77901A12CAE
:103E1000E701B9907E01B820662D6A196770962E69
:103E2000062E000C770BDB2D01C0DD0F9A94EAF70C
:103E30007195619571096770772701C0B6946A958D
:103E4000EAF7BD2A6081962E9B289082A39468E0B1
:103E5000A612DECF019631968830910579F6CA1602
:103E6000DB0609F0BCCF04E610E020E230E045E9D3
:103E700053E060E488E70E944231892B09F01ACFB1
:103E8000E101C095D0958091210490912204C8232E
:103E9000D923D0932204C09321040CCF8295880F9C
:103EA00080768093730198013695279536952795EE
:103EB00020937601815E809374012093770166CF11
:103EC0004D5D5B4F04E610E020E230E0D2CF0E946F
:103ED000E70E882319F00E94871D08950E941D0F88
:103EE000CB01089560911804669570E041E050E0C0
:103EF00080E791E00E94EE33892B19F481E08093F2
:103F00006F030E94671F90936903809368038091F9
:103F1000700384608093700308959091180490FF5B
:103F200039C09170811137C09260909318048091CC
:103F30007003816080937003662391F020911804D0
:103F40003091190440911A0450911B0460911C0493
:103F500070911D0480911E0490911F040E94DB1635
:103F600060911804669570E041E050E080E791E0D0
:103F70000E94EE33892BB1F00E94B50881E0809356
:103F80006B0320E040911B0460911A048091190496
:103F90000E9401170895873010F09C60C6CF880FEB
:103FA000982BC3CF0E94721FE9CF80911804869589
:103FB000815009F486E061E00E948D1F0895809190
:103FC000180486958F5F873008F081E061E00E94D9
:103FD0008D1F08958091180480FF08C0869582582F
:103FE0008F77833018F40E94DF1F089561E082E02C
:103FF0000E948D1F0895A8E0B0E0E1E0F0E20C948B
:104000003F338C01DC0114968C911497882309F4BA
:10401000BEC021E04C9111965C91119712966C9163
:10402000129713967C91139715969C910E942716D0
:104030007C01F8018581882309F46AC1C70197577B
:104040008038910508F064C1FFE0FE1508F48FC0C8
:104050008FEF93E00E941134811189C069E3A62E8D
:1040600063E0B62EE1104DC0FE01339686E0DF011D
:104070001D928A95E9F75AE0452E7501BFEFEB1ABC
:10408000FB0AC5010E94113489831A82882309F42E
:104090006EC0813009F07FC06501E2E0CE0ED11C18
:1040A000C7010E9411348A83882309F460C09FEFFE
:1040B000980F9330A0F5F3E0AF0EB11CC6010E943B
:1040C00011348B83882309F452C01C82DE011196BF
:1040D0007D01F7012081222381F2213009F0BAC04D
:1040E00091818281913009F058C0F2E0EF0EF11C0D
:1040F00065E070E0893311F460E570E00E94C1145E
:1041000053C0A11424E0B20691F1C5010E941134FC
:10411000811101C0EA943FEFA31AB30AA3CF56015D
:104120008430A1F642E0E42EF12C56012FEFA21AC2
:10413000B20AC6010E941134E1E0F0E0EC0FFD1F6D
:10414000EE0DFF1D8083882391F08C3741F4E2E06F
:10415000F0E0EC0FFD1FEE0DFF1D1082B7CF3FEF1B
:10416000E31AF30A650187E0E816F104F1F680919D
:10417000EF01877061F0D80115968C91882339F092
:104180008091710282FF03C082E00E94470C289652
:10419000E0E10C945B33570199CF923039F522E07E
:1041A000E20EF11C0E946714FFEFEF1AFF0A8FE97D
:1041B0009FE00197F1F700C00000AFE9BFE0119761
:1041C000F1F700C00000EFE9FFE03197F1F700C020
:1041D00000008FE99FE00197F1F700C00000AFE910
:1041E000BFE01197F1F700C0000073CF933031F4B6
:1041F00032E0E30EF11C0E943B14D6CF943021F044
:104200008FEFE81AF80AD0CF92E0E90EF11C30E007
:1042100020E0B7016F5F7F4FD70111964C9180531B
:10422000990B8A30910558F02150310908F4BCCF20
:10423000EFE9FFE03197F1F700C00000F5CF429EB3
:10424000F001439EF00D11249C012E0F3F1F842F7F
:104250007B01DFCFE22FF0E0E557FE4F5490822F35
:1042600086958695869590E0FC01E558FE4F649012
:104270002770712C022E02C0759467940A94E2F79D
:1042800031E063227724FC01E559FE4F8490912CA4
:10429000022E02C0959487940A94E2F7A1E08A2244
:1042A0009924FC01E55AFE4FC490D12C02C0D5944C
:1042B000C7942A95E2F7B1E0CB22DD2461147104A2
:1042C00019F081EE0E9467148114910419F086EEB2
:1042D0000E946714E9E365E070E05E1202C060E5E9
:1042E00070E0852D0E94C1148114910419F086EEAE
:1042F0000E943B146114710419F081EE0E943B147A
:10430000C114D10409F450CF65E070E08CE2F6CE20
:10431000F0928C03E0928B03F8018081918190935D
:104320008E0380938D03C7019A9581159F41D0F428
:10433000F701FF27D80115968C91E13DF10540F07A
:10434000E93DF10588F0E730BEE7FB0709F445C019
:10435000882371F0FE57EA30F10550F4EB58FB4C1E
:104360000C94A233F701E6CF682F8E2F0E943210F3
:10437000F8018581811158C38091C7038272F701CA
:10438000E052F847E531F10508F0A7C0E158FB4CD1
:104390000C94A23380E00E94A51B10928503E7CE07
:1043A00040917E035091850350FB47F95695537019
:1043B00060E070E08FE090E00E944734D8CE81E06A
:1043C0000E94C31BD4CE8FEFFBCF8AE0F9CF86EFDC
:1043D000F7CF9091800381E089270E94000DC7CE1E
:1043E00080918503811101C084E08F5F18160CF065
:1043F00081E0883008F087E080938503B8CE809113
:104400008503811101C084E08150F0CF80911804B0
:1044100080FF1EC0282F2E7F20931804309119048E
:1044200040911A0450911B0460911C0470911D046A
:1044300080911E0490911F040E94DB160E94B50813
:10444000809170038160809370030E94100E8FCE64
:1044500081608093180461E086950E948D1F87CE4D
:1044600045ED5FE16FED7FE10E94AF0880CE4FED3B
:104470005FE165ED7FE1F8CF4EE857E168E977E16C
:10448000F3CF48E957E16EE877E1EECF44E757E133
:1044900061E877E1E9CF41E857E164E777E1E4CF0C
:1044A0004AE557E167E677E1DFCF47E657E16AE59E
:1044B00077E1DACF42EA57E16CEB77E1D5CF4CEB0D
:1044C00057E162EA77E1D0CF61E081E0C6CF0E9498
:1044D000EA1F4DCE61E086E0C0CFF7E7EF16FCE7BC
:1044E000FF0609F460C028E7E2162CE7F20609F49B
:1044F0005EC0F8018581E080F180882309F49FC0C7
:10450000C7010E94C815D82E682FC7010E94E10B71
:10451000B7018D2D0E94BA150E949E0A7C01882E3B
:10452000D8011596AC90159716969C9092943FE002
:1045300093228091EF018770F1F0CA2CAA20E1F05C
:104540008F2D807F803451F080E28E0D883098F07E
:10455000911004C08F2D807E803269F080917102AD
:1045600082FF09C082E00E94470C8091EF018770B2
:10457000CC24C3948111C12CBF2CB2942FE0B22261
:10458000BBE0BB1508F4C3C0EB2DF0E0EC56FB4CD0
:104590000C94A23381E00E945E0C43E062E081E073
:1045A0000E941A0CE4CD81E00E943A0CF6CF82E022
:1045B000FBCF33E0E3163CE7F30671F160F4E1145E
:1045C0009CE7F906D1F0A1E0EA16ACE7FA0609F09B
:1045D00090CF0E941214BBE5EB16BCE7FB0669F115
:1045E000ECE5EE16ECE7FE06F1F0FAE5EF16FCE777
:1045F000FF0609F07ECF81E01DC01092C7030E9424
:1046000046112FEF34E38CE0215030408040E1F739
:1046100000C000000E947C086FEF7FEF90E080E018
:104620000E945334D6CF8091710282FB882780F993
:1046300091E089270E94F3175CCF80E0FBCFC70190
:104640000E94AD0BD82E64CFEF2DEF70DE2E8F2D94
:10465000807F19F0D29490EFD922AA20B9F0DD2002
:1046600069F080E28E0D883010F0811009C08091D1
:10467000C703D82AD092C7030E9409118E2D45C0C6
:104680008091F901D82AD092F901F6CF8E2D0E949F
:104690003B14DD20E1F180E28E0D883010F08110B6
:1046A00004C08D2D0E949C0B06C0D0948091F9010E
:1046B000D822D092F9010E94091129C0FF2DFF7064
:1046C000DF2E8F2D807F803219F0D29480EFD82298
:1046D000882059F021E0821609F481C0AA2009F44B
:1046E0008DC0992009F44FC0C9CF8091710282FD1D
:1046F00046C0AA20F1F1DD2039F08091C703D82A05
:10470000D092C7030E94091180E00E946714AB2D6C
:10471000A850BB0B149710F40E940C0FCC20A9F0EA
:104720008091EF0180FD11C0F80115828695869574
:1047300086950E945E0CC8010E94FB1F8091EF01CC
:104740008695869586950E943A0C20E0D8014C917A
:1047500011965C91119712966C91129713967C9119
:10476000139714968C91149715969C910E94271676
:104770000ECD80E00E943B14DD2049F292CFAA20AA
:10478000A1F0911004C08D2D0E943114C0CF31E0F2
:104790009312BDCF8091F8019D2D9823D91609F46D
:1047A000B6CFD82AD092F801B2CF9110B0CF8D2DCC
:1047B0000E942A149091F8018D2D892329F08D2DC6
:1047C000809589238093F8018091C3019D2D9823C2
:1047D00009F49DCFD094D822D092C30198CFAA20BB
:1047E00029F085E0891508F492CFCDCF94E0991592
:1047F00008F48DCF8D2D0E942A1489CF9920D1F3F2
:10480000A9E38A1209C1BFEFE7EEF3E0B150E0403F
:10481000F040E1F700C000008E2D0E943B1477CFDE
:104820006A2D8E2D0E94321072CF8F2D837091F5DC
:10483000A1106DCF4E2D429546954770440F440F01
:104840008E2D8F70042E01C0880F0A94EAF72E2D4A
:104850002071E4FE07C02FE030E001C0220F4A952E
:10486000EAF720953F2D369536953370323069F052
:1048700050F44091FA01313029F0822B84230E94B8
:104880006A0C45CF842B822BFACF282B8091FA011A
:104890008227F5CF8695AA2011F08F2D817088236D
:1048A00009F435CF4E2D429546954770440F440F7D
:1048B0008E2D8F70042E01C0880F0A94EAF72E2DDA
:1048C0002071E4FE07C02FE030E001C0220F4A95BE
:1048D000EAF720953F2D369536953370323069F0E2
:1048E00050F440917203313029F0822B84230E94CE
:1048F000170C0DCF842B822BFACF282B80917203BB
:104900008227F5CF9F2D9F70F92EAA2029F0892F9D
:104910000E945E0C8E2D38CF8E2D0E942A148F2D72
:104920000E943A0CF4CE8E2DA2EF8A16B1F1A81592
:1049300070F0B0EF8B16D1F0E1EF8E1691F0AA2057
:1049400009F45EC091109ACE8F2D8F712AC0F3EFBB
:104950008F1651F124EF8212F2CF8091710282FD05
:104960002FC08F2D8F71AA20D9F21BC0AA2081F0F1
:1049700034E0391508F4CBCE2F2D2F7181E090E073
:1049800001C0880F2A95EAF7909172038927AFCF6B
:1049900085E0891508F4BBCEEFCF8F2D8F71A11064
:1049A000BFCF0E945E0CB3CE80E0AA2009F49FCF57
:1049B0009F2D9F7181E001C0880F9A95EAF797CFEC
:1049C000AA2099F09F2D9F71F92E892F0E945E0CCD
:1049D0008091710282FF07C0A8E0FA9EC0011124F5
:1049E00083608093EF018F2DDCCF81E00E94470C24
:1049F000B1E0B91508F08BCE82E00E94470C87CE5B
:104A0000992079F0893341F4EFEFF7EE23E0E1509C
:104A1000F0402040E1F7FECE8FE19EE40197F1F7F0
:104A2000F9CE8F2D8F717CCFB7E7EB16BCE7FB0675
:104A300009F4B0CDE8E7EE16ECE7FE0609F0B9CDD3
:104A400082E0A9CDCF93DF938091EE01807F09F0C2
:104A50004DC08091ED01882309F448C0E09117040E
:104A60005091DE03C091E901D091E8016091EA0123
:104A70007091EB0147E05E17C9F18E2F90E0E49F43
:104A8000F0011124E152FC4F2481222391F1489F2F
:104A9000F001499FF00D1124DF01A152BC4F119686
:104AA0002C9111972C1325C02C912D1322C01596F3
:104AB0002C91159721111DC012962D913C91261B0A
:104AC000370B283C3105A8F48091EE018F7080618E
:104AD0008093EE01EB51FC4F80818F708061808369
:104AE00088EE91E00E94FB1F0E94A30BDF91CF9103
:104AF0000895FC013196E770BECFA4E1B0E0E3E891
:104B0000F5E20C9443338C0186E0F801DE011F9638
:104B100001900D928A95E1F7F8018481E58098EE85
:104B2000A92E91E0B92E9091EC01911128C0882313
:104B300019F1EE20F1F0C8010E940416F82E882326
:104B4000C1F087E0F801D50101900D928A95E1F757
:104B50008091EC01813031F48091E8019091E9017C
:104B60000E94F7150E9422258F2D6496ECE00C948C
:104B70005F33C8010E94FB1FFF24F394F5CFD08060
:104B8000C18082809380F090ED012091EA01309104
:104B9000EB01A401421B530BFF2009F4D9C0483C90
:104BA000510508F092C08823F9F29091E9018091B3
:104BB000EE01282F207F09F056C0C91214C0909131
:104BC000E801D91210C0E11048C08F708061809355
:104BD000EE0188EE91E00E94FB1F8091EE01F8014A
:104BE0008683F12CC1CFE11038C06C2D8D2D0E9431
:104BF000FE066C2D8D2D0E94FE06E82E8111F1CF50
:104C0000DF86C88A8F8598890E94F715292F2295FB
:104C10002F70243058F49F70223088F0992399F037
:104C2000F8019681907F79F4FE2C9ECF2A5F2F7039
:104C3000223068F0C8010E94FB1FEF2CF5CF9923AA
:104C400011F0882389F3805E883070F3F3CF803FC2
:104C500058F3815F833070F7E7CF8091EE01816078
:104C60008093EE01BECFC91207C09091E801D9121E
:104C700003C0EE2009F48DC0C8010E9404168823E9
:104C800009F477CFEE2009F474CF8091EE018032E1
:104C900088F02091E8013091E901398728879B86C7
:104CA0008A869091EC019C871D868E87CE0108969E
:104CB0000E94FB1F87E0F801A8EEB1E001900D9281
:104CC0008A95E1F70E94222557CF9091EE01292F76
:104CD000207F51F488EE91E00E94FB1F87E0F501F0
:104CE00011928A95E9F77DCF882309F43DCF809111
:104CF000E9018C1110C08091E801D8120CC0E110BC
:104D00000AC09683C8010E94FB1F87E0F50111923B
:104D10008A95E9F729CFC8010E940416882309F46F
:104D200028CFEE2009F425CF8091EE01803210F2D9
:104D30002091E8013091E9013A8329839C828B829A
:104D40009091EC019D831E828F83CE010196B0CF9E
:104D5000483C5105D0F6882309F40ECFFE2CEE20F6
:104D600009F407CF8091E9018C1120C08091E801FE
:104D7000D8121CC08091EE0180FD0FC0982F907F4B
:104D800061F08683903F31F0982F907F905F8F7015
:104D9000892B8683C8010E94FB1F87E0F801A8EEDB
:104DA000B1E001900D928A95E1F7DECEC8010E9434
:104DB000041681117FCF8091EE0181608093EE0116
:104DC000C8010E94FB1FD0CEABE1B0E0EAEEF6E2F4
:104DD0000C944B334E8B5F8B688F798F8A8F9B8FB0
:104DE000192F91111092F9011D8A86E0FE01769625
:104DF000DE011F9601900D928A95E1F70A8D00233E
:104E000041F021E04F85588969897A89C8010E945B
:104E100027160B8B1C8B87E0FE013F96DE01189650
:104E200001900D928A95E1F7CE0108960E947D25AA
:104E300081110CC087E0FE013896DE0111960190C9
:104E40000D928A95E1F78C8581110BC017E0809156
:104E500017049091DE03891333C06B96E4E00C9441
:104E600067332091DE0330E0C901019687709927EE
:104E7000409117044817190699F097E0929FD001C6
:104E8000939FB00D1124A152BC4FFE0131960190A9
:104E90000D929A95E1F78093DE030E94A30BD6CF83
:104EA0001092C7030E9446111092DE03109217045D
:104EB00087E0E8EEF1E0DF011D928A95E9F7C6CFC1
:104EC000819FC001112481529C4F0E947D2588231F
:104ED00021F28091170490E00196877099278093C2
:104EE0001704B5CFA6E0B0E0E8E7F7E20C944B3347
:104EF0000E94871D8C018091FB019091FC0180171D
:104F0000910781F019821A820E94871D682F4981BA
:104F10005A81792F80E090E00E94E4261093FC01F2
:104F20000093FB012696E4E00C946733ABE0B0E01D
:104F3000ECE9F7E20C943F3346E0642E41E0742E36
:104F40005CE2E52E56E0F52E60E0C62E61E0D62E3E
:104F5000512C88248394912CD6018D916D010E944F
:104F60005E0D00C0F701408036E0A32E31E0B32E85
:104F7000F50110E000E04191A42FA295AF70B0E0E0
:104F800090968C919401002E01C0220F0A94EAF7AA
:104F900090E04F7002C0959587954A95E2F780FDA5
:104FA00092C0422A0F5F1F4F0430110521F7F6010E
:104FB000319780810E94720DF0EAFA95F1F7D701DE
:104FC0008C91841519F04C9255245394BFEFEB1A31
:104FD000FB0AE6E0CE16E1E0DE0609F0BDCFEE24E6
:104FE000E394F12CD5018D915D010E945E0D00C00E
:104FF000C701002E01C0880F0A94EAF7782FECE26F
:10500000F6E090E0C92E91E0D92E682F6095D60188
:105010002D916D01822F82958F7090E0DC0190962A
:105020008C91AF01308190E02F7002C095958795EB
:105030002A95E2F780FD4AC0872F832B8083319623
:10504000DA018C91381711F0552453946C147D04B7
:10505000F1F6F501319780810E94720DB0EABA95A0
:10506000F1F70F5F1F4F0830110509F0BBCF00911A
:105070006F02552071F181E08093B2010E94871D7B
:105080009093B1018093B0018091B0019091B101F2
:105090000E94781D059708F110E00C571D4F46E05F
:1050A00050E06CE276E0C8010E94FB33892B41F0AE
:1050B00086E0ECE2F6E0D80101900D928A95E1F7E6
:1050C0001092B2010AC0209542226CCF862F832312
:1050D000B5CF8091B2018111D7CF0E94E70EF82E93
:1050E000E0916F02811186C0F0E0EC57FD4F86E041
:1050F000AFEFB1E001900D928A95E1F766E070E0C4
:105100008FEF91E00E9499088093FE01C090050204
:10511000D0900602E0900702F09008028091B3015F
:105120009091B401A091B501B091B601C816D9060D
:10513000EA06FB06D1F0C092B301D092B401E0922E
:10514000B501F092B6010E94E70E81110EC00E94D7
:105150008D08C61AD70AE80AF90AC0926A02D092E4
:105160006B02E0926C02F0926D028BE0E9E0F2E0FB
:10517000DE01119601900D928A95E1F78091090266
:105180008695F0900A02E0900B02D0900C020091FC
:1051900012021091130210921302112301F110FF59
:1051A0000BC0998190FF20C090911804916090935A
:1051B000180460E00E948D1F11FF06C020E04D2DF5
:1051C0006E2D8F2D0E94011712FF04C0002379F06D
:1051D0000E94721F13FF03C081E080936B03852D33
:1051E0002B96E0E10C945B330E94D80EE5CF0E9431
:1051F000B508F0CF22E336E086E0D9011D928A950A
:10520000E9F70E2F10E00C571D4F80912B068A30C6
:10521000A8F565E579E1C8010E94870D882309F4A6
:1052200049C06AE079E1C8010E94870D882309F42A
:1052300041C064EB78E1C8010E94870D8823D1F159
:1052400010922B0681E08093B90100916E0210E06C
:105250000C571D4F46E050E062E376E0C8010E9423
:10526000FB33892B09F4BBCF86E0E2E3F6E0D801FB
:1052700001900D928A95E1F75F2CB1CF8091B70133
:105280009091B8010E94781D843F914010F6809162
:10529000B901882309F4A3CF1092B901E0916E02FD
:1052A000F0E0EC57FD4F96E0DF011D929A95E9F78B
:1052B000582E95CF80912B068F3F31F08F5F8093D2
:1052C0002B068A3008F4BECF0E94871D9093B80148
:1052D0008093B701DCCF1F921FB61F9211248F93CA
:1052E0009F93AF93BF938091C103811113C08091AD
:1052F000C2039091C303A091C403B091C50341962A
:10530000A11DB11D8093C2039093C303A093C40356
:10531000B093C503BF91AF919F918F911F901FBE16
:105320001F901895CDB7DEB7A6970FB6F894DEBFDD
:105330000FBECDBF85B7806885BF85B7806885BF44
:1053400084B7877F84BF0FB6F894A89580916000DA
:10535000886180936000109260000FBE80E890E04A
:105360000FB6F89480936100909361000FBE8CE7B4
:1053700099E09093A7018093A6010E941D070E94C7
:10538000BE078091E20084608093E200789480916F
:10539000D4038823A1F01091E9001F709091EC00D4
:1053A000892F817090FD80E8182B1092E900809180
:1053B000E80083FD0E9452111F701093E90082E003
:1053C00084BD93E095BD9AEF97BD80936E001092D7
:1053D0006A0210926B0210926C0210926D020E948F
:1053E0005516811102C00E947B150E94D719809129
:1053F0000A010E94D719809106010E94720D8091C6
:1054000007010E94720D809108010E94720D809127
:1054100009010E94720D00E011E076E0E72E71E0D4
:10542000F72ED8018D918D010E94720DE016F106C4
:10543000C1F780910A0196E0811190E090936F028C
:1054400086E0891B80936E020E94E70E811102C0E4
:105450000E94CA31ECE2F6E0A4E8B2E011921D929B
:1054600026E0E833F207D1F70E940A18811102C042
:105470000E94EE1982E090E00E9411348093730242
:1054800084E090E00E941F34909371028093700238
:105490000E9496278FE39CE90197F1F700C0000076
:1054A0000E9496278091840280FF08C06FEF7FEFF3
:1054B00090E080E00E9453340E947C0883E090E0FA
:1054C0000E9411340E946A0C0E94E70E882309F49E
:1054D0008AC180E08093B50380E8809320040E9415
:1054E00081306BE070E082E292E00E946E168823C9
:1054F000E9F18091B50365E070E081FD76C18DE151
:1055000092E00E946E16882389F16DE070E08BE0D6
:1055100092E00E946E16882349F10E948D08605A1D
:1055200075418F4F9F4F6093B7037093B80380937B
:10553000B9039093BA03E3E2F4E080E092E0DF0184
:105540009C011D9221503040E1F7F0932A06E09330
:1055500029068FEF9FEF909322048093210481E02E
:105560008093BE038093BB031092B60380917202B6
:10557000811178C00E940A18811104C00E94EE199E
:105580000E94D61788E090E00E9419344B015C011C
:1055900084E290E00E941134282F30E040E050E097
:1055A00060E070E080E090E000E20E94AF332829E4
:1055B00039294A295B292093180430931904409310
:1055C0001A0450931B0460931C0470931D04809371
:1055D0001E0490931F048091700383608093700376
:1055E0002E7F89F50E94D61788E090E00E9419343A
:1055F0006B017C0184E290E00E941134282F30E09E
:1056000040E050E060E070E080E090E00E94AF3366
:10561000B22FA32FF42FE52F5B0197018601BC2940
:10562000A12BFE29E32BB0931804A0931904F09347
:105630001A04E0931B0460931C04B0921D04809331
:105640001E0490931F040E94BC080E94B50880911C
:10565000180480FF04C060E086950E948D1F81E0E1
:10566000809372020E94E70E811102C00E94CA312B
:105670000E94F01B0E94E70E81112EC084E19DE084
:1056800090935201809351012AE130E030934D0113
:1056900020934C018AE390E09093500180934F0156
:1056A00048E659E050935A0140935901309355010F
:1056B0002093540190935801809357014EEB5BE186
:1056C000509362014093610130935D0120935C012E
:1056D0009093600180935F010E940A18882389F0EB
:1056E0008FE090E00E9419348B01862F8F770E9403
:1056F000A51B001F0027001F1370110F102B109304
:10570000850383E691E09093C0038093BF0358E143
:10571000A52EB12C60E9862E62E0962E8091D403EE
:1057200000E112E1853009F49FC00E94962704E74A
:1057300012E04CE7E42E41E0F42EB70124E832E019
:10574000F8019191D9018D919D01DB014D91BD0130
:105750008423B2E0E038FB0709F492C0981789F37C
:105760000E94E70E282E34E8C32E32E0D32E612C9F
:10577000F60171906F01D7018D917D017822F801BA
:1057800031908F01371431F13724512C4424439444
:10579000842D8321B9F02220A9F059A26AA20E9487
:1057A000871D9CA38BA3F1E0FDA391E0842D8721AD
:1057B00009F490E09EA349A15AA16BA17CA18DA1FF
:1057C0000E94E4265394440C28E05212E1CFF801E1
:1057D0003197708263943CE06312CACF0E941D0F20
:1057E0007724739452C082E075CE88E192E089CE2E
:1057F0008091D403843031F10E9498160E94A80F42
:105800001092C10330E40FB6F894A895A0926000FE
:105810000FBE3093600083B7817F846083BF83B7FE
:10582000816083BF7894889583B78E7F83BF0FB6DE
:10583000F894A89580916000886180936000109230
:1058400060000FBE8091D303882371F00E949627D9
:10585000ACE7B1E0E4E8F2E081919D91892309F0A1
:105860005EC38E169F06C1F78091D403853009F47C
:10587000BFCF1092C7030E9446110E940C0F55CF54
:1058800098136ECF0E947227712C0E94E70E8091B0
:105890006F03882309F464C080916E03E0911804BB
:1058A000E695E81BE0936A03823009F064C0F0E0FB
:1058B000E15DFD4FE4910E2F10E02DEAE22E2EE087
:1058C000F22E80916B03882361F010926B030E948B
:1058D000671F909369038093680310926D03109281
:1058E0006C030E94671FE0916803F09169039C01BB
:1058F0002E1B3F0B2F3F3F4798F52091820222231A
:10590000B1F0109282022091800230918102821BBC
:10591000930B8F3F9F4758F4205D3A4830938102A4
:105920002093800280917003886080937003C09000
:105930006C03D0906D030E0F1F1F1093690300932B
:10594000680388E693E0F701099580916C039091D4
:105950006D03892B29F4CD2819F081E08093820210
:105960000E94A80F8823C9F00E941D0F0E94931D5A
:105970000E94B31616C0863049F4EDE2F2E00591BC
:10598000149194E7E92E9EE0F92E9BCF00ED17E0ED
:1059900087E7E82E88E0F82E94CF0E94931D7110BF
:1059A000E7CF0E940C0F90918302891721F080931A
:1059B00083020E948D088091D403843009F4DBC0F7
:1059C0000E94E70E882309F4A9CE0E948D08209139
:1059D000960221116BC000919202109193022091C6
:1059E0009402309195026B017C01C01AD10AE20A3F
:1059F000F30A97018601043F11402105310508F49F
:105A000055C0609392027093930280939402909396
:105A1000950280919002909191020196909391024B
:105A20008093900219828E010F5F1F4F21E050E09A
:105A300040E060E088E00E945E18811106C080911D
:105A40009002909191020A978CF181E080939602E6
:105A5000809374039981911101C080E08093750354
:105A60008091730310E0882329F00E94370F11E022
:105A7000811112E080917503882309F44CC20E94C1
:105A8000370F81114AC282E0182B0E944C166B011D
:105A90007C01DC01CB018C7FBC01CD01612BC616E2
:105AA000D706E806F90611F00E945D15809175038E
:105AB000882309F433CE0E948D086B017C0180910C
:105AC000970290919802A0919902B0919A02A70131
:105AD0009601281B390B4A0B5B0BDA01C9010497AD
