:100000000C943D050C945A050C945A050C941B3025
:100010000C945A050C945A050C945A050C945A05E4
:100020000C945A050C945A050C94A51A0C94611A58
:100030000C948B270C945A050C945A050C945A0571
:100040000C945A050C945A050C945A050C945A05B4
:100050000C945A050C947E1B0C945A050C945A056A
:100060000C945A050C945A050C945A050C945A0594
:100070000C945A050C945A050C945A050C945A0584
:100080000C945A050C945A050C945A050C945A0574
:100090000C945A050C945A050C945A050C945A0564
:1000A0000C945A050C945A050C945A050501090242
:1000B000A10185020901A1000509190129081500FE
:1000C0002501950875018102050109300931158165
:1000D000257F95027508810609381581257F9501D0
:1000E00075088106050C0A38021581257F95017572
:1000F000088106C0C00660FF0961A1010962150000
:1001000026FF009520750881020963150026FF006F
:10011000952075089102C005010906A1010507197E
:10012000E029E71500250195087501810295017503
:100130000881010507190029FF150026FF00950613
:100140007508810005081901290515002501950587
:1001500075019102950175039101C0000000000036
:10016000000000000000000000000000000000008F
:100170000000000000000000000000000000007E01
:100180000F00D4FFFFFFC700000078000000000050
:100190000000002A2B2800000000000000000000E2
:1001A00000000000000029000000002C1E34202167
:1001B0002224342627252E362D3738271E1F2021AE
:1001C00022232425263333362E37381F040506070D
:1001D00008090A0B0C0D0E0F101112131415161727
:1001E00018191A1B1C1D2F3130232D350405060745
:1001F00008090A0B0C0D0E0F101112131415161707
:1002000018191A1B1C1D2F3130354C00DA0281FFE2
:10021000D9F1DB20A4A62EAF00A0C0D30000A1C856
:10022000D30000AED580A81F408D1420000004002C
:1002300001010101010101010102020202020202A7
:10024000020203030303030303030404040404047A
:100250000405050505050606060606070707070740
:1002600008080808090909090A0A0A0B0B0B0C0CF3
:100270000C0D0D0D0E0E0E0F0F0F1010111111128F
:100280001213131414151516161717181819191A0E
:100290001A1B1B1C1D1D1E1E1F2020212222232471
:1002A00024252626272829292A2B2C2D2D2E2F30B0
:1002B000313232333435363738393A3B3C3D3E3FC4
:1002C000404142434445464748494A4C4D4E4F50B1
:1002D000515354555658595A5B5D5E5F616264656F
:1002E0006668696B6C6D6F7072737577787A7B7DF9
:1002F0007E8082838587888A8C8E8F91939596984D
:100300009A9C9EA0A2A3A5A7A9ABADAFB1B3B5B768
:10031000BABCBEC0C2C4C6C9CBCDCFD1D4D6D8DB3F
:10032000DDDFE2E4E7E9EBEEF0F3F5F8FAFDFF00DC
:10033000AF00AE20004C6179657220202000616220
:10034000636465666768696A6B6C6D6E6F70717205
:10035000737475767778797A313233343536373845
:100360003930524542545F2D3D5B5D5C233B276035
:100370002C2E2F20202700204B00202043004B65EF
:1003800079202020205200202044003030202053AB
:100390000020202020204350490042616C6C200046
:1003A000808182838485868788898A8B8C8D8E8FD5
:1003B0009091929394A0A1A2A3A4A5A6A7A8A9AA4C
:1003C000ABACADAEAFB0B1B2B3B4C0C1C2C3C4C5C3
:1003D000C6C7C8C9CACBCCCDCECFD0D1D2D3D4001A
:1003E00029001E001F0020001D001B000600190030
:1003F000210022002B0014000500E000E300E200D1
:100400001A000800150017002C0000000000000072
:10041000E0000400160007000000000000000000DB
:1004200009000A00E50000000000000000000600CE
:1004300000000000040005000000000007000800A4
:100440002300240025002600100036003700380065
:1004500027002D001C00180028002C00E600E700F3
:100460000C00120013002A006500000000000000CC
:100470000B000D000E000F00000000000000000047
:1004800033003400110000000000000000000B00E9
:100490000000000009000A00000000000C000D0030
:1004A00009025B00030100A0FA0904000001030136
:1004B0000100092111010001224400070581030800
:1004C00000010904010002030000000921110100DC
:1004D00001222200070582032000010705030320F3
:1004E00000010904020001030000000921110100BC
:1004F00001224900070584032000011201000200C7
:10050000000008383935830100010200011203722E
:100510000065006500780035003600650078000051
:100520000012036B0075007300680069006D0061C4
:100530000038000000040309040000000000003E31
:100540005B4F5B3E003E6B4F6B3E001C3E7C3E1C97
:1005500000183C7E3C18001C577D571C001C5E7F19
:100560005E1C0000183C180000FFE7C3E7FF000016
:100570001824180000FFE7DBE7FF0030483A060EBA
:1005800000262979292600407F05050700407F05C0
:10059000253F005A3CE73C5A007F3E1C1C080008DF
:1005A0001C1C3E7F0014227F2214005F5F005F5FEF
:1005B0000006097F017F00006689956A006060601F
:1005C00060600094A2FFA2940008047E040800105A
:1005D000207E20100008082A1C0800081C2A080891
:1005E000001E10101010000C1E0C1E0C0030383EA7
:1005F000383000060E3E0E0600000000000000002D
:10060000005F000000000700070000147F147F1443
:1006100000242A7F2A1200231308646200364956F8
:10062000205000000807030000001C2241000000C9
:1006300041221C00002A1C7F1C2A0008083E0808D2
:100640000000807030000008080808080000006002
:100650006000002010080402003E5149453E0000A1
:10066000427F4000007249494946002141494D33CB
:10067000001814127F10002745454539003C4A49AF
:1006800049310041211109070036494949360046E0
:100690004949291E000000140000000040340000F9
:1006A0000000081422410014141414140000412204
:1006B0001408000201590906003E415D594E007CB4
:1006C0001211127C007F49494936003E41414122C6
:1006D000007F4141413E007F49494941007F09096E
:1006E0000901003E41415173007F0808087F000066
:1006F000417F4100002040413F01007F081422411A
:10070000007F40404040007F021C027F007F0408C1
:10071000107F003E4141413E007F09090906003E2D
:100720004151215E007F0919294600264949493275
:100730000003017F0103003F4040403F001F204075
:10074000201F003F4038403F00631408146300033B
:1007500004780403006159494D4300007F41414141
:1007600000020408102000004141417F0004020102
:100770000204004040404040000003070800002001
:1007800054547840007F2844443800384444442876
:1007900000384444287F0038545454180000087E20
:1007A0000902001824241C78007F08040478000043
:1007B000447D4000002040403D00007F1028440060
:1007C0000000417F4000007C04780478007C08042D
:1007D0000478003844444438007C18242418001855
:1007E0002424187C007C0804040800485454542431
:1007F0000004043F4424003C4040207C001C204076
:10080000201C003C4030403C004428102844004C50
:100810009090907C004464544C44000008364100A1
:1008200000000077000000004136080000020102CD
:100830000402003C2623263C00000000000000F8D3
:10084000FCFCFC3C3CFCFCFCF80080C0F0F8FC7EAE
:100850000000000000000000000000000000000098
:10086000FCFCFCFC000000000000000000FCFCFCA4
:10087000FC0000000000000000000000000000007C
:100880000000FCFCFCFC000000000000000000FC7C
:10089000FCFCFC0000000000000000000000000064
:1008A000000000007EFCF8F0E0C080000080C0E0A6
:1008B000F0F8FC7E000000E0F0F0F0E0ECEEF7F382
:1008C0007020007C7C7C7E007E7E7E7F7F7F0000AF
:1008D00080C0E07E5B4F5BFEC00000C000DCD7DE66
:1008E000DEDED7DC00C000000000000000000000D9
:1008F000000000000000000000000000000000FFF9
:10090000FFFFFF0000FFFFFFFF7F1F0F0701000039
:1009100000000000000000000000000000000000D7
:10092000FFFFFFFF000000808080800000FFFFFFCE
:10093000FF000000000000000000000000000000B8
:100940000000FFFFFFFF000080808080000000FFAC
:10095000FFFFFF000000000000000000000000009A
:1009600000000000000081C3E7FFFFFFFFFFFFE77B
:10097000C38100000000000F1F3F7F7F7F7F7F3F0C
:100980001E0C001F1F1F3F003F3F3F7F7F7F003037
:100990007B7F7830202030787F3B0003000F7F0F73
:1009A0000F0F7F0F00030000000000000000000098
:1009B000000000000000000000000000000000FF38
:1009C000FFFFFF0000010101000000000000000027
:1009D0000000000000000000000000000000000017
:1009E0003F3F3F3F0000003F3F3F3F00003F3F3F52
:1009F0003F000000000000000000000000000000B8
:100A000000003F3F3F3F00003F3F3F3F0000003FAF
:100A10003F3F3F0000000000000000000000000019
:100A2000000000007E3F1F0F0703010000010307C5
:100A30000F1F3F7E000000000000000000000000CB
:100A400000000000000000000000000000000000A6
:100A50000000000000000000000000000000000096
:100A60000000000000000000000000000000000086
:100A70000000000000000000000011241FBECFEFA6
:100A8000DAE0DEBFCDBF11E0A0E0B1E0E2E8F5E6DC
:100A900002C005900D92A23AB107D9F726E0A2EA6A
:100AA000B1E001C01D92A633B207E1F70E94B22760
:100AB0000C9477320C940000482F20911B049091E5
:100AC000E20357E0291302C080E0089530E0529F0E
:100AD000F001539FF00D1124ED51FC4F81816813FB
:100AE00006C08081481303C085818111EECF2F5F3E
:100AF0003F4F2770E7CFE8EDF0E080818E7F808365
:100B00001092E2001092DA001092E100A0EEB0E044
:100B10008C9181608C9380818F77808319BCA7ED45
:100B2000B0E08C918E7F8C9380818F7E8083109239
:100B3000CA0308952091E4003091E50095E6A901EB
:100B40002091EC00822F817020FF06C08091E80088
:100B500080FF06C080E008952091E80022FD1AC0C1
:100B60008091D803882389F0853089F08091EB004B
:100B700085FD0FC02091E4003091E5004217530736
:100B8000F9F29150E1F684E0089582E0089583E05F
:100B9000089581E008958091DA0387FF13C0809162
:100BA000E80082FF06C08091E8008B778093E80020
:100BB00004C08091D8038111F2CF08958091D803A9
:100BC0008823D9F38091E80080FFF8CF8091E80076
:100BD0008E77ECCF982F9093E900242F762F50E05A
:100BE000891731F07091EC002091ED005091F000E8
:100BF00021FD07C09F5F973071F78093E90081E086
:100C000008953091EB003E7F3093EB003091ED0082
:100C10003D7F3093ED003091EB0031603093EB007D
:100C20007093EC002093ED005093F0002091EE00C3
:100C300027FDE0CF80E00895B0E0A0E0E2E2F6E03A
:100C40000C945531C8EDD0E088818F7E8883E7ED24
:100C5000F0E080818160808384E082BF81E08093C6
:100C6000CA0388818E7F888302EE10E0F80110822B
:100C70001092DA0081EEC82ED12CF6011082888104
:100C80008F77888388818068888388818F7D888337
:100C900019BC1092D8031092D9031092D703109266
:100CA000D60390EEE92EF12CF70180818B7F8083B3
:100CB00088818160888342E060E080E00E94EA05EC
:100CC000F60180818E7F8083F8018081816080833E
:100CD000808188608083F70180818E7F8083888116
:100CE00080618883CDB7DEB7E8E00C947131FC01F8
:100CF0008091E0039091E10386179707A0F06115BA
:100D0000710529F49091E8009E779093E80090E0B7
:100D10006115710551F4911108C08091E80082FFBE
:100D200034C080E00895BC01F2CF8091D8038823BD
:100D3000C1F18530C1F18091E80083FD30C0809120
:100D4000E80082FDEACF8091E80080FFE1CF80914A
:100D5000F3002091F200382F6115710519F0283049
:100D6000310558F091E02830310509F090E02091EC
:100D7000E8002E772093E800CBCF81918093F1009B
:100D8000615071092F5F3F4FE7CF8091D8038823CF
:100D900041F0853041F08091E80083FFBECF81E0D3
:100DA000089582E0089583E008950895089580915C
:100DB000CD03089587E797E7909301088093000893
:100DC00088E19AE00FB6F894A895809360000FBE72
:100DD00090936000FFCF2FB7F8946091C603709195
:100DE000C7038091C8039091C9032FBF0895FC01E8
:100DF000680F791F8FEF91E32191822728E030E07F
:100E000087FF09C0880F892721503109C9F7E617E4
:100E1000F70791F70895880FF7CFFA01811101C004
:100E2000FB0109950895E2E7F3E011828281846075
:100E30008283089580916A03982F9E7F61F4817068
:100E4000826080936A0380916D03853618F084E692
:100E500080936D0308958630B0F381708460F1CF84
:100E6000AF92BF92DF92EF92FF920F931F93CF93B7
:100E7000DF93082F162FE901E42FF0E0E15DFD4F2D
:100E8000611110C0E4915E2F4E2F4983E8835A838D
:100E9000DF91CF911F910F91FF90EF90DF90BF9066
:100EA000AF900895E62EF12C4491D42EE42FF0E07B
:100EB00026E0829FC00111242FEF30E0B9010E948B
:100EC0003731802F90E0880F991F55E5569FD0014C
:100ED000579FB00D11248A1B9B0B982F990F890FD8
:100EE0005901AE18BF08AE9ED001AF9EB00DBE9E98
:100EF000B00D11245B2F189F80011124012F1127A1
:100F00005901A01AB10AAE9E8001AF9E100DBE9E7F
:100F1000100D11245901A81AB108AE9CC001AF9C54
:100F2000900DBE9C900D1124892F9927281B390BF9
:100F30002E9FC0012F9F900D3E9F900D1124E92FF1
:100F400062307105A1F050F46115710509F49DCF6F
:100F50006130710581F0EB2F512F97CF643071050F
:100F600069F080F06630710509F48FCFF4CFE42F7B
:100F70004B2F592F8ACFE42F412F87CFEB2F542FA0
:100F8000492F83CF4B2F5D2DE12F7FCFCF93DF9361
:100F9000E7E7F3E083819481A581B681E901888345
:100FA0009983AA83BB831482138216821582DF91F0
:100FB000CF91089580E0089563E070E081E192E0D0
:100FC0000E94F70690911002891318C0E091110257
:100FD000EB30A4F488E0E802F0011124E55FFE4F55
:100FE0000680F781E02D309749F024E332E040910C
:100FF000130264E172E08091120209950895EBE01A
:10100000F1E0AAEFB1E058968C91589780A75996D5
:101010008C9183AF089590916C0292FF10C041E0D3
:10102000282F2471243009F040E031E0282F287166
:10103000283009F030E0431711F02CE0822793FFAD
:1010400010C041E0282F2471243109F040E031E044
:10105000282F2871283109F030E0431711F02CE0D7
:10106000822730916D0230FF10C051E0282F21718E
:10107000213009F050E041E0282F2871283009F094
:1010800040E0541711F029E0822731FF10C041E001
:10109000282F2171213109F040E031E0282F2871FB
:1010A000283109F030E0431711F029E0822794FD40
:1010B000877E089582389105B9F1B0F481339105A6
:1010C00009F47DC048F48932910509F46DC08A3273
:1010D000910509F47BC008958533910509F45FC03B
:1010E0008933910509F10895833E9105D9F138F4CA
:1010F000803E910529F1823E910579F10895863E61
:101100009105D9F1873E910509F43EC0843E9105D1
:1011100041F520916D0221FF24C080916C0284FD75
:1011200019C087EE90E0089520916C02237009F0B9
:101130005AC020916D0223FF14C089E290E0089507
:1011400020916C0220FD38C030916D0230FF09C043
:1011500024FF43C090E080E0089520916C0222FDBE
:10116000F7CF089520916C0222FD3AC030916D02B4
:1011700030FD39C024FFF5CFEDCF20916C0223FF65
:10118000F0CF24FDE7CFCDCF20916C0223FD2EC000
:1011900030916D0231FFEECF84EE90E00895209102
:1011A0006C0225FFDECFC9CF20916C0225FD21C046
:1011B00020916D0223FFD5CF89E390E0D2CF20911B
:1011C0006C0226FFCECF8AE290E0089520916C0257
:1011D00026FFC7CF81E390E0089583EE90E0089565
:1011E00082EE90E0089580EE90E0089586EE90E023
:1011F000089585E390E008951F93CF93DF930E94B5
:101200005A08EC01C11582E5D80708F03FC0C115A6
:1012100090E5D90708F0C2C0C83ED105C0F4C03E71
:10122000D10580F4C53AD10548F4C430D10550F455
:10123000C130D10539F0D0E0C0E004C0CD3CD105CB
:10124000D0F3D065CE01DF91CF911F910895C115E4
:1012500080E4D80708F053C0C11590E2D90708F020
:10126000B7C0C11581E0D80730F38D2F0E940B085D
:10127000182FCE0199270E945A08C12FD0E0DC2FE9
:10128000CC27CC27DF71C82BD92BDCCFC03892E517
:10129000D907A8F4C03682E5D80708F063C0C03487
:1012A00092E5D90708F049C0C03282E5D80788F135
:1012B000CF71D0E0DC2FCC27C16FD06AC3CFC03C48
:1012C00092E5D90780F48C2F8F71C03AD24508F48B
:1012D0005EC00E940B08C82FD0E0DC2FCC27CC27A3
:1012E000DF71D062AFCFC03E82E5D80708F0A3CF50
:1012F000DC2FCC27CC27DF71C06FD06AA3CFCE0103
:1013000099270E945A08CC27DF70C82BD92BD06AA6
:1013100099CF2C2F2695269590E2299F9001112494
:101320008C2F8370C1E0D0E002C0CC0FDD1F8A9506
:10133000E2F7C22BD32BDD6885CF2C2F269526957F
:10134000277080E2289F900111248C2F8370C1E0C8
:10135000D0E002C0CC0FDD1F8A95E2F7C22BD32B61
:10136000DC6870CF2C2F26952695277090E2299F58
:10137000900111248C2F8370C1E0D0E002C0CC0F0B
:10138000DD1F8A95E2F7C22BD32BDA685BCFC82F1B
:10139000D0E0DC2FCC27C46FD06A54CF8C2F8F7154
:1013A0000E940B0855E0D695C7955A95E1F7CF7086
:1013B000D0E0DC2FCC27282F30E084FF05C044E0AC
:1013C000220F331F4A95E1F7C22BD32BD0693ACFB6
:1013D0008D2F8F710E940B08182FCE0199270E9424
:1013E0005A08C12FD0E0DC2FCC27CC27DF71C82BC7
:1013F000D92B77CF80959091CB0398239093CB03F3
:10140000089580911B049091E203981301C0089500
:101410008F5F8770FACF9C3080F5883070F548E098
:10142000949F90011124820F932F911D682F677054
:1014300023E0969587952A95E1F7FC01EE0FFF1FB3
:10144000E80FF91FE054FE4F50E040E080E02191AA
:1014500030E0062E02C0369527950A94E2F72170F7
:101460003327042E01C0220F0A94EAF7822B4F5F24
:101470005F4F4330510559F7089580E008959C303F
:1014800098F5883088F548E0949F90011124820FE8
:10149000932F911D282F277041E001C0440F2A95FA
:1014A000EAF723E0969587952A95E1F7FC01EE0F80
:1014B000FF1FE80FF91FE054FE4F90E080E070E05E
:1014C0005191DF0111979B01082E02C03695279597
:1014D0000A94E2F7217021952527242325272C93B0
:1014E00001968330910561F70895809376030895FE
:1014F0009091760321E030E0F90101C0EE0F8A956A
:10150000EAF7D90102C0AA0FBB1F6A95E2F7EA2BDE
:1015100001C0220F4A95EAF7892F8E23E81305C0F0
:10152000292B822F0E94750A089520952923F9CF2F
:1015300021E030E001C0220F8A95EAF720958091E2
:10154000760382230E94750A08959091EB0180959D
:1015500089238093EB01282F277069F4891759F0AC
:1015600090916D0292FF07C08695869586950E94A0
:10157000980A1092EB01089521E030E001C0220F9B
:101580008A95EAF780917603822B0E94750A089566
:101590008093F6010895982F92959F7011F0892FEE
:1015A00094E0282F2695269511F09E5F822F869530
:1015B00009F09F5F892F0895B0E0A0E0E2EEFAE025
:1015C0000C945531FC01EB0190918903911101C0FC
:1015D00094E04081518191509A01092E02C03595C5
:1015E00027950A94E2F7B901092E02C0660F771F0A
:1015F0000A94E2F7461B570B518340834281538183
:101600008A01092E02C0159507950A94E2F7B801E0
:1016100002C0660F771F9A95E2F7461B570B53835C
:10162000428321387FEF37077CF02038310574F48E
:1016300021952D8301388FEF180754F0802F003843
:1016400011053CF08FE705C021E8F2CF2FE7F0CF7E
:1016500081E881958C830E94EB062D81211103C0C6
:101660002C812223B9F060938A0370938B038093BB
:101670008C0390938D0380918E039BE0980F97319C
:1016800020F4080F00938E031D82CDB7DEB7E8E08B
:101690000C947131C0908A03D0908B03E0908C033E
:1016A000F0908D036C197D098E099F0964367105D0
:1016B0008105910500F310928E03DDCFCF93C82FE3
:1016C000809184038C1751F00E94EB066093850390
:1016D000709386038093870390938803C093840359
:1016E000CF91089580917703F901808308958F70D9
:1016F0008A3010F4805D0895895A0895382F20E2C9
:1017000087FF02C031952DE24AE0832F642F0E94AB
:101710008E31905D9093B90181110BC02093B80177
:1017200020E22093B70120E22093B60186EB91E0FE
:101730000895642F0E948E31905D9093B801832F9D
:1017400064E60E948E31882361F3805D8093B70147
:10175000EBCF9C01860F971F37FD07C077FD04C0B4
:1017600097FF02C08FEF9FE7089577FFFDCF97FDAA
:10177000FBCF80E090E80895E82FE295EF70F0E06D
:1017800031A1282F2F7081E090E001C0880F2A95A9
:10179000EAF7382B31A392A18095892382A308957B
:1017A000E82FE295EF70F0E031A1282F2F7081E053
:1017B00090E001C0880F2A95EAF7982F909593231F
:1017C00091A392A1892B82A30895B0E0A0E0EBEE53
:1017D000FBE00C9455317C016B018091270601E000
:1017E00010E08A3010F40AE010E0C1E0D0E06EE2D0
:1017F00076E0C701F6010995811104C021960C1706
:101800001D072CF4CDB7DEB7E8E00C947131CC9F06
:101810009001CD9F300D300D112490E080E045E324
:101820004A95F1F70000019682179307C1F7DFCFC1
:101830000F931F93CF93DF938B01EA019091D8030D
:10184000943061F58093E9008FEF9091E80081502A
:1018500095FD06C095ED9A95F1F700008111F5CF41
:101860008091E80085FF1AC00E949A05811111C07D
:101870008091E80085FD06C08091E8008E77809316
:10188000E800F2CFF80181918F018093F100219758
:1018900079F78091E8008E778093E800DF91CF910F
:1018A0001F910F91089546E050E0BC0184E00E9432
:1018B000180C0895CF93DF93EC0148E050E0BC0191
:1018C00081E00E94180C88E0FE01AEECB3E00190CC
:1018D0000D928A95E1F7DF91CF91089560916C01A7
:1018E00080916A0380FF20C080916B0143E0849F58
:1018F000C00111248C559D4F539A2BB1277F3BB1CA
:1019000038605FB7F894FC01649FE00DF11D11246D
:10191000BF0168177907D1F45FBF8FE594E00197A5
:10192000F1F700C00000089580916D0190916E0163
:1019300023E0829FF0011124EC55FD4F8917A0F69A
:101940001182108212828F5F3396F8CFFC01419191
:10195000CF01E8E03BB9000000C047FF2BB9440FBE
:10196000000000C000C000C02BB900C0EA9591F78C
:10197000D0CF90916A0390FF0EC090916D0120919D
:101980006E0133E0939FF0011124EC55FD4F921747
:1019900018F00E946E0C08958183608342839F5FDC
:1019A0003396F5CFA3E0B0E0E8EDFCE00C945931BC
:1019B0008C018091750381110AC09E012F5F3F4FFA
:1019C00044E66FEF0E9430078A8180937503F80127
:1019D0006481613069F08091750340E0662361F0B5
:1019E00040E0623011F44091750380E060E004C093
:1019F0006091750340E080E00E94B90CF801848199
:101A000090E0019663E070E00E949C31848323960D
:101A1000E4E00C947531EAE6F3E080818E7F808308
:101A20000E941307E2E7F3E08281816082830E94D3
:101A30006E0C08958091F901811119C082E390E044
:101A40002091E30027FD10C0EFE3FCE93197F1F7A7
:101A500000C000000197A1F782E08093F9010E9485
:101A60007B051092D80303C081E08093F90181E0E7
:101A70009091F901913011F080E0089508950E944D
:101A80001A0D882359F0E091C303F091C4033097F5
:101A900029F00190F081E02D0995089580E00895E6
:101AA0000F931F930E941A0D882329F00E94EB06C2
:101AB0001F910F9108950E94EB060091660210910C
:101AC00067022091680230916902600F711F821FC6
:101AD000931FEECF26982E9A249A2C9885E08A950B
:101AE000F1F7000083B124982C9A90EA9A95F1F7C7
:101AF00090E026E0959587952A95E1F78095909559
:101B000081700895CF9390919F02809198029813CD
:101B100023C08091A002882321F09091990289131B
:101B20001BC08091A102882321F090919A02891311
:101B300013C08091A302882321F090919C02891305
:101B40000BC09091A202992329F081E020919B0281
:101B5000291303C080E001C081E0C82FC17080FF5D
:101B60000FC0E091C303F091C403309749F082E0C5
:101B700080939E020480F581E02D8EE992E0099524
:101B800090919F0286E0EEE9F2E0DF01282F1D929E
:101B90002A95E9F790939F02A7E9B2E001900D9290
:101BA0008A95E1F781E0C11103C0911101C080E085
:101BB0008170CF910895AEE1B0E0E1EEFDE00C94CC
:101BC0005B3140919E0250919F026091A002709102
:101BD000A1028091A2029091A3020E9491182093E9
:101BE0009E0230939F024093A0025093A102609303
:101BF000A2027093A30286E0EEE9F2E0DE011796FE
:101C000001900D928A95E1F786E0FE013796DE019C
:101C10001D9601900D928A95E1F786E0FE013D96B2
:101C2000DE01119601900D928A95E1F786E0FE01A2
:101C30003196AEE9B2E001900D928A95E1F786E027
:101C4000EEE9F2E0DE01599601900D928A95E1F7F6
:101C500086E0FE017996DE01179601900D928A9535
:101C6000E1F786E0FE013796DE01119601900D92B4
:101C70008A95E1F786E0FE013196DE0153960190E8
:101C80000D928A95E1F786E0FE017396DE011796C4
:101C900001900D928A95E1F786E0FE013796AEE954
:101CA000B2E001900D928A95E1F70E94820D8111B8
:101CB00009C080919D0210929D0281706E96E2E0B3
:101CC0000C94773181E090E0F6CF2FE2280F283096
:101CD00078F481E090E001C0880F2A95EAF720911E
:101CE0009F02662331F0822B80939F020E94820D17
:101CF000089580958223F8CFCF93DF93682F81E0FA
:101D00006A3019F06D3031F480E00E940A0FDF91E3
:101D1000CF910895809125069091260626E0FC013A
:101D2000AFE1B6E001900D922A95E1F7603E08F42C
:101D300058C026E0FC0111922A95E9F7C0912506CA
:101D4000D091260646E050E0BE018FE196E00E9469
:101D500009329E012F513440892B41F1C90145E0E0
:101D6000969587954A95E1F741E050E0BA0102C0A7
:101D7000660F771F8A95E2F7CB0160911D04709181
:101D80001E04862B972BB9016B5F7F4FE5E076959C
:101D90006795EA95E1F702C0440F551F6A95E2F78F
:101DA000842B952B90931E0480931D042A5F3F4F34
:101DB00040911C04642F70E0C9010E943731481B18
:101DC000463010F4240F311D211572E0370710F052
:101DD00030E020E0215E3B4F30932606209325061D
:101DE00096CFF6E06F9FB0011124675C7A4F46E012
:101DF00050E00E94F331A2CFCF93DF93EC01FE01BC
:101E00008491811103C0DF91CF9108950E947C0ECF
:101E10002196F5CFCF93382FE0912506F091260635
:101E2000EF51F44020911C04622F70E0CF010E941A
:101E30003731281B822F332361F066E00E94823104
:101E4000C82FC15010F4CF91089580E20E947C0EFB
:101E5000F8CF9F01280F311D2115324018F080E086
:101E6000F0E0E0E08E0F9F2F911D815E9B4F9093DD
:101E7000260680932506E7CF8091CB039091F5014C
:101E8000892B8093A4019091F401992391F0892BDF
:101E90008093A40120E086EA91E0FC013191CF011A
:101EA00031112F5FF1E08C3A9F07B9F721111092A1
:101EB000F40148E050E06CEE71E084EA91E00E94A9
:101EC0000932892BA9F088E0E4EAF1E0ACEEB1E058
:101ED00001900D928A95E1F7E091C303F091C4035C
:101EE000309731F00280F381E02D84EA91E009958A
:101EF0000895E6EAF1E086E0DF011D928A95E9F7B0
:101F00001092F5010E943C0F0895AAE2B0E0EBE8C0
:101F1000FFE00C945A318AED93E02091F100DC014E
:101F20002D93CD01B3E0823E9B07B9F78091DB038F
:101F3000833009F472C0B8F4813009F449C08230AA
:101F400009F4B5C08091E80083FF8DC28091DA0367
:101F50009091DB039A3008F086C2E92FF0E0E75851
:101F6000FD4C0C94B0318A3009F490C08B3009F4E8
:101F700071C0893039F78091DA03813219F7809185
:101F8000DE039091DF03009711F00297D9F680915C
:101F9000E800877F8093E8008091E80082FF38C0E6
:101FA0009091F3008091F200029731F48091F1005A
:101FB000813011F0863021F48091F1008093CD03BF
:101FC0008091E8008B778093E8000E94CB05BACF20
:101FD0008091DA03813A09F0B5CF8091E800877FDC
:101FE0008093E8008091DE039091DF03892B61F4F8
:101FF00068E08EEC93E070E00E9477068091E80044
:102000008B778093E8009ECF60E090E080E0F3CF94
:102010008091D8038111C0CF95CF8091DA03813AA6
:1020200009F090CF8091DE039091DF03892B09F0B6
:1020300089CF8091E800877F8093E8008091E80055
:1020400080FFFCCF809178018093F1008091E800BF
:102050008E77B9CF8091DA03813209F073CF809106
:10206000DE039091DF03892B09F06CCF8091E800AB
:10207000877F8093E8000E94CB058091DC038093EA
:1020800078011092CB030E94790F5CCF8091DA0324
:10209000813209F057CF8091E800877F8093E80074
:1020A0000E94CB058091DD038093CC034BCF8091C0
:1020B000DA03813A09F046CF8091E800877F809368
:1020C000E8008091E80080FFFCCF8091CC03BCCF7A
:1020D000803899F0823809F0C6C18091DE038F7094
:1020E000873008F0C0C18093E9008091EB0085FB48
:1020F000882780F91092E90006C08091D60390915C
:10210000D703911182609091E800977F9093E80047
:102110008093F1001092F1008091E8008E779FC1CA
:10212000882309F48DC1823009F09DC18091DC03C0
:10213000811190C18091DE038F702FEF280F263020
:1021400008F091C18093E9002091EB0020FF82C14B
:10215000933031F48091EB0080628093EB007AC180
:102160009091EB0090619093EB0021E030E001C092
:10217000220F8A95EAF72093EA001092EA008091F4
:10218000EB008860EACF81116EC11091DC031F77EC
:102190008091E3008078812B8093E3008091E800B8
:1021A000877F8093E8000E94CB058091E80080FF44
:1021B000FCCF8091E30080688093E30082E01111FE
:1021C00083E08093D8034FC18058823008F04BC120
:1021D0002091DC033091DD032C3DE3E03E07A1F5C7
:1021E00083E08A838AE289834FB7F894DE011396ED
:1021F00020E03EE051E2E32FF0E050935700E491FD
:1022000020FF03C0E295EF703F5FEF708E2F90E0EC
:10221000EA30C0F0C7968D939D932F5F243159F714
:102220004FBF8091E800877F8093E8006AE270E00A
:10223000CE0101960E9477068091E8008B7780930B
:10224000E80011C1C096E7CF8091DE039091DF03D3
:10225000432F55274330510509F44AC078F54130E2
:10226000510509F47AC08BE590E0E0EAF4E04230F1
:10227000510509F0F8C02091E800277F2093E8007D
:102280002091E0033091E1038217930708F49C0149
:1022900040E02115310509F065C0411163C080910E
:1022A000E80082FDC9CF8091D803882329F28530C8
:1022B00019F28091E80083FFF2CFBECF4132510581
:1022C00009F43CC04232510509F0CDC0833091057C
:1022D00008F0C9C0FC01EE0FFF1FEA56FE4F019047
:1022E000F081E02D8D569E4FDC018C9190E01AC05C
:1022F000332721303105D1F02115310561F022302D
:10230000310509F0B0C0EDE0F5E0E4918E2F90E0EA
:10231000EDE0F5E007C0E5E3F5E0E4918E2F90E015
:10232000E5E3F5E0009709F49EC0A5CFE1E2F5E012
:10233000E4918E2F90E0E1E2F5E0F4CF8330910557
:1023400008F091C0880F991FFC01E456FE4F0190E0
:10235000F081E02D89E090E08ECF82E190E0EBEF1C
:10236000F4E089CF8091D803882309F465CF8530C4
:1023700009F462CF8091E80083FD5ECF8091E80090
:1023800082FD8DCF8091E80080FF83CF9091F30094
:102390008091F2002115310519F08830910550F037
:1023A00041E0089709F040E08091E8008E77809343
:1023B000E8006FCF44914093F100319621503109EC
:1023C0000196E8CF803809F04EC08091E800877F01
:1023D0008093E8008091D9038093F1009DCE811114
:1023E00042C01091DC031230F0F58091E800877F45
:1023F0008093E8001093D9030E94CB05112311F0BC
:1024000084E005C08091E30087FDFACF81E08093EE
:10241000D80342E061EC81E00E94EA0542E261EC0F
:1024200084E00E94EA0542E261EC82E00E94EA0553
:1024300042E260EC83E00E94EA058091D80313C079
:102440008091DC03813079F481E0933009F080E001
:102450008093D7031092E9008091E800877F8093F2
:10246000E8000E94CB058091E80083FF0AC08091BC
:10247000E800877F8093E8008091EB008062809382
:10248000EB00AA96E3E00C9476311092CB030E9405
:10249000790F2FEF84E39CE0215080409040E1F7DA
:1024A00000C0000088E19AE00FB6F894A8958093E8
:1024B00060000FBE90936000FFCF882321F00E9440
:1024C000FA090E943C0F0895882339F09091CB03BC
:1024D000982B9093CB030E943C0F0895882349F1D9
:1024E0009CEF980F913A80F4E6EAF1E02CEA31E0B3
:1024F0009191891303C0DF0111971C922E173F079A
:10250000B9F70E943C0F089590E2980F983050F46C
:10251000877091E001C0990F8A95EAF7892F0E9490
:10252000FA09EFCF93E3980F933118F460E00E941B
:10253000650E08950F931F93CF93C82F882341F101
:102540008CEF8C0F813AB0F506EA11E08CEA91E04D
:10255000F8012191C21701F18E179F07D1F7EFEF14
:1025600080E0D8019D918D01C91781F0EF3F19F4EA
:10257000911101C0E82F8F5F863099F7EF3F31F05E
:102580000E2E000CFF0BEC55FE4FC2830E943C0F39
:10259000CF911F910F910895E6EAF1E02191C213C6
:1025A00003C0DF0111971C928E179F07B9F70E9495
:1025B0003C0FD5CF80E28C0F883068F4C77021E0E3
:1025C00030E001C0220FCA95EAF78091CB03822B3D
:1025D0008093CB03DBCF83E38C0F8331C8F661E0BC
:1025E0008C2F0E94650ED4CF1F93CF93DF93182FAB
:1025F000EB010E949A128FE99FE00197F1F700C06A
:1026000000002197C1F7812F0E946E12DF91CF91B8
:102610001F9108950F931F93CF93DF93EC01FC015B
:1026200001900020E9F78F0101501109C017D1076F
:1026300028F0DF91CF911F910F91089589910E9409
:102640007C0EF4CFCF93DF93C9E3D3E060E0CE01FB
:102650000E9443322196C11584E0D807B9F7DF9173
:10266000CF9108951F93CF93DF93122F8430E0F41E
:102670006C30D0F44830C0F490E1699FE00111243F
:1026800050E0440F551FC40FD51F90EC899FC00D1B
:10269000D11D1124632FCE01C9960E944332612FB0
:1026A000CE01CA960E944332DF91CF911F910895C7
:1026B000EF92FF920F931F93CF93DF93C0E080EED2
:1026C000E82E83E0F82ED0E01CC0402F21E030E05F
:1026D000C11108C0F801EE0FFF1FEE0DFF1D85911F
:1026E00094919C016D2F8C2F0E9432130F5F1F4F0E
:1026F0000830110551F7DF5F80E1E80EF11CDC3096
:1027000019F010E000E0E1CFCF5FC430C1F6CDB7E3
:10271000DEB7E6E00C94733188E390E00E94433228
:102720000895CF93C82F6FEF811163E285E390E0A6
:102730000E9443326FEFC11161E086E390E00E9496
:1027400043326FEFC11166E187E390E00E944332AC
:10275000CF91089580E00E94911360E070E0CB017A
:102760000E948C130E9458130E94221381E00E9441
:10277000911308950F931F93CF93DF93843030F517
:102780006C3020F5483010F520E1629F8001112463
:1027900050E0440F551F040F151F30EC839F000DB0
:1027A000111D1124C801C9960E941F32C82FD0E004
:1027B000DC2FCC27C801CA960E941F329E01282B0D
:1027C000C901DF91CF911F910F91089590E080E0B2
:1027D000F8CF462F7C3040F4683030F4843020F459
:1027E000672F0E94BA13089590E080E00895CF9279
:1027F000DF92FF920F931F93CF93DF936C010091B1
:1028000076038091F601082BC3E0D0E010E0FC2EA7
:10281000C8010C2E02C0959587950A94E2F780FDB9
:102820000CC02197A0F7F12C8F2DDF91CF911F9134
:102830000F91FF90DF90CF900895B6018C2F0E94EA
:10284000E9130E94FC08019761F3EECFCF93DF9369
:10285000EC010E94F713BE010E94E9130E94FC08DC
:10286000DF91CF910895FC0124812223C1F0808162
:1028700091810E94261492959F70963091F058F4A1
:10288000925F9F70923058F4803F19F030F4883E88
:1028900030F481E008959A5FF4CF843FD1F380E073
:1028A0000895883EB0F3813FD1F7F3CFA6E0B0E0C2
:1028B000ECE5F4E10C945A3149835A8349815A81F9
:1028C0009923A1F0222391F0CA010E94F713182F37
:1028D000682F89819A810E943F0A69817A81812FBC
:1028E0000E94E9132696E3E00C947631CA010E9417
:1028F0000B0A182FF2CF88E390E00E941F32682F56
:1029000070E090E080E0089585E390E00E941F323F
:10291000833289F486E390E00E941F32813059F4BB
:1029200087E390E00E941F3291E0863109F090E049
:10293000892F8170089580E0FCCFB0E0A0E0E3EA49
:10294000F4E10C9455316C017B0164E670E088E79A
:102950000E94952E8C01E601EC0CFD1C17FD0BC0AE
:10296000FE01849164E670E00E94012F8C012196A3
:10297000CE15DF0599F70E94772F81E0011511052B
:1029800009F080E0CDB7DEB7E8E00C9471318091BA
:10299000BF039091C203911103C091E0892708956C
:1029A000882369F062E070E081E393E00E949D1467
:1029B000811103C08091BF0308951092BF038091DD
:1029C000BF03EBCFCF93C091BF038091C203882395
:1029D000D1F00E94EB06605A75418F4F9F4F609374
:1029E000BB037093BC038093BD039093BE03C111DE
:1029F00008C062E070E08FE293E00E949D148111B4
:102A000005C0C091BF038C2FCF91089581E08093C2
:102A1000BF03F7CFB0E0A0E0E0E1F5E10C94513165
:102A200049015A016B017C010E941A078401A4012B
:102A30006A2D7B2D88E090E00E94553294014A2D4A
:102A40005B2DB601C70100E20E94D831622F84E2FB
:102A500090E00E944332CDB7DEB7ECE00C946D31CC
:102A6000A3E0B0E0E6E3F5E10C945731F82E062F31
:102A7000142FE22E80916A0380FF42C090916B0375
:102A80009F1108C090916C03961304C090916D0340
:102A9000941729F090917403926090937403E82F37
:102AA000E695F0E0E857FE4F9081909372038E7F99
:102AB000823081F4412F153608F044E69E012F5FE5
:102AC0003F4F602F8F2D0E9430074B8169818A8193
:102AD0000E94B90CF0926B0300936C0310936D038A
:102AE000EE2071F020916A0360916E0370916F0384
:102AF0003F2DA80180917003909171030E940A15E7
:102B00002396E6E00C947331EAE6F3E043812AE091
:102B1000421B08F440E021E0628181810E9430156F
:102B20000895EAE6F3E043812AE0420F08F44FEF0C
:102B300021E0628181810E9430150895EAE6F3E088
:102B4000628121E1621B08F460E021E04381818120
:102B50000E9430150895EAE6F3E0628121E1620FF8
:102B600008F46FEF21E0438181810E9430150895C0
:102B7000EAE6F3E0818121E04381628181510E9494
:102B800030150895EAE6F3E0818121E04381628116
:102B90008F5E0E943015089580916E03882319F08E
:102BA000815080936E0320916A0330916B034091B2
:102BB0006C0350916D0360916E0370916F0380916F
:102BC0007003909171030E940A15089580916E031D
:102BD000833018F48F5F80936E0320916A033091E5
:102BE0006B0340916C0350916D0360916E03709183
:102BF0006F0380917003909171030E940A150895EC
:102C0000EAE6F3E083E0808311828FEF828384E63B
:102C100083831482A2E7B3E012968C9112978360AB
:102C200012968C93758123E030E04FEF54E660E01C
:102C3000868197810E940A15089590916D0292FBFA
:102C4000222720F9281779F080FB92F990936D02E2
:102C500060916C0270916D0284E090E00E9461329C
:102C600082E00E94A50A089590E080E00E942D3243
:102C7000863E9E4F19F40E948414089580E00895C2
:102C8000B0E0A0E0E6E4F6E10C9456317901C82FFB
:102C9000880FDD0B41155105A9F0FE0193E0EE0F01
:102CA000FF1F9A95E1F7E55FFE4F81819281865083
:102CB0009E4F208130E04217530708F49A01A90182
:102CC0000E941632CE010E94C130D82E8823D1F046
:102CD00001151105B9F083E0CC0FDD1F8A95E1F7EE
:102CE000FE01E55FFE4F438150E00417150708F42D
:102CF000A801C55FDE4F6C817D8166507E4FC701A4
:102D00000E9416328D2DCDB7DEB7E7E00C947231FC
:102D1000A5E0B0E0EEE8F6E10C9453318D83E62EA9
:102D20005A01F22E6801809127068A3028F080E04F
:102D30002596EAE00C946F318D818830C4F31A82B5
:102D400019828A836B832C8363E070E0CE01029644
:102D50000E94F7068983E0923301F092460110E069
:102D600000E030E020E044E050E0BE016F5F7F4FC4
:102D700084E00E9440168823D1F24E2D50E030E0CE
:102D800020E0B50185E00E944016882381F230E002
:102D900020E041E050E0BE016B5F7F4F86E00E9483
:102DA0004016882321F20F2D10E0960150E040E0FC
:102DB00070E060E087E00E944016BACFABE0B0E080
:102DC000E4EEF6E10C94593188E0EAE6F3E0DE0146
:102DD000119601900D928A95E1F78091720390917E
:102DE0007303A091740389879A87AB872B854091E1
:102DF00062025091630260916402709165023FB774
:102E0000F8948091C6039091C703A091C803B09134
:102E1000C9033FBF841B950BA60BB70B84369105E6
:102E2000A105B10510F42223C1F010E000E030E06C
:102E300020E04BE050E0BE016F5F7F4F83E00E94D7
:102E40004016882369F00E94EB066093620270933B
:102E5000630280936402909365021092740381E090
:102E60002B96E4E00C947531A4E0B0E0EAE3F7E1DE
:102E70000C94593140915E0250915F026091600262
:102E8000709161022FB7F8948091C6039091C703A7
:102E9000A091C803B091C9032FBF841B950BA60B4B
:102EA000B70B11E084369105A105B10518F10E9418
:102EB000500D6E5F7F4F8F4F9F4F69837A838B8357
:102EC0009C8310E000E030E020E044E050E0BE01F0
:102ED0006F5F7F4F82E00E944016182F882351F0C9
:102EE0000E94EB0660935E0270935F028093600223
:102EF00090936102812F2496E4E00C947531A7E051
:102F0000B0E0E5E8F7E10C9457317B0101E010E017
:102F10009E01295F3F4F50E040E070E060E080E0BC
:102F20000E944016182F882309F453C040915A027A
:102F300050915B0260915C0270915D022FB7F89432
:102F40008091C6039091C703A091C803B091C903B3
:102F50002FBF841B950BA60BB70B84369105A105DB
:102F6000B10548F466E070E08BEF91E00E94F7064F
:102F70009F81891771F106E010E09E012F5F3F4F9E
:102F800050E040E070E060E081E00E944016082FD1
:102F900066E070E08BEF91E00E94F70611E09F8100
:102FA000981310E0102301F10E94EB0660935A027F
:102FB00070935B0280935C0290935D0286E0FE0159
:102FC0003196A4E5B2E001900D928A95E1F711E007
:102FD0000BC086E0EBEFF1E0DE01119601900D925F
:102FE0008A95E1F71111EACF86E0E4E5F2E0D70136
:102FF00001900D928A95E1F7812F2796E6E00C94D7
:1030000073310E946A0D80930A0180910A0188231E
:1030100059F010926B0180E280936C010E941A0DAE
:1030200081110E94D52F089580E280936B01F4CF27
:10303000A8E0B0E0EEE1F8E10C945B3166EE7EEFE3
:1030400090E080E00E94613260E082E090E00E94C7
:10305000433260E083E090E00E9443321092F60138
:1030600060E074E184E090E00E94613260E086E01C
:1030700090E00E9443326FEF87E090E00E9443327D
:1030800040E050E0BA0188E090E00E94553260E0F4
:1030900084E290E00E94433260E087E190E00E9489
:1030A000433260E08CE090E00E94433260E08DE0CB
:1030B00090E00E94433219821A821B821C821D8278
:1030C0001E821F82188648E050E068E170E0CE0161
:1030D00001960E94333240E050E0BA0180E290E075
:1030E0000E94553280E00E9491130E94AA1340E092
:1030F00050E0BA018FE090E00E94553240E050E08D
:10310000BA0183E190E00E9455322896E2E00C94E7
:10311000773128E030E043E060E087EF0E94BD2D8A
:103120000895ACE0B0E0E7E9F8E10C9455314F8345
:10313000588769877A878B879C8780917703882354
:1031400099F00E94891880E50E94352E2AEB2A9575
:10315000F1F700C00E944D2E88789927803891059C
:1031600009F484C00E94652E0E941A0D882309F478
:1031700068C00E94EB060091BB011091BC01209138
:10318000BD013091BE016B017C01C01AD10AE20A77
:10319000F30A97018601083011052105310508F46D
:1031A00050C06093BB017093BC018093BD019093AC
:1031B000BE01009185031091860320918703309111
:1031C0008803601B710B820B930B623371058105C1
:1031D000910580F410927B0310927A0310927D0384
:1031E00010927C0310927F0310927E031092810351
:1031F00010928003109184030E946A0D112309F438
:1032000062C0BE01695F7F4F8AE793E00E94DC0ADB
:1032100000918403109177030E946A0D011709F44D
:103220007CC0BE01695F7F4F8EE793E00E94DC0A9D
:1032300086E0FE013796A3E9B3E001900D928A95EE
:10324000E1F786E0FE013796DE01119601900D92BE
:103250008A95E1F729813A814B815C816D817E817C
:1032600080E090E02C96E8E00C9471310E944D2EA5
:103270000E944D2E7C010E944D2E20E0E22AF82A69
:103280000E944D2E8C010E944D2E20E0022B182B07
:103290000E94652EF894B70180917A0390917B0388
:1032A0000E94A90B90937B0380937A03B8018091CD
:1032B0007C0390917D030E94A90B90937D038093E2
:1032C0007C03789451CF80917A0390917B0381386D
:1032D0002FEF9207D4F080389105CCF4819589873F
:1032E00080917C0390917D0381382FEF92078CF0C1
:1032F0008038910584F48A8710927B0310927A03B8
:1033000010927D0310927C0383CF81E8E7CF8FE793
:10331000E5CF81E8F0CF8FE7EECF80917E039091EB
:103320007F0381382FEF9207D4F080389105CCF4D9
:1033300081958987809180039091810381382FEF57
:1033400092078CF08038910584F48A8710927F036D
:1033500010927E03109281031092800369CF81E85E
:10336000E7CF8FE7E5CF81E8F0CF8FE7EECFCF93C0
:10337000DF93D82FC62F0E9489188D2F80680E9456
:10338000352E8C2F0E94352E0E94652E8FEC92E0F8
:103390000197F1F700C00000DF91CF910895682FE9
:1033A000893708F068E76093820391E09093830384
:1033B00090917703992359F06150811101C064E025
:1033C0008FE00E94B71960E080E50E94B719089568
:1033D000FB0180810E94CF19089590918203911181
:1033E00001C095E0282F880F330BA901490F511D0B
:1033F000CA011816190614F081E090E00E94CF1956
:103400000895CF93C82F0E9489188C2F0E94352EC3
:103410008FE792E00197F1F700C000000E944D2E67
:10342000C82F0E94652E9AE69A95F1F700C08C2F5E
:10343000CF910895CF93DF930E94B52D879A0E9474
:1034400089186AE58AE30E94B7192FEF80E792E0B6
:10345000215080409040E1F700C0000082E00E94CF
:10346000011A83E00E94011A84E00E94011A85E09B
:103470000E94011A86E00E94011A60E080E10E9429
:10348000B71980E00E94011AD82F81E00E94011A2A
:10349000C82F0E94652ED23419F481E0C13009F0A2
:1034A00080E0817080937703882341F064E08FE0AF
:1034B0000E94B71960E080E50E94B719DF91CF91B3
:1034C00008951F920F920FB60F9211242F933F93DE
:1034D0004F935F936F937F938F939F93AF93BF931C
:1034E000CF93DF93EF93FF93D091E900DF7080914A
:1034F000EC00C82FC17080FDC0E81092E9008091F7
:10350000F000877F8093F00078940E94850F1092DE
:10351000E9008091F00088608093F000CD2BCF709F
:10352000C093E900FF91EF91DF91CF91BF91AF91EF
:103530009F918F917F916F915F914F913F912F91CB
:103540000F900FBE0F901F9018951F920F920FB6FD
:103550000F9211242F933F934F935F936F937F9319
:103560008F939F93AF93BF93EF93FF938091E1006D
:1035700082FF09C08091E20082FF05C08091E100D6
:103580008B7F8093E1008091DA0080FF24C08091DE
:10359000D80080FF20C08091DA008E7F8093DA000F
:1035A0008091D90080FF9DC080E189BD82E189BD05
:1035B00009B400FEFDCF81E08093D8038091CA0357
:1035C000811109C00E947B050E941C068091E200C7
:1035D00084608093E2008091E10080FF17C08091B9
:1035E000E20080FF13C08091E2008E7F8093E200B2
:1035F0008091E20080618093E2008091D800806237
:103600008093D80019BC85E08093D8038091E100B5
:1036100084FF2BC08091E20084FF27C080E189BD38
:1036200082E189BD89B5982F917080FFFBCF809191
:10363000D8008F7D8093D8008091E1008F7E8093A9
:10364000E1008091E2008F7E8093E2008091E200B1
:1036500081608093E2008091D903882309F447C0F8
:1036600084E08093D8038091D8038091E10083FFA8
:1036700027C08091E20083FF23C08091E100877F13
:103680008093E10082E08093D8031092D903809167
:10369000E1008E7F8093E1008091E2008E7F809335
:1036A000E2008091E20080618093E20042E060E00D
:1036B00080E00E94EA058091F00088608093F0002D
:1036C000FF91EF91BF91AF919F918F917F916F91FA
:1036D0005F914F913F912F910F900FBE0F901F90D0
:1036E000189519BC1092D8031092CA0374CF809118
:1036F000E30087FD93E09093D803B5CF78941F92B1
:103700001FB61F9211248F939F93AF93BF93809105
:10371000C6039091C703A091C803B091C903019655
:10372000A11DB11D8093C6039093C703A093C80346
:10373000B093C903BF91AF919F918F911F901FBE0E
:103740001F9018959C014FB7F8948091C6039091F3
:10375000C703A091C803B091C9034FBF821B930B4D
:1037600008952FB7F8948091C6039091C703A09154
:10377000C803B091C9032FBF08952F923F925F9263
:103780006F927F928F929F92AF92BF92CF92DF9271
:10379000EF92FF920F931F93CF93DF938091C20319
:1037A000882309F4CAC08091C0039091C1030E948C
:1037B000A21BC29708F4A2C00E94B11B9093C10340
:1037C0008093C0038FE194E09093260680932506B2
:1037D0000E941A0D882309F4C8C085E393E00E9473
:1037E000FC0E809176030E94CB0A0E94770B0E9408
:1037F0007C0E83E393E00E94FC0E81E00E940A0F9E
:10380000C0918F038EE793E00E94FC0E809192039B
:103810000E94770B0E947C0E8AE793E00E94FC0EC8
:10382000809191030E94770B0E947C0ECC2309F4B7
:1038300096C087E793E00E94FC0E8C2F82958F70D4
:103840000E94770B0E947C0E8C2F0E94770B0E94A7
:103850007C0E8CEF8C0F853308F081C083E793E0FA
:103860000E94FC0E8C2F8450990BFC01E25CFC4FF3
:1038700084910E947C0E8AE993E00E94FC0E809164
:1038800095030E947E0B0E940A13809196038195F6
:103890000E947E0B0E940A13809198030E947E0B67
:1038A0000E940A138091970381950E947E0B0E94CB
:1038B0000A1381E993E00E94FC0E8091820381113A
:1038C00001C085E00E947E0B01960E940A138BE8DE
:1038D00093E00E94FC0E80918403811144C080E338
:1038E0000E947C0E87E893E00E94FC0E8091890381
:1038F000811101C084E0805D0E947C0E80911D04D6
:1039000090911E04892BB1F58091BF038823A9F003
:103910000E94EB060091BB031091BC032091BD03F4
:103920003091BE03601B710B820B930B6F3F7F4F77
:103930008F4F9F4710F40E94C714DF91CF911F91C2
:103940000F91FF90EF90DF90CF90BF90AF909F903E
:103950008F907F906F905F903F902F90089581E0BF
:103960000E940A0F88CF81E3BBCF80EA93E00E94D8
:10397000FC0EC4CF8091C203882331F28091BA0338
:103980008111C2CF0E94E21420911D0430911E04C7
:103990002115310509F4B8CF80E041E050E0082F4F
:1039A00010E01A01082E02C0220C331C0A94E2F720
:1039B000B10162237323672B11F48F5FF0CF9091D5
:1039C000B90390FF95C0880F880F880F809373010B
:1039D00010927601895F8093740183E08093770170
:1039E00024E630E047E050E061E771E088E70E94BC
:1039F0002F2F892B09F088CFA80125E0440F551FF0
:103A00002A95E1F78091B90380FF84C0E9E9F3E0EA
:103A100080E2DF011D928A95E9F7AFE8B1E00BE89B
:103A200011E083E9C82E81E0D82E97E0592E772443
:103A300073948D91E80129918E01240F352F311D4A
:103A4000215E3B4FE82FF0E0E756FC4F90E080E02E
:103A5000652C681A872C082E01C0880C0A94EAF796
:103A60007901A12CE701B9907E01B820662D6A1971
:103A70006770962E062E000C770BDB2D01C0DD0F34
:103A80009A94EAF77195619571096770772701C07B
:103A9000B6946A95EAF7BD2A6081962E9B2890829B
:103AA000A39468E0A612DECF019631968830910586
:103AB00079F6CA16DB0609F0BCCF04E610E020E276
:103AC00030E049E953E060E488E70E94502F892BF9
:103AD00009F01ACFE101C095D09580911D04909115
:103AE0001E04C823D923D0931E04C0931D040CCFF9
:103AF0008295880F8076809373019801369527957B
:103B00003695279520937601815E809374012093EA
:103B1000770166CF415E5B4F04E610E020E230E0C3
:103B2000D2CF0E941A0D882319F00E94B11B08956C
:103B30000E94500DCB01089560916A03669570E074
:103B400041E050E080E791E00E94FC31892B19F4BC
:103B500081E0809373030E94911D9093650380938D
:103B6000640380917403846080937403089590913A
:103B70006A0390FF39C09170811137C092609093B1
:103B80006A0380917403816080937403662391F0CB
:103B900020916A0330916B0340916C0350916D0347
:103BA00060916E0370916F03809170039091710327
:103BB0000E940A1560916A03669570E041E050E04A
:103BC00080E791E00E94FC31892BB1F00E9413073D
:103BD00081E08093670320E040916D0360916C0366
:103BE00080916B030E9430150895833010F094602B
:103BF000C6CF880F982BC3CF0E949C1DE9CFEAE661
:103C0000F3E080818160808360E086950E94B71D2B
:103C1000089580916A038695815009F482E061E0FD
:103C20000E94B71D089580916A0386958F5F833047
:103C300008F081E061E00E94B71D0895A8E0B0E0BF
:103C4000E4E2FEE10C944D318C01DC0114968C9180
:103C50001497882309F4BEC021E04C9111965C9121
:103C6000119712966C91129713967C911397159653
:103C70009C910E9456147C01F8018581882309F4E7
:103C80006AC1C70197578038910508F064C1FFE009
:103C9000FE1508F48FC08FEF93E00E941F32811150
:103CA00089C069E3A62E63E0B62EE1104DC0FE0187
:103CB000339686E0DF011D928A95E9F75AE0452E9A
:103CC0007501BFEFEB1AFB0AC5010E941F32898301
:103CD0001A82882309F46EC0813009F07FC0650123
:103CE000E2E0CE0ED11CC7010E941F328A838823D6
:103CF00009F460C09FEF980F9330A0F5F3E0AF0E8A
:103D0000B11CC6010E941F328B83882309F452C064
:103D10001C82DE0111967D01F7012081222381F2B0
:103D2000213009F0BAC091818281913009F058C0E8
:103D3000F2E0EF0EF11C65E070E0893311F460E50C
:103D400070E00E94F41253C0A11424E0B20691F175
:103D5000C5010E941F32811101C0EA943FEFA31AEE
:103D6000B30AA3CF56018430A1F642E0E42EF12C31
:103D700056012FEFA21AB20AC6010E941F32E1E0DB
:103D8000F0E0EC0FFD1FEE0DFF1D8083882391F006
:103D90008C3741F4E2E0F0E0EC0FFD1FEE0DFF1D6B
:103DA0001082B7CF3FEFE31AF30A650187E0E81608
:103DB000F104F1F68091EB01877061F0D80115965E
:103DC0008C91882339F080916D0282FF03C082E0DC
:103DD0000E94A50A2896E0E10C946931570199CF19
:103DE000923039F522E0E20EF11C0E949A12FFEFA8
:103DF000EF1AFF0A8FE99FE00197F1F700C000007A
:103E0000AFE9BFE01197F1F700C00000EFE9FFE074
:103E10003197F1F700C000008FE99FE00197F1F7BB
:103E200000C00000AFE9BFE01197F1F700C000004B
:103E300073CF933031F432E0E30EF11C0E946E1226
:103E4000D6CF943021F08FEFE81AF80AD0CF92E065
:103E5000E90EF11C30E020E0B7016F5F7F4FD70122
:103E600011964C918053990B8A30910558F021504E
:103E7000310908F4BCCFEFE9FFE03197F1F700C05A
:103E80000000F5CF429EF001439EF00D11249C01ED
:103E90002E0F3F1F842F7B01DFCFE22FF0E0E5578D
:103EA000FE4F5490822F86958695869590E0FC0172
:103EB000E558FE4F64902770712C022E02C0759455
:103EC00067940A94E2F731E063227724FC01E55914
:103ED000FE4F8490912C022E02C0959487940A94F0
:103EE000E2F7A1E08A229924FC01E55AFE4FC49032
:103EF000D12C02C0D594C7942A95E2F7B1E0CB2229
:103F0000DD246114710419F081EE0E949A1281146B
:103F1000910419F086EE0E949A12E9E365E070E0E0
:103F20005E1202C060E570E0852D0E94F4128114DB
:103F3000910419F086EE0E946E126114710419F05A
:103F400081EE0E946E12C114D10409F450CF65E0D5
:103F500070E08CE2F6CEF0929003E0928F03F801CD
:103F6000808191819093920380939103C7019A95E8
:103F700081159F41D0F4F701FF27D80115968C9148
:103F8000E13DF10540F0E93DF10588F0E730BEE79D
:103F9000FB0709F445C0882371F0FE57EA30F105AC
:103FA00050F4ED57FD4C0C94B031F701E6CF682F7B
:103FB0008E2F0E94650EF8018581811155C3809175
:103FC000CB038272F701E052F847E531F10508F0C2
:103FD000A4C0E357FD4C0C94B03180E00E94CF198F
:103FE00010928903E7CE409182035091890350FBE0
:103FF00047F95695537060E070E08FE090E00E94C2
:104000005532D8CE81E00E94ED19D4CE8FEFFBCF90
:104010008AE0F9CF86EFF7CF9091840381E089277A
:104020000E945E0BC7CE80918903811101C084E09C
:104030008F5F18160CF081E0883008F087E08093DD
:104040008903B8CE80918903811101C084E0815039
:10405000F0CF80916A0380FF1EC0282F2E7F20930F
:104060006A0330916B0340916C0350916D03609132
:104070006E0370916F0380917003909171030E94A1
:104080000A150E9413078091740381608093740362
:104090000E946E0C8FCE816080936A0361E08695EA
:1040A0000E94B71D87CE49E05EE163E17EE10E9498
:1040B0000D0780CE43E15EE169E07EE1F8CF48EB99
:1040C00055E162EC75E1F3CF42EC55E168EB75E147
:1040D000EECF4EE955E16BEA75E1E9CF4BEA55E1E8
:1040E0006EE975E1E4CF44E855E161E975E1DFCFC0
:1040F00041E955E164E875E1DACF4CEC55E166EE53
:1041000075E1D5CF46EE55E16CEC75E1D0CF61E0BD
:1041100081E0C6CF61E082E0C3CFF7E7EF16FCE7AE
:10412000FF0609F460C028E7E2162CE7F20609F45E
:104130005EC0F8018581E080F180882309F49FC08A
:10414000C7010E94F713D82E682FC7010E943F0AAB
:10415000B7018D2D0E94E9130E94FC087C01882E76
:10416000D8011596AC90159716969C9092943FE0C6
:1041700093228091EB018770F1F0CA2CAA20E1F024
:104180008F2D807F803451F080E28E0D883098F042
:10419000911004C08F2D807E803269F080916D0275
:1041A00082FF09C082E00E94A50A8091EB0187701E
:1041B000CC24C3948111C12CBF2CB2942FE0B22225
:1041C000BBE0BB1508F4C3C0EB2DF0E0EE55FD4C91
:1041D0000C94B03181E00E94BC0A43E062E081E0CF
:1041E0000E94780AE7CD81E00E94980AF6CF82E02B
:1041F000FBCF33E0E3163CE7F30671F160F4E11422
:104200009CE7F906D1F0A1E0EA16ACE7FA0609F05E
:1042100090CF0E944512BBE5EB16BCE7FB0669F1A7
:10422000ECE5EE16ECE7FE06F1F0FAE5EF16FCE73A
:10423000FF0609F07ECF81E01DC01092CB030E94E3
:10424000790F2FEF34E38CE0215030408040E1F7CC
:1042500000C000000E94DA066FEF7FEF90E080E080
:104260000E946132D6CF80916D0282FB882780F94F
:1042700091E089270E941D165CCF80E0FBCFC7012B
:104280000E940B0AD82E64CFEF2DEF70DE2E8F2DFB
:10429000807F19F0D29490EFD922AA20B9F0DD20C6
:1042A00069F080E28E0D883010F0811009C0809195
:1042B000CB03D82AD092CB030E943C0F8E2D45C051
:1042C0008091F501D82AD092F501F6CF8E2D0E946B
:1042D0006E12DD20E1F180E28E0D883010F0811049
:1042E00004C08D2D0E94FA0906C0D0948091F5017A
:1042F000D822D092F5010E943C0F29C0FF2DFF70FB
:10430000DF2E8F2D807F803219F0D29480EFD8225B
:10431000882059F021E0821609F481C0AA2009F40E
:104320008DC0992009F44FC0C9CF80916D0282FDE4
:1043300046C0AA20F1F1DD2039F08091CB03D82AC4
:10434000D092CB030E943C0F80E00E949A12AB2DCA
:10435000A850BB0B149710F40E943F0DCC20A9F07D
:104360008091EB0180FD11C0F8011582869586953C
:1043700086950E94BC0AC8010E941E1E8091EB0116
:104380008695869586950E94980A20E0D8014C91E2
:1043900011965C91119712966C91129713967C91DD
:1043A000139714968C91149715969C910E9456140D
:1043B00011CD80E00E946E12DD2049F292CFAA203A
:1043C000A1F0911004C08D2D0E946412C0CF31E085
:1043D0009312BDCF8091F4019D2D9823D91609F435
:1043E000B6CFD82AD092F401B2CF9110B0CF8D2D94
:1043F0000E945D129091F4018D2D892329F08D2D5D
:10440000809589238093F4018091BF019D2D98238D
:1044100009F49DCFD094D822D092BF0198CFAA2082
:1044200029F085E0891508F492CFCDCF94E0991555
:1044300008F48DCF8D2D0E945D1289CF9920D1F384
:10444000A9E38A1209C1BFEFE7EEF3E0B150E04003
:10445000F040E1F700C000008E2D0E946E1277CF71
:104460006A2D8E2D0E94650E72CF8F2D837091F56F
:10447000A1106DCF4E2D429546954770440F440FC5
:104480008E2D8F70042E01C0880F0A94EAF72E2D0E
:104490002071E4FE07C02FE030E001C0220F4A95F2
:1044A000EAF720953F2D369536953370323069F016
:1044B00050F44091F601313029F0822B84230E9480
:1044C000C80A45CF842B822BFACF282B8091F60186
:1044D0008227F5CF8695AA2011F08F2D8170882331
:1044E00009F435CF4E2D429546954770440F440F41
:1044F0008E2D8F70042E01C0880F0A94EAF72E2D9E
:104500002071E4FE07C02FE030E001C0220F4A9581
:10451000EAF720953F2D369536953370323069F0A5
:1045200050F440917603313029F0822B84230E948D
:10453000750A0DCF842B822BFACF282B809176031E
:104540008227F5CF9F2D9F70F92EAA2029F0892F61
:104550000E94BC0A8E2D38CF8E2D0E945D128F2DA9
:104560000E94980AF4CE8E2DA2EF8A16B1F1A815FA
:1045700070F0B0EF8B16D1F0E1EF8E1691F0AA201B
:1045800009F45EC091109ACE8F2D8F712AC0F3EF7F
:104590008F1651F124EF8212F2CF80916D0282FDCD
:1045A0002FC08F2D8F71AA20D9F21BC0AA2081F0B5
:1045B00034E0391508F4CBCE2F2D2F7181E090E037
:1045C00001C0880F2A95EAF7909176038927AFCF2B
:1045D00085E0891508F4BBCEEFCF8F2D8F71A11028
:1045E000BFCF0E94BC0AB3CE80E0AA2009F49FCFBF
:1045F0009F2D9F7181E001C0880F9A95EAF797CFB0
:10460000AA2099F09F2D9F71F92E892F0E94BC0A34
:1046100080916D0282FF07C0A8E0FA9EC0011124BC
:1046200083608093EB018F2DDCCF81E00E94A50A8F
:10463000B1E0B91508F08BCE82E00E94A50A87CEC2
:10464000992079F0893341F4EFEFF7EE23E0E15060
:10465000F0402040E1F7FECE8FE19EE40197F1F7B4
:10466000F9CE8F2D8F717CCFB7E7EB16BCE7FB0639
:1046700009F4B0CDE8E7EE16ECE7FE0609F0B9CD97
:1046800082E0A9CDCF93DF938091EA01807F09F08A
:104690004DC08091E901882309F448C0E0911B04D2
:1046A0005091E203C091E501D091E4016091E601EF
:1046B0007091E70147E05E17C9F18E2F90E0E49F0B
:1046C000F0011124ED51FC4F2481222391F1489FE8
:1046D000F001499FF00D1124DF01AD51BC4F11963F
:1046E0002C9111972C1325C02C912D1322C01596B7
:1046F0002C91159721111DC012962D913C91261BCE
:10470000370B283C3105A8F48091EA018F70806155
:104710008093EA01E751FC4F80818F708061808334
:1047200084EE91E00E941E1E0E94010ADF91CF914B
:104730000895FC013196E770BECFA4E1B0E0E3EA52
:10474000F3E20C9451318C0186E0F801DE011F96F2
:1047500001900D928A95E1F7F8018481E58094EE4D
:10476000A92E91E0B92E9091E801911128C08823DB
:1047700019F1EE20F1F0C8010E943314F82E8823BD
:10478000C1F087E0F801D50101900D928A95E1F71B
:104790008091E801813031F48091E4019091E5014C
:1047A0000E9426140E9442238F2D6496ECE00C9404
:1047B0006D31C8010E941E1EFF24F394F5CFD080F6
:1047C000C18082809380F090E9012091E6013091D0
:1047D000E701A401421B530BFF2009F4D9C0483C58
:1047E000510508F092C08823F9F29091E50180917B
:1047F000EA01282F207F09F056C0C91214C09091F9
:10480000E401D91210C0E11048C08F70806180931C
:10481000EA0184EE91E00E941E1E8091EA01F801F7
:104820008683F12CC1CFE11038C06C2D8D2D0E94F4
:104830005C056C2D8D2D0E945C05E82E8111F1CF59
:10484000DF86C88A8F8598890E942614292F229591
:104850002F70243058F49F70223088F0992399F0FB
:10486000F8019681907F79F4FE2C9ECF2A5F2F70FD
:10487000223068F0C8010E941E1EEF2CF5CF99234C
:1048800011F0882389F3805E883070F3F3CF803F86
:1048900058F3815F833070F7E7CF8091EA01816040
:1048A0008093EA01BECFC91207C09091E401D912EA
:1048B00003C0EE2009F48DC0C8010E943314882380
:1048C00009F477CFEE2009F474CF8091EA018032A9
:1048D00088F02091E4013091E501398728879B8693
:1048E0008A869091E8019C871D868E87CE01089666
:1048F0000E941E1E87E0F801A4EEB1E001900D9227
:104900008A95E1F70E94422357CF9091EA01292F1F
:10491000207F51F484EE91E00E941E1E87E0F50195
:1049200011928A95E9F77DCF882309F43DCF8091D4
:10493000E5018C1110C08091E401D8120CC0E11087
:104940000AC09683C8010E941E1E87E0F5011192DD
:104950008A95E9F729CFC8010E943314882309F406
:1049600028CFEE2009F425CF8091EA01803210F2A1
:104970002091E4013091E5013A8329839C828B8266
:104980009091E8019D831E828F83CE010196B0CF66
:10499000483C5105D0F6882309F40ECFFE2CEE20BA
:1049A00009F407CF8091E5018C1120C08091E401CA
:1049B000D8121CC08091EA0180FD0FC0982F907F13
:1049C00061F08683903F31F0982F907F905F8F70D9
:1049D000892B8683C8010E941E1E87E0F801A4EE81
:1049E000B1E001900D928A95E1F7DECEC8010E94F8
:1049F000331481117FCF8091EA0181608093EA01B5
:104A0000C8010E941E1ED0CEABE1B0E0EAE0F5E2A4
:104A10000C9459314E8B5F8B688F798F8A8F9B8F67
:104A2000192F91111092F5011D8A86E0FE017696EC
:104A3000DE011F9601900D928A95E1F70A8D002301
:104A400041F021E04F85588969897A89C8010E941F
:104A500056140B8B1C8B87E0FE013F96DE011896E7
:104A600001900D928A95E1F7CE0108960E949D2350
:104A700081110CC087E0FE013896DE01119601908D
:104A80000D928A95E1F78C8581110BC017E080911A
:104A90001B049091E203891333C06B96E4E00C94FD
:104AA00075312091E20330E0C901019687709927A2
:104AB00040911B044817190699F097E0929FD00186
:104AC000939FB00D1124AD51BC4FFE013196019062
:104AD0000D929A95E1F78093E2030E94010AD6CFE6
:104AE0001092CB030E94790F1092E20310921B04E4
:104AF00087E0E4EEF1E0DF011D928A95E9F7C6CF89
:104B0000819FC00111248D519C4F0E949D238823B9
:104B100021F280911B0490E0019687709927809381
:104B20001B04B5CFA6E0B0E0E8E9F5E20C945931FA
:104B30000E94B11B8C018091F7019091F8018017C0
:104B4000910781F019821A820E94B11B682F498156
:104B50005A81792F80E090E00E9404251093F8019B
:104B60000093F7012696E4E00C947531ABE0B0E0D9
:104B7000ECEBF5E20C944D3146E0642E41E0742EEE
:104B800058E2E52E56E0F52E60E0C62E61E0D62E06
:104B9000512C88248394912CD6018D916D010E9413
:104BA000BC0B00C0F701408036E0A32E31E0B32EED
:104BB000F50110E000E04191A42FA295AF70B0E0A4
:104BC00090968C919401002E01C0220F0A94EAF76E
:104BD00090E04F7002C0959587954A95E2F780FD69
:104BE00092C0422A0F5F1F4F0430110521F7F601D2
:104BF000319780810E94D00BF0EAFA95F1F7D70146
:104C00008C91841519F04C9255245394BFEFEB1AF4
:104C1000FB0AE6E0CE16E1E0DE0609F0BDCFEE24A9
:104C2000E394F12CD5018D915D010E94BC0B00C075
:104C3000C701002E01C0880F0A94EAF7782FE8E236
:104C4000F6E090E0C92E91E0D92E682F6095D6014C
:104C50002D916D01822F82958F7090E0DC019096EE
:104C60008C91AF01308190E02F7002C095958795AF
:104C70002A95E2F780FD4AC0872F832B80833196E7
:104C8000DA018C91381711F0552453946C147D047B
:104C9000F1F6F501319780810E94D00BB0EABA9508
:104CA000F1F70F5F1F4F0830110509F0BBCF0091DE
:104CB0006B02552071F181E08093AE010E94B11B1F
:104CC0009093AD018093AC018091AC019091AD01C6
:104CD0000E94A21B059708F110E000581D4F46E006
:104CE00050E068E276E0C8010E940932892B41F069
:104CF00086E0E8E2F6E0D80101900D928A95E1F7AE
:104D00001092AE010AC0209542226CCF862F8323D9
:104D1000B5CF8091AE018111D7CF0E941A0DF82E28
:104D2000E0916B02811186C0F0E0E058FD4F86E013
:104D3000ABEFB1E001900D928A95E1F766E070E08B
:104D40008BEF91E00E94F7068093FA01C090010278
:104D5000D0900202E0900302F09004028091AF0133
:104D60009091B001A091B101B091B201C816D906DD
:104D7000EA06FB06D1F0C092AF01D092B001E092FA
:104D8000B101F092B2010E941A0D81110EC00E9471
:104D9000EB06C61AD70AE80AF90AC0926602D09250
:104DA0006702E0926802F09269028BE0E5E0F2E0CF
:104DB000DE01119601900D928A95E1F7809105022E
:104DC0008695F0900602E0900702D09008020091CC
:104DD0000E0210910F0210920F02112301F110FF29
:104DE0000BC0998190FF20C090916A0391609093CD
:104DF0006A0360E00E94B71D11FF06C020E04D2D40
:104E00006E2D8F2D0E94301512FF04C0002379F003
:104E10000E949C1D13FF03C081E080936703852DD2
:104E20002B96E0E10C9469310E940B0DE5CF0E94B6
:104E30001307F0CF2EE236E086E0D9011D928A9565
:104E4000E9F70E2F10E000581D4F809127068A3099
:104E5000A8F56FE777E1C8010E94E50B882309F404
:104E600049C064E377E1C8010E94E50B882309F497
:104E700041C06EED76E1C8010E94E50B8823D1F1B7
:104E80001092270681E08093B50100916A0210E03C
:104E900000581D4F46E050E06EE276E0C8010E94E7
:104EA0000932892B09F4BBCF86E0EEE2F6E0D801A7
:104EB00001900D928A95E1F75F2CB1CF8091B301FB
:104EC0009091B4010E94A21B843F914010F6809102
:104ED000B501882309F4A3CF1092B501E0916A02CD
:104EE000F0E0E058FD4F96E0DF011D929A95E9F75A
:104EF000582E95CF809127068F3F31F08F5F80939A
:104F000027068A3008F4BECF0E94B11B9093B401EB
:104F10008093B301DCCF1F921FB61F9211248F9391
:104F20009F93AF93BF938091C503811113C080916C
:104F3000C6039091C703A091C803B091C9034196DD
:104F4000A11DB11D8093C6039093C703A093C8030E
:104F5000B093C903BF91AF919F918F911F901FBED6
:104F60001F901895CDB7DEB7A6970FB6F894DEBFA1
:104F70000FBECDBF85B7806885BF85B7806885BF08
:104F800084B7877F84BF0FB6F894A895809160009E
:104F9000886180936000109260000FBE80E890E00E
:104FA0000FB6F89480936100909361000FBE8AED74
:104FB00097E09093A3018093A2010E947B050E9439
:104FC0001C068091E20084608093E20078948091D6
:104FD000D8038823A1F01091E9001F709091EC0094
:104FE000892F817090FD80E8182B1092E900809144
:104FF000E80083FD0E94850F1F701093E90082E096
:1050000084BD93E095BD9AEF97BD80936E0010929A
:1050100066021092670210926802109269020E9462
:105020008414811102C00E94AA130E940118809169
:105030000A010E940118809106010E94D00B809104
:1050400007010E94D00B809108010E94D00B809133
:1050500009010E94D00B00E011E066E0E62E61E05D
:10506000F62ED8018D918D010E94D00BE016F1062D
:10507000C1F780910A0196E0811190E090936B0254
:1050800086E0891B80936A020E941A0D811102C07A
:105090000E94D82FE8E2F6E084E396E0A0E8B2E0D0
:1050A00011921D928E179F07D9F70E943416811115
:1050B00002C00E94181882E090E00E941F32809384
:1050C0006F0284E090E00E942D3290936D028093F5
:1050D0006C020E94B625EFE3FCE93197F1F700C0BE
:1050E00000000E94B6258091800280FF08C06FEF0B
:1050F0007FEF90E080E00E9461320E94DA0683E058
:1051000090E00E941F320E94C80A0E941A0D882354
:1051100009F490C180E08093B90380E880931C0477
:105120000E948F2E6BE070E082E292E00E949D145C
:105130008823E9F18091B90365E070E081FD7CC1CD
:105140008DE192E00E949D14882389F16DE070E06A
:105150008BE092E00E949D14882349F10E94EB06A7
:10516000605A75418F4F9F4F6093BB037093BC0390
:105170008093BD039093BE03EFE1F4E080E092E002
:10518000DF019C011D9221503040E1F7F09326068B
:10519000E09325068FEF9FEF90931E0480931D04EC
:1051A00081E08093C2038093BF031092BA03809181
:1051B0006E02811178C00E943416811104C00E94D1
:1051C00018180E94001688E090E00E9427324B01D8
:1051D0005C0184E290E00E941F32282F30E040E022
:1051E00050E060E070E080E090E000E20E94BD31BD
:1051F000282939294A295B2920936A0330936B03B4
:1052000040936C0350936D0360936E0370936F0330
:1052100080937003909371038091740383608093F3
:1052200074032E7F89F50E94001688E090E00E94AA
:1052300027326B017C0184E290E00E941F32282F0C
:1052400030E040E050E060E070E080E090E00E94FC
:10525000BD31B22FA32FF42FE52F5B0197018601FB
:10526000BC29A12BFE29E32BB0936A03A0936B0307
:10527000F0936C03E0936D0360936E03B0926F0341
:1052800080937003909371030E941A070E94130782
:1052900080916A0380FF04C060E086950E94B71D7C
:1052A00081E080936E020E941A0D811102C00E945B
:1052B000D82F0E941A1A0E941A0D81112EC082E75F
:1052C0009BE090935201809351012AE130E03093AA
:1052D0004D0120934C018AE390E09093500180931C
:1052E0004F0146EC57E050935A01409359013093D7
:1052F000550120935401909358018093570148EE33
:1053000059E1509362014093610130935D01209314
:105310005C019093600180935F010E9434168823A2
:1053200089F08FE090E00E9427328B01862F8F77E3
:105330000E94CF19001F0027001F1370110F102BA0
:10534000109389030E94FF1D60E082E00E94B71D58
:1053500083E691E09093C4038093C30348E1A42EB5
:10536000B12C5CE8852E52E0952E8091D80300E1A7
:1053700012E1853009F49FC00E94B62500E712E0D3
:105380003CE7E32E31E0F32EB70120E832E0F801EC
:105390009191D9018D919D01DB014D91BD01842336
:1053A000B2E0EC37FB0709F492C0981789F30E942A
:1053B0001A0D282E20E8C22E22E0D22E612CF601F2
:1053C00071906F01D7018D917D017822F8013190A4
:1053D0008F01371431F13724512C44244394842D08
:1053E0008321B9F02220A9F059A26AA20E94B11B20
:1053F0009CA38BA3F1E0FDA391E0842D872109F408
:1054000090E09EA349A15AA16BA17CA18DA10E940D
:1054100004255394440C28E05212E1CFF80131974F
:10542000708263943CE06312CACF0E94500D7724CF
:10543000739452C082E06FCE88E192E083CE809177
:10544000D803843031F10E94C7140E94DB0D109202
:10545000C50330E40FB6F894A895A09260000FBE83
:105460003093600083B7817F846083BF83B781609E
:1054700083BF7894889583B78E7F83BF0FB6F894E7
:10548000A895809160008861809360001092600010
:105490000FBE8091D703882371F00E94B625ACE738
:1054A000B1E0E0E8F2E081919D91892309F045C3E4
:1054B0008E169F06C1F78091D803853009F4BFCFBF
:1054C0001092CB030E94790F0E943F0D55CF981385
:1054D0006ECF0E949225712C0E941A0D8091730349
:1054E000882309F467C09091720380916A038695BE
:1054F000891B8093660300ED17E085EDE82E86E0BA
:10550000F82E923041F4EDE2F2E00591149192ED23
:10551000E92E9CE0F92E80916703882361F01092B8
:1055200067030E94911D909365038093640310921A
:105530006903109268030E94911D209164033091C9
:105540006503AC01421B530B4F3F5F4798F54091F9
:105550007E024423B1F010927E0240917C02509171
:105560007D02841B950B8F3F9F4758F4405D5A483E
:1055700050937D0240937C028091740388608093F5
:105580007403C0906803D0906903020F131F109337
:1055900065030093640384E693E0F7010995809125
:1055A000680390916903892B29F4CD2819F081E0D3
:1055B00080937E020E94DB0D882339F00E94500DFB
:1055C0000E94BD1B0E94E21404C00E94BD1B71100A
:1055D000F9CF0E943F0D90917F02891721F08093AF
:1055E0007F020E94EB068091D803843009F4DBC06F
:1055F0000E941A0D882309F4B8CE0E94EB06209170
:10560000920221116BC000918E0210918F022091A5
:105610009002309191026B017C01C01AD10AE20A1A
:10562000F30A97018601043F11402105310508F472
:1056300055C060938E0270938F0280939002909376
:10564000910280918C0290918D02019690938D022F
:1056500080938C0219828E010F5F1F4F21E050E072
:1056600040E060E088E00E948816811106C08091C9
:105670008C0290918D020A978CF181E080939202C6
:10568000809378039981911101C080E08093790320
:105690008091770310E0882329F00E946A0D11E0C1
:1056A000811112E080917903882309F442C20E949B
:1056B0006A0D811140C282E0182B0E947B146B019D
:1056C0007C01DC01CB018C7FBC01CD01612BC616B6
:1056D000D706E806F90611F00E948C138091790331
:1056E000882309F442CE0E94EB066B017C01809175
:1056F000930290919402A0919502B0919602A70115
:105700009601281B390B4A0B5B0BDA01C901049780
:10571000A105B10580F119821A821B821C828E01BB
:105720000F5F1F4F24E050E040E060E089E00E94FE
:1057300088168823C1F069817A8180917E039091D7
:105740007F030E94A90B90937F0380937E036B815C
:105750007C8180918003909181030E94A90B90939A
:10576000810380938003C0929302D0929402E092CE
:105770009502F092960280918303882309F4F5CD77
:1057800080918203898310E000E020E0AE014F5F4A
:105790005F4F61E08AE00E948816882309F4E5CD16
:1057A00010928303E2CD83E08093E9008091E800CA
:1057B00082FF1ECF8091E80090E085FF05C00E9427
:1057C0009A05882399F091E08091E8008B77809387
:1057D000E800992309F40CCF8981EFEFE80FE3315A
:1057E00060F5F0E0E255FD4C0C94B03100E210E0C1
:1057F0009E012F5F3F4F79018091E80085FD0AC02F
:105800008091E8008B778093E8000E949A058823B6
:1058100099F3D9CF8091F100D7018D937D0101508B
:10582000110951F7D0CF1A828CE08B831AC08A817C
:10583000823001F128F4813061F08FEF898311C04B
:105840008330D9F08430C9F71B821C821D821E82EE
:1058500008C00E94EB060E94B6316B837C838D8367
:105860009E8340E250E0BE016F5F7F4F82E00E9466
:10587000180CBECE0E947B14EECF2B81822F90E0BD
:10588000FE013496245E8C30910558F7AC014058E7
:105890005D4FBC0164587E4FDA013C91DB014C91B5
:1058A0003423319301962813EECFDBCF8A818230E7
:1058B00049F0853011F680916A0380FF0CC00E9488
:1058C0000B0DCFCF6B817C818D819E810E94B63183
:1058D0000E948C13C6CF0E94FF1DC3CF4C816B81E9
:1058E0008A810E94BA139827892798279E838D83DF
:1058F000B8CF2D813E813227232732274C816B81FF
:105900008A810E943213ADCF0E945813AACF9A8188
:10591000923009F092CF8830B1F1893009F45EC03D
:105920008B81823009F1A8F4813009F09ACF8C8103
:10593000B4E68B9FC00111246FEF70E00E943731F5
:10594000462F20E060916C0380916B030E9430151C
:1059500088CF8330A1F0843009F083CF20E04091DC
:105960006D036D818C81F2CF8C81882309F4A7CFE0
:105970000E94FF1D60E08C810E94B71D72CF8C8158
:1059800080936E036ECF8B818230E1F078F48130AA
:1059900009F067CF80916D03EFEF8E9FC001112456
:1059A00064E670E00E9437316C835BCF833099F0FE
:1059B000843009F056CF80916B038C8380916C0307
:1059C0008D834FCF80916A0380FF03C086958C83BF
:1059D00048CF80E0FCCF80916E03F9CF20916A031D
:1059E00030916B0340916C0350916D0360916E0395
:1059F00070916F0380917003909171030E940A155A
:105A000030CF80E18A832DCF1A8287EC0ECFCA80F7
:105A1000DB80DC24CD24DC248E010F5F1F4FEC8063
:105A2000E00EF12EF11CC601875C9C4F0E151F0580
:105A300009F417CFF7ECCF16D10458F40E941F32A7
:105A4000D80114968C93FFEFCF1ADF0A0F5F1F4F18
:105A5000EACFF8011482F7CF0A811B8110270127B2
:105A600010279E012F5F3F4F6901EC80E00EF12E61
:105A7000F11CC801875C9C4F0E151F0509F4F1CE7F
:105A8000073C110528F4D60114966C910E9443320C
:105A9000BFEFCB1ADB0A0F5F1F4FEBCF0E94221321
:105AA000E0CE84E0AFCFCA80DB80DC24CD24DC24D0
:105AB0008E010F5F1F4FEC80E00EF12EF11CC6012E
:105AC000C996E016F10609F4CCCEC114E3E0DE0677
:105AD00058F40E941F32D80114968C93FFEFCF1A0E
