:100000000C94CE050C94EB050C94EB050C9420336A
:100010000C94EB050C94EB050C94EB050C94EB05A0
:100020000C94EB050C94EB050C94A61A0C94621A34
:100030000C943A2A0C94EB050C94EB050C94EB050C
:100040000C94EB050C94EB050C94EB050C94EB0570
:100050000C94EB050C947F1B0C94EB050C94EB05B6
:100060000C94EB050C94EB050C94EB050C94EB0550
:100070000C94EB050C94EB050C94EB050C94EB0540
:100080000C94EB050C94EB050C94EB050C94EB0530
:100090000C94EB050C94EB050C94EB050C94EB0520
:1000A0000C94EB050C94EB050C94EB05050109028F
:1000B000A10185020901A1000509190129081500FE
:1000C0002501950875018102050109300931158165
:1000D000257F95027508810609381581257F9501D0
:1000E00075088106050C0A38021581257F95017572
:1000F000088106C0C00660FF0961A1010962150000
:1001000026FF009520750881020963150026FF006F
:10011000952075089102C005010906A1010507197E
:10012000E029E71500250195087501810295017503
:100130000881010507190029FF150026FF00950613
:100140007508810005081901290515002501950587
:1001500075019102950175039101C0000000000036
:10016000000000000000000000000000000000008F
:100170000000000000000000000000000000007E01
:100180000F00D4FFFFFFC700000078000000000050
:100190000000002A2B2800000000000000000000E2
:1001A00000000000000029000000002C1E34202167
:1001B0002224342627252E362D3738271E1F2021AE
:1001C00022232425263333362E37381F040506070D
:1001D00008090A0B0C0D0E0F101112131415161727
:1001E00018191A1B1C1D2F3130232D350405060745
:1001F00008090A0B0C0D0E0F101112131415161707
:1002000018191A1B1C1D2F3130354C61626364654F
:10021000666768696A6B6C6D6E6F70717273747506
:10022000767778797A313233343536373839305217
:100230004542545F2D3D5B5D5C233B27602C2E2F98
:1002400000DA0281FFD9F1DB20A4A62EAF00A0C006
:10025000D30000A1C8D30000AED580A81F408D14E4
:1002600020000004643214783C1E1E140A050001AC
:100270000101010101010101020202020202020266
:100280000203030303030303030404040404040438
:1002900005050505050606060606070707070708FC
:1002A000080808090909090A0A0A0B0B0B0C0C0CAF
:1002B0000D0D0D0E0E0E0F0F0F1010111111121249
:1002C00013131414151516161717181819191A1AC6
:1002D0001B1B1C1D1D1E1E1F202021222223242427
:1002E000252626272829292A2B2C2D2D2E2F303163
:1002F0003232333435363738393A3B3C3D3E3F4075
:100300004142434445464748494A4C4D4E4F50515F
:100310005354555658595A5B5D5E5F616264656619
:1003200068696B6C6D6F7072737577787A7B7D7EA0
:100330008082838587888A8C8E8F91939596989AF0
:100340009C9EA0A2A3A5A7A9ABADAFB1B3B5B7BA08
:10035000BCBEC0C2C4C6C9CBCDCFD1D4D6D8DBDDDC
:10036000DFE2E4E7E9EBEEF0F3F5F8FAFDFF222334
:10037000252628292A2C2D2F3032333536383A3B82
:100380003D3E4042434547494A4C4E5051535557D4
:10039000595A5C5E6062646668696B6D6F717375F3
:1003A00077797B7D7F81838587898A8C8E909294F3
:1003B00096989A9C9E9FA1A3A5A7A8AAACAEAFB100
:1003C000B3B4B6B8B9BBBCBEBFC1C2C3C5C6C7C94A
:1003D000CACBCCCDCED0D1D2D2D3D4D5D6D7D7D804
:1003E000D9D9DADADBDBDBDCDCDCDCDCDDDDDDDD56
:1003F000DCDCDCDCDCDBDBDBDADAD9D9D8D7D7D65E
:10040000D5D4D3D2D2D1D0CECDCCCBCAC9C7C6C514
:10041000C3C2C1BFBEBCBBB9B8B6B4B3B1AFAEAC5A
:10042000AAA8A7A5A3A19F9E9C9A98969492908E05
:100430008C8A89878583817F7D7B79777573716FDE
:100440006D6B6968666462605E5C5A5957555351BA
:10045000504E4C4A4947454342403E3D3B3A383670
:10046000353332302F2D2C2A29282625232200AF80
:1004700000AEC2C3004CB6B772B100202000BABBB8
:10048000004B657920B10020C0C100B4B500B2B303
:1004900000BEBF00484F00565400303020002020DE
:1004A0002020B1BCBD0042616C6CB100202000294D
:1004B000001E001F002000E1001D001B000600219F
:1004C00000220023002B0019000500E00001521457
:1004D000001A0008001500E2002352000000001777
:1004E00000E000040016000000000000000000070B
:1004F0000009000A000000000000000000000024C5
:10050000002500260027000E000F00330034002DC8
:10051000002E003100350028001100100036004C7C
:10052000001C0018000C0037003800E500520012D3
:100530000013002F00300022522C00E600E7002AB2
:10054000000B000D000000500051004F000000297A
:10055000001E001F002000E1001D001B00060021FE
:1005600000220023002B0019000500E000005214B7
:10057000001A0008001500E2002C0000000000171F
:1005800000E000040016000000000000000000076A
:100590000009000A00000000000000000000002424
:1005A000002500260027000E000F00330034002D28
:1005B000002E003100350028001100100036004CDC
:1005C000001C0018000C0037003800E50052001233
:1005D0000013002F00300022522C00E600E7002A12
:1005E000000B000D000000500051004F0000000102
:1005F000003A003B003C000100027E087E097E3D7F
:10060000003E003F003900077E067E017E007E042A
:100610007E207823782578037E01000000000027E3
:10062000780100057E217800000000000000002411
:1006300078267828780000000000000000000040C4
:10064000004100420043004A004B0050004F00446C
:1006500000450049004C0001000C7E0F7E4D00015A
:10066000000A7E0D7E46004E005100010001004749
:1006700000480052000100010001000100010001DA
:10068000000B7E0E7E000001000100010000000151
:100690000001000100010001000100010001000152
:1006A0000001000100010001000100010001000142
:1006B0000001000100010001000100000000000134
:1006C0000001000100010000000000000000000126
:1006D0000001000100000000000000000000000117
:1006E00000010001000100D200D30001000100015F
:1006F000000100010001000100D50001000100011E
:1007000000010001000100010001000100010001E1
:1007100000010001000100010001000100010001D1
:1007200000D400D100000001000100010000000918
:10073000025B00030100A0FA0904000001030101AB
:10074000000921110100012244000705810308006E
:100750000109040100020300000009211101000148
:100760002222000705820320000107050303200061
:100770000109040200010300000009211101000128
:100780002249000705840320000112010002000035
:100790000008383937360100010200010E037200EB
:1007A00065006500780036003700000012036B001A
:1007B00075007300680069006D006100380000007A
:1007C0000403090400000000000000002F000000E6
:1007D000000700070000123F123F1200242A7F2A60
:1007E000120036091E241B001826291228000000BA
:1007F00007000000001E214000000040211E0000F4
:1008000014083E08140008083E0808000000307074
:100810000000080808080800000030300000201020
:100820000C0201001E2925231E0000223F2000008B
:10083000223129292600122125251A001814123FD9
:1008400010001725252518001E2525251800013123
:10085000090503001A2525251A00062929291E0045
:10086000000033330000000033730000081414222A
:10087000220014141414140022221414080002017B
:10088000290502003E59555D3E0038161116380004
:100890003F2525251A001E21212112003F2121215B
:1008A0001E003F25252521003F09090901001E21C1
:1008B00021291A003F0404043F0000213F210000C9
:1008C000102020201F003F040C1221003F20202078
:1008D00020003F0204023F003F020C103F001E2197
:1008E00021211E003F09090906001E2129112E00A1
:1008F0003F090919260012252529120001013F018F
:1009000001001F2020201F000718201807000F30AB
:100910000C300F0021120C122100030438040300D4
:10092000312925232100007F4141000001020C10E4
:1009300020000041417F0000040201020400404009
:1009400040404000000103040000102A2A2A3C0015
:100950003F2422221C001C22222224001C222224AA
:100960003F001C2A2A2A0C0000043E0505000C52F8
:1009700052543E003F080404380000003D000000CF
:100980002040403D00003F080814220000013F20A5
:1009900000003E023C023C003E0402023C001C22DD
:1009A00022221C007E1422221C001C2222147E0003
:1009B0003E0402020400242A2A2A120000021F22F6
:1009C00000001E2020103E000618201806000E30E1
:1009D0000C300E002214081422000E5050483E0025
:1009E00022322A26220008087741410000007F00B9
:1009F0000000414177080800180408100C000000AE
:100A000000000000F8FCFCFC3C3CFCFCFCF8008016
:100A1000C0F0F8FC7E00000000FCFCFCFC000000C4
:100A2000000000000000FCFCFCFC0000000000FCDA
:100A3000FCFCFC000000000000000000FCFCFCFCD2
:100A400000000000007EFCF8F0E0C080000080C0E4
:100A5000E0F0F8FC7E000000000000000000000054
:100A600000000000FFFFFFFF0000FFFFFFFF7F1FF0
:100A70000F0701000000000000FFFFFFFF00000063
:100A8000808080800000FFFFFFFF0000000000FF6B
:100A9000FFFFFF000080808080000000FFFFFFFF5D
:100AA0000000000000000081C3E7FFFFFFFFFFFF21
:100AB000E7C381000000000000000000000000000B
:100AC00000000000FFFFFFFF000001010100000027
:100AD0000000000000000000003F3F3F3F0000001A
:100AE0003F3F3F3F00003F3F3F3F00000000003FCF
:100AF0003F3F3F00003F3F3F3F0000003F3F3F3F41
:100B000000000000007E3F1F0F07030100000103EB
:100B1000070F1F3F7E0000000000000000000000E3
:100B20000000000000101010000000005500000040
:100B30003E635D5D637F417B77413E00001C222266
:100B40001C003E0A003E0A00322A3C0026281E00F5
:100B50001C2A2C0000003F09360000001E21210045
:100B6000000000003F0837001E2121001E21210047
:100B70003F090600213F2100222519001E212100E6
:100B80003F0936003F211E00213F21000F300F009A
:100B90003E093E003F063F003F20200011241FBEBB
:100BA000CFEFDAE0DEBFCDBF11E0A0E0B1E0E8E9D1
:100BB000FBE602C005900D92A63EB107D9F726E0EC
:100BC000A6EEB1E001C01D92A037B207E1F70E9486
:100BD000612A0C947C350C940000482F2091570416
:100BE00090911E0457E0291302C080E0089530E080
:100BF000529FF001539FF00D1124E15EFB4F818164
:100C0000681306C08081481303C085818111EECF2F
:100C10002F5F3F4F2770E7CFE8EDF0E080818E7FB8
:100C200080831092E2001092DA001092E100A0EEB0
:100C3000B0E08C9181608C9380818F77808319BC28
:100C4000A7EDB0E08C918E7F8C9380818F7E808326
:100C50001092060408952091E4003091E50095E695
:100C6000A9012091EC00822F817020FF06C08091A5
:100C7000E80080FF06C080E008952091E80022FD92
:100C80001AC080911404882389F0853089F08091FE
:100C9000EB0085FD0FC02091E4003091E500421784
:100CA0005307F9F29150E1F684E0089582E0089547
:100CB00083E0089581E008958091160487FF13C0B2
:100CC0008091E80082FF06C08091E8008B778093D6
:100CD000E80004C0809114048111F2CF089580913E
:100CE00014048823D9F38091E80080FFF8CF809125
:100CF000E8008E77ECCF982F9093E900242F762F81
:100D000050E0891731F07091EC002091ED00509186
:100D1000F00021FD07C09F5F973071F78093E900D5
:100D200081E008953091EB003E7F3093EB003091ED
:100D3000ED003D7F3093ED003091EB00316030935A
:100D4000EB007093EC002093ED005093F0002091A5
:100D5000EE0027FDE0CF80E00895B0E0A0E0E3EBF7
:100D6000F6E00C945A34C8EDD0E088818F7E8883F9
:100D7000E7EDF0E080818160808384E082BF81E0E4
:100D80008093060488818E7F888302EE10E0F8014C
:100D900010821092DA0081EEC82ED12CF60110825A
:100DA00088818F77888388818068888388818F7D18
:100DB000888319BC10921404109215041092130425
:100DC0001092120490EEE92EF12CF70180818B7FB6
:100DD000808388818160888342E060E080E00E94B7
:100DE0007B06F60180818E7F8083F801808181609F
:100DF0008083808188608083F70180818E7F8083FB
:100E0000888180618883CDB7DEB7E8E00C947634C2
:100E1000FC0180911C0490911D0486179707A0F097
:100E20006115710529F49091E8009E779093E80090
:100E300090E06115710551F4911108C08091E800AE
:100E400082FF34C080E00895BC01F2CF8091140489
:100E50008823C1F18530C1F18091E80083FD30C065
:100E60008091E80082FDEACF8091E80080FFE1CF29
:100E70008091F3002091F200382F6115710519F06F
:100E80002830310558F091E02830310509F090E024
:100E90002091E8002E772093E800CBCF81918093BA
:100EA000F100615071092F5F3F4FE7CF809114042B
:100EB000882341F0853041F08091E80083FFBECF68
:100EC00081E0089582E0089583E0089508950895EB
:100ED00080910904089587E797E79093010880932C
:100EE000000888E19AE00FB6F894A8958093600016
:100EF0000FBE90936000FFCF2FB7F894609102046B
:100F00007091030480910404909105042FBF08950B
:100F1000FC01680F791F8FEF91E32191822728E070
:100F200030E087FF09C0880F892721503109C9F7B0
:100F3000E617F70791F70895880FF7CFFA018111A7
:100F400001C0FB0109950895E7EEF2E0118282816C
:100F50008460828308958091CC03982F9E7F61F4F2
:100F6000817082608093CC038091CF03853618F026
:100F700084E68093CF0308958032B0F381708E6150
:100F8000F1CFAF92BF92DF92EF92FF920F931F9338
:100F9000CF93DF93082F162FE901E42FF0E0E259F9
:100FA000FD4F611110C0E4915E2F4E2F4983E883FD
:100FB0005A83DF91CF911F910F91FF90EF90DF90B7
:100FC000BF90AF900895E62EF12C4491D42EE42FDB
:100FD000F0E026E0829FC00111242FEF30E0B9013C
:100FE0000E943C34802F90E0880F991F55E5569F52
:100FF000D001579FB00D11248A1B9B0B982F990F7E
:10100000890F5901AE18BF08AE9ED001AF9EB00D3A
:10101000BE9EB00D11245B2F189F80011124012F5B
:1010200011275901A01AB10AAE9E8001AF9E100D82
:10103000BE9E100D11245901A81AB108AE9CC00122
:10104000AF9C900DBE9C900D1124892F9927281BD1
:10105000390B2E9FC0012F9F900D3E9F900D1124A4
:10106000E92F62307105A1F050F46115710509F4A2
:101070009DCF6130710581F0EB2F512F97CF6430F8
:10108000710569F080F06630710509F48FCFF4CFF7
:10109000E42F4B2F592F8ACFE42F412F87CFEB2FEF
:1010A000542F492F83CF4B2F5D2DE12F7FCF909170
:1010B0008301882341F09F5F909383011092800108
:1010C00010927F0108959150F7CFE8E7F1E0828513
:1010D00091E0892782871086178208958091820186
:1010E00081110CC09091E00296959695969581E0BD
:1010F00020917901921380E08170089581E0FCCF06
:1011000080918101811108C080918301811104C007
:101110000E946E088170089581E090E0FBCFCF932C
:10112000DF93E4E8F1E084819581A681B781E9014C
:1011300088839983AA83BB831582148217821682BF
:10114000DF91CF91089580E0089563E070E08FE42F
:1011500092E00E94880790914E02891318C0E09196
:101160004F02EC30A4F488E0E802F0011124E65FBD
:10117000FE4F0680F781E02D309749F022E732E0FC
:101180004091510262E572E0809150020995089504
:10119000E8E3F2E0808D80933A01818D80934D01E8
:1011A0000895811522E5920780F5811530E59307B2
:1011B00008F0ABC0883E9105A0F4803E910558F43C
:1011C000853A910548F48430910528F481309105E1
:1011D00011F090E080E008958D3C9105D0F390658A
:1011E0000895811540E4940708F044C0811550E249
:1011F000950708F0A3C0811561E0960750F320E041
:10120000392FA901482BCA010895803872E5970744
:10121000A8F4803622E5920708F05AC0803432E5FF
:10122000930708F03FC0803242E5940730F18F7198
:1012300090E0982F8827816F906A0895803C52E54E
:10124000950760F4282F2F71803A924508F456C014
:10125000822F90E0982F882790620895803E72E553
:10126000970708F0B6CF982F882788279F71806F3F
:10127000906A08959F70906A0895282F2695269564
:1012800050E2259F90011124837041E050E0BA01A3
:1012900002C0660F771F8A95E2F7CB01822B932B52
:1012A0009D680895282F26952695277070E2279F20
:1012B00090011124837041E050E0BA0102C0660F32
:1012C000771F8A95E2F7CB01822B932B9C680895B8
:1012D000282F26952695277070E2279F90011124CC
:1012E000837041E050E0BA0102C0660F771F8A9513
:1012F000E2F7CB01822B932B9A680895822F90E01E
:10130000982F8827846F906A08959C0195E0369500
:1013100027959A95E1F72F7030E0322F2227482F3A
:101320004F7150E084FF05C084E0440F551F8A953B
:10133000E1F7C901842B952B906908959F718CCF9B
:1013400080959091070498239093070408958091C5
:10135000570490911E04981301C008958F5F877001
:10136000FACF9A3080F5883070F548E0949F90016C
:101370001124820F932F911D682F677023E096959B
:1013800087952A95E1F7FC01EE0FFF1FE80FF91F83
:10139000EB5FFD4F50E040E080E0219130E0062E11
:1013A00002C0369527950A94E2F721703327042E60
:1013B00001C0220F0A94EAF7822B4F5F5F4F433040
:1013C000510559F7089580E008959A3098F58830CE
:1013D00088F548E0949F90011124820F932F911D6E
:1013E000282F277041E001C0440F2A95EAF723E037
:1013F000969587952A95E1F7FC01EE0FFF1FE80F00
:10140000F91FEB5FFD4F90E080E070E05191DF014C
:1014100011979B01082E02C0369527950A94E2F792
:10142000217021952527242325272C93019683308D
:10143000910561F70895809334020895982F92954D
:101440009F7011F0892F94E0282F2695269511F092
:101450009E5F822F869509F09F5F892F0895CF9315
:10146000C82F809192018C1751F00E947C076093E5
:101470009301709394018093950190939601C0938A
:101480009201CF91089580918401F901808308959C
:10149000EF92FF920F931F93CF93DF938C01EB0199
:1014A000DC01ED91FC91222309F45FC0409197018A
:1014B000411101C044E04150550B81E090E07C01B6
:1014C000042E02C0EE0CFF1C0A94E2F7CF01B70114
:1014D0000E94A1349B01CB01042E02C0880F991FEA
:1014E0000A94E2F7E81BF90BD8011196FC93EE93EE
:1014F0001296ED91FC91CF01B7010E94A134CB016E
:1015000002C0880F991F4A95E2F7E81BF90BD80132
:101510001396FC93EE9312972138BFEF3B07CCF064
:1015200020383105C4F421952D836138EFEF7E0713
:10153000A4F0603871059CF461956C8380919801EA
:10154000882379F0813079F0CDB7DEB7E6E00C94EE
:10155000783421E8E8CF2FE7E6CF61E8EDCF6FE7F9
:10156000EBCF1D82F1CF1C82EFCFE1382FEFF207D6
:10157000BCF0E038F105B4F4E195EA83D8011296A5
:101580008D919C918138BFEF9B0774F08038910555
:101590006CF48B83F8011182108213821282D4CFF3
:1015A000E1E8EACFEFE7E8CF81E8F3CF8FE7F1CFCB
:1015B0008F708A3010F4805D0895895A0895382F0D
:1015C00020E287FF02C031952DE24AE0832F642F8D
:1015D0000E949334905D9093FD0181110BC0209384
:1015E000FC0120E22093FB0120E22093FA018AEF24
:1015F00091E00895642F0E949334905D9093FC01D4
:10160000832F64E60E949334882361F3805D809386
:10161000FB01EBCF9C01860F971F37FD07C077FDBD
:1016200004C097FF02C08FEF9FE7089577FFFDCFBB
:1016300097FDFBCF80E090E80895E82FE295EF70EA
:10164000F0E031A1282F2F7081E090E001C0880FD9
:101650002A95EAF7382B31A392A18095892382A39A
:101660000895E82FE295EF70F0E031A1282F2F7058
:1016700081E090E001C0880F2A95EAF7982F9095B5
:10168000932391A392A1892B82A30895B0E0A0E0B7
:10169000ECE4FBE00C945A347C016B01809163060E
:1016A00001E010E08A3010F40AE010E0C1E0D0E080
:1016B00069E676E0C701F6010995811104C021961B
:1016C0000C171D072CF4CDB7DEB7E8E00C94763488
:1016D000CC9F9001CD9F300D300D112490E080E023
:1016E00045E34A95F1F70000019682179307C1F789
:1016F000DFCF0F931F93CF93DF938B01EA0190917C
:101700001404943061F58093E9008FEF9091E80024
:10171000815095FD06C095ED9A95F1F70000811175
:10172000F5CF8091E80085FF1AC00E942B06811139
:1017300011C08091E80085FD06C08091E8008E7799
:101740008093E800F2CFF80181918F018093F1003E
:10175000219779F78091E8008E778093E800DF91F8
:10176000CF911F910F91089546E050E0BC0184E0B5
:101770000E94790B0895CF93DF93EC0148E050E08D
:10178000BC0181E00E94790B88E0FE01AAE0B4E090
:1017900001900D928A95E1F7DF91CF9108956091C4
:1017A00074018091CC0380FF20C08091730143E0DD
:1017B000849FC001112486519D4F539A2BB1277FDE
:1017C0003BB138605FB7F894FC01649FE00DF11DF8
:1017D0001124BF0168177907D1F45FBF8FE594E04A
:1017E0000197F1F700C00000089580917501909174
:1017F000760123E0829FF0011124E651FD4F891705
:10180000A0F61182108212828F5F3396F8CFFC010E
:101810004191CF01E8E03BB9000000C047FF2BB980
:10182000440F000000C000C000C02BB900C0EA9502
:1018300091F7D0CFEF92FF921F93CF93DF93EC01FC
:1018400010E0EE24EA94F12C60917701161770F005
:101850000E94CF0B9A818C8190FF2AC08F5F8C836E
:10186000DF91CF911F91FF90EF9008952091750126
:10187000422F410F5527551FCA019A01220F331FCE
:10188000280F391F26513D4F4091CF03453608F0B0
:1018900044E670E0C7010E94A134962F8C816091CC
:1018A000CE03199F800D11240E94C1071F5FCCCF6A
:1018B0008150D5CF9091CC0390FF0EC090917501CF
:1018C0002091760133E0939FF0011124E651FD4F02
:1018D000921718F00E94CF0B089581836083428392
:1018E0009F5F3396F5CFA3E0B0E0E9E7FCE00C940E
:1018F0005E348C018091CB0381110AC09E012F5F61
:101900003F4F44E66FEF0E94C1078A818093CB036B
:10191000F8016481613069F08091CB0340E0662377
:1019200061F040E0623011F44091CB0380E060E070
:1019300004C06091CB0340E080E00E945A0CF801A3
:10194000848190E0019663E070E00E94A13484837A
:101950002396E4E00C947A34A3E0B0E0E2EBFCE000
:101960000C9460349091CC0390FF0DC0453608F084
:1019700044E69E012F5F3F4F0E94C1074B81698162
:101980008A810E945A0C2396E2E00C947C34CF9317
:10199000DF93EC01ECECF3E0438162818C810E94E7
:1019A000AC0C8C818F5F8C83DF91CF910895CF93A6
:1019B000DF93EC01EC81F0E0E259FC4F4491ECEC58
:1019C000F3E0628181810E94AC0C8C818F5F8C83FB
:1019D000DF91CF910895ECECF3E080818E7F8083DE
:1019E0000E94A407E7EEF2E08281816082830E9478
:1019F000CF0B089580913702811119C088EC90E0D7
:101A00002091E30027FD10C0EFE3FCE93197F1F7E7
:101A100000C000000197A1F782E0809337020E9486
:101A20000C061092140403C081E08093370281E019
:101A300090913702913011F080E0089508950E944E
:101A4000FA0C882359F0E091FF03F09100043097DD
:101A500029F00190F081E02D0995089580E0089526
:101A60000F931F930E94FA0C882329F00E947C0791
:101A70001F910F9108950E947C070091A702109179
:101A8000A8022091A9023091AA02600F711F821F43
:101A9000931FEECF26982E9A249A2C9885E08A954B
:101AA000F1F7000083B124982C9A90EA9A95F1F707
:101AB00090E026E0959587952A95E1F78095909599
:101AC00081700895E1E8F1E083E0DF011D928A95DD
:101AD000E9F7EDE7F1E084E0DF011D928A95E9F78F
:101AE000089520917A0130917B012817390731F050
:101AF00090937B0180937A010E94620D08959091EA
:101B00007801981721F0809378010E94620D089562
:101B1000CF939091DB028091D402981323C08091DF
:101B2000DC02882321F09091D50289131BC080919B
:101B3000DD02882321F09091D602891313C0809191
:101B4000DF02882321F09091D80289130BC0909175
:101B5000DE02992329F081E02091D702291303C0E6
:101B600080E001C081E0C82FC17080FF0FC0E0910C
:101B7000FF03F0910004309749F082E08093DA028D
:101B80000480F581E02D8AED92E009959091DB02C9
:101B900086E0EAEDF2E0DF01282F1D922A95E9F7B1
:101BA0009093DB02A3EDB2E001900D928A95E1F7EC
:101BB00081E0C11103C0911101C080E08170CF911B
:101BC00008952FE2280F283078F481E090E001C0DA
:101BD000880F2A95EAF72091DB02662331F0822BE9
:101BE0008093DB020E94880D089580958223F8CFB0
:101BF000CF93DF93D82F2091790181E090E002C04C
:101C0000880F991F2A95E2F780959095CD2FC823CC
:101C10008C2F0E941E0A882311F0823081F480915B
:101C20007801882329F00E946E08811101C0DC2F01
:101C300080E00E947F0D8D2FDF91CF91089581E08C
:101C4000F8CF0E94F80D8093D40308959091D403A7
:101C500021E030E0F90101C0EE0F8A95EAF7D901E1
:101C600002C0AA0FBB1F6A95E2F7EA2B01C0220F40
:101C70004A95EAF7892F8E23E81305C0292B822F76
:101C80000E94210E089520952923F9CF21E030E00C
:101C900001C0220F8A95EAF720958091D403822310
:101CA0000E94210E08959091E002809589238093EF
:101CB000E002282F277069F4891759F09091AE023D
:101CC00092FF07C08695869586950E94460E1092D3
:101CD000E002089521E030E001C0220F8A95EAF782
:101CE0008091D403822B0E94210E0895CF93DF931D
:101CF000282F81E02A3019F02D3031F480E00E9445
:101D00000A0FDF91CF91089580916106909162064C
:101D100036E0FC01ABE5B6E001900D923A95E1F7B3
:101D200030EE320F343A08F458C026E0FC0111922C
:101D30002A95E9F7C0916106D091620646E050E02D
:101D4000BE018BE596E00E940E359E012B55344076
:101D5000892B41F1C90145E0969587954A95E1F7B0
:101D600041E050E0BA0102C0660F771F8A95E2F7A2
:101D7000CB016091590470915A04862B972BB901BD
:101D80006B5F7F4FE5E076956795EA95E1F702C0D6
:101D9000440F551F6A95E2F7842B952B90935A04B4
:101DA000809359042A5F3F4F40915804642F70E09C
:101DB000C9010E943C34481B463010F4240F311DE9
:101DC000211572E0370710F030E020E0255A3B4F34
:101DD000309362062093610694CF2052330B46E085
:101DE000429FB001439F700D11246C53784F46E021
:101DF00050E00E94F8349ECFCF93DF93EC01FE01B8
:101E00008491811103C0DF91CF9108950E94760ED5
:101E10002196F5CFCF93382FE0916106F0916206BD
:101E2000EB55F44020915804622F70E0CF010E94DE
:101E30003C34281B822F332361F066E00E948734F4
:101E4000C82FC15010F4CF91089580E20E94760E01
:101E5000F8CF9F01280F311D2115324018F080E086
:101E6000F0E0E0E08E0F9F2F911D855A9B4F9093DD
:101E7000620680936106E7CF809107049091330258
:101E8000892B8093E80190913202992391F0892B5C
:101E90008093E80120E08AEE91E0FC013191CF01CE
:101EA00031112F5FF1E0803F9F07B9F721111092A8
:101EB000320248E050E06AE272E088EE91E00E946F
:101EC0000E35892BA9F088E0E8EEF1E0AAE2B2E055
:101ED00001900D928A95E1F7E091FF03F0910004E3
:101EE000309731F00280F381E02D88EE91E0099582
:101EF0000895EAEEF1E086E0DF011D928A95E9F7A8
:101F0000109233020E943C0F0895AAE2B0E0EBE881
:101F1000FFE00C945F3486E194E02091F100DC0155
:101F20002D93CD01B4E08E319B07B9F78091170452
:101F3000833009F472C0B8F4813009F449C08230AA
:101F400009F4B5C08091E80083FF8DC2809116042A
:101F5000909117049A3008F086C2E92FF0E0E25819
:101F6000FA4C0C94B5348A3009F490C08B3009F4E3
:101F700071C0893039F780911604813219F7809148
:101F80001A0490911B04009711F00297D9F68091E2
:101F9000E800877F8093E8008091E80082FF38C0E6
:101FA0009091F3008091F200029731F48091F1005A
:101FB000813011F0863021F48091F1008093090482
:101FC0008091E8008B778093E8000E945C06BACF8E
:101FD00080911604813A09F0B5CF8091E800877F9F
:101FE0008093E80080911A0490911B04892B61F47E
:101FF00068E08AE094E070E00E9408078091E800C1
:102000008B778093E8009ECF60E090E080E0F3CF94
:10201000809114048111C0CF95CF80911604813A2C
:1020200009F090CF80911A0490911B04892B09F03C
:1020300089CF8091E800877F8093E8008091E80055
:1020400080FFFCCF8091B1018093F1008091E80086
:102050008E77B9CF80911604813209F073CF8091C9
:102060001A0490911B04892B09F06CCF8091E80031
:10207000877F8093E8000E945C068091180480931B
:10208000B101109207040E94790F5CCF8091160471
:10209000813209F057CF8091E800877F8093E80074
:1020A0000E945C0680911904809308044BCF8091B4
:1020B0001604813A09F046CF8091E800877F80932B
:1020C000E8008091E80080FFFCCF80910804BCCF3D
:1020D000803899F0823809F0C6C180911A048F7057
:1020E000873008F0C0C18093E9008091EB0085FB48
:1020F000882780F91092E90006C08091120490911F
:102100001304911182609091E800977F9093E8000A
:102110008093F1001092F1008091E8008E779FC1CA
:10212000882309F48DC1823009F09DC18091180483
:10213000811190C180911A048F702FEF280F2630E3
:1021400008F091C18093E9002091EB0020FF82C14B
:10215000933031F48091EB0080628093EB007AC180
:102160009091EB0090619093EB0021E030E001C092
:10217000220F8A95EAF72093EA001092EA008091F4
:10218000EB008860EACF81116EC1109118041F77AF
:102190008091E3008078812B8093E3008091E800B8
:1021A000877F8093E8000E945C068091E80080FFB2
:1021B000FCCF8091E30080688093E30082E01111FE
:1021C00083E0809314044FC18058823008F04BC1E3
:1021D00020911804309119042C3DE3E03E07A1F54D
:1021E00083E08A838AE289834FB7F894DE011396ED
:1021F00020E03EE051E2E32FF0E050935700E491FD
:1022000020FF03C0E295EF703F5FEF708E2F90E0EC
:10221000EA30C0F0C7968D939D932F5F243159F714
:102220004FBF8091E800877F8093E8006AE270E00A
:10223000CE0101960E9408078091E8008B77809379
:10224000E80011C1C096E7CF80911A0490911B0459
:10225000432F55274330510509F44AC078F54130E2
:10226000510509F47AC08BE590E0EFE2F7E04230E7
:10227000510509F0F8C02091E800277F2093E8007D
:1022800020911C0430911D048217930708F49C01CF
:1022900040E02115310509F065C0411163C080910E
:1022A000E80082FDC9CF80911404882329F285308B
:1022B00019F28091E80083FFF2CFBECF4132510581
:1022C00009F43CC04232510509F0CDC0833091057C
:1022D00008F0C9C0FC01EE0FFF1FE652FE4F01904F
:1022E000F081E02D89529E4FDC018C9190E01AC064
:1022F000332721303105D1F02115310561F022302D
:10230000310509F0B0C0ECE9F7E0E4918E2F90E0E0
:10231000ECE9F7E007C0E0ECF7E0E4918E2F90E005
:10232000E0ECF7E0009709F49EC0A5CFECEAF7E0F7
:10233000E4918E2F90E0ECEAF7E0F4CF8330910542
:1023400008F091C0880F991FFC01E052FE4F0190E8
:10235000F081E02D89E090E08ECF82E190E0EAE824
:10236000F7E089CF80911404882309F465CF853084
:1023700009F462CF8091E80083FD5ECF8091E80090
:1023800082FD8DCF8091E80080FF83CF9091F30094
:102390008091F2002115310519F08830910550F037
:1023A00041E0089709F040E08091E8008E77809343
:1023B000E8006FCF44914093F100319621503109EC
:1023C0000196E8CF803809F04EC08091E800877F01
:1023D0008093E800809115048093F1009DCE8111D7
:1023E00042C0109118041230F0F58091E800877F08
:1023F0008093E800109315040E945C06112311F0ED
:1024000084E005C08091E30087FDFACF81E08093EE
:10241000140442E061EC81E00E947B0642E261EC40
:1024200084E00E947B0642E261EC82E00E947B062F
:1024300042E260EC83E00E947B068091140413C0AA
:1024400080911804813079F481E0933009F080E0C4
:10245000809313041092E9008091E800877F8093B5
:10246000E8000E945C068091E80083FF0AC080912A
:10247000E800877F8093E8008091EB008062809382
:10248000EB00AA96E3E00C947B34109207040E94C0
:10249000790F2FEF84E39CE0215080409040E1F7DA
:1024A00000C0000088E19AE00FB6F894A8958093E8
:1024B00060000FBE90936000FFCF882321F00E9440
:1024C000A0090E943C0F0895882339F090910704D9
:1024D000982B909307040E943C0F0895882349F19C
:1024E0009CEF980F913A80F4EAEEF1E020EF31E0B2
:1024F0009191891303C0DF0111971C922E173F079A
:10250000B9F70E943C0F089590E2980F983050F46C
:10251000877091E001C0990F8A95EAF7892F0E9490
:10252000A009EFCF93E3980F933118F460E00E9475
:10253000E10D08950F931F93CF93C82F882341F186
:102540008CEF8C0F813AB0F50AEE11E080EF91E04C
:10255000F8012191C21701F18E179F07D1F7EFEF14
:1025600080E0D8019D918D01C91781F0EF3F19F4EA
:10257000911101C0E82F8F5F863099F7EF3F31F05E
:102580000E2E000CFF0BE851FE4FC2830E943C0F41
:10259000CF911F910F910895EAEEF1E02191C213BE
:1025A00003C0DF0111971C928E179F07B9F70E9495
:1025B0003C0FD5CF80E28C0F883068F4C77021E0E3
:1025C00030E001C0220FCA95EAF780910704822B00
:1025D00080930704DBCF83E38C0F8331C8F661E07F
:1025E0008C2F0E94E10DD4CF1F93CF93DF93182F30
:1025F000EB010E949A128FE99FE00197F1F700C06A
:1026000000002197C1F7812F0E946E12DF91CF91B8
:102610001F9108950F931F93CF93DF93EC01FC015B
:1026200001900020E9F78F0101501109C017D1076F
:1026300028F0DF91CF911F910F91089589910E9409
:10264000760EF4CFCF93DF93C9EBD2E060E0CE01FA
:102650000E9448352196C11584E0D807B9F7DF916B
:10266000CF9108951F93CF93DF93122F8430E0F41E
:102670006A30D0F44830C0F490E1699FE001112441
:1026800050E0440F551FC40FD51F90EA899FC00D1D
:10269000D11D1124632FCE01C9960E944835612FA8
:1026A000CE01CA960E944835DF91CF911F910895BF
:1026B000AF92BF92CF92DF92EF92FF921F93CF9390
:1026C000DF938FEAC82E84E0D82ED0E07601C0E0F8
:1026D00014C0F50125913491412F6C2F8D2F0E944C
:1026E000321382E0A80EB11C1F5F183091F780E111
:1026F000E80EF11CCF5FCA3019F0570110E0E9CFA6
:10270000DF5F80EAC80ED11CD43001F7DF91CF9192
:102710001F91FF90EF90DF90CF90BF90AF90089502
:1027200088E390E00E9448350895CF93C82F6FEF5B
:10273000811163E285E390E00E9448356FEFC1119B
:1027400061E086E390E00E9448356FEFC11166E1D9
:1027500087E390E00E944835CF91089580E00E9481
:10276000951360E070E0CB010E9490130E94581313
:102770000E94221381E00E94951308950F931F93E6
:10278000CF93DF93843030F56A3020F5483010F570
:1027900020E1629F8001112450E0440F551F040F77
:1027A000151F30EA839F000D111D1124C801C99621
:1027B0000E942435C82FD0E0DC2FCC27C801CA9650
:1027C0000E9424359E01282BC901DF91CF911F91D2
:1027D0000F91089590E080E0F8CF462F7A3040F4D2
:1027E000683030F4843020F4672F0E94BE130895BF
:1027F00090E080E00895CF92DF92FF920F931F93B5
:10280000CF93DF936C010091D40380913402082BA5
:10281000C3E0D0E010E0FC2EC8010C2E02C095955C
:1028200087950A94E2F780FD0CC02197A0F7F12C60
:102830008F2DDF91CF911F910F91FF90DF90CF905F
:102840000895B6018C2F0E94ED130E94D1080197C4
:1028500061F3EECFCF93DF93EC010E94FB13BE0137
:102860000E94ED130E94D108DF91CF910895FC01E1
:1028700024812223C1F0808191810E942A149295A3
:102880009F70963091F058F4925F9F70923058F498
:10289000803F19F030F4883E30F481E008959A5F6B
:1028A000F4CF843FD1F380E00895883EB0F3813FB8
:1028B000D1F7F3CFA6E0B0E0E0E6F4E10C945F34AA
:1028C00049835A8349815A819923A1F0222391F0A7
:1028D000CA010E94FB13182F682F89819A810E94D8
:1028E000E50969817A81812F0E94ED132696E3E044
:1028F0000C947B34CA010E94B109182FF2CF88E3EF
:1029000090E00E942435682F70E090E080E0089508
:1029100085E390E00E942435833289F486E390E0D9
:102920000E942435813059F487E390E00E942435D9
:1029300091E0863109F090E0892F8170089580E060
:10294000FCCFB0E0A0E0E7EAF4E10C945A346C016B
:102950007B0164E670E088E70E949A318C01E60111
:10296000EC0CFD1C17FD0BC0FE01849164E670E0C9
:102970000E9406328C012196CE15DF0599F70E9440
:102980007C3281E00115110509F080E0CDB7DEB79A
:10299000E8E00C9476348091FB039091FE03911152
:1029A00003C091E089270895882369F062E070E010
:1029B00080E794E00E94A114811103C08091FB0381
:1029C00008951092FB038091FB03EBCFCF93C0914E
:1029D000FB038091FE038823D1F00E947C07605A9C
:1029E00075418F4F9F4F6093F7037093F803809367
:1029F000F9039093FA03C11108C062E070E08EE61B
:102A000094E00E94A114811105C0C091FB038C2F9A
:102A1000CF91089581E08093FB03F7CFB0E0A0E071
:102A2000E4E1F5E10C94563449015A016B017C0153
:102A30000E94AB078401A4016A2D7B2D88E090E001
:102A40000E945A3594014A2D5B2DB601C70100E260
:102A50000E94DD34622F84E290E00E944835CDB7B9
:102A6000DEB7ECE00C947234A3E0B0E0EAE3F5E109
:102A70000C945C34082FF62E142FE22E8091CC0398
:102A800080FF43C02091CD03201308C09091CE0356
:102A9000961304C09091CF03941729F09091E90206
:102AA00092609093E902E82FE695F0E0E154FE4F42
:102AB00090819093E7028E7F823059F5412F153631
:102AC00008F044E69E012F5F3F4F6F2D802F0E943C
:102AD000C1074B8169818A810E945A0C0093CD0302
:102AE000F092CE031093CF03EE2079F02091CC0327
:102AF0006091D0037091D103302F4F2D512F8091D1
:102B0000D2039091D3030E940E152396E6E00C9415
:102B10007834923019F41091CF03E0CF963011F051
:102B20009930E1F6022FDACFECECF3E043812AE0B2
:102B3000421B08F440E021E0628181810E9434154B
:102B40000895ECECF3E043812AE0420F08F44FEFE4
:102B500021E0628181810E9434150895ECECF3E05C
:102B6000628121E1621B08F460E021E04381818100
:102B70000E9434150895ECECF3E0628121E1620FCC
:102B800008F46FEF21E0438181810E94341508959C
:102B9000ECECF3E0818121E04381628181510E946C
:102BA00034150895ECECF3E0818121E043816281EA
:102BB0008F5E0E94341508958091D003882319F008
:102BC00081508093D0032091CC033091CD0340916C
:102BD000CE035091CF036091D0037091D1038091C7
:102BE000D2039091D3030E940E1508958091D003D3
:102BF000833018F48F5F8093D0032091CC03309101
:102C0000CD034091CE035091CF036091D0037091DA
:102C1000D1038091D2039091D3030E940E150895A1
:102C2000ECECF3E083E0808311828FEF828384E613
:102C300083831482A7EEB2E012968C911297836080
:102C400012968C93758123E030E04FEF54E660E0FC
:102C5000868197810E940E1508959091AE0292FB95
:102C6000222720F9281779F080FB92F99093AE0281
:102C70006091AD027091AE0284E090E00E946635F2
:102C800082E00E94530E089590E080E00E94323569
:102C9000863E9E4F19F40E948814089580E008959E
:102CA000B0E0A0E0E6E5F6E10C945B347901C82FD2
:102CB000880FDD0B41155105A9F0FE0193E0EE0FE1
:102CC000FF1F9A95E1F7E65FFE4F81819281885C54
:102CD0009D4F208130E04217530708F49A01A90163
:102CE0000E941B35CE010E94C633D82E8823D1F016
:102CF00001151105B9F083E0CC0FDD1F8A95E1F7CE
:102D0000FE01E65FFE4F438150E00417150708F40B
:102D1000A801C65FDE4F6C817D81685C7D4FC70175
:102D20000E941B358D2DCDB7DEB7E7E00C947734CC
:102D3000A5E0B0E0EEE9F6E10C9458348D83E62E80
:102D40005A01F22E6801809163068A3028F080E0F3
:102D50002596EAE00C9474348D818930C4F31A828C
:102D600019828A836B832C8363E070E0CE01029624
:102D70000E9488078983E0923A01F0924D0110E0A9
:102D800000E030E020E044E050E0BE016F5F7F4FA4
:102D900085E00E9450168823D1F24E2D50E030E09D
:102DA00020E0B50186E00E945016882381F230E0D1
:102DB00020E041E050E0BE016B5F7F4F87E00E9462
:102DC0005016882321F20F2D10E0960150E040E0CC
:102DD00070E060E088E00E945016BACFA4E0B0E056
:102DE000E4EFF6E10C945E3440919B0250919C021A
:102DF00060919D0270919E022FB7F8948091020419
:102E000090910304A0910404B09105042FBF841B8A
:102E1000950BA60BB70B11E084369105A105B10502
:102E200018F10E94300D6E5F7F4F8F4F9F4F698367
:102E30007A838B839C8310E000E030E020E044E064
:102E400050E0BE016F5F7F4F82E00E945016182F46
:102E5000882351F00E947C0760939B0270939C0230
:102E600080939D0290939E02812F2496E4E00C941F
:102E70007A34A6E0B0E0EFE3F7E10C945C347B0138
:102E800001E010E09E012A5F3F4F50E040E070E01B
:102E900060E080E00E945016182F882309F453C088
:102EA00040919702509198026091990270919A0214
:102EB0002FB7F8948091020490910304A091040428
:102EC000B09105042FBF841B950BA60BB70B84365E
:102ED0009105A105B10548F465E070E089E392E051
:102EE0000E9488079E81891771F105E010E09E011C
:102EF0002F5F3F4F50E040E070E060E081E00E94D3
:102F00005016082F65E070E089E392E00E94880780
:102F100011E09E81981310E0102301F10E947C07BC
:102F200060939702709398028093990290939A020B
:102F300085E0FE013196A2E9B2E001900D928A95FA
:102F4000E1F711E00BC085E0E9E3F2E0DE01119664
:102F500001900D928A95E1F71111EACF85E0E2E93F
:102F6000F2E0D70101900D928A95E1F7812F269624
:102F7000E6E00C9478348F929F92AF92BF92EF92DA
:102F8000FF920F931F93CF937B01942FB901A80158
:102F9000F70180809180A280B380EFB7F894009110
:102FA0000204109103042091040430910504EFBF42
:102FB000081919092A093B090436110521053105AB
:102FC00018F4C1E0992381F010E000E030E020E047
:102FD0000E945016C82F882339F00E947C07F70101
:102FE00060837183828393838C2FCF911F910F9184
:102FF000FF90EF90BF90AF909F908F900895A1E0C9
:10300000B0E0E5E0F8E10C945E348091FB03898345
:1030100020914D0290E041E02817190609F440E0A4
:1030200001E010E09E012F5F3F4F63EA72E084E011
:103030000E94BB172196E4E00C947A34ABE0B0E038
:10304000E4E2F8E10C945E3488E0ECECF3E0DE01BD
:10305000119601900D928A95E1F78091E702909187
:10306000E802A091E90289879A87AB8741E08B85C6
:10307000811101C040E00BE010E09E012F5F3F4F47
:103080006FE972E083E00E94BB1781111092E902A0
:103090002B96E4E00C947A340E944A0D8093090147
:1030A00080910901882359F01092730181E2809385
:1030B00074010E94FA0C81110E94DA32089581E2B3
:1030C000809373018AE2F3CFA8E0B0E0EAE6F8E18A
:1030D0000C94603466EE7EEF90E080E00E946635EE
:1030E00060E082E090E00E94483560E083E090E09C
:1030F0000E9448351092340260E074E184E090E070
:103100000E94663560E086E090E00E9448356FEFEF
:1031100087E090E00E94483540E050E0BA0188E046
:1031200090E00E945A3560E084E290E00E944835C9
:1031300060E087E190E00E94483560E08CE090E03C
:103140000E94483560E08DE090E00E944835198289
:103150001A821B821C821D821E821F82188648E0F2
:1031600050E068E170E0CE0101960E94383540E001
:1031700050E0BA0180E290E00E945A3580E00E945F
:1031800095130E94AE1340E050E0BA018FE090E04A
:103190000E945A3540E050E0BA0183E190E00E947D
:1031A0005A352896E2E00C947C3428E030E043E085
:1031B00060E087EF0E94C2300895CF93DF93D82F4D
:1031C000C62F0E94D5188D2F80680E943A318C2F0F
:1031D0000E943A318AEB8A95F1F700C00E946A3169
:1031E00083E492E00197F1F700C00000DF91CF91F6
:1031F0000895682F843208F063E26093900191E0B3
:103200009093910190918401992339F0615081113B
:1032100001C064E08FE00E94DD180895FB01808109
:103220000E94F918089590919001911101C095E0C4
:10323000282F880F330BA901490F511DCA011816F9
:10324000190614F081E090E00E94F9180895ACE0AE
:10325000B0E0EDE2F9E10C945A344F835887698766
:103260007A878B879C8780918401882309F446C0E4
:103270008091FF01811107C060E080E50E94DD18A8
:1032800081E08093FF010E94D51880E50E943A31C9
:103290008AEB8A95F1F700C00E9452310E945231A8
:1032A0000E9452317C010E94523120E0E22AF82A29
:1032B0000E9452318C010E94523120E0022B182BC7
:1032C0000E946A3185E08A95F1F70000F894B70111
:1032D00080918801909189010E940A0B9093890145
:1032E00080938801B80180918A0190918B010E949E
:1032F0000A0B90938B0180938A0178940E94FA0CB8
:10330000882309F468C00E947C0700910002109194
:10331000010220910202309103026B017C01C01A6C
:10332000D10AE20AF30A9701860108301105210546
:10333000310508F450C0609300027093010280933D
:103340000202909303020091930110919401209145
:10335000950130919601601B710B820B930B6233C8
:1033600071058105910580F4109289011092880100
:1033700010928B0110928A0110928D0110928C0193
:1033800010928F0110928E01109192010E944A0DAD
:10339000212F482FBE01695F7F4F88E891E00E948E
:1033A000480A109192018091840118270E944A0DC9
:1033B00041E04827212FBE01695F7F4F8CE891E0F3
:1033C0000E94480A86E0FE013796ADE9B1E001901F
:1033D0000D928A95E1F786E0FE013796DE0111969F
:1033E00001900D928A95E1F729813A814B815C81A8
:1033F0006D817E8180E090E02C96E8E00C9476343C
:10340000CF93C82F0E94D5188C2F0E943A318FE796
:1034100092E00197F1F700C000000E945231C82FDE
:1034200095E09A95F1F700000E946A3185E68A9549
:10343000F1F700001092FF018C2FCF910895CF93E8
:10344000DF930E94BA30879A0E94D5186AE58AE312
:103450000E94DD182FEF80E792E0215080409040DD
:10346000E1F700C0000082E00E94001A83E00E94A1
:10347000001A84E00E94001A85E00E94001A86E08B
:103480000E94001A60E080E10E94DD1880E00E9446
:10349000001AD82F81E00E94001AC82F0E946A31BA
:1034A000D23419F481E0C13009F080E0817080935A
:1034B0008401882321F064E08FE00E94DD18DF9111
:1034C000CF9108951F920F920FB60F9211242F9350
:1034D0003F934F935F936F937F938F939F93AF939C
:1034E000BF93CF93DF93EF93FF93D091E900DF7009
:1034F0008091EC00C82FC17080FDC0E81092E900F7
:103500008091F000877F8093F00078940E94850F6F
:103510001092E9008091F00088608093F000CD2B3C
:10352000CF70C093E900FF91EF91DF91CF91BF91F0
:10353000AF919F918F917F916F915F914F913F914B
:103540002F910F900FBE0F901F9018951F920F9202
:103550000FB60F9211242F933F934F935F936F9366
:103560007F938F939F93AF93BF93EF93FF9380913C
:10357000E10082FF09C08091E20082FF05C08091D6
:10358000E1008B7F8093E1008091DA0080FF24C00E
:103590008091D80080FF20C08091DA008E7F8093D8
:1035A000DA008091D90080FF9DC080E189BD82E171
:1035B00089BD09B400FEFDCF81E0809314048091A1
:1035C0000604811109C00E940C060E94AD0680917C
:1035D000E20084608093E2008091E10080FF17C0E8
:1035E0008091E20080FF13C08091E2008E7F809383
:1035F000E2008091E20080618093E2008091D80037
:1036000080628093D80019BC85E080931404809177
:10361000E10084FF2BC08091E20084FF27C080E19D
:1036200089BD82E189BD89B5982F917080FFFBCF5C
:103630008091D8008F7D8093D8008091E1008F7EAB
:103640008093E1008091E2008F7E8093E200809180
:10365000E20081608093E20080911504882309F4E0
:1036600047C084E080931404809114048091E100A9
:1036700083FF27C08091E20083FF23C08091E10097
:10368000877F8093E10082E08093140410921504F8
:103690008091E1008E7F8093E1008091E2008E7F37
:1036A0008093E2008091E20080618093E20042E03A
:1036B00060E080E00E947B068091F000886080934B
:1036C000F000FF91EF91BF91AF919F918F917F910A
:1036D0006F915F914F913F912F910F900FBE0F907F
:1036E0001F90189519BC109214041092060474CF00
:1036F0008091E30087FD93E090931404B5CF789414
:103700001F921FB61F9211248F939F93AF93BF9365
:103710008091020490910304A0910404B0910504E7
:103720000196A11DB11D8093020490930304A09300
:103730000404B0930504BF91AF919F918F911F90A6
:103740001FBE1F9018959C014FB7F89480910204FA
:1037500090910304A0910404B09105044FBF821B13
:10376000930B08952FB7F89480910204909103046D
:10377000A0910404B09105042FBF08952F923F92A9
:103780005F926F927F928F929F92AF92BF92CF92F1
:10379000DF92EF92FF920F931F93CF93DF9380916D
:1037A000FE03882309F403C18091FC039091FD037B
:1037B0000E94A31BC29708F4DAC00E94B21B909328
:1037C000FD038093FC038BE594E090936206809365
:1037D00061060E94FA0C882309F401C185E794E090
:1037E0000E94FC0EC1E0D0E08091D403882309F44C
:1037F000A0C090E00C2E02C0959587950A94E2F740
:1038000080FF97C08C2F0E94D80A0E94760E2196C6
:10381000C830D10549F780E20E94760E82E794E035
:103820000E94FC0E80917801882309F484C08EE800
:1038300094E00E94FC0E80917A0190917B016AE0F5
:1038400070E00E943C34862F0E94DF0A01960E949D
:103850000A1380E30E94760E81E894E00E94FC0E39
:1038600088EB0E94760E80919C010E94D80A0E94EB
:10387000760E89EB0E94760E80919B010E94D80AF9
:103880000E94760E8EE794E00E94FC0E80919901D2
:1038900090919A0154E0969587955A95E1F70E9488
:1038A000D80A0E94760E809199010E94D80A0E943F
:1038B000760E8BE794E00E94FC0E83EA91E00E9472
:1038C0000A1386EA94E00E94FC0E80919F010E94F8
:1038D000DF0A0E940A138091A0010E94DF0A0E9461
:1038E0000A138091A2010E94DF0A0E940A138091AC
:1038F000A1010E94DF0A0E940A138EE994E00E944F
:10390000FC0E80919001811101C085E00E94DF0AC8
:1039100001960E940A138AE994E00E94FC0E8091AD
:103920009801882359F0813009F453C081E994E06B
:1039300007C080EB6ACF8BE894E07BCF87E994E007
:103940000E94FC0E80919201882309F445C08EE804
:1039500094E00E94FC0E87E894E00E94FC0E8091A7
:103960009701811101C084E0805D0E94760E8091F4
:10397000590490915A04892B09F047C08091FB03A8
:103980008823A9F00E947C070091F7031091F803A7
:103990002091F9033091FA03601B710B820B930B9A
:1039A0006F3F7F4F8F4F9F4710F40E94CB14DF91E2
:1039B000CF911F910F91FF90EF90DF90CF90BF902C
:1039C000AF909F908F907F906F905F903F902F90DF
:1039D000089584E994E0B4CF8BE894E0BACFC0E9CD
:1039E000D0EFDC0F8CEA94E00E94FC0E11E01D0F7A
:1039F0008D2F0E94760ED12F1C13F8CF80E00E94ED
:103A00000A0FC05FC03C61F7B2CF8091FE038823EC
:103A100009F4B4CF8091F6038111B0CF0E94E6146F
:103A20002091590430915A042115310509F4A6CF8B
:103A300080E041E050E0082F10E01A01082E02C09B
:103A4000220C331C0A94E2F7B10162237323672B23
:103A500011F48F5FF0CF9091F50390FF95C0880F20
:103A6000880F880F8093AC011092AF01895F80931B
:103A7000AD0183E08093B00124E630E047E050E000
:103A80006AEA71E088E70E943432892B09F076CF28
:103A9000A80125E0440F551F2A95E1F78091F50311
:103AA00080FF84C0E5EDF3E080E2DF011D928A959E
:103AB000E9F7A3EDB1E00FEC11E087EDC82E81E04E
:103AC000D82E97E0592E772473948D91E80129918F
:103AD0008E01240F352F311D255A3B4FE82FF0E082
:103AE000EB52FC4F90E080E0652C681A872C082E82
:103AF00001C0880C0A94EAF77901A12CE701B9907A
:103B00007E01B820662D6A196770962E062E000C6D
:103B1000770BDB2D01C0DD0F9A94EAF77195619563
:103B200071096770772701C0B6946A95EAF7BD2AD4
:103B30006081962E9B289082A39468E0A612DECF27
:103B4000019631968830910579F6CA16DB0609F0A0
:103B5000BCCF04E610E020E230E045ED53E060E445
:103B600088E70E945532892B09F008CFE101C09502
:103B7000D0958091590490915A04C823D923D093A9
:103B80005A04C0935904FACE8295880F80768093A8
:103B9000AC01980136952795369527952093AF016E
:103BA000815E8093AD012093B00166CF455A5B4F93
:103BB00004E610E020E230E0D2CFAEE1B0E0E3EE88
:103BC000FDE10C945F344091DA025091DB02609188
:103BD000DC027091DD028091DE029091DF020E9492
:103BE00027192093DA023093DB024093DC025093D2
:103BF000DD026093DE027093DF0286E0EAEDF2E020
:103C0000DE01179601900D928A95E1F786E0FE019C
:103C10003796DE011D9601900D928A95E1F786E0B8
:103C2000FE013D96DE01119601900D928A95E1F715
:103C300086E0FE013196AAEDB2E001900D928A95E0
:103C4000E1F786E0EAEDF2E0DE01599601900D928F
:103C50008A95E1F786E0FE017996DE0117960190DC
:103C60000D928A95E1F786E0FE013796DE01119606
:103C700001900D928A95E1F786E0FE013196DE0112
:103C8000539601900D928A95E1F786E0FE017396B6
:103C9000DE01179601900D928A95E1F786E0FE010C
:103CA0003796AAEDB2E001900D928A95E1F786E091
:103CB000EAEDF2E0DE01179601900D928A95E1F7A8
:103CC00080917801882309F445C080917D0190910D
:103CD0007E010E94A31B20917C0128171906D0F5B4
:103CE00080917F01909180010E94A31B893C9105E6
:103CF00088F18A859985892B9B85892B9C85892BC1
:103D00009885892B91E009F490E0909381010E94BD
:103D100080081091D403882351F10E94B21B909324
:103D20007E0180937D011092800110927F0180912D
:103D30007901111105C0882369F00E946A0E0AC03A
:103D4000212F30E0082E02C0359527950A94E2F71E
:103D500020FFF3CF0E94880D81112FC08091D902DE
:103D60001092D90281706E96E3E00C947B348091BE
:103D70007901111118C08111EDCF80917D019091D1
:103D80007E010E94A31B20917A0130917B012817AC
:103D9000390700F7809179010E94460E10927E014A
:103DA00010927D01D7CF212F30E002C035952795A5
:103DB0008A95E2F720FFCECFE0CF81E090E0D0CF30
:103DC0000E94FA0C882319F00E94B21B08950E94E9
:103DD000300DCB0108956091CC03669570E041E011
:103DE00050E082E791E00E940135892B19F481E0CF
:103DF0008093E8020E94E01E9093E2028093E10229
:103E00008091E90284608093E90208959091CC0347
:103E100090FF39C09170811137C092609093CC03AC
:103E20008091E90281608093E902662391F02091FC
:103E3000CC033091CD034091CE035091CF036091DC
:103E4000D0037091D1038091D2039091D3030E944B
:103E50000E156091CC03669570E041E050E082E77A
:103E600091E00E940135892BB1F00E94A40781E006
:103E70008093E40220E04091CF036091CE038091D3
:103E8000CD030E9434150895803110F09E61C6CF95
:103E9000880F982BC3CF0E94EB1EE9CF8091CC03F3
:103EA0008695815009F48FE061E00E94061F089515
:103EB0008091CC0386958F5F803108F081E061E0CE
:103EC0000E94061F08959091CC0390FF08C096951C
:103ED000981728F0961718F40E94581F089561E06B
:103EE0000E94061F0895A8E0B0E0E9E7FFE10C9406
:103EF00052348C01DC0114968C911497882309F4B8
:103F0000BDC021E04C9111965C91119712966C9175
:103F1000129713967C91139715969C910E945A14B0
:103F20007C01F801D580DD2009F469C197578038FC
:103F3000910508F064C1FFE0FE1508F48FC08FEF13
:103F400093E00E942435811189C0E9EBAE2EE2E0B6
:103F5000BE2EE1104DC0FE01339686E0DF011D92BA
:103F60008A95E9F77AE0472E7501BFEFEB1AFB0A55
:103F7000C5010E94243589831A82882309F46EC002
:103F8000813009F07FC06501E2E0CE0ED11CC7018F
:103F90000E9424358A83882309F460C09FEF980F1C
:103FA0009330A0F5F3E0AF0EB11CC6010E9424359A
:103FB0008B83882309F452C01C82DE0111967D0197
:103FC000F7012081222381F2213009F0BAC09181CA
:103FD0008281913009F058C0F2E0EF0EF11C65E0EB
:103FE00070E0893311F460E570E00E94F41253C070
:103FF000A11424E0B20691F1C5010E94243581117B
:1040000001C0EA943FEFA31AB30AA3CF560184304C
:10401000A1F662E0E62EF12C56012FEFA21AB20AA9
:10402000C6010E942435E1E0F0E0EC0FFD1FEE0D2B
:10403000FF1D8083882391F08C3741F4E2E0F0E0AB
:10404000EC0FFD1FEE0DFF1D1082B7CF3FEFE31AFF
:10405000F30A650187E0E816F104F1F68091E002C9
:10406000877061F0D80115968C91882339F0809182
:10407000AE0282FF03C082E00E94530E2896E0E168
:104080000C946E34570199CF923039F522E0E20E4C
:10409000F11C0E949A12FFEFEF1AFF0A8FE99FE0CE
:1040A0000197F1F700C00000AFE9BFE01197F1F709
:1040B00000C00000EFE9FFE03197F1F700C0000019
:1040C0008FE99FE00197F1F700C00000AFE9BFE082
:1040D0001197F1F700C0000073CF933031F432E054
:1040E000E30EF11C0E946E12D6CF943021F08FEFB8
:1040F000E81AF80AD0CF92E0E90EF11C30E020E097
:10410000B7016F5F7F4FD70111964C918053990B88
:104110008A30910558F02150310908F4BCCFEFE9FD
:10412000FFE03197F1F700C00000F5CF429EF001AB
:10413000439EF00D11249C012E0F3F1F842F7B0105
:10414000DFCFE22FF0E0E557FE4F5490822F8695A7
:104150008695869590E0FC01E558FE4F64902770A7
:10416000712C022E02C0759467940A94E2F731E034
:1041700063227724FC01E559FE4F8490912C022E96
:1041800002C0959487940A94E2F7A1E08A229924C8
:10419000FC01E55AFE4FC490D12C02C0D594C794BF
:1041A0002A95E2F7B1E0CB22DD246114710419F005
:1041B00081EE0E949A128114910419F086EE0E94F9
:1041C0009A12E9E365E070E05E1202C060E570E01B
:1041D000852D0E94F4128114910419F086EE0E943C
:1041E0006E126114710419F081EE0E946E12C114F6
:1041F000D10409F450CF65E070E08CE2F6CE8091F6
:104200007801882309F46FC0B0E2EB16B2E5FB0633
:1042100008F052C0E114E2E5FE0608F0B7C0E11470
:10422000F0E4FF06E0F5E11420E2F20608F0DAC05F
:1042300030EEE316F10450F088EEE816F10408F4CD
:104240004DC0E11491E0F90608F048C0F8018481FE
:10425000882309F443C0F7E0EF16FEE7FF0609F4F0
:10426000ACC0C7018D5C9109439708F4A6C00E94B9
:104270008008811133C0DD2059F0809179012091AF
:10428000D4032111B6C0882309F4BCC00E94620D7A
:104290000E94B21B9093800180937F011FC0E114A4
:1042A000A0E5FA0608F08DC0F8018681807F09F04C
:1042B00099C08F2D99278BC0B0E8EB16B2E5FB06AD
:1042C00008F03BC0E0E6EE16E2E5FE0608F05EC050
:1042D000F0E4EF16F2E5FF0608F466C08091830172
:1042E00087FD10928301F0929A01E0929901D80122
:1042F0008D919C91119790939C0180939B01F70164
:104300003497E533F10508F086C0E55FFD4FE49191
:1043100015968C9120EB811102C02E2FE0EBA3EAC1
:10432000B1E090E080E03D9132136FC08C579E4F1A
:10433000DC015F96EC93F70175C020ECE21622E5F4
:10434000F20660F230EEE31632E5F30608F07ECFB7
:1043500020917901C7018F7199272817190609F053
:10436000BDCF8D2D0E945708D80116968C911697B7
:10437000807F803509F0B2CF15968C91882361F14A
:1043800080918301815080938301A8CF209179018E
:10439000C7018F7199272817190609F09FCFD110EF
:1043A0009DCF0E9465089ACF20917901C7018F7136
:1043B00099272817190609F091CF8D2D0E945708CB
:1043C0008DCFC70155E0969587955A95E1F78F7087
:1043D000992720917901EDCF0E9465088091830192
:1043E0008F5FD1CFD80116968C91807F09F476CF5C
:1043F0002DCF30E0082E02C0359527950A94E2F7BC
:1044000020FF44CF0E94460E41CF01968630910591
:1044100009F089CF90CFC7019A95F70181159F4187
:1044200008F4FF27D80115968C91E13DF10538F08D
:10443000E93DF10570F0E730BEE7FB0709F188239D
:1044400061F0FE57E031F10540F4E857FA4C0C9466
:10445000B534682F8E2F0E94E10DD80115968C91EE
:104460008111A7C3809107048272F701E052F847D7
:10447000E531F10508F0F6C0E856FA4C0C94B53475
:104480000E942F0AEACF80E00E94F918109297014B
:1044900080E00E947F0D8AE892E00E94710DDECDDF
:1044A000409190012091970120FB47F926952370B8
:1044B0008091780180FB22F980917A0190917B01B3
:1044C00062E370E00E943C345FEF560F550F550FCA
:1044D000550F522B60919801637070E08FE090E06F
:1044E0000E945A35BBCD81E00E941319B7CD8FEFE2
:1044F000FBCF8AE0F9CF86EFF7CF9091920181E070
:1045000089270E942F0AAACD80919701811101C0AD
:1045100084E08F5F18160CF081E0883008F087E0A7
:10452000809397019BCD80919701811101C084E018
:104530008150F0CF81E08093980190CD1092980146
:104540008DCD82E0F8CF9091780181E089270E949B
:104550007F0D84CD80917A0190917B01C296893E36
:10456000E3E09E0708F499CF88EE93E096CF809120
:104570007A0190917B01C2978436910508F08DCF26
:1045800084E690E08ACF8091CC0380FF1EC0282F64
:104590002E7F2093CC033091CD034091CE035091D8
:1045A000CF036091D0037091D1038091D203909199
:1045B000D3030E940E150E94A4078091E902816036
:1045C0008093E9020E94CF0B49CD81608093CC0398
:1045D00061E086950E94061F41CD4EE45FE168E5EB
:1045E0007FE10E949E073ACD48E55FE16EE47FE1FE
:1045F000F8CF48EC55E162ED75E1F3CF42ED55E1BE
:1046000068EC75E1EECF4EEA55E16BEB75E1E9CF71
:104610004BEB55E16EEA75E1E4CF44E955E161EA1F
:1046200075E1DFCF41EA55E164E975E1DACF4CEDA0
:1046300055E166EF75E1D5CF46EF55E16CED75E1DB
:10464000D0CF61E081E0C6CF65E082E00E94631FC9
:1046500005CD68E086E0FACF6EE089E0F7CF61E053
:104660008FE0B8CFB7E7EB16BCE7FB0609F460C0F4
:10467000E8E7EE16ECE7FE0609F45EC0F801858176
:10468000E080F180882309F49FC0C7010E94FB13DA
:10469000D82E682FC7010E94E509B7018D2D0E9411
:1046A000ED130E94D1087C01882ED8011596AC909C
:1046B000159716969C9092943FE093228091E00289
:1046C0008770F1F0CA2CAA20E1F08F2D807F803412
:1046D00051F080E28E0D883098F0911004C08F2D3B
:1046E000807E803269F08091AE0282FF09C082E054
:1046F0000E94530E8091E0028770CC24C3948111F4
:10470000C12CBF2CB2942FE0B222BBE0BB1508F441
:10471000C3C0EB2DF0E0E355FA4C0C94B53481E0C6
:104720000E946A0E43E062E081E00E94260E96CC71
:1047300081E00E94460EF6CF82E0FBCFF3E0EF1659
:10474000FCE7FF0671F160F4E1143CE7F306D1F0F9
:1047500081E0E8168CE7F80609F090CF0E94451238
:104760009BE5E9169CE7F90669F1ACE5EA16ACE7CA
:10477000FA06F1F0BAE5EB16BCE7FB0609F07ECFCE
:1047800081E01DC0109207040E94790FEFEFF4E35F
:104790002CE0E150F0402040E1F700C000000E9412
:1047A0006B076FEF7FEF90E080E00E946635D6CF19
:1047B0008091AE0282FB882780F991E089270E94D0
:1047C0002D165CCF80E0FBCFC7010E94B109D82E27
:1047D00064CFEF2DEF70DE2E8F2D807F19F0D294F5
:1047E00090EFD922AA20B9F0DD2069F080E28E0D89
:1047F000883010F0811009C080910704D82AD09227
:1048000007040E943C0F8E2D45C080913302D82AA8
:10481000D0923302F6CF8E2D0E946E12DD20E1F190
:1048200080E28E0D883010F0811004C08D2D0E9422
:10483000A00906C0D09480913302D822D0923302CE
:104840000E943C0F29C0FF2DFF70DF2E8F2D807F2F
:10485000803219F0D29480EFD822882059F021E0DC
:10486000821609F481C0AA2009F48DC0992009F4A8
:104870004FC0C9CF8091AE0282FD46C0AA20F1F19F
:10488000DD2039F080910704D82AD09207040E94D5
:104890003C0F80E00E949A12AB2DA850BB0B1497DE
:1048A00010F40E941F0DCC20A9F08091E00280FD41
:1048B00011C0F80115828695869586950E946A0E2C
:1048C000C8010E94731F8091E002869586958695A7
:1048D0000E94460E20E0D8014C9111965C911197F0
:1048E00012966C91129713967C91139714968C9153
:1048F000149715969C910E945A14C0CB80E00E9498
:104900006E12DD2049F292CFAA20A1F0911004C0CE
:104910008D2D0E946412C0CF31E09312BDCF8091E3
:1049200032029D2D9823D91609F4B6CFD82AD092F9
:104930003202B2CF9110B0CF8D2D0E945D129091B6
:1049400032028D2D892329F08D2D80958923809326
:104950003202809104029D2D982309F49DCFD094BA
:10496000D822D092040298CFAA2029F085E0891598
:1049700008F492CFCDCF94E0991508F48DCF8D2D0A
:104980000E945D1289CF9920D1F3A9E38A1209C14F
:10499000BFEFE7EEF3E0B150E040F040E1F700C0D8
:1049A00000008E2D0E946E1277CF6A2D8E2D0E94F0
:1049B000E10D72CF8F2D837091F5A1106DCF4E2D2B
:1049C000429546954770440F440F8E2D8F70042EEC
:1049D00001C0880F0A94EAF72E2D2071E4FE07C06B
:1049E0002FE030E001C0220F4A95EAF720953F2DD5
:1049F000369536953370323069F050F44091340278
:104A0000313029F0822B84230E941B0A45CF842B4E
:104A1000822BFACF282B809134028227F5CF8695FE
:104A2000AA2011F08F2D8170882309F435CF4E2DE7
:104A3000429546954770440F440F8E2D8F70042E7B
:104A400001C0880F0A94EAF72E2D2071E4FE07C0FA
:104A50002FE030E001C0220F4A95EAF720953F2D64
:104A6000369536953370323069F050F44091D40366
:104A7000313029F0822B84230E94210E0DCF842B0C
:104A8000822BFACF282B8091D4038227F5CF9F2D3C
:104A90009F70F92EAA2029F0892F0E946A0E8E2D70
:104AA00038CF8E2D0E945D128F2D0E94460EF4CEBF
:104AB0008E2DA2EF8A16B1F1A81570F0B0EF8B160B
:104AC000D1F0E1EF8E1691F0AA2009F45EC09110AA
:104AD0009ACE8F2D8F712AC0F3EF8F1651F124EFEC
:104AE0008212F2CF8091AE0282FD2FC08F2D8F7186
:104AF000AA20D9F21BC0AA2081F034E0391508F4AD
:104B0000CBCE2F2D2F7181E090E001C0880F2A9528
:104B1000EAF79091D4038927AFCF85E0891508F48F
:104B2000BBCEEFCF8F2D8F71A110BFCF0E946A0E29
:104B3000B3CE80E0AA2009F49FCF9F2D9F7181E022
:104B400001C0880F9A95EAF797CFAA2099F09F2D78
:104B50009F71F92E892F0E946A0E8091AE0282FF0A
:104B600007C0A8E0FA9EC001112483608093E00290
:104B70008F2DDCCF81E00E94530EB1E0B91508F013
:104B80008BCE82E00E94530E87CE992079F0893334
:104B900041F4EFEFF7EE23E0E150F0402040E1F781
:104BA000FECE8FE19EE40197F1F7F9CE8F2D8F7144
:104BB0007CCFB7E7EB16BCE7FB0609F4B0CDE8E71E
:104BC000EE16ECE7FE0609F0B9CD82E0A9CDCF9351
:104BD000DF9380912902807F09F04DC080912802E7
:104BE000882309F448C0E091570450911E04C091F5
:104BF0002402D0912302609125027091260247E0A1
:104C00005E17C9F18E2F90E0E49FF0011124E15E60
:104C1000FB4F2481222391F1489FF001499FF00D21
:104C20001124DF01A15EBB4F11962C9111972C131B
:104C300025C02C912D1322C015962C91159721116A
:104C40001DC012962D913C91261B370B283C310537
:104C5000A8F4809129028F70806180932902EB5D16
:104C6000FB4F80818F708061808383E292E00E949D
:104C7000731F0E94A709DF91CF910895FC0131961F
:104C8000E770BECFA4E1B0E0E8E4F6E20C9456345D
:104C90008C0186E0F801DE011F9601900D928A9545
:104CA000E1F7F8018481E58093E2A92E92E0B92E24
:104CB00090912702911128C0882319F1EE20F1F07C
:104CC000C8010E943714F82E8823C1F087E0F8014C
:104CD000D50101900D928A95E1F7809127028130EC
:104CE00031F480912302909124020E942A140E94A0
:104CF000E7258F2D6496ECE00C947234C8010E9475
:104D0000731FFF24F394F5CFD080C18082809380FD
:104D1000F09028022091250230912602A401421B26
:104D2000530BFF2009F4D9C0483C510508F092C04C
:104D30008823F9F29091240280912902282F207F64
:104D400009F056C0C91214C090912302D91210C0A4
:104D5000E11048C08F7080618093290283E292E065
:104D60000E94731F80912902F8018683F12CC1CF24
:104D7000E11038C06C2D8D2D0E94ED056C2D8D2D10
:104D80000E94ED05E82E8111F1CFDF86C88A8F855C
:104D900098890E942A14292F22952F70243058F4C4
:104DA0009F70223088F0992399F0F8019681907FC6
:104DB00079F4FE2C9ECF2A5F2F70223068F0C80154
:104DC0000E94731FEF2CF5CF992311F0882389F3EC
:104DD000805E883070F3F3CF803F58F3815F83307B
:104DE00070F7E7CF80912902816080932902BECFBE
:104DF000C91207C090912302D91203C0EE2009F412
:104E00008DC0C8010E943714882309F477CFEE20A3
:104E100009F474CF80912902803288F02091230216
:104E200030912402398728879B868A8690912702B1
:104E30009C871D868E87CE0108960E94731F87E08F
:104E4000F801A3E2B2E001900D928A95E1F70E9489
:104E5000E72557CF90912902292F207F51F483E233
:104E600092E00E94731F87E0F50111928A95E9F79D
:104E70007DCF882309F43DCF809124028C1110C08E
:104E800080912302D8120CC0E1100AC09683C80199
:104E90000E94731F87E0F50111928A95E9F729CFE7
:104EA000C8010E943714882309F428CFEE2009F4A2
:104EB00025CF80912902803210F220912302309177
:104EC00024023A8329839C828B82909127029D83BE
:104ED0001E828F83CE010196B0CF483C5105D0F69B
:104EE000882309F40ECFFE2CEE2009F407CF809121
:104EF00024028C1120C080912302D8121CC0809102
:104F0000290280FD0FC0982F907F61F08683903F2B
:104F100031F0982F907F905F8F70892B8683C80126
:104F20000E94731F87E0F801A3E2B2E001900D92A6
:104F30008A95E1F7DECEC8010E94371481117FCF38
:104F400080912902816080932902C8010E94731F09
:104F5000D0CEABE1B0E0EFEAF7E20C945E344E8BDA
:104F60005F8B688F798F8A8F9B8F192F9111109289
:104F700033021D8A86E0FE017696DE011F960190BF
:104F80000D928A95E1F70A8D002341F021E04F85CB
:104F9000588969897A89C8010E945A140B8B1C8B25
:104FA00087E0FE013F96DE01189601900D928A95EA
:104FB000E1F7CE0108960E94422681110CC087E0DD
:104FC000FE013896DE01119601900D928A95E1F767
:104FD0008C8581110BC017E08091570490911E04BD
:104FE000891333C06B96E4E00C947A3420911E044C
:104FF00030E0C901019687709927409157044817FE
:10500000190699F097E0929FD001939FB00D11245B
:10501000A15EBB4FFE01319601900D929A95E1F78A
:1050200080931E040E94A709D6CF109207040E9405
:10503000790F10921E041092570487E0E3E2F2E029
:10504000DF011D928A95E9F7C6CF819FC001112427
:10505000815E9B4F0E944226882321F28091570453
:1050600090E001968770992780935704B5CFA6E00A
:10507000B0E0EDE3F8E20C945E340E94B21B8C01C8
:1050800080913502909136028017910781F0198244
:105090001A820E94B21B682F49815A81792F80E0C1
:1050A00090E00E94A92710933602009335022696BD
:1050B000E4E00C947A34ABE0B0E0E1E6F8E20C9482
:1050C0005234CE0101967C018AE0D7011D928A9567
:1050D000E9F73701570190E0C92E91E0D92E442419
:1050E0004394512CF60181916F010E941D0B00C069
:1050F00085E0882E81E0982EF40110E000E02191F7
:10510000A22FA295AF70B0E090968C9190E02F7096
:1051100002C0959587952A95E2F780FD0AC0D501D2
:105120008C919201002E01C0220F0A94EAF7822B83
:105130008C930F5F1F4F0430110509F7F60131976B
:1051400080810E94310BB0EABA95F1F7EFEFAE1A09
:10515000BE0AF5E0CF16F1E0DF0621F6DD24D39498
:10516000D4018D914D010E941D0B00C03D2D002EDC
:1051700001C0330F0A94EAF7F70140E051E0DA0189
:105180002D91AD01822F82958F7090E0DC01909679
:105190008C9190E02F7002C0959587952A95E2F743
:1051A00080FD03C08081832B80833196B1E0453040
:1051B0005B0729F7F401319780810E94310BE0EA07
:1051C000EA95F1F70F5F1F4F0830110549F6E4E645
:1051D000F6E097012B5F3F4FD12CD3018D913D011C
:1051E0009191891729F0DF0111978C93DD24D394D5
:1051F0002615370591F70091AC02DD2041F181E0E1
:105200008093F2010E94B21B9093F1018093F00110
:105210008091F0019091F1010E94A31B0597D8F0B5
:1052200010E001541D4F45E050E064E676E0C8010F
:105230000E940E35892B41F085E0E4E6F6E0D801C6
:1052400001900D928A95E1F71092F20104C08091CD
:10525000F2018111DDCF0E94FA0CC82EE091AC0260
:1052600081118EC0F0E0E154FD4F85E0A9E3B2E08A
:1052700001900D928A95E1F765E070E089E392E094
:105280000E9488078093380280903E0290903F02EF
:10529000A0904002B09041028091F3019091F401FE
:1052A000A091F501B091F60188169906AA06BB06F1
:1052B000D1F08092F3019092F401A092F501B092A6
:1052C000F6010E94FA0C81110EC00E947C07861A1A
:1052D000970AA80AB90A8092A7029092A802A092FF
:1052E000A902B092AA028BE0E2E4F2E0D7010190B9
:1052F0000D928A95E1F7809142028695F0904302E3
:10530000E0904402C090450200914B0210914C0283
:1053100010924C02112301F110FF0BC0998190FFF4
:1053200026C09091CC0391609093CC0360E00E94E2
:10533000061F11FF06C020E04C2D6E2D8F2D0E9400
:10534000341512FF04C00023A9F00E94EB1E13FFC6
:1053500003C081E08093E40280914D02882369F0CC
:105360000E94E6148D2D2B96E0E10C946E340E9481
:10537000EB0CDFCF0E94A407EACF0E94CB14F2CF40
:1053800029E636E085E0D9011D928A95E9F70E2FCE
:1053900010E001541D4F809163068A30E8F569E3FF
:1053A00077E1C8010E94460B882309F452C06EEED3
:1053B00076E1C8010E94460B882309F44AC06EE1D9
:1053C00078E1C8010E94460B882309F442C06FEFC0
:1053D00077E1C8010E94460B8823D9F11092630639
:1053E00081E08093F9010091AB0210E001541D4F60
:1053F00045E050E069E676E0C8010E940E35892B51
:1054000009F4B0CF85E0E9E6F6E0D80101900D920D
:105410008A95E1F7DC2CA6CF8091F7019091F801F5
:105420000E94A31B843F914008F0B9CF8091F901FD
:10543000882309F497CF1092F901E091AB02F0E0D4
:10544000E154FD4F95E0DF011D929A95E9F7D82EC2
:1054500089CF809163068F3F31F08F5F8093630621
:105460008A3008F4BDCF0E94B21B9093F80180935C
:10547000F701DCCF1F921FB61F9211248F939F93C9
:10548000AF93BF9380910104811113C080910204F6
:1054900090910304A0910404B09105044196A11DCC
:1054A000B11D8093020490930304A0930404B0936D
:1054B0000504BF91AF919F918F911F901FBE1F90C8
:1054C0001895CDB7DEB7A6970FB6F894DEBF0FBE1E
:1054D000CDBF85B7806885BF85B7806885BF84B735
:1054E000877F84BF0FB6F894A8958091600088618B
:1054F00080936000109260000FBE80E890E00FB6CD
:10550000F89480936100909361000FBE83EA98E065
:105510009093E7018093E6010E940C060E94AD067D
:105520008091E20084608093E2007894809114047A
:105530008823A1F01091E9001F709091EC00892F51
:10554000817090FD80E8182B1092E9008091E800AE
:1055500083FD0E94850F1F701093E90082E084BDD7
:1055600093E095BD9AEF97BD80936E001092A702CD
:105570001092A8021092A9021092AA020E94881406
:10558000811102C00E94AE130E944C188091090143
:105590000E944C18809105010E94310B80910601F8
:1055A0000E94310B809107010E94310B809108010C
:1055B0000E94310B00E011E0F5E0EF2EF1E0FF2E4C
:1055C000D8018D918D010E94310BE016F106C1F7D3
:1055D0008091090195E0811190E09093AC0285E003
:1055E000891B8093AB020E94FA0C811102C00E94B9
:1055F000DD32E4E6F6E0AFEBB2E011921D9226E078
:10560000EE36F207D1F70E944416811102C00E94C3
:10561000641882E090E00E9424358093B00284E018
:1056200090E00E9432359093AE028093AD020E94CA
:105630005B288FE39CE90197F1F700C000000E940E
:105640005B288091BF0280FF08C06FEF7FEF90E082
:1056500080E00E9466350E946B0783E090E00E9424
:1056600024350E941B0A8091D4030E94F80D0E94E9
:10567000FA0C882309F4A8C180E08093F50380E840
:10568000809358040E9494316BE070E087E592E0CB
:105690000E94A1148823E9F18091F50365E070E090
:1056A00081FD94C182E592E00E94A114882389F1D2
:1056B0006DE070E080E492E00E94A114882349F13B
:1056C0000E947C07605A75418F4F9F4F6093F7038C
:1056D0007093F8038093F9039093FA03EBE5F4E0F9
:1056E00080E092E0DF019C011D9221503040E1F703
:1056F000F0936206E09361068FEF9FEF90935A0458
:105700008093590481E08093FE038093FB03109201
:10571000F6038091AF02811178C00E944416811176
:1057200004C00E9464180E94101688E090E00E9455
:105730002C354B015C0184E290E00E942435282F37
:1057400030E040E050E060E070E080E090E000E2B7
:105750000E94C234282939294A295B292093CC0385
:105760003093CD034093CE035093CF036093D00387
:105770007093D1038093D2039093D3038091E90275
:1057800083608093E9022E7F89F50E94101688E0DD
:1057900090E00E942C356B017C0184E290E00E9435
:1057A0002435282F30E040E050E060E070E080E0F9
:1057B00090E00E94C234B22FA32FF42FE52F5B019B
:1057C00097018601BC29A12BFE29E32BB093CC03C2
:1057D000A093CD03F093CE03E093CF036093D00367
:1057E000B092D1038093D2039093D3030E94AB076E
:1057F0000E94A4078091CC0380FF04C060E08695DE
:105800000E94061F81E08093AF020E94FA0C811172
:1058100002C00E94DD320E941F1A0E94FA0C811100
:105820002EC083E49AE090935901809358012AE1B5
:1058300030E030935401209353018AE390E0909339
:105840005701809356014FE858E05093610140930F
:10585000600130935C0120935B0190935F01809322
:105860005E014EE059E15093690140936801309325
:1058700064012093630190936701809366010E9405
:105880004416882379F18FE090E00E942C358B013B
:10589000F82E862F8F770E94F918001F0027001F0F
:1058A000612F6370660F602B6093970112FB88274E
:1058B00080F90E947F0D812F887F09F48AC0169598
:1058C00016951695212F30E02F5F3F4F42E3429F00
:1058D000C001439F900D11240E94710D8F2D837084
:1058E000809398018AE691E0909300048093FF03EF
:1058F00078E1A72EB12CE9EC8E2EE2E09E2E80916D
:10590000140400E112E1853009F4A2C00E945B2872
:1059100001EB12E065EBE62E61E0F62EB7012FEB0E
:1059200032E0F8019191D9018D919D01DB014D91FA
:10593000BD018423B2E0EB3BFB0709F495C0981747
:1059400089F30E94FA0C282E5FEBC52E52E0D52E6B
:10595000612CF60171906F01D7018D917D01782244
:10596000F80131908F01371431F13724512C442440
:105970004394832D8421B9F02220A9F059A26AA270
:105980000E94B21B9CA38BA3F1E0FDA391E0872DA5
:10599000842109F490E09EA349A15AA16BA17CA1A6
:1059A0008DA10E94A9275394440C28E05212E1CF04
:1059B000F8013197708263943AE06312CACF0E9473
:1059C000300D7724739455C082E057CE8DE492E079
:1059D0006BCE8AE892E080CF80911404843031F15C
:1059E0000E94CB140E94DD1D1092010430E40FB61A
:1059F000F894A895A09260000FBE3093600083B722
:105A0000817F846083BF83B7816083BF78948895EA
:105A100083B78E7F83BF0FB6F894A89580916000FE
:105A2000886180936000109260000FBE8091130423
:105A3000882371F00E945B28A5EBB1E0EFEBF2E068
:105A400081919D91892309F07DC38E169F06C1F730
:105A500080911404853009F4BFCF109207040E948E
:105A6000790F0E941F0D52CF98136BCF0E943728D9
:105A7000712C0E94FA0C8091E802882309F464C01A
:105A80008091E702E091CC03E695E81BE093E30206
:105A9000823009F064C0F0E0E659FD4FE4910E2F2A
:105AA00010E047EDC42E4CE0D42E8091E402882310
:105AB00061F01092E4020E94E01E9093E202809353
:105AC000E1021092E6021092E5020E94E01EE091CF
:105AD000E102F091E2029C012E1B3F0B2F3F3F475A
