:100000000C949A060C94B7060C94B7060C946730BF
:100010000C94B7060C94B7060C94B7060C94B7066C
:100020000C94B7060C94B7060C94701B0C942C1B04
:100030000C94AE260C94B7060C94B7060C94B70635
:100040000C94B7060C94B7060C94B7060C94B7063C
:100050000C94B7060C94491C0C94B7060C94B70684
:100060000C94B7060C94B7060C94B7060C94B7061C
:100070000C94B7060C94B7060C94B7060C94B7060C
:100080000C94B7060C94B7060C94B7060C94B706FC
:100090000C94B7060C94B7060C94B7060C94B706EC
:1000A0000C94B7060C94B7060C94B7060501090228
:1000B000A10185020901A1000509190129081500FE
:1000C0002501950875018102050109300931158165
:1000D000257F95027508810609381581257F9501D0
:1000E00075088106050C0A38021581257F95017572
:1000F000088106C0C00660FF0961A1010962150000
:1001000026FF009520750881020963150026FF006F
:10011000952075089102C005010906A1010507197E
:10012000E029E71500250195087501810295017503
:100130000881010507190029FF150026FF00950613
:1001400075088100050819012905950575019102B9
:10015000950175039101C00000000000000000003F
:10016000000000000000000000000000000000008F
:1001700000000000000000000000007E0F00D4FF1F
:10018000FFFFC70000007800000000000000002A08
:100190002B2800000000000000000000000000000C
:1001A000000029000000002C1E34202122243426C7
:1001B00027252E362D3738271E1F202122232425C0
:1001C000263333362E37381F0405060708090A0B75
:1001D0000C0D0E0F101112131415161718191A1BE7
:1001E0001C1D2F3130232D350405060708090A0B85
:1001F0000C0D0E0F101112131415161718191A1BC7
:100200001C1D2F3130354C00DA0281FFD9F1DB2083
:10021000A4A62EAF00A0C000A1C800AED580A81F24
:10022000D300408D14200000041E140A0520004C49
:100230006179657220202000616263646566676889
:10024000696A6B6C6D6E6F707172737475767778A6
:10025000797A313233343536373839305245425471
:100260005F2D3D5B5D5C233B27602C2E2F202027DC
:1002700000204B00202043004B6579202020205295
:100280000020204400303020205300202020202057
:100290004350490042616C6C2000808182838485D8
:1002A000868788898A8B8C8D8E8F9091929394A06B
:1002B000A1A2A3A4A5A6A7A8A9AAABACADAEAFB0B6
:1002C000B1B2B3B4C0C1C2C3C4C5C6C7C8C9CACB22
:1002D000CCCDCECFD0D1D2D3D400000101010101C9
:1002E00001010101020202020202020202030303EF
:1002F00003030303030404040404040405050505BF
:10030000050606060606070707070708080808097E
:100310000909090A0A0A0B0B0B0C0C0C0D0D0D0E2A
:100320000E0E0F0F0F1010111111121213131414BF
:10033000151516161717181819191A1A1B1B1C1D34
:100340001D1E1E1F2020212222232424252626278D
:100350002829292A2B2C2D2D2E2F303132323334BF
:1003600035363738393A3B3C3D3E3F4041424344C5
:1003700045464748494A4C4D4E4F505153545556A7
:1003800058595A5B5D5E5F616264656668696B6C53
:100390006D6F7072737577787A7B7D7E80828385CE
:1003A00087888A8C8E8F91939596989A9C9EA0A20E
:1003B000A3A5A7A9ABADAFB1B3B5B7BABCBEC0C218
:1003C000C4C6C9CBCDCFD1D4D6D8DBDDDFE2E4E7DC
:1003D000E9EBEEF0F3F5F8FAFDFF222325262829B4
:1003E0002A2C2D2F3032333536383A3B3D3E4042B1
:1003F000434547494A4C4E5051535557595A5C5EF4
:100400006062646668696B6D6F71737577797B7D07
:100410007F81838587898A8C8E90929496989A9C06
:100420009E9FA1A3A5A7A8AAACAEAFB1B3B4B6B81E
:10043000B9BBBCBEBFC1C2C3C5C6C7C9CACBCCCD80
:10044000CED0D1D2D2D3D4D5D6D7D7D8D9D9DADA5B
:10045000DBDBDBDCDCDCDCDCDDDDDDDDDCDCDCDCDB
:10046000DCDBDBDBDADAD9D9D8D7D7D6D5D4D3D20F
:10047000D2D1D0CECDCCCBCAC9C7C6C5C3C2C1BFED
:10048000BEBCBBB9B8B6B4B3B1AFAEACAAA8A7A551
:10049000A3A19F9E9C9A98969492908E8C8A89870D
:1004A0008583817F7D7B79777573716F6D6B6968EB
:1004B000666462605E5C5A5957555351504E4C4ABF
:1004C0004947454342403E3D3B3A3836353332306A
:1004D0002F2D2C2A29282625232200AF00AE290003
:1004E0001E001F002000E1001D001B00060021006F
:1004F000220023002B0019000500E0000251140027
:100500001A0008001500E200035100000000170067
:10051000E0000400160000000000000000000700DA
:1005200009000A0000000000000000000000240094
:100530002500260027000E000F00330034002D0098
:100540002E003100350028001100100036004C004C
:100550001C0018000C0037003800E50052001200A3
:1005600013002F00300001512C00E600E7002A00A4
:100570000B000D000000500051004F000000010072
:100580003A003B003C0001000100010001003D0079
:100590003E003F00390001000100010001000100A0
:1005A000C25CC55CC75C0100010000000000C95CC2
:1005B00001000100C35C0000000000000000C65CF8
:1005C000C85CCA5C000000000000000000004000A1
:1005D0004100420043004A004B0050004F004400DD
:1005E000450049004C000100010001004D000100E0
:1005F0000100010046004E005100010001004700CB
:10060000480052000100010001000100010001004A
:1006100001000100000001000100010000000100D4
:1006200001000100010001000100010001000100C2
:1006300001000100010001000100010001000100B2
:1006400001000100010001000100000000000100A4
:100650000100010001000000000000000000010096
:100660000100010000000000000000000000010087
:10067000010001000100B35DB55DB95D010001003D
:100680000100010001000100B25DB85DB45D010030
:10069000010001000100B65DBA5D0100010001002A
:1006A0000100010001000100010001000100010042
:1006B000B15DB75D00000100010001000000010014
:1006C0000100010001000100010001000100010022
:1006D0000100010001000100010001000100010012
:1006E0000100010001000100010000000000010004
:1006F00001000100010000000000000000000100F6
:1007000001000100000000000000000000000100E6
:10071000010001000100F500F600010001000100E8
:100720000100010001000100F800010001000100CA
:1007300001000100010001000100010001000100B1
:1007400001000100010001000100010001000100A1
:10075000F700F400000001000100010000000902A0
:100760005B00030100A0FA0904000001030101007D
:100770000921110100012240000705810308000141
:1007800009040100020300000009211101000122F7
:100790002200070582032000010705030320000152
:1007A00009040200010300000009211101000122D7
:1007B0004900070584032000011201000200000027
:1007C00008383937360100010200010E0352006576
:1007D000006500780036003700000012036B0075DA
:1007E000007300680069006D0061003800000004BB
:1007F0000309040000000000003E5B4F5B3E003E2A
:100800006B4F6B3E001C3E7C3E1C00183C7E3C182F
:10081000001C577D571C001C5E7F5E1C0000183CAE
:10082000180000FFE7C3E7FF00001824180000FFCE
:10083000E7DBE7FF0030483A060E00262979292633
:1008400000407F05050700407F05253F005A3CE733
:100850003C5A007F3E1C1C0800081C1C3E7F0014F4
:10086000227F2214005F5F005F5F0006097F017F27
:1008700000006689956A0060606060600094A2FF75
:10088000A2940008047E04080010207E20100008B6
:10089000082A1C0800081C2A0808001E1010101046
:1008A000000C1E0C1E0C0030383E383000060E3E88
:1008B0000E060000000000000000005F00000000C5
:1008C0000700070000147F147F1400242A7F2A12D7
:1008D00000231308646200364956205000000807C0
:1008E000030000001C224100000041221C00002ADD
:1008F0001C7F1C2A0008083E080800008070300099
:1009000000080808080800000060600000201008C7
:100910000402003E5149453E0000427F4000007203
:1009200049494946002141494D33001814127F10AE
:10093000002745454539003C4A49493100412111CC
:10094000090700364949493600464949291E000031
:100950000014000000004034000000000814224190
:100960000014141414140000412214080002015948
:100970000906003E415D594E007C1211127C007F39
:1009800049494936003E41414122007F4141413EB3
:10099000007F49494941007F09090901003E414161
:1009A0005173007F0808087F0000417F410000204C
:1009B00040413F01007F08142241007F40404040F9
:1009C000007F021C027F007F0408107F003E41412F
:1009D000413E007F09090906003E4151215E007F2A
:1009E000091929460026494949320003017F0103BC
:1009F000003F4040403F001F2040201F003F403844
:100A0000403F00631408146300030478040300618A
:100A100059494D4300007F41414100020408102024
:100A200000004141417F00040201020400404040B7
:100A30004040000003070800002054547840007F25
:100A40002844443800384444442800384444287F2B
:100A50000038545454180000087E09020018242459
:100A60001C78007F080404780000447D40000020CA
:100A700040403D00007F102844000000417F4000BE
:100A8000007C04780478007C08040478003844442E
:100A90004438007C1824241800182424187C007C76
:100AA000080404080048545454240004043F442417
:100AB000003C4040207C001C2040201C003C40307A
:100AC000403C004428102844004C9090907C004406
:100AD00064544C44000008364100000000770000D8
:100AE000000041360800000201020402003C2623F7
:100AF000263C00000000000000F8FCFCFC3C3CFC34
:100B0000FCFCF80080C0F0F8FC7E00000000000053
:100B100000000000000000000000FCFCFCFC0000E5
:100B200000000000000000FCFCFCFC0000000000D5
:100B3000000000000000000000000000FCFCFCFCC5
:100B4000000000000000000000FCFCFCFC000000B5
:100B500000000000000000000000000000007EFC1B
:100B6000F8F0E0C080000080C0E0F0F8FC7E0000FB
:100B700000E0F0F0F0E0ECEEF7F37020007C7C7C1D
:100B80007E007E7E7E7F7F7F000080C0E07E5B4FA8
:100B90005BFEC00000C000DCD7DEDEDED7DC00C0BC
:100BA0000000000000000000000000000000000045
:100BB000000000000000000000FFFFFFFF0000FF3A
:100BC000FFFFFF7F1F0F0701000000000000000073
:100BD00000000000000000000000FFFFFFFF000019
:100BE00000808080800000FFFFFFFF000000000009
:100BF000000000000000000000000000FFFFFFFFF9
:100C0000000080808080000000FFFFFFFF000000E8
:100C100000000000000000000000000000000000D4
:100C200081C3E7FFFFFFFFFFFFE7C3810000000074
:100C3000000F1F3F7F7F7F7F7F3F1E0C001F1F1F06
:100C40003F003F3F3F7F7F7F00307B7F7830202019
:100C500030787F3B0003000F7F0F0F0F7F0F0003E3
:100C60000000000000000000000000000000000084
:100C7000000000000000000000FFFFFFFF00000177
:100C80000101000000000000000000000000000062
:100C9000000000000000000000003F3F3F3F000058
:100CA000003F3F3F3F00003F3F3F3F00000000004C
:100CB0000000000000000000000000003F3F3F3F38
:100CC00000003F3F3F3F0000003F3F3F3F0000002C
:100CD00000000000000000000000000000007E3F57
:100CE0001F0F07030100000103070F1F3F7E0000D5
:100CF00000000000000000000000000000000000F4
:100D000000000000000000000000000000000000E3
:100D100000000000000000000000000000000000D3
:100D200000000000000000000000000000000000C3
:100D30000000000011241FBECFEFDAE0DEBFCDBF00
:100D400011E0A0E0B1E0E4E6F5E602C005900D9206
:100D5000A83AB107D9F726E0A8EAB1E001C01D9290
:100D6000A334B207E1F70E94D5260C947D320C948F
:100D70000000E8EDF0E080818E7F80831092E20039
:100D80001092DA001092E100A0EEB0E08C91816048
:100D90008C9380818F77808319BCA7EDB0E08C9114
:100DA0008E7F8C9380818F7E808310920D040895B6
:100DB0002091E4003091E50095E6A9012091EC0036
:100DC000822F817020FF06C08091E80080FF06C05E
:100DD00080E008952091E80022FD1AC080911B0454
:100DE000882389F0853089F08091EB0085FD0FC064
:100DF0002091E4003091E50042175307F9F2915039
:100E0000E1F684E0089582E0089583E0089581E0AA
:100E10000895EF92FF920F931F93CF937C018B0164
:100E20000E94D806C82F811117C08091E80085FD67
:100E30000BC08091E8008E778093E8000E94D8066E
:100E4000882399F3C82F08C0F70181917F0180930F
:100E5000F1000150110949F78C2FCF911F910F918B
:100E6000FF90EF90089580911D0487FF13C080913B
:100E7000E80082FF06C08091E8008B778093E8004D
:100E800004C080911B048111F2CF089580911B044E
:100E90008823D9F38091E80080FFF8CF8091E800A3
:100EA0008E77ECCF982F9093E900242F762F50E087
:100EB000891731F07091EC002091ED005091F00015
:100EC00021FD07C09F5F973071F78093E90081E0B3
:100ED00008953091EB003E7F3093EB003091ED00B0
:100EE0003D7F3093ED003091EB0031603093EB00AB
:100EF0007093EC002093ED005093F0002091EE00F1
:100F000027FDE0CF80E00895B0E0A0E0EAE8F7E058
:100F10000C94A131C8EDD0E088818F7E8883E7ED05
:100F2000F0E080818160808384E082BF81E08093F3
:100F30000D0488818E7F888302EE10E0F801108214
:100F40001092DA0081EEC82ED12CF6011082888131
:100F50008F77888388818068888388818F7D888364
:100F600019BC10921B0410921C0410921A041092C7
:100F7000190490EEE92EF12CF70180818B7F80839C
:100F800088818160888342E060E080E00E945207AF
:100F9000F60180818E7F8083F8018081816080836B
:100FA000808188608083F70180818E7F8083888143
:100FB00080618883CDB7DEB7E8E00C94BD31FC01D9
:100FC000809123049091240486179707A0F061155F
:100FD000710529F49091E8009E779093E80090E0E5
:100FE0006115710551F4911108C08091E80082FFEC
:100FF00034C080E00895BC01F2CF80911B048823A7
:10100000C1F18530C1F18091E80083FD30C080914D
:10101000E80082FDEACF8091E80080FFE1CF809177
:10102000F3002091F200382F6115710519F0283076
:10103000310558F091E02830310509F090E0209119
:10104000E8002E772093E800CBCF81918093F100C8
:10105000615071092F5F3F4FE7CF80911B048823B8
:1010600041F0853041F08091E80083FFBECF81E000
:10107000089582E0089583E00895089508950895FD
:1010800080911004089587E797E790930108809373
:10109000000888E19AE00FB6F894A8958093600064
:1010A0000FBE90936000FFCF2FB7F89460910904B2
:1010B00070910A0480910B0490910C042FBF089545
:1010C0009C01FC0132969FEF80E04191461751F060
:1010D0009F3F19F4411101C0982F8F5F8630A9F707
:1010E0009F3F09F40895290F311D97FD3A95F901A5
:1010F00062830895FC01680F791F8FEF91E32191BE
:10110000822728E030E087FF09C0880F8927215017
:101110003109C9F7E617F70791F70895880FF7CF58
:10112000FA01811101C0FB01099508950895ECEFC2
:10113000F3E0118282818460828308958091250486
:10114000982F9E7F61F48170826080932504809146
:101150002804853618F084E68093280408958E309C
:10116000B0F381708C60F1CFAF92BF92DF92EF92BB
:10117000FF920F931F93CF93DF93082F162FE90150
:10118000E42FF0E0E652FD4F611110C0E4915E2FB4
:101190004E2F4983E8835A83DF91CF911F910F919E
:1011A000FF90EF90DF90BF90AF900895E62EF12C66
:1011B0004491D42EE42FF0E026E0829FC001112458
:1011C0002FEF30E0B9010E948331802F90E0880F2B
:1011D000991F55E5569FD001579FB00D11248A1BCA
:1011E0009B0B982F990F890F5901AE18BF08AE9E1F
:1011F000D001AF9EB00DBE9EB00D11245B2F189F85
:1012000080011124012F11275901A01AB10AAE9EA5
:101210008001AF9E100DBE9E100D11245901A81A19
:10122000B108AE9CC001AF9C900DBE9C900D1124E6
:10123000892F9927281B390B2E9FC0012F9F900DB6
:101240003E9F900D1124E92F62307105A1F050F4FA
:101250006115710509F49DCF6130710581F0EB2FA7
:10126000512F97CF6430710569F080F066307105B9
:1012700009F48FCFF4CFE42F4B2F592F8ACFE42FCF
:10128000412F87CFEB2F542F492F83CF4B2F5D2D2D
:10129000E12F7FCFCF93DF93E7EEF2E0838194815C
:1012A000A581B681E90188839983AA83BB831482CF
:1012B000138216821582DF91CF91089580E0089500
:1012C00063E070E080E492E00E947A0890913F022F
:1012D000891318C0E0914002EB30A4F488E0E802E2
:1012E000F0011124E65FFE4F0680F781E02D309774
:1012F00049F023E632E04091420263E472E08091DB
:10130000410209950895EAE0F1E0ADE2B2E05496B9
:101310008C91549780A755968C9183AF08959091A6
:101320009A0292FF06C0282F28712830F9F4877F8F
:10133000846093FF06C0282F28712831F1F4877E3E
:10134000846120919B0220FF06C0382F387138300D
:10135000D9F4877F816021FF06C0282F28712831AA
:10136000D1F4877E816194FD877E0895282F2471B2
:101370002430F9F68B7F8860DCCF282F247124314C
:1013800001F78B7E8861DDCF382F3171313019F74D
:101390008E7F8860E0CF282F2171213121F78E7E4A
:1013A0008861E1CFCF93DF93EC018238910589F119
:1013B000E0F58133910509F499C028F5893291054A
:1013C00009F489C08A9709F498C0C11523E5D207AA
:1013D00008F0B3C0C11532E5D30708F00FC1C1153D
:1013E00040E2D40708F097C0C11581E0D80758F54E
:1013F000C53AD10508F088C0C430D10520F5C13008
:10140000D10509F145C08533910509F45FC0C9973D
:10141000E1F680919A02837009F025C180919B02C8
:1014200083FF11C0C9E2D0E00EC0833E910599F15F
:1014300070F4803E910501F1823E910531F6809174
:101440009A0282FD21C0CE01DF91CF910895863EA0
:10145000910561F1873E910571F1843E910509F096
:10146000B4CF80919B0281FFEECF80919A02C7EEAC
:10147000D0E084FD0DC0E7CF80919A0280FD33C09B
:1014800090919B0290FFDFCFC3EED0E084FFDBCFD3
:10149000D0E0C0E0D8CF80919A0282FDE1C0909167
:1014A0009B0290FDE0C084FFCECFF2CF80919A02E4
:1014B00083FDDDCFC8CF80919A0283FDD7C0909184
:1014C0009B0291FFF0CFC4EED0E0BDCF80919A0295
:1014D00085FFB9CFA7CF80919A0285FDCAC08091C0
:1014E0009B0283FFB0CFC9E3D0E0ADCF80919A02D9
:1014F00086FFA9CFCAE2D0E0A6CF80919A0286FFEC
:10150000A2CFC1E3D0E09FCFCE01815E91090797C2
:1015100008F499CFBDCFC11521E5D20708F069C005
:10152000C11530E5D30708F050C0C11540E4D40719
:1015300008F4AECFDF70D06A86CFC11586E5D80734
:10154000F0F4C11525E5D20708F071C0C11534E5E6
:10155000D30708F067C0CE018370992721E030E0FF
:1015600002C0220F331F8A95E2F7C695C69540E266
:10157000C49FE0011124C22BD32BDA6864CFC115BC
:101580004AE5D40778F4C11589E5D80708F05AC0B0
:10159000C11528E5D20708F47BCFDC2FCC27C06F1C
:1015A000D06A51CFCE0190568115904208F070CF8D
:1015B0008D2F8F710E948F0990E0982F88278827A0
:1015C0009F719C012C2BE9013BC0CE0183709927B0
:1015D00021E030E002C0220F331F8A95E2F7C69562
:1015E000C69540E2C49FE0011124C22BD32BDD68D5
:1015F0002ACFDC2FCC27C16FD06A25CFCE018370D4
:10160000992721E030E002C0220F331F8A95E2F7CC
:10161000C695C69580E2C89FE0011124C22BD32B4A
:10162000DC6811CFDC2FCC27C46FD06A0CCF8C2F95
:101630000E948F09C82FD0E0DC2FCC27CC27DF7188
:10164000D06201CF8C2F8F700E948F0934E0D69525
:10165000C7953A95E1F7CF709C2FEC01D069F3CE96
:10166000C2EED0E0F0CEC0EED0E0EDCEC6EED0E0DF
:10167000EACEC5E3D0E0E7CE80912A028111109234
:101680002A020895809590910E04982390930E0459
:10169000089580911F029091EE01981301C0089562
:1016A0008F5F8770FACF9A3080F5883070F548E008
:1016B000949F90011124820F932F911D682F6770C2
:1016C00023E0969587952A95E1F7FC01EE0FFF1F21
:1016D000E80FF91FE653FE4F50E040E080E0219113
:1016E00030E0062E02C0369527950A94E2F7217065
:1016F0003327042E01C0220F0A94EAF7822B4F5F92
:101700005F4F4330510559F7089580E008959A30AE
:1017100098F5883088F548E0949F90011124820F55
:10172000932F911D282F277041E001C0440F2A9567
:10173000EAF723E0969587952A95E1F7FC01EE0FED
:10174000FF1FE80FF91FE653FE4F90E080E070E0C6
:101750005191DF0111979B01082E02C03695279504
:101760000A94E2F7217021952527242325272C931D
:1017700001968330910561F70895982F92959F7097
:1017800011F0892F94E0282F2695269511F09E5F61
:10179000822F869509F09F5F892F0895B0E0A0E021
:1017A000E4EDFBE00C94A131FC01EB019091F90216
:1017B000911101C094E04081518191509A01092E0C
:1017C00002C0359527950A94E2F7B901092E02C0A7
:1017D000660F771F0A94E2F7461B570B518340832D
:1017E000428153818A01092E02C0159507950A94FA
:1017F000E2F7B80102C0660F771F9A95E2F7461B21
:10180000570B5383428321387FEF37077CF0203812
:10181000310574F421952D8301388FEF180754F0AA
:10182000802F003811053CF08FE705C021E8F2CF8A
:101830002FE7F0CF81E881958C830E9454082D8199
:10184000211103C02C812223B9F06093FA02709316
:10185000FB028093FC029093FD028091FE029BE0CC
:10186000980F973120F4080F0093FE021D82CDB728
:10187000DEB7E8E00C94BD31C090FA02D090FB02D4
:10188000E090FC02F090FD026C197D098E099F0921
:10189000643671058105910500F31092FE02DDCFDB
:1018A000CF93C82F8091F4028C1751F00E945408F6
:1018B0006093F5027093F6028093F7029093F8021A
:1018C000C093F402CF9108958091E702F9018083DB
:1018D00008958F708A3010F4805D0895895A0895B4
:1018E000382F20E287FF02C031952DE24AE0832F96
:1018F000642F0E94DA31905D9093BF0181110BC07B
:101900002093BE0120E22093BD0120E22093BC0180
:101910008CEB91E00895642F0E94DA31905D9093F2
:10192000BE01832F64E60E94DA31882361F3805D73
:101930008093BD01EBCF9C01860F971F37FD07C039
:1019400077FD04C097FF02C08FEF9FE7089577FFF0
:10195000FDCF97FDFBCF80E090E80895E82FE2955A
:10196000EF70F0E031A1282F2F7081E090E001C0EE
:10197000880F2A95EAF7382B31A392A18095892305
:1019800082A30895E82FE295EF70F0E031A1282FAF
:101990002F7081E090E001C0880F2A95EAF7982F18
:1019A0009095932391A392A1892B82A30895B0E0EF
:1019B000A0E0EDEDFCE00C94A1317C016B01809185
:1019C000360601E010E08A3010F40AE010E0C1E0D1
:1019D000D0E06CE376E0C701F6010995811104C0FF
:1019E00021960C171D072CF4CDB7DEB7E8E00C9458
:1019F000BD31CC9F9001CD9F300D300D112490E072
:101A000080E045E34A95F1F70000019682179307BD
:101A1000C1F7DFCF9C0184E08093E9009FEF8091C4
:101A2000E800915085FD06C085ED8A95F1F700002C
:101A30009111F5CF8091E80085FF0CC050E040E0A7
:101A400066E070E0C9010E9409078091E8008E7786
:101A50008093E8000895CF93DF93EC0181E08093B9
:101A6000E9008FEF9091E800815095FD06C095ED5B
:101A70009A95F1F700008111F5CF8091E80085FF7C
:101A800014C050E040E068E070E0CE010E94090719
:101A90008091E8008E778093E80088E0FE01A1E164
:101AA000B4E001900D928A95E1F7DF91CF9108950E
:101AB000609176018091250480FF20C0809175019E
:101AC00043E0849FC00111248B5E9C4F539A2BB13D
:101AD000277F3BB138605FB7F894FC01649FE00D4D
:101AE000F11D1124BF0168177907D1F45FBF8FE59D
:101AF00094E00197F1F700C000000895809177010C
:101B00009091780123E0829FF0011124EB5EFC4F5D
:101B10008917A0F61182108212828F5F3396F8CF58
:101B2000FC014191CF01E8E03BB9000000C047FF54
:101B30002BB9440F000000C000C000C02BB900C08A
:101B4000EA9591F7D0CF9091250490FF0EC0909127
:101B500077012091780133E0939FF0011124EB5E2F
:101B6000FC4F921718F00E94580D089581836083EE
:101B700042839F5F3396F5CFA3E0B0E0E2ECFDE057
:101B80000C94A5318C018091FF0381110AC09E0144
:101B90002F5F3F4F44E66FEF0E94B4088A81809325
:101BA000FF03F8016481613069F08091FF0340E038
:101BB000662361F040E0623011F44091FF0380E061
:101BC00060E004C06091FF0340E080E00E94A30D4C
:101BD000F801848190E0019663E070E00E94E831B2
:101BE00084832396E4E00C94C131A3E0B0E0EBEFF2
:101BF000FDE00C94A5318C01DC011496EC91F0E031
:101C0000E652FC4F44918091250480FF11C0453677
:101C100008F044E69E012F5F3F4F609127048091BA
:101C200026040E94B4084B8169818A810E94A30D19
:101C3000F80184818F5F84832396E4E00C94C131A2
:101C400080912C02811119C082E390E02091E30081
:101C500027FD10C0EFE3FCE93197F1F700C0000069
:101C60000197A1F782E080932C020E94B90610929E
:101C70001B0403C081E080932C0281E090912C0230
:101C8000913011F080E0089508950E94200E88237D
:101C900059F0E0910604F0910704309729F0019083
:101CA000F081E02D0995089580E008950F931F932A
:101CB0000E94200E882329F00E9454081F910F9142
:101CC00008950E9454080091940210919502209169
:101CD000960230919702600F711F821F931FEECF03
:101CE00026982E9A249A2C9885E08A95F1F7000080
:101CF00083B124982C9A90EA9A95F1F790E026E027
:101D0000959587952A95E1F780959095817008952E
:101D1000CF93DF93682F81E06A3019F06D3031F492
:101D200080E00E94160FDF91CF91089580913406D4
:101D30009091350626E0FC01AEE2B6E001900D92EE
:101D40002A95E1F7603E08F458C026E0FC011192A4
:101D50002A95E9F7C0913406D091350646E050E067
:101D6000BE018EE296E00E941F329E012E52344048
:101D7000892B41F1C90145E0969587954A95E1F790
:101D800041E050E0BA0102C0660F771F8A95E2F782
:101D9000CB0160912C0470912D04862B972BB901F7
:101DA0006B5F7F4FE5E076956795EA95E1F702C0B6
:101DB000440F551F6A95E2F7842B952B90932D04C1
:101DC00080932C042A5F3F4F40912B04642F70E0D6
:101DD000C9010E948331481B463010F4240F311D85
:101DE000211572E0370710F030E020E0225D3B4F14
:101DF000309335062093340696CFF6E06F9FB001FE
:101E000011246D50784F46E050E00E940932A2CF75
:101E1000CF93DF93EC01FE018491811103C0DF9128
:101E2000CF9108950E94880E2196F5CFCF93382F39
:101E3000E0913406F0913506EE52F44020912B04E7
:101E4000622F70E0CF010E948331281B822F332341
:101E500061F066E00E94CE31C82FC15010F4CF91DE
:101E6000089580E20E94880EF8CF9F01280F311D4F
:101E70002115324018F080E0F0E0E0E08E0F9F2F57
:101E8000911D825D9B4F9093350680933406E7CF7A
:101E9000AEE1B0E0EEE4FFE00C94A73140910F0317
:101EA00050911003609111037091120380911303FC
:101EB000909114030E945C1920930F033093100338
:101EC0004093110350931203609313037093140310
:101ED00086E0EFE0F3E0DE01179601900D928A951F
:101EE000E1F786E0FE013796DE011D9601900D9226
:101EF0008A95E1F786E0FE013D96DE01119601909C
:101F00000D928A95E1F786E0FE013196AFE0B3E0ED
:101F100001900D928A95E1F786E0EFE0F3E0DE01B3
:101F2000599601900D928A95E1F786E0FE01799627
:101F3000DE01179601900D928A95E1F786E0FE0189
:101F40003796DE01119601900D928A95E1F786E0B1
:101F5000FE013196DE01539601900D928A95E1F7CC
:101F600086E0FE017396DE01179601900D928A9528
:101F7000E1F786E0FE013796AFE0B3E001900D9205
:101F80008A95E1F746E050E069E073E08FE093E086
:101F90000E941F32892B79F0E0910604F09107042A
:101FA000309749F082E080930F030480F581E02DA3
:101FB0008FE093E009951092110310921203109292
:101FC00013031092140386E0EFE0F3E0A9E0B3E01E
:101FD00001900D928A95E1F76E96E2E00C94C33180
:101FE00080910E0490912902892B8093AA019091EF
:101FF0002A02992391F0892B8093AA0120E08CEA90
:1020000091E0FC013191CF0131112F5FF1E0823B72
:102010009F07B9F721110E943C0B48E050E061E2B4
:1020200072E08AEA91E00E941F32892BA9F088E0D1
:10203000EAEAF1E0A1E2B2E001900D928A95E1F7BF
:10204000E0910604F0910704309731F00280F381AB
:10205000E02D8AEA91E009950895ECEAF1E086E046
:10206000DF011D928A95E9F7109229020E94F00F74
:102070000895AAE2B0E0EFE3F0E10C94A6318DE11F
:1020800094E02091F100DC012D93CD01B4E0853284
:102090009B07B9F780911E04833009F472C0B8F42D
:1020A000813009F449C0823009F4B5C08091E8005C
:1020B00083FF8DC280911D0490911E049A3008F018
:1020C00086C2E92FF0E0E158FD4C0C94FC318A30D7
:1020D00009F490C08B3009F471C0893039F78091D0
:1020E0001D04813219F780912104909122040097F8
:1020F00011F00297D9F68091E800877F8093E8007D
:102100008091E80082FF38C09091F3008091F20046
:10211000029731F48091F100813011F0863021F482
:102120008091F100809310048091E8008B77809378
:10213000E8000E943307BACF80911D04813A09F06C
:10214000B5CF8091E800877F8093E80080912104DB
:1021500090912204892B61F468E081E194E070E0C1
:102160000E94DF078091E8008B778093E8009ECF84
:1021700060E090E080E0F3CF80911B048111C0CF3C
:1021800095CF80911D04813A09F090CF8091210470
:1021900090912204892B09F089CF8091E800877FF4
:1021A0008093E8008091E80080FFFCCF80917B0164
:1021B0008093F1008091E8008E77B9CF80911D0463
:1021C000813209F073CF8091210490912204892BF0
:1021D00009F06CCF8091E800877F8093E8000E942F
:1021E000330780911F0480937B0110920E040E949C
:1021F0002D105CCF80911D04813209F057CF809162
:10220000E800877F8093E8000E94330780912004D4
:1022100080930F044BCF80911D04813A09F046CF83
:102220008091E800877F8093E8008091E80080FF3C
:10223000FCCF80910F04BCCF803899F0823809F030
:10224000C6C1809121048F70873008F0C0C180938F
:10225000E9008091EB0085FB882780F91092E90066
:1022600006C08091190490911A0491118260909196
:10227000E800977F9093E8008093F1001092F100BE
:102280008091E8008E779FC1882309F48DC1823048
:1022900009F09DC180911F04811190C1809121049A
:1022A0008F702FEF280F263008F091C18093E9003E
:1022B0002091EB0020FF82C1933031F48091EB003C
:1022C00080628093EB007AC19091EB0090619093D3
:1022D000EB0021E030E001C0220F8A95EAF720935D
:1022E000EA001092EA008091EB008860EACF811149
:1022F0006EC110911F041F778091E3008078812BBD
:102300008093E3008091E800877F8093E8000E943B
:1023100033078091E80080FFFCCF8091E300806864
:102320008093E30082E0111183E080931B044FC18E
:102330008058823008F04BC120911F043091200456
:102340002C3DE3E03E07A1F583E08A838AE289839E
:102350004FB7F894DE01139620E03EE051E2E32F00
:10236000F0E050935700E49120FF03C0E295EF7036
:102370003F5FEF708E2F90E0EA30C0F0C7968D93EC
:102380009D932F5F243159F74FBF8091E800877FDD
:102390008093E8006AE270E0CE0101960E94DF07B8
:1023A0008091E8008B778093E80011C1C096E7CF59
:1023B0008091210490912204432F552743305105E9
:1023C00009F44AC078F54130510509F47AC08BE52B
:1023D00090E0EEE5F7E04230510509F0F8C02091B9
:1023E000E800277F2093E800209123043091240403
:1023F0008217930708F49C0140E02115310509F08C
:1024000065C0411163C08091E80082FDC9CF809111
:102410001B04882329F2853019F28091E80083FF9C
:10242000F2CFBECF4132510509F43CC042325105D2
:1024300009F0CDC08330910508F0C9C0FC01EE0F52
:10244000FF1FE556FE4F0190F081E02D88569E4F0C
:10245000DC018C9190E01AC0332721303105D1F096
:102460002115310561F02230310509F0B0C0EBECE7
:10247000F7E0E4918E2F90E0EBECF7E007C0EFEE91
:10248000F7E0E4918E2F90E0EFEEF7E0009709F48B
:102490009EC0A5CFEBEDF7E0E4918E2F90E0EBED41
:1024A000F7E0F4CF8330910508F091C0880F991FB1
:1024B000FC01EF55FE4F0190F081E02D89E090E0A6
:1024C0008ECF82E190E0E9EBF7E089CF80911B04A9
:1024D000882309F465CF853009F462CF8091E80044
:1024E00083FD5ECF8091E80082FD8DCF8091E80072
:1024F00080FF83CF9091F3008091F2002115310588
:1025000019F08830910550F041E0089709F040E05B
:102510008091E8008E778093E8006FCF44914093DC
:10252000F1003196215031090196E8CF803809F049
:102530004EC08091E800877F8093E80080911C0462
:102540008093F1009DCE811142C010911F04123082
:10255000F0F58091E800877F8093E80010931C04D9
:102560000E943307112311F084E005C08091E3003D
:1025700087FDFACF81E080931B0442E061EC81E0AB
:102580000E94520742E261EC84E00E94520742E25C
:1025900061EC82E00E94520742E260EC83E00E941C
:1025A000520780911B0413C080911F04813079F47D
:1025B00081E0933009F080E080931A041092E900E2
:1025C0008091E800877F8093E8000E943307809124
:1025D000E80083FF0AC08091E800877F8093E800CD
:1025E0008091EB0080628093EB00AA96E3E00C946C
:1025F000C23110920E040E942D102FEF84E39CE054
:10260000215080409040E1F700C0000088E19AE04E
:102610000FB6F894A895809360000FBE9093600069
:10262000FFCF80932A04109229020E94F00F089590
:1026300080912A04982F9670963021F488600E9429
:1026400011130895877FFBCF21E030E001C0220FF6
:102650008A95EAF7209580912A0482230E9411131B
:102660000895909120028095892380932002282F3D
:10267000277091F4282F082E000C330B92171306A5
:1026800059F090919B0292FF07C08595859585959D
:102690000E94241310922002089521E030E001C02E
:1026A000220F8A95EAF780912A04822B0E94111347
:1026B000089580932B02109229020E94F00F089532
:1026C000882321F00E94420B0E94F00F0895882376
:1026D00039F090910E04982B90930E040E94F00F05
:1026E00008958823E1F19CEF980F913A80F4ECEA89
:1026F000F1E022EB31E09191891303C0DF011197E2
:102700001C922E173F07B9F70E94F00F089590E230
:10271000980F983050F4877091E001C0990F8A9516
:10272000EAF7892F0E94420BEFCF9BE5980F933079
:10273000B8F48091C6019091C701892B81F0109265
:10274000C7011092C601E0910604F091070430978A
:1027500031F00680F781E02D90E080E00995089542
:10276000885A8731E0F78091C8019091C901892B7F
:10277000B1F31092C9011092C801E0910604F091E2
:102780000704309761F30084F185E02DE5CFCF9306
:10279000C82F8823A9F08CEF8C0F813A00F5ECEA62
:1027A000F1E0DF018D91C81769F081E0A23BB80725
:1027B000C9F76C2F8AEA91E00E9460080E94F00F2E
:1027C000CF9108958191C81303C0DF0111971C9226
:1027D00081E0E23BF807B1F70E94F00FEACF80E218
:1027E0008C0F883068F7C77021E030E001C0220FFD
:1027F000CA95EAF780910E04822B80930E04DECFF7
:102800001F93CF93DF93182FEB010E94C7138FE91B
:102810009FE00197F1F700C000002197C1F7812FD9
:102820000E947113DF91CF911F9108950F931F9311
:10283000CF93DF93EC01FC0101900020E9F78F01B9
:1028400001501109C017D10728F0DF91CF911F91D6
:102850000F91089589910E94880EF4CFB0E0A0E016
:10286000E4E3F4E10C94A1316C017B0164E670E0D7
:1028700088E70E94E12EEC0197FD12C010E000E015
:10288000F601E00FF11F849164E670E00E944D2F85
:10289000EC01892B29F40F5F1F4F0E151F0581F7DF
:1028A0000E94C32FCE01CDB7DEB7E8E00C94BD3156
:1028B0008091040490910504911103C091E089274F
:1028C0000895882369F062E070E08CED94E00E9446
:1028D0002E14892B19F08091040408951092040499
:1028E00080910404EBCFCF93C09104048091050440
:1028F0008823D1F00E945408605A75418F4F9F4F32
:102900006093000470930104809302049093030485
:10291000C11108C062E070E08AED94E00E942E14BC
:10292000892B29F0C09104048C2FCF91089581E068
:1029300080930404F7CFCF93DF93C7EBD2E060E03E
:10294000CE010E9449322196C11584E0D807B9F71B
:10295000DF91CF9108951F93CF93DF93122F84308F
:10296000E0F46A30D0F44830C0F490E1699FE001AF
:10297000112450E0440F551FC40FD51F90EA899FC2
:10298000C00DD11D1124632FCE01C7960E9449327C
:10299000612FCE01C8960E944932DF91CF911F91DD
:1029A0000895AF92BF92CF92DF92EF92FF921F9362
:1029B000CF93DF938EEDC82E84E0D82ED0E0760141
:1029C000C0E014C0F50125913491412F6C2F8D2F5B
:1029D0000E94AB1482E0A80EB11C1F5F183091F763
:1029E00080E1E80EF11CCF5FCA3019F0570110E00A
:1029F000E9CFDF5F80EAC80ED11CD43001F7DF9148
:102A0000CF911F91FF90EF90DF90CF90BF90AF904C
:102A1000089586E390E00E9449320895CF93C82F2D
:102A20006FEF811163E283E390E00E9449326FEF20
:102A3000C11161E084E390E00E9449326FEFC1115F
:102A400066E185E390E00E944932CF91089580E0ED
:102A50000E940E1560E070E0CB010E9409150E94F3
:102A6000D1140E949B1481E00E940E150895CF930B
:102A7000C0919B02C2FB992790F9981791F080FBB7
:102A8000C2F9C0939B0260919A0284E090E00E9498
:102A900049326C2F82E290E00E94493282E00E942B
:102AA0003113CF9108950F931F93CF93DF93843009
:102AB00030F56A3020F5483010F520E1629F800142
:102AC000112450E0440F551F040F151F30EA839F57
:102AD000000D111D1124C801C7960E943532C82F60
:102AE000D0E0DC2FCC27C801C8960E9435329E0169
:102AF000282BC901DF91CF911F910F91089590E08C
:102B000080E0F8CF462F843040F47A3030F46830DB
:102B100020F4672F0E945315089590E080E00895F7
:102B2000CF92DF92FF920F931F93CF93DF936C01AD
:102B300000912A0480912B02082BC7E0D0E010E01E
:102B4000FC2EC8010C2E02C0959587950A94E2F7D9
:102B500080FD0CC02197A0F7F12C8F2DDF91CF9134
:102B60001F910F91FF90DF90CF900895B6018C2FA9
:102B70000E9482150E94D209019761F3EECFCF9394
:102B8000DF93EC010E949015BE010E9482150E9405
:102B9000D209DF91CF910895FC0183819481892B23
:102BA00029F08081918189238F3F51F480E008953D
:102BB000843FE1F717C0883EA8F0813FB9F712C003
:102BC000808191810E94BF1592959F70963099F3F4
:102BD00058F4925F9F70923048F7803F19F040F7A9
:102BE000883E20F781E008959A5FF4CF86E390E075
:102BF0000E943532682F70E090E080E0089583E312
:102C000090E00E943532833289F484E390E00E94A0
:102C10003532813059F485E390E00E94353291E0FD
:102C2000863109F090E0892F8170089580E0FCCF13
:102C3000CF92DF92EF92FF926B017C010E949E087F
:102C4000B701A60188E090E00E945B32FF90EF9010
:102C5000DF90CF900895A3E0B0E0E1E3F6E10C94BB
:102C6000A331F82E062F142FE22E8091250480FF29
:102C70003DC0E82FE695F0E0EF56FE4F908190932F
:102C8000FC038E7F8230B1F5453608F044E69E01A4
:102C90002F5F3F4F602F8F2D0E94B4084B816981B9
:102CA0008A810E94A30D809126048F1108C0809113
:102CB0002704801304C080912804811729F0809193
:102CC000FE0382608093FE03F092260400932704A3
:102CD00010932804EE2051F0609125047091260491
:102CE00080912704909128040E9418162396E6E00C
:102CF0000C94BF319230B9F610912804D4CFE5E29C
:102D0000F4E043812AE0421B08F440E021E06281C4
:102D100081810E942B160895E5E2F4E043812AE0C8
:102D2000420F08F44FEF21E0628181810E942B164F
:102D30000895E5E2F4E0628121E1621B08F460E0BD
:102D400021E0438181810E942B160895E5E2F4E0A1
:102D5000628121E1620F08F46FEF21E043818181FC
:102D60000E942B160895E5E2F4E0818121E0438181
:102D7000628181510E942B160895E5E2F4E0818181
:102D800021E0438162818F5E0E942B16089580911D
:102D90002904882319F08150809329046091250427
:102DA0007091260480912704909128040E9418169F
:102DB000089580912904833018F48F5F809329044B
:102DC0006091250470912604809127049091280435
:102DD0000E9418160895E5E2F4E083E080831182F2
:102DE0008FEF828384E683831482ACEFB3E0129684
:102DF0008C911297836012968C936081718182818D
:102E000093810E941816089568EE7EEF90E080E0AE
:102E10000E94673260E082E090E00E94493260E008
:102E200083E090E00E94493210922B0260E084E03F
:102E300090E00E94493264E082E290E00E944932D0
:102E400060E085E090E00E94493260E086E090E03A
:102E50000E9449326FEF87E090E00E94493240E0E3
:102E600050E0BA0188E090E00E945B3260E08DE0C3
:102E700090E00E94493240E050E0BA0188E190E0E1
:102E80000E945B3260E087E190E00E94493240E0BE
:102E900050E0BA018CE190E00E945B3270E060E0AB
:102EA00080E290E00E94673240E050E0BA0188E1A1
:102EB00090E00E945B3280E00E940E150E94271570
:102EC00040E050E0BA018FE090E00E945B3240E0C9
:102ED00050E0BA0183E190E00E945B320895B0E0D7
:102EE000A0E0E5E7F7E10C94A2317901C82F880F43
:102EF000DD0B41155105A9F0FE0193E0EE0FFF1F18
:102F00009A95E1F7E65FFE4F81819281835D9D4F47
:102F1000208130E04217530708F49A01A9010E946A
:102F20002C32CE010E940D31D82E8823D1F001150C
:102F30001105B9F083E0CC0FDD1F8A95E1F7FE01A2
:102F4000E65FFE4F438150E00417150708F4A8011F
:102F5000C65FDE4F6C817D81635D7D4FC7010E943E
:102F60002C328D2DCDB7DEB7E7E00C94BE31A5E055
:102F7000B0E0EDEBF7E10C949F318D83E62E5A0122
:102F8000F22E6801809136068A3028F080E025967E
:102F9000EAE00C94BB318D818830C4F31A82198227
:102FA0008A836B832C8363E070E0CE0102960E94DB
:102FB0007A088983E0923201F092450110E000E046
:102FC00030E020E044E050E0BE016F5F7F4F84E0DE
:102FD0000E946F178823D1F24E2D50E030E020E0A0
:102FE000B50185E00E946F17882381F230E020E070
:102FF00041E050E0BE016B5F7F4F86E00E946F179B
:10300000882321F20F2D10E0960150E040E070E09F
:1030100060E087E00E946F17BACFA8E0B0E0E3E17C
:10302000F8E10C94A53185E0E5E2F4E0DE011196CB
:1030300001900D928A95E1F78091FC039091FD0338
:10304000A091FE038E839F83A887288540919002DC
:103050005091910260919202709193023FB7F8945F
:103060008091090490910A04A0910B04B0910C0482
:103070003FBF841B950BA60BB70B84369105A105AA
:10308000B10510F42223C1F010E000E030E020E0B0
:1030900048E050E0BE016F5F7F4F83E00E946F17F2
:1030A000882369F00E945408609390027093910203
:1030B00080939202909393021092FE0381E02896EF
:1030C000E4E00C94C131A4E0B0E0E9E6F8E10C944E
:1030D000A53140918C0250918D0260918E027091C9
:1030E0008F022FB7F8948091090490910A04A0915F
:1030F0000B04B0910C042FBF841B950BA60BB70BD0
:1031000011E084369105A105B10518F10E94560E13
:103110006E5F7F4F8F4F9F4F69837A838B839C8332
:1031200010E000E030E020E044E050E0BE016F5FDE
:103130007F4F82E00E946F17182F882351F00E9462
:10314000540860938C0270938D0280938E0290934A
:103150008F02812F2496E4E00C94C131A6E0B0E008
:10316000E4EBF8E10C94A3317B0101E010E09E0157
:103170002A5F3F4F50E040E070E060E080E00E9456
:103180006F17182F882309F453C04091880250917B
:10319000890260918A0270918B022FB7F894809116
:1031A000090490910A04A0910B04B0910C042FBF64
:1031B000841B950BA60BB70B84369105A105B105B1
:1031C00048F465E070E08EE292E00E947A089E8109
:1031D000891771F105E010E09E012F5F3F4F50E02D
:1031E00040E070E060E081E00E946F17082F65E02A
:1031F00070E08EE292E00E947A0811E09E819813BE
:1032000010E0102301F10E9454086093880270932B
:10321000890280938A0290938B0285E0FE013196A9
:10322000A3E8B2E001900D928A95E1F711E00BC09E
:1032300085E0EEE2F2E0DE01119601900D928A95B2
:10324000E1F71111EACF85E0E3E8F2E0D701019060
:103250000D928A95E1F7812F2696E6E00C94BF3116
:103260000E94700E8093090180910901882359F012
:103270001092750181E2809376010E94200E8111E7
:103280000E942130089581E2809375018AE2F3CF94
:1032900090E080E00E944332883E9E4F19F40E94E5
:1032A000FF15089580E0089528E030E043E060E0F5
:1032B00087EF0E94092E0895ACE0B0E0E2E6F9E164
:1032C0000C94A1314F83588769877A878B879C87B5
:1032D0008091E702882399F00E94541980E50E94AA
:1032E000812E2AEB2A95F1F700C00E94992E88784A
:1032F00099278038910509F484C00E94B12E0E945C
:10330000200E882309F468C00E9454080091C1016E
:103310001091C2012091C3013091C4016B017C0165
:10332000C01AD10AE20AF30A970186010830110592
:103330002105310508F450C06093C1017093C201AA
:103340008093C3019093C4010091F5021091F6029D
:103350002091F7023091F802601B710B820B930BE6
:10336000623371058105910580F41092EB02109291
:10337000EA021092ED021092EC021092EF0210920B
:10338000EE021092F1021092F0021091F4020E94EB
:10339000700E112309F462C0BE01695F7F4F8AEE8F
:1033A00092E00E94CE0B0091F4021091E7020E947D
:1033B000700E011709F47CC0BE01695F7F4F8EEE6D
:1033C00092E00E94CE0B86E0FE013796A3E0B3E0C8
:1033D00001900D928A95E1F786E0FE013796DE01B5
:1033E000119601900D928A95E1F729813A814B81DE
:1033F0005C816D817E8180E090E02C96E8E00C9409
:10340000BD310E94992E0E94992E7C010E94992E16
:1034100020E0E22AF82A0E94992E8C010E94992E1F
:1034200020E0022B182B0E94B12EF894B701809156
:10343000EA029091EB020E949B0C9093EB02809326
:10344000EA02B8018091EC029091ED020E949B0C7F
:103450009093ED028093EC02789451CF8091EA0230
:103460009091EB0281382FEF9207D4F080389105CC
:10347000CCF4819589878091EC029091ED0281389E
:103480002FEF92078CF08038910584F48A87109290
:10349000EB021092EA021092ED021092EC0283CF3E
:1034A00081E8E7CF8FE7E5CF81E8F0CF8FE7EECF78
:1034B0008091EE029091EF0281382FEF9207D4F0C5
:1034C00080389105CCF4819589878091F0029091A4
:1034D000F10281382FEF92078CF08038910584F447
:1034E0008A871092EF021092EE021092F10210926F
:1034F000F00269CF81E8E7CF8FE7E5CF81E8F0CF31
:103500008FE7EECFCF93DF93D82FC62F0E945419A9
:103510008D2F80680E94812E8C2F0E94812E0E9408
:10352000B12E8FEC92E00197F1F700C00000DF911F
:10353000CF910895682F893708F068E76093F20209
:1035400091E09093F3029091E702992359F0615032
:10355000811101C064E08FE00E94821A60E080E582
:103560000E94821A0895FB0180810E949A1A089590
:103570009091F202911101C095E0282F880F330B32
:10358000A901490F511DCA011816190614F081E04E
:1035900090E00E949A1A0895CF93C82F0E94541960
:1035A0008C2F0E94812E8FE792E00197F1F700C0E7
:1035B00000000E94992EC82F0E94B12E9AE69A957B
:1035C000F1F700C08C2FCF910895CF93DF930E9425
:1035D000012E879A0E9454196AE58AE30E94821A92
:1035E0002FEF80E792E0215080409040E1F700C04B
:1035F000000082E00E94CC1A83E00E94CC1A84E092
:103600000E94CC1A85E00E94CC1A86E00E94CC1A57
:1036100060E080E10E94821A80E00E94CC1AD82FDC
:1036200081E00E94CC1AC82F0E94B12ED23419F426
:1036300081E0C13009F080E081708093E702882347
:1036400041F064E08FE00E94821A60E080E50E9411
:10365000821ADF91CF9108951F920F920FB60F92A9
:1036600011242F933F934F935F936F937F938F9387
:103670009F93AF93BF93CF93DF93EF93FF93D0913B
:10368000E900DF708091EC00C82FC17080FDC0E8B8
:103690001092E9008091F000877F8093F000789489
:1036A0000E9439101092E9008091F00088608093A8
:1036B000F000CD2BCF70C093E900FF91EF91DF9127
:1036C000CF91BF91AF919F918F917F916F915F91BA
:1036D0004F913F912F910F900FBE0F901F90189513
:1036E0001F920F920FB60F9211242F933F934F9377
:1036F0005F936F937F938F939F93AF93BF93EF935A
:10370000FF938091E10082FF09C08091E20082FF77
:1037100005C08091E1008B7F8093E1008091DA0009
:1037200080FF24C08091D80080FF20C08091DA0003
:103730008E7F8093DA008091D90080FF9DC080E168
:1037400089BD82E189BD09B400FEFDCF81E080938F
:103750001B0480910D04811109C00E94B9060E94CA
:1037600084078091E20084608093E2008091E10010
:1037700080FF17C08091E20080FF13C08091E200BB
:103780008E7F8093E2008091E20080618093E2006E
:103790008091D80080628093D80019BC85E0809326
:1037A0001B048091E10084FF2BC08091E20084FF24
:1037B00027C080E189BD82E189BD89B5982F9170CC
:1037C00080FFFBCF8091D8008F7D8093D8008091BF
:1037D000E1008F7E8093E1008091E2008F7E8093F4
:1037E000E2008091E20081608093E20080911C04FD
:1037F000882309F447C084E080931B0480911B0454
:103800008091E10083FF27C08091E20083FF23C005
:103810008091E100877F8093E10082E080931B0428
:1038200010921C048091E1008E7F8093E1008091D2
:10383000E2008E7F8093E2008091E20080618093BD
:10384000E20042E060E080E00E9452078091F000D8
:1038500088608093F000FF91EF91BF91AF919F91AD
:103860008F917F916F915F914F913F912F910F9029
:103870000FBE0F901F90189519BC10921B04109248
:103880000D0474CF8091E30087FD93E090931B04B7
:10389000B5CF78941F921FB61F9211248F939F93D8
:1038A000AF93BF938091090490910A04A0910B04F7
:1038B000B0910C040196A11DB11D80930904909351
:1038C0000A04A0930B04B0930C04BF91AF919F9195
:1038D0008F911F901FBE1F9018959C014FB7F894B1
:1038E0008091090490910A04A0910B04B0910C04FA
:1038F0004FBF821B930B08952FB7F8948091090452
:1039000090910A04A0910B04B0910C042FBF08956C
:103910000E94200E882319F00E947C1C08950E94AA
:10392000560ECB01089560912504669570E041E044
:1039300050E08AE791E00E941232892B19F481E06D
:103940008093FD030E94881C9093F7038093F603F5
:103950008091FE0384608093FE0308959091250476
:1039600090FF31C0917081112FC092609093250417
:103970008091FE0381608093FE03662351F0609185
:1039800025047091260480912704909128040E94B8
:10399000181660912504669570E041E050E08AE7D2
:1039A00091E00E941232892BB1F00E94970881E0C9
:1039B0008093F90320E040912804609127048091CE
:1039C00026040E942B160895873010F09C60CECFFD
:1039D000880F982BCBCF0E94931CE9CF80912504B0
:1039E0008695815009F486E061E00E94AE1C08953E
:1039F0008091250486958F5F873008F081E061E033
:103A00000E94AE1C08958091250480FF08C0869511
:103A100082588F77833018F40E94F81C089561E073
:103A200082E00E94AE1C0895A2E1B0E0EAE1FDE16F
:103A30000C9498318C01DC0113968D919C91149714
:103A4000892B39F08C9111969C9189238F3F09F035
:103A500059C56296E1E10C94B4310E949015F82E9C
:103A6000682F89819A810E94870B69817A818F2DC5
:103A70000E9482157C01F8018281882309F435C5F2
:103A8000C70182519F45409708F0F4C48FEF93E03F
:103A90000E943532811128C0FEEEEF0E57EB852EC5
:103AA00052E0952EE11033C01C821B8244244394C3
:103AB0004AE0342E74018FEFE81AF80AC4010E941C
:103AC000353289831A82882379F09FEF980F9330DB
:103AD00060F58A83498292E0890E911CC7010E9499
:103AE00035328B83811122C080912002877009F4C6
:103AF000B0CFD80112968C91882309F4AACF809177
:103B00009B0282FFA6CF82E00E943113A2CF8114D4
:103B100024E0920649F3C4010E943532811101C0AC
:103B2000EA943FEF831A930ABDCF4701DE01119655
:103B30007D01F7012081222309F4BCCF213009F057
:103B40006DC091818281913061F4F2E0EF0EF11C41
:103B500065E070E0893311F460E570E00E940014C4
:103B600007C0923039F522E0E20EF11C0E94C71323
:103B7000FFEFEF1AFF0A8FE99FE00197F1F700C00E
:103B80000000AFE9BFE01197F1F700C00000EFE9D6
:103B9000FFE03197F1F700C000008FE99FE0019747
:103BA000F1F700C00000AFE9BFE01197F1F700C0E6
:103BB0000000BFCF933031F432E0E30EF11C0E94DD
:103BC0007113D6CF943021F08FEFE81AF80AD0CFD6
:103BD00092E0E90EF11C30E020E0B7016F5F7F4F0B
:103BE000D70111964C918053990B8A30910558F06A
:103BF0002150310908F4BCCFEFE9FFE03197F1F72C
:103C000000C00000F5CF329EF001339EF00D11246C
:103C10009C012E0F3F1F842F7B01DFCFE22FF0E0AE
:103C2000E957FE4F5490822F86958695869590E0B1
:103C3000FC01E958FE4F64902770712C022E02C0DF
:103C4000759467940A94E2F731E063227724FC01CB
:103C5000E959FE4FA490B12C022E02C0B594A7944E
:103C60000A94E2F7A1E0AA22BB24FC01E95AFE4F24
:103C7000C490D12C02C0D594C7942A95E2F7B1E044
:103C8000CB22DD246114710419F081EE0E94C71368
:103C9000A114B10419F086EE0E94C713E9E365E0B0
:103CA00070E05E1202C060E570E0852D0E94001495
:103CB000A114B10419F086EE0E947113611471040D
:103CC00019F081EE0E947113C114D10409F450CF90
:103CD00065E070E08CE242CF81E00E944D130E94CB
:103CE000181302CF81E00E942413F9CF82E0F5CFB0
:103CF000F701DFC3E45FF10921E030E001C0220FEA
:103D0000EA95EAF796E0EFE0F3E0DE01179601901E
:103D10000D929A95E1F796E0FE013796DE011D9629
:103D200001900D929A95E1F79885882389F1292BC6
:103D30002E8786E0FE013D96DE01119601900D92E0
:103D40008A95E1F786E0FE013196AFE0B3E001909D
:103D50000D928A95E1F7F8018281F6E1EF16FCE514
:103D6000FF0609F069C0882309F451C080910E0450
:103D70008A7A91E009F490E09093C50169E281119B
:103D800065E38AEA91E00E9460080E94F00FACCEE1
:103D900020952923CDCF80E00E949A1A1092F90233
:103DA000A3CE4091F2025091F90250FB47F956958B
:103DB000537060E070E08FE090E00E945B3294CE40
:103DC00081E00E94B81A90CE8FEFFBCF8AE0F9CF46
:103DD00086EFF7CF9091F40281E089270E94500C82
:103DE00083CE8091F902811101C084E08F5F1816A3
:103DF0000CF081E0883008F087E08093F90274CEFF
:103E00008091F902811101C084E08150F0CF80914E
:103E1000C50181110FC089E2ECEAF1E022EB31E04B
:103E20009191891303C0DF0111971C922E173F0750
:103E3000B9F7ABCF85E3F0CF811108C180910E04B3
:103E400082722AECE2162CE5F20609F4EFC008F0C3
:103E50007CC095ECE9169CE5F90609F4D3C008F09E
:103E600059C0B3ECEB16BCE5FB0609F4C1C008F081
:103E7000C4C0F2ECEF16FCE5FF0609F48DC0F801B2
:103E80008281E080F180882309F41EC1C7010E946D
:103E90009015D82E682FC7010E94870BB7018D2D72
:103EA0000E9482150E94D2097C01882ED8011296A8
:103EB000CC9012971596BC90B2943FE0B3228091BB
:103EC00020028770C1F0AC2CCC20B1F08F2D807F08
:103ED000803421F080E28E0D883068F080919B0262
:103EE00082FF09C082E00E94311380912002877016
:103EF000AA24A3948111A12C9F2C92942FE09222AA
:103F0000BBE0B91508F44FC1E92DF0E0E757FD4CCF
:103F10000C94FC3127ECE2162CE5F20609F47CC087
:103F200008F475C098ECE9169CE5F90609F479C027
:103F30004FE756E16CE876E1A9ECEA16ACE5FA0643
:103F400009F09DCF0E949008CFCDBEECEB16BCE5EA
:103F5000FB0609F475C090F4FCECEF16FCE5FF06D7
:103F600009F469C047EC56E169ED76E12DECE21603
:103F70002CE5F20638F361E081E037C035EDE31659
:103F80003CE5F30609F45FC008F4AECD9DE5E91603
:103F9000F90609F4A9CD73CF8091250480FF20C0D4
:103FA0008E7F809325046091250470912604809172
:103FB0002704909128040E9418160E949708809167
:103FC000FE0381608093FE03AFEFB0E7E2E0A15013
:103FD000B040E040E1F700C000000E94580D84CDE1
:103FE00081608093250461E086950E94AE1C7CCDA3
:103FF0004EEE5CE168EF7CE1A5CF48EF5CE16EEE50
:104000007CE1A0CF43EB56E16DEB76E19BCF4DEB2E
:1040100056E163EB76E196CF49E956E166EA76E14F
:1040200091CF46EA56E169E976E18CCF4CE856E15A
:104030006FE776E187CF49ED56E167EC76E182CF15
:104040000E94031D51CD61E086E0CFCFFAE5EF1667
:10405000FDE5FF06A9F168F4E1143CE5F306B9F0CB
:104060008EEDE8168CE5F80609F009CF0E940417DA
:104070000CC09CE5E9169DE5F906C1F018F1B7EA18
:10408000EB16BDE5FB0609F0FACE0E94F91210927C
:104090000E040E942D10EFEFF4E32CE0E150F0400D
:1040A0002040E1F700C000000E94430880919B027D
:1040B00082FB882780F991E089270E943715DFCE9F
:1040C00081E0FBCF80E0F9CFC7010E94530BD82ECF
:1040D000E5CEEF2DEF70DE2E8F2D807F19F0D2947C
:1040E00090EFD922CC20B9F0DD2069F080E28E0D6E
:1040F000883010F0811009C080910E04D82AD09227
:104100000E040E94F00F8E2D4CC080912902D82AF7
:10411000D0922902F6CF8E2D0E947113DD2009F472
:1041200042C080E28E0D883010F0811004C08D2DC9
:104130000E94420B06C0D09480912902D822D092CE
:1041400029020E94F00F2FC0FF2DFF70DF2E8F2D50
:10415000807F803219F0D29480EFD822882089F0B5
:1041600021E0821609F468C0CC2009F472C0BB209B
:1041700009F468C0F801858180FFC5CF8F70858301
:1041800061C020919B0222FD35C0CC2069F1DD2069
:1041900039F080910E04D82AD0920E040E94F00FBC
:1041A00080E00E94C713E92DE850FF0B349710F40C
:1041B0000E94450EAA2009F44CCC8091200280FD7B
:1041C00048CCD80112961C928595859585950E94BC
:1041D0004D13C8010E94141D80912002859585957C
:1041E00085950E94241335CC80E00E947113DD2058
:1041F000D1F29DCFCC2099F090912A02892F8D2960
:10420000B11003C00E946713CECF31E0B312FACFD2
:1042100022FFC9CF981739F280932A02C4CFB11078
:1042200006C00E943C0B8D2D0E946013BCCF81E024
:10423000B81609F4B8CFF5CFCC2031F095E09B1536
:1042400008F4B1CF8D2DDECFA4E0AB1508F4ABCFD1
:10425000EACFBB2041F3F9E38F1204C12FEF37EE11
:1042600083E0215030408040E1F700C000008E2DF7
:104270000E94711398CF8F2D837091F5C11093CF49
:104280004E2D429546954770440F440F8E2D8F70EA
:10429000042E01C0880F0A94EAF72E2D2071E4FE47
:1042A00007C02FE030E001C0220F4A95EAF72095C1
:1042B0003F2D369536953370323069F050F4409189
:1042C0002B02313029F0822B84230E9459136BCFAB
:1042D000842B822BFACF282B80912B028227F5CFBB
:1042E0008695CC2011F08F2D8170882309F45BCF47
:1042F0004E2D429546954770440F440F8E2D8F707A
:10430000042E01C0880F0A94EAF72E2D2071E4FED6
:1043100007C02FE030E001C0220F4A95EAF7209550
:104320003F2D369536953370323069F050F4409118
:104330002A04313029F0822B84230E94111333CFB9
:10434000842B822BFACF282B80912A048227F5CF49
:10435000BF2DBF70FB2ECC2029F08B2F0E944D1358
:104360008E2D50CF8E2D0E9460138F2D0E9424130E
:104370001ACF8E2DE2EF8E16B1F1E81570F0F0EF46
:104380008F16D1F021EF821691F0CC2009F45EC097
:10439000B110B9CE8F2D8F712AC033EF831651F132
:1043A00094EF8912F2CF80919B0282FD2FC08F2D56
:1043B0008F71CC20D9F21BC0CC2081F0A4E0AB15CA
:1043C00008F4F1CE2F2D2F7181E090E001C0880F0D
:1043D0002A95EAF790912A048927AFCFB5E0BB155B
:1043E00008F4E1CEEFCF8F2D8F71C110BFCF0E94A7
:1043F0004D13D9CE80E0CC2009F49FCF9F2D9F7123
:1044000081E001C0880F9A95EAF797CFCC2099F008
:10441000EF2DEF71FE2E8E2F0E944D1380919B0287
:1044200082FF07C0F8E0FF9EC001112483608093E3
:1044300020028F2DDCCF81E00E94311321E02B156B
:1044400008F0B1CE82E00E943113ADCEBB2079F0EE
:10445000893341F43FEF87EE93E031508040904044
:10446000E1F703CFAFE1BEE41197F1F7FECE8F2D58
:104470008F717CCFB0E1EB16BFE5FB0609F42CCCC5
:10448000E1E1EE16EFE5FE0609F430CCF092000310
:10449000E092FF02F8018081918190930203809362
:1044A0000103C7019A9581159F4108F021CCF701BE
:1044B000FF27D80112968C91E43FF10548F0E93FBF
:1044C000F10508F417CCE83BBDE5FB0709F486CC01
:1044D000882309F440CCE15BFD45EA30F10508F0A2
:1044E0003ACCEB56FD4C0C94FC31F0E1EF16FFE5B5
:1044F000FF0609F4F7CB21E1E2162FE5F20631F6CB
:1045000082E0F1CB85E0F801DE01119601900D9279
:104510008A95E1F7D80112962C9189819A8121110F
:104520009CCA0E94530BF82EA0CA1F93CF93DF930F
:104530008091ED01807F09F049C08091EA018823D4
:1045400009F444C080911F02D091EE016091E8010E
:104550007091E901A091EB01B091EC01C62FC72346
:1045600016E0D81799F190E0109711F0CF3F19F4A9
:1045700001968770F6CF189F9001199F300D112476
:10458000F901E151FE4F41814713F2CF40814613BB
:10459000EFCF42814111ECCF438154814A1B5B0B29
:1045A000483C510528F78091ED018F708061809320
:1045B000ED01F901EC50FE4F80818F7080618083A6
:1045C00088EE91E00E94141D0E94490BDF91CF916B
:1045D0001F910895A1E1B0E0E0EFF2E20C949F3169
:1045E0008C0185E0F801DE011D9601900D928A95FF
:1045F000E1F7F801E28088EEA82E81E0B82E609104
:10460000EB017091EC016115710509F426C19091DF
:10461000E8014091E901892F84238F3F09F41DC1EE
:1046200020813181C380D480F090EA01F601E61B3D
:10463000F70BFF2009F4DCC08091ED01582F507F6B
:10464000E83CF10508F09FC051116BC0FE2C4313EC
:1046500014C0921312C0E11010C08F70806180935B
:10466000ED01C5010E94141D8091ED01F8018583C3
:104670008F2D6196EAE00C94BB31C114D10429F06E
:10468000822F83238F3F09F003C180E0F82FF17060
:10469000DF2E80FF3CC080911F024091EE0156E06A
:1046A000841315C02D873E878D859E850E94BF157A
:1046B000292F22952F702230F0F0243018F59F70AA
:1046C000F1F0F8019581907FD1F4D12C1EC090E0DB
:1046D000589FF001599FF00D1124E151FE4F618167
:1046E000361306C06081261303C06281E6120FC034
:1046F00001968770D5CF9F7011F0882331F3805ECB
:10470000883018F3C8010E94141DFD2CB1CFEE2093
:1047100009F4AECF8091ED0181608093ED01F12C21
:10472000A7CF431306C0921304C0F801EE2009F48A
:1047300079C0C8010E94CC15882309F1EE20F9F058
:104740008091ED01803270F02091E8013091E90113
:1047500038872F831986DB86CA868C87CE01079619
:104760000E94141D86E0F801A8EEB1E001900D92C0
:104770008A95E1F70E949522FF24F39479CFC8012E
:104780000E94141DF9CF51110AC088EE91E00E94D9
:10479000141D86E0F50111928A95E9F7C0CF431305
:1047A0000FC092130DC0E1100BC0F8018583C80142
:1047B0000E94141D86E0F50111928A95E9F758CF01
:1047C000C8010E94CC158823D1F2EE20C1F280915D
:1047D000ED01803238F22091E8013091E9013A830D
:1047E00029831B82DD82CC828E83CE010196B8CFD5
:1047F000E83CF105F8F6FE2CEE2009F243131FC049
:1048000092131DC08091ED0180FD10C0982F907F04
:1048100069F0F8018583903F31F0982F907F905F89
:104820008F70892B8583C8010E94141D86E0F801D2
:10483000A8EEB1E001900D928A95E1F719CFC80179
:104840000E94CC1581118ECF8091ED018160809303
:10485000ED01C8010E94141D0BCFEE2009F48FCF8B
:10486000C8010E94CC15F82E882309F488CF86E071
:10487000F801A8EEB1E001900D928A95E1F78091E0
:10488000E8019091E9010E94BF150E949522F0CEA7
:1048900081E08E25FBCEA7E1B0E0E1E5F4E20C94E7
:1048A000A6314B8B5C8B6D8B7E8B8F8B6111109245
:1048B00029021A8A198A85E0FE017396DE011D9687
:1048C00001900D928A95E1F786E0FE013D96DE01AA
:1048D000179601900D928A95E1F7CE0107960E94F6
:1048E000EA22882359F016E080911F029091EE0190
:1048F000891345C06796E3E00C94C23186E0FE015F
:104900003796DE01119601900D928A95E1F78A851E
:104910009B85892B41F38F81988589238F3F19F3DC
:104920002091EE0130E0C9010196877099274091EE
:104930001F024817190681F410920E040E942D10D0
:104940001092EE0110921F0286E0E8EEF1E0DF0126
:104950001D928A95E9F7C7CF96E0929FD001939F69
:10496000B00D1124A151BE4FFE01319601900D9260
:104970009A95E1F78093EE010E94490BB4CF819F95
:10498000C001112481519E4F0E94EA22882309F41C
:10499000B1CF80911F0290E0019687709927809394
:1049A0001F02A2CFB0E0A0E0E8EDF4E20C949B314E
:1049B00035E0C32E31E0D32E47E3842E46E0942E1B
:1049C00000E011E0712CAA24A394B12CD8018D91A0
:1049D0008D010E94AE0C00C0E401688025E0E22E4B
:1049E00021E0F22EF701D0E0C0E04191A42FA29582
:1049F000AF70B0E090968C9195010C2E01C0220F03
:104A00000A94EAF790E04F7002C0959587954A9511
:104A1000E2F780FD8EC0622A2196C430D10529F7C5
:104A2000F801319780810E94C20CA0EAAA95F1F7A3
:104A3000F4018081861519F0608277247394FFEF6A
:104A40008F1A9F0A21E00530120709F0BFCF01E05D
:104A500010E0D7018D917D010E94AE0C00C0C8010D
:104A60000C2E01C0880F0A94EAF7782FE7E3F6E0EE
:104A700090E0A92E91E0B92E682F6095D5012D9177
:104A80005D01822F82958F7090E0DC0190968C9171
:104A9000AF01308190E02F7002C0959587952A95DF
:104AA000E2F780FD49C0872F832B80833196DA019E
:104AB0008C91381711F077247394CA14DB04F1F643
:104AC000F701319780810E94C20CB0EABA95F1F7E4
:104AD0002196C830D10509F0BCCFC091990277204A
:104AE00071F181E08093B4010E947C1C9093B3012A
:104AF0008093B2018091B2019091B3010E946D1C2C
:104B0000059708F1D0E0CE52DD4F45E050E067E375
:104B100076E0CE010E941F32892B41F085E0E7E369
:104B2000F6E0DE0101900D928A95E1F71092B40152
:104B30000AC02095622270CF862F8323B6CF809142
:104B4000B4018111D7CF0E94200E182FE091990255
:104B5000811193C0F0E0EE52FD4F85E0AEE2B2E08D
:104B600001900D928A95E1F765E070E08EE292E0A7
:104B70000E947A0880932D02C0903302D0903402B4
:104B8000E0903502F09036028091B5019091B60127
:104B9000A091B701B091B801C816D906EA06FB0684
:104BA000D1F0C092B501D092B601E092B701F09277
:104BB000B8010E94200E81110EC00E945408C61A2E
:104BC000D70AE80AF90AC0929402D0929502E092BC
:104BD0009602F092970280913E02882379F180FF3D
:104BE0000DC0809137029091250480FF2DC0916007
:104BF0009093250460E086950E94AE1C80913E0251
:104C000081FF09C020E040913A0260913902809111
:104C100038020E942B1680913E0282FF06C08091CE
:104C20003D02882339F10E94931C80913E0283FF4C
:104C300003C081E08093F90310923E02872DCDB727
:104C4000DEB7EEE00C94B7319E7F909325040E946E
:104C500097088091FE0381608093FE03CFEFD0E739
:104C6000E2E0C150D040E040E1F700C000000E9407
:104C7000580DC4CF0E949708D8CFACE3B6E085E0CA
:104C8000ED0119928A95E9F7CE2FD0E0CE52DD4F93
:104C9000809136068A30A8F56EEA78E1CE010E944E
:104CA000D70C882309F449C063E678E1CE010E945D
:104CB000D70C882309F441C06DE078E1CE010E9451
:104CC000D70C8823D1F11092360681E08093BB0186
:104CD000C0919802D0E0CE52DD4F45E050E06CE349
:104CE00076E0CE010E941F32892B09F4A7CF85E020
:104CF000ECE3F6E0DE0101900D928A95E1F7712E6A
:104D00009DCF8091B9019091BA010E946D1C843FA2
:104D1000914010F68091BB01882309F48FCF109247
:104D2000BB01E0919802F0E0EE52FD4F95E0DF010B
:104D30001D929A95E9F7782E81CF809136068F3FA4
:104D400031F08F5F809336068A3008F4BECF0E9420
:104D50007C1C9093BA018093B901DCCF1F921FB6DF
:104D60001F9211248F939F93AF93BF938091080458
:104D7000811113C08091090490910A04A0910B0441
:104D8000B0910C044196A11DB11D8093090490932C
:104D90000A04A0930B04B0930C04BF91AF919F91B0
:104DA0008F911F901FBE1F901895CDB7DEB7AE979D
:104DB0000FB6F894DEBF0FBECDBF85B7806885BF44
:104DC00085B7806885BF84B7877F84BF0FB6F894A6
:104DD000A8958091600088618093600010926000C7
:104DE0000FBE80E890E00FB6F89480936100909336
:104DF00061000FBE8EE599E09093A9018093A80110
:104E00000E94B9060E9484078091E200846080932A
:104E1000E200789480911B048823A1F01091E900AE
:104E20001F709091EC00892F817090FD80E8182B05
:104E30001092E9008091E80083FD0E9439101F70F4
:104E40001093E90082E084BD93E095BD9AEF97BD91
:104E500080936E0010929402109295021092960226
:104E6000109297020E94FF15811102C00E9427151F
:104E70000E943019809109010E943019809105012A
:104E80000E94C20C809106010E94C20C8091070111
:104E90000E94C20C809108010E94C20C00E011E047
:104EA00085E0E82E81E0F82ED8018D918D010E94D9
:104EB000C20CE016F106C1F78091090195E081115D
:104EC00090E09093990285E0891B809398020E945C
:104ED000200E811102C00E942430E7E3F6E081E455
:104EE00096E0A2EDB2E011921D928E179F07D9F7BE
:104EF0000E944819811102C00E94041782E090E0CC
:104F00000E94353280939F0284E090E00E94353207
:104F1000182F82E290E00E943532982F812F9093D3
:104F20009B0280939A020E94D224EFE3FCE931971E
:104F3000F1F700C000000E94D2248091D20280FFCD
:104F400008C06FEF7FEF90E080E00E9467320E9420
:104F5000430883E090E00E9435320E9459130E947A
:104F6000200E882309F44DC180E08093CD0280E8B3
:104F700080932B040E94DB2E6DE070E08AE192E0CA
:104F80000E942E14892BE9F58091CD0263E070E038
:104F900081FD39C187E192E00E942E14892B89F5A9
:104FA0006DE070E087E092E00E942E14892B49F5B5
:104FB0000E945408605A75418F4F9F4F60930004C0
:104FC000709301048093020490930304EEE2F4E0F2
:104FD00080E092E0DF019C011D9221503040E1F71A
:104FE000F0933506E09334068FEF9FEF90932D04F6
:104FF00080932C0481E08093050480930404109234
:10500000CE0280919C02811138C00E944819811102
:1050100004C00E9404170E94EB1688E090E00E94F2
:105020003D32609325047093260480932704909367
:1050300028048091FE0383608093FE036E7F71F4E9
:105040000E94EB1688E090E00E943D3260932504B8
:105050007093260480932704909328040E949E084E
:105060000E9497088091250480FF04C060E0869527
:105070000E94AE1C81E080939C020E94200E811150
:1050800002C00E9424300E94E51A0E94200E811165
:105090002EC084E69CE0909351018093500126E15C
:1050A00030E030934C0120934B0186E390E09093E5
:1050B0004F0180934E014AE459E0509359014093C7
:1050C00058013093540120935301909357018093DA
:1050D000560143EB5AE150936101409360013093D4
:1050E0005C0120935B0190935F0180935E010E94BD
:1050F0004819882389F08FE090E00E943D328B01AF
:10510000862F8F770E949A1A001F0027001F1370A6
:10511000110F102B1093F90282E691E0909307048F
:1051200080930604B0E46B2EEE24E39480911B047C
:1051300000E112E1853009F4A7C00E94D22400EA00
:1051400012E087E891E09CA78BA7BC0122ED32E03A
:10515000F8019191D9018D919D01DB014D91BD0126
:105160008423AAEACA2EA2E0DA2ECE16DF0609F4BC
:1051700097C0981771F30E94200E482EE7E8CE2EB4
:10518000E1E0DE2EF2EDAF2EF2E0BF2E912CD50144
:10519000FD905D01F60181916F01F822D8015D90CB
:1051A0008D015F1429F15F24812C77247394852D60
:1051B0008721B1F04420A1F08EA29FA291E08F2D13
:1051C000872109F490E098A70E947C1C8160782FC9
:1051D0009AA789A74EA15FA168A58AA50E944B2422
:1051E0008394770CB8E08B12E2CFF8013197F0820C
:1051F0009394EAE09E12CBCF0E945408FF24F394CC
:1052000070C082E0B2CE84E192E0C6CE80911B04F1
:10521000843039F10E9458140E94480F10920804FB
:1052200048E150E00FB6F894A895409360000FBE97
:105230006092600083B7817F846083BF83B78160A1
:1052400083BF7894889583B78E7F83BF0FB6F89419
:10525000A895809160008861809360001092600042
:105260000FBE80911A04882379F00E94D224A7E807
:10527000B1E0E2EDF2E081919D91892309F0A9C4AA
:1052800052E0EC3DF507B9F780911B04853009F435
:10529000BDCF10920E040E942D100E94450E4DCFDE
:1052A000981369CF0E947C1C8C0180919D02909183
:1052B0009E0208171907A1F08FEF89A38AA31BA2EA
:1052C0000E947C1C8160782F9DA38CA349A15AA1C8
:1052D0006BA18DA10E944B2410939E0200939D020E
:1052E000F12C0E94200E8091FD03882309F463C0F5
:1052F0008091FC03E0912504E695E81BE093F80318
:10530000823009F075C1F0E0E75DFD4FE4910E2FAA
:1053100010E075EFC72E7DE0D72E8091F90388232A
:1053200061F01092F9030E94881C9093F703809318
:10533000F6031092FB031092FA030E94881CE0917E
:10534000F603F091F7039C012E1B3F0B2F3F3F47C5
:1053500090F52091AC022223B1F01092AC02209182
:10536000AA023091AB02821B930B8F3F9F4758F4E8
:10537000205D3A483093AB022093AA028091FE034D
:1053800088608093FE03A090FA03B090FB030E0F99
:105390001F1F1093F7030093F60386EF93E0F601C7
:1053A00009958091FA039091FB03892B21F4AB2896
:1053B00011F0E092AC0280910504882351F18091B4
:1053C000CF029091D0020E946D1CC29708F022C1BA
:1053D00020912C0430912D042115310509F0CDC107
:1053E000809104048823A9F00E94540800910004CD
:1053F000109101042091020430910304601B710B91
:10540000820B930B6F3F7F4F8F4F9F4710F40E948B
:105410005814F1100E9473140E94480F0E94450E08
:105420009091D102891721F08093D1020E945408F3
:1054300080911B04843009F473C20E94200E8823DB
:1054400009F474CE0E9454082091E20221116BC02D
:105450000091DE021091DF022091E0023091E10222
:105460006B017C01C01AD10AE20AF30A9701860196
:10547000043F11402105310508F455C06093DE0258
:105480007093DF028093E0029093E1028091DC024E
:105490009091DD0201969093DD028093DC021982E7
:1054A0008E010F5F1F4F21E050E040E060E088E098
:1054B0000E94B717811106C08091DC029091DD0235
:1054C0000A978CF181E08093E2028093E80299814F
:1054D000911101C080E08093E9028091E70210E021
:1054E000882329F00E94700E11E0811112E0809152
:1054F000E902882309F469C30E94700E811167C311
:1055000082E0182B0E94F6156B017C01DC01CB01B7
:105510008C7FBC01CD01612BC616D706E806F906C3
:1055200011F00E9409158091E902882309F4FCCD4D
:105530000E9454086B017C018091E3029091E40287
:10554000A091E502B091E602A7019601281B390B54
:105550004A0B5B0BDA01C9010497A105B10580F183
:1055600019821A821B821C828E010F5F1F4F24E05A
:1055700050E040E060E089E00E94B7178823C1F066
:1055800069817A818091EE029091EF020E949B0CDA
:105590009093EF028093EE026B817C818091F00208
:1055A0009091F1020E949B0C9093F1028093F00283
:1055B000C092E302D092E402E092E502F092E602A9
:1055C0008091F302882309F4AFCD8091F2028983A0
:1055D00010E000E020E0AE014F5F5F4F61E08AE045
:1055E0000E94B717882309F49FCD1092F3029CCD37
:1055F00000ED17E056E9C52E58E0D52E863009F0AB
:105600008CCEE7E2F2E0059114916CEBC62E6DE0D2
:10561000D62E83CE0E947C1C9093D0028093CF0222
:105620008EE294E090933506809334060E94200E1B
:10563000882309F49DC08FE292E00E94080F8091B8
:105640002A040E94BD0B0E94690C0E94880E8DE204
:1056500092E00E94080F81E00E94160F1091FF0255
:1056600088E792E00E94080F809102030E94690C73
:105670000E94880E84E792E00E94080F8091010347
:105680000E94690C0E94880E112309F46BC081E707
:1056900092E00E94080F812F82958F700E94690C02
:1056A0000E94880E812F0E94690C0E94880E8CEF48
:1056B000810F853308F056C08DE692E00E94080FF6
:1056C000212F2450330BF901E85CFD4F84910E9497
:1056D000880E84E992E00E94080F809105030E94E1
:1056E000700C0E9416148091060381950E94700C24
:1056F0000E941614809108030E94700C0E941614D8
:105700008091070381950E94700C0E9416148BE80B
:1057100092E00E94080F8091F202811101C085E0A1
:105720000E94700C01960E94161485E892E00E9477
:10573000080F8091F402811119C080E30E94880E45
:1057400081E892E00E94080F8091F902811101C066
:1057500084E0805D0E94880E80910504882309F40E
:105760003FCE36CE81E00E94160FB3CF81E3E6CF65
:105770008AE992E00E94080FEFCF8091CE0261E0AB
:1057800070E081112DCE082F10E02B01082E02C0F1
:10579000440C551C0A94E2F7A90144215521452BDC
:1057A00009F448C09091CD0290FD46C08295880FC3
:1057B00080768093700198013695279536952795C8
:1057C00020937301815E809371011092740124E62D
:1057D00030E047E050E06EE671E088E70E947B2F02
:1057E000892B09F0FDCDA80195E0440F551F9A952E
:1057F000E1F78091CD0280FD2DC0425D5B4F04E654
:1058000010E020E230E060E488E70E949C2F892BC2
:1058100009F0E6CD0E947314C201809590954090E6
:105820002C0450902D044822592250922D0440926D
:105830002C04D6CD8F5FA7CF880F880F880F809359
:10584000700110927301895F8093710183E08093EE
:105850007401BDCFEDEAF2E080E2DF011D928A958E
:10586000E9F7E3E8F1E0FEA7EDA70FE711E087E035
:10587000A82E99249394ADA5BEA52D91BEA7ADA742
:10588000F80121908F01240E352E311CC101825D5B
:105890009B4F1C01E22FF0E0E355FD4F30E020E08C
:1058A0007A2C721AB92C022E01C0BB0C0A94EAF7AA
:1058B000610190E0D6018D916D018B21672D691BEF
:1058C0006770862E062E000C770BB82F01C0BB0F19
:1058D0008A94EAF78B2E7195619571096770772725
:1058E00001C086956A95EAF7882A8081882A808295
:1058F0009F5F9830F9F62F5F3F4F31962830310582
:1059000079F6E7E8F1E0CDA4DEA4EC15FD0509F099
:10591000B2CF04E610E020E230E04DEA52E073CF6F
:1059200083E08093E9008091E80082FF86CD80913A
:10593000E80090E085FF05C00E94D806882399F012
:1059400091E08091E8008B778093E800992309F437
:1059500074CDE981E150E33108F080C0F0E0E15618
:10596000FD4C0C94FC3100E210E0AE014F5F5F4F44
:105970006A018091E80085FD0AC08091E8008B777C
:105980008093E8000E94D806882399F3D9CF8091AC
:10599000F100D6018D936D010150110951F7D0CF5F
:1059A0001A828AE08B8310C08A818230A1F1833011
:1059B000A9F1813009F052C00E9454080E940232BD
:1059C0006B837C838D839E8380911B04843009F0DC
:1059D00034CD1091E9001F709091EC00892F8170F7
:1059E00090FD80E8182B82E08093E9008091E80028
:1059F00080FF0DC050E040E060E270E0CE01019613
:105A00000E9409078091E8008E778093E8001F705C
:105A10001093E90012CD0E94F615D0CF9E012D5FA4
:105A20003F4FE2EDF2E08191ABA5BCA59D91BCA7F3
:105A3000ABA78923D9018D939D01B2E0EC3DFB0713
:105A400091F7C2CF8A81823049F46B817C818D814C
:105A50009E810E9402320E940915B6CF8FEF898382
:105A6000B3CF4C816B818A810E9453159827892777
:105A700098279E838D83A8CF2D813E8132272327AF
:105A800032274C816B818A810E94AB149DCF0E948A
:105A9000D1149ACF80E18A8397CFEA8289E482CFBA
:105AA000CA80DB80DC24CD24DC248E010F5F1F4FF5
:105AB000AC80A00EB12EB11CC60189549D4FA0161A
:105AC000B10609F481CFE9E4CE16E1E0DE0658F430
:105AD0000E943532D80114968C93FFEFCF1ADF0A5B
