:100000000C949D060C94BA060C94BA060C94FF331B
:100010000C94BA060C94BA060C94BA060C94BA0660
:100020000C94BA060C94BA060C94C81B0C94841B4E
:100030000C94512B0C94BA060C94BA060C94BA0684
:100040000C94BA060C94BA060C94BA060C94BA0630
:100050000C94BA060C94A11C0C94BA060C94BA0623
:100060000C94BA060C94BA060C94BA060C94BA0610
:100070000C94BA060C94BA060C94BA060C94BA0600
:100080000C94BA060C94BA060C94BA060C94BA06F0
:100090000C94BA060C94BA060C94BA060C94BA06E0
:1000A0000C94BA060C94BA060C94BA06050109021F
:1000B000A10185020901A1000509190129081500FE
:1000C0002501950875018102050109300931158165
:1000D000257F95027508810609381581257F9501D0
:1000E00075088106050C0A38021581257F95017572
:1000F000088106C0C00660FF0961A1010962150000
:1001000026FF009520750881020963150026FF006F
:10011000952075089102C005010906A1010507197E
:10012000E029E71500250195087501810295017503
:100130000881010507190029FF150026FF00950613
:100140007508810005081901290515002501950587
:1001500075019102950175039101C0000000000036
:10016000000000000000000000000000000000008F
:100170000000000000000000000000000000007E01
:100180000F00D4FFFFFFC700000078000000000050
:100190000000002A2B2800000000000000000000E2
:1001A00000000000000029000000002C1E34202167
:1001B0002224342627252E362D3738271E1F2021AE
:1001C00022232425263333362E37381F040506070D
:1001D00008090A0B0C0D0E0F101112131415161727
:1001E00018191A1B1C1D2F3130232D350405060745
:1001F00008090A0B0C0D0E0F101112131415161707
:1002000018191A1B1C1D2F3130354C00DA0281FFE2
:10021000D9F1DB20A4A62EAF00A0C0D30000A1C856
:10022000D30000AED580A81F408D14200000041E0E
:10023000140A05000101010101010101010202028C
:100240000202020202020303030303030303040482
:10025000040404040405050505050606060606074C
:100260000707070708080808090909090A0A0A0B05
:100270000B0B0C0C0C0D0D0D0E0E0E0F0F0F1010A6
:10028000111111121213131414151516161717182D
:100290001819191A1A1B1B1C1D1D1E1E1F20202198
:1002A0002222232424252626272829292A2B2C2DDF
:1002B0002D2E2F30313232333435363738393A3B00
:1002C0003C3D3E3F404142434445464748494A4CF5
:1002D0004D4E4F50515354555658595A5B5D5E5FC1
:1002E000616264656668696B6C6D6F707273757757
:1002F000787A7B7D7E8082838587888A8C8E8F91B9
:10030000939596989A9C9EA0A2A3A5A7A9ABADAFE2
:10031000B1B3B5B7BABCBEC0C2C4C6C9CBCDCFD1CC
:10032000D4D6D8DBDDDFE2E4E7E9EBEEF0F3F5F875
:10033000FAFDFF2223252628292A2C2D2F3032339F
:100340003536383A3B3D3E4042434547494A4C4E9C
:100350005051535557595A5C5E6062646668696BC8
:100360006D6F71737577797B7D7F81838587898ACE
:100370008C8E90929496989A9C9E9FA1A3A5A7A8D4
:10038000AAACAEAFB1B3B4B6B8B9BBBCBEBFC1C204
:10039000C3C5C6C7C9CACBCCCDCED0D1D2D2D3D497
:1003A000D5D6D7D7D8D9D9DADADBDBDBDCDCDCDCB5
:1003B000DCDDDDDDDDDCDCDCDCDCDBDBDBDADAD983
:1003C000D9D8D7D7D6D5D4D3D2D2D1D0CECDCCCB05
:1003D000CAC9C7C6C5C3C2C1BFBEBCBBB9B8B6B423
:1003E000B3B1AFAEACAAA8A7A5A3A19F9E9C9A98B3
:1003F000969492908E8C8A89878583817F7D7B7984
:10040000777573716F6D6B6968666462605E5C5A64
:100410005957555351504E4C4A4947454342403E27
:100420003D3B3A3836353332302F2D2C2A292826B9
:1004300025232200AF00AE20004C61796572202098
:1004400020006162636465666768696A6B6C6D6EE3
:100450006F707172737475767778797A313233345C
:10046000353637383930524542545F2D3D5B5D5C3F
:10047000233B27602C2E2F20202700204B002020FC
:1004800043004B657920202020520020204400307A
:10049000302020530020202020204350490042617A
:1004A0006C6C2000808182838485868788898A8B12
:1004B0008C8D8E8F9091929394A0A1A2A3A4A5A6B7
:1004C000A7A8A9AAABACADAEAFB0B1B2B3B4C0C12E
:1004D000C2C3C4C5C6C7C8C9CACBCCCDCECFD0D184
:1004E000D2D3D40029001E001F002000E1001D000F
:1004F0001B0006002100220023002B00190005002C
:10050000E000225214001A0008001500E2002C003E
:10051000000000001700E0000400160000000000CA
:1005200000000000070009000A00000000000000B1
:100530000000000024002500260027000E000F0008
:10054000330034002D002E0031003500280011004A
:10055000100036004C001C0018000C00370038005A
:10056000E5005200120013002F00300021522C0031
:10057000E600E7002A000B000D00000050005100CB
:100580004F00000001003A003B003C000100010068
:10059000010001003D003E003F0039000100010064
:1005A0000100010001002078237825780100010076
:1005B0000000000027780100010021780000000001
:1005C0000000000024782678287800000000000051
:1005D0000000000040004100420043004A004B0080
:1005E00050004F004400450049004C00010001004C
:1005F00001004D0001000100010046004E005100C5
:100600000100010047004800520001000100010004
:1006100001000100010001000100000001000100D3
:1006200001000000010001000100010001000100C3
:1006300001000100010001000100010001000100B2
:1006400001000100010001000100010001000100A2
:100650000000000001000100010001000000000096
:100660000000000001000100010000000000000087
:10067000000000000100010001000100027E047E74
:10068000087E107E01000100010001000100137EC0
:10069000017E037E0100010001000100057E097E4C
:1006A000117E0100010001000100010001000100B4
:1006B000010001000100127E007E00000100010027
:1006C0000100000001000100010001000100010023
:1006D0000100010001000100010001000D7E0E7EFD
:1006E0000100010001000100010001000100010002
:1006F000000000000100010001000F7E000000006A
:10070000000000000A7E0B7E0F7E0000000000004B
:100710000000000001000100010001000B7E0F7EBF
:1007200001000100010001000100010001000D7E37
:100730000E7E010001000100010001000100010026
:1007400001000100010001000100010001000100A1
:100750000100010001000F7E0A7E0000010001007F
:100760000100000009025B00030100A0FA09040077
:1007700000010301010009211101000122440007C9
:1007800005810308000109040100020300000009BB
:100790002111010001222200070582032000010728
:1007A0000503032000010904020001030000000901
:1007B00021110100012249000705840320000112D4
:1007C000010002000000083839373601000102003C
:1007D000010E0372006500650078003600370000E6
:1007E0000012036B0075007300680069006D006102
:1007F0000038000000040309040000000000003E6F
:100800005B4F5B3E003E6B4F6B3E001C3E7C3E1CD4
:1008100000183C7E3C18001C577D571C001C5E7F56
:100820005E1C0000183C180000FFE7C3E7FF000053
:100830001824180000FFE7DBE7FF0030483A060EF7
:1008400000262979292600407F05050700407F05FD
:10085000253F005A3CE73C5A007F3E1C1C0800081C
:100860001C1C3E7F0014227F2214005F5F005F5F2C
:100870000006097F017F00006689956A006060605C
:1008800060600094A2FFA2940008047E0408001097
:10089000207E20100008082A1C0800081C2A0808CE
:1008A000001E10101010000C1E0C1E0C0030383EE4
:1008B000383000060E3E0E0600000000000000006A
:1008C000005F000000000700070000147F147F1481
:1008D00000242A7F2A120023130864620036495636
:1008E000205000000807030000001C224100000007
:1008F00041221C00002A1C7F1C2A0008083E080810
:10090000000080703000000808080808000000603F
:100910006000002010080402003E5149453E0000DE
:10092000427F4000007249494946002141494D3308
:10093000001814127F10002745454539003C4A49EC
:10094000493100412111090700364949493600461D
:100950004949291E00000014000000004034000036
:100960000000081422410014141414140000412241
:100970001408000201590906003E415D594E007CF1
:100980001211127C007F49494936003E4141412203
:10099000007F4141413E007F49494941007F0909AB
:1009A0000901003E41415173007F0808087F0000A3
:1009B000417F4100002040413F01007F0814224157
:1009C000007F40404040007F021C027F007F0408FF
:1009D000107F003E4141413E007F09090906003E6B
:1009E0004151215E007F09192946002649494932B3
:1009F0000003017F0103003F4040403F001F2040B3
:100A0000201F003F4038403F006314081463000378
:100A100004780403006159494D4300007F4141417E
:100A200000020408102000004141417F000402013F
:100A3000020400404040404000000307080000203E
:100A400054547840007F28444438003844444428B3
:100A500000384444287F0038545454180000087E5D
:100A60000902001824241C78007F08040478000080
:100A7000447D4000002040403D00007F102844009D
:100A80000000417F4000007C04780478007C08046A
:100A90000478003844444438007C18242418001892
:100AA0002424187C007C080404080048545454246E
:100AB0000004043F4424003C4040207C001C2040B3
:100AC000201C003C4030403C004428102844004C8E
:100AD0009090907C004464544C44000008364100DF
:100AE000000000770000000041360800000201020B
:100AF0000402003C2623263C00000000000000F811
:100B0000FCFCFC3C3CFCFCFCF80080C0F0F8FC7EEB
:100B100000000000000000000000000000000000D5
:100B2000FCFCFCFC000000000000000000FCFCFCE1
:100B3000FC000000000000000000000000000000B9
:100B40000000FCFCFCFC000000000000000000FCB9
:100B5000FCFCFC00000000000000000000000000A1
:100B6000000000007EFCF8F0E0C080000080C0E0E3
:100B7000F0F8FC7E000000E0F0F0F0E0ECEEF7F3BF
:100B80007020007C7C7C7E007E7E7E7F7F7F0000EC
:100B900080C0E07E5B4F5BFEC00000C000DCD7DEA3
:100BA000DEDED7DC00C00000000000000000000016
:100BB000000000000000000000000000000000FF36
:100BC000FFFFFF0000FFFFFFFF7F1F0F0701000077
:100BD0000000000000000000000000000000000015
:100BE000FFFFFFFF000000808080800000FFFFFF0C
:100BF000FF000000000000000000000000000000F6
:100C00000000FFFFFFFF000080808080000000FFE9
:100C1000FFFFFF00000000000000000000000000D7
:100C200000000000000081C3E7FFFFFFFFFFFFE7B8
:100C3000C38100000000000F1F3F7F7F7F7F7F3F49
:100C40001E0C001F1F1F3F003F3F3F7F7F7F003074
:100C50007B7F7830202030787F3B0003000F7F0FB0
:100C60000F0F7F0F000300000000000000000000D5
:100C7000000000000000000000000000000000FF75
:100C8000FFFFFF0000010101000000000000000064
:100C90000000000000000000000000000000000054
:100CA0003F3F3F3F0000003F3F3F3F00003F3F3F8F
:100CB0003F000000000000000000000000000000F5
:100CC00000003F3F3F3F00003F3F3F3F0000003FED
:100CD0003F3F3F0000000000000000000000000057
:100CE000000000007E3F1F0F070301000001030703
:100CF0000F1F3F7E00000000000000000000000009
:100D000000000000000000000000000000000000E3
:100D100000000000000000000000000000000000D3
:100D200000000000000000000000000000000000C3
:100D30000000000000000000000011241FBECFEFE3
:100D4000DAE0DEBFCDBF11E0A0E0B1E0EEE5FDE608
:100D500002C005900D92A43AB107D9F726E0A4EAA3
:100D6000B1E001C01D92A836B207E1F70E94782BCE
:100D70000C945B360C940000FC0190914904818135
:100D8000981321C080914A04882319F09281891315
:100D90001AC080914B04882319F09381891313C0E2
:100DA00080914D04882319F0958189130CC080919E
:100DB0004C04882351F091E02481281301C090E075
:100DC000892F8170089581E0FCCF80E0FACF482F11
:100DD00020913F049091060457E0291302C080E05F
:100DE000089530E0529FF001539FF00D1124E95F08
:100DF000FB4F8181681306C08081481303C0858141
:100E00008111EECF2F5F3F4F2770E7CFE8EDF0E085
:100E100080818E7F80831092E2001092DA0010921F
:100E2000E100A0EEB0E08C9181608C9380818F779F
:100E3000808319BCA7EDB0E08C918E7F8C9380816C
:100E40008F7E80831092EE0308952091E40030910C
:100E5000E50095E6A9012091EC00822F817020FF2A
:100E600006C08091E80080FF06C080E008952091D0
:100E7000E80022FD1AC08091FC03882389F08530A8
:100E800089F08091EB0085FD0FC02091E400309146
:100E9000E50042175307F9F29150E1F684E0089516
:100EA00082E0089583E0089581E008958091FE0333
:100EB00087FF13C08091E80082FF06C08091E800A0
:100EC0008B778093E80004C08091FC038111F2CFFE
:100ED00008958091FC038823D9F38091E80080FF76
:100EE000F8CF8091E8008E77ECCF982F9093E900AF
:100EF000242F762F50E0891731F07091EC0020916B
:100F0000ED005091F00021FD07C09F5F973071F711
:100F10008093E90081E008953091EB003E7F3093AB
:100F2000EB003091ED003D7F3093ED003091EB0010
:100F300031603093EB007093EC002093ED00509300
:100F4000F0002091EE0027FDE0CF80E00895B0E0B2
:100F5000A0E0EDEAF7E00C943935C8EDD0E08881E7
:100F60008F7E8883E7EDF0E080818160808384E07C
:100F700082BF81E08093EE0388818E7F888302EEBA
:100F800010E0F80110821092DA0081EEC82ED12C08
:100F9000F601108288818F778883888180688883B2
:100FA00088818F7D888319BC1092FC031092FD0309
:100FB0001092FB031092FA0390EEE92EF12CF70148
:100FC00080818B7F808388818160888342E060E0BC
:100FD00080E00E947507F60180818E7F8083F80192
:100FE000808181608083808188608083F701808137
:100FF0008E7F8083888180618883CDB7DEB7E8E00B
:101000000C945535FC0180910404909105048617D9
:101010009707A0F06115710529F49091E8009E777B
:101020009093E80090E06115710551F4911108C0AA
:101030008091E80082FF34C080E00895BC01F2CFC7
:101040008091FC038823C1F18530C1F18091E800D3
:1010500083FD30C08091E80082FDEACF8091E800F6
:1010600080FFE1CF8091F3002091F200382F6115CD
:10107000710519F02830310558F091E0283031051C
:1010800009F090E02091E8002E772093E800CBCF84
:1010900081918093F100615071092F5F3F4FE7CF3D
:1010A0008091FC03882341F0853041F08091E80075
:1010B00083FFBECF81E0089582E0089583E0089524
:1010C000089508958091F103089587E797E7909335
:1010D00001088093000888E19AE00FB6F894A8957B
:1010E000809360000FBE90936000FFCF2FB7F894FD
:1010F0006091EA037091EB038091EC039091ED0312
:101100002FBF0895FC01680F791F8FEF91E32191A4
:10111000822728E030E087FF09C0880F8927215007
:101120003109C9F7E617F70791F70895880FF7CF48
:10113000FA01811101C0FB0109950895E6E9F3E088
:101140001182828184608283089580914004982F67
:101150009E7F61F48170826080934004809143049B
:10116000853618F084E68093430408958E30B0F3FA
:1011700081708C60F1CFAF92BF92DF92EF92FF92BD
:101180000F931F93CF93DF93082F162FE901E42FBE
:10119000F0E0ED5CFD4F611110C0E4915E2F4E2F29
:1011A0004983E8835A83DF91CF911F910F91FF907C
:1011B000EF90DF90BF90AF900895E62EF12C449110
:1011C000D42EE42FF0E026E0829FC00111242FEFFF
:1011D00030E0B9010E941B35802F90E0880F991FE5
:1011E00055E5569FD001579FB00D11248A1B9B0BCC
:1011F000982F990F890F5901AE18BF08AE9ED001E4
:10120000AF9EB00DBE9EB00D11245B2F189F8001C4
:101210001124012F11275901A01AB10AAE9E800195
:10122000AF9E100DBE9E100D11245901A81AB108D1
:10123000AE9CC001AF9C900DBE9C900D1124892FD7
:101240009927281B390B2E9FC0012F9F900D3E9F81
:10125000900D1124E92F62307105A1F050F4611551
:10126000710509F49DCF6130710581F0EB2F512F8D
:1012700097CF6430710569F080F06630710509F42C
:101280008FCFF4CFE42F4B2F592F8ACFE42F412F4C
:1012900087CFEB2F542F492F83CF4B2F5D2DE12F7D
:1012A0007FCFCF93DF93EBE9F3E083819481A58136
:1012B000B681E90188839983AA83BB831482138250
:1012C00016821582DF91CF91089580E0089563E042
:1012D00070E083E192E00E948208909112028913EB
:1012E00018C0E0911302EB30A4F488E0E802F001AA
:1012F0001124E55FFE4F0680F781E02D309749F01D
:1013000026E332E04091150266E172E0809114021A
:1013100009950895EBE0F1E0ACEFB1E058968C91BF
:10132000589780A759968C9183AF089590916E023B
:1013300092FF10C041E0282F2471243009F040E0D2
:1013400031E0282F2871283009F030E0431711F0E0
:101350002CE0822793FF10C041E0282F2471243114
:1013600009F040E031E0282F2871283109F030E001
:10137000431711F02CE0822730916F0230FF10C02C
:1013800051E0282F2171213009F050E041E0282F51
:101390002871283009F040E0541711F029E0822725
:1013A00031FF10C041E0282F2171213109F040E0C8
:1013B00031E0282F2871283109F030E0431711F06F
:1013C00029E0822794FD877E089582389105B9F13E
:1013D000B0F48133910509F47DC048F48932910558
:1013E00009F46DC08A32910509F47BC008958533F4
:1013F000910509F45FC08933910509F10895833E91
:101400009105D9F138F4803E910529F1823E91058C
:1014100079F10895863E9105D9F1873E910509F449
:101420003EC0843E910541F520916F0221FF24C00A
:1014300080916E0284FD19C087EE90E0089520919E
:101440006E02237009F05AC020916F0223FF14C06E
:1014500089E290E0089520916E0220FD38C030911D
:101460006F0230FF09C024FF43C090E080E0089580
:1014700020916E0222FDF7CF089520916E0222FD89
:101480003AC030916F0230FD39C024FFF5CFEDCF67
:1014900020916E0223FFF0CF24FDE7CFCDCF209126
:1014A0006E0223FD2EC030916F0231FFEECF84EE2D
:1014B00090E0089520916E0225FFDECFC9CF2091E4
:1014C0006E0225FD21C020916F0223FFD5CF89E355
:1014D00090E0D2CF20916E0226FFCECF8AE290E03C
:1014E000089520916E0226FFC7CF81E390E0089512
:1014F00083EE90E0089582EE90E0089580EE90E013
:10150000089586EE90E0089585E390E008951F9396
:10151000CF93DF930E94E509EC01C11582E5D8075E
:1015200008F03FC0C11590E5D90708F0C2C0C83E19
:10153000D105C0F4C03ED10580F4C53AD10548F4C8
:10154000C430D10550F4C130D10539F0D0E0C0E04D
:1015500004C0CD3CD105D0F3D065CE01DF91CF9151
:101560001F910895C11580E4D80708F053C0C11534
:1015700090E2D90708F0B7C0C11581E0D80730F371
:101580008D2F0E949609182FCE0199270E94E509F8
:10159000C12FD0E0DC2FCC27CC27DF71C82BD92B73
:1015A000DCCFC03892E5D907A8F4C03682E5D80769
:1015B00008F063C0C03492E5D90708F049C0C032D2
:1015C00082E5D80788F1CF71D0E0DC2FCC27C16F3E
:1015D000D06AC3CFC03C92E5D90780F48C2F8F71BD
:1015E000C03AD24508F45EC00E949609C82FD0E0E8
:1015F000DC2FCC27CC27DF71D062AFCFC03E82E595
:10160000D80708F0A3CFDC2FCC27CC27DF71C06F21
:10161000D06AA3CFCE0199270E94E509CC27DF70BD
:10162000C82BD92BD06A99CF2C2F2695269590E2DE
:10163000299F900111248C2F8370C1E0D0E002C05B
:10164000CC0FDD1F8A95E2F7C22BD32BDD6885CF47
:101650002C2F26952695277080E2289F9001112433
:101660008C2F8370C1E0D0E002C0CC0FDD1F8A95C3
:10167000E2F7C22BD32BDC6870CF2C2F2695269552
:10168000277090E2299F900111248C2F8370C1E074
:10169000D0E002C0CC0FDD1F8A95E2F7C22BD32B1E
:1016A000DA685BCFC82FD0E0DC2FCC27C46FD06ABC
:1016B00054CF8C2F8F710E94960955E0D695C7950F
:1016C0005A95E1F7CF70D0E0DC2FCC27282F30E0FF
:1016D00084FF05C044E0220F331F4A95E1F7C22B77
:1016E000D32BD0693ACF8D2F8F710E949609182F76
:1016F000CE0199270E94E509C12FD0E0DC2FCC272D
:10170000CC27DF71C82BD92B77CF80959091EF0331
:1017100098239093EF03089580913F0490910604DD
:10172000981301C008958F5F8770FACF9C3080F5C1
:10173000883070F548E0949F90011124820F932F18
:10174000911D682F677023E0969587952A95E1F79C
:10175000FC01EE0FFF1FE80FF91FEE53FE4F50E0A4
:1017600040E080E0219130E0062E02C036952795BA
:101770000A94E2F721703327042E01C0220F0A9445
:10178000EAF7822B4F5F5F4F4330510559F70895B9
:1017900080E008959C3098F5883088F548E0949F63
:1017A00090011124820F932F911D282F277041E063
:1017B00001C0440F2A95EAF723E0969587952A956C
:1017C000E1F7FC01EE0FFF1FE80FF91FEE53FE4F8C
:1017D00090E080E070E05191DF0111979B01082EAD
:1017E00002C0369527950A94E2F7217021952527A6
:1017F000242325272C9301968330910561F70895C2
:1018000080939A03089590919A0321E030E0F901C2
:1018100001C0EE0F8A95EAF7D90102C0AA0FBB1FDB
:101820006A95E2F7EA2B01C0220F4A95EAF7892F61
:101830008E23E81305C0292B822F0E94000C0895E7
:1018400020952923F9CF21E030E001C0220F8A95AD
:10185000EAF7209580919A0382230E94000C089554
:101860009091ED01809589238093ED01282F2770B9
:1018700069F4891759F090916F0292FF07C086951D
:10188000869586950E94230C1092ED01089521E023
:1018900030E001C0220F8A95EAF780919A03822BEB
:1018A0000E94000C08958093F8010895982F929556
:1018B0009F7011F0892F94E0282F2695269511F01E
:1018C0009E5F822F869509F09F5F892F0895B0E073
:1018D000A0E0EDE6FCE00C943935FC01EB019091C1
:1018E000AD03911101C094E04081518191509A0162
:1018F000092E02C0359527950A94E2F7B901092E01
:1019000002C0660F771F0A94E2F7461B570B5183FC
:101910004083428153818A01092E02C015950795A3
:101920000A94E2F7B80102C0660F771F9A95E2F7B2
:10193000461B570B5383428321387FEF37077CF0D8
:101940002038310574F421952D8301388FEF180765
:1019500054F0802F003811053CF08FE705C021E8D6
:10196000F2CF2FE7F0CF81E881958C830E94760833
:101970002D81211103C02C812223B9F06093AE0385
:101980007093AF038093B0039093B1038091B2033F
:101990009BE0980F973120F4080F0093B2031D824B
:1019A000CDB7DEB7E8E00C945535C090AE03D090CB
:1019B000AF03E090B003F090B1036C197D098E097C
:1019C0009F09643671058105910500F31092B203F9
:1019D000DDCFCF93C82F8091A8038C1751F00E94C0
:1019E00076086093A9037093AA038093AB03909346
:1019F000AC03C093A803CF91089580919B03F90194
:101A0000808308958F708A3010F4805D0895895A1C
:101A10000895382F20E287FF02C031952DE24AE079
:101A2000832F642F0E947235905D9093BB018111CA
:101A30000BC02093BA0120E22093B90120E2209349
:101A4000B80188EB91E00895642F0E947235905D93
:101A50009093BA01832F64E60E947235882361F364
:101A6000805D8093B901EBCF9C01860F971F37FDF6
:101A700007C077FD04C097FF02C08FEF9FE708956E
:101A800077FFFDCF97FDFBCF80E090E80895E82F2A
:101A9000E295EF70F0E031A1282F2F7081E090E007
:101AA00001C0880F2A95EAF7382B31A392A18095BF
:101AB000892382A30895E82FE295EF70F0E031A129
:101AC000282F2F7081E090E001C0880F2A95EAF757
:101AD000982F9095932391A392A1892B82A3089587
:101AE000B0E0A0E0E6E7FDE00C9439357C016B0145
:101AF0008091590601E010E08A3010F40AE010E00D
:101B0000C1E0D0E060E676E0C701F60109958111F9
:101B100004C021960C171D072CF4CDB7DEB7E8E002
:101B20000C945535CC9F9001CD9F300D300D112474
:101B300090E080E045E34A95F1F7000001968217B6
:101B40009307C1F7DFCF0F931F93CF93DF938B01E1
:101B5000EA019091FC03943061F58093E9008FEFE6
:101B60009091E800815095FD06C095ED9A95F1F7AA
:101B700000008111F5CF8091E80085FF1AC00E9416
:101B80002507811111C08091E80085FD06C0809174
:101B9000E8008E778093E800F2CFF80181918F0101
:101BA0008093F100219779F78091E8008E778093F8
:101BB000E800DF91CF911F910F91089546E050E02A
:101BC000BC0184E00E94A30D0895CF93DF93EC0144
:101BD00048E050E0BC0181E00E94A30D88E0FE01D6
:101BE000A2EFB3E001900D928A95E1F7DF91CF91DA
:101BF000089560916C018091400480FF20C0809125
:101C00006B0143E0849FC001112481559D4F539A7D
:101C10002BB1277F3BB138605FB7F894FC01649F1C
:101C2000E00DF11D1124BF0168177907D1F45FBFE2
:101C30008FE594E00197F1F700C0000008958091CE
:101C40006D0190916E0123E0829FF0011124E15516
:101C5000FD4F8917A0F61182108212828F5F339692
:101C6000F8CFFC014191CF01E8E03BB9000000C092
:101C700047FF2BB9440F000000C000C000C02BB9C3
:101C800000C0EA9591F7D0CF9091400490FF0EC02C
:101C900090916D0120916E0133E0939FF00111242A
:101CA000E155FD4F921718F00E94F90D08958183B8
:101CB000608342839F5F3396F5CFA3E0B0E0E3E615
:101CC000FEE00C943D358C018091990381110AC08E
:101CD0009E012F5F3F4F44E66FEF0E94BB088A8151
:101CE00080939903F8016481613069F080919903D0
:101CF00040E0662361F040E0623011F440919903C6
:101D000080E060E004C06091990340E080E00E94C0
:101D1000440EF801848190E0019663E070E00E9437
:101D2000803584832396E4E00C945935A3E0B0E039
:101D3000ECE9FEE00C943D358C01DC011496EC914D
:101D4000F0E0ED5CFC4F44918091400480FF11C0B5
:101D5000453608F044E69E012F5F3F4F60914204F4
:101D6000809141040E94BB084B8169818A810E9455
:101D7000440EF80184818F5F84832396E4E00C9401
:101D80005935E0E4F4E080818E7F80830E949E08D4
:101D9000E6E9F3E08281816082830E94F90D089573
:101DA0008091FB01811119C082E390E02091E30052
:101DB00027FD10C0EFE3FCE93197F1F700C0000008
:101DC0000197A1F782E08093FB010E940607109221
:101DD000FC0303C081E08093FB0181E09091FB0153
:101DE000913011F080E0089508950E94D00E88236C
:101DF00059F0E091E703F091E803309729F0019062
:101E0000F081E02D0995089580E008950F931F93C8
:101E10000E94D00E882329F00E9476081F910F910E
:101E200008950E947608009168021091690220913D
:101E30006A0230916B02600F711F821F931FEECFF9
:101E400026982E9A249A2C9885E08A95F1F700001E
:101E500083B124982C9A90EA9A95F1F790E026E0C5
:101E6000959587952A95E1F78095909581700895CD
:101E7000CF9389E992E00E94BC06C82F882379F0AD
:101E8000E091E703F091E803309749F082E0809316
:101E900048040480F581E02D88E494E00995909150
:101EA000490486E0E8E4F4E0DF01282F1D922A953A
:101EB000E9F790934904A9E9B2E001900D928A955F
:101EC000E1F781E0C11103C0911101C080E0817090
:101ED000CF9108952FE2280F283078F481E090E028
:101EE00001C0880F2A95EAF720914904662331F052
:101EF000822B809349040E94380F08958095822395
:101F0000F8CFCF93DF93682F81E06A3019F06D30FE
:101F100031F480E00E940F10DF91CF9108958091FD
:101F200057069091580626E0FC01A1E5B6E0019025
:101F30000D922A95E1F7603E08F458C026E0FC01B6
:101F400011922A95E9F7C0915706D091580646E0BC
:101F500050E0BE0181E596E00E94ED359E012155DD
:101F60003440892B41F1C90145E0969587954A9502
:101F7000E1F741E050E0BA0102C0660F771F8A9591
:101F8000E2F7CB0160914F0470915004862B972BA0
:101F9000B9016B5F7F4FE5E076956795EA95E1F7CC
:101FA00002C0440F551F6A95E2F7842B952B90933E
:101FB000500480934F042A5F3F4F40914E04642F9A
:101FC00070E0C9010E941B35481B463010F4240FF5
:101FD000311D211572E0370710F030E020E02F5A54
:101FE0003B4F309358062093570696CFF6E06F9FED
:101FF000B00111246750784F46E050E00E94D73579
:10200000A2CFCF93DF93EC01FE018491811103C035
:10201000DF91CF9108950E94810F2196F5CFCF9344
:10202000382FE0915706F0915806E155F440209181
:102030004E04622F70E0CF010E941B35281B822FB7
:10204000332361F066E00E946635C82FC15010F45A
:10205000CF91089580E20E94810FF8CF9F01280F51
:10206000311D2115324018F080E0F0E0E0E08E0FE5
:102070009F2F911D8F5A9B4F909358068093570620
:10208000E7CF8091EF039091F701892B8093A60110
:102090009091F601992391F0892B8093A60120E07D
:1020A00088EA91E0FC013191CF0131112F5FF1E01D
:1020B0008E3A9F07B9F721111092F60148E050E0DF
:1020C0006EEE71E086EA91E00E94ED35892BA9F071
:1020D00088E0E6EAF1E0AEEEB1E001900D928A957B
:1020E000E1F7E091E703F091E803309731F00280E7
:1020F000F381E02D86EA91E009950895E8EAF1E0A0
:1021000086E0DF011D928A95E9F71092F7010E949F
:1021100041100895AAE2B0E0E0E9F0E10C943E3508
:102120008EEF93E02091F100DC012D93CD01B4E01E
:1021300086309B07B9F78091FF03833009F472C0A2
:10214000B8F4813009F449C0823009F4B5C08091F7
:10215000E80083FF8DC28091FE039091FF039A30C7
:1021600008F086C2E92FF0E0E35AF94C0C9494355C
:102170008A3009F490C08B3009F471C0893039F786
:102180008091FE03813219F780910204909103043B
:10219000009711F00297D9F68091E800877F80932D
:1021A000E8008091E80082FF38C09091F3008091B0
:1021B000F200029731F48091F100813011F0863005
:1021C00021F48091F1008093F1038091E8008B77F6
:1021D0008093E8000E945607BACF8091FE03813AAF
:1021E00009F0B5CF8091E800877F8093E800809167
:1021F000020490910304892B61F468E082EF93E07C
:1022000070E00E9402088091E8008B778093E800DC
:102210009ECF60E090E080E0F3CF8091FC038111DD
:10222000C0CF95CF8091FE03813A09F090CF809185
:10223000020490910304892B09F089CF8091E80072
:10224000877F8093E8008091E80080FFFCCF809139
:1022500078018093F1008091E8008E77B9CF80916A
:10226000FE03813209F073CF809102049091030440
:10227000892B09F06CCF8091E800877F8093E8007C
:102280000E94560780910004809378011092EF031A
:102290000E947E105CCF8091FE03813209F057CFFF
:1022A0008091E800877F8093E8000E945607809124
:1022B00001048093F0034BCF8091FE03813A09F033
:1022C00046CF8091E800877F8093E8008091E80006
:1022D00080FFFCCF8091F003BCCF803899F082382A
:1022E00009F0C6C1809102048F70873008F0C0C128
:1022F0008093E9008091EB0085FB882780F910929C
:10230000E90006C08091FA039091FB03911182606D
:102310009091E800977F9093E8008093F1001092ED
:10232000F1008091E8008E779FC1882309F48DC168
:10233000823009F09DC180910004811190C180918B
:1023400002048F702FEF280F263008F091C1809380
:10235000E9002091EB0020FF82C1933031F480919D
:10236000EB0080628093EB007AC19091EB0090616A
:102370009093EB0021E030E001C0220F8A95EAF74C
:102380002093EA001092EA008091EB008860EACF87
:1023900081116EC1109100041F778091E300807855
:1023A000812B8093E3008091E800877F8093E80091
:1023B0000E9456078091E80080FFFCCF8091E300E7
:1023C00080688093E30082E0111183E08093FC0336
:1023D0004FC18058823008F04BC1209100043091E9
:1023E00001042C3DE3E03E07A1F583E08A838AE205
:1023F00089834FB7F894DE01139620E03EE051E266
:10240000E32FF0E050935700E49120FF03C0E295E2
:10241000EF703F5FEF708E2F90E0EA30C0F0C7960C
:102420008D939D932F5F243159F74FBF8091E80022
:10243000877F8093E8006AE270E0CE0101960E94F7
:1024400002088091E8008B778093E80011C1C09664
:10245000E7CF8091020490910304432F5527433026
:10246000510509F44AC078F54130510509F47AC0A4
:102470008BE590E0E4E6F7E04230510509F0F8C062
:102480002091E800277F2093E800209104043091F8
:1024900005048217930708F49C0140E021153105DB
:1024A00009F065C0411163C08091E80082FDC9CF89
:1024B0008091FC03882329F2853019F28091E8008D
:1024C00083FFF2CFBECF4132510509F43CC0423206
:1024D000510509F0CDC08330910508F0C9C0FC0159
:1024E000EE0FFF1FE856FE4F0190F081E02D8B5656
:1024F0009E4FDC018C9190E01AC0332721303105CA
:10250000D1F02115310561F02230310509F0B0C05C
:10251000E1EDF7E0E4918E2F90E0E1EDF7E007C008
:10252000E5EFF7E0E4918E2F90E0E5EFF7E000971C
:1025300009F49EC0A5CFE1EEF7E0E4918E2F90E084
:10254000E1EEF7E0F4CF8330910508F091C0880FF9
:10255000991FFC01E256FE4F0190F081E02D89E0C9
:1025600090E08ECF82E190E0EFEBF7E089CF8091B1
:10257000FC03882309F465CF853009F462CF80918C
:10258000E80083FD5ECF8091E80082FD8DCF8091D1
:10259000E80080FF83CF9091F3008091F200211535
:1025A000310519F08830910550F041E0089709F0A5
:1025B00040E08091E8008E778093E8006FCF4491EF
:1025C0004093F1003196215031090196E8CF8038CF
:1025D00009F04EC08091E800877F8093E8008091E9
:1025E000FD038093F1009DCE811142C01091000443
:1025F0001230F0F58091E800877F8093E800109317
:10260000FD030E945607112311F084E005C080915C
:10261000E30087FDFACF81E08093FC0342E061ECA8
:1026200081E00E94750742E261EC84E00E94750738
:1026300042E261EC82E00E94750742E260EC83E0D6
:102640000E9475078091FC0313C0809100048130C3
:1026500079F481E0933009F080E08093FB031092DD
:10266000E9008091E800877F8093E8000E94560788
:102670008091E80083FF0AC08091E800877F809303
:10268000E8008091EB0080628093EB00AA96E3E083
:102690000C945A351092EF030E947E102FEF84E3C2
:1026A0009CE0215080409040E1F700C0000088E1AC
:1026B0009AE00FB6F894A895809360000FBE9093AF
:1026C0006000FFCF882321F00E94850B0E944110FB
:1026D0000895882339F09091EF03982B9093EF039E
:1026E0000E9441100895882349F19CEF980F913A78
:1026F00080F4E8EAF1E02EEA31E09191891303C019
:10270000DF0111971C922E173F07B9F70E94411065
:10271000089590E2980F983050F4877091E001C0CE
:10272000990F8A95EAF7892F0E94850BEFCF93E3E3
:10273000980F933118F460E00E946A0F08950F9388
:102740001F93CF93C82F882341F18CEF8C0F813AD0
:10275000B0F508EA11E08EEA91E0F8012191C21784
:1027600001F18E179F07D1F7EFEF80E0D8019D911F
:102770008D01C91781F0EF3F19F4911101C0E82FC5
:102780008F5F863099F7EF3F31F00E2E000CFF0B74
:10279000EA55FE4FC2830E944110CF911F910F91C5
:1027A0000895E8EAF1E02191C21303C0DF01119717
:1027B0001C928E179F07B9F70E944110D5CF80E277
:1027C0008C0F883068F4C77021E030E001C0220F20
:1027D000CA95EAF78091EF03822B8093EF03DBCF5A
:1027E00083E38C0F8331C8F661E08C2F0E946A0F5F
:1027F000D4CF1F93CF93DF93182FEB010E949F1329
:102800008FE99FE00197F1F700C000002197C1F721
:10281000812F0E947313DF91CF911F9108950F9321
:102820001F93CF93DF93EC01FC0101900020E9F7A7
:102830008F0101501109C017D10728F0DF91CF9106
:102840001F910F91089589910E94810FF4CFCF932A
:10285000DF93C9E3D3E060E0CE010E9427362196E2
:10286000C11584E0D807B9F7DF91CF9108951F9380
:10287000CF93DF93122F8430E0F46C30D0F44830E3
:10288000C0F490E1699FE001112450E0440F551F0E
:10289000C40FD51F90EC899FC00DD11D1124632F4B
:1028A000CE01C9960E942736612FCE01CA960E949A
:1028B0002736DF91CF911F910895B0E0A0E0E3E6C5
:1028C000F4E10C94393594EEE92E94E0F92EC12C04
:1028D0008701D12C1CC04C2F89E021E030E08D1500
:1028E00040F0FE01EE0FFF1FE00FF11F8591949164
:1028F0009C016D2D8C2D0E9437142196C830D10576
:1029000051F7D394005F1F4F8CE0D81619F0D0E038
:10291000C0E0E1CFC39480EAE80EF11C84E0C81265
:10292000D7CFCDB7DEB7E8E00C94553588E390E01B
:102930000E9427360895CF93C82F6FEF811163E26D
:1029400085E390E00E9427366FEFC11161E086E3D6
:1029500090E00E9427366FEFC11166E187E390E0B7
:102960000E942736CF91089580E00E949B1460E07A
:1029700070E0CB010E9496140E945D140E942714FF
:1029800081E00E949B1408950F931F93CF93DF93D0
:10299000843030F56C3020F5483010F520E1629F2E
:1029A0008001112450E0440F551F040F151F30EC17
:1029B000839F000D111D1124C801C9960E94033682
:1029C000C82FD0E0DC2FCC27C801CA960E9403365E
:1029D0009E01282BC901DF91CF911F910F9108957E
:1029E00090E080E0F8CF462F7C3040F4683030F43F
:1029F000843020F4672F0E94C414089590E080E092
:102A00000895CF92DF92FF920F931F93CF93DF939E
:102A10006C0100919A038091F801082BC3E0D0E08B
:102A200010E0FC2EC8010C2E02C0959587950A94E3
:102A3000E2F780FD0CC02197A0F7F12C8F2DDF91DC
:102A4000CF911F910F91FF90DF90CF900895B60125
:102A50008C2F0E94F3140E94870A019761F3EECF36
:102A6000CF93DF93EC010E940115BE010E94F31485
:102A70000E94870ADF91CF910895FC0124812223CF
:102A8000C1F0808191810E94301592959F7096309F
:102A900091F058F4925F9F70923058F4803F19F093
:102AA00030F4883E30F481E008959A5FF4CF843F9B
:102AB000D1F380E00895883EB0F3813FD1F7F3CFA2
:102AC000A6E0B0E0E6E6F5E10C943E3549835A8392
:102AD00049815A819923A1F0222391F0CA010E94D1
:102AE0000115182F682F89819A810E94CA0B69816C
:102AF0007A81812F0E94F3142696E3E00C945A35D4
:102B0000CA010E94960B182FF2CF88E390E00E9432
:102B10000336682F70E090E080E0089585E390E050
:102B20000E940336833289F486E390E00E940336E4
:102B3000813059F487E390E00E94033691E08631BA
:102B400009F090E0892F8170089580E0FCCFB0E01B
:102B5000A0E0EDEAF5E10C9439356C017B0164E607
:102B600070E088E70E9479328C01E601EC0CFD1CD4
:102B700017FD0BC0FE01849164E670E00E94E5320F
:102B80008C012196CE15DF0599F70E945B3381E019
:102B90000115110509F080E0CDB7DEB7E8E00C942F
:102BA00055358091E3039091E603911103C091E0C4
:102BB00089270895882369F062E070E085E394E056
:102BC0000E94A715811103C08091E303089510921C
:102BD000E3038091E303EBCFCF93C091E3038091B4
:102BE000E6038823D1F00E947608605A75418F4F22
:102BF0009F4F6093DF037093E0038093E103909312
:102C0000E203C11108C062E070E083E394E00E9437
:102C1000A715811105C0C091E3038C2FCF910895B2
:102C200081E08093E303F7CFB0E0A0E0EAE1F6E1D2
:102C30000C94353549015A016B017C010E94A508AD
:102C40008401A4016A2D7B2D88E090E00E94393632
:102C500094014A2D5B2DB601C70100E20E94BC35EC
:102C6000622F84E290E00E942736CDB7DEB7ECE019
:102C70000C945135A3E0B0E0E0E4F6E10C943B3570
:102C8000F82E062F142FE22E8091400480FF42C0C0
:102C9000909141049F1108C090914204961304C082
:102CA00090914304941729F0909198039260909327
:102CB0009803E82FE695F0E0EA57FE4F9081909355
:102CC00096038E7F823051F5412F153608F044E689
:102CD0009E012F5F3F4F602F8F2D0E94BB084B81BD
:102CE00069818A810E94440EF0924104009342045B
:102CF00010934304EE2071F020914004609144044D
:102D0000709145043F2DA80180914604909147049D
:102D10000E9414162396E6E00C945735923021F762
:102D200010914304E1CFE0E4F4E043812AE0421B48
:102D300008F440E021E0628181810E943A16089502
:102D4000E0E4F4E043812AE0420F08F44FEF21E091
:102D5000628181810E943A160895E0E4F4E0628184
:102D600021E1621B08F460E021E0438181810E943F
:102D70003A160895E0E4F4E0628121E1620F08F47C
:102D80006FEF21E0438181810E943A160895E0E4CB
:102D9000F4E0818121E04381628181510E943A16F1
:102DA0000895E0E4F4E0818121E0438162818F5E57
:102DB0000E943A16089580914404882319F08150A6
:102DC0008093440420914004309141044091420496
:102DD00050914304609144047091450480914604ED
:102DE000909147040E941416089580914404833002
:102DF00018F48F5F80934404209140043091410483
:102E00004091420450914304609144047091450400
:102E100080914604909147040E9414160895E0E4BE
:102E2000F4E083E0808311828FEF828384E68383E2
:102E30001482A6E9B3E012968C91129783601296E1
:102E40008C93758123E030E04FEF54E660E086819B
:102E500097810E941416089590916F0292FB222789
:102E600020F9281779F080FB92F990936F02609116
:102E70006E0270916F0284E090E00E94453682E01D
:102E80000E94300C089590E080E00E941136863E4A
:102E90009E4F19F40E948E15089580E00895B0E0C9
:102EA000A0E0E5E5F7E10C943A357901C82F880FE9
:102EB000DD0B41155105A9F0FE0193E0EE0FFF1F58
:102EC0009A95E1F7E55FFE4F8181928184509E4F94
:102ED000208130E04217530708F49A01A9010E94AB
:102EE000FA35CE010E94A534D82E8823D1F00115E1
:102EF0001105B9F083E0CC0FDD1F8A95E1F7FE01E3
:102F0000E55FFE4F438150E00417150708F4A80160
:102F1000C55FDE4F6C817D8164507E4FC7010E948A
:102F2000FA358D2DCDB7DEB7E7E00C945635A5E028
:102F3000B0E0EDE9F7E10C9437358D83E62E5A01C8
:102F4000F22E6801809159068A3028F080E025969B
:102F5000EAE00C9453358D818830C4F31A821982CB
:102F60008A836B832C8363E070E0CE0102960E941B
:102F700082088983E0923301F092460110E000E07C
:102F800030E020E044E050E0BE016F5F7F4F84E01E
:102F90000E944F178823D1F24E2D50E030E020E000
:102FA000B50185E00E944F17882381F230E020E0D0
:102FB00041E050E0BE016B5F7F4F86E00E944F17FB
:102FC000882321F20F2D10E0960150E040E070E0E0
:102FD00060E087E00E944F17BACFABE0B0E0E3EFCC
:102FE000F7E10C943D3588E0E0E4F4E0DE01119671
:102FF00001900D928A95E1F7809196039091970345
:10300000A091980389879A87AB872B8540916402AA
:103010005091650260916602709167023FB7F89423
:103020008091EA039091EB03A091EC03B091ED0342
:103030003FBF841B950BA60BB70B84369105A105EA
:10304000B10510F42223C1F010E000E030E020E0F0
:103050004BE050E0BE016F5F7F4F83E00E944F174F
:10306000882369F00E947608609364027093650279
:1030700080936602909367021092980381E02B96EA
:10308000E4E00C945935A4E0B0E0E9E4F8E10C94F4
:103090003D354091600250916102609162027091F1
:1030A00063022FB7F8948091EA039091EB03A0910B
:1030B000EC03B091ED032FBF841B950BA60BB70B50
:1030C00011E084369105A105B10518F10E94060FA3
:1030D0006E5F7F4F8F4F9F4F69837A838B839C8373
:1030E00010E000E030E020E044E050E0BE016F5F1F
:1030F0007F4F82E00E944F17182F882351F00E94C3
:1031000076086093600270936102809362029093EC
:103110006302812F2496E4E00C945935A7E0B0E0D7
:10312000E4E9F8E10C943B357B0101E010E09E01FD
:10313000295F3F4F50E040E070E060E080E00E9497
:103140004F17182F882309F453C040915C02509107
:103150005D0260915E0270915F022FB7F8948091DA
:10316000EA039091EB03A091EC03B091ED032FBF24
:10317000841B950BA60BB70B84369105A105B105F1
:1031800048F466E070E08DEF91E00E9482089F8134
:10319000891771F106E010E09E012F5F3F4F50E06C
:1031A00040E070E060E081E00E944F17082F66E089
:1031B00070E08DEF91E00E94820811E09F819813EA
:1031C00010E0102301F10E94760860935C02709376
:1031D0005D0280935E0290935F0286E0FE0131966D
:1031E000A6E5B2E001900D928A95E1F711E00BC0DF
:1031F00086E0EDEFF1E0DE01119601900D928A95E7
:10320000E1F71111EACF86E0E6E5F2E0D70101909F
:103210000D928A95E1F7812F2796E6E00C945735B9
:103220000E94200F80930A0180910A01882359F09F
:1032300010926B0181E280936C010E94D00E81118B
:103240000E94B933089581E280936B018AE2F3CF43
:10325000A8E0B0E0EEE2F9E10C943F3566EE7EEFD7
:1032600090E080E00E94453660E082E090E00E94BD
:10327000273660E083E090E00E9427361092F80144
:1032800060E074E184E090E00E94453660E086E012
:1032900090E00E9427366FEF87E090E00E9427368B
:1032A00040E050E0BA0188E090E00E94393660E0EA
:1032B00084E290E00E94273660E087E190E00E947F
:1032C000273660E08CE090E00E94273660E08DE0D9
:1032D00090E00E94273619821A821B821C821D826E
:1032E0001E821F82188648E050E068E170E0CE013F
:1032F00001960E94173640E050E0BA0180E290E06B
:103300000E94393680E00E949B140E94B41440E071
:1033100050E0BA018FE090E00E9439361092A1028D
:103320001092A2021092A3021092A40282E390E0F3
:103330009093A2028093A1024091A1025091A20217
:103340006091A3027091A40283E190E00E9439365B
:103350002896E2E00C945B3528E030E043E060E042
:1033600087EF0E94A1310895ACE0B0E0EAEBF9E10B
:103370000C9439354F83588769877A878B879C8768
:1033800080919B03882399F00E94AC1980E50E94EC
:1033900019322AEB2A95F1F700C00E943132887861
:1033A00099278038910509F484C00E9449320E940F
:1033B000D00E882309F468C00E9476080091BD01F0
:1033C0001091BE012091BF013091C0016B017C01C1
:1033D000C01AD10AE20AF30A9701860108301105E2
:1033E0002105310508F450C06093BD017093BE0102
:1033F0008093BF019093C0010091A9031091AA038B
:103400002091AB033091AC03601B710B820B930BCB
:10341000623371058105910580F410929F0310922B
:103420009E031092A1031092A0031092A303109286
:10343000A2031092A5031092A4031091A8030E9466
:10344000200F112309F462C0BE01695F7F4F8EE92E
:1034500093E00E94670C0091A80310919B030E94C7
:10346000200F011709F47CC0BE01695F7F4F82EA1B
:1034700093E00E94670C86E0FE013796A7EBB3E06D
:1034800001900D928A95E1F786E0FE013796DE0104
:10349000119601900D928A95E1F729813A814B812D
:1034A0005C816D817E8180E090E02C96E8E00C9458
:1034B00055350E9431320E9431327C010E943132F6
:1034C00020E0E22AF82A0E9431328C010E94313237
:1034D00020E0022B182B0E944932F894B70180910A
:1034E0009E0390919F030E94340D90939F038093BD
:1034F0009E03B8018091A0039091A1030E94340D16
:103500009093A1038093A003789451CF80919E0360
:1035100090919F0381382FEF9207D4F08038910566
:10352000CCF4819589878091A0039091A103813883
:103530002FEF92078CF08038910584F48A871092DF
:103540009F0310929E031092A1031092A00383CFB9
:1035500081E8E7CF8FE7E5CF81E8F0CF8FE7EECFC7
:103560008091A2039091A30381382FEF9207D4F0AA
:1035700080389105CCF4819589878091A40390913E
:10358000A50381382FEF92078CF08038910584F4E1
:103590008A871092A3031092A2031092A50310929F
:1035A000A40369CF81E8E7CF8FE7E5CF81E8F0CFCB
:1035B0008FE7EECFCF93DF93D82FC62F0E94AC19A1
:1035C0008D2F80680E9419328C2F0E9419320E9420
:1035D00049328FEC92E00197F1F700C00000DF91D3
:1035E000CF910895682F893708F068E76093A603A4
:1035F00091E09093A70390919B03992359F0615018
:10360000811101C064E08FE00E94DA1A60E080E579
:103610000E94DA1A0895FB0180810E94F21A08952F
:103620009091A603911101C095E0282F880F330BCC
:10363000A901490F511DCA011816190614F081E09D
:1036400090E00E94F21A0895CF93C82F0E94AC19FF
:103650008C2F0E9419328FE792E00197F1F700C09A
:1036600000000E943132C82F0E9449329AE69A9592
:10367000F1F700C08C2FCF910895CF93DF930E9474
:103680009931879A0E94AC196AE58AE30E94DA1A96
:103690002FEF80E792E0215080409040E1F700C09A
:1036A000000082E00E94241B83E00E94241B84E02F
:1036B0000E94241B85E00E94241B86E00E94241B9C
:1036C00060E080E10E94DA1A80E00E94241BD82F7B
:1036D00081E00E94241BC82F0E944932D23419F481
:1036E00081E0C13009F080E0817080939B038823E2
:1036F00041F064E08FE00E94DA1A60E080E50E9409
:10370000DA1ADF91CF9108951F920F920FB60F92A0
:1037100011242F933F934F935F936F937F938F93D6
:103720009F93AF93BF93CF93DF93EF93FF93D0918A
:10373000E900DF708091EC00C82FC17080FDC0E807
:103740001092E9008091F000877F8093F0007894D8
:103750000E948A101092E9008091F00088608093A6
:10376000F000CD2BCF70C093E900FF91EF91DF9176
:10377000CF91BF91AF919F918F917F916F915F9109
:103780004F913F912F910F900FBE0F901F90189562
:103790001F920F920FB60F9211242F933F934F93C6
:1037A0005F936F937F938F939F93AF93BF93EF93A9
:1037B000FF938091E10082FF09C08091E20082FFC7
:1037C00005C08091E1008B7F8093E1008091DA0059
:1037D00080FF24C08091D80080FF20C08091DA0053
:1037E0008E7F8093DA008091D90080FF9DC080E1B8
:1037F00089BD82E189BD09B400FEFDCF81E08093DF
:10380000FC038091EE03811109C00E9406070E940B
:10381000A7078091E20084608093E2008091E1003C
:1038200080FF17C08091E20080FF13C08091E2000A
:103830008E7F8093E2008091E20080618093E200BD
:103840008091D80080628093D80019BC85E0809375
:10385000FC038091E10084FF2BC08091E20084FF93
:1038600027C080E189BD82E189BD89B5982F91701B
:1038700080FFFBCF8091D8008F7D8093D80080910E
:10388000E1008F7E8093E1008091E2008F7E809343
:10389000E2008091E20081608093E2008091FD036C
:1038A000882309F447C084E08093FC038091FC03E3
:1038B0008091E10083FF27C08091E20083FF23C055
:1038C0008091E100877F8093E10082E08093FC0398
:1038D0001092FD038091E1008E7F8093E100809142
:1038E000E2008E7F8093E2008091E200806180930D
:1038F000E20042E060E080E00E9475078091F00005
:1039000088608093F000FF91EF91BF91AF919F91FC
:103910008F917F916F915F914F913F912F910F9078
:103920000FBE0F901F90189519BC1092FC031092B7
:10393000EE0374CF8091E30087FD93E09093FC0346
:10394000B5CF78941F921FB61F9211248F939F9327
:10395000AF93BF938091EA039091EB03A091EC03A6
:10396000B091ED030196A11DB11D8093EA039093E0
:10397000EB03A093EC03B093ED03BF91AF919F9144
:103980008F911F901FBE1F9018959C014FB7F89400
:103990008091EA039091EB03A091EC03B091ED03C9
:1039A0004FBF821B930B08952FB7F8948091EA03C1
:1039B0009091EB03A091EC03B091ED032FBF08951C
:1039C0002F923F925F926F927F928F929F92AF92CF
:1039D000BF92CF92DF92EF92FF920F931F93CF93FC
:1039E000DF938091E603882309F4CAC08091E40341
:1039F0009091E5030E94C51CC29708F4A2C00E94E2
:103A0000D41C9093E5038093E40381E594E09093C4
:103A10005806809357060E94D00E882309F4C8C028
:103A200089E394E00E94011080919A030E94560C51
:103A30000E94020D0E94810F87E394E00E94011012
:103A400081E00E940F10C091B30382E894E00E94CD
:103A500001108091B6030E94020D0E94810F8EE733
:103A600094E00E9401108091B5030E94020D0E9413
:103A7000810FCC2309F496C08BE794E00E940110DB
:103A80008C2F82958F700E94020D0E94810F8C2FC7
:103A90000E94020D0E94810F8CEF8C0F853308F07D
:103AA00081C087E794E00E9401108C2F8450990B0D
:103AB000FC01EE5BFB4F84910E94810F8EE994E044
:103AC0000E9401108091B9030E94090D0E940F14F9
:103AD0008091BA0381950E94090D0E940F14809174
:103AE000BC030E94090D0E940F148091BB038195B5
:103AF0000E94090D0E940F1485E994E00E940110B4
:103B00008091A603811101C085E00E94090D0196F4
:103B10000E940F148FE894E00E9401108091A80386
:103B2000811144C080E30E94810F8BE894E00E94E1
:103B300001108091AD03811101C084E0805D0E947D
:103B4000810F80914F0490915004892BB1F58091A1
:103B5000E3038823A9F00E9476080091DF03109107
:103B6000E0032091E1033091E203601B710B820BB3
:103B7000930B6F3F7F4F8F4F9F4710F40E94D115DB
:103B8000DF91CF911F910F91FF90EF90DF90CF9039
:103B9000BF90AF909F908F907F906F905F903F907D
:103BA0002F90089581E00E940F1088CF81E3BBCF52
:103BB00084EA94E00E940110C4CF8091E603882338
:103BC00031F28091DE038111C2CF0E94EC15209169
:103BD0004F04309150042115310509F4B8CF80E02D
:103BE00041E050E0082F10E01A01082E02C0220C1C
:103BF000331C0A94E2F7B10162237323672B11F49B
:103C00008F5FF0CF9091DD0390FF95C0880F880FF4
:103C1000880F8093730110927601895F80937401FD
:103C200083E08093770124E630E047E050E061E7ED
:103C300071E088E70E941333892B09F088CFA8012F
:103C400025E0440F551F2A95E1F78091DD0380FFA1
:103C500084C0EDEBF3E080E2DF011D928A95E9F785
:103C6000A1E9B1E00DE811E085E9C82E81E0D82E88
:103C700097E0592E772473948D91E80129918E0154
:103C8000240F352F311D2F5A3B4FE82FF0E0E3541E
:103C9000FC4F90E080E0652C681A872C082E01C04C
:103CA000880C0A94EAF77901A12CE701B9907E010A
:103CB000B820662D6A196770962E062E000C770BB9
:103CC000DB2D01C0DD0F9A94EAF7719561957109BA
:103CD0006770772701C0B6946A95EAF7BD2A6081BC
:103CE000962E9B289082A39468E0A612DECF0196C0
:103CF00031968830910579F6CA16DB0609F0BCCFFB
:103D000004E610E020E230E04DEB53E060E488E7A9
:103D10000E943433892B09F01ACFE101C095D09568
:103D200080914F0490915004C823D923D09350041C
:103D3000C0934F040CCF8295880F807680937301D7
:103D40009801369527953695279520937601815EC3
:103D5000809374012093770166CF4F5A5B4F04E63E
:103D600010E020E230E0D2CF0E94D00E882319F07C
:103D70000E94D41C08950E94060FCB010895609103
:103D80004004669570E041E050E080E791E00E94D9
:103D9000E035892B19F481E0809397030E94B41ECB
:103DA0009093910380939003809198038460809313
:103DB000980308959091400490FF39C0917081114B
:103DC00037C0926090934004809198038160809303
:103DD0009803662391F02091400430914104409172
:103DE00042045091430460914404709145048091D1
:103DF0004604909147040E94141660914004669511
:103E000070E041E050E080E791E00E94E035892BCE
:103E1000B1F00E949E0881E08093930320E04091DE
:103E2000430460914204809141040E943A1608952F
:103E3000873010F09C60C6CF880F982BC3CF0E94AC
:103E4000BF1EE9CF809140048695815009F486E039
:103E500061E00E94DA1E08958091400486958F5F8C
:103E6000873008F081E061E00E94DA1E08958091B9
:103E7000400480FF08C0869582588F77833018F4FD
:103E80000E942C1F089561E082E00E94DA1E0895CE
:103E900083E00E94470C0E94D41C9093AC02809354
:103EA000AB0282E08093AD020895AEE1B0E0EBE5B5
:103EB000FFE10C94373540914804509149046091DA
:103EC0004A0470914B0480914C0490914D040E94DF
:103ED000B419209348043093490440934A04509302
:103EE0004B0460934C0470934D0486E0E8E4F4E0E6
:103EF000DE01179601900D928A95E1F786E0FE01AA
:103F00003796DE011D9601900D928A95E1F786E0C5
:103F1000FE013D96DE01119601900D928A95E1F722
:103F200086E0FE013196A8E4B4E001900D928A95F6
:103F3000E1F786E0E8E4F4E0DE01599601900D92A5
:103F40008A95E1F786E0FE017996DE0117960190E9
:103F50000D928A95E1F70B8DEC8CCE8C0C2C000C1D
:103F6000DD08AD8C0A2C000CBB089E2D902B809197
:103F7000AD02992309F41DC1002E000C110B0E2C6B
:103F8000000CFF08823009F440C088F4813009F445
:103F9000E7C00E94D41C9093AC028093AB0281E0F6
:103FA0008093AD021092A00210929F0234C0833021
:103FB00009F466C0843069F7980117FF04C022270E
:103FC0003327201B310BC701F7FE04C08827992730
:103FD0008E199F09880F991F281739070CF078C090
:103FE0008091A7029091A802E80EF91E20E0F7FE4A
:103FF00015C18EECE8168FEFF8060CF464C0F09251
:10400000A802E092A70280E075C00E94D41C9093A1
:10401000AC028093AB020987EA86AB86CC8686E049
:10402000FE013796DE01119601900D928A95E1F717
:1040300086E0FE013196DE01539601900D928A953D
:10404000E1F786E0FE017396DE01179601900D926E
:104050008A95E1F786E0FE013796A8E4B4E0019086
:104060000D928A95E1F70E94380F8111D4C080919A
:10407000AE021092AE0281706E96EAE00C94533557
:10408000C701F7FE04C0882799278E199F09980158
:1040900017FF04C022273327201B310B280F391F9D
:1040A0008091A9029091AA02821B930B9093AA027D
:1040B0008093A902181619060CF0ADCFF12CE12C53
:1040C00010E000E0A8CF42E3E40EF11C2E5C8FCF9D
:1040D0008091A5029091A602080F191F80E017FF9A
:1040E000A7C00E3C9FEF19078CF11093A602009316
:1040F000A50220E0082E000C990B62E370E00E94FC
:1041000080358091A402811125C081E090E0689FF4
:104110006001699FD00C789FD00C1124422F552745
:1041200041950CF45095CA0162E370E00E9480351D
:104130008091A302811111C081E090E0689F50013D
:10414000699FB00C789FB00C1124B8CF0E5C1F4F44
:104150008E5CC5CF8FEF9FEFDACF8FEF9FEFEECF63
:10416000C701F7FE04C0882799278E199F09980177
:1041700017FF04C022273327201B310B820F931F08
:1041800020919F023091A002820F931F9093A00272
:1041900080939F022091A1023091A202821793077F
:1041A0000CF439CF1092A00210929F020E94481F77
:1041B00032CF823071F048F4813019F11092A002B0
:1041C00010929F021092AD0279CF853008F476CF1D
:1041D000F5CF8091AB029091AC020E94C51C893E44
:1041E000934008F46BCF1092AD0283E00E94230C41
:1041F0001092A8021092A7021092A6021092A50295
:104200005DCF8091AB029091AC020E94C51CC39718
:1042100008F454CFD3CF81E090E02BCF83E3E816AE
:10422000F1040CF4ECCE52E3E51AF1082253DFCE90
:10423000033311050CF459CF0253110982534FCFA8
:10424000A4E1B0E0E6E2F1E20C9431358C01DC014E
:1042500014968C911497882309F4BEC021E04C91E8
:1042600011965C91119712966C91129713967C910E
:10427000139715969C910E9460157C01F801858129
:10428000882309F46AC1C70197578038910508F05F
:1042900064C1FFE0FE1508F48FC08FEF93E00E9429
:1042A0000336811189C069E3A62E63E0B62EE110C2
:1042B0004DC0FE01339686E0DF011D928A95E9F735
:1042C0005AE0452E7501BFEFEB1AFB0AC5010E94AB
:1042D000033689831A82882309F46EC0813009F07D
:1042E0007FC06501E2E0CE0ED11CC7010E940336FB
:1042F0008A83882309F460C09FEF980F9330A0F55C
:10430000F3E0AF0EB11CC6010E9403368B838823F5
:1043100009F452C01C82DE0111967D01F701208153
:10432000222381F2213009F0BAC09181828191303B
:1043300009F058C0F2E0EF0EF11C65E070E089333F
:1043400011F460E570E00E94F91353C0A11424E059
:10435000B20691F1C5010E940336811101C0EA94B1
:104360003FEFA31AB30AA3CF56018430A1F642E06F
:10437000E42EF12C56012FEFA21AB20AC6010E94B8
:104380000336E1E0F0E0EC0FFD1FEE0DFF1D808332
:10439000882391F08C3741F4E2E0F0E0EC0FFD1F50
:1043A000EE0DFF1D1082B7CF3FEFE31AF30A650150
:1043B00087E0E816F104F1F68091ED01877061F075
:1043C000D80115968C91882339F080916F0282FF75
:1043D00003C082E00E94300C6496E0E10C944D35FD
:1043E000570199CF923039F522E0E20EF11C0E947C
:1043F0009F13FFEFEF1AFF0A8FE99FE00197F1F794
:1044000000C00000AFE9BFE01197F1F700C0000065
:10441000EFE9FFE03197F1F700C000008FE99FE07E
:104420000197F1F700C00000AFE9BFE01197F1F785
:1044300000C0000073CF933031F432E0E30EF11C82
:104440000E947313D6CF943021F08FEFE81AF80A48
:10445000D0CF92E0E90EF11C30E020E0B7016F5FB1
:104460007F4FD70111964C918053990B8A3091055B
:1044700058F02150310908F4BCCFEFE9FFE0319743
:10448000F1F700C00000F5CF429EF001439EF00D11
:1044900011249C012E0F3F1F842F7B01DFCFE22FC1
:1044A000F0E0E557FE4F5490822F869586958695CD
:1044B00090E0FC01E558FE4F64902770712C022EAD
:1044C00002C0759467940A94E2F731E0632277247E
:1044D000FC01E559FE4F8490912C022E02C0959468
:1044E00087940A94E2F7A1E08A229924FC01E55A14
:1044F000FE4FC490D12C02C0D594C7942A95E2F700
:10450000B1E0CB22DD246114710419F081EE0E9428
:104510009F138114910419F086EE0E949F13E9E322
:1045200065E070E05E1202C060E570E0852D0E94DB
:10453000F9138114910419F086EE0E94731361142B
:10454000710419F081EE0E947313C114D10409F4AF
:1045500050CF65E070E08CE2F6CEF092B403E092CA
:10456000B303F801808191819093B6038093B503E2
:1045700097012A503E472A30310508F09EC0F901C4
:10458000E959F94C0C94943586E0E8E4F4E0DE0156
:10459000199601900D928A95E1F786E0FE01399611
:1045A000DE011F9601900D928A95E1F7FA8481E071
:1045B00090E001C0880F2A95EAF7D80115962C9152
:1045C000222341F1F82A83E08093AD028EE190E04E
:1045D0009093AA028093A9020E94481FF88A86E05D
:1045E000FE013F96DE01119601900D928A95E1F74A
:1045F000CE0101960E94BC068093AE0286E0FE01C9
:104600003196A8E4B4E001900D928A95E1F70E94FA
:10461000380FD2CE8095F822DFCFF801858188232C
:1046200021F084E08093AD02C7CE0E94481FC4CE23
:10463000D80115968C91882309F4BECE8091A102F1
:104640009091A20205969093A2028093A1024091BC
:10465000A1025091A2026091A3027091A40283E191
:1046600090E00E943936A8CEF8018581882309F4AC
:10467000A3CE8091A1029091A20205978530910569
:1046800014F785E090E0DFCFD80115968C91882350
:1046900009F492CE8091A30291E089278093A3022E
:1046A000D6CFF8018581882309F486CE8091A402B3
:1046B00091E089278093A402CACF85818823D9F00D
:1046C0008091AD028350823008F4AFCFB3EEEB1689
:1046D000F104B1F1E0EEEE16F10491F11092AD02A9
:1046E00083E00E94230C1092A8021092A70210925D
:1046F000A6021092A502C7019A9581159F41D0F498
:10470000F701FF27D80115968C91E13DF10540F0A6
:10471000E93DF10588F0E730BEE7FB0709F443C047
:10472000882371F0FE57EA30F10550F4EF58F94C48
:104730000C949435F701E6CF682F8E2F0E946A0FF4
:10474000F8018581811156C38091EF038272F701D0
:10475000E052F847E531F10508F0A5C0E558F94CFD
:104760000C94943580E00E94F21A1092AD0324CE8E
:104770004091A6035091AD0350FB47F956955370F5
:1047800060E070E08FE090E06CCF81E00E94101B51
:1047900013CE8FEFFBCF8AE0F9CF86EFF7CF909162
:1047A000A80381E089270E94E90C06CE8091AD0321
:1047B000811101C084E08F5F18160CF081E0883011
:1047C00008F087E08093AD03F7CD8091AD038111B0
:1047D00001C084E08150F0CF8091400480FF1EC072
:1047E000282F2E7F209340043091410440914204B1
:1047F00050914304609144047091450480914604B3
:10480000909147040E9414160E949E08809198037C
:104810008160809398030E94F90DCECD81608093D2
:10482000400461E086950E94DA1EC6CD42E25FE157
:104830006CE27FE10E949808BFCD4CE25FE162E24A
:104840007FE1F8CF47EC56E161ED76E1F3CF41ED42
:1048500056E167EC76E1EECF4DEA56E16AEB76E1A0
:10486000E9CF4AEB56E16DEA76E1E4CF43E956E160
:1048700060EA76E1DFCF40EA56E163E976E1DACF3C
:104880004BED56E165EF76E1D5CF45EF56E16BEDA7
:1048900076E1D0CF61E081E0C6CF0E94371F8CCD9A
:1048A00061E086E0C0CFF7E7EF16FCE7FF0609F40A
:1048B00060C028E7E2162CE7F20609F45EC0F801B2
:1048C0008581E080F180882309F49FC0C7010E94A0
:1048D0000115D82E682FC7010E94CA0BB7018D2D74
:1048E0000E94F3140E94870A7C01882ED801159635
:1048F000AC90159716969C9092943FE093228091ED
:10490000ED018770F1F0CA2CAA20E1F08F2D807F95
:10491000803451F080E28E0D883098F0911004C000
:104920008F2D807E803269F080916F0282FF09C0F6
:1049300082E00E94300C8091ED018770CC24C394FA
:104940008111C12CBF2CB2942FE0B222BBE0BB1569
:1049500008F4C3C0EB2DF0E0E057F94C0C9494350B
:1049600081E00E94470C43E062E081E00E94030C7A
:1049700023CD81E00E94230CF6CF82E0FBCF33E011
:10498000E3163CE7F30671F160F4E1149CE7F906E5
:10499000D1F0A1E0EA16ACE7FA0609F090CF0E9448
:1049A0004A13BBE5EB16BCE7FB0669F1ECE5EE1636
:1049B000ECE7FE06F1F0FAE5EF16FCE7FF0609F07A
:1049C0007ECF81E01DC01092EF030E947E102FEF7A
:1049D00034E38CE0215030408040E1F700C000001B
:1049E0000E9465086FEF7FEF90E080E00E944536FF
:1049F000D6CF80916F0282FB882780F991E08927CA
:104A00000E942C175CCF80E0FBCFC7010E94960B61
:104A1000D82E64CFEF2DEF70DE2E8F2D807F19F012
:104A2000D29490EFD922AA20B9F0DD2069F080E27B
:104A30008E0D883010F0811009C08091EF03D82AC4
:104A4000D092EF030E9441108E2D45C08091F70156
:104A5000D82AD092F701F6CF8E2D0E947313DD2055
:104A6000E1F180E28E0D883010F0811004C08D2DB0
:104A70000E94850B06C0D0948091F701D822D09275
:104A8000F7010E94411029C0FF2DFF70DF2E8F2DEE
:104A9000807F803219F0D29480EFD822882059F09C
:104AA00021E0821609F481C0AA2009F48DC0992062
:104AB00009F44FC0C9CF80916F0282FD46C0AA2081
:104AC000F1F1DD2039F08091EF03D82AD092EF0385
:104AD0000E94411080E00E949F13AB2DA850BB0B99
:104AE000149710F40E94F50ECC20A9F08091ED01EE
:104AF00080FD11C0F80115828695869586950E94E5
:104B0000470CC8010E9420218091ED018695869571
:104B100086950E94230C20E0D8014C9111965C915F
:104B2000119712966C91129713967C911397149685
:104B30008C91149715969C910E9460154DCC80E045
:104B40000E947313DD2049F292CFAA20A1F09110A8
:104B500004C08D2D0E946913C0CF31E09312BDCFE8
:104B60008091F6019D2D9823D91609F4B6CFD82A45
:104B7000D092F601B2CF9110B0CF8D2D0E9462136A
:104B80009091F6018D2D892329F08D2D8095892313
:104B90008093F6018091C1019D2D982309F49DCF4A
:104BA000D094D822D092C10198CFAA2029F085E0D4
:104BB000891508F492CFCDCF94E0991508F48DCFE4
:104BC0008D2D0E94621389CF9920D1F3A9E38A1217
:104BD00009C1BFEFE7EEF3E0B150E040F040E1F78C
:104BE00000C000008E2D0E94731377CF6A2D8E2D8A
:104BF0000E946A0F72CF8F2D837091F5A1106DCF37
:104C00004E2D429546954770440F440F8E2D8F7060
:104C1000042E01C0880F0A94EAF72E2D2071E4FEBD
:104C200007C02FE030E001C0220F4A95EAF7209537
:104C30003F2D369536953370323069F050F44091FF
:104C4000F801313029F0822B84230E94530C45CF88
:104C5000842B822BFACF282B8091F8018227F5CF65
:104C60008695AA2011F08F2D8170882309F435CF05
:104C70004E2D429546954770440F440F8E2D8F70F0
:104C8000042E01C0880F0A94EAF72E2D2071E4FE4D
:104C900007C02FE030E001C0220F4A95EAF72095C7
:104CA0003F2D369536953370323069F050F440918F
:104CB0009A03313029F0822B84230E94000C0DCFFF
:104CC000842B822BFACF282B80919A038227F5CF51
:104CD0009F2D9F70F92EAA2029F0892F0E94470C42
:104CE0008E2D38CF8E2D0E9462138F2D0E94230CA3
:104CF000F4CE8E2DA2EF8A16B1F1A81570F0B0EFA8
:104D00008B16D1F0E1EF8E1691F0AA2009F45EC067
:104D100091109ACE8F2D8F712AC0F3EF8F1651F11B
:104D200024EF8212F2CF80916F0282FD2FC08F2D6F
:104D30008F71AA20D9F21BC0AA2081F034E0391566
:104D400008F4CBCE2F2D2F7181E090E001C0880FA9
:104D50002A95EAF790919A038927AFCF85E08915C4
:104D600008F4BBCEEFCF8F2D8F71A110BFCF0E9463
:104D7000470CB3CE80E0AA2009F49FCF9F2D9F71EE
:104D800081E001C0880F9A95EAF797CFAA2099F0A1
:104D90009F2D9F71F92E892F0E94470C80916F02E1
:104DA00082FF07C0A8E0FA9EC001112483608093AF
:104DB000ED018F2DDCCF81E00E94300CB1E0B91500
:104DC00008F08BCE82E00E94300C87CE992079F0DB
:104DD000893341F4EFEFF7EE23E0E150F04020405B
:104DE000E1F7FECE8FE19EE40197F1F7F9CE8F2D2A
:104DF0008F717CCFB7E7EB16BCE7FB0609F4B0CDAB
:104E0000E8E7EE16ECE7FE0609F0B9CD82E0A9CDA1
:104E1000CF93DF938091EC01807F09F04DC08091AA
:104E2000EB01882309F448C0E0913F045091060447
:104E3000C091E701D091E6016091E8017091E9012C
:104E400047E05E17C9F18E2F90E0E49FF001112436
:104E5000E95FFB4F2481222391F1489FF001499F94
:104E6000F00D1124DF01A95FBB4F11962C91119712
:104E70002C1325C02C912D1322C015962C9115971B
:104E800021111DC012962D913C91261B370B283CF9
:104E90003105A8F48091EC018F7080618093EC0162
:104EA000E35FFB4F80818F708061808386EE91E0AD
:104EB0000E9420210E948C0BDF91CF910895FC016C
:104EC0003196E770BECFA4E1B0E0E9E6F7E20C94DA
:104ED00035358C0186E0F801DE011F9601900D92B8
:104EE0008A95E1F7F8018481E58096EEA92E91E09C
:104EF000B92E9091EA01911128C0882319F1EE2072
:104F0000F1F0C8010E943D15F82E8823C1F087E01A
:104F1000F801D50101900D928A95E1F78091EA019F
:104F2000813031F48091E6019091E7010E943015C3
:104F30000E9408278F2D6496ECE00C945135C8012F
:104F40000E942021FF24F394F5CFD080C18082807D
:104F50009380F090EB012091E8013091E901A401E8
:104F6000421B530BFF2009F4D9C0483C510508F0FF
:104F700092C08823F9F29091E7018091EC01282FEB
:104F8000207F09F056C0C91214C09091E601D912D1
:104F900010C0E11048C08F7080618093EC0186EEF4
:104FA00091E00E9420218091EC01F8018683F12C90
:104FB000C1CFE11038C06C2D8D2D0E94E7066C2DFD
:104FC0008D2D0E94E706E82E8111F1CFDF86C88A79
:104FD0008F8598890E943015292F22952F702430B3
:104FE00058F49F70223088F0992399F0F801968147
:104FF000907F79F4FE2C9ECF2A5F2F70223068F0CC
:10500000C8010E942021EF2CF5CF992311F08823AD
:1050100089F3805E883070F3F3CF803F58F3815F6F
:10502000833070F7E7CF8091EC0181608093EC01D1
:10503000BECFC91207C09091E601D91203C0EE207D
:1050400009F48DC0C8010E943D15882309F477CF6B
:10505000EE2009F474CF8091EC01803288F0209129
:10506000E6013091E701398728879B868A869091EF
:10507000EA019C871D868E87CE0108960E9420211A
:1050800087E0F801A6EEB1E001900D928A95E1F774
:105090000E94082757CF9091EC01292F207F51F4CF
:1050A00086EE91E00E94202187E0F50111928A9519
:1050B000E9F77DCF882309F43DCF8091E7018C117A
:1050C00010C08091E601D8120CC0E1100AC096838E
:1050D000C8010E94202187E0F50111928A95E9F725
:1050E00029CFC8010E943D15882309F428CFEE205E
:1050F00009F425CF8091EC01803210F22091E60175
:105100003091E7013A8329839C828B829091EA0156
:105110009D831E828F83CE010196B0CF483C5105FE
:10512000D0F6882309F40ECFFE2CEE2009F407CF29
:105130008091E7018C1120C08091E601D8121CC03B
:105140008091EC0180FD0FC0982F907F61F08683E5
:10515000903F31F0982F907F905F8F70892B8683DE
:10516000C8010E94202187E0F801A6EEB1E001907D
:105170000D928A95E1F7DECEC8010E943D1581119E
:105180007FCF8091EC0181608093EC01C8010E9487
:105190002021D0CEABE1B0E0E0EDF8E20C943D355B
:1051A0004E8B5F8B688F798F8A8F9B8F192F911110
:1051B0001092F7011D8A86E0FE017696DE011F96A9
:1051C00001900D928A95E1F70A8D002341F021E0CC
:1051D0004F85588969897A89C8010E9460150B8BAF
:1051E0001C8B87E0FE013F96DE01189601900D9220
:1051F0008A95E1F7CE0108960E94632781110CC0C1
:1052000087E0FE013896DE01119601900D928A9595
:10521000E1F78C8581110BC017E080913F049091DC
:105220000604891333C06B96E4E00C945935209141
:10523000060430E0C90101968770992740913F0428
:105240004817190699F097E0929FD001939FB00DEF
:105250001124A95FBB4FFE01319601900D929A95E2
:10526000E1F7809306040E948C0BD6CF1092EF03D7
:105270000E947E101092060410923F0487E0E6EE32
:10528000F1E0DF011D928A95E9F7C6CF819FC00149
:105290001124895F9B4F0E946327882321F280910C
:1052A0003F0490E001968770992780933F04B5CF23
:1052B000A6E0B0E0EEE5F9E20C943D350E94D41C86
:1052C0008C018091F9019091FA018017910781F08A
:1052D00019821A820E94D41C682F49815A81792F21
:1052E00080E090E00E94CA281093FA010093F9012F
:1052F0002696E4E00C945935ABE0B0E0E2E8F9E240
:105300000C94313546E0642E41E0742E5AE5E52ECA
:1053100056E0F52E60E0C62E61E0D62E512C882492
:105320008394912CD6018D916D010E94470D00C090
:10533000F701408036E0A32E31E0B32EF50110E0F6
:1053400000E04191A42FA295AF70B0E090968C91AF
:105350009401002E01C0220F0A94EAF790E04F70EA
:1053600002C0959587954A95E2F780FD92C0422A42
:105370000F5F1F4F0430110521F7F601319780812F
:105380000E945B0DF0EAFA95F1F7D7018C91841534
:1053900019F04C9255245394BFEFEB1AFB0AE6E048
:1053A000CE16E1E0DE0609F0BDCFEE24E394F12C49
:1053B000D5018D915D010E94470D00C0C701002EEF
:1053C00001C0880F0A94EAF7782FEAE5F6E090E04A
:1053D000C92E91E0D92E682F6095D6012D916D01CF
:1053E000822F82958F7090E0DC0190968C91AF01B6
:1053F000308190E02F7002C0959587952A95E2F74D
:1054000080FD4AC0872F832B80833196DA018C91EF
:10541000381711F0552453946C147D04F1F6F501FE
:10542000319780810E945B0DB0EABA95F1F70F5F6A
:105430001F4F0830110509F0BBCF00916D025520B8
:1054400071F181E08093B0010E94D41C9093AF0170
:105450008093AE018091AE019091AF010E94C51C76
:10546000059708F110E00E571D4F46E050E06AE541
:1054700076E0C8010E94ED35892B41F086E0EAE52F
:10548000F6E0D80101900D928A95E1F71092B001F3
:105490000AC0209542226CCF862F8323B5CF8091FE
:1054A000B0018111D7CF0E94D00EF82EE0916D028D
:1054B000811186C0F0E0EE57FD4F86E0ADEFB1E020
:1054C00001900D928A95E1F766E070E08DEF91E032
:1054D0000E9482088093FC01C0900302D0900402D5
:1054E000E0900502F09006028091B1019091B20126
:1054F000A091B301B091B401C816D906EA06FB0623
:10550000D1F0C092B101D092B201E092B301F09219
:10551000B4010E94D00E81110EC00E947608C61AF6
:10552000D70AE80AF90AC0926802D0926902E092AA
:105530006A02F0926B028BE0E7E0F2E0DE01119686
:1055400001900D928A95E1F7809107028695F0907F
:105550000802E0900902D0900A0200911002109116
:10556000110210921102112301F110FF0BC0998159
:1055700090FF20C09091400491609093400460E0BF
:105580000E94DA1E11FF06C020E04D2D6E2D8F2DDA
:105590000E943A1612FF04C0002379F00E94BF1E39
:1055A00013FF03C081E080939303852D2B96E0E1E8
:1055B0000C944D350E94C10EE5CF0E949E08F0CF9D
:1055C00020E636E086E0D9011D928A95E9F70E2F94
:1055D00010E00E571D4F809159068A30A8F56EE8ED
:1055E00078E1C8010E94700D882309F449C063E482
:1055F00078E1C8010E94700D882309F441C06DEE66
:1056000077E1C8010E94700D8823D1F110925906EC
:1056100081E08093B70100916C0210E00E571D4F9E
:1056200046E050E060E676E0C8010E94ED35892B47
:1056300009F4BBCF86E0E0E6F6E0D80101900D92D8
:105640008A95E1F75F2CB1CF8091B5019091B601B9
:105650000E94C51C843F914010F68091B7018823B9
:1056600009F4A3CF1092B701E0916C02F0E0EE577D
:10567000FD4F96E0DF011D929A95E9F7582E95CFE0
:10568000809159068F3F31F08F5F809359068A30A1
:1056900008F4BECF0E94D41C9093B6018093B5014C
:1056A000DCCF1F921FB61F9211248F939F93AF934D
:1056B000BF938091E903811113C08091EA03909117
:1056C000EB03A091EC03B091ED034196A11DB11D38
:1056D0008093EA039093EB03A093EC03B093ED0364
:1056E000BF91AF919F918F911F901FBE1F901895F2
:1056F000CDB7DEB7A6970FB6F894DEBF0FBECDBF0D
:1057000085B7806885BF85B7806885BF84B7877F88
:1057100084BF0FB6F894A89580916000886180934B
:105720006000109260000FBE80E890E00FB6F89421
:1057300080936100909361000FBE85E699E090939D
:10574000A5018093A4010E9406070E94A7078091EB
:10575000E20084608093E20078948091FC038823C7
:10576000A1F01091E9001F709091EC00892F8170D9
:1057700090FD80E8182B1092E9008091E80083FDED
:105780000E948A101F701093E90082E084BD93E0AC
:1057900095BD9AEF97BD80936E00109268021092AB
:1057A000690210926A0210926B020E948E1581119A
:1057B00002C00E94B4140E94101980910A010E9434
:1057C0001019809106010E945B0D809107010E94D3
:1057D0005B0D809108010E945B0D809109010E9480
:1057E0005B0D00E011E076E0E72E71E0F72ED801C6
:1057F0008D918D010E945B0DE016F106C1F780913D
:105800000A0196E0811190E090936D0286E0891B79
:1058100080936C020E94D00E811102C00E94BC33A2
:10582000EAE5F6E0A2E8B2E011921D9226E0E63643
:10583000F207D1F70E944317811102C00E94281974
:1058400082E090E00E9403368093710284E090E051
:105850000E94113690936F0280936E020E947C2901
:105860008FE39CE90197F1F700C000000E947C29BA
:105870008091820280FF08C06FEF7FEF90E080E0B0
:105880000E9445360E94650883E090E00E9403363E
:105890000E94530C0E94D00E882309F496C180E028
:1058A0008093DD0380E880934E040E9473326BE0A6
:1058B00070E082E292E00E94A7158823E9F18091CE
:1058C000DD0365E070E081FD82C18DE192E00E9420
:1058D000A715882389F16DE070E08BE092E00E94CB
:1058E000A715882349F10E947608605A75418F4FA9
:1058F0009F4F6093DF037093E0038093E1039093E5
:10590000E203E1E5F4E080E092E0DF019C011D921A
:1059100021503040E1F7F0935806E09357068FEF9F
:105920009FEF9093500480934F0481E08093E603AF
:105930008093E3031092DE0380917002811178C09E
:105940000E944317811104C00E9428190E940F175A
:1059500088E090E00E940B364B015C0184E290E00D
:105960000E940336282F30E040E050E060E070E015
:1059700080E090E000E20E94A135282939294A29D7
:105980005B29209340043093410440934204509398
:1059900043046093440470934504809346049093B9
:1059A0004704809198038360809398032E7F89F544
:1059B0000E940F1788E090E00E940B366B017C017B
:1059C00084E290E00E940336282F30E040E050E06F
:1059D00060E070E080E090E00E94A135B22FA32F3C
:1059E000F42FE52F5B0197018601BC29A12BFE292D
:1059F000E32BB0934004A0934104F0934204E0935E
:105A0000430460934404B092450480934604909309
:105A100047040E94A5080E949E088091400480FFD0
:105A200004C060E086950E94DA1E81E080937002D7
:105A30000E94D00E811102C00E94BC330E943D1B07
:105A40000E94D00E81112EC08DEF9CE090935201E8
:105A5000809351012AE130E030934D0120934C01B5
:105A60008AE390E09093500180934F0141E559E023
:105A700050935A014093590130935501209354019A
:105A800090935801809357014BE05BE15093620182
:105A90004093610130935D0120935C01909360011C
:105AA00080935F010E944317882389F08FE090E084
:105AB0000E940B368B01862F8F770E94F21A001FEF
:105AC0000027001F1370110F102B1093AD0383E1FB
:105AD00090E00E940B366093A1027093A202809323
