:100000000C94A0060C94BD060C94BD060C94FA3218
:100010000C94BD060C94BD060C94BD060C94BD0654
:100020000C94BD060C94BD060C94651B0C94211B0E
:100030000C94352A0C94BD060C94BD060C94BD0698
:100040000C94BD060C94BD060C94BD060C94BD0624
:100050000C94BD060C943E1C0C94BD060C94BD067D
:100060000C94BD060C94BD060C94BD060C94BD0604
:100070000C94BD060C94BD060C94BD060C94BD06F4
:100080000C94BD060C94BD060C94BD060C94BD06E4
:100090000C94BD060C94BD060C94BD060C94BD06D4
:1000A0000C94BD060C94BD060C94BD060501090216
:1000B000A10185020901A1000509190129081500FE
:1000C0002501950875018102050109300931158165
:1000D000257F95027508810609381581257F9501D0
:1000E00075088106050C0A38021581257F95017572
:1000F000088106C0C00660FF0961A1010962150000
:1001000026FF009520750881020963150026FF006F
:10011000952075089102C005010906A1010507197E
:10012000E029E71500250195087501810295017503
:100130000881010507190029FF150026FF00950613
:100140007508810005081901290515002501950587
:1001500075019102950175039101C0000000000036
:10016000000000000000000000000000000000008F
:100170000000000000000000000000000000007E01
:100180000F00D4FFFFFFC700000078000000000050
:100190000000002A2B2800000000000000000000E2
:1001A00000000000000029000000002C1E34202167
:1001B0002224342627252E362D3738271E1F2021AE
:1001C00022232425263333362E37381F040506070D
:1001D00008090A0B0C0D0E0F101112131415161727
:1001E00018191A1B1C1D2F3130232D350405060745
:1001F00008090A0B0C0D0E0F101112131415161707
:1002000018191A1B1C1D2F3130354C00DA0281FFE2
:10021000D9F1DB20A4A62EAF00A0C0D30000A1C856
:10022000D30000AED580A81F408D142000000464C8
:100230003214783C1E1E140A05000101010101015F
:10024000010101020202020202020202030303038D
:10025000030303030404040404040405050505055D
:10026000060606060607070707070808080809091B
:1002700009090A0A0A0B0B0B0C0C0C0D0D0D0E0EC6
:100280000E0F0F0F10101111111212131314141559
:100290001516161717181819191A1A1B1B1C1D1DCD
:1002A0001E1E1F2020212222232424252626272823
:1002B00029292A2B2C2D2D2E2F3031323233343553
:1002C000363738393A3B3C3D3E3F40414243444556
:1002D000464748494A4C4D4E4F5051535455565835
:1002E000595A5B5D5E5F616264656668696B6C6DDF
:1002F0006F7072737577787A7B7D7E808283858755
:10030000888A8C8E8F91939596989A9C9EA0A2A392
:10031000A5A7A9ABADAFB1B3B5B7BABCBEC0C2C497
:10032000C6C9CBCDCFD1D4D6D8DBDDDFE2E4E7E957
:10033000EBEEF0F3F5F8FAFDFF2223252628292A13
:100340002C2D2F3032333536383A3B3D3E40424338
:100350004547494A4C4E5051535557595A5C5E6077
:1003600062646668696B6D6F71737577797B7D7F89
:1003700081838587898A8C8E90929496989A9C9E88
:100380009FA1A3A5A7A8AAACAEAFB1B3B4B6B8B9A4
:10039000BBBCBEBFC1C2C3C5C6C7C9CACBCCCDCE0C
:1003A000D0D1D2D2D3D4D5D6D7D7D8D9D9DADADBEF
:1003B000DBDBDCDCDCDCDCDDDDDDDDDCDCDCDCDC7B
:1003C000DBDBDBDADAD9D9D8D7D7D6D5D4D3D2D2BA
:1003D000D1D0CECDCCCBCAC9C7C6C5C3C2C1BFBEA2
:1003E000BCBBB9B8B6B4B3B1AFAEACAAA8A7A5A30D
:1003F000A19F9E9C9A98969492908E8C8A898785CC
:1004000083817F7D7B79777573716F6D6B696866AA
:100410006462605E5C5A5957555351504E4C4A497C
:1004200047454342403E3D3B3A3836353332302F24
:100430002D2C2A29282625232200AF00AE20004C8F
:100440006179657220202000616263646566676877
:10045000696A6B6C6D6E6F70717273747576777894
:10046000797A31323334353637383930524542545F
:100470005F2D3D5B5D5C233B27602C2E2F202027CA
:1004800000204B00202043004B6579202020205283
:100490000020204400303020205300202020202045
:1004A0004350490042616C6C2000808182838485C6
:1004B000868788898A8B8C8D8E8F9091929394A059
:1004C000A1A2A3A4A5A6A7A8A9AAABACADAEAFB0A4
:1004D000B1B2B3B4C0C1C2C3C4C5C6C7C8C9CACB10
:1004E000CCCDCECFD0D1D2D3D40029001E001F0056
:1004F0002000E1001D001B00060021002200230057
:100500002B0019000500E000015214001A00080039
:100510001500E2002352000000001700E000040074
:1005200016000000000000000000070009000A009B
:10053000000000000000000000002400250026004C
:1005400027000E000F00330034002D002E00310074
:10055000350028001100100036004C001C00180067
:100560000C0037003800E5005200120013002F0085
:10057000300022522C00E600E7002A000B000D009C
:100580000000500051004F00000029001E001F0015
:100590002000E1001D001B000600210022002300B6
:1005A0002B0019000500E000005214001A0008009A
:1005B0001500E2002C00000000001700E00004001D
:1005C00016000000000000000000070009000A00FB
:1005D00000000000000000000000240025002600AC
:1005E00027000E000F00330034002D002E003100D4
:1005F000350028001100100036004C001C001800C7
:100600000C0037003800E5005200120013002F00E4
:10061000300022522C00E600E7002A000B000D00FB
:100620000000500051004F00000001003A003B0064
:100630003C000100027E087E097E3D003E003F0036
:100640003900077E067E017E007E047E20782378B6
:100650002578037E01000000000027780100057E58
:100660002178000000000000000024782678287817
:1006700000000000000000000000400041004200B7
:1006800043004A004B0050004F0044004500490021
:100690004C000100010001004D00010001000100BB
:1006A00046004E0051000100010047004800520082
:1006B0000100010001000100010001000100010032
:1006C0000000010001000100000001000100010024
:1006D0000100010001000100010001000100010012
:1006E0000100010001000100010001000100010002
:1006F00001000100010000000000010001000100F4
:1007000001000000000000000000010001000100E5
:1007100000000000000000000000010001000100D6
:100720000100D200D300010001000100010001001E
:1007300001000100D50001000100010001000100DD
:1007400001000100010001000100010001000100A1
:10075000010001000100010001000100D400D100EE
:100760000000010001000100000009025B0003011C
:1007700000A0FA0904000001030101000921110190
:10078000000122440007058103080001090401005B
:1007900002030000000921110100012222000705C7
:1007A0008203200001070503032000010904020061
:1007B0000103000000092111010001224900070581
:1007C00084032000011201000200000008383937BC
:1007D000360100010200010E037200650065007819
:1007E0000036003700000012036B007500730068CC
:1007F0000069006D00610038000000040309040076
:1008000000000000003E5B4F5B3E003E6B4F6B3EC6
:10081000001C3E7C3E1C00183C7E3C18001C577D92
:10082000571C001C5E7F5E1C0000183C180000FF77
:10083000E7C3E7FF00001824180000FFE7DBE7FF2D
:100840000030483A060E00262979292600407F0507
:10085000050700407F05253F005A3CE73C5A007FD2
:100860003E1C1C0800081C1C3E7F0014227F221422
:10087000005F5F005F5F0006097F017F00006689FF
:10088000956A0060606060600094A2FFA294000816
:10089000047E04080010207E20100008082A1C088E
:1008A00000081C2A0808001E10101010000C1E0C56
:1008B0001E0C0030383E383000060E3E0E0600009A
:1008C000000000000000005F0000000007000700BB
:1008D00000147F147F1400242A7F2A120023130897
:1008E00064620036495620500000080703000000EB
:1008F0001C224100000041221C00002A1C7F1C2AEF
:100900000008083E08080000807030000008080851
:100910000808000000606000002010080402003E8B
:100920005149453E0000427F400000724949494616
:10093000002141494D33001814127F10002745450E
:100940004539003C4A494931004121110907003627
:100950004949493600464949291E00000014000053
:100960000000403400000000081422410014141458
:100970001414000041221408000201590906003E27
:10098000415D594E007C1211127C007F4949493665
:10099000003E41414122007F4141413E007F4949A3
:1009A0004941007F09090901003E41415173007F1F
:1009B0000808087F0000417F4100002040413F01BE
:1009C000007F08142241007F40404040007F021C0D
:1009D000027F007F0408107F003E4141413E007FBE
:1009E00009090906003E4151215E007F0919294687
:1009F0000026494949320003017F0103003F40407E
:100A0000403F001F2040201F003F4038403F006310
:100A100014081463000304780403006159494D432A
:100A200000007F41414100020408102000004141C4
:100A3000417F0004020102040040404040400000A9
:100A400003070800002054547840007F28444438AD
:100A500000384444442800384444287F0038545423
:100A600054180000087E0902001824241C78007F16
:100A7000080404780000447D4000002040403D0010
:100A8000007F102844000000417F4000007C047873
:100A90000478007C08040478003844444438007C1E
:100AA0001824241800182424187C007C0804040846
:100AB0000048545454240004043F4424003C404063
:100AC000207C001C2040201C003C4030403C004466
:100AD00028102844004C9090907C004464544C446E
:100AE0000000083641000000007700000000413699
:100AF0000800000201020402003C2623263C0000FC
:100B00000000000000F8FCFCFC3C3CFCFCFCF80095
:100B100080C0F0F8FC7E0000000000000000000033
:100B2000000000000000FCFCFCFC000000000000D5
:100B3000000000FCFCFCFC000000000000000000C5
:100B40000000000000000000FCFCFCFC00000000B5
:100B50000000000000FCFCFCFC00000000000000A5
:100B6000000000000000000000007EFCF8F0E0C083
:100B700080000080C0E0F0F8FC7E000000E0F0F0B3
:100B8000F0E0ECEEF7F37020007C7C7C7E007E7E53
:100B90007E7F7F7F000080C0E07E5B4F5BFEC000F9
:100BA00000C000DCD7DEDEDED7DC00C000000000C5
:100BB0000000000000000000000000000000000035
:100BC0000000000000FFFFFFFF0000FFFFFFFF7FAE
:100BD0001F0F0701000000000000000000000000DF
:100BE000000000000000FFFFFFFF00000080808089
:100BF000800000FFFFFFFF00000000000000000079
:100C00000000000000000000FFFFFFFF00008080E8
:100C10008080000000FFFFFFFF00000000000000D8
:100C200000000000000000000000000081C3E7FF9A
:100C3000FFFFFFFFFFE7C38100000000000F1F3F21
:100C40007F7F7F7F7F3F1E0C001F1F1F3F003F3FA6
:100C50003F7F7F7F00307B7F7830202030787F3B64
:100C60000003000F7F0F0F0F7F0F00030000000035
:100C70000000000000000000000000000000000074
:100C80000000000000FFFFFFFF0000010101000065
:100C90000000000000000000000000000000000054
:100CA0000000000000003F3F3F3F0000003F3F3F8B
:100CB0003F00003F3F3F3F000000000000000000F9
:100CC00000000000000000003F3F3F3F00003F3FAA
:100CD0003F3F0000003F3F3F3F000000000000009A
:100CE000000000000000000000007E3F1F0F07030F
:100CF0000100000103070F1F3F7E000000000000FD
:100D000000000000000000000000000000000000E3
:100D100000000000000000000000000000000000D3
:100D200000000000000000000000000000000000C3
:100D300000000000000000000000000000000000B3
:100D400011241FBECFEFDAE0DEBFCDBF11E0A0E07F
:100D5000B1E0E0E4FBE602C005900D92A83BB107CC
:100D6000D9F726E0A8EBB1E001C01D92AF35B2077C
:100D7000E1F70E945C2A0C9456350C940000482F31
:100D80002091460490910D0457E0291302C080E0A1
:100D9000089530E0529FF001539FF00D1124E25F5F
:100DA000FB4F8181681306C08081481303C0858191
:100DB0008111EECF2F5F3F4F2770E7CFE8EDF0E0D6
:100DC00080818E7F80831092E2001092DA00109270
:100DD000E100A0EEB0E08C9181608C9380818F77F0
:100DE000808319BCA7EDB0E08C918E7F8C938081BD
:100DF0008F7E80831092F50308952091E400309156
:100E0000E50095E6A9012091EC00822F817020FF7A
:100E100006C08091E80080FF06C080E00895209120
:100E2000E80022FD1AC080910304882389F08530F0
:100E300089F08091EB0085FD0FC02091E400309196
:100E4000E50042175307F9F29150E1F684E0089566
:100E500082E0089583E0089581E00895809105047B
:100E600087FF13C08091E80082FF06C08091E800F0
:100E70008B778093E80004C0809103048111F2CF46
:100E80000895809103048823D9F38091E80080FFBE
:100E9000F8CF8091E8008E77ECCF982F9093E900FF
:100EA000242F762F50E0891731F07091EC002091BB
:100EB000ED005091F00021FD07C09F5F973071F762
:100EC0008093E90081E008953091EB003E7F3093FC
:100ED000EB003091ED003D7F3093ED003091EB0061
:100EE00031603093EB007093EC002093ED00509351
:100EF000F0002091EE0027FDE0CF80E00895B0E003
:100F0000A0E0E5E8F7E00C943434C8EDD0E0888147
:100F10008F7E8883E7EDF0E080818160808384E0CC
:100F200082BF81E08093F50388818E7F888302EE03
:100F300010E0F80110821092DA0081EEC82ED12C58
:100F4000F601108288818F77888388818068888302
:100F500088818F7D888319BC109203041092040449
:100F6000109202041092010490EEE92EF12CF70188
:100F700080818B7F808388818160888342E060E00C
:100F800080E00E944D07F60180818E7F8083F8010A
:100F9000808181608083808188608083F701808187
:100FA0008E7F8083888180618883CDB7DEB7E8E05B
:100FB0000C945034FC0180910B0490910C04861722
:100FC0009707A0F06115710529F49091E8009E77CC
:100FD0009093E80090E06115710551F4911108C0FB
:100FE0008091E80082FF34C080E00895BC01F2CF18
:100FF000809103048823C1F18530C1F18091E8001C
:1010000083FD30C08091E80082FDEACF8091E80046
:1010100080FFE1CF8091F3002091F200382F61151D
:10102000710519F02830310558F091E0283031056C
:1010300009F090E02091E8002E772093E800CBCFD4
:1010400081918093F100615071092F5F3F4FE7CF8D
:1010500080910304882341F0853041F08091E800BD
:1010600083FFBECF81E0089582E0089583E0089574
:10107000089508958091F803089587E797E790937E
:1010800001088093000888E19AE00FB6F894A895CB
:10109000809360000FBE90936000FFCF2FB7F8944D
:1010A0006091F1037091F2038091F3039091F40346
:1010B0002FBF0895FC01680F791F8FEF91E32191F5
:1010C000822728E030E087FF09C0880F8927215058
:1010D0003109C9F7E617F70791F70895880FF7CF99
:1010E000FA01811101C0FB0109950895E3EBF2E0DB
:1010F0001182828184608283089580919803982F61
:101100009E7F61F4817082608093980380919B033D
:10111000853618F084E680939B0308958032B0F3FF
:1011200081708E61F1CFAF92BF92DF92EF92FF920A
:101130000F931F93CF93DF93082F162FE901E42F0E
:10114000F0E0E75CFD4F611110C0E4915E2F4E2F7F
:101150004983E8835A83DF91CF911F910F91FF90CC
:10116000EF90DF90BF90AF900895E62EF12C449160
:10117000D42EE42FF0E026E0829FC00111242FEF4F
:1011800030E0B9010E941634802F90E0880F991F3B
:1011900055E5569FD001579FB00D11248A1B9B0B1C
:1011A000982F990F890F5901AE18BF08AE9ED00134
:1011B000AF9EB00DBE9EB00D11245B2F189F800115
:1011C0001124012F11275901A01AB10AAE9E8001E6
:1011D000AF9E100DBE9E100D11245901A81AB10822
:1011E000AE9CC001AF9C900DBE9C900D1124892F28
:1011F0009927281B390B2E9FC0012F9F900D3E9FD2
:10120000900D1124E92F62307105A1F050F46115A1
:10121000710509F49DCF6130710581F0EB2F512FDD
:1012200097CF6430710569F080F06630710509F47C
:101230008FCFF4CFE42F4B2F592F8ACFE42F412F9C
:1012400087CFEB2F542F492F83CF4B2F5D2DE12FCD
:101250007FCF90917501882341F09F5F9093750136
:10126000109272011092710108959150F7CFEAE641
:10127000F1E0828591E089278287108617820895A0
:101280008091740181110CC09091AC029695969555
:10129000969581E020916B01921380E08170089512
:1012A00081E0FCCF80917301811108C080917501AC
:1012B000811104C00E9440098170089581E090E08E
:1012C000FBCFCF93DF93E1EAF3E084819581A681A0
:1012D000B781E90188839983AA83BB83158214822D
:1012E00017821682DF91CF91089580E0089563E020
:1012F00070E08FE192E00E945A0890911E028913DB
:1013000018C0E0911F02EB30A4F488E0E802F0017D
:101310001124E65FFE4F0680F781E02D309749F0FB
:1013200022E432E04091210262E272E080912002E8
:1013300009950895EAE0F1E0A9E0B2E057968C91B2
:10134000579780A758968C9183AF0895811522E511
:10135000920780F5811530E5930708F0ABC0883E11
:101360009105A0F4803E910558F4853A910548F422
:101370008430910528F48130910511F090E080E0EF
:1013800008958D3C9105D0F390650895811540E452
:10139000940708F044C0811550E2950708F0A3C0F7
:1013A000811561E0960750F320E0392FA901482B01
:1013B000CA010895803872E59707A8F4803622E5BF
:1013C000920708F05AC0803432E5930708F03FC016
:1013D000803242E5940730F18F7190E0982F882792
:1013E000816F906A0895803C52E5950760F4282F3C
:1013F0002F71803A924508F456C0822F90E0982FC2
:10140000882790620895803E72E5970708F0B6CF6E
:10141000982F882788279F71806F906A08959F7002
:10142000906A0895282F2695269550E2259F9001D1
:101430001124837041E050E0BA0102C0660F771FAB
:101440008A95E2F7CB01822B932B9D680895282F74
:1014500026952695277070E2279F900111248370AE
:1014600041E050E0BA0102C0660F771F8A95E2F7AB
:10147000CB01822B932B9C680895282F26952695C7
:10148000277070E2279F90011124837041E050E0A3
:10149000BA0102C0660F771F8A95E2F7CB01822B53
:1014A000932B9A680895822F90E0982F8827846F55
:1014B000906A08959C0195E0369527959A95E1F7F5
:1014C0002F7030E0322F2227482F4F7150E084FFD9
:1014D00005C084E0440F551F8A95E1F7C901842BAC
:1014E000952B906908959F718CCF80959091F6030C
:1014F00098239093F60308958091460490910D04EB
:10150000981301C008958F5F8770FACF9A3080F5E5
:10151000883070F548E0949F90011124820F932F3A
:10152000911D682F677023E0969587952A95E1F7BE
:10153000FC01EE0FFF1FE80FF91FEA52FE4F50E0CB
:1015400040E080E0219130E0062E02C036952795DC
:101550000A94E2F721703327042E01C0220F0A9467
:10156000EAF7822B4F5F5F4F4330510559F70895DB
:1015700080E008959A3098F5883088F548E0949F87
:1015800090011124820F932F911D282F277041E085
:1015900001C0440F2A95EAF723E0969587952A958E
:1015A000E1F7FC01EE0FFF1FE80FF91FEA52FE4FB3
:1015B00090E080E070E05191DF0111979B01082ECF
:1015C00002C0369527950A94E2F7217021952527C8
:1015D000242325272C9301968330910561F70895E4
:1015E000809305020895982F92959F7011F0892F8E
:1015F00094E0282F2695269511F09E5F822F8695E0
:1016000009F09F5F892F0895B0E0A0E0EAE0FBE0D9
:101610000C943434FC01EB019091B403911101C09E
:1016200094E04081518191509A01092E02C0359574
:1016300027950A94E2F7B901092E02C0660F771FB9
:101640000A94E2F7461B570B518340834281538132
:101650008A01092E02C0159507950A94E2F7B80190
:1016600002C0660F771F9A95E2F7461B570B53830C
:10167000428321387FEF37077CF02038310574F43E
:1016800021952D8301388FEF180754F0802F0038F3
:1016900011053CF08FE705C021E8F2CF2FE7F0CF2E
:1016A00081E881958C830E944E082D81211103C011
:1016B0002C812223B9F06093B5037093B603809315
:1016C000B7039093B8038091B9039BE0980F9731CB
:1016D00020F4080F0093B9031D82CDB7DEB7E8E010
:1016E0000C945034C090B503D090B603E090B7038B
:1016F000F090B8036C197D098E099F096436710555
:101700008105910500F31092B903DDCFCF93C82F67
:101710008091AF038C1751F00E944E086093B00384
:101720007093B1038093B2039093B303C093AF035C
:10173000CF9108958091A103F901808308958F705E
:101740008A3010F4805D0895895A0895382F20E278
:1017500087FF02C031952DE24AE0832F642F0E945B
:101760006D34905D9093CF0181110BC02093CE0119
:1017700020E22093CD0120E22093CC018CEC91E07B
:101780000895642F0E946D34905D9093CE01832F55
:1017900064E60E946D34882361F3805D8093CD01FF
:1017A000EBCF9C01860F971F37FD07C077FD04C064
:1017B00097FF02C08FEF9FE7089577FFFDCF97FD5A
:1017C000FBCF80E090E80895E82FE295EF70F0E01D
:1017D00031A1282F2F7081E090E001C0880F2A9559
:1017E000EAF7382B31A392A18095892382A308952B
:1017F000E82FE295EF70F0E031A1282F2F7081E003
:1018000090E001C0880F2A95EAF7982F90959323CE
:1018100091A392A1892B82A30895B0E0A0E0E3E117
:10182000FCE00C9434347C016B018091520601E0A1
:1018300010E08A3010F40AE010E0C1E0D0E068E582
:1018400076E0C701F6010995811104C021960C17B5
:101850001D072CF4CDB7DEB7E8E00C945034CC9FD4
:101860009001CD9F300D300D112490E080E045E3D4
:101870004A95F1F70000019682179307C1F7DFCF71
:101880000F931F93CF93DF938B01EA019091030491
:10189000943061F58093E9008FEF9091E8008150DA
:1018A00095FD06C095ED9A95F1F700008111F5CFF1
:1018B0008091E80085FF1AC00E94FD06811111C0C9
:1018C0008091E80085FD06C08091E8008E778093C6
:1018D000E800F2CFF80181918F018093F100219708
:1018E00079F78091E8008E778093E800DF91CF91BF
:1018F0001F910F91089546E050E0BC0184E00E94E2
:10190000400C0895CF93DF93EC0148E050E0BC0118
:1019100081E00E94400C88E0FE01A9EFB3E0019055
:101920000D928A95E1F7DF91CF910895609178014A
:101930008091980380FF20C08091770143E0849FCD
:10194000C00111248A549D4F539A2BB1277F3BB17C
:1019500038605FB7F894FC01649FE00DF11D11241D
:10196000BF0168177907D1F45FBF8FE594E0019755
:10197000F1F700C0000008958091790190917A01FB
:1019800023E0829FF0011124EA54FD4F8917A0F64D
:101990001182108212828F5F3396F8CFFC01419141
:1019A000CF01E8E03BB9000000C047FF2BB9440F6E
:1019B000000000C000C000C02BB900C0EA9591F73C
:1019C000D0CFEF92FF921F93CF93DF93EC0110E003
:1019D000EE24EA94F12C60917B01161770F00E94BE
:1019E000960C9A818C8190FF2AC08F5F8C83DF9147
:1019F000CF911F91FF90EF90089520917901422F90
:101A0000410F5527551FCA019A01220F331F280F76
:101A1000391F2A543D4F40919B03453608F044E658
:101A200070E0C7010E947B34962F8C8160919A03ED
:101A3000199F800D11240E9493081F5FCCCF815005
:101A4000D5CF9091980390FF0EC09091790120918D
:101A50007A0133E0939FF0011124EA54FD4F92176D
:101A600018F00E94960C08958183608342839F5FE3
:101A70003396F5CFA3E0B0E0E0E4FDE00C94383419
:101A80008C018091970381110AC09E012F5F3F4F07
:101A900044E66FEF0E9493088A8180939703F801D0
:101AA0006481613069F08091970340E0662361F0C2
:101AB00040E0623011F44091970380E060E004C0A0
:101AC0006091970340E080E00E94210DF80184813D
:101AD00090E0019663E070E00E947B34848323965B
:101AE000E4E00C945434A3E0B0E0E9E7FDE00C94AA
:101AF0003A349091980390FF0DC0453608F044E6C3
:101B00009E012F5F3F4F0E9493084B8169818A811C
:101B10000E94210D2396E2E00C945634CF93DF937C
:101B2000EC01E8E9F3E0438162818C810E94730D4E
:101B30008C818F5F8C83DF91CF910895CF93DF935A
:101B4000EC01EC81F0E0E75CFC4F4491E8E9F3E064
:101B5000628181810E94730D8C818F5F8C83DF9104
:101B6000CF910895E8E9F3E080818E7F80830E9421
:101B70007608E3EBF2E08281816082830E94960C1A
:101B8000089580910802811119C082E390E02091AC
:101B9000E30027FD10C0EFE3FCE93197F1F700C047
:101BA00000000197A1F782E0809308020E94DE0600
:101BB0001092030403C081E08093080281E09091B9
:101BC0000802913011F080E0089508950E94C10D3F
:101BD000882359F0E091EE03F091EF03309729F05C
:101BE0000190F081E02D0995089580E008950F930C
:101BF0001F930E94C10D882329F00E944E081F9157
:101C00000F9108950E944E08009173021091740282
:101C10002091750230917602600F711F821F931F11
:101C2000EECF26982E9A249A2C9885E08A95F1F783
:101C3000000083B124982C9A90EA9A95F1F790E0ED
:101C400026E0959587952A95E1F780959095817086
:101C50000895E3E7F1E083E0DF011D928A95E9F75B
:101C6000EFE6F1E084E0DF011D928A95E9F708953F
:101C7000CF939091A7028091A002981323C08091E6
:101C8000A802882321F09091A10289131BC08091A2
:101C9000A902882321F09091A202891313C0809198
:101CA000AB02882321F09091A40289130BC090917C
:101CB000AA02992329F081E02091A302291303C0ED
:101CC00080E001C081E0C82FC17080FF0FC0E091AB
:101CD000EE03F091EF03309749F082E08093A60283
:101CE0000480F581E02D86EA92E009959091A702A3
:101CF00086E0E6EAF2E0DF01282F1D922A95E9F757
:101D00009093A702AFE9B2E001900D928A95E1F7B6
:101D100081E0C11103C0911101C080E08170CF91B9
:101D200008952FE2280F283078F481E090E001C078
:101D3000880F2A95EAF72091A702662331F0822BBB
:101D40008093A7020E94380E089580958223F8CFD1
:101D5000CF93DF93D82F20916B0181E090E002C0F8
:101D6000880F991F2A95E2F780959095CD2FC8236B
:101D70008C2F0E94F30A90916A01882311F082301F
:101D800051F4992379F00E944009811101C0DC2FA0
:101D900010926A0105C0911105C081E080936A012B
:101DA0000E94290E8D2FDF91CF9108950E94A80ED9
:101DB0008093A00308959091A00321E030E0F90101
:101DC00001C0EE0F8A95EAF7D90102C0AA0FBB1F26
:101DD0006A95E2F7EA2B01C0220F4A95EAF7892FAC
:101DE0008E23E81305C0292B822F0E94D60E08955A
:101DF00020952923F9CF21E030E001C0220F8A95F8
:101E0000EAF720958091A00382230E94D60E0895C0
:101E10009091AC02809589238093AC02282F277083
:101E200069F4891759F090917A0292FF07C086955C
:101E3000869586950E94FB0E1092AC02089521E0D3
:101E400030E001C0220F8A95EAF78091A003822B2F
:101E50000E94D60E0895CF93DF93682F81E06A30F9
:101E600019F06D3031F480E00E94B90FDF91CF910D
:101E70000895809150069091510626E0FC01AAE455
:101E8000B6E001900D922A95E1F7603E08F458C043
:101E900026E0FC0111922A95E9F7C0915006D091F5
:101EA000510646E050E0BE018AE496E00E94E83424
:101EB0009E012A543440892B41F1C90145E0969591
:101EC00087954A95E1F741E050E0BA0102C0660FFC
:101ED000771F8A95E2F7CB0160914804709149041D
:101EE000862B972BB9016B5F7F4FE5E07695679561
:101EF000EA95E1F702C0440F551F6A95E2F7842B7B
:101F0000952B90934904809348042A5F3F4F40915A
:101F10004704642F70E0C9010E941634481B463004
:101F200010F4240F311D211572E0370710F030E056
:101F300020E0265B3B4F309351062093500696CF0E
:101F4000F6E06F9FB00111246150784F46E050E0F9
:101F50000E94D234A2CFCF93DF93EC01FE01849193
:101F6000811103C0DF91CF9108950E942B0F21961C
:101F7000F5CFCF93382FE0915006F0915106EA54F7
:101F8000F44020914704622F70E0CF010E94163484
:101F9000281B822F332361F066E00E946134C82F32
:101FA000C15010F4CF91089580E20E942B0FF8CF1A
:101FB0009F01280F311D2115324018F080E0F0E01C
:101FC000E0E08E0F9F2F911D865B9B4F90935106F3
:101FD00080935006E7CF8091F60390910402892BFD
:101FE0008093BA0190910302992391F0892B8093F9
:101FF000BA0120E08CEB91E0FC013191CF0131116D
:102000002F5FF1E0823C9F07B9F721111092030284
:1020100048E050E06BEF71E08AEB91E00E94E83419
:10202000892BA9F088E0EAEBF1E0ABEFB1E0019099
:102030000D928A95E1F7E091EE03F091EF0330976E
:1020400031F00280F381E02D8AEB91E0099508954B
:10205000ECEBF1E086E0DF011D928A95E9F7109242
:1020600004020E94EB0F0895AAE2B0E0EAE3F0E177
:102070000C94393485E094E02091F100DC012D933B
:10208000CD01B4E08D309B07B9F780910604833011
:1020900009F472C0B8F4813009F449C0823009F4FF
:1020A000B5C08091E80083FF8DC2809105049091B6
:1020B00006049A3008F086C2E92FF0E0E85AFA4C9C
:1020C0000C948F348A3009F490C08B3009F471C0BD
:1020D000893039F780910504813219F7809109041C
:1020E00090910A04009711F00297D9F68091E800C8
:1020F000877F8093E8008091E80082FF38C090914C
:10210000F3008091F200029731F48091F100813068
:1021100011F0863021F48091F1008093F8038091D2
:10212000E8008B778093E8000E942E07BACF809159
:102130000504813A09F0B5CF8091E800877F80934C
:10214000E8008091090490910A04892B61F468E009
:1021500089EF93E070E00E94DA078091E8008B77C6
:102160008093E8009ECF60E090E080E0F3CF809124
:1021700003048111C0CF95CF80910504813A09F005
:1021800090CF8091090490910A04892B09F089CF9E
:102190008091E800877F8093E8008091E80080FFCD
:1021A000FCCF809183018093F1008091E8008E77CD
:1021B000B9CF80910504813209F073CF8091090471
:1021C00090910A04892B09F06CCF8091E800877FF9
:1021D0008093E8000E942E0780910704809383017A
:1021E0001092F6030E9428105CCF80910504813282
:1021F00009F057CF8091E800877F8093E8000E9424
:102200002E07809108048093F7034BCF809105043B
:10221000813A09F046CF8091E800877F8093E800FB
:102220008091E80080FFFCCF8091F703BCCF80381D
:1022300099F0823809F0C6C1809109048F70873007
:1022400008F0C0C18093E9008091EB0085FB8827EE
:1022500080F91092E90006C0809101049091020477
:10226000911182609091E800977F9093E8008093AD
:10227000F1001092F1008091E8008E779FC18823D1
:1022800009F48DC1823009F09DC18091070481114C
:1022900090C1809109048F702FEF280F263008F02D
:1022A00091C18093E9002091EB0020FF82C193301F
:1022B00031F48091EB0080628093EB007AC19091C1
:1022C000EB0090619093EB0021E030E001C0220F21
:1022D0008A95EAF72093EA001092EA008091EB00D9
:1022E0008860EACF81116EC1109107041F77809139
:1022F000E3008078812B8093E3008091E800877F62
:102300008093E8000E942E078091E80080FFFCCFB8
:102310008091E30080688093E30082E0111183E004
:10232000809303044FC18058823008F04BC1209144
:102330000704309108042C3DE3E03E07A1F583E05B
:102340008A838AE289834FB7F894DE01139620E0EE
:102350003EE051E2E32FF0E050935700E49120FF7C
:1023600003C0E295EF703F5FEF708E2F90E0EA3090
:10237000C0F0C7968D939D932F5F243159F74FBFBF
:102380008091E800877F8093E8006AE270E0CE01E8
:1023900001960E94DA078091E8008B778093E8002D
:1023A00011C1C096E7CF8091090490910A04432F90
:1023B00055274330510509F44AC078F5413051059D
:1023C00009F47AC08BE590E0EAE6F7E04230510587
:1023D00009F0F8C02091E800277F2093E8002091C1
:1023E0000B0430910C048217930708F49C0140E021
:1023F0002115310509F065C0411163C08091E800E5
:1024000082FDC9CF80910304882329F2853019F217
:102410008091E80083FFF2CFBECF4132510509F42D
:102420003CC04232510509F0CDC08330910508F01F
:10243000C9C0FC01EE0FFF1FE455FE4F0190F08173
:10244000E02D87559E4FDC018C9190E01AC0332718
:1024500021303105D1F02115310561F022303105EF
:1024600009F0B0C0E7EDF7E0E4918E2F90E0E7EDE2
:10247000F7E007C0EBEFF7E0E4918E2F90E0EBEF91
:10248000F7E0009709F49EC0A5CFE7EEF7E0E491EE
:102490008E2F90E0E7EEF7E0F4CF8330910508F05F
:1024A00091C0880F991FFC01EE54FE4F0190F081FE
:1024B000E02D89E090E08ECF82E190E0E5ECF7E05E
:1024C00089CF80910304882309F465CF853009F40E
:1024D00062CF8091E80083FD5ECF8091E80082FDAD
:1024E0008DCF8091E80080FF83CF9091F3008091A1
:1024F000F2002115310519F08830910550F041E0C6
:10250000089709F040E08091E8008E778093E8001A
:102510006FCF44914093F1003196215031090196DB
:10252000E8CF803809F04EC08091E800877F809323
:10253000E800809104048093F1009DCE811142C097
:10254000109107041230F0F58091E800877F8093A6
:10255000E800109304040E942E07112311F084E078
:1025600005C08091E30087FDFACF81E080930304EA
:1025700042E061EC81E00E944D0742E261EC84E0C0
:102580000E944D0742E261EC82E00E944D0742E268
:1025900060EC83E00E944D078091030413C080919A
:1025A0000704813079F481E0933009F080E0809372
:1025B00002041092E9008091E800877F8093E80090
:1025C0000E942E078091E80083FF0AC08091E800F6
:1025D000877F8093E8008091EB0080628093EB001E
:1025E000AA96E3E00C9455341092F6030E9428104A
:1025F0002FEF84E39CE0215080409040E1F700C041
:10260000000088E19AE00FB6F894A89580936000E6
:102610000FBE90936000FFCF882321F00E94750ABF
:102620000E94EB0F0895882339F09091F603982BC0
:102630009093F6030E94EB0F0895882349F19CEFD5
:10264000980F913A80F4ECEBF1E022EC31E09191BB
:10265000891303C0DF0111971C922E173F07B9F7AA
:102660000E94EB0F089590E2980F983050F4877015
:1026700091E001C0990F8A95EAF7892F0E94750AA7
:10268000EFCF93E3980F933118F460E00E94910E1E
:1026900008950F931F93CF93C82F882341F18CEF98
:1026A0008C0F813AB0F50CEB11E082EC91E0F8016F
:1026B0002191C21701F18E179F07D1F7EFEF80E04C
:1026C000D8019D918D01C91781F0EF3F19F4911147
:1026D00001C0E82F8F5F863099F7EF3F31F00E2E63
:1026E000000CFF0BE654FE4FC2830E94EB0FCF910C
:1026F0001F910F910895ECEBF1E02191C21303C0FB
:10270000DF0111971C928E179F07B9F70E94EB0FFC
:10271000D5CF80E28C0F883068F4C77021E030E0BC
:1027200001C0220FCA95EAF78091F603822B8093AD
:10273000F603DBCF83E38C0F8331C8F661E08C2F87
:102740000E94910ED4CF1F93CF93DF93182FEB01EC
:102750000E9449138FE99FE00197F1F700C0000044
:102760002197C1F7812F0E941D13DF91CF911F91F7
:1027700008950F931F93CF93DF93EC01FC01019019
:102780000020E9F78F0101501109C017D10728F087
:10279000DF91CF911F910F91089589910E942B0F86
:1027A000F4CFCF93DF93C9EBD2E060E0CE010E947B
:1027B00022352196C11584E0D807B9F7DF91CF9172
:1027C00008951F93CF93DF93122F8430E0F46A3083
:1027D000D0F44830C0F490E1699FE001112450E04A
:1027E000440F551FC40FD51F90EA899FC00DD11DFE
:1027F0001124632FCE01C9960E942235612FCE018C
:10280000CA960E942235DF91CF911F910895AF9211
:10281000BF92CF92DF92EF92FF921F93CF93DF93FD
:102820008AEEC82E84E0D82ED0E07601C0E014C035
:10283000F50125913491412F6C2F8D2F0E94E113CA
:1028400082E0A80EB11C1F5F183091F780E1E80EFE
:10285000F11CCF5FCA3019F0570110E0E9CFDF5FFC
:1028600080EAC80ED11CD43001F7DF91CF911F91BF
:10287000FF90EF90DF90CF90BF90AF90089588E3E6
:1028800090E00E9422350895CF93C82F6FEF8111F9
:1028900063E285E390E00E9422356FEFC11161E0B1
:1028A00086E390E00E9422356FEFC11166E187E375
:1028B00090E00E942235CF91089580E00E94441458
:1028C00060E070E0CB010E943F140E9407140E9458
:1028D000D11381E00E94441408950F931F93CF9366
:1028E000DF93843030F56A3020F5483010F520E170
:1028F000629F8001112450E0440F551F040F151FE3
:1029000030EA839F000D111D1124C801C9960E9451
:10291000FE34C82FD0E0DC2FCC27C801CA960E9415
:10292000FE349E01282BC901DF91CF911F910F9199
:10293000089590E080E0F8CF462F7A3040F4683078
:1029400030F4843020F4672F0E946D14089590E0D5
:1029500080E00895CF92DF92FF920F931F93CF9361
:10296000DF936C010091A00380910502082BC3E066
:10297000D0E010E0FC2EC8010C2E02C09595879582
:102980000A94E2F780FD0CC02197A0F7F12C8F2D5F
:10299000DF91CF911F910F91FF90DF90CF9008951D
:1029A000B6018C2F0E949C140E94A609019761F326
:1029B000EECFCF93DF93EC010E94AA14BE010E94D8
:1029C0009C140E94A609DF91CF910895FC012481F7
:1029D0002223C1F0808191810E94D91492959F7029
:1029E000963091F058F4925F9F70923058F4803F87
:1029F00019F030F4883E30F481E008959A5FF4CF06
:102A0000843FD1F380E00895883EB0F3813FD1F751
:102A1000F3CFA6E0B0E0EFE0F5E10C943934498360
:102A20005A8349815A819923A1F0222391F0CA0146
:102A30000E94AA14182F682F89819A810E94BA0ACD
:102A400069817A81812F0E949C142696E3E00C9480
:102A50005534CA010E94860A182FF2CF88E390E00D
:102A60000E94FE34682F70E090E080E0089585E3D6
:102A700090E00E94FE34833289F486E390E00E9465
:102A8000FE34813059F487E390E00E94FE3491E0F7
:102A9000863109F090E0892F8170089580E0FCCFA5
:102AA000B0E0A0E0E6E5F5E10C9434346C017B0184
:102AB00064E670E088E70E9474318C01E601EC0C5A
:102AC000FD1C17FD0BC0FE01849164E670E00E94BE
:102AD000E0318C012196CE15DF0599F70E94563220
:102AE00081E00115110509F080E0CDB7DEB7E8E01F
:102AF0000C9450348091EA039091ED03911103C03E
:102B000091E089270895882369F062E070E08BE303
:102B100094E00E945015811103C08091EA0308954A
:102B20001092EA038091EA03EBCFCF93C091EA03BE
:102B30008091ED038823D1F00E944E08605A7541C0
:102B40008F4F9F4F6093E6037093E7038093E803F2
:102B50009093E903C11108C062E070E089E394E05A
:102B60000E945015811105C0C091EA038C2FCF91AE
:102B7000089581E08093EA03F7CFB0E0A0E0E3ECB2
:102B8000F5E10C94303449015A016B017C010E943B
:102B90007D088401A4016A2D7B2D88E090E00E94CD
:102BA000343594014A2D5B2DB601C70100E20E9425
:102BB000B734622F84E290E00E942235CDB7DEB7B1
:102BC000ECE00C944C34A3E0B0E0E9EEF5E10C94B9
:102BD0003634082FF62E142FE22E8091980380FFB2
:102BE00043C020919903201308C090919A03961333
:102BF00004C090919B03941729F09091B5029260C4
:102C00009093B502E82FE695F0E0EF56FE4F9081E5
:102C10009093B3028E7F823059F5412F153608F01C
:102C200044E69E012F5F3F4F6F2D802F0E94930837
:102C30004B8169818A810E94210D00939903F09252
:102C40009A0310939B03EE2079F0209198036091F2
:102C50009C0370919D03302F4F2D512F80919E0327
:102C600090919F030E94BD152396E6E00C94523488
:102C7000923019F410919B03E0CF963011F0993007
:102C8000E1F6022FDACFE8E9F3E043812AE0421BC4
:102C900008F440E021E0628181810E94E3150895FB
:102CA000E8E9F3E043812AE0420F08F44FEF21E026
:102CB000628181810E94E3150895E8E9F3E0628171
:102CC00021E1621B08F460E021E0438181810E94E0
:102CD000E3150895E8E9F3E0628121E1620F08F469
:102CE0006FEF21E0438181810E94E3150895E8E9B7
:102CF000F3E0818121E04381628181510E94E315EB
:102D00000895E8E9F3E0818121E0438162818F5EEB
:102D10000E94E315089580919C03882319F0815047
:102D200080939C03209198033091990340919A03DA
:102D300050919B0360919C0370919D0380919E0331
:102D400090919F030E94BD15089580919C0383304C
:102D500018F48F5F80939C0320919803309199031E
:102D600040919A0350919B0360919C0370919D0345
:102D700080919E0390919F030E94BD150895E8E9FC
:102D8000F3E083E0808311828FEF828384E6838384
:102D90001482A3EBB2E012968C9112978360129684
:102DA0008C93758123E030E04FEF54E660E086813C
:102DB00097810E94BD15089590917A0292FB222777
:102DC00020F9281779F080FB92F990937A026091AC
:102DD000790270917A0284E090E00E94403582E0AE
:102DE0000E94080F089590E080E00E940C35863E16
:102DF0009E4F19F40E943715089580E00895B0E0C1
:102E0000A0E0E5E0F7E10C9435347901C82F880F94
:102E1000DD0B41155105A9F0FE0193E0EE0FFF1FF8
:102E20009A95E1F7E65FFE4F81819281875F9D4F22
:102E3000208130E04217530708F49A01A9010E944B
:102E4000F534CE010E94A033D82E8823D1F001158D
:102E50001105B9F083E0CC0FDD1F8A95E1F7FE0183
:102E6000E65FFE4F438150E00417150708F4A80100
:102E7000C65FDE4F6C817D81675F7D4FC7010E9419
:102E8000F5348D2DCDB7DEB7E7E00C945134A5E0D5
:102E9000B0E0EDE4F7E10C9432348D83E62E5A0174
:102EA000F22E6801809152068A3028F080E0259643
:102EB000EAE00C944E348D818830C4F31A82198272
:102EC0008A836B832C8363E070E0CE0102960E94BC
:102ED0005A088983E0923201F092450110E000E047
:102EE00030E020E044E050E0BE016F5F7F4F84E0BF
:102EF0000E94FF168823D1F24E2D50E030E020E0F2
:102F0000B50185E00E94FF16882381F230E020E0C1
:102F100041E050E0BE016B5F7F4F86E00E94FF16EC
:102F2000882321F20F2D10E0960150E040E070E080
:102F300060E087E00E94FF16BACFABE0B0E0E3EAC2
:102F4000F7E10C94383488E0E8E9F3E0DE0111960B
:102F500001900D928A95E1F78091B3029091B402AD
:102F6000A091B50289879A87AB872B8540916F0224
:102F70005091700260917102709172023FB7F894A3
:102F80008091F1039091F203A091F303B091F403C7
:102F90003FBF841B950BA60BB70B84369105A1058B
:102FA000B10510F42223C1F010E000E030E020E091
:102FB0004BE050E0BE016F5F7F4F83E00E94FF1641
:102FC000882369F00E944E0860936F02709370022C
:102FD00080937102909372021092B50281E02B9659
:102FE000E4E00C945434A4E0B0E0E9EFF7E10C9491
:102FF000383440916B0250916C0260916D02709177
:103000006E022FB7F8948091F1039091F203A09192
:10301000F303B091F4032FBF841B950BA60BB70BE2
:1030200011E084369105A105B10518F10E94F70D54
:103030006E5F7F4F8F4F9F4F69837A838B839C8313
:1030400010E000E030E020E044E050E0BE016F5FBF
:103050007F4F82E00E94FF16182F882351F00E94B4
:103060004E0860936B0270936C0280936D02909394
:103070006E02812F2496E4E00C945434A6E0B0E074
:10308000E4E4F8E10C9436347B0101E010E09E01A9
:103090002A5F3F4F50E040E070E060E080E00E9437
:1030A000FF16182F882309F453C0409167025091EE
:1030B00068026091690270916A022FB7F89480915A
:1030C000F1039091F203A091F303B091F4032FBFA9
:1030D000841B950BA60BB70B84369105A105B10592
:1030E00048F465E070E08AE092E00E945A089E8110
:1030F000891771F105E010E09E012F5F3F4F50E00E
:1031000040E070E060E081E00E94FF16082F65E07B
:1031100070E08AE092E00E945A0811E09E819813C4
:1031200010E0102301F10E944E0860936702709333
:1031300068028093690290936A0285E0FE013196ED
:10314000A2E6B2E001900D928A95E1F711E00BC082
:1031500085E0EAE0F2E0DE01119601900D928A9599
:10316000E1F71111EACF85E0E2E6F2E0D701019044
:103170000D928A95E1F7812F2696E6E00C94523461
:103180000E94110E8093090180910901882359F052
:103190001092770181E2809378010E94C10D811124
:1031A0000E94B432089581E2809377018AE2F3CFDE
:1031B000A8E0B0E0EEEDF8E10C943A3466EE7EEF74
:1031C00090E080E00E94403560E082E090E00E9464
:1031D000223560E083E090E00E94223510920502E3
:1031E00060E074E184E090E00E94403560E086E0B9
:1031F00090E00E9422356FEF87E090E00E94223538
:1032000040E050E0BA0188E090E00E94343560E090
:1032100084E290E00E94223560E087E190E00E9425
:10322000223560E08CE090E00E94223560E08DE085
:1032300090E00E94223519821A821B821C821D8214
:103240001E821F82188648E050E068E170E0CE01DF
:1032500001960E94123540E050E0BA0180E290E011
:103260000E94343580E00E9444140E945D1440E0C6
:1032700050E0BA018FE090E00E94343540E050E029
:10328000BA0183E190E00E9434352896E2E00C9484
:10329000563428E030E043E060E087EF0E949C3045
:1032A0000895ACE0B0E0E7E5F9E10C9434344F83E5
:1032B000588769877A878B879C878091A1038823A9
:1032C00099F00E94491980E50E9414312AEB2A9551
:1032D000F1F700C00E942C31887899278038910539
:1032E00009F484C00E9444310E94C10D882309F46E
:1032F00068C00E944E080091D1011091D201209126
:10330000D3013091D4016B017C01C01AD10AE20AC9
:10331000F30A97018601083011052105310508F4EB
:1033200050C06093D1017093D2018093D3019093E8
:10333000D4010091B0031091B1032091B2033091F8
:10334000B303601B710B820B930B62337105810514
:10335000910580F41092A6031092A5031092A80381
:103360001092A7031092AA031092A9031092AC0323
:103370001092AB031091AF030E94110E112309F4B8
:1033800062C0BE01695F7F4F85EA93E00E94040B33
:103390000091AF031091A1030E94110E011709F4CF
:1033A0007CC0BE01695F7F4F89EA93E00E94040BF5
:1033B00086E0FE013796AEEBB3E001900D928A9560
:1033C000E1F786E0FE013796DE01119601900D923D
:1033D0008A95E1F729813A814B815C816D817E81FB
:1033E00080E090E02C96E8E00C9450340E942C3160
:1033F0000E942C317C010E942C3120E0E22AF82A24
:103400000E942C318C010E942C3120E0022B182BC1
:103410000E944431F894B7018091A5039091A603CE
:103420000E94D10B9093A6038093A503B8018091CD
:10343000A7039091A8030E94D10B9093A8038093B7
:10344000A703789451CF8091A5039091A60381386A
:103450002FEF9207D4F080389105CCF481958987BD
:103460008091A7039091A80381382FEF92078CF0E9
:103470008038910584F48A871092A6031092A503E0
:103480001092A8031092A70383CF81E8E7CF8FE7BC
:10349000E5CF81E8F0CF8FE7EECF8091A90390913F
:1034A000AA0381382FEF9207D4F080389105CCF42D
:1034B000819589878091AB039091AC0381382FEF80
:1034C00092078CF08038910584F48A871092AA03C1
:1034D0001092A9031092AC031092AB0369CF81E85C
:1034E000E7CF8FE7E5CF81E8F0CF8FE7EECFCF933F
:1034F000DF93D82FC62F0E9449198D2F80680E9414
:1035000014318C2F0E9414310E9444318FEC92E0D0
:103510000197F1F700C00000DF91CF910895682F67
:10352000843208F063E26093AD0391E09093AE03C0
:103530009091A103992359F06150811101C064E079
:103540008FE00E94771A60E080E50E94771A089564
:10355000FB0180810E948F1A08959091AD03911113
:1035600001C095E0282F880F330BA901490F511D89
:10357000CA011816190614F081E090E00E948F1A13
:103580000895CF93C82F0E9449198C2F0E9414319F
:103590008FE792E00197F1F700C000000E942C3104
:1035A000C82F0E9444319AE69A95F1F700C08C2FFB
:1035B000CF910895CF93DF930E949430879A0E9411
:1035C00049196AE58AE30E94771A2FEF80E792E0B3
:1035D000215080409040E1F700C0000082E00E944E
:1035E000C11A83E00E94C11A84E00E94C11A85E0DA
:1035F0000E94C11A86E00E94C11A60E080E10E9428
:10360000771A80E00E94C11AD82F81E00E94C11A67
:10361000C82F0E944431D23419F481E0C13009F03E
:1036200080E081708093A103882341F064E08FE003
:103630000E94771A60E080E50E94771ADF91CF91AF
:1036400008951F920F920FB60F9211242F933F935C
:103650004F935F936F937F938F939F93AF93BF939A
:10366000CF93DF93EF93FF93D091E900DF708091C8
:10367000EC00C82FC17080FDC0E81092E900809175
:10368000F000877F8093F00078940E9434101092AD
:10369000E9008091F00088608093F000CD2BCF701E
:1036A000C093E900FF91EF91DF91CF91BF91AF916E
:1036B0009F918F917F916F915F914F913F912F914A
:1036C0000F900FBE0F901F9018951F920F920FB67C
:1036D0000F9211242F933F934F935F936F937F9398
:1036E0008F939F93AF93BF93EF93FF938091E100EC
:1036F00082FF09C08091E20082FF05C08091E10055
:103700008B7F8093E1008091DA0080FF24C080915C
:10371000D80080FF20C08091DA008E7F8093DA008D
:103720008091D90080FF9DC080E189BD82E189BD83
:1037300009B400FEFDCF81E0809303048091F5037E
:10374000811109C00E94DE060E947F078091E2007D
:1037500084608093E2008091E10080FF17C0809137
:10376000E20080FF13C08091E2008E7F8093E20030
:103770008091E20080618093E2008091D8008062B5
:103780008093D80019BC85E0809303048091E10008
:1037900084FF2BC08091E20084FF27C080E189BDB7
:1037A00082E189BD89B5982F917080FFFBCF809110
:1037B000D8008F7D8093D8008091E1008F7E809328
:1037C000E1008091E2008F7E8093E2008091E20030
:1037D00081608093E20080910404882309F447C04B
:1037E00084E080930304809103048091E10083FFCF
:1037F00027C08091E20083FF23C08091E100877F92
:103800008093E10082E0809303041092040480918D
:10381000E1008E7F8093E1008091E2008E7F8093B3
:10382000E2008091E20080618093E20042E060E08B
:1038300080E00E944D078091F00088608093F00046
:10384000FF91EF91BF91AF919F918F917F916F9178
:103850005F914F913F912F910F900FBE0F901F904E
:10386000189519BC109203041092F50374CF80913F
:10387000E30087FD93E090930304B5CF78941F9203
:103880001FB61F9211248F939F93AF93BF93809184
:10389000F1039091F203A091F303B091F403019628
:1038A000A11DB11D8093F1039093F203A093F30344
:1038B000B093F403BF91AF919F918F911F901FBE62
:1038C0001F9018959C014FB7F8948091F103909147
:1038D000F203A091F303B091F4034FBF821B930B4B
:1038E00008952FB7F8948091F1039091F203A0917D
:1038F000F303B091F4032FBF08952F923F925F928C
:103900006F927F928F929F92AF92BF92CF92DF92EF
:10391000EF92FF920F931F93CF93DF938091ED036C
:10392000882309F4CAC08091EB039091EC030E94B4
:10393000621CC29708F4A2C00E94711C9093EC0311
:103940008093EB038AE494E09093510680935006B1
:103950000E94C10D882309F4C8C08FE394E00E943F
:10396000AB0F8091A0030E94F30A0E949F0B0E945C
:103970002B0F8DE394E00E94AB0F81E00E94B90F02
:10398000C091BA0388E894E00E94AB0F8091BD0318
:103990000E949F0B0E942B0F84E894E00E94AB0FC3
:1039A0008091BC030E949F0B0E942B0FCC2309F433
:1039B00096C081E894E00E94AB0F8C2F82958F70A7
:1039C0000E949F0B0E942B0F8C2F0E949F0B0E9426
:1039D0002B0F8CEF8C0F853308F081C08DE794E0BE
:1039E0000E94AB0F8C2F8450990BFC01E85BFB4FBE
:1039F00084910E942B0F84EA94E00E94AB0F809187
:103A0000C0030E94A60B0E94B9138091C103819547
:103A10000E94A60B0E94B9138091C3030E94A60BBB
:103A20000E94B9138091C20381950E94A60B0E9447
:103A3000B9138BE994E00E94AB0F8091AD03811123
:103A400001C085E00E94A60B01960E94B91385E98A
:103A500094E00E94AB0F8091AF03811144C080E3DA
:103A60000E942B0F81E994E00E94AB0F8091B40378
:103A7000811101C084E0805D0E942B0F8091480479
:103A800090914904892BB1F58091EA038823A9F02C
:103A90000E944E080091E6031091E7032091E8038D
:103AA0003091E903601B710B820B930B6F3F7F4FCB
:103AB0008F4F9F4710F40E947A15DF91CF911F918D
:103AC0000F91FF90EF90DF90CF90BF90AF909F90BD
:103AD0008F907F906F905F903F902F90089581E03E
:103AE0000E94B90F88CF81E3BBCF8AEA94E00E949D
:103AF000AB0FC4CF8091ED03882331F28091E503B1
:103B00008111C2CF0E94951520914804309149043B
:103B10002115310509F4B8CF80E041E050E0082FCD
:103B200010E01A01082E02C0220C331C0A94E2F79E
:103B3000B10162237323672B11F48F5FF0CF909153
:103B4000E40390FF95C0880F880F880F80937E0153
:103B500010928101895F80937F0183E080938201CD
:103B600024E630E047E050E06CE771E088E70E942F
:103B70000E32892B09F088CFA80125E0440F551F8C
:103B80002A95E1F78091E40380FF84C0E4ECF3E040
:103B900080E2DF011D928A95E9F7A5EAB1E001EA2A
:103BA00011E089EAC82E81E0D82E97E0592E7724BB
:103BB00073948D91E80129918E01240F352F311DC9
:103BC000265B3B4FE82FF0E0EC53FC4F90E080E0A9
:103BD000652C681A872C082E01C0880C0A94EAF715
:103BE0007901A12CE701B9907E01B820662D6A19F0
:103BF0006770962E062E000C770BDB2D01C0DD0FB3
:103C00009A94EAF77195619571096770772701C0F9
:103C1000B6946A95EAF7BD2A6081962E9B28908219
:103C2000A39468E0A612DECF019631968830910504
:103C300079F6CA16DB0609F0BCCF04E610E020E2F4
:103C400030E044EC53E060E488E70E942F32892B97
:103C500009F01ACFE101C095D09580914804909168
:103C60004904C823D923D0934904C09348040CCFF6
:103C70008295880F807680937E01980136952795EE
:103C80003695279520938101815E80937F01209353
:103C9000820166CF465B5B4F04E610E020E230E035
:103CA000D2CFAEE1B0E0E7E5FEE10C9439344091CB
:103CB000A6025091A7026091A8027091A90280917A
:103CC000AA029091AB020E9451192093A602309350
:103CD000A7024093A8025093A9026093AA0270938E
:103CE000AB0286E0E6EAF2E0DE01179601900D9263
:103CF0008A95E1F786E0FE013796DE011D96019078
:103D00000D928A95E1F786E0FE013D96DE0111965F
:103D100001900D928A95E1F786E0FE013196A6EAC0
:103D2000B2E001900D928A95E1F786E0E6EAF2E0D2
:103D3000DE01599601900D928A95E1F786E0FE0129
:103D40007996DE01179601900D928A95E1F786E04B
:103D5000FE013796DE01119601900D928A95E1F7EA
:103D600086E0FE013196DE01539601900D928A9510
:103D7000E1F786E0FE017396DE01179601900D9241
:103D80008A95E1F786E0FE013796A6EAB2E0019057
:103D90000D928A95E1F786E0E6EAF2E0DE011796F9
:103DA00001900D928A95E1F780916A01882309F4C8
:103DB00045C080916F01909170010E94621C20911A
:103DC0006E0128171906D0F580917101909172014A
:103DD0000E94621C893C910588F18A859985892B0E
:103DE0009B85892B9C85892B9885892B91E009F4EB
:103DF00090E0909373010E9452091091A0038823D0
:103E000051F10E94711C9093700180936F01109288
:103E100072011092710180916B01111105C088230C
:103E200069F00E941F0F0AC0212F30E0082E02C047
:103E3000359527950A94E2F720FFF3CF0E94380EBC
:103E400081112FC08091A5021092A50281706E96FB
:103E5000E3E00C94553480916B01111118C081116D
:103E6000EDCF80916F01909170010E94621C2091B2
:103E70006C0130916D012817390700F780916B01B3
:103E80000E94FB0E1092700110926F01D7CF212F6C
:103E900030E002C0359527958A95E2F720FFCECF16
:103EA000E0CF81E090E0D0CF0E94C10D882319F0CF
:103EB0000E94711C08950E94F70DCB010895609136
:103EC0009803669570E041E050E086E791E00E943B
:103ED000DB34892B19F481E08093B4020E94541FD3
:103EE0009093AE028093AD028091B502846080937E
:103EF000B50208959091980390FF39C09170811197
:103F000037C09260909398038091B502816080934E
:103F1000B502662391F02091980330919903409166
:103F20009A0350919B0360919C0370919D03809133
:103F30009E0390919F030E94BD1560919803669522
:103F400070E041E050E086E791E00E94DB34892B8D
:103F5000B1F00E94760881E08093B00220E04091A9
:103F60009B0360919A03809199030E94E315089541
:103F7000803110F09E61C6CF880F982BC3CF0E946E
:103F80005F1FE9CF809198038695815009F48FE0F7
:103F900061E00E947A1F08958091980386958F5F53
:103FA000803108F081E061E00E947A1F08959091CD
:103FB000980390FF08C09695981728F0961718F464
:103FC0000E94CC1F089561E00E947A1F0895A8E026
:103FD000B0E0EDEEFFE10C942C348C01DC01149682
:103FE0008C911497882309F4BDC021E04C9111965F
:103FF0005C91119712966C91129713967C9113977E
:1040000015969C910E9409157C01F801D580DD2050
:1040100009F469C197578038910508F064C1FFE041
:10402000FE1508F48FC08FEF93E00E94FE348111DB
:1040300089C0E9EBAE2EE2E0BE2EE1104DC0FE01DC
:10404000339686E0DF011D928A95E9F77AE0472EE4
:104050007501BFEFEB1AFB0AC5010E94FE3489838C
:104060001A82882309F46EC0813009F07FC065018F
:10407000E2E0CE0ED11CC7010E94FE348A83882361
:1040800009F460C09FEF980F9330A0F5F3E0AF0EF6
:10409000B11CC6010E94FE348B83882309F452C0F0
:1040A0001C82DE0111967D01F7012081222381F21D
:1040B000213009F0BAC091818281913009F058C055
:1040C000F2E0EF0EF11C65E070E0893311F460E579
:1040D00070E00E94A31353C0A11424E0B20691F132
:1040E000C5010E94FE34811101C0EA943FEFA31A7A
:1040F000B30AA3CF56018430A1F662E0E62EF12C7C
:1041000056012FEFA21AB20AC6010E94FE34E1E066
:10411000F0E0EC0FFD1FEE0DFF1D8083882391F072
:104120008C3741F4E2E0F0E0EC0FFD1FEE0DFF1DD7
:104130001082B7CF3FEFE31AF30A650187E0E81674
:10414000F104F1F68091AC02877061F0D801159608
:104150008C91882339F080917A0282FF03C082E03B
:104160000E94080F2896E0E10C944834570199CF3B
:10417000923039F522E0E20EF11C0E944913FFEF64
:10418000EF1AFF0A8FE99FE00197F1F700C00000E6
:10419000AFE9BFE01197F1F700C00000EFE9FFE0E1
:1041A0003197F1F700C000008FE99FE00197F1F728
:1041B00000C00000AFE9BFE01197F1F700C00000B8
:1041C00073CF933031F432E0E30EF11C0E941D13E3
:1041D000D6CF943021F08FEFE81AF80AD0CF92E0D2
:1041E000E90EF11C30E020E0B7016F5F7F4FD7018F
:1041F00011964C918053990B8A30910558F02150BB
:10420000310908F4BCCFEFE9FFE03197F1F700C0C6
:104210000000F5CF429EF001439EF00D11249C0159
:104220002E0F3F1F842F7B01DFCFE22FF0E0E557F9
:10423000FE4F5490822F86958695869590E0FC01DE
:10424000E558FE4F64902770712C022E02C07594C1
:1042500067940A94E2F731E063227724FC01E55980
:10426000FE4F8490912C022E02C0959487940A945C
:10427000E2F7A1E08A229924FC01E55AFE4FC4909E
:10428000D12C02C0D594C7942A95E2F7B1E0CB2295
:10429000DD246114710419F081EE0E944913811428
:1042A000910419F086EE0E944913E9E365E070E09D
:1042B0005E1202C060E570E0852D0E94A313811498
:1042C000910419F086EE0E941D136114710419F017
:1042D00081EE0E941D13C114D10409F450CF65E092
:1042E00070E08CE2F6CE80916A01882309F469C0FF
:1042F000B0E2EB16B2E5FB0608F04CC0E114E2E5D3
:10430000FE0608F0B4C0E114F0E4FF06B0F5E114D5
:1043100020E2F20608F0D7C030EEE316F10450F0C8
:1043200088EEE816F10408F447C0E11491E0F906BC
:1043300008F042C0F8018481882309F43DC0C70118
:104340008D5C9109439708F4A9C00E94520981111C
:1043500033C0DD2059F080916B012091A003211121
:10436000B9C0882309F4BFC00E94290E0E94711CA5
:1043700090937201809371011FC0E114A0E5FA06C9
:1043800008F090C0F8018681807F09F09CC08F2DD5
:1043900099278EC0B0E8EB16B2E5FB0608F03EC0E8
:1043A000E0E6EE16E2E5FE0608F061C0F0E4EF1686
:1043B000F2E5FF0608F469C08091750187FD10924F
:1043C0007501F092BB03E092BA03D8018D919C91E4
:1043D0009093BD038093BC03C7019A95F7018115A3
:1043E0009F4108F4FF27D80115968C91E13DF10516
:1043F00048F0E93DF10508F479C0E730BEE7FB0776
:1044000009F4ADC0882309F475C0FE57EA30F10500
:1044100008F070C0EE59FA4C0C948F3420ECE21680
:1044200022E5F20648F230EEE31632E5F30608F034
:1044300081CF20916B01C7018F7199272817190629
:1044400009F0BACF8D2D0E942909D80116968C91BA
:104450001697807F803509F0AFCF15968C91882311
:1044600061F180917501815080937501A5CF2091F4
:104470006B01C7018F7199272817190609F09CCF86
:10448000D1109ACF0E94370997CF20916B01C701B5
:104490008F7199272817190609F08ECF8D2D0E944C
:1044A00029098ACFC70155E0969587955A95E1F776
:1044B0008F70992720916B01EDCF0E943709809171
:1044C00075018F5FD1CFD80116968C91807F09F44A
:1044D00073CF30CF30E0082E02C0359527950A946F
:1044E000E2F720FF41CF0E94FB0E3ECF682F8E2FB8
:1044F0000E94910EF8018581811160C38091F603BD
:104500008272F701E052F847E531F10508F0AFC0DB
:10451000E459FA4C0C948F3480E00E948F1A109268
:10452000B40310CE4091AD035091B40350FB47F952
:104530005695537060E070E08FE090E00E94343553
:1045400001CE81E00E94AD1AFDCD8FEFFBCF8AE056
:10455000F9CF86EFF7CF9091AF0381E089270E94D2
:10456000860BF0CD8091B403811101C084E08F5F90
:1045700018160CF081E0883008F087E08093B403CF
:10458000E1CD8091B403811101C084E08150F0CF6E
:104590008091980380FF1EC0282F2E7F20939803C0
:1045A0003091990340919A0350919B0360919C0331
:1045B00070919D0380919E0390919F030E94BD1571
:1045C0000E9476088091B50281608093B5020E94B6
:1045D000960CB8CD81608093980361E086950E9427
:1045E0007A1FB0CD42EC5FE16CEC7FE10E94700875
:1045F000A9CD4CEC5FE162EC7FE1F8CF47E756E1F3
:1046000061E876E1F3CF41E856E167E776E1EECF86
:104610004DE556E16AE676E1E9CF4AE656E16DE519
:1046200076E1E4CF43E456E160E576E1DFCF40E5B3
:1046300056E163E476E1DACF4BE856E165EA76E1EC
:10464000D5CF45EA56E16BE876E1D0CF61E081E075
:10465000C6CF65E082E00E94D71F74CD68E086E097
:10466000FACF6EE089E0F7CF61E08FE0B8CFF7E7EF
:10467000EF16FCE7FF0609F460C028E7E2162CE716
:10468000F20609F45EC0F8018581E080F18088239C
:1046900009F49FC0C7010E94AA14D82E682FC70131
:1046A0000E94BA0AB7018D2D0E949C140E94A6098F
:1046B0007C01882ED8011596AC90159716969C9083
:1046C00092943FE093228091AC028770F1F0CA2C63
:1046D000AA20E1F08F2D807F803451F080E28E0D92
:1046E000883098F0911004C08F2D807E803269F060
:1046F00080917A0282FF09C082E00E94080F8091B7
:10470000AC028770CC24C3948111C12CBF2CB2940D
:104710002FE0B222BBE0BB1508F4C3C0EB2DF0E0E4
:10472000EF57FA4C0C948F3481E00E941F0F43E046
:1047300062E081E00E94DB0E05CD81E00E94FB0E6D
:10474000F6CF82E0FBCF33E0E3163CE7F30671F1EE
:1047500060F4E1149CE7F906D1F0A1E0EA16ACE7B9
:10476000FA0609F090CF0E94F412BBE5EB16BCE705
:10477000FB0669F1ECE5EE16ECE7FE06F1F0FAE572
:10478000EF16FCE7FF0609F07ECF81E01DC0109216
:10479000F6030E9428102FEF34E38CE021503040C4
:1047A0008040E1F700C000000E943D086FEF7FEFFE
:1047B00090E080E00E944035D6CF80917A0282FB63
:1047C000882780F991E089270E94DC165CCF80E081
:1047D000FBCFC7010E94860AD82E64CFEF2DEF7061
:1047E000DE2E8F2D807F19F0D29490EFD922AA204F
:1047F000B9F0DD2069F080E28E0D883010F0811074
:1048000009C08091F603D82AD092F6030E94EB0FDC
:104810008E2D45C080910402D82AD0920402F6CF92
:104820008E2D0E941D13DD20E1F180E28E0D883077
:1048300010F0811004C08D2D0E94750A06C0D0941E
:1048400080910402D822D09204020E94EB0F29C06A
:10485000FF2DFF70DF2E8F2D807F803219F0D294D4
:1048600080EFD822882059F021E0821609F481C017
:10487000AA2009F48DC0992009F44FC0C9CF8091B6
:104880007A0282FD46C0AA20F1F1DD2039F0809144
:10489000F603D82AD092F6030E94EB0F80E00E9424
:1048A0004913AB2DA850BB0B149710F40E94E60DD2
:1048B000CC20A9F08091AC0280FD11C0F8011582D6
:1048C0008695869586950E941F0FC8010E94E71F56
:1048D0008091AC028695869586950E94FB0E20E01D
:1048E000D8014C9111965C91119712966C91129788
:1048F00013967C91139714968C91149715969C910E
:104900000E9409152FCC80E00E941D13DD2049F282
:1049100092CFAA20A1F0911004C08D2D0E941313F4
:10492000C0CF31E09312BDCF809103029D2D98231B
:10493000D91609F4B6CFD82AD0920302B2CF91107B
:10494000B0CF8D2D0E940C13909103028D2D8923E1
:1049500029F08D2D80958923809303028091D501C4
:104960009D2D982309F49DCFD094D822D092D501C3
:1049700098CFAA2029F085E0891508F492CFCDCFF1
:1049800094E0991508F48DCF8D2D0E940C1389CFDA
:104990009920D1F3A9E38A1209C1BFEFE7EEF3E052
:1049A000B150E040F040E1F700C000008E2D0E94C1
:1049B0001D1377CF6A2D8E2D0E94910E72CF8F2DF1
:1049C000837091F5A1106DCF4E2D4295469547709D
:1049D000440F440F8E2D8F70042E01C0880F0A944F
:1049E000EAF72E2D2071E4FE07C02FE030E001C071
:1049F000220F4A95EAF720953F2D3695369533706C
:104A0000323069F050F440910502313029F0822BA8
:104A100084230E94F00A45CF842B822BFACF282BC7
:104A2000809105028227F5CF8695AA2011F08F2D5F
:104A30008170882309F435CF4E2D429546954770F5
:104A4000440F440F8E2D8F70042E01C0880F0A94DE
:104A5000EAF72E2D2071E4FE07C02FE030E001C000
:104A6000220F4A95EAF720953F2D369536953370FB
:104A7000323069F050F44091A003313029F0822B9C
:104A800084230E94D60E0DCF842B822BFACF282BA5
:104A90008091A0038227F5CF9F2D9F70F92EAA2029
:104AA00029F0892F0E941F0F8E2D38CF8E2D0E9446
:104AB0000C138F2D0E94FB0EF4CE8E2DA2EF8A16C2
:104AC000B1F1A81570F0B0EF8B16D1F0E1EF8E16B2
:104AD00091F0AA2009F45EC091109ACE8F2D8F71AB
:104AE0002AC0F3EF8F1651F124EF8212F2CF80919A
:104AF0007A0282FD2FC08F2D8F71AA20D9F21BC0A0
:104B0000AA2081F034E0391508F4CBCE2F2D2F7177
:104B100081E090E001C0880F2A95EAF79091A00308
:104B20008927AFCF85E0891508F4BBCEEFCF8F2D55
:104B30008F71A110BFCF0E941F0FB3CE80E0AA20BB
:104B400009F49FCF9F2D9F7181E001C0880F9A9536
:104B5000EAF797CFAA2099F09F2D9F71F92E892F00
:104B60000E941F0F80917A0282FF07C0A8E0FA9E80
:104B7000C001112483608093AC028F2DDCCF81E0D3
:104B80000E94080FB1E0B91508F08BCE82E00E94B8
:104B9000080F87CE992079F0893341F4EFEFF7EED3
:104BA00023E0E150F0402040E1F7FECE8FE19EE4AB
:104BB0000197F1F7F9CE8F2D8F717CCFB7E7EB1608
:104BC000BCE7FB0609F4B0CDE8E7EE16ECE7FE061D
:104BD00009F0B9CD82E0A9CDCF93DF938091FA019E
:104BE000807F09F04DC08091F901882309F448C005
:104BF000E091460450910D04C091F501D091F4016B
:104C00006091F6017091F70147E05E17C9F18E2FB0
:104C100090E0E49FF0011124E25FFB4F2481222306
:104C200091F1489FF001499FF00D1124DF01A25F2F
:104C3000BB4F11962C9111972C1325C02C912D133D
:104C400022C015962C91159721111DC012962D91F9
:104C50003C91261B370B283C3105A8F48091FA01C2
:104C60008F7080618093FA01EC5EFB4F80818F70C2
:104C70008061808384EF91E00E94E71F0E947C0A9C
:104C8000DF91CF910895FC013196E770BECFA4E18A
:104C9000B0E0EDE4F6E20C9430348C0186E0F801EB
:104CA000DE011F9601900D928A95E1F7F80184814B
:104CB000E58094EFA92E91E0B92E9091F801911121
:104CC00028C0882319F1EE20F1F0C8010E94E614F3
:104CD000F82E8823C1F087E0F801D50101900D92EC
:104CE0008A95E1F78091F801813031F48091F401E7
:104CF0009091F5010E94D9140E94EC258F2D6496A5
:104D0000ECE00C944C34C8010E94E71FFF24F3949C
:104D1000F5CFD080C18082809380F090F9012091FE
:104D2000F6013091F701A401421B530BFF2009F457
:104D3000D9C0483C510508F092C08823F9F29091FF
:104D4000F5018091FA01282F207F09F056C0C91281
:104D500014C09091F401D91210C0E11048C08F70B6
:104D600080618093FA0184EF91E00E94E71F8091B7
:104D7000FA01F8018683F12CC1CFE11038C06C2D07
:104D80008D2D0E94BF066C2D8D2D0E94BF06E82E32
:104D90008111F1CFDF86C88A8F8598890E94D91446
:104DA000292F22952F70243058F49F70223088F0DC
:104DB000992399F0F8019681907F79F4FE2C9ECF8B
:104DC0002A5F2F70223068F0C8010E94E71FEF2C85
:104DD000F5CF992311F0882389F3805E883070F332
:104DE000F3CF803F58F3815F833070F7E7CF809136
:104DF000FA0181608093FA01BECFC91207C0909179
:104E0000F401D91203C0EE2009F48DC0C8010E943C
:104E1000E614882309F477CFEE2009F474CF80914B
:104E2000FA01803288F02091F4013091F501398740
:104E300028879B868A869091F8019C871D868E879D
:104E4000CE0108960E94E71F87E0F801A4EFB1E0C9
:104E500001900D928A95E1F70E94EC2557CF909131
:104E6000FA01292F207F51F484EF91E00E94E71F7F
:104E700087E0F50111928A95E9F77DCF882309F43F
:104E80003DCF8091F5018C1110C08091F401D812B2
:104E90000CC0E1100AC09683C8010E94E71F87E09A
:104EA000F50111928A95E9F729CFC8010E94E6140D
:104EB000882309F428CFEE2009F425CF8091FA0148
:104EC000803210F22091F4013091F5013A83298368
:104ED0009C828B829091F8019D831E828F83CE01EC
:104EE0000196B0CF483C5105D0F6882309F40ECF87
:104EF000FE2CEE2009F407CF8091F5018C1120C023
:104F00008091F401D8121CC08091FA0180FD0FC07D
:104F1000982F907F61F08683903F31F0982F907F9B
:104F2000905F8F70892B8683C8010E94E71F87E0FE
:104F3000F801A4EFB1E001900D928A95E1F7DECE81
:104F4000C8010E94E61481117FCF8091FA0181602F
:104F50008093FA01C8010E94E71FD0CEABE1B0E018
:104F6000E4EBF7E20C9438344E8B5F8B688F798FCB
:104F70008A8F9B8F192F9111109204021D8A86E04F
:104F8000FE017696DE011F9601900D928A95E1F75B
:104F90000A8D002341F021E04F85588969897A897B
:104FA000C8010E9409150B8B1C8B87E0FE013F9600
:104FB000DE01189601900D928A95E1F7CE010896D0
:104FC0000E94472681110CC087E0FE013896DE0161
:104FD000119601900D928A95E1F78C8581110BC095
:104FE00017E08091460490910D04891333C06B96AD
:104FF000E4E00C94543420910D0430E0C901019692
:1050000087709927409146044817190699F097E050
:10501000929FD001939FB00D1124A25FBB4FFE0160
:10502000319601900D929A95E1F780930D040E94BC
:105030007C0AD6CF1092F6030E94281010920D041D
:105040001092460487E0E4EFF1E0DF011D928A95BB
:10505000E9F7C6CF819FC0011124825F9B4F0E9458
:105060004726882321F28091460490E001968770BC
:10507000992780934604B5CFA6E0B0E0E2E4F8E2D9
:105080000C9438340E94711C8C018091060290911E
:1050900007028017910781F019821A820E94711C01
:1050A000682F49815A81792F80E090E00E94AE27D5
:1050B00010930702009306022696E4E00C94543401
:1050C000ABE0B0E0E6E6F8E20C942C3445E0642E68
:1050D00041E0742E53E5E52E56E0F52E60E0C62E35
:1050E00061E0D62E512C88248394912CD6018D9189
:1050F0006D010E94E40B00C0F701408035E0A32E53
:1051000031E0B32EF50110E000E04191A42FA2950B
:10511000AF70B0E090968C919401002E01C0220FE8
:105120000A94EAF790E04F7002C0959587954A95EA
:10513000E2F780FD92C0422A0F5F1F4F0430110535
:1051400021F7F601319780810E94F80BF0EAFA9579
:10515000F1F7D7018C91841519F04C925524539492
:10516000BFEFEB1AFB0AE5E0CE16E1E0DE0609F040
:10517000BDCFEE24E394F12CD5018D915D010E9409
:10518000E40B00C0C701002E01C0880F0A94EAF7A3
:10519000782FE3E5F6E090E0C92E91E0D92E682F54
:1051A0006095D6012D916D01822F82958F7090E0D0
:1051B000DC0190968C91AF01308190E02F7002C09D
:1051C000959587952A95E2F780FD4AC0872F832B16
:1051D00080833196DA018C91381711F0552453945D
:1051E0006C147D04F1F6F501319780810E94F80B73
:1051F000B0EABA95F1F70F5F1F4F0830110509F0BB
:10520000BBCF00917802552071F181E08093C401F9
:105210000E94711C9093C3018093C2018091C201CE
:105220009091C3010E94621C059708F110E0055798
:105230001D4F45E050E063E576E0C8010E94E83488
:10524000892B41F085E0E3E5F6E0D80101900D926D
:105250008A95E1F71092C4010AC0209542226CCFD2
:10526000862F8323B5CF8091C4018111D7CF0E94AF
:10527000C10DF82EE0917802811186C0F0E0E5576B
:10528000FD4F85E0AAE0B2E001900D928A95E1F72A
:1052900065E070E08AE092E00E945A08809309027B
:1052A000C0900F02D0901002E0901102F090120214
:1052B0008091C5019091C601A091C701B091C8012C
:1052C000C816D906EA06FB06D1F0C092C501D092F5
:1052D000C601E092C701F092C8010E94C10D811180
:1052E0000EC00E944E08C61AD70AE80AF90AC092F0
:1052F0007302D0927402E0927502F09276028BE013
:10530000E3E1F2E0DE01119601900D928A95E1F75A
:10531000809113028695F0901402E0901502D090CF
:10532000160200911C0210911D0210921D02112301
:1053300001F110FF0BC0998190FF20C0909198035C
:1053400091609093980360E00E947A1F11FF06C05D
:1053500020E04D2D6E2D8F2D0E94E31512FF04C00D
:10536000002379F00E945F1F13FF03C081E0809348
:10537000B002852D2B96E0E10C9448340E94B20DCA
:10538000E5CF0E947608F0CF28E536E085E0D90128
:105390001D928A95E9F70E2F10E005571D4F809159
:1053A00052068A30A8F56EE378E1C8010E940D0C20
:1053B000882309F449C063EF77E1C8010E940D0C0E
:1053C000882309F441C06DE977E1C8010E940D0C02
:1053D0008823D1F11092520681E08093CB01009195
:1053E000770210E005571D4F45E050E068E576E094
:1053F000C8010E94E834892B09F4BBCF85E0E8E5B9
:10540000F6E0D80101900D928A95E1F75F2CB1CFBB
:105410008091C9019091CA010E94621C843F914011
:1054200010F68091CB01882309F4A3CF1092CB0111
:10543000E0917702F0E0E557FD4F95E0DF011D9226
:105440009A95E9F7582E95CF809152068F3F31F00B
:105450008F5F809352068A3008F4BECF0E94711C81
:105460009093CA018093C901DCCF1F921FB61F928F
:1054700011248F939F93AF93BF938091F003811179
:1054800013C08091F1039091F203A091F303B091C6
:10549000F4034196A11DB11D8093F1039093F20393
:1054A000A093F303B093F403BF91AF919F918F91B9
:1054B0001F901FBE1F901895CDB7DEB7A6970FB6E9
:1054C000F894DEBF0FBECDBF85B7806885BF85B7B6
:1054D000806885BF84B7877F84BF0FB6F894A8958E
:1054E00080916000886180936000109260000FBE20
:1054F00080E890E00FB6F89480936100909361008B
:105500000FBE85E799E09093B9018093B8010E949E
:10551000DE060E947F078091E20084608093E200B3
:105520007894809103048823A1F01091E9001F7002
:105530009091EC00892F817090FD80E8182B1092DB
:10554000E9008091E80083FD0E9434101F701093E1
:10555000E90082E084BD93E095BD9AEF97BD80930A
:105560006E001092730210927402109275021092E3
:1055700076020E943715811102C00E945D140E94BC
:10558000C018809109010E94C018809105010E94F5
:10559000F80B809106010E94F80B809107010E9490
:1055A000F80B809108010E94F80B00E011E0F5E093
:1055B000EF2EF1E0FF2ED8018D918D010E94F80BA6
:1055C000E016F106C1F78091090195E0811190E0A4
:1055D0009093780285E0891B809377020E94C10D29
:1055E000811102C00E94B732E3E5F6E0ABE8B2E019
:1055F00011921D9226E0ED35F207D1F70E94F316C5
:10560000811102C00E94D81882E090E00E94FE340E
:1056100080937C0284E090E00E940C3590937A02A3
:10562000809379020E9460288FE39CE90197F1F74B
:1056300000C000000E94602880918B0280FF08C09B
:105640006FEF7FEF90E080E00E9440350E943D08C0
:1056500083E090E00E94FE340E94F00A8091A00353
:105660000E94A80E0E94C10D882309F48AC180E01F
:105670008093E40380E8809347040E946E316BE0DE
:1056800070E082E292E00E9450158823E9F1809157
:10569000E40365E070E081FD76C18DE192E00E9457
:1056A0005015882389F16DE070E08BE092E00E9454
:1056B0005015882349F10E944E08605A75418F4F5A
:1056C0009F4F6093E6037093E7038093E803909302
:1056D000E903EAE4F4E080E092E0DF019C011D923E
:1056E00021503040E1F7F0935106E09350068FEFE0
:1056F0009FEF909349048093480481E08093ED03E9
:105700008093EA031092E50380917B02811178C0B7
:105710000E94F316811104C00E94D8180E94BF167F
:1057200088E090E00E9406354B015C0184E290E045
:105730000E94FE34282F30E040E050E060E070E04E
:1057400080E090E000E20E949C34282939294A290F
:105750005B29209398033093990340939A035093C5
:105760009B0360939C0370939D0380939E0390938F
:105770009F038091B50283608093B5022E7F89F5E7
:105780000E94BF1688E090E00E9406356B017C0104
:1057900084E290E00E94FE34282F30E040E050E0A8
:1057A00060E070E080E090E00E949C34B22FA32F74
:1057B000F42FE52F5B0197018601BC29A12BFE295F
:1057C000E32BB0939803A0939903F0939A03E0938B
:1057D0009B0360939C03B0929D0380939E039093E0
:1057E0009F030E947D080E9476088091980380FFA5
:1057F00004C060E086950E947A1F81E080937B025E
:105800000E94C10D811102C00E94B7320E94DA1AB3
:105810000E94C10D81112EC08AE99BE09093510135
:105820008093500129E130E030934C0120934B01EB
:1058300089E390E090934F0180934E0141E659E057
:1058400050935901409358013093540120935301D0
:10585000909357018093560148EA5AE150936101B1
:105860004093600130935C0120935B0190935F0152
:1058700080935E010E94F316882389F08FE090E008
:105880000E9406358B01862F8F770E948F1A001F8A
:105890000027001F1370110F102B1093B40382E622
:1058A00091E09093EF038093EE0378E1A72EB12C63
:1058B000E5E98E2EE2E09E2E8091030400E112E1E4
:1058C000853009F49FC00E9460280DE712E067E868
:1058D000E62E61E0F62EB7012BE832E0F801919157
:1058E000D9018D919D01DB014D91BD018423B2E071
:1058F000E738FB0709F492C0981789F30E94C10D9D
:10590000282E5BE8C52E52E0D52E612CF601719051
:105910006F01D7018D917D017822F80131908F01BF
:10592000371431F13724512C44244394832D84219E
:10593000B9F02220A9F059A26AA20E94711C9CA36E
:105940008BA3F1E0FDA391E0872D842109F490E081
:105950009EA349A15AA16BA17CA18DA10E94AE2753
:105960005394440C28E05212E1CFF8013197708231
:1059700063943AE06312CACF0E94F70D77247394C0
:1059800052C082E075CE88E192E089CE8091030416
:10599000843031F10E947A150E94511E1092F0035A
:1059A00030E40FB6F894A895A09260000FBE309333
:1059B000600083B7817F846083BF83B7816083BFCA
:1059C0007894889583B78E7F83BF0FB6F894A89597
:1059D00080916000886180936000109260000FBE2B
:1059E00080910204882371F00E946028A7E8B1E04A
:1059F000EBE8F2E081919D91892309F07DC38E1639
:105A00009F06C1F780910304853009F4BFCF10923F
:105A1000F6030E9428100E94E60D55CF98136ECF12
:105A20000E943C28712C0E94C10D8091B4028823F1
:105A300009F464C08091B302E0919803E695E81BF5
:105A4000E093AF02823009F064C0F0E0EB5CFD4F00
:105A5000E4910E2F10E04EE9C42E4DE0D42E80913B
:105A6000B002882361F01092B0020E94541F9093FC
:105A7000AE028093AD021092B2021092B1020E9467
:105A8000541FE091AD02F091AE029C012E1B3F0B22
:105A90002F3F3F4798F5209189022223B1F01092C1
:105AA00089022091870230918802821B930B8F3FDD
:105AB0009F4758F4205D3A4830938802209387022C
:105AC0008091B50288608093B502E090B102F090B9
:105AD000B2020E0F1F1F1093AE020093AD028DEAAB
