:100000000C9494060C94B1060C94B1060C946932CD
:100010000C94B1060C94B1060C94B1060C94B10684
:100020000C94B1060C94B1060C94E81A0C94A41A22
:100030000C94A6280C94B1060C94B1060C94B1064D
:100040000C94B1060C94B1060C94B1060C94B10654
:100050000C94B1060C94C11B0C94B1060C94B1061F
:100060000C94B1060C94B1060C94B1060C94B10634
:100070000C94B1060C94B1060C94B1060C94B10624
:100080000C94B1060C94B1060C94B1060C94B10614
:100090000C94B1060C94B1060C94B1060C94B10604
:1000A0000C94B1060C94B1060C94B106050109023A
:1000B000A10185020901A1000509190129081500FE
:1000C0002501950875018102050109300931158165
:1000D000257F95027508810609381581257F9501D0
:1000E00075088106050C0A38021581257F95017572
:1000F000088106C0C00660FF0961A1010962150000
:1001000026FF009520750881020963150026FF006F
:10011000952075089102C005010906A1010507197E
:10012000E029E71500250195087501810295017503
:100130000881010507190029FF150026FF00950613
:1001400075088100050819012905950575019102B9
:10015000950175039101C00000000000000000003F
:10016000000000000000000000000000000000008F
:1001700000000000000000000000007E0F00D4FF1F
:10018000FFFFC70000007800000000000000002A08
:100190002B2800000000000000000000000000000C
:1001A000000029000000002C1E34202122243426C7
:1001B00027252E362D3738271E1F202122232425C0
:1001C000263333362E37381F0405060708090A0B75
:1001D0000C0D0E0F101112131415161718191A1BE7
:1001E0001C1D2F3130232D350405060708090A0B85
:1001F0000C0D0E0F101112131415161718191A1BC7
:100200001C1D2F3130354C00DA0281FFD9F1DB2083
:10021000A4A62EAF00A0C000A1C800AED580A81F24
:10022000D300408D14200000041E140A056162638F
:100230006465666768696A6B6C6D6E6F7071727306
:100240007475767778797A31323334353637383990
:1002500030524542545F2D3D5B5D5C233B27602C53
:100260002E2F20202700204B0020204300526565C0
:10027000783A2020520020204400303020205300C3
:1002800020202020204350490020202020200080D2
:100290008182838485868788898A8B8C8D8E8F90D6
:1002A00091929394A0A1A2A3A4A5A6A7A8A9AAAB42
:1002B000ACADAEAFB0B1B2B3B4C0C1C2C3C4C5C6B9
:1002C000C7C8C9CACBCCCDCECFD0D1D2D3D40000F1
:1002D0000101010101010101010202020202020207
:1002E00002020303030303030303040404040404DA
:1002F00004050505050506060606060707070707A0
:1003000008080808090909090A0A0A0B0B0B0C0C52
:100310000C0D0D0D0E0E0E0F0F0F101011111112EE
:100320001213131414151516161717181819191A6D
:100330001A1B1B1C1D1D1E1E1F20202122222324D0
:1003400024252626272829292A2B2C2D2D2E2F300F
:10035000313232333435363738393A3B3C3D3E3F23
:10036000404142434445464748494A4C4D4E4F5010
:10037000515354555658595A5B5D5E5F61626465CE
:100380006668696B6C6D6F7072737577787A7B7D58
:100390007E8082838587888A8C8E8F9193959698AC
:1003A0009A9C9EA0A2A3A5A7A9ABADAFB1B3B5B7C8
:1003B000BABCBEC0C2C4C6C9CBCDCFD1D4D6D8DB9F
:1003C000DDDFE2E4E7E9EBEEF0F3F5F8FAFDFF221A
:1003D00023252628292A2C2D2F3032333536383A3A
:1003E0003B3D3E4042434547494A4C4E5051535590
:1003F00057595A5C5E6062646668696B6D6F7173B1
:100400007577797B7D7F81838587898A8C8E9092B1
:100410009496989A9C9E9FA1A3A5A7A8AAACAEAFBC
:10042000B1B3B4B6B8B9BBBCBEBFC1C2C3C5C6C701
:10043000C9CACBCCCDCED0D1D2D2D3D4D5D6D7D7B2
:10044000D8D9D9DADADBDBDBDCDCDCDCDCDDDDDDFA
:10045000DDDCDCDCDCDCDBDBDBDADAD9D9D8D7D7F6
:10046000D6D5D4D3D2D2D1D0CECDCCCBCAC9C7C6A3
:10047000C5C3C2C1BFBEBCBBB9B8B6B4B3B1AFAEE1
:10048000ACAAA8A7A5A3A19F9E9C9A989694929087
:100490008E8C8A89878583817F7D7B79777573715F
:1004A0006F6D6B6968666462605E5C5A595755533C
:1004B00051504E4C4A4947454342403E3D3B3A38F5
:1004C00036353332302F2D2C2A2928262523220099
:1004D000AF00AE29001E001F002000E1001D001B20
:1004E0000006002100220023002B0019000500E077
:1004F00000025114001A0008001500E2002C000050
:100500000000001700E000040016000000000000DA
:10051000000000070009000A0000000000000000C1
:1005200000000024002500260027000E000F0033E5
:100530000034002D002E003100350028001100107D
:100540000036004C001C0018000C0037003800E595
:10055000005200120013002F00300001512C00E661
:1005600000E7002A000B000D000000500051004F72
:1005700000000001003A003B003C000100010001C6
:100580000001003D003E003F003900010001000174
:100590000001000100C25CC55CC75C0100010000F5
:1005A000000000C95C01000100C35C000000000005
:1005B000000000C65CC85CCA5C00000000000000CF
:1005C00000000040004100420043004A004B005040
:1005D000004F004400450049004C000100010001AB
:1005E000004D0001000100010046004E00510001D5
:1005F0000001004700480052000100010001000115
:1006000000010001000100010000000100010001E3
:1006100000000001000100010001000100010001D3
:1006200000010001000100010001000100010001C2
:1006300000010001000100010001000100010000B3
:1006400000000001000100010001000000000000A6
:100650000000000100010001000000000000000097
:100660000000000100010001000100B35DB55DB9AB
:100670005D0480010001000100010001000780B25B
:100680005DB45D0100010001000100B65DBA5D05C9
:1006900080010001000100010001000100010001D2
:1006A00000010001000680B15D00000100010001B1
:1006B0000000000100010001000100010001000133
:1006C0000001000100010001000100010001000122
:1006D0000001000100010001000100010001000013
:1006E0000000000100010001000380000000000084
:1006F0000000000080018003800000000000000076
:1007000000000001000100010001000180038001E0
:1007100000010001000100010001000100010001D1
:1007200000010001000100010001000100010001C1
:1007300000010001000100010001000100010001B1
:1007400000010001000380008000000100010001A1
:1007500000000009025B00030100A0FA0904000088
:1007600001030101000921110100012240000705D8
:1007700081030800010904010002030000000921AF
:100780001101000122220007058203200001070554
:1007900003032000010904020001030000000921F5
:1007A0001101000122490007058403200001120104
:1007B000000200000008383937360100010200014C
:1007C0000E03520065006500780036003700000017
:1007D00012036B0075007300680069006D00610012
:1007E00038000000040309040000000000003E5B24
:1007F0004F5B3E003E6B4F6B3E001C3E7C3E1C0040
:10080000183C7E3C18001C577D571C001C5E7F5E08
:100810001C0000183C180000FFE7C3E7FF000018A9
:1008200024180000FFE7DBE7FF0030483A060E001F
:10083000262979292600407F05050700407F0525E8
:100840003F005A3CE73C5A007F3E1C1C0800081C35
:100850001C3E7F0014227F2214005F5F005F5F0058
:1008600006097F017F00006689956A00606060600C
:10087000600094A2FFA2940008047E0408001020E7
:100880007E20100008082A1C0800081C2A080800FE
:100890001E10101010000C1E0C1E0C0030383E38BC
:1008A0003000060E3E0E06000000000000000000B2
:1008B0005F000000000700070000147F147F140091
:1008C000242A7F2A12002313086462003649562026
:1008D0005000000807030000001C224100000041F6
:1008E000221C00002A1C7F1C2A0008083E08080061
:1008F00000807030000008080808080000006060F0
:1009000000002010080402003E5149453E0000420C
:100910007F4000007249494946002141494D33005A
:100920001814127F10002745454539003C4A4949B3
:10093000310041211109070036494949360046492D
:1009400049291E000000140000000040340000008F
:10095000000814224100141414141400004122143D
:1009600008000201590906003E415D594E007C1203
:1009700011127C007F49494936003E414141220025
:100980007F4141413E007F49494941007F090909B2
:1009900001003E41415173007F0808087F0000417B
:1009A0007F4100002040413F01007F0814224100A8
:1009B0007F40404040007F021C027F007F040810FF
:1009C0007F003E4141413E007F09090906003E414A
:1009D00051215E007F091929460026494949320004
:1009E00003017F0103003F4040403F001F204020A3
:1009F0001F003F4038403F006314081463000304A5
:100A0000780403006159494D4300007F4141410092
:100A1000020408102000004141417F00040201024D
:100A200004004040404040000003070800002054FC
:100A3000547840007F284444380038444444280017
:100A4000384444287F0038545454180000087E0964
:100A500002001824241C78007F0804047800004455
:100A60007D4000002040403D00007F1028440000F1
:100A700000417F4000007C04780478007C08040476
:100A800078003844444438007C1824241800182482
:100A900024187C007C0804040800485454542400A2
:100AA00004043F4424003C4040207C001C204020A3
:100AB0001C003C4030403C004428102844004C902E
:100AC00090907C004464544C44000008364100007F
:100AD0000000770000000041360800000201020417
:100AE00002003C2623263C00000000000000F8FC29
:100AF000FCFC3C3CFCFCFCF80080C0F0F8FC7E00F8
:100B0000000000000000000000000000000000FCE9
:100B1000FCFCFC000000000000000000FCFCFCFCF1
:100B200000000000000000000000000000000000C5
:100B300000FCFCFCFC000000000000000000FCFCCD
:100B4000FCFC0000000000000000000000000000AD
:100B50000000007EFCF8F0E0C080000080C0E0F003
:100B6000F8FC7E000000E0F0F0F0E0ECEEF7F3704F
:100B700020007C7C7C7E007E7E7E7F7F7F000080EC
:100B8000C0E07E5B4F5BFEC00000C000DCD7DEDE55
:100B9000DED7DC00C0000000000000000000000004
:100BA0000000000000000000000000000000FFFF47
:100BB000FFFF0000FFFFFFFF7F1F0F070100000086
:100BC000000000000000000000000000000000FF26
:100BD000FFFFFF000000808080800000FFFFFFFF1C
:100BE0000000000000000000000000000000000005
:100BF00000FFFFFFFF000080808080000000FFFFFB
:100C0000FFFF0000000000000000000000000000E6
:100C1000000000000081C3E7FFFFFFFFFFFFE7C305
:100C20008100000000000F1F3F7F7F7F7F7F3F1EFE
:100C30000C001F1F1F3F003F3F3F7F7F7F00307B27
:100C40007F7830202030787F3B0003000F7F0F0F2C
:100C50000F7F0F00030000000000000000000000F4
:100C60000000000000000000000000000000FFFF86
:100C7000FFFF000001010100000000000000000073
:100C80000000000000000000000000000000003F25
:100C90003F3F3F0000003F3F3F3F00003F3F3F3F9F
:100CA0000000000000000000000000000000000044
:100CB000003F3F3F3F00003F3F3F3F0000003F3FBE
:100CC0003F3F0000000000000000000000000000A6
:100CD0000000007E3F1F0F07030100000103070F04
:100CE0001F3F7E0000000000000000000000000028
:100CF00000000000000000000000000000000000F4
:100D000000000000000000000000000000000000E3
:100D100000000000000000000000000000000000D3
:100D2000000000000000000011241FBECFEFDAE039
:100D3000DEBFCDBF11E0A0E0B1E0E8E7F9E602C018
:100D400005900D92A83AB107D9F726E0A8EAB1E0DC
:100D500001C01D92A235B207E1F70E94CD280C9484
:100D60007F340C940000E8EDF0E080818E7F80837A
:100D70001092E2001092DA001092E100A0EEB0E0D2
:100D80008C9181608C9380818F77808319BCA7EDD3
:100D9000B0E08C918E7F8C9380818F7E80831092C7
:100DA0001C0408952091E4003091E50095E6A90126
:100DB0002091EC00822F817020FF06C08091E80016
:100DC00080FF06C080E008952091E80022FD1AC04F
:100DD00080912A04882389F0853089F08091EB0086
:100DE00085FD0FC02091E4003091E50042175307C4
:100DF000F9F29150E1F684E0089582E0089583E0ED
:100E0000089581E00895EF92FF920F931F93CF937F
:100E10007C018B010E94D206C82F811117C08091DE
:100E2000E80085FD0BC08091E8008E778093E80094
:100E30000E94D206882399F3C82F08C0F701819138
:100E40007F018093F1000150110949F78C2FCF9158
:100E50001F910F91FF90EF90089580912C0487FFD0
:100E600013C08091E80082FF06C08091E8008B7774
:100E70008093E80004C080912A048111F2CF089584
:100E800080912A048823D9F38091E80080FFF8CF6D
:100E90008091E8008E77ECCF982F9093E900242F73
:100EA000762F50E0891731F07091EC002091ED0021
:100EB0005091F00021FD07C09F5F973071F780933C
:100EC000E90081E008953091EB003E7F3093EB0024
:100ED0003091ED003D7F3093ED003091EB003160BB
:100EE0003093EB007093EC002093ED005093F000F2
:100EF0002091EE0027FDE0CF80E00895B0E0A0E073
:100F0000E4E8F7E00C94A333C8EDD0E088818F7E4D
:100F10008883E7EDF0E080818160808384E082BF98
:100F200081E080931C0488818E7F888302EE10E02C
:100F3000F80110821092DA0081EEC82ED12CF60151
:100F4000108288818F7788838881806888838881F0
:100F50008F7D888319BC10922A0410922B04109262
:100F600029041092280490EEE92EF12CF7018081DB
:100F70008B7F808388818160888342E060E080E0AD
:100F80000E944C07F60180818E7F8083F80180816A
:100F900081608083808188608083F70180818E7F7B
:100FA0008083888180618883CDB7DEB7E8E00C94C8
:100FB000BF33FC0180913204909133048617970768
:100FC000A0F06115710529F49091E8009E77909347
:100FD000E80090E06115710551F4911108C080910D
:100FE000E80082FF34C080E00895BC01F2CF809118
:100FF0002A048823C1F18530C1F18091E80083FD86
:1010000030C08091E80082FDEACF8091E80080FF47
:10101000E1CF8091F3002091F200382F6115710526
:1010200019F02830310558F091E02830310509F0E9
:1010300090E02091E8002E772093E800CBCF8191BB
:101040008093F100615071092F5F3F4FE7CF80918E
:101050002A04882341F0853041F08091E80083FF25
:10106000BECF81E0089582E0089583E00895089559
:101070000895089580911F04089587E797E7909356
:1010800001088093000888E19AE00FB6F894A895CB
:10109000809360000FBE90936000FFCF2FB7F8944D
:1010A000609118047091190480911A0490911B04A6
:1010B0002FBF08959C01FC0132969FEF80E0419183
:1010C000461751F09F3F19F4411101C0982F8F5FCF
:1010D0008630A9F79F3F09F40895290F311D97FD28
:1010E0003A95F90162830895FC01680F791F8FEF2B
:1010F00091E32191822728E030E087FF09C0880F23
:10110000892721503109C9F7E617F70791F70895A4
:10111000880FF7CFFA01811101C0FB0109950895ED
:101120000895EBE0F4E01182828184608283089567
:1011300080913404982F9E7F61F481708260809347
:10114000340480913704853618F084E680933704A0
:1011500008958E30B0F381708C60F1CFAF92BF9262
:10116000DF92EF92FF920F931F93CF93DF93082F9D
:10117000162FE901E42FF0E0E153FD4F611110C09B
:10118000E4915E2F4E2F4983E8835A83DF91CF91FC
:101190001F910F91FF90EF90DF90BF90AF90089557
:1011A000E62EF12C4491D42EE42FF0E026E0829F2D
:1011B000C00111242FEF30E0B9010E948533802F48
:1011C00090E0880F991F55E5569FD001579FB00DAD
:1011D00011248A1B9B0B982F990F890F5901AE1868
:1011E000BF08AE9ED001AF9EB00DBE9EB00D1124C3
:1011F0005B2F189F80011124012F11275901A01A7C
:10120000B10AAE9E8001AF9E100DBE9E100D11243E
:101210005901A81AB108AE9CC001AF9C900DBE9CAC
:10122000900D1124892F9927281B390B2E9FC0015F
:101230002F9F900D3E9F900D1124E92F6230710574
:10124000A1F050F46115710509F49DCF613071056D
:1012500081F0EB2F512F97CF6430710569F080F04A
:101260006630710509F48FCFF4CFE42F4B2F592F3F
:101270008ACFE42F412F87CFEB2F542F492F83CFD5
:101280004B2F5D2DE12F7FCFCF93DF93E7EEF2E081
:1012900083819481A581B681E90188839983AA839A
:1012A000BB831482138216821582DF91CF91089539
:1012B00080E0089563E070E080E492E00E947408AA
:1012C00090913F02891318C0E0914002EB30A4F4E2
:1012D00088E0E802F0011124E65FFE4F0680F78106
:1012E000E02D309749F023E632E04091420263E47A
:1012F00072E08091410209950895EAE0F1E0ADE2E3
:10130000B2E054968C91549780A755968C9183AFF8
:10131000089590919A0292FF06C0282F28712830D4
:10132000F9F4877F846093FF06C0282F2871283145
:10133000F1F4877E846120919B0220FF06C0382F44
:1013400038713830D9F4877F816021FF06C0282F9B
:1013500028712831D1F4877E816194FD877E0895BC
:10136000282F24712430F9F68B7F8860DCCF282F5A
:101370002471243101F78B7E8861DDCF382F3171E4
:10138000313019F78E7F8860E0CF282F217121310D
:1013900021F78E7E8861E1CFCF93DF93EC01823815
:1013A000910589F1E0F58133910509F499C028F59B
:1013B0008932910509F489C08A9709F498C0C1154A
:1013C00023E5D20708F0B3C0C11532E5D30708F012
:1013D0000FC1C11540E2D40708F097C0C11581E0E4
:1013E000D80758F5C53AD10508F088C0C430D105F2
:1013F00020F5C130D10509F145C08533910509F4C7
:101400005FC0C997E1F680919A02837009F025C107
:1014100080919B0283FF11C0C9E2D0E00EC0833EE1
:10142000910599F170F4803E910501F1823E91059C
:1014300031F680919A0282FD21C0CE01DF91CF91D9
:101440000895863E910561F1873E910571F1843ED4
:10145000910509F0B4CF80919B0281FFEECF80917E
:101460009A02C7EED0E084FD0DC0E7CF80919A02CA
:1014700080FD33C090919B0290FFDFCFC3EED0E0A0
:1014800084FFDBCFD0E0C0E0D8CF80919A0282FD0C
:10149000E1C090919B0290FDE0C084FFCECFF2CFDF
:1014A00080919A0283FDDDCFC8CF80919A0283FD9F
:1014B000D7C090919B0291FFF0CFC4EED0E0BDCF9A
:1014C00080919A0285FFB9CFA7CF80919A0285FDBE
:1014D000CAC080919B0283FFB0CFC9E3D0E0ADCFFB
:1014E00080919A0286FFA9CFCAE2D0E0A6CF809170
:1014F0009A0286FFA2CFC1E3D0E09FCFCE01815EEA
:101500009109079708F499CFBDCFC11521E5D207FE
:1015100008F069C0C11530E5D30708F050C0C11507
:1015200040E4D40708F4AECFDF70D06A86CFC1158F
:1015300086E5D807F0F4C11525E5D20708F071C09B
:10154000C11534E5D30708F067C0CE018370992731
:1015500021E030E002C0220F331F8A95E2F7C695E2
:10156000C69540E2C49FE0011124C22BD32BDA6858
:1015700064CFC1154AE5D40778F4C11589E5D807C9
:1015800008F05AC0C11528E5D20708F47BCFDC2F3C
:10159000CC27C06FD06A51CFCE01905681159042B2
:1015A00008F070CF8D2F8F710E94890990E0982FDD
:1015B000882788279F719C012C2BE9013BC0CE0115
:1015C0008370992721E030E002C0220F331F8A95F3
:1015D000E2F7C695C69540E2C49FE0011124C22BF4
:1015E000D32BDD682ACFDC2FCC27C16FD06A25CF63
:1015F000CE018370992721E030E002C0220F331F13
:101600008A95E2F7C695C69580E2C89FE00111244D
:10161000C22BD32BDC6811CFDC2FCC27C46FD06A50
:101620000CCF8C2F0E948909C82FD0E0DC2FCC274B
:10163000CC27DF71D06201CF8C2F8F700E94890977
:1016400034E0D695C7953A95E1F7CF709C2FEC0121
:10165000D069F3CEC2EED0E0F0CEC0EED0E0EDCE59
:10166000C6EED0E0EACEC5E3D0E0E7CE80912A0214
:10167000811110922A020895809590911D0498235B
:1016800090931D04089580911F029091EE0198138C
:1016900001C008958F5F8770FACF9A3080F5883047
:1016A00070F548E0949F90011124820F932F911DB3
:1016B000682F677023E0969587952A95E1F7FC01DE
:1016C000EE0FFF1FE80FF91FE653FE4F50E040E01A
:1016D00080E0219130E0062E02C0369527950A94CD
:1016E000E2F721703327042E01C0220F0A94EAF793
:1016F000822B4F5F5F4F4330510559F7089580E0CB
:1017000008959A3098F5883088F548E0949F9001C4
:101710001124820F932F911D282F277041E001C0C3
:10172000440F2A95EAF723E0969587952A95E1F7E5
:10173000FC01EE0FFF1FE80FF91FE653FE4F90E08C
:1017400080E070E05191DF0111979B01082E02C0EB
:10175000369527950A94E2F72170219525272423B1
:1017600025272C9301968330910561F70895B0E009
:10177000A0E0EDEBFBE00C94A333FC01EB019091B6
:10178000F902911101C094E04081518191509A0178
:10179000092E02C0359527950A94E2F7B901092E62
:1017A00002C0660F771F0A94E2F7461B570B51835E
:1017B0004083428153818A01092E02C01595079505
:1017C0000A94E2F7B80102C0660F771F9A95E2F714
:1017D000461B570B5383428321387FEF37077CF03A
:1017E0002038310574F421952D8301388FEF1807C7
:1017F00054F0802F003811053CF08FE705C021E838
:10180000F2CF2FE7F0CF81E881958C830E944E08BC
:101810002D81211103C02C812223B9F06093FA029B
:101820007093FB028093FC029093FD028091FE0274
:101830009BE0980F973120F4080F0093FE021D8261
:10184000CDB7DEB7E8E00C94BF33C090FA02D09079
:10185000FB02E090FC02F090FD026C197D098E09FC
:101860009F09643671058105910500F31092FE020F
:10187000DDCFCF93C82F8091F4028C1751F00E94D6
:101880004E086093F5027093F6028093F7029093EE
:10189000F802C093F402CF9108958091E702F90114
:1018A00080830895382F20E287FF02C031952DE212
:1018B0004AE0832F642F0E94DC33905D9093BF0138
:1018C00081110BC02093BE0120E22093BD0120E2D4
:1018D0002093BC018CEB91E00895642F0E94DC33CF
:1018E000905D9093BE01832F64E60E94DC338823D1
:1018F00061F3805D8093BD01EBCF9C01860F971F44
:1019000037FD07C077FD04C097FF02C08FEF9FE748
:10191000089577FFFDCF97FDFBCF80E090E8089515
:10192000E82FE295EF70F0E031A1282F2F7081E0D1
:1019300090E001C0880F2A95EAF7382B31A392A1D5
:101940008095892382A30895E82FE295EF70F0E057
:1019500031A1282F2F7081E090E001C0880F2A95D7
:10196000EAF7982F9095932391A392A1892B82A3B4
:101970000895B0E0A0E0EFEBFCE00C94A3337C0111
:101980006B018091450601E010E08A3010F40AE016
:1019900010E0C1E0D0E06BE476E0C701F601099504
:1019A000811104C021960C171D072CF4CDB7DEB7AA
:1019B000E8E00C94BF33CC9F9001CD9F300D300DEB
:1019C000112490E080E045E34A95F1F7000001968C
:1019D00082179307C1F7DFCF9C0184E08093E90071
:1019E0009FEF8091E800915085FD06C085ED8A95B6
:1019F000F1F700009111F5CF8091E80085FF0CC050
:101A000050E040E066E070E0C9010E940307809169
:101A1000E8008E778093E8000895CF93DF93EC0180
:101A200081E08093E9008FEF9091E800815095FD6F
:101A300006C095ED9A95F1F700008111F5CF8091E0
:101A4000E80085FF14C050E040E068E070E0CE019F
:101A50000E9403078091E8008E778093E80088E079
:101A6000FE01A0E2B4E001900D928A95E1F7DF91CA
:101A7000CF910895609176018091340480FF20C059
:101A80008091750143E0849FC00111248C5D9C4FBF
:101A9000539A2BB1277F3BB138605FB7F894FC01B4
:101AA000649FE00DF11D1124BF0168177907D1F47F
:101AB0005FBF8FE594E00197F1F700C00000089543
:101AC000809177019091780123E0829FF0011124A9
:101AD000EC5DFC4F8917A0F61182108212828F5F95
:101AE0003396F8CFFC014191CF01E8E03BB900000B
:101AF00000C047FF2BB9440F000000C000C000C069
:101B00002BB900C0EA9591F7D0CF9091340490FFA3
:101B10000EC0909177012091780133E0939FF001FE
:101B20001124EC5DFC4F921718F00E943A0D0895B5
:101B30008183608342839F5F3396F5CFA3E0B0E05B
:101B4000E4EAFDE00C94A7338C0180910E0481112E
:101B50000AC09E012F5F3F4F44E66FEF0E94AE0820
:101B60008A8180930E04F8016481613069F080916C
:101B70000E0440E0662361F040E0623011F44091D1
:101B80000E0480E060E004C060910E0440E080E05C
:101B90000E94850DF801848190E0019663E070E079
:101BA0000E94EA3384832396E4E00C94C333A3E0D9
:101BB000B0E0EDEDFDE00C94A7338C01DC01149650
:101BC000EC91F0E0E153FC4F44918091340480FFAC
:101BD00011C0453608F044E69E012F5F3F4F6091EB
:101BE0003604809135040E94AE084B8169818A8158
:101BF0000E94850DF80184818F5F84832396E4E041
:101C00000C94C33380912C02811119C082E390E0BF
:101C10002091E30027FD10C0EFE3FCE93197F1F7D5
:101C200000C000000197A1F782E080932C020E947F
:101C3000B30610922A0403C081E080932C0281E055
:101C400090912C02913011F080E0089508950E9447
:101C5000020E882359F0E0911504F0911604309794
:101C600029F00190F081E02D0995089580E0089514
:101C70000F931F930E94020E882329F00E944E08A2
:101C80001F910F9108950E944E08009194021091A7
:101C900095022091960230919702600F711F821F6A
:101CA000931FEECF26982E9A249A2C9885E08A9539
:101CB000F1F7000083B124982C9A90EA9A95F1F7F5
:101CC00090E026E0959587952A95E1F78095909587
:101CD00081700895CF93DF93682F81E06A3019F007
:101CE0006D3031F480E00E94F80EDF91CF910895BD
:101CF000809143069091440626E0FC01ADE3B6E0F6
:101D000001900D922A95E1F7603E08F458C026E054
:101D1000FC0111922A95E9F7C0914306D09144063F
:101D200046E050E0BE018DE396E00E9421349E0122
:101D30002D533440892B41F1C90145E09695879593
:101D40004A95E1F741E050E0BA0102C0660F771F03
:101D50008A95E2F7CB0160913B0470913C04862B9D
:101D6000972BB9016B5F7F4FE5E076956795EA9514
:101D7000E1F702C0440F551F6A95E2F7842B952BBB
:101D800090933C0480933B042A5F3F4F40913A0478
:101D9000642F70E0C9010E948533481B463010F45F
:101DA000240F311D211572E0370710F030E020E0DC
:101DB000235C3B4F309344062093430696CFF6E0D6
:101DC0006F9FB00111246851784F46E050E00E94A7
:101DD0000B34A2CFCF93DF93EC01FE0184918111EC
:101DE00003C0DF91CF9108950E946A0E2196F5CF2E
:101DF000CF93382FE0914306F0914406ED53F44021
:101E000020913A04622F70E0CF010E948533281B95
:101E1000822F332361F066E00E94D033C82FC15077
:101E200010F4CF91089580E20E946A0EF8CF9F01CE
:101E3000280F311D2115324018F080E0F0E0E0E07D
:101E40008E0F9F2F911D835C9B4F90934406809330
:101E50004306E7CF46E050E069E073E08EE193E0AF
:101E60000E942134892B79F0E0911504F091160439
:101E7000309749F082E080931E030480F581E02DC5
:101E80008EE193E0099510922003109221031092A5
:101E900022031092230386E0EEE1F3E0A9E0B3E031
:101EA00001900D928A95E1F7089580911D0490911B
:101EB0002902892B8093AA0190912A02992391F0FB
:101EC000892B8093AA0120E08CEA91E0FC013191FA
:101ED000CF0131112F5FF1E0823B9F07B9F721114C
:101EE0000E94360B48E050E061E272E08AEA91E03D
:101EF0000E942134892BA9F088E0EAEAF1E0A1E20E
:101F0000B2E001900D928A95E1F7E0911504F0910D
:101F10001604309731F00280F381E02D8AEA91E0D7
:101F200009950895ECEAF1E086E0DF011D928A95BB
:101F3000E9F7109229020E94550F0895AAE2B0E035
:101F4000E4EAFFE00C94A8338CE294E02091F100E5
:101F5000DC012D93CD01B4E084339B07B9F7809168
:101F60002D04833009F472C0B8F4813009F449C0FB
:101F7000823009F4B5C08091E80083FF8DC2809162
:101F80002C0490912D049A3008F086C2E92FF0E0DD
:101F9000EF57FB4C0C94FE338A3009F490C08B3021
:101FA00009F471C0893039F780912C04813219F716
:101FB0008091300490913104009711F00297D9F686
:101FC0008091E800877F8093E8008091E80082FF9D
:101FD00038C09091F3008091F200029731F4809123
:101FE000F100813011F0863021F48091F10080936E
:101FF0001F048091E8008B778093E8000E942D07F2
:10200000BACF80912C04813A09F0B5CF8091E800D5
:10201000877F8093E8008091300490913104892B70
:1020200061F468E080E294E070E00E94D90780915A
:10203000E8008B778093E8009ECF60E090E080E03E
:10204000F3CF80912A048111C0CF95CF80912C04C9
:10205000813A09F090CF8091300490913104892B1E
:1020600009F089CF8091E800877F8093E800809114
:10207000E80080FFFCCF80917B018093F10080918C
:10208000E8008E77B9CF80912C04813209F073CFAC
:102090008091300490913104892B09F06CCF8091AC
:1020A000E800877F8093E8000E942D0780912E042E
:1020B00080937B0110921D040E94920F5CCF80914F
:1020C0002C04813209F057CF8091E800877F8093FC
:1020D000E8000E942D0780912F0480931E044BCFAF
:1020E00080912C04813A09F046CF8091E800877FE7
:1020F0008093E8008091E80080FFFCCF80911E046F
:10210000BCCF803899F0823809F0C6C18091300484
:102110008F70873008F0C0C18093E9008091EB0098
:1021200085FB882780F91092E90006C08091280479
:1021300090912904911182609091E800977F90938B
:10214000E8008093F1001092F1008091E8008E7712
:102150009FC1882309F48DC1823009F09DC180910F
:102160002E04811190C1809130048F702FEF280FC1
:10217000263008F091C18093E9002091EB0020FF08
:1021800082C1933031F48091EB0080628093EB0048
:102190007AC19091EB0090619093EB0021E030E0E8
:1021A00001C0220F8A95EAF72093EA001092EA0014
:1021B0008091EB008860EACF81116EC110912E04EE
:1021C0001F778091E3008078812B8093E3008091DA
:1021D000E800877F8093E8000E942D078091E80047
:1021E00080FFFCCF8091E30080688093E30082E071
:1021F000111183E080932A044FC18058823008F087
:102200004BC120912E0430912F042C3DE3E03E077A
:10221000A1F583E08A838AE289834FB7F894DE01CF
:10222000139620E03EE051E2E32FF0E05093570098
:10223000E49120FF03C0E295EF703F5FEF708E2FB7
:1022400090E0EA30C0F0C7968D939D932F5F2431C4
:1022500059F74FBF8091E800877F8093E8006AE2DA
:1022600070E0CE0101960E94D9078091E8008B773B
:102270008093E80011C1C096E7CF8091300490911F
:102280003104432F55274330510509F44AC078F5EE
:102290004130510509F47AC08BE590E0E3E5F7E0C1
:1022A0004230510509F0F8C02091E800277F2093C3
:1022B000E80020913204309133048217930708F428
:1022C0009C0140E02115310509F065C0411163C052
:1022D0008091E80082FDC9CF80912A04882329F2E9
:1022E000853019F28091E80083FFF2CFBECF4132F2
:1022F000510509F43CC04232510509F0CDC083308C
:10230000910508F0C9C0FC01EE0FFF1FE556FE4F16
:102310000190F081E02D88569E4FDC018C9190E079
:102320001AC0332721303105D1F02115310561F074
:102330002230310509F0B0C0E0ECF7E0E4918E2FD7
:1023400090E0E0ECF7E007C0E4EEF7E0E4918E2FD8
:1023500090E0E4EEF7E0009709F49EC0A5CFE0ED31
:10236000F7E0E4918E2F90E0E0EDF7E0F4CF8330DA
:10237000910508F091C0880F991FFC01EF55FE4FA1
:102380000190F081E02D89E090E08ECF82E190E035
:10239000EEEAF7E089CF80912A04882309F465CF1B
:1023A000853009F462CF8091E80083FD5ECF809193
:1023B000E80082FD8DCF8091E80080FF83CF90916F
:1023C000F3008091F2002115310519F08830910554
:1023D00050F041E0089709F040E08091E8008E77E6
:1023E0008093E8006FCF44914093F10031962150E3
:1023F00031090196E8CF803809F04EC08091E8009D
:10240000877F8093E80080912B048093F1009DCE1C
:10241000811142C010912E041230F0F58091E80035
:10242000877F8093E80010932B040E942D071123CF
:1024300011F084E005C08091E30087FDFACF81E0D0
:1024400080932A0442E061EC81E00E944C0742E262
:1024500061EC84E00E944C0742E261EC82E00E9461
:102460004C0742E260EC83E00E944C0780912A0412
:1024700013C080912E04813079F481E0933009F00B
:1024800080E0809329041092E9008091E800877F22
:102490008093E8000E942D078091E80083FF0AC026
:1024A0008091E800877F8093E8008091EB00806254
:1024B0008093EB00AA96E3E00C94C43310921D04C1
:1024C0000E94920F2FEF84E39CE0215080409040C7
:1024D000E1F700C0000088E19AE00FB6F894A895F3
:1024E000809360000FBE90936000FFCF809339040B
:1024F000109229020E94550F089580913904982F57
:102500009670963021F488600E9476120895877F35
:10251000FBCF21E030E001C0220F8A95EAF7209539
:102520008091390482230E947612089590912002AE
:102530008095892380932002282F277091F4282FDB
:10254000082E000C330B9217130659F090919B0242
:1025500092FF07C08595859585950E9489121092F6
:102560002002089521E030E001C0220F8A95EAF7A9
:1025700080913904822B0E947612089580932B0259
:10258000109229020E94550F0895882321F00E947D
:102590003C0B0E94550F0895882339F090911D043B
:1025A000982B90931D040E94550F08958823E1F104
:1025B0009CEF980F913A80F4ECEAF1E022EB31E0E5
:1025C0009191891303C0DF0111971C922E173F07C9
:1025D000B9F70E94550F089590E2980F983050F483
:1025E000877091E001C0990F8A95EAF7892F0E94C0
:1025F0003C0BEFCF9BE5980F9330B8F48091C60168
:102600009091C701892B81F01092C7011092C601E9
:10261000E0911504F0911604309731F00680F781AF
:10262000E02D90E080E009950895885A8731E0F721
:102630008091C8019091C901892BB1F31092C90111
:102640001092C801E0911504F0911604309761F3DF
:102650000084F185E02DE5CFCF93C82F8823A9F022
:102660008CEF8C0F813A00F5ECEAF1E0DF018D91FF
:10267000C81769F081E0A23BB807C9F76C2F8AEA56
:1026800091E00E945A080E94550FCF9108958191C0
:10269000C81303C0DF0111971C9281E0E23BF807E9
:1026A000B1F70E94550FEACF80E28C0F883068F7AF
:1026B000C77021E030E001C0220FCA95EAF780918F
:1026C0001D04822B80931D04DECF1F93CF93DF93D5
:1026D000182FEB010E942C138FE99FE00197F1F76F
:1026E00000C000002197C1F7812F0E94D612DF9110
:1026F000CF911F9108950F931F93CF93DF93EC0118
:10270000FC0101900020E9F78F0101501109C01769
:10271000D10728F0DF91CF911F910F9108958991F2
:102720000E946A0EF4CFB0E0A0E0E9E9F3E10C9476
:10273000A3336C017B0164E670E088E70E94E3301C
:10274000EC0197FD12C010E000E0F601E00FF11F70
:10275000849164E670E00E944F31EC01892B29F4EA
:102760000F5F1F4F0E151F0581F70E94C531CE0167
:10277000CDB7DEB7E8E00C94BF338091130490919D
:102780001404911103C091E089270895882369F00A
:1027900062E070E081ED94E00E949313892B19F0C0
:1027A0008091130408951092130480911304EBCFC9
:1027B000CF93C0911304809114048823D1F00E9418
:1027C0004E08605A75418F4F9F4F60930F0470936E
:1027D00010048093110490931204C11108C062E0A8
:1027E00070E08FEC94E00E949313892B29F0C09144
:1027F00013048C2FCF91089581E080931304F7CFB9
:10280000CF93DF93C7EBD2E060E0CE010E944B3460
:102810002196C11584E0D807B9F7DF91CF910895CB
:102820001F93CF93DF93122F8430E0F46A30D0F4FB
:102830004830C0F490E1699FE001112450E0440F5A
:10284000551FC40FD51F90EA899FC00DD11D1124BB
:10285000632FCE01C7960E944B34612FCE01C896DC
:102860000E944B34DF91CF911F910895AF92BF9298
:10287000CF92DF92EF92FF921F93CF93DF9383ED7E
:10288000C82E84E0D82ED0E07601C0E014C0F50157
:1028900025913491412F6C2F8D2F0E94101482E0CE
:1028A000A80EB11C1F5F183091F780E1E80EF11CF3
:1028B000CF5FCA3019F0570110E0E9CFDF5F80EA3F
:1028C000C80ED11CD43001F7DF91CF911F91FF903A
:1028D000EF90DF90CF90BF90AF90089586E390E0A7
:1028E0000E944B340895CF93C82F6FEF811163E29C
:1028F00083E390E00E944B346FEFC11161E084E309
:1029000090E00E944B346FEFC11166E185E390E0E7
:102910000E944B34CF91089580E00E94731460E0D0
:1029200070E0CB010E946E140E9436140E940014C5
:1029300081E00E9473140895CF93C0919B02C2FB63
:10294000992790F9981791F080FBC2F9C0939B02E8
:1029500060919A0284E090E00E944B346C2F82E2F6
:1029600090E00E944B3482E00E949612CF9108952D
:102970000F931F93CF93DF93843030F56A3020F5A7
:10298000483010F520E1629F8001112450E0440F8F
:10299000551F040F151F30EA839F000D111D1124D0
:1029A000C801C7960E943734C82FD0E0DC2FCC274F
:1029B000C801C8960E9437349E01282BC901DF91B7
:1029C000CF911F910F91089590E080E0F8CF462FAE
:1029D000843040F47A3030F4683020F4672F0E945D
:1029E000B814089590E080E00895CF92DF92FF92AE
:1029F0000F931F93CF93DF936C0100913904809163
:102A00002B02082BC7E0D0E010E0FC2EC8010C2EF2
:102A100002C0959587950A94E2F780FD0CC0219736
:102A2000A0F7F12C8F2DDF91CF911F910F91FF9087
:102A3000DF90CF900895B6018C2F0E94E7140E947A
:102A4000CC09019761F3EECFCF93DF93EC010E94A5
:102A5000F514BE010E94E7140E94CC09DF91CF91CA
:102A60000895FC0183819481892B29F080819181D3
:102A700089238F3F51F480E00895843FE1F717C028
:102A8000883EA8F0813FB9F712C0808191810E94F1
:102A9000241592959F70963099F358F4925F9F7029
:102AA000923048F7803F19F040F7883E20F781E0E8
:102AB00008959A5FF4CF86E390E00E943734682F40
:102AC00070E090E080E0089583E390E00E94373466
:102AD000833289F484E390E00E943734813059F4E2
:102AE00085E390E00E94373491E0863109F090E070
:102AF000892F8170089580E0FCCFCF92DF92EF9212
:102B0000FF926B017C010E949808B701A60188E042
:102B100090E00E945D34FF90EF90DF90CF90089599
:102B2000A3E0B0E0E6E9F5E10C94A533F82E062F1A
:102B3000142FE22E8091340480FF3DC0E82FE695EB
:102B4000F0E0EF56FE4F908190930B048E7F823021
:102B5000B1F5453608F044E69E012F5F3F4F602FE8
:102B60008F2D0E94AE084B8169818A810E94850D5C
:102B7000809135048F1108C080913604801304C001
:102B800080913704811729F080910D048260809331
:102B90000D04F09235040093360410933704EE20B0
:102BA00051F0609134047091350480913604909115
:102BB00037040E947D152396E6E00C94C1339230D1
:102BC000B9F610913704D4CFE4E3F4E043812AE06E
:102BD000421B08F440E021E0628181810E9490154F
:102BE0000895E4E3F4E043812AE0420F08F44FEF54
:102BF00021E0628181810E9490150895E4E3F4E070
:102C0000628121E1621B08F460E021E0438181815F
:102C10000E9490150895E4E3F4E0628121E1620FDF
:102C200008F46FEF21E0438181810E94901508959F
:102C3000E4E3F4E0818121E04381628181510E94DB
:102C400090150895E4E3F4E0818121E043816281FD
:102C50008F5E0E949015089580913804882319F0A2
:102C600081508093380460913404709135048091D0
:102C70003604909137040E947D15089580913804A0
:102C8000833018F48F5F809338046091340470911E
:102C9000350480913604909137040E947D15089583
:102CA000E4E3F4E083E0808311828FEF828384E6A3
:102CB00083831482ABE0B4E012968C911297836008
:102CC00012968C9360817181828193810E947D151F
:102CD000089568EE7EEF90E080E00E94693460E045
:102CE00082E090E00E944B3460E083E090E00E943C
:102CF0004B3410922B0260E084E090E00E944B3451
:102D000064E082E290E00E944B3460E085E090E075
:102D10000E944B3460E086E090E00E944B346FEFFD
:102D200087E090E00E944B3440E050E0BA0188E038
:102D300090E00E945D3460E08DE090E00E944B34B2
:102D400040E050E0BA0188E190E00E945D3460E02C
:102D500087E190E00E944B3440E050E0BA018CE102
:102D600090E00E945D3470E060E080E290E00E94BC
:102D7000693440E050E0BA0188E190E00E945D349F
:102D800080E00E9473140E948C1440E050E0BA016D
:102D90008FE090E00E945D341092110310921203B4
:102DA000109213031092140382E390E090931203A5
:102DB000809311034091110350911203609113030A
:102DC0007091140383E190E00E945D340895B0E0B7
:102DD000A0E0EDEEF6E10C94A4337901C82F880F42
:102DE000DD0B41155105A9F0FE0193E0EE0FFF1F29
:102DF0009A95E1F7E65FFE4F81819281835D9D4F59
:102E0000208130E04217530708F49A01A9010E947B
:102E10002E34CE010E940F33D82E8823D1F0011515
:102E20001105B9F083E0CC0FDD1F8A95E1F7FE01B3
:102E3000E65FFE4F438150E00417150708F4A80130
:102E4000C65FDE4F6C817D81635D7D4FC7010E944F
:102E50002E348D2DCDB7DEB7E7E00C94C033A5E05E
:102E6000B0E0E5E3F7E10C94A1338D83E62E5A013F
:102E7000F22E6801809145068A3028F080E0259680
:102E8000EAE00C94BD338D818830C4F31A82198234
:102E90008A836B832C8363E070E0CE0102960E94EC
:102EA00074088983E0923201F092450110E000E05D
:102EB00030E020E044E050E0BE016F5F7F4F84E0EF
:102EC0000E94E7168823D1F24E2D50E030E020E03A
:102ED000B50185E00E94E716882381F230E020E00A
:102EE00041E050E0BE016B5F7F4F86E00E94E71635
:102EF000882321F20F2D10E0960150E040E070E0B1
:102F000060E087E00E94E716BACFA8E0B0E0EBE807
:102F1000F7E10C94A73385E0E4E3F4E0DE011196D9
:102F200001900D928A95E1F780910B0490910C0429
:102F3000A0910D048E839F83A887288540919002DD
:102F40005091910260919202709193023FB7F89470
:102F50008091180490911904A0911A04B0911B0457
:102F60003FBF841B950BA60BB70B84369105A105BB
:102F7000B10510F42223C1F010E000E030E020E0C1
:102F800048E050E0BE016F5F7F4F83E00E94E7168C
:102F9000882369F00E944E0860939002709391021A
:102FA000809392029093930210920D0481E02896F0
:102FB000E4E00C94C333A4E0B0E0E1EEF7E10C945C
:102FC000A73340918C0250918D0260918E027091D6
:102FD0008F022FB7F8948091180490911904A09152
:102FE0001A04B0911B042FBF841B950BA60BB70BC3
:102FF00011E084369105A105B10518F10E94380E43
:103000006E5F7F4F8F4F9F4F69837A838B839C8343
:1030100010E000E030E020E044E050E0BE016F5FEF
:103020007F4F82E00E94E716182F882351F00E94FC
:103030004E0860938C0270938D0280938E02909361
:103040008F02812F2496E4E00C94C333A6E0B0E015
:10305000ECE2F8E10C94A5337B0101E010E09E0165
:103060002A5F3F4F50E040E070E060E080E00E9467
:10307000E716182F882309F453C040918802509115
:10308000890260918A0270918B022FB7F894809127
:10309000180490911904A0911A04B0911B042FBF39
:1030A000841B950BA60BB70B84369105A105B105C2
:1030B00048F465E070E08EE292E00E9474089E8120
:1030C000891771F105E010E09E012F5F3F4F50E03E
:1030D00040E070E060E081E00E94E716082F65E0C4
:1030E00070E08EE292E00E94740811E09E819813D5
:1030F00010E0102301F10E944E0860938802709343
:10310000890280938A0290938B0285E0FE013196BA
:10311000A3E8B2E001900D928A95E1F711E00BC0AF
:1031200085E0EEE2F2E0DE01119601900D928A95C3
:10313000E1F71111EACF85E0E3E8F2E0D701019071
:103140000D928A95E1F7812F2696E6E00C94C13323
:103150000E94520E8093090180910901882359F041
:103160001092750181E2809376010E94020E811116
:103170000E942332089581E2809375018AE2F3CFA1
:1031800090E080E00E944534883E9E4F19F40E94F2
:103190006415089580E0089528E030E043E060E0A1
:1031A00087EF0E940B300895ACE0B0E0EAEDF8E163
:1031B0000C94A3334F83588769877A878B879C87C2
:1031C0008091E702882399F00E94CC1880E50E9444
:1031D00083302AEB2A95F1F700C00E949B30887853
:1031E00099278038910509F484C00E94B3300E9469
:1031F000020E882309F468C00E944E080091C101A4
:103200001091C2012091C3013091C4016B017C0176
:10321000C01AD10AE20AF30A9701860108301105A3
:103220002105310508F450C06093C1017093C201BB
:103230008093C3019093C4010091F5021091F602AE
:103240002091F7023091F802601B710B820B930BF7
:10325000623371058105910580F41092EB021092A2
:10326000EA021092ED021092EC021092EF0210921C
:10327000EE021092F1021092F0021091F4020E94FC
:10328000520E112309F462C0BE01695F7F4F8AEEBE
:1032900092E00E94B70B0091F4021091E7020E94A5
:1032A000520E011709F47CC0BE01695F7F4F8EEE9C
:1032B00092E00E94B70B86E0FE013796A3E0B3E0F0
:1032C00001900D928A95E1F786E0FE013796DE01C6
:1032D000119601900D928A95E1F729813A814B81EF
:1032E0005C816D817E8180E090E02C96E8E00C941A
:1032F000BF330E949B300E949B307C010E949B3018
:1033000020E0E22AF82A0E949B308C010E949B3028
:1033100020E0022B182B0E94B330F894B701809163
:10332000EA029091EB020E947D0C9093EB02809355
:10333000EA02B8018091EC029091ED020E947D0CAE
:103340009093ED028093EC02789451CF8091EA0241
:103350009091EB0281382FEF9207D4F080389105DD
:10336000CCF4819589878091EC029091ED028138AF
:103370002FEF92078CF08038910584F48A871092A1
:10338000EB021092EA021092ED021092EC0283CF4F
:1033900081E8E7CF8FE7E5CF81E8F0CF8FE7EECF89
:1033A0008091EE029091EF0281382FEF9207D4F0D6
:1033B00080389105CCF4819589878091F0029091B5
:1033C000F10281382FEF92078CF08038910584F458
:1033D0008A871092EF021092EE021092F102109280
:1033E000F00269CF81E8E7CF8FE7E5CF81E8F0CF42
:1033F0008FE7EECFCF93DF93D82FC62F0E94CC1844
:103400008D2F80680E9483308C2F0E9483300E9411
:10341000B3308FEC92E00197F1F700C00000DF912C
:10342000CF910895682F893708F068E76093F2021A
:1034300091E09093F3029091E702992359F0615043
:10344000811101C064E08FE00E94FA1960E080E51C
:103450000E94FA190895FB0180810E94121A0895B2
:103460009091F202911101C095E0282F880F330B43
:10347000A901490F511DCA011816190614F081E05F
:1034800090E00E94121A0895CF93C82F0E94CC1882
:103490008C2F0E9483308FE792E00197F1F700C0F4
:1034A00000000E949B30C82F0E94B3309AE69A9584
:1034B000F1F700C08C2FCF910895CF93DF930E9436
:1034C0000330879A0E94CC186AE58AE30E94FA19B1
:1034D0002FEF80E792E0215080409040E1F700C05C
:1034E000000082E00E94441A83E00E94441A84E0B3
:1034F0000E94441A85E00E94441A86E00E94441A01
:1035000060E080E10E94FA1980E00E94441AD82FFE
:1035100081E00E94441AC82F0E94B330D23419F4BB
:1035200081E0C13009F080E081708093E702882358
:1035300041F064E08FE00E94FA1960E080E50E94AB
:10354000FA19DF91CF9108951F920F920FB60F9243
:1035500011242F933F934F935F936F937F938F9398
:103560009F93AF93BF93CF93DF93EF93FF93D0914C
:10357000E900DF708091EC00C82FC17080FDC0E8C9
:103580001092E9008091F000877F8093F00078949A
:103590000E949E0F1092E9008091F0008860809355
:1035A000F000CD2BCF70C093E900FF91EF91DF9138
:1035B000CF91BF91AF919F918F917F916F915F91CB
:1035C0004F913F912F910F900FBE0F901F90189524
:1035D0001F920F920FB60F9211242F933F934F9388
:1035E0005F936F937F938F939F93AF93BF93EF936B
:1035F000FF938091E10082FF09C08091E20082FF89
:1036000005C08091E1008B7F8093E1008091DA001A
:1036100080FF24C08091D80080FF20C08091DA0014
:103620008E7F8093DA008091D90080FF9DC080E179
:1036300089BD82E189BD09B400FEFDCF81E08093A0
:103640002A0480911C04811109C00E94B3060E94C3
:103650007E078091E20084608093E2008091E10027
:1036600080FF17C08091E20080FF13C08091E200CC
:103670008E7F8093E2008091E20080618093E2007F
:103680008091D80080628093D80019BC85E0809337
:103690002A048091E10084FF2BC08091E20084FF26
:1036A00027C080E189BD82E189BD89B5982F9170DD
:1036B00080FFFBCF8091D8008F7D8093D8008091D0
:1036C000E1008F7E8093E1008091E2008F7E809305
:1036D000E2008091E20081608093E20080912B04FF
:1036E000882309F447C084E080932A0480912A0447
:1036F0008091E10083FF27C08091E20083FF23C017
:103700008091E100877F8093E10082E080932A042A
:1037100010922B048091E1008E7F8093E1008091D4
:10372000E2008E7F8093E2008091E20080618093CE
:10373000E20042E060E080E00E944C078091F000EF
:1037400088608093F000FF91EF91BF91AF919F91BE
:103750008F917F916F915F914F913F912F910F903A
:103760000FBE0F901F90189519BC10922A0410924A
:103770001C0474CF8091E30087FD93E090932A04AA
:10378000B5CF78941F921FB61F9211248F939F93E9
:10379000AF93BF938091180490911904A0911A04DB
:1037A000B0911B040196A11DB11D80931804909344
:1037B0001904A0931A04B0931B04BF91AF919F9179
:1037C0008F911F901FBE1F9018959C014FB7F894C2
:1037D0008091180490911904A0911A04B0911B04CF
:1037E0004FBF821B930B08952FB7F8948091180454
:1037F00090911904A0911A04B0911B042FBF089551
:103800000E94020E882319F00E94F41B08950E9462
:10381000380ECB01089560913404669570E041E064
:1038200050E08AE791E00E941434892B19F481E07A
:1038300080930C040E94001C90930604809305045E
:1038400080910D04846080930D0408959091340458
:1038500090FF31C0917081112FC092609093340419
:1038600080910D04816080930D04662351F0609176
:1038700034047091350480913604909137040E948D
:103880007D1560913404669570E041E050E08AE770
:1038900091E00E941434892BB1F00E94910881E0DC
:1038A0008093080420E040913704609136048091B1
:1038B00035040E9490150895873010F09C60CECF9B
:1038C000880F982BCBCF0E940B1CE9CF809134043A
:1038D0008695815009F486E061E00E94261C0895D7
:1038E0008091340486958F5F873008F081E061E035
:1038F0000E94261C08958091340480FF08C086959C
:1039000082588F77833018F40E94701C089561E00C
:1039100082E00E94261C089583E00E94B2120E9459
:10392000F41B90931C0380931B0382E080931D0380
:103930000895AEE1B0E0EFE9FCE10C94A5334091CD
:103940001E0350911F036091200370912103809109
:103950002203909123030E94D41820931E033093D6
:103960001F0340932003509321036093220370931D
:10397000230386E0EEE1F3E0DE01179601900D925D
:103980008A95E1F786E0FE013796DE011D960190EB
:103990000D928A95E1F786E0FE013D96DE011196D3
:1039A00001900D928A95E1F786E0FE013196AEE135
:1039B000B3E001900D928A95E1F786E0EEE1F3E045
:1039C000DE01599601900D928A95E1F786E0FE019D
:1039D0007996DE01179601900D928A95E1F70B8D8D
:1039E000EC8C9E2D902B80911D03992309F416C118
:1039F000002E000C110B0E2C000CFF088230F1F190
:103A000088F4813009F4E1C00E94F41B90931C03F8
:103A100080931B0381E080931D031092100310928A
:103A20000F0332C0833099F1843071F7C701F7FE7C
:103A300004C0882799278E199F09880F991F98011C
:103A400017FF04C022273327201B310B2817390703
:103A50000CF042C08091170390911803E80EF91EF4
:103A600040E0F7FE0DC17EECE7167FEFF7067CF134
:103A7000F0921803E092170380E041C00E94F41B0B
:103A800090931C0380931B0380E020E069C0C70172
:103A9000F7FE04C0882799278E199F09980117FF00
:103AA00004C022273327201B310B280F391F809198
:103AB000190390911A03821B930B90931A0380931E
:103AC00019031816190604F780E020E045C022E328
:103AD000E20EF11C4E5CC5CF809115039091160348
:103AE000080F191F80E017FFD5C00E3C9FEF190784
:103AF0000CF464C0109316030093150340E0082EE5
:103B0000000C990B62E370E00E94EA338091140389
:103B1000811158C081E090E0689F9001699F300D4D
:103B2000789F300D1124642F772761950CF47095E0
:103B3000CB0162E370E00E94EA338091130341E01D
:103B400050E0882311F04FEF5FEF649FC001659F45
:103B5000900D749F900D1124F12CE12C10E000E0E9
:103B60000987EA868B872C8786E0FE013796DE017F
:103B7000119601900D928A95E1F786E0FE0131964B
:103B8000DE01539601900D928A95E1F786E0FE01E1
:103B90007396DE01179601900D928A95E1F786E003
:103BA000FE013796AEE1B3E001900D928A95E1F700
:103BB0000E942A0F6E96E6E00C94C1330E5C1F4FF4
:103BC0008E5C91CF8FEF9FEFA7CFC701F7FE04C0A8
:103BD000882799278E199F09980117FF04C022276B
:103BE0003327201B310B820F931F20910F0330913D
:103BF0001003820F931F9093100380930F03209163
:103C0000110330911203821793070CF43DCF1092E9
:103C1000100310920F030E948C1C36CF823071F07B
:103C200048F4813019F11092100310920F03109292
:103C30001D034ACF853008F447CFF5CF80911B0391
:103C400090911C030E94E51B893E934008F43CCFF1
:103C500010921D0383E00E948912109218031092A3
:103C6000170310921603109215032ECF80911B0399
:103C700090911C030E94E51BC39708F425CFD3CF76
:103C800083E3E816F1040CF4F3CE62E3E61AF108DC
:103C90004253E7CE033311050CF42CCF0253110924
:103CA000825321CFA2E1B0E0E8E5FEE10C949A3323
:103CB0008C01DC0113968D919C911497892B39F01E
:103CC0008C9111969C9189238F3F09F013C66296BF
:103CD000E1E10C94B6330E94F514F82E682F898127
:103CE0009A810E94810B69817A818F2D0E94E7144D
:103CF0007C01F8018281882309F4EFC5C701825154
:103D00009F45409708F0C7C58FEF93E00E94373476
:103D1000811128C0FEEEEF0E57EB852E52E0952E56
:103D2000E11033C01C821B82442443944AE0342EA9
:103D300074018FEFE81AF80AC4010E9437348983AE
:103D40001A82882379F09FEF980F933060F58A8369
:103D5000498292E0890E911CC7010E9437348B83FF
:103D6000811122C080912002877009F4B0CFD80160
:103D700012968C91882309F4AACF80919B0282FF2E
:103D8000A6CF82E00E949612A2CF811424E0920670
:103D900049F3C4010E943734811101C0EA943FEF16
:103DA000831A930ABDCF4701DE0111967D01F70109
:103DB0002081222309F4BCCF213009F06DC091810C
:103DC0008281913061F4F2E0EF0EF11C65E070E069
:103DD000893311F460E570E00E94651307C09230EA
:103DE00039F522E0E20EF11C0E942C13FFEFEF1ACE
:103DF000FF0A8FE99FE00197F1F700C00000AFE9EB
:103E0000BFE01197F1F700C00000EFE9FFE0319744
:103E1000F1F700C000008FE99FE00197F1F700C0C3
:103E20000000AFE9BFE01197F1F700C00000BFCF7D
:103E3000933031F432E0E30EF11C0E94D612D6CF5B
:103E4000943021F08FEFE81AF80AD0CF92E0E90E13
:103E5000F11C30E020E0B7016F5F7F4FD701119672
:103E60004C918053990B8A30910558F021503109BB
:103E700008F4BCCFEFE9FFE03197F1F700C0000094
:103E8000F5CF329EF001339EF00D11249C012E0FD0
:103E90003F1F842F7B01DFCFE22FF0E0E957FE4F79
:103EA0005490822F86958695869590E0FC01E9587E
:103EB000FE4F64902770712C022E02C07594679497
:103EC0000A94E2F731E063227724FC01E959FE4FBE
:103ED000A490B12C022E02C0B594A7940A94E2F7E4
:103EE000A1E0AA22BB24FC01E95AFE4FC490D12CC8
:103EF00002C0D594C7942A95E2F7B1E0CB22DD2425
:103F00006114710419F081EE0E942C13A114B10404
:103F100019F086EE0E942C13E9E365E070E05E1272
:103F200002C060E570E0852D0E946513A114B10404
:103F300019F086EE0E94D6126114710419F081EE18
:103F40000E94D612C114D10409F450CF65E070E08C
:103F50008CE242CF81E00E94B2120E947D1202CF19
:103F600081E00E948912F9CF82E0F5CF86E0EEE190
:103F7000F3E0DE011D9601900D928A95E1F786E04F
:103F8000FE013D96DE01179601900D928A95E1F7AC
:103F9000FE8481E090E001C0880F2A95EAF7D801FD
:103FA00012962C91222311F1F82A83E080931D03AD
:103FB0008EE190E090931A03809319030E948C1C69
:103FC000F88686E0FE013796DE01119601900D928B
:103FD0008A95E1F786E0FE013196AEE1B3E001900B
:103FE0000D928A95E1F70E942A0FBCCE8095F822A7
:103FF000E5CFF8018281882321F084E080931D03BE
:10400000B1CE0E948C1CAECED80112968C91882322
:1040100009F4A8CE80911103909112030596909314
:104020001203809311034091110350911203609188
:1040300013037091140383E190E00E945D3492CEEB
:10404000F8018281882309F48DCE8091110390912B
:10405000120305978530910514F785E090E0DFCFD6
:10406000D80112968C91882309F47CCE8091130399
:1040700091E0892780931303D6CFF80182818823AA
:1040800009F470CE8091140391E089278093140382
:10409000CACF82818823D9F080911D03835082305A
:1040A00008F4AFCFB3EEEB16F10491F1E0EEEE16AB
:1040B000F10471F110921D0383E00E9489121092A5
:1040C0001803109217031092160310921503C701DC
:1040D0009A9581159F41F8F4F701FF27D8011296B0
:1040E0008C91E43FF10540F0E93FF105B0F0E83B89
:1040F000BDE5FB0709F483C0882309F43FC0E15BF9
:10410000FD45EA30F105D0F5E557FB4C0C94FE3344
:104110000E948C1CDCCFF701E1CFE45FF10921E0C4
:1041200030E001C0220FEA95EAF796E0EEE1F3E015
:10413000DE01179601900D929A95E1F796E0FE0147
:104140003796DE011D9601900D929A95E1F79885BC
:10415000882389F1292B2E8786E0FE013D96DE011A
:10416000119601900D928A95E1F786E0FE01319655
:10417000AEE1B3E001900D928A95E1F7F8018281FA
:10418000F6E1EF16FCE5FF0609F067C0882309F4A5
:104190004FC080911D048A7A91E009F490E09093D9
:1041A000C50169E2811165E38AEA91E00E945A083B
:1041B0000E94550FD7CD20952923CDCF80E00E94B6
:1041C000121A1092F902CECD4091F2025091F902EA
:1041D00050FB47F95695537060E070E08FE090E037
:1041E0002CCF81E00E94301ABDCD8FEFFBCF8AE04B
:1041F000F9CF86EFF7CF9091F40281E089270E94F2
:10420000390CB0CD8091F902811101C084E08F5F3B
:1042100018160CF081E0883008F087E08093F902EE
:10422000A1CD8091F902811101C084E08150F0CFCD
:104230008091C50181110FC089E2ECEAF1E022EB27
:1042400031E09191891303C0DF0111971C922E1761
:104250003F07B9F7ADCF85E3F0CF811108C1809159
:104260001D0482722AECE2162CE5F20609F4EFC076
:1042700008F07CC095ECE9169CE5F90609F4D3C07A
:1042800008F059C0B3ECEB16BCE5FB0609F4C1C05D
:1042900008F0C4C0F2ECEF16FCE5FF0609F48DC08F
:1042A000F8018281E080F180882309F41EC1C701F2
:1042B0000E94F514D82E682FC7010E94810BB70108
:1042C0008D2D0E94E7140E94CC097C01882ED80114
:1042D0001296CC9012971596BC90B2943FE0B32200
:1042E000809120028770C1F0AC2CCC20B1F08F2DD2
:1042F000807F803421F080E28E0D883068F08091DC
:104300009B0282FF09C082E00E94961280912002E7
:104310008770AA24A3948111A12C9F2C92942FE042
:104320009222BBE0B91508F44FC1E92DF0E0EB563D
:10433000FB4C0C94FE3327ECE2162CE5F20609F454
:104340007CC008F475C098ECE9169CE5F90609F400
:1043500079C044EE55E161EF75E1A9ECEA16ACE5F0
:10436000FA0609F09DCF0E948A08FCCCBEECEB1641
:10437000BCE5FB0609F475C090F4FCECEF16FCE517
:10438000FF0609F469C04CE256E16EE376E12DECDC
:10439000E2162CE5F20638F361E081E037C035ED36
:1043A000E3163CE5F30609F45FC008F4DBCC9DE5B9
:1043B000E916F90609F4D6CC73CF8091340480FF56
:1043C00020C08E7F80933404609134047091350452
:1043D00080913604909137040E947D150E949108C7
:1043E00080910D04816080930D04AFEFB0E7E2E0AF
:1043F000A150B040E040E1F700C000000E943A0D3B
:10440000B1CC81608093340461E086950E94261CC3
:10441000A9CC46E65CE160E77CE1A5CF40E75CE142
:1044200066E67CE1A0CF48E156E162E276E19BCF0F
:1044300042E256E168E176E196CF4EEF55E16BE05E
:1044400076E191CF4BE056E16EEF75E18CCF41EF15
:1044500055E164EE75E187CF4EE356E16CE276E11B
:1044600082CF0E947B1C7ECC61E086E0CFCFFAE554
:10447000EF16FDE5FF06A9F168F4E1143CE5F3064B
:10448000B9F08EEDE8168CE5F80609F009CF0E9428
:1044900069160CC09CE5E9169DE5F906C1F018F116
:1044A000B7EAEB16BDE5FB0609F0FACE0E945E12F4
:1044B00010921D040E94920FEFEFF4E32CE0E15004
:1044C000F0402040E1F700C000000E943D088091CC
:1044D0009B0282FB882780F991E089270E949C1427
:1044E000DFCE81E0FBCF80E0F9CFC7010E944D0B0A
:1044F000D82EE5CEEF2DEF70DE2E8F2D807F19F0B8
:10450000D29490EFD922CC20B9F0DD2069F080E27E
:104510008E0D883010F0811009C080911D04D82ABA
:10452000D0921D040E94550F8E2D4CC080912902FF
:10453000D82AD0922902F6CF8E2D0E94D612DD20E5
:1045400009F442C080E28E0D883010F0811004C062
:104550008D2D0E943C0B06C0D09480912902D82258
:10456000D09229020E94550F2FC0FF2DFF70DF2E21
:104570008F2D807F803219F0D29480EFD82288204E
:1045800089F021E0821609F468C0CC2009F472C0D9
:10459000BB2009F468C0F801858180FFC5CF8F700A
:1045A000858361C020919B0222FD35C0CC2069F13A
:1045B000DD2039F080911D04D82AD0921D040E947C
:1045C000550F80E00E942C13E92DE850FF0B349723
:1045D00010F40E94270EAA2009F479CB80912002C2
:1045E00080FD75CBD80112961C9285958595859591
:1045F0000E94B212C8010E94521E8091200285952D
:10460000859585950E94891262CB80E00E94D61222
:10461000DD20D1F29DCFCC2099F090912A02892FF4
:104620008D29B11003C00E94CC12CECF31E0B3125D
:10463000FACF22FFC9CF981739F280932A02C4CF4C
:10464000B11006C00E94360B8D2D0E94C512BCCF42
:1046500081E0B81609F4B8CFF5CFCC2031F095E061
:104660009B1508F4B1CF8D2DDECFA4E0AB1508F477
:10467000ABCFEACFBB2041F3F9E38F1204C12FEF98
:1046800037EE83E0215030408040E1F700C0000069
:104690008E2D0E94D61298CF8F2D837091F5C11068
:1046A00093CF4E2D429546954770440F440F8E2D63
:1046B0008F70042E01C0880F0A94EAF72E2D207106
:1046C000E4FE07C02FE030E001C0220F4A95EAF770
:1046D00020953F2D369536953370323069F050F481
:1046E00040912B02313029F0822B84230E94BE128C
:1046F0006BCF842B822BFACF282B80912B02822721
:10470000F5CF8695CC2011F08F2D8170882309F488
:104710005BCF4E2D429546954770440F440F8E2D2A
:104720008F70042E01C0880F0A94EAF72E2D207195
:10473000E4FE07C02FE030E001C0220F4A95EAF7FF
:1047400020953F2D369536953370323069F050F410
:1047500040913904313029F0822B84230E94761253
:1047600033CF842B822BFACF282B809139048227D8
:10477000F5CFBF2DBF70FB2ECC2029F08B2F0E94D0
:10478000B2128E2D50CF8E2D0E94C5128F2D0E94F9
:1047900089121ACF8E2DE2EF8E16B1F1E81570F066
:1047A000F0EF8F16D1F021EF821691F0CC2009F4B2
:1047B0005EC0B110B9CE8F2D8F712AC033EF831632
:1047C00051F194EF8912F2CF80919B0282FD2FC0AC
:1047D0008F2D8F71CC20D9F21BC0CC2081F0A4E0AA
:1047E000AB1508F4F1CE2F2D2F7181E090E001C0C0
:1047F000880F2A95EAF7909139048927AFCFB5E061
:10480000BB1508F4E1CEEFCF8F2D8F71C110BFCF54
:104810000E94B212D9CE80E0CC2009F49FCF9F2D08
:104820009F7181E001C0880F9A95EAF797CFCC205D
:1048300099F0EF2DEF71FE2E8E2F0E94B212809113
:104840009B0282FF07C0F8E0FF9EC0011124836035
:10485000809320028F2DDCCF81E00E94961221E010
:104860002B1508F0B1CE82E00E949612ADCEBB208F
:1048700079F0893341F43FEF87EE93E03150804087
:104880009040E1F703CFAFE1BEE41197F1F7FECE20
:104890008F2D8F717CCFB0E1EB16BFE5FB0609F4DD
:1048A00059CBE1E1EE16EFE5FE0609F45DCBF0929F
:1048B0000003E092FF02F80180819181909302034E
:1048C00080930103970130582830310508F0E1CB7F
:1048D000F901EF55FB4C0C94FE33F0E1EF16FFE5C8
:1048E000FF0609F43DCB21E1E2162FE5F206F9F6C9
:1048F00082E037CB85E0F801DE01119601900D9240
:104900008A95E1F7D80112962C9189819A8121111B
:10491000E2C90E944D0BF82EE6C91F93CF93DF9397
:104920008091ED01807F09F049C08091EA018823E0
:1049300009F444C080911F02D091EE016091E8011A
:104940007091E901A091EB01B091EC01C62FC72352
:1049500016E0D81799F190E0109711F0CF3F19F4B5
:1049600001968770F6CF189F9001199F300D112482
:10497000F901E151FE4F41814713F2CF40814613C7
:10498000EFCF42814111ECCF438154814A1B5B0B35
:10499000483C510528F78091ED018F70806180932C
:1049A000ED01F901EC50FE4F80818F7080618083B2
:1049B00088EE91E00E94521E0E94430BDF91CF913E
:1049C0001F910895A1E1B0E0E8EEF4E20C94A13368
:1049D0008C0185E0F801DE011D9601900D928A950B
:1049E000E1F7F801E28088EEA82E81E0B82E609110
:1049F000EB017091EC016115710509F426C19091EC
:104A0000E8014091E901892F84238F3F09F41DC1FA
:104A100020813181C380D480F090EA01F601E61B49
:104A2000F70BFF2009F4DCC08091ED01582F507F77
:104A3000E83CF10508F09FC051116BC0FE2C4313F8
:104A400014C0921312C0E11010C08F708061809367
:104A5000ED01C5010E94521E8091ED01F801858390
:104A60008F2D6196EAE00C94BD33C114D10429F076
:104A7000822F83238F3F09F003C180E0F82FF1706C
:104A8000DF2E80FF3CC080911F024091EE0156E076
:104A9000841315C02D873E878D859E850E94241521
:104AA000292F22952F702230F0F0243018F59F70B6
:104AB000F1F0F8019581907FD1F4D12C1EC090E0E7
:104AC000589FF001599FF00D1124E151FE4F618173
:104AD000361306C06081261303C06281E6120FC040
:104AE00001968770D5CF9F7011F0882331F3805ED7
:104AF000883018F3C8010E94521EFD2CB1CFEE2061
:104B000009F4AECF8091ED0181608093ED01F12C2D
:104B1000A7CF431306C0921304C0F801EE2009F496
:104B200079C0C8010E943115882309F1EE20F9F0FF
:104B30008091ED01803270F02091E8013091E9011F
:104B400038872F831986DB86CA868C87CE01079625
:104B50000E94521E86E0F801A8EEB1E001900D928D
:104B60008A95E1F70E948D24FF24F39479CFC80140
:104B70000E94521EF9CF51110AC088EE91E00E94A6
:104B8000521E86E0F50111928A95E9F7C0CF4313D2
:104B90000FC092130DC0E1100BC0F8018583C8014E
:104BA0000E94521E86E0F50111928A95E9F758CFCE
:104BB000C8010E9431158823D1F2EE20C1F2809104
:104BC000ED01803238F22091E8013091E9013A8319
:104BD00029831B82DD82CC828E83CE010196B8CFE1
:104BE000E83CF105F8F6FE2CEE2009F243131FC055
:104BF00092131DC08091ED0180FD10C0982F907F11
:104C000069F0F8018583903F31F0982F907F905F95
:104C10008F70892B8583C8010E94521E86E0F8019F
:104C2000A8EEB1E001900D928A95E1F719CFC80185
:104C30000E94311581118ECF8091ED0181608093AA
:104C4000ED01C8010E94521E0BCFEE2009F48FCF58
:104C5000C8010E943115F82E882309F488CF86E018
:104C6000F801A8EEB1E001900D928A95E1F78091EC
:104C7000E8019091E9010E9424150E948D24F0CE54
:104C800081E08E25FBCEA7E1B0E0E9E4F6E20C94EA
:104C9000A8334B8B5C8B6D8B7E8B8F8B611110924D
:104CA00029021A8A198A85E0FE017396DE011D9693
:104CB00001900D928A95E1F786E0FE013D96DE01B6
:104CC000179601900D928A95E1F7CE0107960E9402
:104CD000E224882359F016E080911F029091EE01A2
:104CE000891345C06796E3E00C94C43386E0FE0167
:104CF0003796DE01119601900D928A95E1F78A852B
:104D00009B85892B41F38F81988589238F3F19F3E8
:104D10002091EE0130E0C9010196877099274091FA
:104D20001F024817190681F410921D040E94920F69
:104D30001092EE0110921F0286E0E8EEF1E0DF0132
:104D40001D928A95E9F7C7CF96E0929FD001939F75
:104D5000B00D1124A151BE4FFE01319601900D926C
:104D60009A95E1F78093EE010E94430BB4CF819FA7
:104D7000C001112481519E4F0E94E224882309F42E
:104D8000B1CF80911F0290E00196877099278093A0
:104D90001F02A2CFB0E0A0E0E0EDF6E20C949D335C
:104DA00035E0C32E31E0D32E46E4842E46E0942E27
:104DB00000E011E0712CAA24A394B12CD8018D91AC
:104DC0008D010E94900C00C0E401688025E0E22E75
:104DD00021E0F22EF701D0E0C0E04191A42FA2958E
:104DE000AF70B0E090968C9195010C2E01C0220F0F
:104DF0000A94EAF790E04F7002C0959587954A951E
:104E0000E2F780FD8EC0622A2196C430D10529F7D1
:104E1000F801319780810E94A40CA0EAAA95F1F7CD
:104E2000F4018081861519F0608277247394FFEF76
:104E30008F1A9F0A21E00530120709F0BFCF01E069
:104E400010E0D7018D917D010E94900C00C0C80137
:104E50000C2E01C0880F0A94EAF7782FE6E4F6E0FA
:104E600090E0A92E91E0B92E682F6095D5012D9183
:104E70005D01822F82958F7090E0DC0190968C917D
:104E8000AF01308190E02F7002C0959587952A95EB
:104E9000E2F780FD49C0872F832B80833196DA01AA
:104EA0008C91381711F077247394CA14DB04F1F64F
:104EB000F701319780810E94A40CB0EABA95F1F70E
:104EC0002196C830D10509F0BCCFC0919902772056
:104ED00071F181E08093B4010E94F41B9093B301BF
:104EE0008093B2018091B2019091B3010E94E51BC1
:104EF000059708F1D0E0CE52DD4F45E050E066E482
:104F000076E0CE010E942134892B41F085E0E6E471
:104F1000F6E0DE0101900D928A95E1F71092B4015E
:104F20000AC02095622270CF862F8323B6CF80914E
:104F3000B4018111D7CF0E94020E182FE09199027F
:104F4000811193C0F0E0EE52FD4F85E0AEE2B2E099
:104F500001900D928A95E1F765E070E08EE292E0B3
:104F60000E94740880932D02C0903302D0903402C6
:104F7000E0903502F09036028091B5019091B60133
:104F8000A091B701B091B801C816D906EA06FB0690
:104F9000D1F0C092B501D092B601E092B701F09283
:104FA000B8010E94020E81110EC00E944E08C61A5E
:104FB000D70AE80AF90AC0929402D0929502E092C8
:104FC0009602F092970280913E02882379F180FF49
:104FD0000DC0809137029091340480FF2DC0916004
:104FE0009093340460E086950E94261C80913E02D6
:104FF00081FF09C020E040913A026091390280911E
:1050000038020E94901580913E0282FF06C0809176
:105010003D02882339F10E940B1C80913E0283FFE0
:1050200003C081E08093080410923E02872DCDB723
:10503000DEB7EEE00C94B9339E7F909334040E9467
:10504000910880910D04816080930D04CFEFD0E72B
:10505000E2E0C150D040E040E1F700C000000E9413
:105060003A0DC4CF0E949108D8CFABE4B6E085E0FA
:10507000ED0119928A95E9F7CE2FD0E0CE52DD4F9F
:10508000809145068A30A8F566E278E1CE010E945B
:10509000B90C882309F449C06BED77E1CE010E9479
:1050A000B90C882309F441C065E877E1CE010E947C
:1050B000B90C8823D1F11092450681E08093BB01A1
:1050C000C0919802D0E0CE52DD4F45E050E06BE455
:1050D00076E0CE010E942134892B09F4A7CF85E028
:1050E000EBE4F6E0DE0101900D928A95E1F7712E76
:1050F0009DCF8091B9019091BA010E94E51B843F38
:10510000914010F68091BB01882309F48FCF109253
:10511000BB01E0919802F0E0EE52FD4F95E0DF0117
:105120001D929A95E9F7782E81CF809145068F3FA1
:1051300031F08F5F809345068A3008F4BECF0E941D
:10514000F41B9093BA018093B901DCCF1F921FB674
:105150001F9211248F939F93AF93BF938091170455
:10516000811113C08091180490911904A0911A0420
:10517000B0911B044196A11DB11D8093180490931A
:105180001904A0931A04B0931B04BF91AF919F918F
:105190008F911F901FBE1F901895CDB7DEB7AE97A9
:1051A0000FB6F894DEBF0FBECDBF85B7806885BF50
:1051B00085B7806885BF84B7877F84BF0FB6F894B2
:1051C000A8958091600088618093600010926000D3
:1051D0000FBE80E890E00FB6F89480936100909342
:1051E00061000FBE88E599E09093A9018093A80122
:1051F0000E94B3060E947E078091E2008460809343
:10520000E200789480912A048823A1F01091E900AB
:105210001F709091EC00892F817090FD80E8182B11
:105220001092E9008091E80083FD0E949E0F1F709C
:105230001093E90082E084BD93E095BD9AEF97BD9D
:1052400080936E0010929402109295021092960232
:10525000109297020E946415811102C00E948C1462
:105260000E94A818809109010E94A8188091050148
:105270000E94A40C809106010E94A40C8091070159
:105280000E94A40C809108010E94A40C00E011E08F
:10529000D8018D918D010E94A40CB1E005301B074F
:1052A000B9F78091090195E0811190E090939902FE
:1052B00085E0891B809398020E94020E811102C032
:1052C0000E942632E6E4F6E080E596E0A2EDB2E048
:1052D00011921D928E179F07D9F70E94C018811155
:1052E00002C00E94691682E090E00E9437348093E9
:1052F0009F0284E090E00E943734182F82E290E011
:105300000E943734982F812F90939B0280939A02AA
:105310000E94CA26EFE3FCE93197F1F700C00000D4
:105320000E94CA268091D20280FF08C06FEF7FEFF3
:1053300090E080E00E9469340E943D0883E090E0A4
:105340000E9437340E94BE120E94020E882309F484
:1053500059C180E08093CD0280E880933A040E9496
:10536000DD306DE070E08AE192E00E949313892BBA
:10537000E9F58091CD0263E070E081FD45C187E1F0
:1053800092E00E949313892B89F56DE070E087E02D
:1053900092E00E949313892B49F50E944E08605AAF
:1053A00075418F4F9F4F60930F047093100480934B
:1053B000110490931204EDE3F4E080E092E0DF0149
:1053C0009C011D9221503040E1F7F0934406E09398
:1053D00043068FEF9FEF90933C0480933B0481E062
:1053E00080931404809313041092CE0280919C0247
:1053F000811138C00E94C018811104C00E94691632
:105400000E94501688E090E00E943F34609334047C
:1054100070933504809336049093370480910D0483
:10542000836080930D046E7F71F40E94501688E0B3
:1054300090E00E943F34609334047093350480936D
:105440003604909337040E9498080E949108809136
:10545000340480FF04C060E086950E94261C81E031
:1054600080939C020E94020E811102C00E9426328B
:105470000E945D1A0E94020E81112EC08DE49CE0F4
:10548000909351018093500126E130E030934C011C
:1054900020934B0186E390E090934F0180934E015F
:1054A00044E459E05093590140935801309354011A
:1054B0002093530190935701809356014BE25AE198
:1054C000509361014093600130935C0120935B0134
:1054D00090935F0180935E010E94C018882389F039
:1054E0008FE090E00E943F348B01862F8F770E94DF
:1054F000121A001F0027001F1370110F102B10939A
:10550000F90283E190E00E943F34609311037093AD
:105510001203809313039093140382E691E0909317
:10552000160480931504B0E46B2EEE24E39480916E
:105530002A0400E112E1853009F4A7C00E94CA26BE
:1055400000EA12E087E891E09CA78BA7BC0122ED5E
:1055500032E0F8019191D9018D919D01DB014D91CE
:10556000BD018423AAEACA2EA2E0DA2ECE16DF06F7
:1055700009F497C0981771F30E94020E482EE7E8CD
:10558000CE2EE1E0DE2EF2EDAF2EF2E0BF2E912C1A
:10559000D501FD905D01F60181916F01F822D801DE
:1055A0005D908D015F1429F15F24812C7724739421
:1055B000852D8721B1F04420A1F08EA29FA291E019
:1055C0008F2D872109F490E098A70E94F41B816039
:1055D000782F9AA789A74EA15FA168A58AA50E94E6
:1055E00043268394770CB8E08B12E2CFF801319711
:1055F000F0829394EAE09E12CBCF0E944E08FF24E3
:10560000F39470C082E0A6CE84E192E0BACE80919D
:105610002A04843039F10E94BD130E94991C109213
:10562000170448E150E00FB6F894A8954093600045
:105630000FBE6092600083B7817F846083BF83B7B1
:10564000816083BF7894889583B78E7F83BF0FB6C0
:10565000F894A89580916000886180936000109212
:1056600060000FBE80912904882379F00E94CA2629
:10567000A7E8B1E0E2EDF2E081919D91892309F084
:10568000AAC452E0EC3DF507B9F780912A048530B1
:1056900009F4BDCF10921D040E94920F0E94270EA4
:1056A0004DCF981369CF0E94F41B8C0180919D020D
:1056B00090919E0208171907A1F08FEF89A38AA382
:1056C0001BA20E94F41B8160782F9DA38CA349A18B
:1056D0005AA16BA18DA10E94432610939E020093B4
:1056E0009D02F12C0E94020E80910C04882309F483
:1056F00063C080910B04E0913404E695E81BE093CD
:105700000704823009F075C1F0E0E75DFD4FE491D8
:105710000E2F10E077EDC72E7DE0D72E8091080484
:10572000882361F0109208040E94001C90930604E4
:105730008093050410920A04109209040E94001C30
:10574000E0910504F09106049C012E1B3F0B2F3FB6
:105750003F4790F52091AC022223B1F01092AC02A9
:105760002091AA023091AB02821B930B8F3F9F477F
:1057700058F4205D3A483093AB022093AA028091FE
:105780000D04886080930D04A0900904B0900A0471
:105790000E0F1F1F109306040093050485E094E08C
:1057A000F60109958091090490910A04892B21F44E
:1057B000AB2811F0E092AC0280911404882351F1DF
:1057C0008091CF029091D0020E94E51BC29708F011
:1057D00022C120913B0430913C042115310509F090
:1057E000CEC1809113048823A9F00E944E08009135
:1057F0000F04109110042091110430911204601BC9
:10580000710B820B930B6F3F7F4F8F4F9F4710F4AD
:105810000E94BD13F1100E94D8130E94991C0E948F
:10582000270E9091D102891721F08093D1020E9416
:105830004E0880912A04843009F474C20E94020E3A
:10584000882309F474CE0E944E082091E2022111AF
:105850006BC00091DE021091DF022091E0023091D6
:10586000E1026B017C01C01AD10AE20AF30A970136
:105870008601043F11402105310508F455C06093AD
:10588000DE027093DF028093E0029093E102809148
:10589000DC029091DD0201969093DD028093DC02A0
:1058A00019828E010F5F1F4F21E050E040E060E061
:1058B00088E00E942F17811106C08091DC02909130
:1058C000DD020A978CF181E08093E2028093E80286
:1058D0009981911101C080E08093E9028091E702F3
:1058E00010E0882329F00E94520E11E0811112E08D
:1058F0008091E902882309F46AC30E94520E811143
:1059000068C382E0182B0E945B156B017C01DC01EF
:10591000CB018C7FBC01CD01612BC616D706E806F2
:10592000F90611F00E946E148091E902882309F4AF
:10593000FCCD0E944E086B017C018091E3029091A6
:10594000E402A091E502B091E602A7019601281BAE
:10595000390B4A0B5B0BDA01C9010497A105B105AC
:1059600080F119821A821B821C828E010F5F1F4FE9
:1059700024E050E040E060E089E00E942F17882397
:10598000C1F069817A818091EE029091EF020E94CC
:105990007D0C9093EF028093EE026B817C8180916D
:1059A000F0029091F1020E947D0C9093F10280939D
:1059B000F002C092E302D092E402E092E502F0929B
:1059C000E6028091F302882309F4AFCD8091F202C0
:1059D000898310E000E020E0AE014F5F5F4F61E09F
:1059E0008AE00E942F17882309F49FCD1092F302BA
:1059F0009CCD00ED17E050E9C52E58E0D52E86303D
:105A000009F08CCEE7E2F2E0059114916EE9C62E22
:105A10006DE0D62E83CE0E94F41B9093D00280932B
:105A2000CF028DE394E090934406809343060E9456
:105A3000020E882309F49EC01091FF02012F8DE60B
:105A400092E00E94EA0E809102038F708A3008F083
:105A500083C0805D0E946A0E89E692E00E94EA0E91
:105A6000809101038F708A3008F078C0805D0E94B9
:105A70006A0E002309F478C086E692E00E94EA0EDE
:105A8000812F82958F708A3008F06AC0805D0E94F5
:105A90006A0E812F8F708A3008F064C0805D0E948A
:105AA0006A0E8CEF810F853308F05EC082E692E0CB
:105AB0000E94EA0E212F2450330BF901E35DFD4FC4
:105AC00084910E946A0E89E892E00E94EA0E809119
:105AD00005030E94520C0E947B138091060381955E
