:100000000C949A060C94B7060C94B7060C9489329B
:100010000C94B7060C94B7060C94B7060C94B7066C
:100020000C94B7060C94B7060C94061B0C94C21AD9
:100030000C94C4280C94B7060C94B7060C94B7061D
:100040000C94B7060C94B7060C94B7060C94B7063C
:100050000C94B7060C94DF1B0C94B7060C94B706EF
:100060000C94B7060C94B7060C94B7060C94B7061C
:100070000C94B7060C94B7060C94B7060C94B7060C
:100080000C94B7060C94B7060C94B7060C94B706FC
:100090000C94B7060C94B7060C94B7060C94B706EC
:1000A0000C94B7060C94B7060C94B7060501090228
:1000B000A10185020901A1000509190129081500FE
:1000C0002501950875018102050109300931158165
:1000D000257F95027508810609381581257F9501D0
:1000E00075088106050C0A38021581257F95017572
:1000F000088106C0C00660FF0961A1010962150000
:1001000026FF009520750881020963150026FF006F
:10011000952075089102C005010906A1010507197E
:10012000E029E71500250195087501810295017503
:100130000881010507190029FF150026FF00950613
:1001400075088100050819012905950575019102B9
:10015000950175039101C00000000000000000003F
:10016000000000000000000000000000000000008F
:1001700000000000000000000000007E0F00D4FF1F
:10018000FFFFC70000007800000000000000002A08
:100190002B2800000000000000000000000000000C
:1001A000000029000000002C1E34202122243426C7
:1001B00027252E362D3738271E1F202122232425C0
:1001C000263333362E37381F0405060708090A0B75
:1001D0000C0D0E0F101112131415161718191A1BE7
:1001E0001C1D2F3130232D350405060708090A0B85
:1001F0000C0D0E0F101112131415161718191A1BC7
:100200001C1D2F3130354C00DA0281FFD9F1DB2083
:10021000A4A62EAF00A0C000A1C800AED580A81F24
:10022000D300408D14200000041E140A0520004C49
:100230006179657220202000616263646566676889
:10024000696A6B6C6D6E6F707172737475767778A6
:10025000797A313233343536373839305245425471
:100260005F2D3D5B5D5C233B27602C2E2F202027DC
:1002700000204B00202043004B6579202020205295
:100280000020204400303020205300202020202057
:100290004350490042616C6C2000808182838485D8
:1002A000868788898A8B8C8D8E8F9091929394A06B
:1002B000A1A2A3A4A5A6A7A8A9AAABACADAEAFB0B6
:1002C000B1B2B3B4C0C1C2C3C4C5C6C7C8C9CACB22
:1002D000CCCDCECFD0D1D2D3D400000101010101C9
:1002E00001010101020202020202020202030303EF
:1002F00003030303030404040404040405050505BF
:10030000050606060606070707070708080808097E
:100310000909090A0A0A0B0B0B0C0C0C0D0D0D0E2A
:100320000E0E0F0F0F1010111111121213131414BF
:10033000151516161717181819191A1A1B1B1C1D34
:100340001D1E1E1F2020212222232424252626278D
:100350002829292A2B2C2D2D2E2F303132323334BF
:1003600035363738393A3B3C3D3E3F4041424344C5
:1003700045464748494A4C4D4E4F505153545556A7
:1003800058595A5B5D5E5F616264656668696B6C53
:100390006D6F7072737577787A7B7D7E80828385CE
:1003A00087888A8C8E8F91939596989A9C9EA0A20E
:1003B000A3A5A7A9ABADAFB1B3B5B7BABCBEC0C218
:1003C000C4C6C9CBCDCFD1D4D6D8DBDDDFE2E4E7DC
:1003D000E9EBEEF0F3F5F8FAFDFF222325262829B4
:1003E0002A2C2D2F3032333536383A3B3D3E4042B1
:1003F000434547494A4C4E5051535557595A5C5EF4
:100400006062646668696B6D6F71737577797B7D07
:100410007F81838587898A8C8E90929496989A9C06
:100420009E9FA1A3A5A7A8AAACAEAFB1B3B4B6B81E
:10043000B9BBBCBEBFC1C2C3C5C6C7C9CACBCCCD80
:10044000CED0D1D2D2D3D4D5D6D7D7D8D9D9DADA5B
:10045000DBDBDBDCDCDCDCDCDDDDDDDDDCDCDCDCDB
:10046000DCDBDBDBDADAD9D9D8D7D7D6D5D4D3D20F
:10047000D2D1D0CECDCCCBCAC9C7C6C5C3C2C1BFED
:10048000BEBCBBB9B8B6B4B3B1AFAEACAAA8A7A551
:10049000A3A19F9E9C9A98969492908E8C8A89870D
:1004A0008583817F7D7B79777573716F6D6B6968EB
:1004B000666462605E5C5A5957555351504E4C4ABF
:1004C0004947454342403E3D3B3A3836353332306A
:1004D0002F2D2C2A29282625232200AF00AE290003
:1004E0001E001F002000E1001D001B00060021006F
:1004F000220023002B0019000500E0000251140027
:100500001A0008001500E2002C000000000017008F
:10051000E0000400160000000000000000000700DA
:1005200009000A0000000000000000000000240094
:100530002500260027000E000F00330034002D0098
:100540002E003100350028001100100036004C004C
:100550001C0018000C0037003800E50052001200A3
:1005600013002F00300001512C00E600E7002A00A4
:100570000B000D000000500051004F000000010072
:100580003A003B003C0001000100010001003D0079
:100590003E003F00390001000100010001000100A0
:1005A000C25CC55CC75C0100010000000000C95CC2
:1005B00001000100C35C0000000000000000C65CF8
:1005C000C85CCA5C000000000000000000004000A1
:1005D0004100420043004A004B0050004F004400DD
:1005E000450049004C000100010001004D000100E0
:1005F0000100010046004E005100010001004700CB
:10060000480052000100010001000100010001004A
:1006100001000100000001000100010000000100D4
:1006200001000100010001000100010001000100C2
:1006300001000100010001000100010001000100B2
:1006400001000100010001000100000000000100A4
:100650000100010001000000000000000000010096
:100660000100010000000000000000000000010087
:10067000010001000100B35DB55DB95D06800100B8
:1006800001000100010001000980B25DB45D0100BC
:10069000010001000100B65DBA5D078001000100A4
:1006A0000100010001000100010001000100010042
:1006B0000880B15D000001000100010000000100A0
:1006C0000100010001000100010001000100010022
:1006D000010001000100038004800100010001000D
:1006E0000100010001000100010000000000010004
:1006F00001000100058000000000000000000080F3
:1007000001800580000000000000000000000100E2
:1007100001000100010001800580010001000100CD
:1007200001000100010001000380048001000100BC
:1007300001000100010001000100010001000100B1
:1007400001000100010001000100010001000100A1
:100750000580008000000100010001000000090286
:100760005B00030100A0FA0904000001030101007D
:100770000921110100012240000705810308000141
:1007800009040100020300000009211101000122F7
:100790002200070582032000010705030320000152
:1007A00009040200010300000009211101000122D7
:1007B0004900070584032000011201000200000027
:1007C00008383937360100010200010E0352006576
:1007D000006500780036003700000012036B0075DA
:1007E000007300680069006D0061003800000004BB
:1007F0000309040000000000003E5B4F5B3E003E2A
:100800006B4F6B3E001C3E7C3E1C00183C7E3C182F
:10081000001C577D571C001C5E7F5E1C0000183CAE
:10082000180000FFE7C3E7FF00001824180000FFCE
:10083000E7DBE7FF0030483A060E00262979292633
:1008400000407F05050700407F05253F005A3CE733
:100850003C5A007F3E1C1C0800081C1C3E7F0014F4
:10086000227F2214005F5F005F5F0006097F017F27
:1008700000006689956A0060606060600094A2FF75
:10088000A2940008047E04080010207E20100008B6
:10089000082A1C0800081C2A0808001E1010101046
:1008A000000C1E0C1E0C0030383E383000060E3E88
:1008B0000E060000000000000000005F00000000C5
:1008C0000700070000147F147F1400242A7F2A12D7
:1008D00000231308646200364956205000000807C0
:1008E000030000001C224100000041221C00002ADD
:1008F0001C7F1C2A0008083E080800008070300099
:1009000000080808080800000060600000201008C7
:100910000402003E5149453E0000427F4000007203
:1009200049494946002141494D33001814127F10AE
:10093000002745454539003C4A49493100412111CC
:10094000090700364949493600464949291E000031
:100950000014000000004034000000000814224190
:100960000014141414140000412214080002015948
:100970000906003E415D594E007C1211127C007F39
:1009800049494936003E41414122007F4141413EB3
:10099000007F49494941007F09090901003E414161
:1009A0005173007F0808087F0000417F410000204C
:1009B00040413F01007F08142241007F40404040F9
:1009C000007F021C027F007F0408107F003E41412F
:1009D000413E007F09090906003E4151215E007F2A
:1009E000091929460026494949320003017F0103BC
:1009F000003F4040403F001F2040201F003F403844
:100A0000403F00631408146300030478040300618A
:100A100059494D4300007F41414100020408102024
:100A200000004141417F00040201020400404040B7
:100A30004040000003070800002054547840007F25
:100A40002844443800384444442800384444287F2B
:100A50000038545454180000087E09020018242459
:100A60001C78007F080404780000447D40000020CA
:100A700040403D00007F102844000000417F4000BE
:100A8000007C04780478007C08040478003844442E
:100A90004438007C1824241800182424187C007C76
:100AA000080404080048545454240004043F442417
:100AB000003C4040207C001C2040201C003C40307A
:100AC000403C004428102844004C9090907C004406
:100AD00064544C44000008364100000000770000D8
:100AE000000041360800000201020402003C2623F7
:100AF000263C00000000000000F8FCFCFC3C3CFC34
:100B0000FCFCF80080C0F0F8FC7E00000000000053
:100B100000000000000000000000FCFCFCFC0000E5
:100B200000000000000000FCFCFCFC0000000000D5
:100B3000000000000000000000000000FCFCFCFCC5
:100B4000000000000000000000FCFCFCFC000000B5
:100B500000000000000000000000000000007EFC1B
:100B6000F8F0E0C080000080C0E0F0F8FC7E0000FB
:100B700000E0F0F0F0E0ECEEF7F37020007C7C7C1D
:100B80007E007E7E7E7F7F7F000080C0E07E5B4FA8
:100B90005BFEC00000C000DCD7DEDEDED7DC00C0BC
:100BA0000000000000000000000000000000000045
:100BB000000000000000000000FFFFFFFF0000FF3A
:100BC000FFFFFF7F1F0F0701000000000000000073
:100BD00000000000000000000000FFFFFFFF000019
:100BE00000808080800000FFFFFFFF000000000009
:100BF000000000000000000000000000FFFFFFFFF9
:100C0000000080808080000000FFFFFFFF000000E8
:100C100000000000000000000000000000000000D4
:100C200081C3E7FFFFFFFFFFFFE7C3810000000074
:100C3000000F1F3F7F7F7F7F7F3F1E0C001F1F1F06
:100C40003F003F3F3F7F7F7F00307B7F7830202019
:100C500030787F3B0003000F7F0F0F0F7F0F0003E3
:100C60000000000000000000000000000000000084
:100C7000000000000000000000FFFFFFFF00000177
:100C80000101000000000000000000000000000062
:100C9000000000000000000000003F3F3F3F000058
:100CA000003F3F3F3F00003F3F3F3F00000000004C
:100CB0000000000000000000000000003F3F3F3F38
:100CC00000003F3F3F3F0000003F3F3F3F0000002C
:100CD00000000000000000000000000000007E3F57
:100CE0001F0F07030100000103070F1F3F7E0000D5
:100CF00000000000000000000000000000000000F4
:100D000000000000000000000000000000000000E3
:100D100000000000000000000000000000000000D3
:100D200000000000000000000000000000000000C3
:100D30000000000011241FBECFEFDAE0DEBFCDBF00
:100D400011E0A0E0B1E0ECEBF9E602C005900D92F5
:100D5000A83AB107D9F726E0A8EAB1E001C01D9290
:100D6000A235B207E1F70E94EB280C949F340C9453
:100D70000000E8EDF0E080818E7F80831092E20039
:100D80001092DA001092E100A0EEB0E08C91816048
:100D90008C9380818F77808319BCA7EDB0E08C9114
:100DA0008E7F8C9380818F7E808310921C040895A7
:100DB0002091E4003091E50095E6A9012091EC0036
:100DC000822F817020FF06C08091E80080FF06C05E
:100DD00080E008952091E80022FD1AC080912A0445
:100DE000882389F0853089F08091EB0085FD0FC064
:100DF0002091E4003091E50042175307F9F2915039
:100E0000E1F684E0089582E0089583E0089581E0AA
:100E10000895EF92FF920F931F93CF937C018B0164
:100E20000E94D806C82F811117C08091E80085FD67
:100E30000BC08091E8008E778093E8000E94D8066E
:100E4000882399F3C82F08C0F70181917F0180930F
:100E5000F1000150110949F78C2FCF911F910F918B
:100E6000FF90EF90089580912C0487FF13C080912C
:100E7000E80082FF06C08091E8008B778093E8004D
:100E800004C080912A048111F2CF089580912A0430
:100E90008823D9F38091E80080FFF8CF8091E800A3
:100EA0008E77ECCF982F9093E900242F762F50E087
:100EB000891731F07091EC002091ED005091F00015
:100EC00021FD07C09F5F973071F78093E90081E0B3
:100ED00008953091EB003E7F3093EB003091ED00B0
:100EE0003D7F3093ED003091EB0031603093EB00AB
:100EF0007093EC002093ED005093F0002091EE00F1
:100F000027FDE0CF80E00895B0E0A0E0EAE8F7E058
:100F10000C94C333C8EDD0E088818F7E8883E7EDE1
:100F2000F0E080818160808384E082BF81E08093F3
:100F30001C0488818E7F888302EE10E0F801108205
:100F40001092DA0081EEC82ED12CF6011082888131
:100F50008F77888388818068888388818F7D888364
:100F600019BC10922A0410922B041092290410929A
:100F7000280490EEE92EF12CF70180818B7F80838D
:100F800088818160888342E060E080E00E945207AF
:100F9000F60180818E7F8083F8018081816080836B
:100FA000808188608083F70180818E7F8083888143
:100FB00080618883CDB7DEB7E8E00C94DF33FC01B5
:100FC000809132049091330486179707A0F0611541
:100FD000710529F49091E8009E779093E80090E0E5
:100FE0006115710551F4911108C08091E80082FFEC
:100FF00034C080E00895BC01F2CF80912A04882398
:10100000C1F18530C1F18091E80083FD30C080914D
:10101000E80082FDEACF8091E80080FFE1CF809177
:10102000F3002091F200382F6115710519F0283076
:10103000310558F091E02830310509F090E0209119
:10104000E8002E772093E800CBCF81918093F100C8
:10105000615071092F5F3F4FE7CF80912A048823A9
:1010600041F0853041F08091E80083FFBECF81E000
:10107000089582E0089583E00895089508950895FD
:1010800080911F04089587E797E790930108809364
:10109000000888E19AE00FB6F894A8958093600064
:1010A0000FBE90936000FFCF2FB7F89460911804A3
:1010B0007091190480911A0490911B042FBF089518
:1010C0009C01FC0132969FEF80E04191461751F060
:1010D0009F3F19F4411101C0982F8F5F8630A9F707
:1010E0009F3F09F40895290F311D97FD3A95F901A5
:1010F00062830895FC01680F791F8FEF91E32191BE
:10110000822728E030E087FF09C0880F8927215017
:101110003109C9F7E617F70791F70895880FF7CF58
:10112000FA01811101C0FB01099508950895EBE0D2
:10113000F4E0118282818460828308958091340476
:10114000982F9E7F61F48170826080933404809137
:101150003704853618F084E68093370408958E307E
:10116000B0F381708C60F1CFAF92BF92DF92EF92BB
:10117000FF920F931F93CF93DF93082F162FE90150
:10118000E42FF0E0E652FD4F611110C0E4915E2FB4
:101190004E2F4983E8835A83DF91CF911F910F919E
:1011A000FF90EF90DF90BF90AF900895E62EF12C66
:1011B0004491D42EE42FF0E026E0829FC001112458
:1011C0002FEF30E0B9010E94A533802F90E0880F07
:1011D000991F55E5569FD001579FB00D11248A1BCA
:1011E0009B0B982F990F890F5901AE18BF08AE9E1F
:1011F000D001AF9EB00DBE9EB00D11245B2F189F85
:1012000080011124012F11275901A01AB10AAE9EA5
:101210008001AF9E100DBE9E100D11245901A81A19
:10122000B108AE9CC001AF9C900DBE9C900D1124E6
:10123000892F9927281B390B2E9FC0012F9F900DB6
:101240003E9F900D1124E92F62307105A1F050F4FA
:101250006115710509F49DCF6130710581F0EB2FA7
:10126000512F97CF6430710569F080F066307105B9
:1012700009F48FCFF4CFE42F4B2F592F8ACFE42FCF
:10128000412F87CFEB2F542F492F83CF4B2F5D2D2D
:10129000E12F7FCFCF93DF93E7EEF2E0838194815C
:1012A000A581B681E90188839983AA83BB831482CF
:1012B000138216821582DF91CF91089580E0089500
:1012C00063E070E080E492E00E947A0890913F022F
:1012D000891318C0E0914002EB30A4F488E0E802E2
:1012E000F0011124E65FFE4F0680F781E02D309774
:1012F00049F023E632E04091420263E472E08091DB
:10130000410209950895EAE0F1E0ADE2B2E05496B9
:101310008C91549780A755968C9183AF08959091A6
:101320009A0292FF06C0282F28712830F9F4877F8F
:10133000846093FF06C0282F28712831F1F4877E3E
:10134000846120919B0220FF06C0382F387138300D
:10135000D9F4877F816021FF06C0282F28712831AA
:10136000D1F4877E816194FD877E0895282F2471B2
:101370002430F9F68B7F8860DCCF282F247124314C
:1013800001F78B7E8861DDCF382F3171313019F74D
:101390008E7F8860E0CF282F2171213121F78E7E4A
:1013A0008861E1CFCF93DF93EC018238910589F119
:1013B000E0F58133910509F499C028F5893291054A
:1013C00009F489C08A9709F498C0C11523E5D207AA
:1013D00008F0B3C0C11532E5D30708F00FC1C1153D
:1013E00040E2D40708F097C0C11581E0D80758F54E
:1013F000C53AD10508F088C0C430D10520F5C13008
:10140000D10509F145C08533910509F45FC0C9973D
:10141000E1F680919A02837009F025C180919B02C8
:1014200083FF11C0C9E2D0E00EC0833E910599F15F
:1014300070F4803E910501F1823E910531F6809174
:101440009A0282FD21C0CE01DF91CF910895863EA0
:10145000910561F1873E910571F1843E910509F096
:10146000B4CF80919B0281FFEECF80919A02C7EEAC
:10147000D0E084FD0DC0E7CF80919A0280FD33C09B
:1014800090919B0290FFDFCFC3EED0E084FFDBCFD3
:10149000D0E0C0E0D8CF80919A0282FDE1C0909167
:1014A0009B0290FDE0C084FFCECFF2CF80919A02E4
:1014B00083FDDDCFC8CF80919A0283FDD7C0909184
:1014C0009B0291FFF0CFC4EED0E0BDCF80919A0295
:1014D00085FFB9CFA7CF80919A0285FDCAC08091C0
:1014E0009B0283FFB0CFC9E3D0E0ADCF80919A02D9
:1014F00086FFA9CFCAE2D0E0A6CF80919A0286FFEC
:10150000A2CFC1E3D0E09FCFCE01815E91090797C2
:1015100008F499CFBDCFC11521E5D20708F069C005
:10152000C11530E5D30708F050C0C11540E4D40719
:1015300008F4AECFDF70D06A86CFC11586E5D80734
:10154000F0F4C11525E5D20708F071C0C11534E5E6
:10155000D30708F067C0CE018370992721E030E0FF
:1015600002C0220F331F8A95E2F7C695C69540E266
:10157000C49FE0011124C22BD32BDA6864CFC115BC
:101580004AE5D40778F4C11589E5D80708F05AC0B0
:10159000C11528E5D20708F47BCFDC2FCC27C06F1C
:1015A000D06A51CFCE0190568115904208F070CF8D
:1015B0008D2F8F710E948F0990E0982F88278827A0
:1015C0009F719C012C2BE9013BC0CE0183709927B0
:1015D00021E030E002C0220F331F8A95E2F7C69562
:1015E000C69540E2C49FE0011124C22BD32BDD68D5
:1015F0002ACFDC2FCC27C16FD06A25CFCE018370D4
:10160000992721E030E002C0220F331F8A95E2F7CC
:10161000C695C69580E2C89FE0011124C22BD32B4A
:10162000DC6811CFDC2FCC27C46FD06A0CCF8C2F95
:101630000E948F09C82FD0E0DC2FCC27CC27DF7188
:10164000D06201CF8C2F8F700E948F0934E0D69525
:10165000C7953A95E1F7CF709C2FEC01D069F3CE96
:10166000C2EED0E0F0CEC0EED0E0EDCEC6EED0E0DF
:10167000EACEC5E3D0E0E7CE80912A028111109234
:101680002A020895809590911D04982390931D043B
:10169000089580911F029091EE01981301C0089562
:1016A0008F5F8770FACF9A3080F5883070F548E008
:1016B000949F90011124820F932F911D682F6770C2
:1016C00023E0969587952A95E1F7FC01EE0FFF1F21
:1016D000E80FF91FE653FE4F50E040E080E0219113
:1016E00030E0062E02C0369527950A94E2F7217065
:1016F0003327042E01C0220F0A94EAF7822B4F5F92
:101700005F4F4330510559F7089580E008959A30AE
:1017100098F5883088F548E0949F90011124820F55
:10172000932F911D282F277041E001C0440F2A9567
:10173000EAF723E0969587952A95E1F7FC01EE0FED
:10174000FF1FE80FF91FE653FE4F90E080E070E0C6
:101750005191DF0111979B01082E02C03695279504
:101760000A94E2F7217021952527242325272C931D
:1017700001968330910561F70895982F92959F7097
:1017800011F0892F94E0282F2695269511F09E5F61
:10179000822F869509F09F5F892F0895B0E0A0E021
:1017A000E4EDFBE00C94C333FC01EB019091F902F2
:1017B000911101C094E04081518191509A01092E0C
:1017C00002C0359527950A94E2F7B901092E02C0A7
:1017D000660F771F0A94E2F7461B570B518340832D
:1017E000428153818A01092E02C0159507950A94FA
:1017F000E2F7B80102C0660F771F9A95E2F7461B21
:10180000570B5383428321387FEF37077CF0203812
:10181000310574F421952D8301388FEF180754F0AA
:10182000802F003811053CF08FE705C021E8F2CF8A
:101830002FE7F0CF81E881958C830E9454082D8199
:10184000211103C02C812223B9F06093FA02709316
:10185000FB028093FC029093FD028091FE029BE0CC
:10186000980F973120F4080F0093FE021D82CDB728
:10187000DEB7E8E00C94DF33C090FA02D090FB02B0
:10188000E090FC02F090FD026C197D098E099F0921
:10189000643671058105910500F31092FE02DDCFDB
:1018A000CF93C82F8091F4028C1751F00E945408F6
:1018B0006093F5027093F6028093F7029093F8021A
:1018C000C093F402CF9108958091E702F9018083DB
:1018D00008958F708A3010F4805D0895895A0895B4
:1018E000382F20E287FF02C031952DE24AE0832F96
:1018F000642F0E94FC33905D9093BF0181110BC057
:101900002093BE0120E22093BD0120E22093BC0180
:101910008CEB91E00895642F0E94FC33905D9093CE
:10192000BE01832F64E60E94FC33882361F3805D4F
:101930008093BD01EBCF9C01860F971F37FD07C039
:1019400077FD04C097FF02C08FEF9FE7089577FFF0
:10195000FDCF97FDFBCF80E090E80895E82FE2955A
:10196000EF70F0E031A1282F2F7081E090E001C0EE
:10197000880F2A95EAF7382B31A392A18095892305
:1019800082A30895E82FE295EF70F0E031A1282FAF
:101990002F7081E090E001C0880F2A95EAF7982F18
:1019A0009095932391A392A1892B82A30895B0E0EF
:1019B000A0E0EDEDFCE00C94C3337C016B01809161
:1019C000450601E010E08A3010F40AE010E0C1E0C2
:1019D000D0E06BE476E0C701F6010995811104C0FF
:1019E00021960C171D072CF4CDB7DEB7E8E00C9458
:1019F000DF33CC9F9001CD9F300D300D112490E04E
:101A000080E045E34A95F1F70000019682179307BD
:101A1000C1F7DFCF9C0184E08093E9009FEF8091C4
:101A2000E800915085FD06C085ED8A95F1F700002C
:101A30009111F5CF8091E80085FF0CC050E040E0A7
:101A400066E070E0C9010E9409078091E8008E7786
:101A50008093E8000895CF93DF93EC0181E08093B9
:101A6000E9008FEF9091E800815095FD06C095ED5B
:101A70009A95F1F700008111F5CF8091E80085FF7C
:101A800014C050E040E068E070E0CE010E94090719
:101A90008091E8008E778093E80088E0FE01A0E264
:101AA000B4E001900D928A95E1F7DF91CF9108950E
:101AB000609176018091340480FF20C0809175018F
:101AC00043E0849FC00111248C5D9C4F539A2BB13D
:101AD000277F3BB138605FB7F894FC01649FE00D4D
:101AE000F11D1124BF0168177907D1F45FBF8FE59D
:101AF00094E00197F1F700C000000895809177010C
:101B00009091780123E0829FF0011124EC5DFC4F5D
:101B10008917A0F61182108212828F5F3396F8CF58
:101B2000FC014191CF01E8E03BB9000000C047FF54
:101B30002BB9440F000000C000C000C02BB900C08A
:101B4000EA9591F7D0CF9091340490FF0EC0909118
:101B500077012091780133E0939FF0011124EC5D2F
:101B6000FC4F921718F00E94580D089581836083EE
:101B700042839F5F3396F5CFA3E0B0E0E2ECFDE057
:101B80000C94C7338C0180910E0481110AC09E0110
:101B90002F5F3F4F44E66FEF0E94B4088A81809325
:101BA0000E04F8016481613069F080910E0440E018
:101BB000662361F040E0623011F440910E0480E051
:101BC00060E004C060910E0440E080E00E94A30D3C
:101BD000F801848190E0019663E070E00E940A348D
:101BE00084832396E4E00C94E333A3E0B0E0EBEFCE
:101BF000FDE00C94C7338C01DC011496EC91F0E00D
:101C0000E652FC4F44918091340480FF11C0453668
:101C100008F044E69E012F5F3F4F609136048091AB
:101C200035040E94B4084B8169818A810E94A30D0A
:101C3000F80184818F5F84832396E4E00C94E3337E
:101C400080912C02811119C082E390E02091E30081
:101C500027FD10C0EFE3FCE93197F1F700C0000069
:101C60000197A1F782E080932C020E94B90610929E
:101C70002A0403C081E080932C0281E090912C0221
:101C8000913011F080E0089508950E94200E88237D
:101C900059F0E0911504F0911604309729F0019065
:101CA000F081E02D0995089580E008950F931F932A
:101CB0000E94200E882329F00E9454081F910F9142
:101CC00008950E9454080091940210919502209169
:101CD000960230919702600F711F821F931FEECF03
:101CE00026982E9A249A2C9885E08A95F1F7000080
:101CF00083B124982C9A90EA9A95F1F790E026E027
:101D0000959587952A95E1F780959095817008952E
:101D1000CF93DF93682F81E06A3019F06D3031F492
:101D200080E00E94160FDF91CF91089580914306C5
:101D30009091440626E0FC01ADE3B6E001900D92DF
:101D40002A95E1F7603E08F458C026E0FC011192A4
:101D50002A95E9F7C0914306D091440646E050E049
:101D6000BE018DE396E00E9441349E012D53344024
:101D7000892B41F1C90145E0969587954A95E1F790
:101D800041E050E0BA0102C0660F771F8A95E2F782
:101D9000CB0160913B0470913C04862B972BB901D9
:101DA0006B5F7F4FE5E076956795EA95E1F702C0B6
:101DB000440F551F6A95E2F7842B952B90933C04B2
:101DC00080933B042A5F3F4F40913A04642F70E0B8
:101DD000C9010E94A533481B463010F4240F311D61
:101DE000211572E0370710F030E020E0235C3B4F14
:101DF000309344062093430696CFF6E06F9FB001E0
:101E000011246D50784F46E050E00E942B34A2CF51
:101E1000CF93DF93EC01FE018491811103C0DF9128
:101E2000CF9108950E94880E2196F5CFCF93382F39
:101E3000E0914306F0914406ED53F44020913A04BA
:101E4000622F70E0CF010E94A533281B822F33231D
:101E500061F066E00E94F033C82FC15010F4CF91BA
:101E6000089580E20E94880EF8CF9F01280F311D4F
:101E70002115324018F080E0F0E0E0E08E0F9F2F57
:101E8000911D835C9B4F9093440680934306E7CF5C
:101E900046E050E069E073E08EE193E00E94413457
:101EA000892B79F0E0911504F0911604309749F0F0
:101EB00082E080931E030480F581E02D8EE193E0A3
:101EC0000995109220031092210310922203109280
:101ED000230386E0EEE1F3E0A9E0B3E001900D9288
:101EE0008A95E1F7089580911D0490912902892B2C
:101EF0008093AA0190912A02992391F0892B8093D3
:101F0000AA0120E08CEA91E0FC013191CF0131116E
:101F10002F5FF1E0823B9F07B9F721110E943C0B34
:101F200048E050E061E272E08AEA91E00E944134C8
:101F3000892BA9F088E0EAEAF1E0A1E2B2E00190A1
:101F40000D928A95E1F7E0911504F091160430970F
:101F500031F00280F381E02D8AEA91E0099508953D
:101F6000ECEAF1E086E0DF011D928A95E9F7109234
:101F700029020E94730F0895AAE2B0E0E2ECFFE0AC
:101F80000C94C8338CE294E02091F100DC012D9395
:101F9000CD01B4E084339B07B9F780912D048330E1
:101FA00009F472C0B8F4813009F449C0823009F4F0
:101FB000B5C08091E80083FF8DC280912C04909180
:101FC0002D049A3008F086C2E92FF0E0EF55FB4C63
:101FD0000C941E348A3009F490C08B3009F471C01F
:101FE000893039F780912C04813219F780913004BF
:101FF00090913104009711F00297D9F68091E80092
:10200000877F8093E8008091E80082FF38C090913C
:10201000F3008091F200029731F48091F100813059
:1020200011F0863021F48091F10080931F0480919B
:10203000E8008B778093E8000E943307BACF809145
:102040002C04813A09F0B5CF8091E800877F809316
:10205000E8008091300490913104892B61F468E0AC
:1020600080E294E070E00E94DF078091E8008B77C7
:102070008093E8009ECF60E090E080E0F3CF809115
:102080002A048111C0CF95CF80912C04813A09F0A8
:1020900090CF8091300490913104892B09F089CF41
:1020A0008091E800877F8093E8008091E80080FFBE
:1020B000FCCF80917B018093F1008091E8008E77C6
:1020C000B9CF80912C04813209F073CF8091300414
:1020D00090913104892B09F06CCF8091E800877FC3
:1020E0008093E8000E94330780912E0480937B0147
:1020F00010921D040E94B00F5CCF80912C0481329D
:1021000009F057CF8091E800877F8093E8000E9414
:10211000330780912F0480931E044BCF80912C04B1
:10212000813A09F046CF8091E800877F8093E800EC
:102130008091E80080FFFCCF80911E04BCCF8038E6
:1021400099F0823809F0C6C1809130048F708730D1
:1021500008F0C0C18093E9008091EB0085FB8827DF
:1021600080F91092E90006C080912804909129041A
:10217000911182609091E800977F9093E80080939E
:10218000F1001092F1008091E8008E779FC18823C2
:1021900009F48DC1823009F09DC180912E04811116
:1021A00090C1809130048F702FEF280F263008F0F7
:1021B00091C18093E9002091EB0020FF82C1933010
:1021C00031F48091EB0080628093EB007AC19091B2
:1021D000EB0090619093EB0021E030E001C0220F12
:1021E0008A95EAF72093EA001092EA008091EB00CA
:1021F0008860EACF81116EC110912E041F77809103
:10220000E3008078812B8093E3008091E800877F52
:102210008093E8000E9433078091E80080FFFCCFA4
:102220008091E30080688093E30082E0111183E0F5
:1022300080932A044FC18058823008F04BC120910E
:102240002E0430912F042C3DE3E03E07A1F583E0FE
:102250008A838AE289834FB7F894DE01139620E0DF
:102260003EE051E2E32FF0E050935700E49120FF6D
:1022700003C0E295EF703F5FEF708E2F90E0EA3081
:10228000C0F0C7968D939D932F5F243159F74FBFB0
:102290008091E800877F8093E8006AE270E0CE01D9
:1022A00001960E94DF078091E8008B778093E80019
:1022B00011C1C096E7CF8091300490913104432F33
:1022C00055274330510509F44AC078F5413051058E
:1022D00009F47AC08BE590E0EEE5F7E04230510575
:1022E00009F0F8C02091E800277F2093E8002091B2
:1022F0003204309133048217930708F49C0140E0C4
:102300002115310509F065C0411163C08091E800D5
:1023100082FDC9CF80912A04882329F2853019F2E1
:102320008091E80083FFF2CFBECF4132510509F41E
:102330003CC04232510509F0CDC08330910508F010
:10234000C9C0FC01EE0FFF1FE556FE4F0190F08162
:10235000E02D88569E4FDC018C9190E01AC0332707
:1023600021303105D1F02115310561F022303105E0
:1023700009F0B0C0EBECF7E0E4918E2F90E0EBECCD
:10238000F7E007C0EFEEF7E0E4918E2F90E0EFEE7C
:10239000F7E0009709F49EC0A5CFEBEDF7E0E491DC
:1023A0008E2F90E0EBEDF7E0F4CF8330910508F04D
:1023B00091C0880F991FFC01EF55FE4F0190F081ED
:1023C000E02D89E090E08ECF82E190E0E9EBF7E04C
:1023D00089CF80912A04882309F465CF853009F4D8
:1023E00062CF8091E80083FD5ECF8091E80082FD9E
:1023F0008DCF8091E80080FF83CF9091F300809192
:10240000F2002115310519F08830910550F041E0B6
:10241000089709F040E08091E8008E778093E8000B
:102420006FCF44914093F1003196215031090196CC
:10243000E8CF803809F04EC08091E800877F809314
:10244000E80080912B048093F1009DCE811142C061
:1024500010912E041230F0F58091E800877F809370
:10246000E80010932B040E943307112311F084E03D
:1024700005C08091E30087FDFACF81E080932A04B4
:1024800042E061EC81E00E94520742E261EC84E0AC
:102490000E94520742E261EC82E00E94520742E24F
:1024A00060EC83E00E94520780912A0413C080915F
:1024B0002E04813079F481E0933009F080E080933C
:1024C00029041092E9008091E800877F8093E8005A
:1024D0000E9433078091E80083FF0AC08091E800E2
:1024E000877F8093E8008091EB0080628093EB000F
:1024F000AA96E3E00C94E43310921D040E94B00FFE
:102500002FEF84E39CE0215080409040E1F700C031
:10251000000088E19AE00FB6F894A89580936000D7
:102520000FBE90936000FFCF809339041092290270
:102530000E94730F089580913904982F96709630F9
:1025400021F488600E9494120895877FFBCF21E0D8
:1025500030E001C0220F8A95EAF720958091390476
:1025600082230E94941208959091200280958923DD
:1025700080932002282F277091F4282F082E000C1A
:10258000330B9217130659F090919B0292FF07C0EC
:102590008595859585950E94A71210922002089531
:1025A00021E030E001C0220F8A95EAF780913904DA
:1025B000822B0E949412089580932B02109229027C
:1025C0000E94730F0895882321F00E94420B0E94FD
:1025D000730F0895882339F090911D04982B9093E0
:1025E0001D040E94730F08958823E1F19CEF980F5A
:1025F000913A80F4ECEAF1E022EB31E09191891319
:1026000003C0DF0111971C922E173F07B9F70E94F4
:10261000730F089590E2980F983050F4877091E00E
:1026200001C0990F8A95EAF7892F0E94420BEFCFDC
:102630009BE5980F9330B8F48091C6019091C70143
:10264000892B81F01092C7011092C601E091150408
:10265000F0911604309731F00680F781E02D90E07C
:1026600080E009950895885A8731E0F78091C80184
:102670009091C901892BB1F31092C9011092C80140
:10268000E0911504F0911604309761F30084F18510
:10269000E02DE5CFCF93C82F8823A9F08CEF8C0FC6
:1026A000813A00F5ECEAF1E0DF018D91C81769F09D
:1026B00081E0A23BB807C9F76C2F8AEA91E00E943B
:1026C00060080E94730FCF9108958191C81303C0D1
:1026D000DF0111971C9281E0E23BF807B1F70E94FD
:1026E000730FEACF80E28C0F883068F7C77021E063
:1026F00030E001C0220FCA95EAF780911D04822BB9
:1027000080931D04DECF1F93CF93DF93182FEB012F
:102710000E944A138FE99FE00197F1F700C0000083
:102720002197C1F7812F0E94F412DF91CF911F9161
:1027300008950F931F93CF93DF93EC01FC01019059
:102740000020E9F78F0101501109C017D10728F0C7
:10275000DF91CF911F910F91089589910E94880E6A
:10276000F4CFB0E0A0E0E7EBF3E10C94C3336C01ED
:102770007B0164E670E088E70E940331EC0197FD7D
:1027800012C010E000E0F601E00FF11F849164E652
:1027900070E00E946F31EC01892B29F40F5F1F4F0D
:1027A0000E151F0581F70E94E531CE01CDB7DEB7CA
:1027B000E8E00C94DF33809113049091140491119C
:1027C00003C091E089270895882369F062E070E0F2
:1027D0008CED94E00E94B113892B19F080911304C1
:1027E00008951092130480911304EBCFCF93C091FE
:1027F0001304809114048823D1F00E945408605A75
:1028000075418F4F9F4F60930F0470931004809316
:10281000110490931204C11108C062E070E08AEDC7
:1028200094E00E94B113892B29F0C09113048C2FDE
:10283000CF91089581E080931304F7CFCF93DF9376
:10284000C7EBD2E060E0CE010E946B342196C11547
:1028500084E0D807B9F7DF91CF9108951F93CF9304
:10286000DF93122F8430E0F46A30D0F44830C0F4A3
:1028700090E1699FE001112450E0440F551FC40FFF
:10288000D51F90EA899FC00DD11D1124632FCE0161
:10289000C7960E946B34612FCE01C8960E946B349C
:1028A000DF91CF911F910895AF92BF92CF92DF92A7
:1028B000EF92FF921F93CF93DF938EEDC82E84E0AB
:1028C000D82ED0E07601C0E014C0F50125913491F6
:1028D000412F6C2F8D2F0E942E1482E0A80EB11C68
:1028E0001F5F183091F780E1E80EF11CCF5FCA300E
:1028F00019F0570110E0E9CFDF5F80EAC80ED11C64
:10290000D43001F7DF91CF911F91FF90EF90DF90CE
:10291000CF90BF90AF90089586E390E00E946B3413
:102920000895CF93C82F6FEF811163E283E390E0A6
:102930000E946B346FEFC11161E084E390E00E946C
:102940006B346FEFC11166E185E390E00E946B3458
:10295000CF91089580E00E94911460E070E0CB0177
:102960000E948C140E9454140E941E1481E00E9444
:1029700091140895CF93C0919B02C2FB992790F9BF
:10298000981791F080FBC2F9C0939B0260919A0264
:1029900084E090E00E946B346C2F82E290E00E9411
:1029A0006B3482E00E94B412CF9108950F931F936D
:1029B000CF93DF93843030F56A3020F5483010F53E
:1029C00020E1629F8001112450E0440F551F040F45
:1029D000151F30EA839F000D111D1124C801C796F1
:1029E0000E945734C82FD0E0DC2FCC27C801C896EE
:1029F0000E9457349E01282BC901DF91CF911F916E
:102A00000F91089590E080E0F8CF462F843040F495
:102A10007A3030F4683020F4672F0E94D61408957D
:102A200090E080E00895CF92DF92FF920F931F9382
:102A3000CF93DF936C010091390480912B02082B16
:102A4000C7E0D0E010E0FC2EC8010C2E02C0959526
:102A500087950A94E2F780FD0CC02197A0F7F12C2E
:102A60008F2DDF91CF911F910F91FF90DF90CF902D
:102A70000895B6018C2F0E9405150E94D209019776
:102A800061F3EECFCF93DF93EC010E941315BE01EB
:102A90000E9405150E94D209DF91CF910895FC0193
:102AA00083819481892B29F08081918189238F3FB3
:102AB00051F480E00895843FE1F717C0883EA8F004
:102AC000813FB9F712C0808191810E944215929591
:102AD0009F70963099F358F4925F9F70923048F748
:102AE000803F19F040F7883E20F781E008959A5F13
:102AF000F4CF86E390E00E945734682F70E090E0B6
:102B000080E0089583E390E00E945734833289F493
:102B100084E390E00E945734813059F485E390E0DB
:102B20000E94573491E0863109F090E0892F81703E
:102B3000089580E0FCCFCF92DF92EF92FF926B017D
:102B40007C010E949E08B701A60188E090E00E94E7
:102B50007D34FF90EF90DF90CF900895A3E0B0E038
:102B6000E4EBF5E10C94C533F82E062F142FE22E7A
:102B70008091340480FF3DC0E82FE695F0E0EF56E9
:102B8000FE4F908190930B048E7F8230B1F54536D5
:102B900008F044E69E012F5F3F4F602F8F2D0E946B
:102BA000B4084B8169818A810E94A30D809135040C
:102BB0008F1108C080913604801304C080913704BF
:102BC000811729F080910D04826080930D04F092AA
:102BD00035040093360410933704EE2051F06091D1
:102BE00034047091350480913604909137040E942A
:102BF0009B152396E6E00C94E1339230B9F61091E0
:102C00003704D4CFE4E3F4E043812AE0421B08F424
:102C100040E021E0628181810E94AE150895E4E3E5
:102C2000F4E043812AE0420F08F44FEF21E0628193
:102C300081810E94AE150895E4E3F4E0628121E110
:102C4000621B08F460E021E0438181810E94AE159F
:102C50000895E4E3F4E0628121E1620F08F46FEF8C
:102C600021E0438181810E94AE150895E4E3F4E000
:102C7000818121E04381628181510E94AE150895D6
:102C8000E4E3F4E0818121E0438162818F5E0E9470
:102C9000AE15089580913804882319F081508093EF
:102CA0003804609134047091350480913604909119
:102CB00037040E949B15089580913804833018F4DE
:102CC0008F5F809338046091340470913504809153
:102CD0003604909137040E949B150895E4E3F4E0D4
:102CE00083E0808311828FEF828384E68383148262
:102CF000ABE0B4E012968C911297836012968C939D
:102D000060817181828193810E949B15089568EE94
:102D10007EEF90E080E00E94893460E082E090E005
:102D20000E946B3460E083E090E00E946B3410926C
:102D30002B0260E084E090E00E946B3464E082E269
:102D400090E00E946B3460E085E090E00E946B347C
:102D500060E086E090E00E946B346FEF87E090E0E7
:102D60000E946B3440E050E0BA0188E090E00E949D
:102D70007D3460E08DE090E00E946B3440E050E0F4
:102D8000BA0188E190E00E947D3460E087E190E044
:102D90000E946B3440E050E0BA018CE190E00E9468
:102DA0007D3470E060E080E290E00E94893440E091
:102DB00050E0BA0188E190E00E947D3480E00E94FA
:102DC00091140E94AA1440E050E0BA018FE090E014
:102DD0000E947D341092110310921203109213037B
:102DE0001092140382E390E09093120380931103F6
:102DF00040911103509112036091130370911403D9
:102E000083E190E00E947D340895B0E0A0E0EBE023
:102E1000F7E10C94C4337901C82F880FDD0B4115FD
:102E20005105A9F0FE0193E0EE0FFF1F9A95E1F71F
:102E3000E65FFE4F81819281835D9D4F208130E06E
:102E40004217530708F49A01A9010E944E34CE019B
:102E50000E942F33D82E8823D1F001151105B9F027
:102E600083E0CC0FDD1F8A95E1F7FE01E65FFE4FA0
:102E7000438150E00417150708F4A801C65FDE4F30
:102E80006C817D81635D7D4FC7010E944E348D2D25
:102E9000CDB7DEB7E7E00C94E033A5E0B0E0E3E5C2
:102EA000F7E10C94C1338D83E62E5A01F22E6801AE
:102EB000809145068A3028F080E02596EAE00C945F
:102EC000DD338D818830C4F31A8219828A836B8343
:102ED0002C8363E070E0CE0102960E947A08898319
:102EE000E0923201F092450110E000E030E020E095
:102EF00044E050E0BE016F5F7F4F84E00E94051701
:102F00008823D1F24E2D50E030E020E0B50185E07D
:102F10000E940517882381F230E020E041E050E074
:102F2000BE016B5F7F4F86E00E940517882321F268
:102F30000F2D10E0960150E040E070E060E087E087
:102F40000E940517BACFA8E0B0E0E9EAF7E10C94D7
:102F5000C73385E0E4E3F4E0DE01119601900D92C1
:102F60008A95E1F780910B0490910C04A0910D04D7
:102F70008E839F83A887288540919002509191026B
:102F800060919202709193023FB7F8948091180477
:102F900090911904A0911A04B0911B043FBF841BA7
:102FA000950BA60BB70B84369105A105B10510F45E
:102FB0002223C1F010E000E030E020E048E050E0E3
:102FC000BE016F5F7F4F83E00E940517882369F081
:102FD0000E94540860939002709391028093920231
:102FE0009093930210920D0481E02896E4E00C94F3
:102FF000E333A4E0B0E0EFEFF7E10C94C733409186
:103000008C0250918D0260918E0270918F022FB7C9
:10301000F8948091180490911904A0911A04B09129
:103020001B042FBF841B950BA60BB70B11E0843636
:103030009105A105B10518F10E94560E6E5F7F4FF4
:103040008F4F9F4F69837A838B839C8310E000E0CE
:1030500030E020E044E050E0BE016F5F7F4F82E04F
:103060000E940517182F882351F00E94540860937E
:103070008C0270938D0280938E0290938F02812F29
:103080002496E4E00C94E333A6E0B0E0EAE4F8E14F
:103090000C94C5337B0101E010E09E012A5F3F4F95
:1030A00050E040E070E060E080E00E940517182FDB
:1030B000882309F453C0409188025091890260919D
:1030C0008A0270918B022FB7F89480911804909126
:1030D0001904A0911A04B0911B042FBF841B950BF7
:1030E000A60BB70B84369105A105B10548F465E040
:1030F00070E08EE292E00E947A089E81891771F159
:1031000005E010E09E012F5F3F4F50E040E070E08F
:1031100060E081E00E940517082F65E070E08EE214
:1031200092E00E947A0811E09E81981310E010232B
:1031300001F10E9454086093880270938902809381
:103140008A0290938B0285E0FE013196A3E8B2E0FB
:1031500001900D928A95E1F711E00BC085E0EEE257
:10316000F2E0DE01119601900D928A95E1F71111BE
:10317000EACF85E0E3E8F2E0D70101900D928A956D
:10318000E1F7812F2696E6E00C94E1330E94700E61
:103190008093090180910901882359F010927501EB
:1031A00081E2809376010E94200E81110E944332B9
:1031B000089581E2809375018AE2F3CF90E080E088
:1031C0000E946534883E9E4F19F40E94821508952E
:1031D00080E0089528E030E043E060E087EF0E945F
:1031E0002B300895ACE0B0E0E8EFF8E10C94C33385
:1031F0004F83588769877A878B879C878091E702FE
:10320000882399F00E94EA1880E50E94A3302AEBF7
:103210002A95F1F700C00E94BB3088789927803842
:10322000910509F484C00E94D3300E94200E8823A7
:1032300009F468C00E9454080091C1011091C201B4
:103240002091C3013091C4016B017C01C01AD10AE5
:10325000E20AF30A970186010830110521053105BC
:1032600008F450C06093C1017093C2018093C30100
:103270009093C4010091F5021091F6022091F7029B
:103280003091F802601B710B820B930B6233710556
:103290008105910580F41092EB021092EA021092DF
:1032A000ED021092EC021092EF021092EE021092D8
:1032B000F1021092F0021091F4020E94700E11239C
:1032C00009F462C0BE01695F7F4F8AEE92E00E94FE
:1032D000CE0B0091F4021091E7020E94700E0117CC
:1032E00009F47CC0BE01695F7F4F8EEE92E00E94C0
:1032F000CE0B86E0FE013796A3E0B3E001900D927D
:103300008A95E1F786E0FE013796DE01119601907D
:103310000D928A95E1F729813A814B815C816D811B
:103320007E8180E090E02C96E8E00C94DF330E94F0
:10333000BB300E94BB307C010E94BB3020E0E22AFF
:10334000F82A0E94BB308C010E94BB3020E0022B87
:10335000182B0E94D330F894B7018091EA02909123
:10336000EB020E949B0C9093EB028093EA02B8015F
:103370008091EC029091ED020E949B0C9093ED02E3
:103380008093EC02789451CF8091EA029091EB0205
:1033900081382FEF9207D4F080389105CCF48195D5
:1033A00089878091EC029091ED0281382FEF92078E
:1033B0008CF08038910584F48A871092EB02109289
:1033C000EA021092ED021092EC0283CF81E8E7CF7F
:1033D0008FE7E5CF81E8F0CF8FE7EECF8091EE0267
:1033E0009091EF0281382FEF9207D4F08038910549
:1033F000CCF4819589878091F0029091F102813817
:103400002FEF92078CF08038910584F48A87109210
:10341000EF021092EE021092F1021092F00269CFC8
:1034200081E8E7CF8FE7E5CF81E8F0CF8FE7EECFF8
:10343000CF93DF93D82FC62F0E94EA188D2F806874
:103440000E94A3308C2F0E94A3300E94D3308FECB7
:1034500092E00197F1F700C00000DF91CF9108954D
:10346000682F893708F068E76093F20291E0909343
:10347000F3029091E702992359F06150811101C044
:1034800064E08FE00E94181A60E080E50E94181A3C
:103490000895FB0180810E94301A08959091F202F4
:1034A000911101C095E0282F880F330BA901490F16
:1034B000511DCA011816190614F081E090E00E940F
:1034C000301A0895CF93C82F0E94EA188C2F0E94BB
:1034D000A3308FE792E00197F1F700C000000E944F
:1034E000BB30C82F0E94D3309AE69A95F1F700C0FE
:1034F0008C2FCF910895CF93DF930E942330879A2A
:103500000E94EA186AE58AE30E94181A2FEF80E702
:1035100092E0215080409040E1F700C0000082E03E
:103520000E94621A83E00E94621A84E00E94621A7A
:1035300085E00E94621A86E00E94621A60E080E1E3
:103540000E94181A80E00E94621AD82F81E00E941F
:10355000621AC82F0E94D330D23419F481E0C130EE
:1035600009F080E081708093E702882341F064E0F5
:103570008FE00E94181A60E080E50E94181ADF911F
:10358000CF9108951F920F920FB60F9211242F938F
:103590003F934F935F936F937F938F939F93AF93DB
:1035A000BF93CF93DF93EF93FF93D091E900DF7048
:1035B0008091EC00C82FC17080FDC0E81092E90036
:1035C0008091F000877F8093F00078940E94BC0F78
:1035D0001092E9008091F00088608093F000CD2B7C
:1035E000CF70C093E900FF91EF91DF91CF91BF9130
:1035F000AF919F918F917F916F915F914F913F918B
:103600002F910F900FBE0F901F9018951F920F9241
:103610000FB60F9211242F933F934F935F936F93A5
:103620007F938F939F93AF93BF93EF93FF9380917B
:10363000E10082FF09C08091E20082FF05C0809115
:10364000E1008B7F8093E1008091DA0080FF24C04D
:103650008091D80080FF20C08091DA008E7F809317
:10366000DA008091D90080FF9DC080E189BD82E1B0
:1036700089BD09B400FEFDCF81E080932A048091CA
:103680001C04811109C00E94B9060E948407809120
:10369000E20084608093E2008091E10080FF17C027
:1036A0008091E20080FF13C08091E2008E7F8093C2
:1036B000E2008091E20080618093E2008091D80076
:1036C00080628093D80019BC85E080932A048091A1
:1036D000E10084FF2BC08091E20084FF27C080E1DD
:1036E00089BD82E189BD89B5982F917080FFFBCF9C
:1036F0008091D8008F7D8093D8008091E1008F7EEB
:103700008093E1008091E2008F7E8093E2008091BF
:10371000E20081608093E20080912B04882309F409
:1037200047C084E080932A0480912A048091E100BC
:1037300083FF27C08091E20083FF23C08091E100D6
:10374000877F8093E10082E080932A0410922B040B
:103750008091E1008E7F8093E1008091E2008E7F76
:103760008093E2008091E20080618093E20042E079
:1037700060E080E00E9452078091F00088608093B2
:10378000F000FF91EF91BF91AF919F918F917F9149
:103790006F915F914F913F912F910F900FBE0F90BE
:1037A0001F90189519BC10922A0410921C0474CF13
:1037B0008091E30087FD93E090932A04B5CF78943D
:1037C0001F921FB61F9211248F939F93AF93BF93A5
:1037D0008091180490911904A0911A04B0911B04CF
:1037E0000196A11DB11D8093180490931904A09314
:1037F0001A04B0931B04BF91AF919F918F911F90BA
:103800001FBE1F9018959C014FB7F8948091180423
:1038100090911904A0911A04B0911B044FBF821B10
:10382000930B08952FB7F894809118049091190480
:10383000A0911A04B0911B042FBF08950E94200E7E
:10384000882319F00E94121C08950E94560ECB0185
:10385000089560913404669570E041E050E08AE795
:1038600091E00E943434892B19F481E080930C0498
:103870000E941E1C909306048093050480910D0401
:10388000846080930D0408959091340490FF31C0BA
:10389000917081112FC092609093340480910D0437
:1038A000816080930D04662351F06091340470911F
:1038B000350480913604909137040E949B156091E5
:1038C0003404669570E041E050E08AE791E00E94A0
:1038D0003434892BB1F00E94970881E0809308046A
:1038E00020E04091370460913604809135040E94B5
:1038F000AE150895873010F09C60CECF880F982BBE
:10390000CBCF0E94291CE9CF809134048695815049
:1039100009F486E061E00E94441C0895809134041B
:1039200086958F5F873008F081E061E00E94441C3B
:1039300008958091340480FF08C0869582588F775F
:10394000833018F40E948E1C089561E082E00E948A
:10395000441C089583E00E94D0120E94121C909390
:103960001C0380931B0382E080931D030895AEE146
:10397000B0E0EDEBFCE10C94C53340911E03509197
:103980001F03609120037091210380912203909185
:1039900023030E94F21820931E0330931F034093C9
:1039A000200350932103609322037093230386E046
:1039B000EEE1F3E0DE01179601900D928A95E1F7B2
:1039C00086E0FE013796DE011D9601900D928A95E4
:1039D000E1F786E0FE013D96DE01119601900D9221
:1039E0008A95E1F786E0FE013196AEE1B3E0019001
:1039F0000D928A95E1F786E0EEE1F3E0DE0159965B
:103A000001900D928A95E1F786E0FE017996DE013C
:103A1000179601900D928A95E1F70B8DEC8C9E2DF7
:103A2000902B80911D03992309F416C1002E000CE0
:103A3000110B0E2C000CFF088230F1F188F481305C
:103A400009F4E1C00E94121C90931C0380931B0395
:103A500081E080931D031092100310920F0332C077
:103A6000833099F1843071F7C701F7FE04C08827CD
:103A700099278E199F09880F991F980117FF04C075
:103A800022273327201B310B281739070CF042C09F
:103A90008091170390911803E80EF91E40E0F7FE9D
:103AA0000DC17EECE7167FEFF7067CF1F09218036C
:103AB000E092170380E041C00E94121C90931C0307
:103AC00080931B0380E020E069C0C701F7FE04C0BB
:103AD000882799278E199F09980117FF04C022276C
:103AE0003327201B310B280F391F80911903909128
:103AF0001A03821B930B90931A03809319031816D1
:103B0000190604F780E020E045C022E3E20EF11C34
:103B10004E5CC5CF8091150390911603080F191FB5
:103B200080E017FFD5C00E3C9FEF19070CF464C06E
:103B3000109316030093150340E0082E000C990B18
:103B400062E370E00E940A3480911403811158C02E
:103B500081E090E0689F9001699F300D789F300D63
:103B60001124642F772761950CF47095CB0162E3E3
:103B700070E00E940A348091130341E050E08823F2
:103B800011F04FEF5FEF649FC001659F900D749F30
:103B9000900D1124F12CE12C10E000E00987EA8659
:103BA0008B872C8786E0FE013796DE011196019007
:103BB0000D928A95E1F786E0FE013196DE0153967B
:103BC00001900D928A95E1F786E0FE017396DE0181
:103BD000179601900D928A95E1F786E0FE013796DF
:103BE000AEE1B3E001900D928A95E1F70E94480F93
:103BF0006E96E6E00C94E1330E5C1F4F8E5C91CF25
:103C00008FEF9FEFA7CFC701F7FE04C08827992742
:103C10008E199F09980117FF04C022273327201B04
:103C2000310B820F931F20910F0330911003820FED
:103C3000931F9093100380930F03209111033091F1
:103C40001203821793070CF43DCF109210031092C9
:103C50000F030E94AA1C36CF823071F048F48130E5
:103C600019F11092100310920F0310921D034ACF06
:103C7000853008F447CFF5CF80911B0390911C034A
:103C80000E94031C893E934008F43CCF10921D0310
:103C900083E00E94A712109218031092170310924B
:103CA0001603109215032ECF80911B0390911C03D5
:103CB0000E94031CC39708F425CFD3CF83E3E816F3
:103CC000F1040CF4F3CE62E3E61AF1084253E7CEB6
:103CD000033311050CF42CCF02531109825321CF69
:103CE000A2E1B0E0E6E7FEE10C94BA338C01DC011E
:103CF00013968D919C911497892B39F08C91119684
:103D00009C9189238F3F09F013C66296E1E10C94E0
:103D1000D6330E941315F82E682F89819A810E944C
:103D2000870B69817A818F2D0E9405157C01F8012E
:103D30008281882309F4EFC5C70182519F454097CE
:103D400008F0C7C58FEF93E00E945734811128C057
:103D5000FEEEEF0E57EB852E52E0952EE11033C0AC
:103D60001C821B82442443944AE0342E74018FEF5A
:103D7000E81AF80AC4010E94573489831A828823FA
:103D800079F09FEF980F933060F58A83498292E033
:103D9000890E911CC7010E9457348B83811122C068
:103DA00080912002877009F4B0CFD80112968C91CF
:103DB000882309F4AACF80919B0282FFA6CF82E0DC
:103DC0000E94B412A2CF811424E0920649F3C401E8
:103DD0000E945734811101C0EA943FEF831A930A7D
:103DE000BDCF4701DE0111967D01F701208122231D
:103DF00009F4BCCF213009F06DC0918182819130EE
:103E000061F4F2E0EF0EF11C65E070E0893311F42B
:103E100060E570E00E94831307C0923039F522E01C
:103E2000E20EF11C0E944A13FFEFEF1AFF0A8FE91E
:103E30009FE00197F1F700C00000AFE9BFE01197E4
:103E4000F1F700C00000EFE9FFE03197F1F700C0A3
:103E500000008FE99FE00197F1F700C00000AFE993
:103E6000BFE01197F1F700C00000BFCF933031F4ED
:103E700032E0E30EF11C0E94F412D6CF943021F010
:103E80008FEFE81AF80AD0CF92E0E90EF11C30E08B
:103E900020E0B7016F5F7F4FD70111964C9180539F
:103EA000990B8A30910558F02150310908F4BCCFA4
:103EB000EFE9FFE03197F1F700C00000F5CF329E47
:103EC000F001339EF00D11249C012E0F3F1F842F13
:103ED0007B01DFCFE22FF0E0E957FE4F5490822FB5
:103EE00086958695869590E0FC01E958FE4F649092
:103EF0002770712C022E02C0759467940A94E2F721
:103F000031E063227724FC01E959FE4FA490B12CE3
:103F1000022E02C0B594A7940A94E2F7A1E0AA2267
:103F2000BB24FC01E95AFE4FC490D12C02C0D594A9
:103F3000C7942A95E2F7B1E0CB22DD246114710425
:103F400019F081EE0E944A13A114B10419F086EE13
:103F50000E944A13E9E365E070E05E1202C060E58A
:103F600070E0852D0E948313A114B10419F086EE30
:103F70000E94F4126114710419F081EE0E94F4128F
:103F8000C114D10409F450CF65E070E08CE242CF57
:103F900081E00E94D0120E949B1202CF81E00E9419
:103FA000A712F9CF82E0F5CF86E0EEE1F3E0DE0183
:103FB0001D9601900D928A95E1F786E0FE013D96EF
:103FC000DE01179601900D928A95E1F7FE8481E05B
:103FD00090E001C0880F2A95EAF7D80112962C913B
:103FE000222311F1F82A83E080931D038EE190E0F3
:103FF00090931A03809319030E94AA1CF88686E006
:10400000FE013796DE01119601900D928A95E1F737
:1040100086E0FE013196AEE1B3E001900D928A9503
:10402000E1F70E94480FBCCE8095F822E5CFF80159
:104030008281882321F084E080931D03B1CE0E9409
:10404000AA1CAECED80112968C91882309F4A8CE72
:10405000809111039091120305969093120380931F
:104060001103409111035091120360911303709159
:10407000140383E190E00E947D3492CEF8018281A6
:10408000882309F48DCE8091110390911203059736
:104090008530910514F785E090E0DFCFD8011296C6
:1040A0008C91882309F47CCE8091130391E08927B9
:1040B00080931303D6CFF8018281882309F470CE50
:1040C0008091140391E0892780931403CACF8281E1
:1040D0008823D9F080911D038350823008F4AFCF3C
:1040E000B3EEEB16F10491F1E0EEEE16F10471F18E
:1040F00010921D0383E00E94A712109218031092E1
:1041000017031092160310921503C7019A95811593
:104110009F41F8F4F701FF27D80112968C91E43FF4
:10412000F10540F0E93FF105B0F0E83BBDE5FB07E4
:1041300009F483C0882309F43FC0E15BFD45EA3000
:10414000F105D0F5E555FB4C0C941E340E94AA1CD9
:10415000DCCFF701E1CFE45FF10921E030E001C0FD
:10416000220FEA95EAF796E0EEE1F3E0DE0117961A
:1041700001900D929A95E1F796E0FE013796DE01E7
:104180001D9601900D929A95E1F79885882389F103
:10419000292B2E8786E0FE013D96DE0111960190C7
:1041A0000D928A95E1F786E0FE013196AEE1B3E02B
:1041B00001900D928A95E1F7F8018281F6E1EF1600
:1041C000FCE5FF0609F067C0882309F44FC0809121
:1041D0001D048A7A91E009F490E09093C50169E2A8
:1041E000811165E38AEA91E00E9460080E94730FE2
:1041F000D7CD20952923CDCF80E00E94301A109290
:10420000F902CECD4091F2025091F90250FB47F9EC
:104210005695537060E070E08FE090E02CCF81E025
:104220000E944E1ABDCD8FEFFBCF8AE0F9CF86EF0B
:10423000F7CF9091F40281E089270E94500CB0CD15
:104240008091F902811101C084E08F5F18160CF093
:1042500081E0883008F087E08093F902A1CD809159
:10426000F902811101C084E08150F0CF8091C50135
:1042700081110FC089E2ECEAF1E022EB31E091918B
:10428000891303C0DF0111971C922E173F07B9F75E
:10429000ADCF85E3F0CF811108C180911D048272FA
:1042A0002AECE2162CE5F20609F4EFC008F07CC017
:1042B00095ECE9169CE5F90609F4D3C008F059C05D
:1042C000B3ECEB16BCE5FB0609F4C1C008F0C4C0B2
:1042D000F2ECEF16FCE5FF0609F48DC0F8018281CF
:1042E000E080F180882309F41EC1C7010E941315E4
:1042F000D82E682FC7010E94870BB7018D2D0E9411
:1043000005150E94D2097C01882ED8011296CC9006
:1043100012971596BC90B2943FE0B3228091200290
:104320008770C1F0AC2CCC20B1F08F2D807F803411
:1043300021F080E28E0D883068F080919B0282FF30
:1043400009C082E00E94B412809120028770AA24E2
:10435000A3948111A12C9F2C92942FE09222BBE078
:10436000B91508F44FC1E92DF0E0EB54FB4C0C9467
:104370001E3427ECE2162CE5F20609F47CC008F4A2
:1043800075C098ECE9169CE5F90609F479C042E09D
:1043900056E16FE076E1A9ECEA16ACE5FA0609F021
:1043A0009DCF0E949008FCCCBEECEB16BCE5FB0652
:1043B00009F475C090F4FCECEF16FCE5FF0609F477
:1043C00069C04AE456E16CE576E12DECE2162CE595
:1043D000F20638F361E081E037C035EDE3163CE5E5
:1043E000F30609F45FC008F4DBCC9DE5E916F90695
:1043F00009F4D6CC73CF8091340480FF20C08E7F27
:1044000080933404609134047091350480913604B3
:10441000909137040E949B150E94970880910D048B
:10442000816080930D04AFEFB0E7E2E0A150B040AF
:10443000E040E1F700C000000E94580DB1CC81605F
:104440008093340461E086950E94441CA9CC44E822
:104450005CE16EE87CE1A5CF4EE85CE164E87CE1DC
:10446000A0CF46E356E160E476E19BCF40E456E11D
:1044700066E376E196CF4CE156E169E276E191CFD1
:1044800049E256E16CE176E18CCF4FE056E162E023
:1044900076E187CF4CE556E16AE476E182CF0E946F
:1044A000991C7ECC61E086E0CFCFFAE5EF16FDE502
:1044B000FF06A9F168F4E1143CE5F306B9F08EEDCE
:1044C000E8168CE5F80609F009CF0E9487160CC0A3
:1044D0009CE5E9169DE5F906C1F018F1B7EAEB167F
:1044E000BDE5FB0609F0FACE0E947C1210921D0475
:1044F0000E94B00FEFEFF4E32CE0E150F0402040D9
:10450000E1F700C000000E94430880919B0282FBFB
:10451000882780F991E089270E94BA14DFCE81E0D4
:10452000FBCF80E0F9CFC7010E94530BD82EE5CE18
:10453000EF2DEF70DE2E8F2D807F19F0D29490EF4B
:10454000D922CC20B9F0DD2069F080E28E0D8830D0
:1045500010F0811009C080911D04D82AD0921D044A
:104560000E94730F8E2D4CC080912902D82AD092C0
:104570002902F6CF8E2D0E94F412DD2009F442C0EC
:1045800080E28E0D883010F0811004C08D2D0E94C5
:10459000420B06C0D09480912902D822D0922902E1
:1045A0000E94730F2FC0FF2DFF70DF2E8F2D807F95
:1045B000803219F0D29480EFD822882089F021E04F
:1045C000821609F468C0CC2009F472C0BB2009F43B
:1045D00068C0F801858180FFC5CF8F70858361C079
:1045E00020919B0222FD35C0CC2069F1DD2039F0FD
:1045F00080911D04D82AD0921D040E94730F80E080
:104600000E944A13E92DE850FF0B349710F40E94E2
:10461000450EAA2009F479CB8091200280FD75CB4C
:10462000D80112961C928595859585950E94D01289
:10463000C8010E94701E8091200285958595859500
:104640000E94A71262CB80E00E94F412DD20D1F21A
:104650009DCFCC2099F090912A02892F8D29B110FD
:1046600003C00E94EA12CECF31E0B312FACF22FF8C
:10467000C9CF981739F280932A02C4CFB11006C06F
:104680000E943C0B8D2D0E94E312BCCF81E0B81636
:1046900009F4B8CFF5CFCC2031F095E09B1508F4A4
:1046A000B1CF8D2DDECFA4E0AB1508F4ABCFEACFB0
:1046B000BB2041F3F9E38F1204C12FEF37EE83E003
:1046C000215030408040E1F700C000008E2D0E9454
:1046D000F41298CF8F2D837091F5C11093CF4E2D8A
:1046E000429546954770440F440F8E2D8F70042ECF
:1046F00001C0880F0A94EAF72E2D2071E4FE07C04E
:104700002FE030E001C0220F4A95EAF720953F2DB7
:10471000369536953370323069F050F440912B0263
:10472000313029F0822B84230E94DC126BCF842B42
:10473000822BFACF282B80912B028227F5CF8695EA
:10474000CC2011F08F2D8170882309F45BCF4E2D82
:10475000429546954770440F440F8E2D8F70042E5E
:1047600001C0880F0A94EAF72E2D2071E4FE07C0DD
:104770002FE030E001C0220F4A95EAF720953F2D47
:10478000369536953370323069F050F440913904E3
:10479000313029F0822B84230E94941233CF842B52
:1047A000822BFACF282B809139048227F5CFBF2D99
:1047B000BF70FB2ECC2029F08B2F0E94D0128E2DA3
:1047C00050CF8E2D0E94E3128F2D0E94A7121ACF78
:1047D0008E2DE2EF8E16B1F1E81570F0F0EF8F1626
:1047E000D1F021EF821691F0CC2009F45EC0B11017
:1047F000B9CE8F2D8F712AC033EF831651F194EF0C
:104800008912F2CF80919B0282FD2FC08F2D8F7174
:10481000CC20D9F21BC0CC2081F0A4E0AB1508F469
:10482000F1CE2F2D2F7181E090E001C0880F2A95E5
:10483000EAF7909139048927AFCFB5E0BB1508F4AA
:10484000E1CEEFCF8F2D8F71C110BFCF0E94D0125C
:10485000D9CE80E0CC2009F49FCF9F2D9F7181E0BD
:1048600001C0880F9A95EAF797CFCC2099F0EF2DE9
:10487000EF71FE2E8E2F0E94D01280919B0282FF3C
:1048800007C0F8E0FF9EC0011124836080932002DE
:104890008F2DDCCF81E00E94B41221E02B1508F0AF
:1048A000B1CE82E00E94B412ADCEBB2079F0893344
:1048B00041F43FEF87EE93E0315080409040E1F7C4
:1048C00003CFAFE1BEE41197F1F7FECE8F2D8F71CC
:1048D0007CCFB0E1EB16BFE5FB0609F459CBE1E173
:1048E000EE16EFE5FE0609F45DCBF0920003E092D0
:1048F000FF02F8018081918190930203809301036C
:10490000970130582A30310508F0E1CBF901EF5317
:10491000FB4C0C941E34F0E1EF16FFE5FF0609F4A2
:104920003DCB21E1E2162FE5F206F9F682E037CB26
:1049300085E0F801DE01119601900D928A95E1F76C
:10494000D80112962C9189819A812111E2C90E9485
:10495000530BF82EE6C91F93CF93DF938091ED019F
:10496000807F09F049C08091EA01882309F444C09E
:1049700080911F02D091EE016091E8017091E901F0
:10498000A091EB01B091EC01C62FC72316E0D81718
:1049900099F190E0109711F0CF3F19F401968770CC
:1049A000F6CF189F9001199F300D1124F901E151A4
:1049B000FE4F41814713F2CF40814613EFCF428132
:1049C0004111ECCF438154814A1B5B0B483C51059C
:1049D00028F78091ED018F7080618093ED01F901DE
:1049E000EC50FE4F80818F708061808388EE91E073
:1049F0000E94701E0E94490BDF91CF911F91089574
:104A0000A1E1B0E0E6E0F5E20C94C1338C0185E071
:104A1000F801DE011D9601900D928A95E1F7F801EB
:104A2000E28088EEA82E81E0B82E6091EB017091B3
:104A3000EC016115710509F426C19091E8014091DE
:104A4000E901892F84238F3F09F41DC12081318121
:104A5000C380D480F090EA01F601E61BF70BFF203B
:104A600009F4DCC08091ED01582F507FE83CF1053E
:104A700008F09FC051116BC0FE2C431314C0921359
:104A800012C0E11010C08F7080618093ED01C501EC
:104A90000E94701E8091ED01F80185838F2D619633
:104AA000EAE00C94DD33C114D10429F0822F832372
:104AB0008F3F09F003C180E0F82FF170DF2E80FFF7
:104AC0003CC080911F024091EE0156E0841315C056
:104AD0002D873E878D859E850E944215292F229520
:104AE0002F702230F0F0243018F59F70F1F0F801AB
:104AF0009581907FD1F4D12C1EC090E0589FF00199
:104B0000599FF00D1124E151FE4F6181361306C00B
:104B10006081261303C06281E6120FC00196877080
:104B2000D5CF9F7011F0882331F3805E883018F361
:104B3000C8010E94701EFD2CB1CFEE2009F4AECF4B
:104B40008091ED0181608093ED01F12CA7CF43139B
:104B500006C0921304C0F801EE2009F479C0C80120
:104B60000E944F15882309F1EE20F9F08091ED01A4
:104B7000803270F02091E8013091E90138872F836D
:104B80001986DB86CA868C87CE0107960E94701E26
:104B900086E0F801A8EEB1E001900D928A95E1F768
:104BA0000E94AB24FF24F39479CFC8010E94701EA9
:104BB000F9CF51110AC088EE91E00E94701E86E084
:104BC000F50111928A95E9F7C0CF43130FC09213F4
:104BD0000DC0E1100BC0F8018583C8010E94701E52
:104BE00086E0F50111928A95E9F758CFC8010E9435
:104BF0004F158823D1F2EE20C1F28091ED01803271
:104C000038F22091E8013091E9013A8329831B822F
:104C1000DD82CC828E83CE010196B8CFE83CF105CF
:104C2000F8F6FE2CEE2009F243131FC092131DC0AC
:104C30008091ED0180FD10C0982F907F69F0F80100
:104C40008583903F31F0982F907F905F8F70892BF4
:104C50008583C8010E94701E86E0F801A8EEB1E0CD
:104C600001900D928A95E1F719CFC8010E944F1566
:104C700081118ECF8091ED0181608093ED01C8019B
:104C80000E94701E0BCFEE2009F48FCFC8010E9446
:104C90004F15F82E882309F488CF86E0F801A8EE96
:104CA000B1E001900D928A95E1F78091E801909131
:104CB000E9010E9442150E94AB24F0CE81E08E25CE
:104CC000FBCEA7E1B0E0E7E6F6E20C94C8334B8BED
:104CD0005C8B6D8B7E8B8F8B6111109229021A8AEF
:104CE000198A85E0FE017396DE011D9601900D92F2
:104CF0008A95E1F786E0FE013D96DE011796019068
:104D00000D928A95E1F7CE0107960E94002588232F
:104D100059F016E080911F029091EE01891345C071
:104D20006796E3E00C94E43386E0FE013796DE01FB
:104D3000119601900D928A95E1F78A859B85892BC2
:104D400041F38F81988589238F3F19F32091EE01DC
:104D500030E0C90101968770992740911F024817DA
:104D6000190681F410921D040E94B00F1092EE01FA
:104D700010921F0286E0E8EEF1E0DF011D928A95B5
:104D8000E9F7C7CF96E0929FD001939FB00D112411
:104D9000A151BE4FFE01319601900D929A95E1F717
:104DA0008093EE010E94490BB4CF819FC001112472
:104DB00081519E4F0E940025882309F4B1CF809134
:104DC0001F0290E001968770992780931F02A2CF5F
:104DD000B0E0A0E0EEEEF6E20C94BD3335E0C32E79
:104DE00031E0D32E46E4842E46E0942E00E011E01C
:104DF000712CAA24A394B12CD8018D918D010E940D
:104E0000AE0C00C0E401688025E0E22E21E0F22E25
:104E1000F701D0E0C0E04191A42FA295AF70B0E0BF
:104E200090968C9195010C2E01C0220F0A94EAF7FE
:104E300090E04F7002C0959587954A95E2F780FD06
:104E40008EC0622A2196C430D10529F7F801319726
:104E500080810E94C20CA0EAAA95F1F7F40180813A
:104E6000861519F0608277247394FFEF8F1A9F0ADA
:104E700021E00530120709F0BFCF01E010E0D701B3
:104E80008D917D010E94AE0C00C0C8010C2E01C0A6
:104E9000880F0A94EAF7782FE6E4F6E090E0A92E6E
:104EA00091E0B92E682F6095D5012D915D01822F7B
:104EB00082958F7090E0DC0190968C91AF013081EB
:104EC00090E02F7002C0959587952A95E2F780FDB6
:104ED00049C0872F832B80833196DA018C91381754
:104EE00011F077247394CA14DB04F1F6F7013197BB
:104EF00080810E94C20CB0EABA95F1F72196C830C1
:104F0000D10509F0BCCFC0919902772071F181E001
:104F10008093B4010E94121C9093B3018093B2015C
:104F20008091B2019091B3010E94031C059708F192
:104F3000D0E0CE52DD4F45E050E066E476E0CE01B1
:104F40000E944134892B41F085E0E6E4F6E0DE0181
:104F500001900D928A95E1F71092B4010AC0209554
:104F6000622270CF862F8323B6CF8091B401811146
:104F7000D7CF0E94200E182FE0919902811193C083
:104F8000F0E0EE52FD4F85E0AEE2B2E001900D920E
:104F90008A95E1F765E070E08EE292E00E947A087F
:104FA00080932D02C0903302D0903402E0903502FD
:104FB000F09036028091B5019091B601A091B701B1
:104FC000B091B801C816D906EA06FB06D1F0C09226
:104FD000B501D092B601E092B701F092B8010E94FB
:104FE000200E81110EC00E945408C61AD70AE80A82
:104FF000F90AC0929402D0929502E0929602F09241
:10500000970280913E02882379F180FF0DC0809144
:1050100037029091340480FF2DC091609093340446
:1050200060E086950E94441C80913E0281FF09C089
:1050300020E040913A0260913902809138020E944A
:10504000AE1580913E0282FF06C080913D0288230A
:1050500039F10E94291C80913E0283FF03C081E048
:105060008093080410923E02872DCDB7DEB7EEE0A4
:105070000C94D9339E7F909334040E9497088091BA
:105080000D04816080930D04CFEFD0E7E2E0C150C2
:10509000D040E040E1F700C000000E94580DC4CFAE
:1050A0000E949708D8CFABE4B6E085E0ED011992F5
:1050B0008A95E9F7CE2FD0E0CE52DD4F809145069C
:1050C0008A30A8F564E478E1CE010E94D70C8823E9
:1050D00009F449C069EF77E1CE010E94D70C88231B
:1050E00009F441C063EA77E1CE010E94D70C88231E
:1050F000D1F11092450681E08093BB01C0919802E6
:10510000D0E0CE52DD4F45E050E06BE476E0CE01DA
:105110000E944134892B09F4A7CF85E0EBE4F6E047
:10512000DE0101900D928A95E1F7712E9DCF80915D
:10513000B9019091BA010E94031C843F914010F67E
:105140008091BB01882309F48FCF1092BB01E091BD
:105150009802F0E0EE52FD4F95E0DF011D929A9526
:10516000E9F7782E81CF809145068F3F31F08F5F30
:10517000809345068A3008F4BECF0E94121C90939B
:10518000BA018093B901DCCF1F921FB61F92112480
:105190008F939F93AF93BF9380911704811113C096
:1051A0008091180490911904A0911A04B0911B04E5
:1051B0004196A11DB11D8093180490931904A093EA
:1051C0001A04B0931B04BF91AF919F918F911F90D0
:1051D0001FBE1F901895CDB7DEB7AE970FB6F894E7
:1051E000DEBF0FBECDBF85B7806885BF85B780683D
:1051F00085BF84B7877F84BF0FB6F894A895809148
:105200006000886180936000109260000FBE80E8AB
:1052100090E00FB6F89480936100909361000FBE08
:105220008EE599E09093A9018093A8010E94B906A8
:105230000E9484078091E20084608093E200789469
:1052400080912A048823A1F01091E9001F709091A9
:10525000EC00892F817090FD80E8182B1092E900F6
:105260008091E80083FD0E94BC0F1F701093E9003D
:1052700082E084BD93E095BD9AEF97BD80936E0068
:105280001092940210929502109296021092970238
:105290000E948215811102C00E94AA140E94C618A1
:1052A000809109010E94C618809105010E94C20CDC
:1052B000809106010E94C20C809107010E94C20CDD
:1052C000809108010E94C20C00E011E085E0E82E08
:1052D00081E0F82ED8018D918D010E94C20CE0165C
:1052E000F106C1F78091090195E0811190E090935A
:1052F000990285E0891B809398020E94200E8111FB
:1053000002C00E944632E6E4F6E080E596E0A2EDB7
:10531000B2E011921D928E179F07D9F70E94DE18F6
:10532000811102C00E94871682E090E00E945734EB
:1053300080939F0284E090E00E945734182F82E20D
:1053400090E00E945734982F812F90939B02809376
:105350009A020E94E826EFE3FCE93197F1F700C0DA
:1053600000000E94E8268091D20280FF08C06FEF03
:105370007FEF90E080E00E9489340E94430883E040
:1053800090E00E9457340E94DC120E94200E882375
:1053900009F459C180E08093CD0280E880933A04FB
:1053A0000E94FD306DE070E08AE192E00E94B1134E
:1053B000892BE9F58091CD0263E070E081FD45C164
:1053C00087E192E00E94B113892B89F56DE070E0CE
:1053D00087E092E00E94B113892B49F50E9454089E
:1053E000605A75418F4F9F4F60930F047093100464
:1053F0008093110490931204EDE3F4E080E092E0D6
:10540000DF019C011D9221503040E1F7F0934406EA
:10541000E09343068FEF9FEF90933C0480933B040F
:1054200081E080931404809313041092CE02809143
:105430009C02811138C00E94DE18811104C00E94B4
:1054400087160E946E1688E090E00E945F34609399
:10545000340470933504809336049093370480911C
:105460000D04836080930D046E7F71F40E946E16AC
:1054700088E090E00E945F346093340470933504B8
:1054800080933604909337040E949E080E949708E8
:105490008091340480FF04C060E086950E94441C23
:1054A00081E080939C020E94200E811102C00E9424
:1054B00046320E947B1A0E94200E81112EC084E683
:1054C0009CE0909351018093500126E130E03093AD
:1054D0004C0120934B0186E390E090934F01809321
:1054E0004E014AE459E050935901409358013093DA
:1054F000540120935301909357018093560149E43E
:105500005AE1509361014093600130935C01209314
:105510005B0190935F0180935E010E94DE188823F7
:1055200089F08FE090E00E945F348B01862F8F77A7
:105530000E94301A001F0027001F1370110F102B3C
:105540001093F90283E190E00E945F3460931103AD
:1055500070931203809313039093140382E691E0F7
:105560009093160480931504B0E46B2EEE24E3941C
:1055700080912A0400E112E1853009F4A7C00E945D
:10558000E82600EA12E087E891E09CA78BA7BC011F
:1055900022ED32E0F8019191D9018D919D01DB015D
:1055A0004D91BD018423AAEACA2EA2E0DA2ECE16BE
:1055B000DF0609F497C0981771F30E94200E482E59
:1055C000E7E8CE2EE1E0DE2EF2EDAF2EF2E0BF2EC8
:1055D000912CD501FD905D01F60181916F01F822BA
:1055E000D8015D908D015F1429F15F24812C77240F
:1055F0007394852D8721B1F04420A1F08EA29FA243
:1056000091E08F2D872109F490E098A70E94121C49
:105610008160782F9AA789A74EA15FA168A58AA566
:105620000E9461268394770CB8E08B12E2CFF801D8
:105630003197F0829394EAE09E12CBCF0E945408F7
:10564000FF24F39470C082E0A6CE84E192E0BACE4B
:1056500080912A04843039F10E94DB130E94B71C28
:105660001092170448E150E00FB6F894A8954093C3
:1056700060000FBE6092600083B7817F846083BF4B
:1056800083B7816083BF7894889583B78E7F83BF0B
:105690000FB6F894A89580916000886180936000AF
:1056A000109260000FBE80912904882379F00E9437
:1056B000E826A7E8B1E0E2EDF2E081919D9189232F
:1056C00009F0A9C452E0EC3DF507B9F780912A042E
:1056D000853009F4BDCF10921D040E94B00F0E94C6
:1056E000450E4DCF981369CF0E94121C8C018091FA
:1056F0009D0290919E0208171907A1F08FEF89A3D0
:105700008AA31BA20E94121C8160782F9DA38CA3E8
:1057100049A15AA16BA18DA10E94612610939E02FE
:1057200000939D02F12C0E94200E80910C0488238E
:1057300009F463C080910B04E0913404E695E81B02
:10574000E0930704823009F075C1F0E0E75DFD4F9A
:10575000E4910E2F10E075EFC72E7DE0D72E8091DB
:105760000804882361F0109208040E941E1C909384
:1057700006048093050410920A04109209040E9402
:105780001E1CE0910504F09106049C012E1B3F0BAA
:105790002F3F3F4790F52091AC022223B1F01092A9
:1057A000AC022091AA023091AB02821B930B8F3F77
:1057B0009F4758F4205D3A483093AB022093AA02E9
:1057C00080910D04886080930D04A0900904B0902E
:1057D0000A040E0F1F1F109306040093050485E0B2
:1057E00094E0F60109958091090490910A04892BAF
:1057F00021F4AB2811F0E092AC02809114048823CC
:1058000051F18091CF029091D0020E94031CC29767
:1058100008F022C120913B0430913C042115310550
:1058200009F0CDC1809113048823A9F00E94540887
:1058300000910F0410911004209111043091120472
:10584000601B710B820B930B6F3F7F4F8F4F9F47F6
:1058500010F40E94DB13F1100E94F6130E94B71C93
:105860000E94450E9091D102891721F08093D102B8
:105870000E94540880912A04843009F473C20E9463
:10588000200E882309F474CE0E9454082091E2026D
:1058900021116BC00091DE021091DF022091E00225
:1058A0003091E1026B017C01C01AD10AE20AF30ACD
:1058B00097018601043F11402105310508F455C0C8
:1058C0006093DE027093DF028093E0029093E10226
:1058D0008091DC029091DD0201969093DD0280932D
:1058E000DC0219828E010F5F1F4F21E050E040E083
:1058F00060E088E00E944D17811106C08091DC02B3
:105900009091DD020A978CF181E08093E20280930E
:10591000E8029981911101C080E08093E9028091B1
:10592000E70210E0882329F00E94700E11E0811137
:1059300012E08091E902882309F469C30E94700E85
:10594000811167C382E0182B0E9479156B017C01DD
:10595000DC01CB018C7FBC01CD01612BC616D706C3
:10596000E806F90611F00E948C148091E902882360
:1059700009F4FCCD0E9454086B017C018091E30284
:105980009091E402A091E502B091E602A701960190
:10599000281B390B4A0B5B0BDA01C9010497A105DF
:1059A000B10580F119821A821B821C828E010F5F61
:1059B0001F4F24E050E040E060E089E00E944D1776
:1059C0008823C1F069817A818091EE029091EF0283
:1059D0000E949B0C9093EF028093EE026B817C817E
:1059E0008091F0029091F1020E949B0C9093F10241
:1059F0008093F002C092E302D092E402E092E502CA
:105A0000F092E6028091F302882309F4AFCD8091F1
:105A1000F202898310E000E020E0AE014F5F5F4FAB
:105A200061E08AE00E944D17882309F49FCD10920F
:105A3000F3029CCD00ED17E056E9C52E58E0D52EB7
:105A4000863009F08CCEE7E2F2E0059114916CEB20
:105A5000C62E6DE0D62E83CE0E94121C9093D002EB
:105A60008093CF028DE394E09093440680934306A5
:105A70000E94200E882309F49DC08FE292E00E94CC
:105A8000080F809139040E94BD0B0E94690C0E948E
:105A9000880E8DE292E00E94080F81E00E94160FAE
:105AA0001091FF0288E792E00E94080F80910203A4
:105AB0000E94690C0E94880E84E792E00E94080F01
:105AC000809101030E94690C0E94880E112309F441
:105AD0006BC081E792E00E94080F812F82958F7042
