:100000000C94440D0C94610D0C94610D0C944434CB
:100010000C94610D0C94610D0C94610D0C94610DA8
:100020000C94610D0C94610D0C9416210C94D2204B
:100030000C94062C0C94610D0C94610D0C94610DC4
:100040000C94610D0C94610D0C94610D0C94610D78
:100050000C94610D0C94EF210C94610D0C94610DC6
:100060000C94610D0C94610D0C94610D0C94610D58
:100070000C94610D0C94610D0C94610D0C94610D48
:100080000C94610D0C94610D0C94610D0C94610D38
:100090000C94610D0C94610D0C94610D0C94610D28
:1000A0000C94610D0C94610D0C94610D0181018221
:1000B00046279EBEFE5F3CFA766E5E3EFE5F1D9951
:1000C00091A0C2068E9E9FBCDB34EA560F9C9BB467
:1000D000CB148B756833C5087345E95022A7CCFB58
:1000E0005528B3C50892A6AFDC3AF64F1C9BB4CB9B
:1000F000148B94AFD62EDE1F9DB8F2664FFF7C7A2C
:10010000766E5E3EDF1D99B0E2460D9E9BBCFA7690
:100110006E5E1F9D99B6E225CC1A97ACBBF46A3788
:10012000CDF970AAA2046F9D8C1ABC4406ADE7738A
:1001300058333A89ACABE6F2599CE47FE2949F6E67
:10014000560B7879A85EB50663636EB9F4F5646DF5
:10015000164E35E20C55E620D5C6AB41D151E6F638
:100160004B4CF57D015636CBAD163E8D20440E2707
:1001700002575D75A7E969558AD81035078F07CAF8
:100180007C7A73C58BE035E7D1415ED55E5F09C7E8
:100190000A066AFEEADFB24EBBBDFE827EF646323A
:1001A0003EE0ACB6098994D3E8FDF24E3D9EC1BD58
:1001B000869511D78580DA95868DC9B3CBF41A154B
:1001C000946C0B37CBA69F1F87C0ECE43A34F14FF9
:1001D000DCD8CB6E5DB4B19BD4A6280EE11F956C24
:1001E0004E76004285DD0F7E9AC6ACED0CEAF43DFA
:1001F0002A160EEEFC352B116901033F340797BD1B
:100200003BAC1648FE0E1DC0CCF896BF3FBD659FA7
:1002100070FAE7CBEDCF94337E6006494D2325ED90
:1002200000D525189C698CC0741265D03906E0F998
:100230001A78D0655FA9AC6A38520F6CAA72A38E87
:10024000391E4A6AC7A91AB3A57E5B6C4FE8C24043
:10025000CAEF0F1AB656373B395238B74E8856EFA9
:100260001A8AA04176A8D3A22513A5C40E1E59E868
:10027000C919B6B488860B6444AFE2BC8A9109CD33
:10028000A779E057D1D4E700772027CCBA83900331
:100290008830A59057EA2A3CE6E28C56C5A2C3BE38
:1002A0002D9140FE3799B8319A8F35011198C8DEEB
:1002B000D5A3C11AEA00A9D49CD008FF76E2DD5587
:1002C000DA47AD67C6C23A43BF32FFE9F988F3E2C5
:1002D0002DADAB00BB2A0E742727E888B1A4926825
:1002E00094145D20C6B7220CFC6690A7948E1DF86E
:1002F00058C2866A64A8C5AF26EB6D7CD8530E6BD6
:1003000002AB518D8115F184DD2A62BCDB15897148
:100310004175D0A78BA685AEEBF664F43F7D6B03E9
:10032000EF5867EEBB14B9C20FCC92052AA125780D
:1003300091B76C37A1F775ABB456D8FEEFDF45E542
:100340008F70F3A7CC51F1E27171330311C0C34C2C
:100350001D07562F9DD08F77E5DE3829969DF8D959
:1003600092C7263E7FA08BC4516803BD329590EDA5
:1003700090E17CB6AAEFB18F37166B32D44FE78885
:100380005440E6166BEF7EDC9E3A75484387A79390
:10039000D042D5DD7BF0E1431685CE90C4D907F37A
:1003A0002EFB2C8ACEBC7ECC5B07FC4AAA568CDE88
:1003B000BD3C02E6496482E4DAC10433C0A0A30F65
:1003C0000D1964A5BF3FE2D057E7B9523964FF3534
:1003D000A8349E456F7CCC3F8567B4C9A1F749A975
:1003E000D4C50224803C5EDF6D6DC1A223249B3BFB
:1003F000B987558AF6D2B12CAA74322A114CD92960
:10040000DBA74F9852388D2E44634874532491C112
:100410000433B4B2252D2893A23B56AA361B6C7E1A
:1004200034B9708687ACA4418373A020D00FD6A3C3
:100430000C3FA51BC10A1789C816BAFA4F99F35386
:10044000E067A5B36275694B4222B6E8046691D9AC
:100450007353113AF45C46C2023FB881D0500DFF8D
:10046000DE34751CDA055E78B65934A9E2DC4564E1
:100470007EDD1B7D6CAA41C758A2A99005DEE3F280
:1004800031C21CEEE14B3CCA2531C52D80625C6057
:10049000C00952644AFA62B679F77883EB166C0C9D
:1004A000873AA1839E042BFE56FF4FE52DDC43E4E3
:1004B00071B934E1675D8B58A94FFA9CC3A6D8E6A1
:1004C0007CA5CC41315A75AA29E793575B590C7E1C
:1004D00007BDE9B4AAA70A33D57929DC6B6D13B43B
:1004E0008AC96207DE84202669D83B351442F3ECC2
:1004F000D9299333EB4ED5EDFF95A120DFB43C9382
:1005000046576F0B20F9C3A37DB47DA14F68EBDA8A
:10051000A570CE7BB6E8B72E5F7FDFFFBF6DDA3206
:10052000074CFEDCB81261A3F1A39903154BA20599
:10053000DEC5FB6168F017EC2B711FEA7BF54A54AE
:1005400082741176728B9995F026DACAB5C71D2C84
:10055000B227170EA57BC68C977E663B8429DCCB21
:100560006C2DA850294E06FB0408798DE01451F635
:1005700053852CDF645A81FE555450EBC0A1802076
:10058000AF0FC23C76635DA75C6BF6F3D7590822C8
:1005900064B75D9CD3B04AB76AFDDA960C6FD67328
:1005A000546598EC70C095CD2DCB84D9203E3DBBD1
:1005B000F9B166AF535A2644B3A405C5EB17882B8F
:1005C000F0A1AEEA694BD82FE53657F9F3004B0797
:1005D0004804090D4A421FEDFAEAA7681A032CEBFA
:1005E000F6DB6A2DBF5663547BDA099BF738F05768
:1005F0007F8DCB03150A15A5C9D6C8C29F1D56828B
:10060000447857749D0F1A4393529D16EC5CDA0997
:10061000ECFC2A754B32A9B26E91B122C2E279CCC0
:10062000DD68D0220507CFB5C6EDCD5D17D5D6C2A2
:1006300049288D79CFC36DCE963C8D6F16398D4F7D
:10064000E4237C4F565AC0DC41302C242E66F60041
:100650006E03815B8DD23F79FC4325B28788CAD86F
:10066000A9B56185ADE164E8520C7FF69AB7A36A3B
:1006700043CBBE33FA19A4B7A8EB249495A6A7BA26
:10068000E45C3631E438EF35AA666B6D6C6A872E10
:10069000CF3548D7C47EA893A0BB329521E4399FBB
:1006A000BDB85052F86F843E61ADAC28A7E7EC7F2F
:1006B000054E081DC7040E2000108026B413FD66E9
:1006C0004083704754E6185ACAB62ECDD199F268C5
:1006D000C3F4ED20FCD91E4CAA1D5CCCE0E14F9B7D
:1006E0003C08F2207DBAD8E1A2B5A2F19E10AF9EDF
:1006F0006BD634531BBB36F6B2E5515E862C796B54
:100700008EC04D9AAF02D97FDF12E4CE816CA287F2
:10071000572C10750846F4A8A808CC74A8CBCA7446
:10072000731A3F1DFA58758272E70D29734AE494D3
:1007300051EA53E0C46029B51D1AA0ABEE34424122
:1007400096E66B21A8856F04089D7BE5EB3B255C55
:100750008BBAF80225A63C54052BBB352A97D58BBE
:1007600098560C4D4992AC53063863C6E7C16211E6
:10077000B143F3B4A9663E5D0D6D1B02D76E4C67A5
:100780005B3A862DAA2D8933D5F41AF45A09C18211
:1007900079D150817EBC8A1497687715EA4BD2567E
:1007A0006C7DEB050A6FB171C3FCD5DC4572B34DAE
:1007B000A28DD1653B8795C97995FC33B3B3ACDC89
:1007C00009D96EFEDD1EDBED9A62E554FE412DCBAC
:1007D00001F8F5D76E22A51442B4BD5B2B06B1CD4E
:1007E0000BA09B123830DE7CBF26ED2D5A09617FAD
:1007F000B0B1D452A15E9D84C8DCD71D2B775CF4C8
:100800005564784676E9AF5E02E5BF23E49A159910
:100810007C4525DB00FAD09D1BA992373DD681028D
:1008200074A01C977F48BA55143D5344D215D891F3
:1008300087404D787912440FCD9A854033472B6617
:100840003E3CDD9A22DCDCB3294BCABE2B58E1B614
:10085000147F75404261392497F846AEB020E5EF29
:10086000489C786D9FA31ADDFC2297130B257BB85B
:10087000EE47FE2028B6FE4B31996520AA3CDEF4F7
:1008800008B7B4CE30613704760D348E7A3DF2214C
:10089000DCD5EC63F3B021F5283266A77F289C599C
:1008A000FE59DC8AAC11E562A6CAAFD992E785D6BB
:1008B000408106A8D118CC7D37D53308AA149CA353
:1008C0004166EC5C3D3C02445A7E1A700BC1147EBA
:1008D0006DEFF2C46E8F99F8F0F8A188ADE7C38B85
:1008E0009495C68DC17B7775062B4EBC949DBB62DB
:1008F000E4715D2C5927102F868B0FF68A6F77EEE7
:100900004F0FD19F070B17D5705D566D6618E60225
:10091000800224E53C7EF79E1D6CF80CCCDE9789A6
:100920007C030732A0B244447ECB6369B311E24832
:10093000035D082600568D965B8D8E5CEEDC273BB2
:100940004C4BC1CECA948D3A4E6E0B7B8123BF2493
:1009500093F5FDB63A34D1FDC137DFEF8D0BF61CB0
:10096000CA35CBA1635F0755180640B72EA41511F1
:10097000B6DDEBA478D050522408C27E143773330E
:100980001F23927864C8E688A6FA98F076CB20F701
:10099000A167C69B38508114248EE90FC2A5BB5DA8
:1009A000079720CF05E6EDDA9BABA448D588CE802B
:1009B0004B66CEAB9CDEB9780B4E5656D6DB85EA3D
:1009C00073976474FFF5C6D188B467F3A6DD139BF3
:1009D000CED22BACB428316C851D91C0CFB5915BC4
:1009E000BC821F688285AD2B7D06FA9E311E16C81B
:1009F0009FC3A7DC17B2FDF446F661C20427F2F7E5
:100A0000CF3AE3AE2A620E3B81C9495B7CBCE83A2F
:100A100096823267F2ACAE7FC979354EB79553AC4A
:100A200043BC2E0EFC9F2E16D0964660BCD2214DA4
:100A300046ADA81C859328DF04C5AB37607C0ED675
:100A40004EB24F0471C968CBE190E1659A7E00F621
:100A5000E7A219F977E1FFBEE092B8E91C96B782E8
:100A600004885E00D3666866A55FA9B915FC33AE3D
:100A7000108B1295E1D3ADBEA2442C7AD2CC8D0757
:100A80006402C362EFC4D08BECE2B33488B7FE9744
:100A9000D292AF53DA9ED8BF83069172594ADA3B9D
:100AA000ED364DFBD92F681AD6C24E0654A25FC44C
:100AB0009E6E3CFE6C92D88666C1DF756FD15F9FDB
:100AC000A016B0181FB1D85C78912C05D993A3F06B
:100AD0006AA47E362AA38DAE89D8D53ABFA247AF85
:100AE000D6F75279F772AAE4430B4D3174A3840808
:100AF000F763CAB5E2DF23BA715F01E211617B22BD
:100B0000040A6E231DAEDBBF4031475DA64CF7984B
:100B1000ADA689CE33D6068159598520E3A748FC76
:100B2000D58B79A5179200DC07EEE893DF4BF70D24
:100B3000419C23D2E3AE27D8916A5BF3E5C3F5CBA2
:100B4000EEA5F7E3C6F6B0E1595EB10F3FD4D4EE9F
:100B5000B498A346069370486244CEB88705F9D38B
:100B60002C269AA1DFA84B96969164D3352ADFC232
:100B7000834CEA072FB5147FD45A276E75F7884542
:100B8000B51B559E43ACECEED6C18A135DB4E7238A
:100B9000609B3ADF59D4DD8993F6EB61A56B222582
:100BA000CC5E3190E054EAA28F6C7974CC2FDD9941
:100BB000F270A2737FF9FA86D76FEA266D40DEDB0A
:100BC000CCF934CB148B94AAB7EC3BF44B14AAD6D3
:100BD0000F9C9B95897141E14002868E9EBEFE5F0F
:100BE0003CDB15A8D226AFDC3AF64FFD785324CA79
:100BF000168F7D5911A0A3A5A9B1E023C4EB35C977
:100C0000F141006325A9D022A7CC1A978D98B2C7CD
:100C10000C9A97ACBBF46A37EC3BD528B3E42BB500
:100C2000E85226AFDC1BB4EA560F9CBAF64FFD78AB
:100C30005324ABD42AB7CDF95120C2066F5C1BB444
:100C4000CBF549F1410082672DB9F062460E9EBE98
:100C5000DF3CFA764FFD5930C3046B35C910A2C68C
:100C60000E7F5D19B0E227CCFB55099083846B356C
:100C7000C910A2A7ADB9F043048A774DF95101809C
:100C800082868E7F7C7A764F1CBAD72CDA36EE5E5F
:100C90001F9D99B0C3046B35C91083846B35C9F1AE
:100CA0006023C4EB540B94AAB7EC3BF44B148B9425
:100CB0008B75685226CE1EBEDF1D9991816121C0C1
:100CC00002866F5C3AF66E3FFC5B15897141E1214B
:100CD000C002672DD832C7ED39D101806325C8F332
:100CE000642BD42AD62EBFFC5B34CB148B756833AF
:100CF000E44A168F7D7872662FBDF85324CA16AE6B
:100D0000BFFC7A570D797043E548F345E931E0427D
:100D1000E74CFB55097141006325C812876D39F016
:100D200043046B35C91083848A968F7D785324CA17
:100D3000168F9CBAF66E3FDD19B0E2460E7F5D3825
:100D4000D3058873642BB5E833E44A16AEBFFC7A4A
:100D5000570D9893856950036529D022C60E9E9F32
:100D60009DB8D324ABD40B754910836548F3642B2D
:100D7000B5E852076D39D1018082672DB9D120A322
:100D8000A5A9D003846B35E833C5E95022C6EF5CD2
:100D90003AF66E5E1F9DB8F247ED39F043048A962D
:100DA0008F7D5911816121A1C002672DB9F04304E3
:100DB0008A774DF97043048A96AEDE1F9DB8D3053D
:100DC0008892878C9AB6CFFD5930C3048A968F7D5E
:100DD0007872664EFF7C5B15897141E121A1A1A16A
:100DE000A1C0E3440A968F7D5930E227CC1AB6EEB3
:100DF0005E1F9D9991A0A3C4EB35E833C5087364C9
:100E00002BD42AD62EBFDD38F2470C7B5528B3C52C
:100E10000892A6AFBDF872470C7B744BF56833C5DA
:100E20000873644AF74DF97043046B35C9F141E129
:100E300021C0E325C812876D39D120A3A5A9B1E04F
:100E400023C4EB540B754910836548F345E931E041
:100E500042E72DB9D1016121A1C002674C1A978DDB
:100E600098B2C7ED5832E62FDC3AD72CDA178D79D5
:100E700051018063440A776C3BD528D226CEFF7C93
:100E80005B34EA37EC3BF44B148B94AAD62EDE3E4F
:100E9000FE7E7E7E7E7E5F3CDB15A8D226CEFF7C6A
:100EA0007A570D98B2C70C7B744B148B948B754991
:100EB0001083848A776C5A17ACDA36CF1CBAF66E78
:100EC0003FFC5B34EA37EC3BF44BF549F141E1215F
:100ED000A1C002868E9EBEFE7E7E7E5F3CFA766E4E
:100EE0003FFC7A764FFD5930E227ADD813A4CA16DD
:100EF000AEDE3EFE5F1DB8F2470C7B746A560F7D76
:100F00007872470C9AB6CFFD7872662FBDF85324DD
:100F1000ABD42AB7EC3BF46A562EBFFC7A570D7956
:100F20007062460E7F5D1991A0C2068E7F5D19B07A
:100F3000E246EF5C3AD72CBBF46A37CD18B2C70C47
:100F40009A978D98B2C7ED581385695022A7CCFBAC
:100F5000550990A2C60E9E9FBCFA572CDA36CFFDDB
:100F6000787247ED39D120C2E74CFB746A562EBF28
:100F7000FC7A570D98B2E64E1E9F9DB8D324CAF74F
:100F80006C5A17ACBBF44B148B94AAB7CDF97062B2
:100F9000460E9E9F9DB8F247ED39D1016140E34472
:100FA0000A968F9CBAD70D989385695022A7CC1AC0
:100FB000B6EE5E3EFE7E7E7E5F3CFA570D79706235
:100FC00027CC1AB6CFFD7872662FDC1B95A8B3E448
:100FD0004AF76C5A36EE3FFC7A572CBBD509714163
:100FE000E121C0E3440A776C3BD5099083846B54BC
:100FF0000B948B7549F16042E74C1AB6EE3FFC5BEF
:1010000015A8B3C5E95022C60E7F5D19B0E227AD21
:10101000B9D101806325C8F3644A16AEDE3EDF3CD9
:10102000FA570D797043046B542AB7CD1893A4ABCB
:10103000D42AD60F7D7872470C7B746A37EC5A1726
:10104000ACBBF46A560F7D7853058873642BB5E802
:1010500033C50892A6AFDC1BB4EA560F9C9BB4CBF9
:10106000F56833E42BB5E833E42BB5E85226AFDC62
:101070003AF66E5E1FBCFA766E3FDD38F2470C7BA7
:10108000744B148B94AAD60F9C9BB4EA562EDE1F89
:101090009D99B0E227CC1AB6EE3FFC7A570D989393
:1010A000A4ABB5C9F1607B17C84A05010902A101CB
:1010B00085020901A100050919012908150025016A
:1010C0009508750181020501093009311581257FD7
:1010D00095027508810609381581257F95017508E7
:1010E0008106050C0A38021581257F950175088156
:1010F00006C0C00660FF0961A1010962150026FF54
:10110000009520750881020963150026FF009520CF
:1011100075089102C005010906A101050719E0291A
:10112000E715002501950875018102950175088173
:10113000010507190029FF150026FF00950675080F
:10114000810005081901290515002501950575017E
:101150009102950175039101C0000000000000009C
:10116000000000000000000000000000000000007F
:10117000000000000000000000000000007E0F00E2
:10118000D4FFFFFFC700000078000000000000004F
:10119000002A2B28000000000000000000000000D2
:1011A0000000000029000000002C1E342021222411
:1011B000342627252E362D3738271E1F202122239F
:1011C0002425263333362E37381F04050607080931
:1011D0000A0B0C0D0E0F10111213141516171819F7
:1011E0001A1B1C1D2F3130232D3504050607080955
:1011F0000A0B0C0D0E0F10111213141516171819D7
:101200001A1B1C1D2F3130354C61626364656667A3
:1012100068696A6B6C6D6E6F7071727374757677D6
:1012200078797A313233343536373839305245426D
:10123000545F2D3D5B5D5C233B27602C2E2F00DA35
:101240000281FFD9F1DB20A4A62EAF00A0C0D300FD
:1012500000A1C8D30000AED580A81F408D14200087
:101260000001010101010101010102020202020269
:10127000020202030303030303030304040404043C
:101280000404050505050506060606060707070703
:101290000708080808090909090A0A0A0B0B0B0CB8
:1012A0000C0C0D0D0D0E0E0E0F0F0F101011111155
:1012B00012121313141415151616171718181919D6
:1012C0001A1A1B1B1C1D1D1E1E1F2020212222233B
:1012D0002424252626272829292A2B2C2D2D2E2F7C
:1012E00030313232333435363738393A3B3C3D3E93
:1012F0003F404142434445464748494A4C4D4E4F82
:1013000050515354555658595A5B5D5E5F61626443
:10131000656668696B6C6D6F7072737577787A7BD0
:101320007D7E8082838587888A8C8E8F9193959627
:10133000989A9C9EA0A2A3A5A7A9ABADAFB1B3B547
:10134000B7BABCBEC0C2C4C6C9CBCDCFD1D4D6D823
:10135000DBDDDFE2E4E7E9EBEEF0F3F5F8FAFDFFC1
:1013600000AF00AEC2C3004CB6B772B1002020007F
:10137000BABB004B657920B10020C0C100B4B500F4
:10138000B2B300BEBF003030200020202020B1BC0E
:10139000BD0042616C6CB10020200029001E001FBE
:1013A000002000E1001D001B000600210022002398
:1013B000002B0019000500E000015214001A00087B
:1013C000001500E2002352000000001700E00004B6
:1013D0000016000000000000000000070009000ADD
:1013E000000000000000000000000024002500268E
:1013F0000027000E000F00330034002D002E0031B6
:1014000000350028001100100036004C001C0018A8
:10141000000C0037003800E5005200120013002FC6
:1014200000300022522C00E600E7002A000B000DDD
:10143000000000500051004F00000029001E001F56
:10144000002000E1001D001B0006002100220023F7
:10145000002B0019000500E000005214001A0008DB
:10146000001500E2002C00000000001700E000045E
:101470000016000000000000000000070009000A3C
:1014800000000000000000000000002400250026ED
:101490000027000E000F00330034002D002E003115
:1014A00000350028001100100036004C001C001808
:1014B000000C0037003800E5005200120013002F26
:1014C00000300022522C00E600E7002A000B000D3D
:1014D000000000500051004F00000001003A003BA6
:1014E000003C000100027E087E097E3D003E003F78
:1014F000003900077E067E017E007E047E20782370
:10150000782578037E01000000000027780100059F
:101510007E21780000000000000000247826782852
:101520007800000000000000000000400041004280
:101530000043004A004B0050004F00440045004962
:10154000004C0001000C7E01004D0001000A7E01EC
:101550000046004E005100010001004700480052C3
:10156000000100010001000100010001000B7E01EB
:101570000000000100010001000000010001000165
:101580000001000100010001000100010001000153
:101590000001000100010001000100010001000143
:1015A0000001000100010000000000010001000135
:1015B0000001000000000000000000010001000127
:1015C0000000000000000000000000010001000118
:1015D000000100D200D30001000100010001000160
:1015E0000001000100D5000100010001000100011F
:1015F00000010001000100010001000100010001E3
:1016000000010001000100010001000100D400D12F
:10161000000000010001000100000009025B00035E
:101620000100A0FA090400000103010100092111D1
:10163000010001224400070581030800010904019B
:10164000000203000000092111010001222200070D
:10165000058203200001070503032000010904029D
:1016600000010300000009211101000122490007C7
:10167000058403200001120100020000000838392F
:1016800037360100010200010E037200650065009B
:10169000780036003700000012036B0075007300FD
:1016A000680069006D00610038000000040309044F
:1016B00000000000000000002F00000000070007ED
:1016C0000000123F123F1200242A7F2A120036091E
:1016D0001E241B0018262912280000000700000005
:1016E000001E214000000040211E000014083E089A
:1016F000140008083E0808000000307000000808C8
:101700000808080000003030000020100C02010022
:101710001E2925231E0000223F20000022312929F6
:101720002600122125251A001814123F1000172533
:10173000252518001E25252518000131090503005F
:101740001A2525251A00062929291E0000003333F1
:101750000000000033730000081414222200141447
:101760001414140022221414080002012905020096
:101770003E59555D3E003816111638003F25252587
:101780001A001E21212112003F2121211E003F2588
:10179000252521003F09090901001E2121291A00E0
:1017A0003F0404043F0000213F21000010202020BE
:1017B0001F003F040C1221003F20202020003F0288
:1017C00004023F003F020C103F001E2121211E0099
:1017D0003F09090906001E2129112E003F09091998
:1017E000260012252529120001013F0101001F20BA
:1017F00020201F000718201807000F300C300F00A2
:1018000021120C122100030438040300312925237E
:101810002100007F4141000001020C102000004126
:10182000417F0000040201020400404040404000AB
:10183000000103040000102A2A2A3C003F2422222F
:101840001C001C22222224001C2222243F001C2ACD
:101850002A2A0C0000043E0505000C5252543E009A
:101860003F080404380000003D0000002040403DD7
:1018700000003F080814220000013F2000003E0243
:101880003C023C003E0402023C001C2222221C00BE
:101890007E1422221C001C2222147E003E0402021E
:1018A0000400242A2A2A120000021F2200001E20FF
:1018B00020103E000618201806000E300C300E00D6
:1018C0002214081422000E5050483E0022322A26CC
:1018D000220008087741410000007F0000004141DC
:1018E00077080800180408100C0000000000000031
:1018F000F8FCFCFC3C3CFCFCFCF80080C0F0F8FC74
:101900007E00000000FCFCFCFC0000000000000069
:101910000000FCFCFCFC0000000000FCFCFCFC00E7
:101920000000000000000000FCFCFCFC00000000C7
:10193000007EFCF8F0E0C080000080C0E0F0F8FC21
:101940007E00000000000000000000000000000019
:10195000FFFFFFFF0000FFFFFFFF7F1F0F070100DA
:101960000000000000FFFFFFFF000000808080807B
:101970000000FFFFFFFF0000000000FFFFFFFF006F
:101980000080808080000000FFFFFFFF000000005B
:1019900000000081C3E7FFFFFFFFFFFFE7C38100F7
:1019A0000000000000000000000000000000000037
:1019B000FFFFFFFF00000101010000000000000028
:1019C00000000000003F3F3F3F0000003F3F3F3F1F
:1019D00000003F3F3F3F00000000003F3F3F3F000F
:1019E000003F3F3F3F0000003F3F3F3F00000000FF
:1019F000007E3F1F0F07030100000103070F1F3F79
:101A00007E00000000000000000000000000000058
:101A10000010101000000000550000003E635D5DE6
:101A2000637F417B77413E00001C22221C003E0A5E
:101A3000003E0A00322A3C0026281E001C2A2C00E8
:101A400000003F09360000001E21210000000000B8
:101A50003F0837001E2121001E2121003F090600FA
:101A6000213F2100222519001E2121003F093600B7
:101A70003F211E00213F21000F300F003E093E0094
:101A80003F063F003F20200011241FBECFEFDAE0C9
:101A9000DEBFCDBF11E0A0E0B1E0E0ECFDE602C0AA
:101AA00005900D92AC3DB107D9F726E0ACEDB1E061
:101AB00001C01D92A631B207E1F70E942D2C0C94B3
:101AC00093360C940000E8EDF0E080818E7F8083F7
:101AD0001092E2001092DA001092E100A0EEB0E065
:101AE0008C9181608C9380818F77808319BCA7ED66
:101AF000B0E08C918E7F8C9380818F7E808310925A
:101B0000E60308952091E4003091E50095E6A901EF
:101B10002091EC00822F817020FF06C08091E800A8
:101B200080FF06C080E008952091E80022FD1AC0E1
:101B30008091F403882389F0853089F08091EB004F
:101B400085FD0FC02091E4003091E5004217530756
:101B5000F9F29150E1F684E0089582E0089583E07F
:101B6000089581E008958091F60387FF13C0809166
:101B7000E80082FF06C08091E8008B778093E80040
:101B800004C08091F4038111F2CF08958091F40391
:101B90008823D9F38091E80080FFF8CF8091E80096
:101BA0008E77ECCF982F9093E900242F762F50E07A
:101BB000891731F07091EC002091ED005091F00008
:101BC00021FD07C09F5F973071F78093E90081E0A6
:101BD00008953091EB003E7F3093EB003091ED00A3
:101BE0003D7F3093ED003091EB0031603093EB009E
:101BF0007093EC002093ED005093F0002091EE00E4
:101C000027FDE0CF80E00895B0E0A0E0EAE0FEE04C
:101C10000C947E35C8EDD0E088818F7E8883E7ED17
:101C2000F0E080818160808384E082BF81E08093E6
:101C3000E60388818E7F888302EE10E0F80110822F
:101C40001092DA0081EEC82ED12CF6011082888124
:101C50008F77888388818068888388818F7D888357
:101C600019BC1092F4031092F5031092F303109232
:101C7000F20390EEE92EF12CF70180818B7F8083B7
:101C800088818160888342E060E080E00E94D20D1C
:101C9000F60180818E7F8083F8018081816080835E
:101CA000808188608083F70180818E7F8083888136
:101CB00080618883CDB7DEB7E8E00C949A35FC01EB
:101CC0008091FC039091FD0386179707A0F06115A2
:101CD000710529F49091E8009E779093E80090E0D8
:101CE0006115710551F4911108C08091E80082FFDF
:101CF00034C080E00895BC01F2CF8091F4038823C2
:101D0000C1F18530C1F18091E80083FD30C0809140
:101D1000E80082FDEACF8091E80080FFE1CF80916A
:101D2000F3002091F200382F6115710519F0283069
:101D3000310558F091E02830310509F090E020910C
:101D4000E8002E772093E800CBCF81918093F100BB
:101D5000615071092F5F3F4FE7CF8091F4038823D3
:101D600041F0853041F08091E80083FFBECF81E0F3
:101D7000089582E0089583E0089508958091E9032D
:101D8000089587E797E7909301088093000888E11A
:101D90009AE00FB6F894A895809360000FBE9093D8
:101DA0006000FFCF2FB7F8946091E2037091E303D6
:101DB0008091E4039091E5032FBF0895FC01680F23
:101DC000791F8FEF91E32191822728E030E087FF90
:101DD00009C0880F892721503109C9F7E617F7078D
:101DE00091F70895880FF7CFFA01811101C0FB0127
:101DF000099508958091AC03982F9E7F71F480918E
:101E0000AC03817082608093AC038091AF03853610
:101E100018F084E68093AF030895843080F7F5CFFF
:101E200090918201882341F09F5F909382011092EC
:101E30007F0110927E0108959150F7CF809180012B
:101E4000811108C080918201811104C080918101BB
:101E50008170089581E090E0FBCFCF93DF93E3E8BA
:101E6000F1E084819581A681B781E9018883998316
:101E7000AA83BB831582148217821682DF91CF91C9
:101E8000089580E0089563E070E08CE392E00E94A2
:101E9000DE0E90913B02891318C0E0913C02EC30B9
:101EA000A4F488E0E802F0011124E65FFE4F06800A
:101EB000F781E02D309749F02FE532E040913E0266
:101EC0006FE372E080913D0209950895E5E2F2E04A
:101ED000808D80933A01818D80934D010895811505
:101EE00022E5920768F5811540E5940708F0A1C046
:101EF000883E9105A0F4803E910558F4853A9105FD
:101F000048F48430910528F48130910511F090E077
:101F100080E008958D3C9105D0F39065089581157A
:101F200021E09207A0F3AC015527811520E292072A
:101F300008F05CC020E0392FC901842B952B08954F
:101F4000803642E59407F0F4803422E5920708F0E9
:101F500056C0803242E5940708F04AC0282F2695E3
:101F6000269540E2249F90011124482F437081E080
:101F700090E002C0880F991F4A95E2F7822B932BBD
:101F80009D680895803C22E59207F8F4803A42E586
:101F9000940708F049C0803822E5920708F0B7CFCF
:101FA000282F26952695277040E2249F9001112422
:101FB000482F437081E090E002C0880F991F4A9536
:101FC000E2F7822B932B9A680895803E42E59407AE
:101FD00008F09DCF9C0153E0220F331F5A95E1F783
:101FE000207E3327AC0143705527E4CFCA01089502
:101FF0008F7190E0982F8827816F906A0895282F1D
:1020000026952695277040E2249F90011124482FA1
:10201000437081E090E002C0880F991F4A95E2F773
:10202000822B932B9C6808958F7190E0982F8827BE
:1020300008959C0195E0369527959A95E1F72F70C4
:1020400030E0322F2227482F4F7150E084FF05C027
:1020500084E0440F551F8A95E1F7C901842B952B25
:10206000906908959A3080F5883070F548E0949F23
:1020700090011124820F932F911D682F677023E028
:10208000969587952A95E1F7FC01EE0FFF1FE80F63
:10209000F91FE650FE4F50E040E080E0219130E033
:1020A000062E02C0369527950A94E2F72170332751
:1020B000042E01C0220F0A94EAF7822B4F5F5F4F74
:1020C0004330510559F7089580E008959A3098F506
:1020D000883088F548E0949F90011124820F932F57
:1020E000911D282F277041E001C0440F2A95EAF77F
:1020F00023E0969587952A95E1F7FC01EE0FFF1FE7
:10210000E80FF91FE650FE4F90E080E070E051913B
:10211000DF0111979B01082E02C0369527950A947E
:10212000E2F7217021952527242325272C9301965A
:102130008330910561F70895809321020895982FC7
:1021400092959F7011F0892F94E0282F269526955F
:1021500011F09E5F822F869509F09F5F892F089569
:10216000B0E0A0E0E6EBF0E10C947E35FC01EB0181
:1021700040919601411101C044E04150550B81E06E
:1021800090E06C01042E02C0CC0CDD1C0A94E2F736
:1021900000811181C801B6010E94C5359B01CB01A8
:1021A000042E02C0880F991F0A94E2F7081B190B2E
:1021B00011830083E280F380C701B6010E94C53518
:1021C0008B01CB0102C0880F991F4A95E2F7E81AEC
:1021D000F90AF382E28221388FEF38077CF0203849
:1021E000310574F421952D8301388FEF180754F0D1
:1021F000802F003811053CF08FE705C021E8F2CFB1
:102200002FE7F0CF81E881958C830E94D20E2D813B
:10221000211103C02C812223B9F0609397017093A0
:1022200098018093990190939A0180919B019BE082
:10223000980F973120F4080F00939B011D82CDB7B2
:10224000DEB7E8E00C949A35C0909701D0909801E1
:10225000E0909901F0909A016C197D098E099F090F
:10226000643671058105910500F310929B01DDCF65
:10227000CF93C82F809191018C1751F00E94D20EFC
:1022800060939201709393018093940190939501D0
:10229000C0939101CF91089580918301F9018083CA
:1022A00008958F708A3010F4805D0895895A0895DA
:1022B000382F20E287FF02C031952DE24AE0832FBC
:1022C000642F0E94B735905D9093F30181110BC08C
:1022D0002093F20120E22093F10120E22093F0010B
:1022E00080EF91E00895642F0E94B735905D909340
:1022F000F201832F64E60E94B735882361F3805D85
:102300008093F101EBCF9C01860F971F37FD07C02B
:1023100077FD04C097FF02C08FEF9FE7089577FF16
:10232000FDCF97FDFBCF80E090E80895E82FE29580
:10233000EF70F0E031A1282F2F7081E090E001C014
:10234000880F2A95EAF7382B31A392A1809589232B
:1023500082A30895E82FE295EF70F0E031A1282FD5
:102360002F7081E090E001C0880F2A95EAF7982F3E
:102370009095932391A392A1892B82A30895B0E015
:10238000A0E0E5ECF1E10C947E357C016B018091DD
:10239000090601E010E08A3010F40AE010E0C1E024
:1023A000D0E06FE076E0C701F6010995811104C025
:1023B00021960C171D072CF4CDB7DEB7E8E00C947E
:1023C0009A35CC9F9001CD9F300D300D112490E0B7
:1023D00080E045E34A95F1F70000019682179307E4
:1023E000C1F7DFCF0F931F93CF93DF938B01EA01E8
:1023F0009091F403943061F58093E9008FEF909110
:10240000E800815095FD06C095ED9A95F1F7000022
:102410008111F5CF8091E80085FF1AC00E94820DDE
:10242000811111C08091E80085FD06C08091E8000F
:102430008E778093E800F2CFF80181918F0180932D
:10244000F100219779F78091E8008E778093E8007A
:10245000DF91CF911F910F91089546E050E0BC01AC
:1024600084E00E94F2110895CF93DF93EC0148E0DD
:1024700050E0BC0181E00E94F21188E0FE01AAEE6A
:10248000B3E001900D928A95E1F7DF91CF91089525
:10249000609173018091AC0380FF20C08091720134
:1024A00043E0849FC001112485539D4F539A2BB163
:1024B000277F3BB138605FB7F894FC01649FE00D63
:1024C000F11D1124BF0168177907D1F45FBF8FE5B3
:1024D00094E00197F1F700C0000008958091740125
:1024E0009091750123E0829FF0011124E553FD4F87
:1024F0008917A0F61182108212828F5F3396F8CF6F
:10250000FC014191CF01E8E03BB9000000C047FF6A
:102510002BB9440F000000C000C000C02BB900C0A0
:10252000EA9591F7D0CFECEAF3E080818E7F80834B
:10253000E8ECF2E08281816082830E944812089573
:1025400080912402811119C088EC90E02091E30071
:1025500027FD10C0EFE3FCE93197F1F700C0000060
:102560000197A1F782E0809324020E94630D1092EC
:10257000F40303C081E08093240281E0909124025F
:10258000913011F080E0089508950E94A0128823F0
:1025900059F0E091DF03F091E003309729F00190CA
:1025A000F081E02D0995089580E008950F931F9321
:1025B0000E94A012882329F00E94D20E1F910F9131
:1025C00008950E94D20E00919402109195022091DC
:1025D000960230919702600F711F821F931FEECFFA
:1025E00026982E9A249A2C9885E08A95F1F7000077
:1025F00083B124982C9A90EA9A95F1F790E026E01E
:10260000959587952A95E1F7809590958170089525
:10261000E0E8F1E083E0DF011D928A95E9F7ECE75D
:10262000F1E084E0DF011D928A95E9F70895209199
:10263000790130917A012817390731F090937A01A6
:10264000809379010E94081308959091770198175B
:1026500021F0809377010E9408130895CF93909101
:10266000C3028091BC02981323C08091C4028823C6
:1026700021F09091BD0289131BC08091C50288236F
:1026800021F09091BE02891313C08091C702882364
:1026900021F09091C00289130BC09091C60299233A
:1026A00029F081E02091BF02291303C080E001C01E
:1026B00081E0C82FC17080FF0FC0E091DF03F0916F
:1026C000E003309749F082E08093C2020480F581F4
:1026D000E02D82EC92E009959091C30286E0E2EC55
:1026E000F2E0DF01282F1D922A95E9F79093C302AB
:1026F000ABEBB2E001900D928A95E1F781E0C11158
:1027000003C0911101C080E08170CF9108952FE244
:10271000280F283078F481E090E001C0880F2A95D6
:10272000EAF72091C302662331F0822B8093C30223
:102730000E942E13089580958223F8CFCF93DF93C4
:10274000D82F2091780181E090E002C0880F991F76
:102750002A95E2F780959095CD2FC8238C2F0E9463
:102760009F10882311F0823081F4809177018823B3
:1027700029F080918101811101C0DC2F80E00E944D
:1027800025138D2FDF91CF91089581E0F8CF0E941E
:102790009E138093B40308959091B40321E030E038
:1027A000F90101C0EE0F8A95EAF7D90102C0AA0F1C
:1027B000BB1F6A95E2F7EA2B01C0220F4A95EAF7A0
:1027C000892F8E23E81305C0292B822F0E94C7135F
:1027D000089520952923F9CF21E030E001C0220F90
:1027E0008A95EAF720958091B40382230E94C7134B
:1027F000089521E030E001C0220F8A95EAF7809128
:10280000B403822B0E94C7130895CF93DF93282F20
:1028100081E02A3019F02D3031F480E00E949914C3
:10282000DF91CF910895809107069091080636E0D8
:10283000FC01A1E0B6E001900D923A95E1F730EE8F
:10284000320F343A08F458C026E0FC0111922A9560
:10285000E9F7C0910706D091080646E050E0BE01B6
:1028600081E096E00E9425369E0121503440892B5C
:1028700041F1C90145E0969587954A95E1F741E018
:1028800050E0BA0102C0660F771F8A95E2F7CB01CC
:102890006091FF0370910004862B972BB9016B5F49
:1028A0007F4FE5E076956795EA95E1F702C0440F22
:1028B000551F6A95E2F7842B952B90930004809323
:1028C000FF032A5F3F4F4091FE03642F70E0C90170
:1028D0000E946035481B463010F4240F311D21152D
:1028E00072E0370710F030E020E02F5F3B4F30936D
:1028F00008062093070694CF2052330B46E0429FF0
:10290000B001439F700D11246055794E46E050E0B0
:102910000E941C369ECFCF93DF93EC01FE01849181
:10292000811103C0DF91CF9108950E940514219673
:10293000F5CFCF93382FE0910706F0910806E150CC
:10294000F4402091FE03622F70E0CF010E946035B9
:10295000281B822F332361F066E00E94AB35C82F1D
:10296000C15010F4CF91089580E20E940514F8CF71
:102970009F01280F311D2115324018F080E0F0E052
:10298000E0E08E0F9F2F911D8F5F9B4F9093080665
:1029900080930706E7CF8091E70390912002892B6F
:1029A0008093DE0148E050E068E172E08EED91E056
:1029B0000E942536892BA9F088E0EEEDF1E0A8E130
:1029C000B2E001900D928A95E1F7E091DF03F0917A
:1029D000E003309731F00280F381E02D8EED91E03D
:1029E00009950895E0EEF1E086E0DF011D928A95F9
:1029F000E9F7109220020E94CB140895AAE2B0E0F9
:102A0000E4E0F5E10C94833586EF93E02091F1004A
:102A1000DC012D93CD01B3E08E3F9B07B9F7809188
:102A2000F703833009F472C0B8F4813009F449C067
:102A3000823009F4B5C08091E80083FF8DC2809197
:102A4000F6039091F7039A3008F086C2E92FF0E080
:102A5000EB56F94C0C94D9358A3009F490C08B3080
:102A600009F471C0893039F78091F603813219F782
:102A70008091FA039091FB03009711F00297D9F629
:102A80008091E800877F8093E8008091E80082FFD2
:102A900038C09091F3008091F200029731F4809158
:102AA000F100813011F0863021F48091F1008093A3
:102AB000E9038091E8008B778093E8000E94B30DD2
:102AC000BACF8091F603813A09F0B5CF8091E80042
:102AD000877F8093E8008091FA039091FB03892B14
:102AE00061F468E08AEE93E070E00E945F0E8091EE
:102AF000E8008B778093E8009ECF60E090E080E074
:102B0000F3CF8091F4038111C0CF95CF8091F6036C
:102B1000813A09F090CF8091FA039091FB03892BC1
:102B200009F089CF8091E800877F8093E800809149
:102B3000E80080FFFCCF8091B4018093F100809188
:102B4000E8008E77B9CF8091F603813209F073CF18
:102B50008091FA039091FB03892B09F06CCF80914F
:102B6000E800877F8093E8000E94B30D8091F8030E
:102B70008093B4011092E7030E94F2145CCF80911D
:102B8000F603813209F057CF8091E800877F809368
:102B9000E8000E94B30D8091F9038093E8034BCFC6
:102BA0008091F603813A09F046CF8091E800877F53
:102BB0008093E8008091E80080FFFCCF8091E803DB
:102BC000BCCF803899F0823809F0C6C18091FA03F1
:102BD0008F70873008F0C0C18093E9008091EB00CE
:102BE00085FB882780F91092E90006C08091F203E6
:102BF0009091F303911182609091E800977F9093F8
:102C0000E8008093F1001092F1008091E8008E7747
:102C10009FC1882309F48DC1823009F09DC1809144
:102C2000F803811190C18091FA038F702FEF280F64
:102C3000263008F091C18093E9002091EB0020FF3D
:102C400082C1933031F48091EB0080628093EB007D
:102C50007AC19091EB0090619093EB0021E030E01D
:102C600001C0220F8A95EAF72093EA001092EA0049
:102C70008091EB008860EACF81116EC11091F8035A
:102C80001F778091E3008078812B8093E30080910F
:102C9000E800877F8093E8000E94B30D8091E800F0
:102CA00080FFFCCF8091E30080688093E30082E0A6
:102CB000111183E08093F4034FC18058823008F0F3
:102CC0004BC12091F8033091F9032C3DE3E03E071E
:102CD000A1F583E08A838AE289834FB7F894DE0105
:102CE000139620E03EE051E2E32FF0E050935700CE
:102CF000E49120FF03C0E295EF703F5FEF708E2FED
:102D000090E0EA30C0F0C7968D939D932F5F2431F9
:102D100059F74FBF8091E800877F8093E8006AE20F
:102D200070E0CE0101960E945F0E8091E8008B77E3
:102D30008093E80011C1C096E7CF8091FA0390918B
:102D4000FB03432F55274330510509F44AC078F55A
:102D50004130510509F47AC08BE590E0EBE1F6E1F2
:102D60004230510509F0F8C02091E800277F2093F8
:102D7000E8002091FC033091FD038217930708F4CB
:102D80009C0140E02115310509F065C0411163C087
:102D90008091E80082FDC9CF8091F403882329F255
:102DA000853019F28091E80083FFF2CFBECF413227
:102DB000510509F43CC04232510509F0CDC08330C1
:102DC000910508F0C9C0FC01EE0FFF1FE153FE4F53
:102DD0000190F081E02D84539E4FDC018C9190E0B6
:102DE0001AC0332721303105D1F02115310561F0AA
:102DF0002230310509F0B0C0E8E8F6E1E4918E2F09
:102E000090E0E8E8F6E107C0ECEAF6E1E4918E2F05
:102E100090E0ECEAF6E1009709F49EC0A5CFE8E95E
:102E2000F6E1E4918E2F90E0E8E9F6E1F4CF83300B
:102E3000910508F091C0880F991FFC01EB52FE4FDD
:102E40000190F081E02D89E090E08ECF82E190E06A
:102E5000E6E7F6E189CF8091F403882309F465CF92
:102E6000853009F462CF8091E80083FD5ECF8091C8
:102E7000E80082FD8DCF8091E80080FF83CF9091A4
:102E8000F3008091F2002115310519F08830910589
:102E900050F041E0089709F040E08091E8008E771B
:102EA0008093E8006FCF44914093F1003196215018
:102EB00031090196E8CF803809F04EC08091E800D2
:102EC000877F8093E8008091F5038093F1009DCE89
:102ED000811142C01091F8031230F0F58091E800A2
:102EE000877F8093E8001093F5030E94B30D1123B0
:102EF00011F084E005C08091E30087FDFACF81E006
:102F00008093F40342E061EC81E00E94D20D42E242
:102F100061EC84E00E94D20D42E261EC82E00E940A
:102F2000D20D42E260EC83E00E94D20D8091F40366
:102F300013C08091F803813079F481E0933009F077
:102F400080E08093F3031092E9008091E800877F8E
:102F50008093E8000E94B30D8091E80083FF0AC0CF
:102F60008091E800877F8093E8008091EB00806289
:102F70008093EB00AA96E3E00C949F351092E70350
:102F80000E94F2142FEF84E39CE021508040904097
:102F9000E1F700C0000088E19AE00FB6F894A89528
:102FA000809360000FBE90936000FFCF882379F17B
:102FB0009CEF980F913A78F4E0EEF1E0919189134B
:102FC00003C0DF0111971C9241E0E63EF407B1F720
:102FD0000E94CB14089590E2980F983088F487707F
:102FE00021E030E0A90102C0440F551F8A95E2F7A5
:102FF000CA0180959091E70389238093E703E8CF86
:1030000093E3980F933118F460E00E9487130895BA
:103010000F931F93CF93C82F882341F18CEF8C0F10
:10302000813AB0F500EE11E086EE91E0F8012191D1
:10303000C21701F18E179F07D1F7EFEF80E0D8019B
:103040009D918D01C91781F0EF3F19F4911101C0D5
:10305000E82F8F5F863099F7EF3F31F00E2E000C8E
:10306000FF0BE252FE4FC2830E94CB14CF911F91FF
:103070000F910895E0EEF1E02191C21303C0DF014A
:1030800011971C928E179F07B9F70E94CB14D5CFCA
:1030900080E28C0F883068F4C77021E030E001C016
:1030A000220FCA95EAF78091E703822B8093E7030A
:1030B000DBCF83E38C0F8331C8F661E08C2F0E9455
:1030C0008713D4CF1F93CF93DF93182FEB010E9468
:1030D00008188FE99FE00197F1F700C000002197E1
:1030E000C1F7812F0E94D617DF91CF911F910895CC
:1030F0000F931F93CF93DF93EC01FC01019000200D
:10310000E9F78F0101501109C017D10728F0DF91AD
:10311000CF911F910F91089589910E940514F4CFCA
:10312000CF93DF93C9EBD2E060E0CE010E945F361F
:103130002196C11584E0D807B9F7DF91CF910895A2
:103140001F93CF93DF93122F8430E0F46A30D0F4D2
:103150004830C0F490E1699FE001112450E0440F31
:10316000551FC40FD51F90EA899FC00DD11D112492
:10317000632FCE01C9960E945F36612FCE01CA9699
:103180000E945F36DF91CF911F910895AF92BF9259
:10319000CF92DF92EF92FF921F93CF93DF938BE951
:1031A000C82E83E1D82ED0E07601C0E014C0F5012E
:1031B00025913491412F6C2F8D2F0E94A01882E011
:1031C000A80EB11C1F5F183091F780E1E80EF11CCA
:1031D000CF5FCA3019F0570110E0E9CFDF5F80EA16
:1031E000C80ED11CD43001F7DF91CF911F91FF9011
:1031F000EF90DF90CF90BF90AF90089588E390E07C
:103200000E945F360895CF93C82F6FEF811163E25C
:1032100085E390E00E945F366FEFC11161E086E3C5
:1032200090E00E945F366FEFC11166E187E390E0A6
:103230000E945F36CF91089580E00E94031960E0FC
:1032400070E0CB010E94FE180E94C6180E949018E0
:1032500081E00E94031908950F931F93CF93DF938A
:10326000843030F56A3020F5483010F520E1629F57
:103270008001112450E0440F551F040F151F30EA40
:10328000839F000D111D1124C801C9960E943B3671
:10329000C82FD0E0DC2FCC27C801CA960E943B364D
:1032A0009E01282BC901DF91CF911F910F910895A5
:1032B00090E080E0F8CF462F7A3040F4683030F468
:1032C000843020F4672F0E942C19089590E080E04C
:1032D0000895CF92DF92FF920F931F93CF93DF93C6
:1032E0006C010091B40380912102082BC3E0D0E06F
:1032F00010E0FC2EC8010C2E02C0959587950A940B
:10330000E2F780FD0CC02197A0F7F12C8F2DDF9103
:10331000CF911F910F91FF90DF90CF900895B6014C
:103320008C2F0E945B190E946F0F019761F3EECF03
:10333000A6E0B0E0EEE9F9E10C94833549835A83C5
:1033400049815A819923A1F0222391F0CA010E9458
:103350006919182F682F89819A810E9466106981E6
:103360007A81812F0E945B192696E3E00C949F35A9
:10337000CA010E943210182FF2CF88E390E00E9419
:103380003B36682F70E090E080E0089585E390E0A0
:103390000E943B36833289F486E390E00E943B36FC
:1033A000813059F487E390E00E943B3691E086310A
:1033B00009F090E0892F8170089580E0FCCFB0E0A3
:1033C000A0E0E5EEF9E10C947E356C017B0164E64A
:1033D00070E088E70E94BE328C01E601EC0CFD1C17
:1033E00017FD0BC0FE01849164E670E00E942A3351
:1033F0008C012196CE15DF0599F70E94A03381E05C
:103400000115110509F080E0CDB7DEB7E8E00C94B6
:103410009A358091DB039091DE03911103C091E016
:1034200089270895882369F062E070E082E693E1DD
:103430000E94DF19811103C08091DB03089510926F
:10344000DB038091DB03EBCFCF93C091DB03809153
:10345000DE038823D1F00E94D20E605A75418F4F4F
:103460009F4F6093D7037093D8038093D9039093B1
:10347000DA03C11108C062E070E080E693E10E94C7
:10348000DF19811105C0C091DB038C2FCF91089506
:1034900081E08093DB03F7CFB0E0A0E0E2E5FAE162
:1034A0000C947A3549015A016B017C010E94FA0E95
:1034B0008401A4016A2D7B2D88E090E00E94713682
:1034C00094014A2D5B2DB601C70100E20E9401362E
:1034D000622F84E290E00E945F36CDB7DEB7ECE069
:1034E0000C949635B0E0A0E0E8E7FAE10C947A3568
:1034F000182FC62FD42F822E0091AC0300FF50C08E
:103500008091AD03811308C08091AE03861304C07F
:103510008091AF03841729F08091CA028260809362
:10352000CA02E02FE695F0E0EE53FE4F80818093D3
:10353000C802802F8E7F8230E9F4ED2FD53608F057
:10354000E4E6F0E0E05AFD4EC1112FC02491F22FC5
:10355000E22F00FF0FC0809174019091750133E05C
:10356000839FD0011124A553BD4F891708F492C041
:103570000E9448121093AD03C093AE03D093AF03E3
:10358000882071F02091AC036091B0037091B10379
:10359000312FAE018091B2039091B3030E944C1A77
:1035A000CDB7DEB7ECE00C949635EC2EF12CE4911F
:1035B0009E2ECE2ED12C26E0129FC00111242FEF7B
:1035C00030E0B9010E946035812F90E0880F991F8B
:1035D000F5E5F69FA001F79F500D1124841B950B74
:1035E000B82EBB0CB80EA9014E195F094C9DC00145
:1035F0004D9D900D5C9D900D1124F92FCB9DA00148
:103600001124452F5527D901A41BB50BAC9DA00152
:10361000AD9D500DBC9D500D1124D901AB19B109C0
:103620005D01AE9CD001AF9CB00DBE9CB00D1124CD
:10363000AB2FBB272A1B3B0B2C9DD0012D9DB00D22
:103640003C9DB00D11242B2F62307105A1F050F478
:103650006115710509F47DCF6130710581F0292F65
:10366000F52F77CF6430710569F080F06630710511
:1036700009F46FCFF4CF2E2FE92FFB2F6ACF2E2F17
:10368000E52F67CF292FFE2FEB2F63CFE92FF92DE1
:10369000252F5FCF1196EC9311972C931296FC93E4
:1036A00012978F5F139661CFECEAF3E043812AE033
:1036B000421B08F440E021E0628181810E94721A7D
:1036C0000895ECEAF3E043812AE0420F08F44FEF5B
:1036D00021E0628181810E94721A0895ECEAF3E090
:1036E000628121E1621B08F460E021E04381818175
:1036F0000E94721A0895ECEAF3E0628121E1620F00
:1037000008F46FEF21E0438181810E94721A0895CD
:10371000ECEAF3E0818121E04381628181510E94E2
:10372000721A0895ECEAF3E0818121E0438162811D
:103730008F5E0E94721A08958091B003882319F059
:1037400081508093B0032091AC033091AD03409140
:10375000AE035091AF036091B0037091B1038091BB
:10376000B2039091B3030E944C1A08958091B00364
:10377000833018F48F5F8093B0032091AC033091B5
:10378000AD034091AE035091AF036091B0037091CF
:10379000B1038091B2039091B3030E944C1A089533
:1037A0002091AC0320FF24C0217022602093AC0341
:1037B0008091CA0281608093CA02662381F03091B1
:1037C000AD034091AE035091AF036091B00370918F
:1037D000B1038091B2039091B3030E944C1A20E090
:1037E0004091AF036091AE038091AD030E94721AC5
:1037F00008958091AC038695815009F481E061E0E1
:103800000E94D01B089561E081E00E94D01B0895C2
:10381000ECEAF3E083E0808311828FEF828384E619
:1038200083831482A8ECB2E012968C911297836085
:1038300012968C93758123E030E04FEF54E660E000
:10384000868197810E944C1A089590E080E00E9442
:103850004936863E9E4F19F40E94C619089580E0AD
:103860000895B0E0A0E0E7E3FCE10C947F35790136
:10387000C82F880FDD0B41155105A9F0FE0193E01B
:10388000EE0FFF1F9A95E1F7E65FFE4F818192816F
:103890008B5D9D4F208130E04217530708F49A0159
:1038A000A9010E943236CE010E94EA34D82E882324
:1038B000D1F001151105B9F083E0CC0FDD1F8A9519
:1038C000E1F7FE01E65FFE4F438150E00417150764
:1038D00008F4A801C65FDE4F6C817D816B5D7D4F72
:1038E000C7010E9432368D2DCDB7DEB7E7E00C94CC
:1038F0009B35A5E0B0E0EFE7FCE10C947C358D83CF
:10390000E62E5A01F22E6801809109068A3028F0CD
:1039100080E02596EAE00C9498358D818930C4F3D7
:103920001A8219828A836B832C8363E070E0CE0154
:1039300002960E94DE0E8983E0923A01F0924D01D8
:1039400010E000E030E020E044E050E0BE016F5FB6
:103950007F4F85E00E94311C8823D1F24E2D50E02C
:1039600030E020E0B50186E00E94311C882381F21E
:1039700030E020E041E050E0BE016B5F7F4F87E028
:103980000E94311C882321F20F2D10E0960150E097
:1039900040E070E060E088E00E94311CBACFA4E013
:1039A000B0E0E5EDFCE10C94823540918802509145
:1039B000890260918A0270918B022FB7F8948091EE
:1039C000E2039091E303A091E403B091E5032FBFDC
:1039D000841B950BA60BB70B11E084369105A1054E
:1039E000B10518F10E94D6126E5F7F4F8F4F9F4F27
:1039F00069837A838B839C8310E000E030E020E0D1
:103A000044E050E0BE016F5F7F4F82E00E94311CB6
:103A1000182F882351F00E94D20E60938802709371
:103A2000890280938A0290938B02812F2496E4E08E
:103A30000C949E35A6E0B0E0E0E2FDE10C94803508
:103A40007B0101E010E09E012A5F3F4F50E040E023
:103A500070E060E080E00E94311C182F882309F498
:103A600053C040918402509185026091860270910A
:103A700087022FB7F8948091E2039091E303A0911D
:103A8000E403B091E5032FBF841B950BA60BB70B86
:103A900084369105A105B10548F465E070E086E241
:103AA00092E00E94DE0E9E81891771F105E010E020
:103AB0009E012F5F3F4F50E040E070E060E081E00A
:103AC0000E94311C082F65E070E086E292E00E94BF
:103AD000DE0E11E09E81981310E0102301F10E9488
:103AE000D20E609384027093850280938602909335
:103AF000870285E0FE013196AFE7B2E001900D92BA
:103B00008A95E1F711E00BC085E0E6E2F2E0DE0124
:103B1000119601900D928A95E1F71111EACF85E097
:103B2000EFE7F2E0D70101900D928A95E1F7812F3E
:103B30002696E6E00C949C358F929F92AF92BF92AE
:103B4000EF92FF920F931F93CF937B01942FB901B4
:103B5000A801F70180809180A280B380EFB7F8942C
:103B60000091E2031091E3032091E4033091E50317
:103B7000EFBF081919092A093B0904361105210567
:103B8000310518F4C1E0992381F010E000E030E045
:103B900020E00E94311CC82F882339F00E94D20EE9
:103BA000F70160837183828393838C2FCF911F9160
:103BB0000F91FF90EF90BF90AF909F908F900895DE
:103BC000A1E0B0E0E6EEFDE10C9482358091DB03EC
:103BD000898320913A0290E041E02817190609F400
:103BE00040E001E010E09E012F5F3F4F60E972E08E
:103BF00084E00E949C1D2196E4E00C949E35ABE08D
:103C0000B0E0E5E0FEE10C94823588E0ECEAF3E018
:103C1000DE01119601900D928A95E1F78091C8021C
:103C20009091C902A091CA0289879A87AB8741E027
:103C30008B85811101C040E00BE010E09E012F5FF9
:103C40003F4F6CE872E083E00E949C1D811110924E
:103C5000CA022B96E4E00C949E350E94F0128093E9
:103C6000090180910901882359F01092720181E2C3
:103C7000809373010E94A01281110E94FE33089567
:103C800081E2809372018AE2F3CFA8E0B0E0EBE436
:103C9000FEE10C94843566EE7EEF90E080E00E94B9
:103CA0007D3660E082E090E00E945F3660E083E075
:103CB00090E00E945F361092210260E074E184E09F
:103CC00090E00E947D3660E086E090E00E945F36E2
:103CD0006FEF87E090E00E945F3640E050E0BA016D
:103CE00088E090E00E94713660E084E290E00E94FB
:103CF0005F3660E087E190E00E945F3660E08CE034
:103D000090E00E945F3660E08DE090E00E945F36B8
:103D100019821A821B821C821D821E821F821886B3
:103D200048E050E068E170E0CE0101960E944F3615
:103D300040E050E0BA0180E290E00E94713680E0FD
:103D40000E9403190E941C1940E050E0BA018FE064
:103D500090E00E94713640E050E0BA0183E190E0CB
:103D60000E9471362896E2E00C94A03528E030E0FD
:103D700043E060E087EF0E94E6310895CF93DF9340
:103D8000D82FC62F0E94B61E8D2F80680E945E32EB
:103D90008C2F0E945E328AEB8A95F1F700C00E9458
:103DA0008E3283E492E00197F1F700C00000DF91CA
:103DB000CF910895682F893708F068E760938F01E5
:103DC00091E09093900190918301992339F0615093
:103DD000811101C064E08FE00E94BE1E0895FB01C6
:103DE00080810E94DA1E089590918F01911101C087
:103DF00095E0282F880F330BA901490F511DCA01E7
:103E00001816190614F081E090E00E94DA1E089559
:103E1000ACE0B0E0EEE0FFE10C947E354F835887D4
:103E200069877A878B879C8780918301882309F42F
:103E300046C08091F501811107C060E080E50E94D5
:103E4000BE1E81E08093F5010E94B61E80E50E94AF
:103E50005E322AEB2A95F1F700C00E9476320E946A
:103E600076320E9476327C010E94763220E0E22A8D
:103E7000F82A0E9476328C010E94763220E0022BD2
:103E8000182B0E948E3285E08A95F1F70000F89495
:103E9000B70180918701909188010E9483119093CE
:103EA000880180938701B8018091890190918A01EE
:103EB0000E94831190938A018093890178940E94D3
:103EC000A012882309F467C00E94D20E0091F60167
:103ED0001091F7012091F8013091F9016B017C01FB
:103EE000C01AD10AE20AF30A9701860108301105C7
:103EF0002105310508F44FC06093F6017093F70176
:103F00008093F8019093F90100919201109193012F
:103F10002091940130919501601B710B820B930BE2
:103F2000623371058105910580F410928801109229
:103F3000870110928A011092890110928C011092CF
:103F40008B0110928E0110928D01109191010E94AF
:103F5000F0121123A9F1BE01695F7F4F87E891E05C
:103F60000E94B01000919101109183010E94F01203
:103F7000011709F44FC0BE01695F7F4F8BE891E0E4
:103F80000E94B01086E0FE013796A0EAB1E00190F1
:103F90000D928A95E1F786E0FE013796DE011196D3
:103FA00001900D928A95E1F729813A814B815C81DC
:103FB0006D817E8180E090E02C96E8E00C949A354B
:103FC000809187019091880181382FEF9207D4F07A
:103FD00080389105CCF481958987809189019091F1
:103FE0008A0181382FEF92078CF08038910584F494
:103FF0008A87109288011092870110928A0110928C
:104000008901B0CF81E8E7CF8FE7E5CF81E8F0CF36
:104010008FE7EECF80918B0190918C0181382FEF4B
:104020009207D4F080389105CCF4819589878091EE
:104030008D0190918E0181382FEF92078CF080389E
:10404000910584F48A8710928C0110928B01109252
:104050008E0110928D0196CF81E8E7CF8FE7E5CFF3
:1040600081E8F0CF8FE7EECFCF93C82F0E94B61E26
:104070008C2F0E945E328FE792E00197F1F700C02B
:1040800000000E947632C82F95E09A95F1F7000063
:104090000E948E3285E68A95F1F700001092F501B4
:1040A0008C2FCF910895CF93DF930E94DE31879AB2
:1040B0000E94B61E6AE58AE30E94BE1E2FEF80E7CB
:1040C00092E0215080409040E1F700C0000082E083
:1040D0000E94342083E00E94342084E00E94342037
:1040E00085E00E94342086E00E94342060E080E178
:1040F0000E94BE1E80E00E943420D82F81E00E94E2
:104100003420C82F0E948E32D23419F481E0C1309D
:1041100009F080E0817080938301882309F43FC017
:1041200060E080E10E94BE1E6DE183E10E94BE1E40
:10413000E5E3EA95F1F7000068E183E10E94BE1E25
:104140000E94B61E82EE0E945E32F0E5FA95F1F70B
:10415000CCEAD0E0FE0184910E945E32F0E5FA954F
:10416000F1F7219620E1CA3AD207A1F70E948E32D8
:104170008FE193E00197F1F700C000008AE20E940E
:10418000342060E080E10E94BE1EEFE3FCE931973D
:10419000F1F700C0000064E08FE00E94BE1EDF91D6
:1041A000CF9108951F920F920FB60F9211242F9363
:1041B0003F934F935F936F937F938F939F93AF93AF
:1041C000BF93CF93DF93EF93FF93D091E900DF701C
:1041D0008091EC00C82FC17080FDC0E81092E9000A
:1041E0008091F000877F8093F00078940E94FE1405
:1041F0001092E9008091F00088608093F000CD2B50
:10420000CF70C093E900FF91EF91DF91CF91BF9103
:10421000AF919F918F917F916F915F914F913F915E
:104220002F910F900FBE0F901F9018951F920F9215
:104230000FB60F9211242F933F934F935F936F9379
:104240007F938F939F93AF93BF93EF93FF9380914F
:10425000E10082FF09C08091E20082FF05C08091E9
:10426000E1008B7F8093E1008091DA0080FF24C021
:104270008091D80080FF20C08091DA008E7F8093EB
:10428000DA008091D90080FF9DC080E189BD82E184
:1042900089BD09B400FEFDCF81E08093F4038091D5
:1042A000E603811109C00E94630D0E94040E8091F3
:1042B000E20084608093E2008091E10080FF17C0FB
:1042C0008091E20080FF13C08091E2008E7F809396
:1042D000E2008091E20080618093E2008091D8004A
:1042E00080628093D80019BC85E08093F4038091AC
:1042F000E10084FF2BC08091E20084FF27C080E1B1
:1043000089BD82E189BD89B5982F917080FFFBCF6F
:104310008091D8008F7D8093D8008091E1008F7EBE
:104320008093E1008091E2008F7E8093E200809193
:10433000E20081608093E2008091F503882309F414
:1043400047C084E08093F4038091F4038091E100FE
:1043500083FF27C08091E20083FF23C08091E100AA
:10436000877F8093E10082E08093F4031092F5034D
:104370008091E1008E7F8093E1008091E2008E7F4A
:104380008093E2008091E20080618093E20042E04D
:1043900060E080E00E94D20D8091F0008860809300
:1043A000F000FF91EF91BF91AF919F918F917F911D
:1043B0006F915F914F913F912F910F900FBE0F9092
:1043C0001F90189519BC1092F4031092E60374CF55
:1043D0008091E30087FD93E09093F403B5CF789448
:1043E0001F921FB61F9211248F939F93AF93BF9379
:1043F0008091E2039091E303A091E403B091E5037F
:104400000196A11DB11D8093E2039093E303A09355
:10441000E403B093E503BF91AF919F918F911F90FB
:104420001FBE1F9018959C014FB7F8948091E2032E
:104430009091E303A091E403B091E5034FBF821B89
:10444000930B08952FB7F8948091E2039091E303C2
:10445000A091E403B091E5032FBF08952F923F92FE
:104460005F926F927F928F929F92AF92BF92CF9204
:10447000DF92EF92FF920F931F93CF93DF93809180
:10448000DE03882309F4F4C08091DC039091DD03FE
:104490000E941322C29708F4CBC00E94222290935C
:1044A000DD038093DC0381E094E090930806809321
:1044B00007060E94A012882309F4F4C087E693E15E
:1044C0000E948B14C1E0D0E08091B403882309F4EA
:1044D000E1C090E00C2E02C0959587950A94E2F712
:1044E00080FFD8C08C2F0E9451110E940514219684
:1044F000C830D10549F780E20E94051484E693E1B3
:104500000E948B1480917701882309F4C5C080E84C
:1045100093E10E948B148091790190917A016AE075
:1045200070E00E946035862F0E94581101960E940B
:10453000781880E30E94051483E793E10E948B14AE
:1045400088EB0E94051480919F010E9451110E94E6
:10455000051489EB0E94051480919E010E9451115F
:104560000E94051480E793E10E948B1480919C01C6
:1045700090919D0154E0969587955A95E1F70E9498
:1045800051110E94051480919C010E9451110E94BA
:1045900005148DE693E10E948B1486EA91E00E9457
:1045A000781882E993E10E948B148091A2010E9405
:1045B00058110E9478188091A3010E9458110E94FE
:1045C00078188091A5010E9458110E947818809156
:1045D000A4010E9458110E9478188AE893E10E9471
:1045E0008B1480918F01811101C085E00E945811C8
:1045F00001960E94781886E893E10E948B1483E864
:1046000093E10E948B1480919101882309F447C0A3
:1046100080E893E10E948B1489E793E10E948B1458
:1046200080919601811101C084E0805D0E94051493
:104630008091FF0390910004892B09F049C080917B
:10464000DB038823A9F00E94D20E0091D7031091BA
:10465000D8032091D9033091DA03601B710B820BD0
:10466000930B6F3F7F4F8F4F9F4710F40E94091AA3
:10467000DF91CF911F910F91FF90EF90DF90CF903E
:10468000BF90AF909F908F907F906F905F903F9082
:104690002F90089580EB29CF8DE793E13ACF8DE7F6
:1046A00093E1B8CFC0E9D0EFDC0F88E993E10E9435
:1046B0008B1411E01D0F8D2F0E940514D12F1C1398
:1046C000F8CF80E00E949914C05FC03C61F7B0CF82
:1046D0008091DE03882309F4B2CF8091D603811143
:1046E000AECF0E94241A2091FF03309100042115BF
:1046F000310509F4A4CF80E041E050E0082F10E03C
:104700001A01082E02C0220C331C0A94E2F7B101F0
:1047100062237323672B11F48F5FF0CF9091D50341
:1047200090FF95C0880F880F880F8093AF0110927B
:10473000B201895F8093B00183E08093B30124E6E6
:1047400030E047E050E06DEA71E088E70E945833BE
:10475000892B09F074CFA80125E0440F551F2A9535
:10476000E1F78091D50380FF84C0E5EBF3E080E2C0
:10477000DF011D928A95E9F7A8ECB1E004EC11E0A5
:104780008CECC82E81E0D82E97E0592E77247394B4
:104790008D91E80129918E01240F352F311D2F5F56
:1047A0003B4FE82FF0E0EB54FC4F90E080E0652CAD
:1047B000681A872C082E01C0880C0A94EAF7790140
:1047C000A12CE701B9907E01B820662D6A196770A7
:1047D000962E062E000C770BDB2D01C0DD0F9A9470
:1047E000EAF77195619571096770772701C0B694F2
:1047F0006A95EAF7BD2A6081962E9B289082A39441
:1048000068E0A612DECF019631968830910579F6E0
:10481000CA16DB0609F0BCCF04E610E020E230E067
:1048200045EB53E060E488E70E947933892B09F077
:1048300006CFE101C095D0958091FF0390910004CF
:10484000C823D923D0930004C093FF03F8CE8295E8
:10485000880F80768093AF0198013695279536951D
:1048600027952093B201815E8093B0012093B3011C
:1048700066CF4F5F5B4F04E610E020E230E0D2CF1E
:10488000AEE1B0E0E6E4F4E20C9483354091C2027C
:104890005091C3026091C4027091C5028091C6021A
:1048A0009091C7020E94081F2093C2023093C30256
:1048B0004093C4025093C5026093C6027093C7022E
:1048C00086E0E2ECF2E0DE01179601900D928A9507
:1048D000E1F786E0FE013796DE011D9601900D920C
:1048E0008A95E1F786E0FE013D96DE011196019082
:1048F0000D928A95E1F786E0FE013196A2ECB2E0D6
:1049000001900D928A95E1F786E0E2ECF2E0DE019B
:10491000599601900D928A95E1F786E0FE0179960D
:10492000DE01179601900D928A95E1F786E0FE016F
:104930003796DE01119601900D928A95E1F786E097
:10494000FE013196DE01539601900D928A95E1F7B2
:1049500086E0FE017396DE01179601900D928A950E
:10496000E1F786E0FE013796A2ECB2E001900D92ED
:104970008A95E1F786E0E2ECF2E0DE01179601901D
:104980000D928A95E1F780917701882309F445C05B
:1049900080917C0190917D010E94132220917B01E6
:1049A00028171906D0F580917E0190917F010E9411
:1049B0001322893C910588F18A859985892B9B85ED
:1049C000892B9C85892B9885892B91E009F490E0AF
:1049D000909380010E941E0F1091B403882351F11F
:1049E0000E94222290937D0180937C0110927F018E
:1049F00010927E0180917801111105C0882369F021
:104A00000E94F9130AC0212F30E0082E02C035950C
:104A100027950A94E2F720FFF3CF0E942E1381110D
:104A20002FC08091C1021092C10281706E96E3E0A6
:104A30000C949F3580917801111118C08111EDCF30
:104A400080917C0190917D010E9413222091790137
:104A500030917A012817390700F7809178010E9478
:104A6000EC1310927D0110927C01D7CF212F30E002
:104A700002C0359527958A95E2F720FFCECFE0CF8B
:104A800081E090E0D0CFA4E1B0E0E9E4F5E20C945D
:104A900078354F87588B698B7A8B8B8B9C8BF92E53
:104AA00091111092200286E0FE013F96DE011996D8
:104AB00001900D928A95E1F78B89882309F4ACC0A7
:104AC0008D87FE8621E049855A856B857C859F2DE3
:104AD0000E94981921E049855A856B857C858D85D2
:104AE0009E850E9498198C01FF2009F44FC19757A9
:104AF0008038910508F04AC1003108F08DC08FEF71
:104B000093E00E943B36811187C049EBC42E42E0FE
:104B1000D42E01114EC0FE01339686E0DF011D92B6
:104B20008A95E9F73AE0632E86010F5F1F4FC601B1
:104B30000E943B3689831A82882309F46DC0813034
:104B400009F06EC07601B2E0EB0EF11CC8010E94C4
:104B50003B368A83882309F45FC09FEF980F933018
:104B6000B0F5E3E0CE0ED11CC7010E943B368B832B
:104B7000882309F451C01C828E010F5F1F4FD8019A
:104B80002C91222389F2213009F0A2C011969C9128
:104B9000119712968C91913009F044C00E5F1F4F0F
:104BA00065E070E0893311F460E570E00E946218FE
:104BB0003FC0C11424E0D20679F1C6010E943B3601
:104BC000811101C001503FEFC31AD30AA2CF670180
:104BD000843091F602E010E06701FFEFCF1ADF0AA0
:104BE000C7010E943B36E1E0F0E0EC0FFD1FE00F53
:104BF000F11F8083882381F08C3741F4E2E0F0E0FC
:104C0000EC0FFD1FE00FF11F1082B6CF0F5F1F4F9B
:104C100076010730110501F76496EEE00C949435A7
:104C20006801AACF923029F50E5F1F4F0E94081825
:104C30000F5F1F4F8FE99FE00197F1F700C0000061
:104C4000AFE9BFE01197F1F700C00000EFE9FFE026
:104C50003197F1F700C000008FE99FE00197F1F76D
:104C600000C00000AFE9BFE01197F1F700C00000FD
:104C700086CF933029F40E5F1F4F0E94D617D8CFEE
:104C8000943019F00F5F1F4FD3CF0E5F1F4F30E0EE
:104C900020E0B8016F5F7F4FF80141818053990B8D
:104CA0008A30910550F02150310910F28FE99FE0D0
:104CB0000197F1F700C00000F6CF629EF001639EFD
:104CC000F00D11249C012E0F3F1F842F8B01E1CF8B
:104CD000E22FF0E0E757FE4E7490822F869586957E
:104CE000869590E0FC01E758FE4EE4902770F12C89
:104CF000022E02C0F594E7940A94E2F7A1E0EA22BA
:104D0000FF24FC01E759FE4EA490B12C022E02C0F4
:104D1000B594A7940A94E2F7B1E0AB22BB24FC015E
:104D2000E75AFE4E8490912C02C0959487942A9560
:104D3000E2F7E1E08E229924E114F10419F081EE0A
:104D40000E940818A114B10419F086EE0E940818F8
:104D5000F9E365E070E07F1202C060E570E0872D46
:104D60000E946218A114B10419F086EE0E94D617B1
:104D7000E114F10419F081EE0E94D6178114910418
:104D800009F456CF65E070E08CE210CF8091770196
:104D9000882309F458C00032B2E51B0708F045C06B
:104DA0000115E2E51E0708F078C00115F0E21F07C3
:104DB00068F5011521E0120708F040C0C801805EC7
:104DC00091090897D8F10730BEE71B0709F483C0A3
:104DD000C8018D5C9109439708F47DC00E941E0FA5
:104DE00081112CC0FF2059F0809178012091B403EB
:104DF000211175C0882309F47BC00E9408130E940A
:104E0000222290937F0180937E0118C0011530E526
:104E10001307C8F2C80125E0969587952A95E1F712
:104E20008F7099272091780152C0003682E51807CB
:104E300078F5003492E5190708F444C080918201A6
:104E400087FD1092820110939D0100939C0189853A
:104E50009A8590939F0180939E01F8013497E533E2
:104E6000F10508F04EC0E75FFD4EE49120EBFF2016
:104E700011F02E2FE0EBA6EAB1E090E080E03D914A
:104E80003E1339C08D579E4FFC0123A3C8014AC071
:104E90000038A2E51A0708F096CF20917801C801E2
:104EA0008F7199272817190649F6F110C7CF8091FD
:104EB000810191E089278093810110927F011092F6
:104EC0007E01BCCF20917801C8018F7199272817E6
:104ED000190609F0B3CF8F2D0E94100FAFCF30E02D
:104EE000082E02C0359527950A94E2F720FF85CF5A
:104EF0000E94EC1382CF01968630910509F0BFCF56
:104F0000C5CFC8019A9581159F41B8F4C80199276A
:104F1000813D910538F0893D910588F087302EE775
:104F2000920701F1FF2081F09E578D30910550F4DA
:104F3000FC01E156F94C0C94D935C801E9CF6F2D2D
:104F40000E948713F1105BC28091E7038272F8011F
:104F5000E052F847E531F10508F0DCC0E455F94CC2
:104F60000C94D9358F2D0E943811ECCF80E00E942F
:104F7000DA1E1092960180E00E9425138AE892E0E2
:104F80000E94171349CE40918F012091960120FB7A
:104F900047F9269523708091770180FB22F9809153
:104FA000790190917A0162E370E00E9460355FEFD1
:104FB000560F550F550F550F522B60E070E08FE0E4
:104FC00090E00E94713628CE81E00E94F41E24CE2B
:104FD0008FEFFBCF8AE0F9CF86EFF7CF9091910169
:104FE00081E089270E94381117CE809196018111A6
:104FF00001C084E08F5F18160CF081E0883008F063
:1050000087E08093960108CE80919601811101C0BE
:1050100084E08150F0CF9091770181E089270E9450
:105020002513FACD8091790190917A01C296893E3B
:1050300033E0930708F4A4CF88EE93E0A1CF8091EA
:10504000790190917A01C2978436910508F098CF42
:1050500084E690E095CF8091AC0380FF1CC0282FA0
:105060002E7F2093AC033091AD034091AE0350915D
:10507000AF036091B0037091B1038091B20390913E
:10508000B3030E944C1A8091CA0281608093CA02C5
:105090000E944812C1CD81608093AC0361E0869587
:1050A0000E94D01BB9CD49EF5BE163E07CE10E9437
:1050B000F40EB2CD43E05CE169EF7BE1F8CF48E864
:1050C0005BE162E97BE1F3CF42E95BE168E87BE128
:1050D000EECF4EE65BE16BE77BE1E9CF4BE75BE1CF
:1050E0006EE67BE1E4CF44E55BE161E67BE1DFCFA7
:1050F00041E65BE164E57BE1DACF4CE95BE166EB3D
:105100007BE1D5CF46EB5BE16CE97BE1D0CF61E0A1
:1051100081E0C6CF07378CE7180779F108379CE79D
:10512000190779F109851A85C801FF2009F44DC0D6
:105130000E946919E82E682FC8010E946610B80104
:105140008E2D0E945B190E946F0F182FE82E892F59
:1051500082958F70C82ED12C8C3008F078C0F60163
:10516000EF53F94C0C94D93581E00E94F91343E0D8
:1051700062E081E00E94CC134FCD81E00E94EC13ED
:10518000F6CF82E0FBCF0130ACE71A07E1F0033045
:10519000BCE71B0791F001151C4721F61092E703AD
:1051A0000E94F214FFEF24E33CE0F1502040304035
:1051B000E1F700C000000E94C10E6FEF7FEF90E0AA
:1051C00080E00E947D360E94BE170E943210E82EB9
:1051D000B6CF092F0F70907F11F00295007F812FBD
:1051E000FF20C9F0002369F090E2910F983010F091
:1051F00011110BC08091E703082B0093E7030E9475
:10520000CB14812F0E94081822C080912002082B05
:1052100000932002F4CF0E94D6170023C1F000951E
:10522000105E183010F0E11008C08091E7030823E9
:105230000093E7030E94CB140AC080912002082348
:1052400000932002F7CF6F2D812F0E94871398E0E3
:10525000C91AD108A2E0CA16D10410F40E94C512DE
:1052600020E049855A856B857C858D859E850E94C9
:105270009819D2CC892F8370A1F5F110E8CF812F36
:10528000829586958770880F880F412F4F70082E62
:1052900001C0440F0A94EAF7212F207114FF07C0C0
:1052A0002FE030E001C0220F8A95EAF7209596950D
:1052B00096959370923081F0822F842B933030F446
:1052C00080912102913029F0242B82230E949C108E
:1052D000BECF842B822BFACF242B809121028227F0
:1052E000F5CF8695FF2011F0892F8170882309F46E
:1052F000AECF812F829586958770880F880F412FBA
:105300004F70082E01C0440F0A94EAF7212F207134
:1053100014FF07C02FE030E001C0220F8A95EAF7A2
:105320002095969596959370923081F0822F842BDC
:10533000933030F48091B403913029F0242B8223F0
:105340000E94C71384CF842B822BFACF242B809109
:10535000B4038227F5CF092F0F70FF2061F0802F53
:105360000E94F913112309F472CF8091E703182BDF
:105370001093E7035FCF112341F010958091E7036D
:1053800018231093E7030E94CB14802F0E94EC1384
:105390005ECFA2EF1A1769F0B3EF1B1779F0E1EFB8
:1053A0001E1317C0892F8F71FF2081F30E94F913FC
:1053B0004ECF892F8F71FF20C9F3E8CF80E0FF2007
:1053C00009F4BECF9F7181E001C0880F9A95EAF77A
:1053D000B7CFF11016CF193369F4FFEF27EE33E0A2
:1053E000F15020403040E1F700C00000812F0E94C2
:1053F000D6172DCF8FE19EE40197F1F7F5CF073750
:10540000BCE71B0709F4B0CE0837ECE71E0709F02C
:10541000BACE82E0AACEA6E0B0E0E1E1FAE20C94D6
:1054200082350E9422228C018091220290912302D7
:105430008017910781F019821A820E942222682F18
:1054400049815A81792F80E090E00E944325109392
:105450002302009322022696E4E00C949E35ABE0F2
:10546000B0E0E5E3FAE20C94763545E0642E41E0E5
:10547000742E5AE0E52E56E0F52E60E0C62E61E06F
:10548000D62E512C88248394912CD6018D916D01B8
:105490000E94961100C0F701408035E0A32E31E054
:1054A000B32EF50110E000E04191A42FA295AF705A
:1054B000B0E090968C919401002E01C0220F0A94C6
:1054C000EAF790E04F7002C0959587954A95E2F70C
:1054D00080FD92C0422A0F5F1F4F0430110521F753
:1054E000F601319780810E94AA11F0EAFA95F1F74E
:1054F000D7018C91841519F04C9255245394BFEF29
:10550000EB1AFB0AE5E0CE16E1E0DE0609F0BDCFBE
:10551000EE24E394F12CD5018D915D010E9496114A
:1055200000C0C701002E01C0880F0A94EAF7782F47
:10553000EAE0F6E090E0C92E91E0D92E682F609560
:10554000D6012D916D01822F82958F7090E0DC0144
:1055500090968C91AF01308190E02F7002C09595AC
:1055600087952A95E2F780FD4AC0872F832B808399
:105570003196DA018C91381711F0552453946C143C
:105580007D04F1F6F501319780810E94AA11B0EAFD
:10559000BA95F1F70F5F1F4F0830110509F0BBCF27
:1055A00000919902552071F181E08093E8010E94F9
:1055B00022229093E7018093E6018091E601909189
:1055C000E7010E941322059708F110E009551D4FCD
:1055D00045E050E06AE076E0C8010E942536892B5C
:1055E00041F085E0EAE0F6E0D80101900D928A955D
:1055F000E1F71092E8010AC0209542226CCF862F75
:105600008323B5CF8091E8018111D7CF0E94A012EA
:10561000F82EE091990281117FC0F0E0E955FD4F2D
:1056200085E0A6E2B2E001900D928A95E1F765E08F
:1056300070E086E292E00E94DE0E80932502C09028
:105640002B02D0902C02E0902D02F0902E0280913F
:10565000E9019091EA01A091EB01B091EC01C8162B
:10566000D906EA06FB06D1F0C092E901D092EA0120
:10567000E092EB01F092EC010E94A01281110EC0A9
:105680000E94D20EC61AD70AE80AF90AC0929402FA
:10569000D0929502E0929602F09297028BE0EFE2B0
:1056A000F2E0DE01119601900D928A95E1F780916A
:1056B0002F02869500913002F0903102E090320284
:1056C00010913902109239021123A9F010FF0BC07A
:1056D000998190FF1BC09091AC0391609093AC03B3
:1056E00060E00E94D01B11FF06C020E04E2D6F2D00
:1056F000802F0E94721A80913A02882351F00E94F2
:10570000241A852D2B96E0E10C9492350E94931279
:10571000EACF0E94091AF5CF2FE036E085E0D901E3
:105720001D928A95E9F70E2F10E009551D4F8091C3
:1057300009068A30E8F56AE17DE1C8010E94BF11DF
:10574000882309F452C06FEC7CE1C8010E94BF11AC
:10575000882309F44AC06FEF7DE1C8010E94BF11A0
:10576000882309F442C060EE7DE1C8010E94BF11A8
:105770008823D9F11092090681E08093EF0100910E
:10578000980210E009551D4F45E050E06FE076E0CB
:10579000C8010E942536892B09F4B3CF85E0EFE0DC
:1057A000F6E0D80101900D928A95E1F75F2CA9CF20
:1057B0008091ED019091EE010E941322843F91406F
:1057C00008F0B9CF8091EF01882309F49ACF1092A5
:1057D000EF01E0919802F0E0E955FD4F95E0DF011F
:1057E0001D929A95E9F7582E8CCF809109068F3F2C
:1057F00031F08F5F809309068A3008F4BDCF0E9494
:1058000022229093EE018093ED01DCCF1F921FB610
:105810001F9211248F939F93AF93BF938091E103C5
:10582000811113C08091E2039091E303A091E403FE
:10583000B091E5034196A11DB11D8093E2039093C1
:10584000E303A093E403B093E503BF91AF919F916D
:105850008F911F901FBE1F901895CDB7DEB7A697EA
:105860000FB6F894DEBF0FBECDBF85B7806885BF89
:1058700085B7806885BF84B7877F84BF0FB6F894EB
:10588000A89580916000886180936000109260000C
:105890000FBE80E890E00FB6F8948093610090937B
:1058A00061000FBE81E49FE09093DD018093DC01F5
:1058B0000E94630D0E94040E8091E2008460809338
:1058C000E20078948091F4038823A1F01091E9001C
:1058D0001F709091EC00892F817090FD80E8182B4B
:1058E0001092E9008091E80083FD0E94FE141F7071
:1058F0001093E90082E084BD93E095BD9AEF97BDD7
:1059000080936E001092940210929502109296026B
:10591000109297020E94C619811102C00E941C19A0
:105920000E942D1E809109010E942D1E809105016B
:105930000E94AA11809106010E94AA11809107017C
:105940000E94AA11809108010E94AA1100E011E0B2
:10595000D8018D918D010E94AA11B1E005301B077D
:10596000B9F78091090195E0811190E09093990237
:1059700085E0891B809398020E94A012811102C0C9
:105980000E940134EAE0F6E0A7EAB2E011921D922B
:1059900026E0E431F207D1F70E94251C811102C0F4
:1059A0000E94451E82E090E00E943B3680939B025D
:1059B0000E942F2A8FE39CE90197F1F700C00000B5
:1059C0000E942F2A8091A70280FF08C06FEF7FEF0F
:1059D00090E080E00E947D360E94C10E83E090E05E
:1059E0000E943B360E949C108091B4030E949E133B
:1059F0000E94A012882309F49FC180E08093D50300
:105A000080E88093FE030E94B8326BE070E085E589
:105A100092E10E94DF198823E9F18091D50365E0C6
:105A200070E081FD8BC180E592E10E94DF1988233F
:105A300089F16DE070E08EE392E10E94DF19882326
:105A400049F10E94D20E605A75418F4F9F4F60936B
:105A5000D7037093D8038093D9039093DA03E1E0DE
:105A6000F4E080E092E0DF019C011D922150304083
:105A7000E1F7F0930806E09307068FEF9FEF90930E
:105A800000048093FF0381E08093DE038093DB03B7
:105A90001092D60380919A02811176C00E94251C33
:105AA000811104C00E94451E0E94081C88E090E0FD
:105AB0000E9443364B015C0184E290E00E943B3639
:105AC000282F30E040E050E060E070E080E090E0BF
:105AD00000E20E94E635282939294A295B292093CA
