:100000000C9498050C94B5050C94B5050C947934B2
:100010000C94B5050C94B5050C94B5050C94B50578
:100020000C94B5050C94B5050C94061B0C94C21ADF
:100030000C94802B0C94B5050C94B5050C94B50567
:100040000C94B5050C94B5050C94B5050C94B50548
:100050000C94B5050C94DF1B0C94B5050C94B505F8
:100060000C94B5050C94B5050C94B5050C94B50528
:100070000C94B5050C94B5050C94B5050C94B50518
:100080000C94B5050C94B5050C94B5050C94B50508
:100090000C94B5050C94B5050C94B5050C94B505F8
:1000A0000C94B5050C94B5050C94B5050501090231
:1000B000A10185020901A1000509190129081500FE
:1000C0002501950875018102050109300931158165
:1000D000257F95027508810609381581257F9501D0
:1000E00075088106050C0A38021581257F95017572
:1000F000088106C0C00660FF0961A1010962150000
:1001000026FF009520750881020963150026FF006F
:10011000952075089102C005010906A1010507197E
:10012000E029E71500250195087501810295017503
:100130000881010507190029FF150026FF00950613
:100140007508810005081901290515002501950587
:1001500075019102950175039101C0000000000036
:10016000000000000000000000000000000000008F
:100170000000000000000000000000000000007E01
:100180000F00D4FFFFFFC700000078000000000050
:100190000000002A2B2800000000000000000000E2
:1001A00000000000000029000000002C1E34202167
:1001B0002224342627252E362D3738271E1F2021AE
:1001C00022232425263333362E37381F040506070D
:1001D00008090A0B0C0D0E0F101112131415161727
:1001E00018191A1B1C1D2F3130232D350405060745
:1001F00008090A0B0C0D0E0F101112131415161707
:1002000018191A1B1C1D2F3130354C61626364654F
:10021000666768696A6B6C6D6E6F70717273747506
:10022000767778797A313233343536373839305217
:100230004542545F2D3D5B5D5C233B27602C2E2F98
:1002400000DA0281FFD9F1DB20A4A62EAF00A0C006
:10025000D30000A1C8D30000AED580A81F408D14E4
:10026000200000010101010101010101020202025D
:100270000202020202030303030303030304040450
:100280000404040405050505050606060606070719
:1002900007070708080808090909090A0A0A0B0BD1
:1002A0000B0C0C0C0D0D0D0E0E0E0F0F0F10101170
:1002B00011111212131314141515161617171818F6
:1002C00019191A1A1B1B1C1D1D1E1E1F202021225E
:1002D00022232424252626272829292A2B2C2D2DA4
:1002E0002E2F30313232333435363738393A3B3CC1
:1002F0003D3E3F404142434445464748494A4C4DB4
:100300004E4F50515354555658595A5B5D5E5F617C
:100310006264656668696B6C6D6F7072737577780F
:100320007A7B7D7E8082838587888A8C8E8F91936D
:100330009596989A9C9EA0A2A3A5A7A9ABADAFB194
:10034000B3B5B7BABCBEC0C2C4C6C9CBCDCFD1D479
:10035000D6D8DBDDDFE2E4E7E9EBEEF0F3F5F8FA1F
:10036000FDFF00AF00AEC2C3004CB6B772B10020B3
:100370002000BABB004B657920B10020C0C100B499
:10038000B500B2B300BEBF003030200020202020D6
:10039000B1BCBD0042616C6CB10020200029001E80
:1003A000001F002000E1001D001B000600210022AC
:1003B0000023002B0019000500E000015214001A70
:1003C0000008001500E2002352000000001700E0C2
:1003D00000040016000000000000000000070009F3
:1003E000000A0000000000000000000600000000FD
:1003F000000400050000000000070008002400259C
:1004000000260027000E000F00330034002D002EC0
:10041000003100350028001100100036004C001C8F
:100420000018000C0037003800E5005200120013DD
:10043000002F00300022522C00E600E7002A000BBB
:10044000000D000000500051004F000B00000000A4
:100450000009000A00000000000C000D0029001E29
:10046000001F002000E1001D001B000600210022EB
:100470000023002B0019000500E000005214001AB0
:100480000008001500E2002C00000000001700E04A
:100490000004001600000000000000000007000932
:1004A000000A00000000000000000006000000003C
:1004B00000040005000000000007000800240025DB
:1004C00000260027000E000F00330034002D002E00
:1004D000003100350028001100100036004C001CCF
:1004E0000018000C0037003800E50052001200131D
:1004F000002F00300022522C00E600E7002A000BFB
:10050000000D000000500051004F000B00000000E3
:100510000009000A00000000000C000D0001003A74
:10052000003B003C000100027E087E097E3D003E4B
:10053000003F003900077E067E017E007E047E209B
:100540007823782578037E010000000000277801D9
:1005500000057E21780000000000000000247826BD
:10056000782878000000000000000006000000006D
:1005700000040005000000000007000800400041E2
:1005800000420043004A004B0050004F0044004529
:100590000049004C0001000C7E01004D0001000AE2
:1005A0007E010046004E0051000100010047004856
:1005B0000052000100010001000100010001000BD8
:1005C0007E010000000100010001000B000000009E
:1005D0000009000A00000000000C000D00010001ED
:1005E0000001000100010001000100010001000103
:1005F00000010001000100010001000100010001F3
:1006000000010001000100010000000000010001E4
:1006100000010001000000000000000000010001D6
:1006200000010000000000000000000600000000C3
:1006300000040005000000000007000800010001A0
:100640000001000100D200D30001000100010001FF
:1006500000010001000100D50001000100010001BE
:100660000001000100010001000100010001000182
:10067000000100010001000100010001000100D49F
:1006800000D10000000100010001000B000000008B
:100690000009000A00000000000C000D0004000525
:1006A000000000000006000700000000000800092C
:1006B00000000000000A000B000000000009025BBF
:1006C00000030100A0FA0904000001030101000970
:1006D00021110100012244000705810308000109DE
:1006E000040100020300000009211101000122227F
:1006F000000705820320000107050303200001090C
:100700000402000103000000092111010001224937
:100710000007058403200001120100020000000808
:1007200038393652010001020001140372006500DD
:1007300065007800360037006D006F00640000002F
:1007400012036B0075007300680069006D006100A2
:10075000380000000403090400000000000000004D
:100760002F000000000700070000123F123F120098
:10077000242A7F2A120036091E241B00182629125B
:100780002800000007000000001E2140000000407B
:10079000211E000014083E08140008083E08080046
:1007A0000000307000000808080808000000303021
:1007B000000020100C0201001E2925231E0000222B
:1007C0003F200000223129292600122125251A0068
:1007D0001814123F10001725252518001E25252561
:1007E00018000131090503001A2525251A000629DC
:1007F00029291E000000333300000000337300007D
:1008000008141422220014141414140022221414A4
:1008100008000201290502003E59555D3E003816C8
:10082000111638003F2525251A001E21212112000E
:100830003F2121211E003F25252521003F090909CF
:1008400001001E2121291A003F0404043F00002159
:100850003F210000102020201F003F040C12210027
:100860003F20202020003F0204023F003F020C10E6
:100870003F001E2121211E003F09090906001E21FB
:1008800029112E003F0909192600122525291200D9
:1008900001013F0101001F2020201F000718201820
:1008A00007000F300C300F0021120C12210003043E
:1008B00038040300312925232100007F4141000035
:1008C00001020C1020000041417F000004020102DF
:1008D0000400404040404000000103040000102A92
:1008E0002A2A3C003F2422221C001C22222224000F
:1008F0001C2222243F001C2A2A2A0C0000043E0548
:1009000005000C5252543E003F0804043800000019
:100910003D0000002040403D00003F080814220038
:1009200000013F2000003E023C023C003E04020267
:100930003C001C2222221C007E1422221C001C22AD
:1009400022147E003E0402020400242A2A2A1200F5
:1009500000021F2200001E2020103E000618201852
:1009600006000E300C300E002214081422000E5027
:1009700050483E0022322A262200080877414100D2
:1009800000007F00000041417708080018040810AB
:100990000C00000000000000F8FCFCFC3C3CFCFCEF
:1009A000FCF80080C0F0F8FC7E00000000FCFCFCBD
:1009B000FC000000000000000000FCFCFCFC00004B
:1009C000000000FCFCFCFC00000000000000000037
:1009D000FCFCFCFC00000000007EFCF8F0E0C080A5
:1009E000000080C0E0F0F8FC7E0000000000000085
:1009F0000000000000000000FFFFFFFF0000FFFFFD
:100A0000FFFF7F1F0F0701000000000000FFFFFF36
:100A1000FF000000808080800000FFFFFFFF0000DB
:100A2000000000FFFFFFFF000080808080000000CA
:100A3000FFFFFFFF0000000000000081C3E7FFFF91
:100A4000FFFFFFFFE7C3810000000000000000007F
:100A50000000000000000000FFFFFFFF0000010198
:100A6000010000000000000000000000003F3F3FC8
:100A70003F0000003F3F3F3F00003F3F3F3F00003F
:100A80000000003F3F3F3F00003F3F3F3F0000006E
:100A90003F3F3F3F00000000007E3F1F0F07030164
:100AA00000000103070F1F3F7E0000000000000050
:100AB0000000000000000000001010100000000006
:100AC000550000003E635D5D637F417B77413E00E2
:100AD000001C22221C003E0A003E0A00322A3C0072
:100AE00026281E001C2A2C0000003F0936000000AA
:100AF0001E212100000000003F0837001E212100B8
:100B00001E2121003F090600213F21002225190056
:100B10001E2121003F0936003F211E00213F2100F8
:100B20000F300F003E093E003F063F003F202000EF
:100B300011241FBECFEFDAE0DEBFCDBF12E0A0E090
:100B4000B1E0EEE2FEE602C005900D92A031B107E1
:100B5000D9F726E0A0E1B2E001C01D92AF3BB20799
:100B6000E1F70E94A72B0C94C8360C940000482F84
:100B70002091AF069091760657E0291302C080E0DD
:100B8000089530E0529FF001539FF00D1124E95871
:100B9000F94F8181681306C08081481303C08581A5
:100BA0008111EECF2F5F3F4F2770E7CFE8EDF0E0E8
:100BB00080818E7F80831092E2001092DA00109282
:100BC000E100A0EEB0E08C9181608C9380818F7702
:100BD000808319BCA7EDB0E08C918E7F8C938081CF
:100BE0008F7E80831092530408952091E400309109
:100BF000E50095E6A9012091EC00822F817020FF8D
:100C000006C08091E80080FF06C080E00895209132
:100C1000E80022FD1AC080916104882389F08530A4
:100C200089F08091EB0085FD0FC02091E4003091A8
:100C3000E50042175307F9F29150E1F684E0089578
:100C400082E0089583E0089581E00895809163042F
:100C500087FF13C08091E80082FF06C08091E80002
:100C60008B778093E80004C0809161048111F2CFFA
:100C70000895809161048823D9F38091E80080FF72
:100C8000F8CF8091E8008E77ECCF982F9093E90011
:100C9000242F762F50E0891731F07091EC002091CD
:100CA000ED005091F00021FD07C09F5F973071F774
:100CB0008093E90081E008953091EB003E7F30930E
:100CC000EB003091ED003D7F3093ED003091EB0073
:100CD00031603093EB007093EC002093ED00509363
:100CE000F0002091EE0027FDE0CF80E00895B0E015
:100CF000A0E0EDE7F6E00C94B335C8EDD0E08881D4
:100D00008F7E8883E7EDF0E080818160808384E0DE
:100D100082BF81E08093530488818E7F888302EEB6
:100D200010E0F80110821092DA0081EEC82ED12C6A
:100D3000F601108288818F77888388818068888314
:100D400088818F7D888319BC10926104109262049F
:100D50001092600410925F0490EEE92EF12CF701DE
:100D600080818B7F808388818160888342E060E01E
:100D700080E00E944506F60180818E7F8083F80125
:100D8000808181608083808188608083F701808199
:100D90008E7F8083888180618883CDB7DEB7E8E06D
:100DA0000C94CF35FC018091690490916A048617F8
:100DB0009707A0F06115710529F49091E8009E77DE
:100DC0009093E80090E06115710551F4911108C00D
:100DD0008091E80082FF34C080E00895BC01F2CF2A
:100DE000809161048823C1F18530C1F18091E800D0
:100DF00083FD30C08091E80082FDEACF8091E80059
:100E000080FFE1CF8091F3002091F200382F61152F
:100E1000710519F02830310558F091E0283031057E
:100E200009F090E02091E8002E772093E800CBCFE6
:100E300081918093F100615071092F5F3F4FE7CF9F
:100E400080916104882341F0853041F08091E80071
:100E500083FFBECF81E0089582E0089583E0089586
:100E6000089580915604089587E797E790930108C5
:100E70008093000888E19AE00FB6F894A8958093D3
:100E800060000FBE90936000FFCF2FB7F894609181
:100E90004F047091500480915104909152042FBFDF
:100EA0000895FC01680F791F8FEF91E3219182274C
:100EB00028E030E087FF09C0880F892721503109D9
:100EC000C9F7E617F70791F70895880FF7CFFA01EA
:100ED000811101C0FB010995089580910B04982FA1
:100EE0009E7F71F480910B048170826080930B046B
:100EF00080910E04853618F084E680930E040895E0
:100F0000843080F7F5CF9091A301882341F09F5F53
:100F10009093A3011092A00110929F010895915007
:100F2000F7CFE8E9F1E0828591E089278287108692
:100F3000178208958091A20181110CC0909126031F
:100F400096959695969581E020919901921380E06F
:100F50008170089581E0FCCF8091A101811108C0CA
:100F60008091A301811104C00E949A0781700895A5
:100F700081E090E0FBCFCF93DF93E4EAF1E084815E
:100F80009581A681B781E90188839983AA83BB8370
:100F90001582148217821682DF91CF91089580E026
:100FA000089563E070E087E892E00E945107909115
:100FB0008602891318C0E0918702E031A4F488E02A
:100FC000E802F0011124E65FFE4F0680F781E02D74
:100FD000309749F02AEA32E0409189026AE872E0EB
:100FE0008091880209950895EBE6F2E0858D809363
:100FF0005A01868D80936D010895811522E592072F
:1010000080F5811530E5930708F0ABC0883E910567
:10101000A0F4803E910558F4853A910548F4843057
:10102000910528F48130910511F090E080E0089559
:101030008D3C9105D0F390650895811540E49407A7
:1010400008F044C0811550E2950708F0A3C081154F
:1010500061E0960750F320E0392FA901482BCA011F
:101060000895803872E59707A8F4803622E5920744
:1010700008F05AC0803432E5930708F03FC0803250
:1010800042E5940730F18F7190E0982F8827816FA7
:10109000906A0895803C52E5950760F4282F2F71DF
:1010A000803A924508F456C0822F90E0982F882706
:1010B00090620895803E72E5970708F0B6CF982FAA
:1010C000882788279F71806F906A08959F70906A23
:1010D0000895282F2695269550E2259F90011124EA
:1010E000837041E050E0BA0102C0660F771F8A9515
:1010F000E2F7CB01822B932B9D680895282F26952C
:101100002695277070E2279F90011124837041E09B
:1011100050E0BA0102C0660F771F8A95E2F7CB0153
:10112000822B932B9C680895282F2695269527704F
:1011300070E2279F90011124837041E050E0BA01D2
:1011400002C0660F771F8A95E2F7CB01822B932BA3
:101150009A680895822F90E0982F8827846F906A6C
:1011600008959C0195E0369527959A95E1F72F70A3
:1011700030E0322F2227482F4F7150E084FF05C006
:1011800084E0440F551F8A95E1F7C901842B952B04
:10119000906908959F718CCF809590915404982305
:1011A0009093540408958091AF0690917606981319
:1011B00001C008958F5F8770FACFA82FA77023E032
:1011C000969587952A95E1F7FC01EE0FFF1FE80F32
:1011D000F91FE60FF71F50E040E080E0219130E07A
:1011E0000A2E02C0369527950A94E2F7217033271C
:1011F000042E01C0220F0A94EAF7822B4F5F5F4F43
:101200004330510559F708959C3070F4883098F4B4
:1012100048E0949F9001112462E372E0820F932FC3
:10122000911D0E94DD0808959C5F923020F46FE2CA
:1012300072E090E0F6CF80E00895262F277091E0CD
:1012400001C0990F2A95EAF723E0769567952A95CC
:10125000E1F7FB01EE0FFF1FE60FF71FE40FF51F8D
:1012600050E040E0682F70E08191DF0111979B0111
:10127000042E02C0369527950A94E2F72170219535
:101280002827292328272C934F5F5F4F4330510590
:1012900059F70895282F862F9C3068F4283050F491
:1012A00038E0939FB0011124620F711D42E352E0B8
:1012B0000E941D0908959C5F9230E0F7622F70E054
:1012C0004FE252E0F5CF809367020895982F9295F0
:1012D0009F7011F0892F94E0282F2695269511F004
:1012E0009E5F822F869509F09F5F892F0895B0E059
:1012F000A0E0EDE7F9E00C94B335FC01EB0140917F
:10130000B701411101C044E04150550B81E090E02C
:101310006C01042E02C0CC0CDD1C0A94E2F70081A3
:101320001181C801B6010E94FA359B01CB01042E40
:1013300002C0880F991F0A94E2F7081B190B11834A
:101340000083E280F380C701B6010E94FA358B0169
:10135000CB0102C0880F991F4A95E2F7E81AF90AF3
:10136000F382E28221388FEF38077CF02038310594
:1013700074F421952D8301388FEF180754F0802FD6
:10138000003811053CF08FE705C021E8F2CF2FE7C8
:10139000F0CF81E881958C830E9445072D81211132
:1013A00003C02C812223B9F06093B8017093B90176
:1013B0008093BA019093BB018091BC019BE0980F90
:1013C000973120F4080F0093BC011D82CDB7DEB722
:1013D000E8E00C94CF35C090B801D090B901E0900E
:1013E000BA01F090BB016C197D098E099F09643622
:1013F00071058105910500F31092BC01DDCFCF93FB
:10140000C82F8091B2018C1751F00E94450760935C
:10141000B3017093B4018093B5019093B601C0936A
:10142000B201CF9108958091A401F90180830895BC
:101430008F708A3010F4805D0895895A0895382F8E
:1014400020E287FF02C031952DE24AE0832F642F0E
:101450000E94EC35905D9093270281110BC0209380
:10146000260220E22093250220E22093240284E237
:1014700092E00895642F0E94EC35905D90932602CF
:10148000832F64E60E94EC35882361F3805D8093AE
:101490002502EBCF9C01860F971F37FD07C077FD14
:1014A00004C097FF02C08FEF9FE7089577FFFDCF3D
:1014B00097FDFBCF80E090E80895E82FE295EF706C
:1014C000F0E031A1282F2F7081E090E001C0880F5B
:1014D0002A95EAF7382B31A392A18095892382A31C
:1014E0000895E82FE295EF70F0E031A1282F2F70DA
:1014F00081E090E001C0880F2A95EAF7982F909537
:10150000932391A392A1892B82A30895B0E0A0E038
:10151000ECE8FAE00C94B3357C016B018091B006E5
:1015200001E010E08A3010F40AE010E0C1E0D0E001
:1015300067EB76E0C701F6010995811104C0219699
:101540000C171D072CF4CDB7DEB7E8E00C94CF35AF
:10155000CC9F9001CD9F300D300D112490E080E0A4
:1015600045E34A95F1F70000019682179307C1F70A
:10157000DFCF0F931F93CF93DF938B01EA019091FD
:101580006104943061F58093E9008FEF9091E80059
:10159000815095FD06C095ED9A95F1F700008111F7
:1015A000F5CF8091E80085FF1AC00E94F5058111F2
:1015B00011C08091E80085FD06C08091E8008E771B
:1015C0008093E800F2CFF80181918F018093F100C0
:1015D000219779F78091E8008E778093E800DF917A
:1015E000CF911F910F91089546E050E0BC0184E037
:1015F0000E94B90A0895CF93DF93EC0148E050E0D0
:10160000BC0181E00E94B90A88E0FE01A7E5B4E0D0
:1016100001900D928A95E1F7DF91CF910895909115
:10162000D50181E0982790934304282F291B20930C
:1016300042049091D501809341049091D50180930B
:10164000400422982A9A23982B9A8FE891E00197D8
:10165000F1F700C00000209141044EE354E0FA018C
:101660008E2F841B821708F0089583B182FB882790
:1016700080F91B9904C090E0892B8193F1CF92E00F
:10168000FBCF6091940180910B0480FF20C080917A
:10169000930143E0849FC0011124865D9C4F539ABF
:1016A0002BB1277F3BB138605FB7F894FC01649F92
:1016B000E00DF11D1124BF0168177907D1F45FBF58
:1016C0008FE594E00197F1F700C000000895809144
:1016D00095019091960123E0829FF0011124E65D2F
:1016E000FC4F8917A0F61182108212828F5F339609
:1016F000F8CFFC014191CF01E8E03BB9000000C008
:1017000047FF2BB9440F000000C000C000C02BB938
:1017100000C0EA9591F7D0CFEBE0F4E080818E7FB6
:101720008083E7E2F3E08281816082830E94410B43
:10173000089580916A02811119C088EC90E020918F
:10174000E30027FD10C0EFE3FCE93197F1F700C09B
:1017500000000197A1F782E080936A020E94D605FB
:101760001092610403C081E080936A0281E090914D
:101770006A02913011F080E0089508950E94990B5B
:10178000882359F0E0914C04F0914D04309729F0F2
:101790000190F081E02D0995089580E008950F9360
:1017A0001F930E94990B882329F00E9445071F91DF
:1017B0000F9108950E9445070091E8021091E902F7
:1017C0002091EA023091EB02600F711F821F931F7C
:1017D000EECF0E94CF0B089526982E9A249A2C982B
:1017E00085E08A95F1F7000083B124982C9A90EA5D
:1017F0009A95F1F790E026E0959587952A95E1F77F
:101800008095909581700895E1EAF1E083E0DF0131
:101810001D928A95E9F7EDE9F1E084E0DF011D9280
:101820008A95E9F7089520919A0130919B01281734
:10183000390731F090939B0180939A010E94040C28
:10184000089590919801981721F0809398010E9433
:10185000040C0895CF939091210380911A0398135B
:1018600023C080912203882321F090911B038913C8
:101870001BC080912303882321F090911C038913BE
:1018800013C080912503882321F090911E038913B2
:101890000BC090912403992329F081E020911D032E
:1018A000291303C080E001C081E0C82FC17080FF10
:1018B0000FC0E0914C04F0914D04309749F082E064
:1018C000809320030480F581E02D80E293E0099568
:1018D0009091210386E0E0E2F3E0DF01282F1D92E2
:1018E0002A95E9F790932103A9E1B3E001900D92C5
:1018F0008A95E1F781E0C11103C0911101C080E038
:101900008170CF9108952FE2280F283078F481E07C
:1019100090E001C0880F2A95EAF720912103662301
:1019200031F0822B809321030E942A0C0895809528
:101930008223F8CFCF93DF93D82F2091990181E0B4
:1019400090E002C0880F991F2A95E2F78095909544
:10195000CD2FC8238C2F0E946609882311F0823076
:1019600081F480919801882329F00E949A078111BF
:1019700001C0DC2F80E00E94210C8D2FDF91CF91E0
:10198000089581E0F8CF0E949A0C80931304089583
:101990009091130421E030E0F90101C0EE0F8A9527
:1019A000EAF7D90102C0AA0FBB1F6A95E2F7EA2B3A
:1019B00001C0220F4A95EAF7892F8E23E81305C04C
:1019C000292B822F0E94C30C089520952923F9CF3B
:1019D00021E030E001C0220F8A95EAF7209580913E
:1019E000130482230E94C30C0895909126038095CE
:1019F000892380932603282F277069F4891759F0CB
:101A00009091EF0292FF07C08695869586950E9479
:101A1000E80C10922603089521E030E001C0220F67
:101A20008A95EAF780911304822B0E94C30C0895D3
:101A3000CF93DF93282F81E02A3019F02D3031F435
:101A400080E00E94AC0DDF91CF91089580917406E3
:101A50009091750636E0FC01AEE6B6E001900D927D
:101A60003A95E1F730EE320F343A08F458C026E0E8
:101A7000FC0111922A95E9F7C0917406D091750680
:101A800046E050E0BE018EE696E00E945A369E0186
:101A90002E563440892B41F1C90145E09695879532
:101AA0004A95E1F741E050E0BA0102C0660F771FA6
:101AB0008A95E2F7CB0160916C0470916D04862BDE
:101AC000972BB9016B5F7F4FE5E076956795EA95B7
:101AD000E1F702C0440F551F6A95E2F7842B952B5E
:101AE00090936D0480936C042A5F3F4F40916B0488
:101AF000642F70E0C9010E949535481B463010F4F0
:101B0000240F311D211572E0370710F030E020E07E
:101B100022593B4F309375062093740694CF205280
:101B2000330B46E0429FB001439F700D1124685A69
:101B3000784F46E050E00E9451369ECFCF93DF931E
:101B4000EC01FE018491811103C0DF91CF910895D2
:101B50000E94180D2196F5CFCF93382FE09174068F
:101B6000F0917506EE56F44020916B04622F70E000
:101B7000CF010E949535281B822F332361F066E048
:101B80000E94E035C82FC15010F4CF91089580E233
:101B90000E94180DF8CF9F01280F311D21153240EA
:101BA00018F080E0F0E0E0E08E0F9F2F911D825949
:101BB0009B4F9093750680937406E7CF80915404F1
:101BC00090916602892B809312029091650299236D
:101BD00091F0892B8093120220E084E192E0FC01D5
:101BE0003191CF0131112F5FF2E08A319F07B9F7B0
:101BF00021111092650248E050E06DE572E082E14B
:101C000092E00E945A36892BA9F088E0E2E1F2E0E6
:101C1000ADE5B2E001900D928A95E1F7E0914C04B8
:101C2000F0914D04309731F00280F381E02D82E194
:101C300092E009950895E4E1F2E086E0DF011D926B
:101C40008A95E9F7109266020E94DE0D0895AAE2D5
:101C5000B0E0EDE2FEE00C94B83583E694E020912C
:101C6000F100DC012D93CD01B4E08B369B07B9F771
:101C700080916404833009F472C0B8F4813009F4AF
:101C800049C0823009F4B5C08091E80083FF8DC25D
:101C900080916304909164049A3008F086C2E92F21
:101CA000F0E0E653F94C0C940E368A3009F490C0FB
:101CB0008B3009F471C0893039F780916304813227
:101CC00019F78091670490916804009711F00297CA
:101CD000D9F68091E800877F8093E8008091E80042
:101CE00082FF38C09091F3008091F200029731F4A6
:101CF0008091F100813011F0863021F48091F10063
:101D0000809356048091E8008B778093E8000E94CE
:101D10002606BACF80916304813A09F0B5CF80914D
:101D2000E800877F8093E8008091670490916804C1
:101D3000892B61F468E087E594E070E00E94D206A8
:101D40008091E8008B778093E8009ECF60E090E080
:101D500080E0F3CF809161048111C0CF95CF809155
:101D60006304813A09F090CF8091670490916804F0
:101D7000892B09F089CF8091E800877F8093E80064
:101D80008091E80080FFFCCF8091D6018093F10024
:101D90008091E8008E77B9CF80916304813209F099
:101DA00073CF8091670490916804892B09F06CCF00
:101DB0008091E800877F8093E8000E94260680914A
:101DC00065048093D601109254040E941B0E5CCFD0
:101DD00080916304813209F057CF8091E800877FBA
:101DE0008093E8000E942606809166048093550443
:101DF0004BCF80916304813A09F046CF8091E8008F
:101E0000877F8093E8008091E80080FFFCCF80917D
:101E10005504BCCF803899F0823809F0C6C1809152
:101E200067048F70873008F0C0C18093E90080910B
:101E3000EB0085FB882780F91092E90006C08091AD
:101E40005F0490916004911182609091E800977F07
:101E50009093E8008093F1001092F1008091E800E7
:101E60008E779FC1882309F48DC1823009F09DC10E
:101E700080916504811190C1809167048F702FEF6C
:101E8000280F263008F091C18093E9002091EB00E3
:101E900020FF82C1933031F48091EB008062809307
:101EA000EB007AC19091EB0090619093EB0021E000
:101EB00030E001C0220F8A95EAF72093EA001092E1
:101EC000EA008091EB008860EACF81116EC1109129
:101ED00065041F778091E3008078812B8093E30075
:101EE0008091E800877F8093E8000E942606809119
:101EF000E80080FFFCCF8091E30080688093E300DE
:101F000082E0111183E0809361044FC180588230D8
:101F100008F04BC120916504309166042C3DE3E04C
:101F20003E07A1F583E08A838AE289834FB7F8945C
:101F3000DE01139620E03EE051E2E32FF0E0509303
:101F40005700E49120FF03C0E295EF703F5FEF7010
:101F50008E2F90E0EA30C0F0C7968D939D932F5F4F
:101F6000243159F74FBF8091E800877F8093E800C4
:101F70006AE270E0CE0101960E94D2068091E800EC
:101F80008B778093E80011C1C096E7CF80916704FA
:101F900090916804432F55274330510509F44AC0F6
:101FA00078F54130510509F47AC08BE590E0EDEB0E
:101FB000F6E04230510509F0F8C02091E800277F93
:101FC0002093E8002091690430916A0482179307F6
:101FD00008F49C0140E02115310509F065C041116C
:101FE00063C08091E80082FDC9CF8091610488239D
:101FF00029F2853019F28091E80083FFF2CFBECF3D
:102000004132510509F43CC04232510509F0CDC0BE
:102010008330910508F0C9C0FC01EE0FFF1FED5F92
:10202000FD4F0190F081E02D80509E4FDC018C919E
:1020300090E01AC0332721303105D1F02115310548
:1020400061F02230310509F0B0C0EAE2F7E0E49136
:102050008E2F90E0EAE2F7E007C0E4E5F7E0E491D4
:102060008E2F90E0E4E5F7E0009709F49EC0A5CF3D
:10207000E0E4F7E0E4918E2F90E0E0E4F7E0F4CFC5
:102080008330910508F091C0880F991FFC01E75F2C
:10209000FD4F0190F081E02D89E090E08ECF82E14C
:1020A00090E0E8E1F7E089CF80916104882309F4AA
:1020B00065CF853009F462CF8091E80083FD5ECF63
:1020C0008091E80082FD8DCF8091E80080FF83CF72
:1020D0009091F3008091F2002115310519F08830BC
:1020E000910550F041E0089709F040E08091E80048
:1020F0008E778093E8006FCF44914093F100319642
:10210000215031090196E8CF803809F04EC0809106
:10211000E800877F8093E800809162048093F1005B
:102120009DCE811142C0109165041230F0F580916E
:10213000E800877F8093E800109362040E942606DF
:10214000112311F084E005C08091E30087FDFACFF0
:1021500081E08093610442E061EC81E00E944506E9
:1021600042E261EC84E00E94450642E261EC82E0DA
:102170000E94450642E260EC83E00E9445068091A1
:10218000610413C080916504813079F481E093305B
:1021900009F080E0809360041092E9008091E800EB
:1021A000877F8093E8000E9426068091E80083FFE5
:1021B0000AC08091E800877F8093E8008091EB005F
:1021C00080628093EB00AA96E3E00C94D4351092E1
:1021D00054040E941B0E2FEF84E39CE021508040AA
:1021E0009040E1F700C0000088E19AE00FB6F89453
:1021F000A895809360000FBE90936000FFCF882366
:1022000021F00E94CC080E94DE0D0895882339F049
:1022100090915404982B909354040E94DE0D0895DD
:10222000882349F19CEF980F913A80F4E4E1F2E0C1
:102230002AE132E09191891303C0DF0111971C92CA
:102240002E173F07B9F70E94DE0D089590E2980F10
:10225000983050F4877091E001C0990F8A95EAF7A1
:10226000892F0E94CC08EFCF93E3980F933118F495
:1022700060E00E94830C08950F931F93CF93C82FA3
:10228000882341F18CEF8C0F813AB0F504E112E024
:102290008AE192E0F8012191C21701F18E179F07A0
:1022A000D1F7EFEF80E0D8019D918D01C91781F042
:1022B000EF3F19F4911101C0E82F8F5F863099F735
:1022C000EF3F31F00E2E000CFF0BEE5EFD4FC28390
:1022D0000E94DE0DCF911F910F910895E4E1F2E08D
:1022E0002191C21303C0DF0111971C928E179F0723
:1022F000B9F70E94DE0DD5CF80E28C0F883068F4EC
:10230000C77021E030E001C0220FCA95EAF7809142
:102310005404822B80935404DBCF83E38C0F8331EE
:10232000C8F661E08C2F0E94830CD4CF1F93CF930B
:10233000DF93182FEB010E943C118FE99FE001977A
:10234000F1F700C000002197C1F7812F0E94101102
:10235000DF91CF911F9108950F931F93CF93DF9338
:10236000EC01FC0101900020E9F78F0101501109F7
:10237000C017D10728F0DF91CF911F910F910895D9
:1023800089910E94180DF4CFCF93DF93C9E5D3E074
:1023900060E0CE010E9494362196C11584E0D807F2
:1023A000B9F7DF91CF9108950F931F93CF93DF93E8
:1023B000142F022F843020F5623010F598E0899FA9
:1023C000E001112484E0689FB0011124C60FD71FDB
:1023D000C75CDC4F82E090E0442311F090E080E0A5
:1023E000632F8C0F9D1F0E94943683E090E0112391
:1023F00011F081E090E0602F8C0F9D1F0E949436B9
:10240000DF91CF911F910F9108951F93CF93DF9389
:10241000122F8430E0F46C30D0F44830C0F490E1F6
:10242000699FE001112450E0440F551FC40FD51FD0
:1024300090EC899FC00DD11D1124632FCE01C99648
:102440000E949436612FCE01CA960E949436DF9185
:10245000CF911F9108958F929F92AF92BF92DF927A
:10246000EF92FF920F931F93CF93DF930DE916E046
:102470008DE9E82E83E0F82EC0E05701D0E015C0CA
:10248000F401259134914D2D6D2F8C2F0E94051252
:1024900082E0880E911CD39488E0D812F1CF80E1BD
:1024A000A80EB11CDF5FDC3019F04501D12CE8CF5C
:1024B000F8012591349141E060E08C2F0E94D41105
:1024C000F80132962591349140E060E08C2F0E9413
:1024D000D411F80134962591349141E061E08C2FBC
:1024E0000E94D411F80136962591349140E061E0C4
:1024F0008C2F0E94D411085F1F4FCF5F80ECE80E35
:10250000F11CC43009F0B9CFDF91CF911F910F9129
:10251000FF90EF90DF90BF90AF909F908F900895C5
:1025200088E390E00E9494360895CF93C82F6FEF10
:10253000811163E285E390E00E9494366FEFC11150
:1025400061E086E390E00E9494366FEFC11166E18E
:1025500087E390E00E949436CF91089580E00E9436
:10256000951260E070E0CB010E9490120E942B1245
:102570000E94C41181E00E9495120895FF920F936A
:102580001F93CF93DF93F42E843070F5623060F5A3
:1025900028E0829F8001112434E0639FB001112460
:1025A000060F171F075C1C4F82E090E0442311F0D8
:1025B00090E080E0800F911F0E947036C82FD0E01D
:1025C000DC2FCC2783E090E0FF2011F081E090E049
:1025D000800F911F0E9470369E01282BC901CDB734
:1025E000DEB7E5E00C94D23590E080E0F8CF0F93B1
:1025F0001F93CF93DF93843030F56C3020F5483053
:1026000010F520E1629F8001112450E0440F551F16
:10261000040F151F30EC839F000D111D1124C801FC
:10262000C9960E947036C82FD0E0DC2FCC27C80195
:10263000CA960E9470369E01282BC901DF91CF9166
:102640001F910F91089590E080E0F8CF7C3048F41E
:10265000683070F4843060F4462F672F0E94F712C0
:1026600008957D3F41F4623018F441E0843050F029
:1026700090E080E008957C3FD9F76230C8F784305D
:10268000B8F740E00E94BE120895CF92DF92FF9209
:102690000F931F93CF93DF936C01009113048091EC
:1026A0006702082BC3E0D0E010E0FC2EC8010C2E1E
:1026B00002C0959587950A94E2F780FD0CC021979A
:1026C000A0F7F12C8F2DDF91CF911F910F91FF90EB
:1026D000DF90CF900895B6018C2F0E9426130E94A0
:1026E000FD07019761F3EECFCF93DF93EC010E94DA
:1026F0004513BE010E9426130E94FD07DF91CF9172
:102700000895FC0124812223C1F0808191810E94DF
:10271000741392959F70963091F058F4925F9F7069
:10272000923058F4803F19F030F4883E30F481E064
:1027300008959A5FF4CF843FD1F380E00895883EF6
:10274000B0F3813FD1F7F3CFA6E0B0E0EAEAF3E1DE
:102750000C94B83549835A8349815A819923A1F051
:10276000222391F0CA010E944513182F682F8981F6
:102770009A810E944A0969817A81812F0E942613D9
:102780002696E3E00C94D435CA010E940409182F60
:10279000F2CF88E390E00E947036682F70E090E0FE
:1027A00080E0089585E390E00E947036833289F4DA
:1027B00086E390E00E947036813059F487E390E020
:1027C0000E94703691E0863109F090E0892F817087
:1027D000089580E0FCCFB0E0A0E0E1EFF3E10C94DD
:1027E000B3356C017B0164E670E088E70E94F33248
:1027F0008C01E601EC0CFD1C17FD0BC0FE01849161
:1028000064E670E00E945F338C012196CE15DF05EF
:1028100099F70E94D53381E00115110509F080E098
:10282000CDB7DEB7E8E00C94CF3580913A049091B3
:102830003D04911103C091E089270895882369F030
:1028400062E070E084E693E00E94EB13811103C024
:1028500080913A04089510923A0480913A04EBCFA3
:10286000CF93C0913A0480913D048823D1F00E9417
:102870004507605A75418F4F9F4F609336047093A0
:1028800037048093380490933904C11108C062E082
:1028900070E082E693E00E94EB13811105C0C091C5
:1028A0003A048C2FCF91089581E080933A04F7CFBA
:1028B000B0E0A0E0EEE5F4E10C94AF3549015A0137
:1028C0006B017C010E946D078401A4016A2D7B2DA0
:1028D00088E090E00E94A63694014A2D5B2DB60157
:1028E000C70100E20E943636622F84E290E00E9427
:1028F0009436CDB7DEB7ECE00C94CB35B0E0A0E079
:10290000E4E8F4E10C94AF35182FC62FD42F822EB3
:1029100000910B0400FF50C080910C04811308C08B
:1029200080910D04861304C080910E04841729F051
:1029300080912903826080932903E02FE695F0E0DF
:10294000EA50FE4F808180932703802F8E7F823054
:10295000E9F4ED2FD53608F0E4E6F0E0EE59FD4F4E
:10296000C1112FC02491F22FE22F00FF0FC08091E0
:1029700095019091960133E0839FD0011124A65DCB
:10298000BC4F891708F492C00E94410B10930C04AD
:10299000C0930D04D0930E04882071F020910B0495
:1029A00060910F0470911004312FAE0180911104D9
:1029B000909112040E945814CDB7DEB7ECE00C944D
:1029C000CB35EC2EF12CE4919E2ECE2ED12C26E090
:1029D000129FC00111242FEF30E0B9010E949535FC
:1029E000812F90E0880F991FF5E5F69FA001F79FD2
:1029F000500D1124841B950BB82EBB0CB80EA901E9
:102A00004E195F094C9DC0014D9D900D5C9D900D30
:102A10001124F92FCB9DA0011124452F5527D90151
:102A2000A41BB50BAC9DA001AD9D500DBC9D500DE0
:102A30001124D901AB19B1095D01AE9CD001AF9C45
:102A4000B00DBE9CB00D1124AB2FBB272A1B3B0B36
:102A50002C9DD0012D9DB00D3C9DB00D11242B2F30
:102A600062307105A1F050F46115710509F47DCF54
:102A70006130710581F0292FF52F77CF6430710512
:102A800069F080F06630710509F46FCFF4CF2E2F16
:102A9000E92FFB2F6ACF2E2FE52F67CF292FFE2F8F
:102AA000EB2F63CFE92FF92D252F5FCF1196EC93F4
:102AB00011972C931296FC9312978F5F139661CF08
:102AC000EBE0F4E043812AE0421B08F440E021E01F
:102AD000628181810E947E140895EBE0F4E04381DD
:102AE0002AE0420F08F44FEF21E0628181810E94C9
:102AF0007E140895EBE0F4E0628121E1621B08F4AA
:102B000060E021E0438181810E947E140895EBE022
:102B1000F4E0628121E1620F08F46FEF21E043816C
:102B200081810E947E140895EBE0F4E0818121E030
:102B30004381628181510E947E140895EBE0F4E0AC
:102B4000818121E0438162818F5E0E947E1408951D
:102B500080910F04882319F0815080930F042091F5
:102B60000B0430910C0440910D0450910E046091BF
:102B70000F047091100480911104909112040E942E
:102B80005814089580910F04833018F48F5F809358
:102B90000F0420910B0430910C0440910D045091CE
:102BA0000E0460910F0470911004809111049091B3
:102BB00012040E945814089520910B0420FF24C091
:102BC0002170226020930B048091290381608093FF
:102BD0002903662381F030910C0440910D0450913B
:102BE0000E0460910F047091100480911104909173
:102BF00012040E94581420E040910E0460910D04CC
:102C000080910C040E947E14089580910B04869597
:102C1000815009F481E061E00E94DC15089561E0D3
:102C200081E00E94DC150895EBE0F4E083E080830E
:102C300011828FEF828384E683831482A7E2B3E05C
:102C400012968C911297836012968C93758123E073
:102C500030E04FEF54E660E0868197810E9458147F
:102C600008959091EF0292FB222720F9281779F01E
:102C700080FB92F99093EF026091EE027091EF0267
:102C800084E090E00E94B23682E00E94F50C089544
:102C900090E080E00E947E36863E9E4F19F40E94AE
:102CA000D213089580E00895B0E0A0E0EAE5F6E1EF
:102CB0000C94B4357901C82F880FDD0B41155105EF
:102CC000A9F0FE0193E0EE0FFF1F9A95E1F7E65F92
:102CD000FE4F8181928185599D4F208130E04217BE
:102CE000530708F49A01A9010E946736CE010E9499
:102CF0001F35D82E8823D1F001151105B9F083E0D6
:102D0000CC0FDD1F8A95E1F7FE01E65FFE4F4381A0
:102D100050E00417150708F4A801C65FDE4F6C8168
:102D20007D8165597D4FC7010E9467368D2DCDB7D6
:102D3000DEB7E7E00C94D035A5E0B0E0E2EAF6E1DA
:102D40000C94B1358D83E62E5A01F22E68018091E4
:102D5000B0068A3028F080E02596EAE00C94CD3564
:102D60008D818D30C4F31A8219828A836B832C8300
:102D700063E070E0CE0102960E9451078983E092E1
:102D80005A01F0926D0110E000E030E020E044E0F4
:102D900050E0BE016F5F7F4F89E00E945416882388
:102DA000D1F24E2D50E030E020E0B5018AE00E94E3
:102DB0005416882381F230E020E041E050E0BE016B
:102DC0006B5F7F4F8BE00E945416882321F20F2DFA
:102DD00010E0960150E040E070E060E08CE00E947E
:102DE0005416BACFA4E0B0E0E8EFF6E10C94B735A2
:102DF0004091D8025091D9026091DA027091DB02C1
:102E00002FB7F89480914F0490915004A0915104F1
:102E1000B09152042FBF841B950BA60BB70B11E08A
:102E200084369105A105B10518F10E94CF0B6E5FA4
:102E30007F4F8F4F9F4F69837A838B839C8310E0F2
:102E400000E030E020E044E050E0BE016F5F7F4FE3
:102E500086E00E945416182F882351F00E944507DF
:102E60006093D8027093D9028093DA029093DB02C8
:102E7000812F2496E4E00C94D3358F929F92AF92E9
:102E8000BF92EF92FF920F931F93CF937B01942FEA
:102E9000B901A801F70180809180A280B380EFB7CB
:102EA000F89400914F0410915004209151043091F6
:102EB0005204EFBF081919092A093B090436110504
:102EC0002105310518F4C1E0992381F010E000E0FC
:102ED00030E020E00E945416C82F882339F00E9469
:102EE0004507F70160837183828393838C2FCF9191
:102EF0001F910F91FF90EF90BF90AF909F908F9098
:102F00000895A1E0B0E0E7E8F7E10C94B7358091CF
:102F10003A0489832091850290E041E02817190640
:102F200009F440E001E010E09E012F5F3F4F60EEAA
:102F300072E088E00E943D172196E4E00C94D335BE
:102F4000ABE0B0E0E6EAF7E10C94B73588E0EBE0FF
:102F5000F4E0DE01119601900D928A95E1F78091DF
:102F6000270390912803A091290389879A87AB872B
:102F700041E08B85811101C040E00BE010E09E0133
:102F80002F5F3F4F6CED72E087E00E943D1781118B
:102F9000109229032B96E4E00C94D335A1E0B0E025
:102FA000E4EDF7E10C94AE35762E4A015901680143
:102FB00001E010E09E012F5F3F4F50E040E070E0E5
:102FC00060E00E945416182F882309F440C0F401D1
:102FD00040815181628173812FB7F89480914F04B1
:102FE00090915004A0915104B09152042FBF841BC2
:102FF000950BA60BB70B84369105A105B10538F4E6
:10300000B701C6010E9451079981891701F1870113
:10301000950150E040E070E060E0872D0E9454167A
:10302000B82EB701C6010E94510711E0998198138B
:1030300010E01B2139F00E944507F4016083718381
:1030400082839383812F2196EDE00C94CA35A701EA
:10305000B601C5010E946736F5CFA6E0B0E0E3E314
:10306000F8E10C94B3356B0186E0E82EF12C0CE608
:1030700012E09E012F5F3F4F40ED52E061E080E0A3
:103080000E94CE17882349F096E0FE013196AAEC03
:10309000B2E001900D929A95E1F796E0EAECF2E049
:1030A000D60101900D929A95E1F72696E8E00C94EE
:1030B000CF350E94EC0B8093D5018091D5018823F8
:1030C00059F01092930181E2809394010E94990B30
:1030D00081110E943334089581E2809393018AE242
:1030E000F3CFA8E0B0E0E7E7F8E10C94B93566EE7D
:1030F0007EEF90E080E00E94B23660E082E090E0F7
:103100000E94943660E083E090E00E949436109232
:10311000670260E074E184E090E00E94B23660E013
:1031200086E090E00E9494366FEF87E090E00E9486
:10313000943640E050E0BA0188E090E00E94A63664
:1031400060E084E290E00E94943660E087E190E0E5
:103150000E94943660E08CE090E00E94943660E03B
:103160008DE090E00E94943619821A821B821C82A4
:103170001D821E821F82188648E050E068E170E0E0
:10318000CE0101960E94843640E050E0BA0180E210
:1031900090E00E94A63680E00E9495120E94AE1236
:1031A00040E050E0BA018FE090E00E94A63640E097
:1031B00050E0BA0183E190E00E94A6362896E2E052
:1031C0000C94D53528E030E043E060E087EF0E94C2
:1031D0001B320895CF93DF93D82FC62F0E94E21899
:1031E0008D2F80680E9493328C2F0E9493328AEB3D
:1031F0008A95F1F700C00E94C33283E492E0019700
:10320000F1F700C00000DF91CF910895682F84325C
:1032100008F063E26093B00191E09093B101909166
:10322000A401992339F06150811101C064E08FE05D
:103230000E94EA180895FB0180810E9406190895F2
:103240009091B001911101C095E0282F880F330BA8
:10325000A901490F511DCA011816190614F081E081
:1032600090E00E9406190895ACE0B0E0EAE3F9E1CD
:103270000C94B3354F83588769877A878B879C87EF
:103280008091A401882309F446C08091290281110C
:1032900007C060E080E50E94EA1881E0809329027F
:1032A0000E94E21880E50E9493322AEB2A95F1F7FA
:1032B00000C00E94AB320E94AB320E94AB327C0154
:1032C0000E94AB3220E0E22AF82A0E94AB328C0145
:1032D0000E94AB3220E0022B182B0E94C33285E003
:1032E0008A95F1F70000F894B7018091A8019091B8
:1032F000A9010E944A0A9093A9018093A801B801EC
:103300008091AA019091AB010E944A0A9093AB016F
:103310008093AA0178940E94990B882309F467C0CE
:103320000E94450700912A0210912B0220912C0245
:1033300030912D026B017C01C01AD10AE20AF30A16
:1033400097018601083011052105310508F44FC0A9
:1033500060932A0270932B0280932C0290932D028B
:103360000091B3011091B4012091B5013091B601E3
:10337000601B710B820B930B623371058105910504
:1033800080F41092A9011092A8011092AB01109242
:10339000AA011092AD011092AC011092AF011092EF
:1033A000AE011091B2010E94EC0B1123A9F1BE01F4
:1033B000695F7F4F88EA91E00E9477090091B2012E
:1033C0001091A4010E94EC0B011709F44FC0BE013B
:1033D000695F7F4F8CEA91E00E94770986E0FE01E9
:1033E0003796A1ECB1E001900D928A95E1F786E065
:1033F000FE013796DE01119601900D928A95E1F754
:1034000029813A814B815C816D817E8180E090E0F1
:103410002C96E8E00C94CF358091A8019091A901F9
:1034200081382FEF9207D4F080389105CCF4819544
:1034300089878091AA019091AB0181382FEF920783
:103440008CF08038910584F48A871092A90110923B
:10345000A8011092AB011092AA01B0CF81E8E7CF8A
:103460008FE7E5CF81E8F0CF8FE7EECF8091AC0119
:103470009091AD0181382FEF9207D4F080389105FB
:10348000CCF4819589878091AE019091AF0181380C
:103490002FEF92078CF08038910584F48A87109280
:1034A000AD011092AC011092AF011092AE0196CF17
:1034B00081E8E7CF8FE7E5CF81E8F0CF8FE7EECF68
:1034C000CF93C82F0E94E2188C2F0E9493328FE76F
:1034D00092E00197F1F700C000000E94AB32C82FC4
:1034E00095E09A95F1F700000E94C33285E68A952F
:1034F000F1F70000109229028C2FCF910895CF93FD
:10350000DF930E941332879A0E94E2186AE58AE3E9
:103510000E94EA182FEF80E792E02150804090400F
:10352000E1F700C0000082E00E94601A83E00E9480
:10353000601A84E00E94601A85E00E94601A86E0AA
:103540000E94601A60E080E10E94EA1880E00E9418
:10355000601AD82F81E00E94601AC82F0E94C332DF
:10356000D23419F481E0C13009F080E08170809399
:10357000A401882321F064E08FE00E94EA18DF9123
:10358000CF9108951F920F920FB60F9211242F938F
:103590003F934F935F936F937F938F939F93AF93DB
:1035A000BF93CF93DF93EF93FF93D091E900DF7048
:1035B0008091EC00C82FC17080FDC0E81092E90036
:1035C0008091F000877F8093F00078940E94270E0E
:1035D0001092E9008091F00088608093F000CD2B7C
:1035E000CF70C093E900FF91EF91DF91CF91BF9130
:1035F000AF919F918F917F916F915F914F913F918B
:103600002F910F900FBE0F901F9018951F920F9241
:103610000FB60F9211242F933F934F935F936F93A5
:103620007F938F939F93AF93BF93EF93FF9380917B
:10363000E10082FF09C08091E20082FF05C0809115
:10364000E1008B7F8093E1008091DA0080FF24C04D
:103650008091D80080FF20C08091DA008E7F809317
:10366000DA008091D90080FF9DC080E189BD82E1B0
:1036700089BD09B400FEFDCF81E080936104809193
:103680005304811109C00E94D6050E9477068091DB
:10369000E20084608093E2008091E10080FF17C027
:1036A0008091E20080FF13C08091E2008E7F8093C2
:1036B000E2008091E20080618093E2008091D80076
:1036C00080628093D80019BC85E08093610480916A
:1036D000E10084FF2BC08091E20084FF27C080E1DD
:1036E00089BD82E189BD89B5982F917080FFFBCF9C
:1036F0008091D8008F7D8093D8008091E1008F7EEB
:103700008093E1008091E2008F7E8093E2008091BF
:10371000E20081608093E20080916204882309F4D2
:1037200047C084E080936104809161048091E1004E
:1037300083FF27C08091E20083FF23C08091E100D6
:10374000877F8093E10082E080936104109262049D
:103750008091E1008E7F8093E1008091E2008E7F76
:103760008093E2008091E20080618093E20042E079
:1037700060E080E00E9445068091F00088608093C0
:10378000F000FF91EF91BF91AF919F918F917F9149
:103790006F915F914F913F912F910F900FBE0F90BE
:1037A0001F90189519BC109261041092530474CFA5
:1037B0008091E30087FD93E090936104B5CF789406
:1037C0001F921FB61F9211248F939F93AF93BF93A5
:1037D00080914F0490915004A0915104B0915204F3
:1037E0000196A11DB11D80934F0490935004A093A6
:1037F0005104B0935204BF91AF919F918F911F904C
:103800001FBE1F9018959C014FB7F89480914F04EC
:1038100090915004A0915104B09152044FBF821B6B
:10382000930B08952FB7F89480914F049091500412
:10383000A0915104B09152042FBF08952F923F924E
:103840005F926F927F928F929F92AF92BF92CF9230
:10385000DF92EF92FF920F931F93CF93DF938091AC
:103860003D04882309F4F4C080913B0490913C040A
:103870000E94031CC29708F4CBC00E94121C9093B4
:103880003C0480933B048EE694E09093750680930D
:1038900074060E94990B882309F4F4C089E693E02A
:1038A0000E949E0DC1E0D0E080911304882309F4AA
:1038B000E1C090E00C2E02C0959587950A94E2F73E
:1038C00080FFD8C08C2F0E94180A0E94180D2196E4
:1038D000C830D10549F780E20E94180D86E693E0D2
:1038E0000E949E0D80919801882309F4C5C082E84A
:1038F00093E00E949E0D80919A0190919B016AE055
:1039000070E00E949535862F0E941F0A01960E9442
:10391000AC1180E30E94180D85E793E00E949E0D94
:1039200088EB0E94180D8091C0010E94180A0E9425
:10393000180D89EB0E94180D8091BF010E94180A92
:103940000E94180D82E793E00E949E0D8091BD01B8
:103950009091BE0154E0969587955A95E1F70E94A3
:10396000180A0E94180D8091BD010E94180A0E9439
:10397000180D8FE693E00E949E0D87EC91E00E9467
:10398000AC1184E993E00E949E0D8091C3010E94D6
:103990001F0A0E94AC118091C4010E941F0A0E945C
:1039A000AC118091C6010E941F0A0E94AC11809147
:1039B000C5010E941F0A0E94AC118CE893E00E948E
:1039C0009E0D8091B001811101C085E00E941F0A07
:1039D00001960E94AC1188E893E00E949E0D85E854
:1039E00093E00E949E0D8091B201882309F447C0A4
:1039F00082E893E00E949E0D8BE793E00E949E0D6B
:103A00008091B701811101C084E0805D0E94180D92
:103A100080916C0490916D04892B09F049C08091CC
:103A20003A048823A9F00E944507009136041091BA
:103A300037042091380430913904601B710B820BDC
:103A4000930B6F3F7F4F8F4F9F4710F40E941514C9
:103A5000DF91CF911F910F91FF90EF90DF90CF906A
:103A6000BF90AF909F908F907F906F905F903F90AE
:103A70002F90089580EB29CF8FE793E03ACF8FE71F
:103A800093E0B8CFC0E9D0EFDC0F8AE993E00E9461
:103A90009E0D11E01D0F8D2F0E94180DD12F1C13AC
:103AA000F8CF80E00E94AC0DC05FC03C61F7B0CFA2
:103AB00080913D04882309F4B2CF809135048111AF
:103AC000AECF0E94301420916C0430916D0421150A
:103AD000310509F4A4CF80E041E050E0082F10E068
:103AE0001A01082E02C0220C331C0A94E2F7B1011D
:103AF00062237323672B11F48F5FF0CF909134040E
:103B000090FF95C0880F880F880F8093D001109286
:103B1000D301895F8093D10183E08093D40124E6AF
:103B200030E047E050E06EEC71E088E70E948D33B2
:103B3000892B09F074CFA80125E0440F551F2A9561
:103B4000E1F78091340480FF84C0E4E1F4E080E296
:103B5000DF011D928A95E9F7ACEFB1E008EF11E0C3
:103B600080E0C82E82E0D82E97E0592E77247394F7
:103B70008D91E80129918E01240F352F311D225995
:103B80003B4FE82FF0E0EC5EFB4F90E080E0652CCF
:103B9000681A872C082E01C0880C0A94EAF779016C
:103BA000A12CE701B9907E01B820662D6A196770D3
:103BB000962E062E000C770BDB2D01C0DD0F9A949C
:103BC000EAF77195619571096770772701C0B6941E
:103BD0006A95EAF7BD2A6081962E9B289082A3946D
:103BE00068E0A612DECF019631968830910579F60D
:103BF000CA16DB0609F0BCCF04E610E020E230E094
:103C000044E154E060E488E70E94AE33892B09F078
:103C100006CFE101C095D09580916C0490916D0420
:103C2000C823D923D0936D04C0936C04F8CE829539
:103C3000880F80768093D001980136952795369528
:103C400027952093D301815E8093D1012093D401E5
:103C500066CF42595B4F04E610E020E230E0D2CF5D
:103C6000AEE1B0E0E6E3FEE10C94B835409120030C
:103C700050912103609122037091230380912403CA
:103C8000909125030E94341920932003309321033F
:103C900040932203509323036093240370932503DE
:103CA00086E0E0E2F3E0DE01179601900D928A953E
:103CB000E1F786E0FE013796DE011D9601900D9238
:103CC0008A95E1F786E0FE013D96DE0111960190AE
:103CD0000D928A95E1F786E0FE013196A0E2B3E00D
:103CE00001900D928A95E1F786E0E0E2F3E0DE01D3
:103CF000599601900D928A95E1F786E0FE0179963A
:103D0000DE01179601900D928A95E1F786E0FE019B
:103D10003796DE01119601900D928A95E1F786E0C3
:103D2000FE013196DE01539601900D928A95E1F7DE
:103D300086E0FE017396DE01179601900D928A953A
:103D4000E1F786E0FE013796A0E2B3E001900D9224
:103D50008A95E1F786E0E0E2F3E0DE011796019054
:103D60000D928A95E1F780919801882309F445C066
:103D700080919D0190919E010E94031C20919C01C5
:103D800028171906D0F580919F019091A0010E94FB
:103D9000031C893C910588F18A859985892B9B852F
:103DA000892B9C85892B9885892B91E009F490E0DB
:103DB0009093A1010E94AC0710911304882351F144
:103DC0000E94121C90939E0180939D011092A0016D
:103DD00010929F0180919901111105C0882369F00B
:103DE0000E940C0D0AC0212F30E0082E02C035952C
:103DF00027950A94E2F720FFF3CF0E942A0C811145
:103E00002FC080911F0310921F0381706E96E3E014
:103E10000C94D43580919901111118C08111EDCF06
:103E200080919D0190919E010E94031C20919A0116
:103E300030919B012817390700F7809199010E9462
:103E4000E80C10929E0110929D01D7CF212F30E0F7
:103E500002C0359527958A95E2F720FFCECFE0CFB7
:103E600081E090E0D0CFA8E0B0E0E9E3FFE10C947E
:103E7000AB358C01DC0114968C911497882309F4DE
:103E8000BDC021E04C9111965C91119712966C91F6
:103E9000129713967C91139715969C910E94A413E8
:103EA0007C01F801D580DD2009F469C1975780387D
:103EB000910508F064C1FFE0FE1508F48FC08FEF94
:103EC00093E00E947036811189C0E9E5AE2EE3E0EF
:103ED000BE2EE1104DC0FE01339686E0DF011D923B
:103EE0008A95E9F77AE0472E7501BFEFEB1AFB0AD6
:103EF000C5010E94703689831A82882309F46EC036
:103F0000813009F07FC06501E2E0CE0ED11CC7010F
:103F10000E9470368A83882309F460C09FEF980F4F
:103F20009330A0F5F3E0AF0EB11CC6010E947036CD
:103F30008B83882309F452C01C82DE0111967D0117
:103F4000F7012081222381F2213009F0BAC091814A
:103F50008281913009F058C0F2E0EF0EF11C65E06B
:103F600070E0893311F460E570E00E94961153C04F
:103F7000A11424E0B20691F1C5010E9470368111AE
:103F800001C0EA943FEFA31AB30AA3CF56018430CD
:103F9000A1F662E0E62EF12C56012FEFA21AB20A2A
:103FA000C6010E947036E1E0F0E0EC0FFD1FEE0D5F
:103FB000FF1D8083882391F08C3741F4E2E0F0E02C
:103FC000EC0FFD1FEE0DFF1D1082B7CF3FEFE31A80
:103FD000F30A650187E0E816F104F1F68091260303
:103FE000877061F0D80115968C91882339F0809103
:103FF000EF0282FF03C082E00E94F50C2896E0E108
:104000000C94C735570199CF923039F522E0E20E72
:10401000F11C0E943C11FFEFEF1AFF0A8FE99FE0AD
:104020000197F1F700C00000AFE9BFE01197F1F789
:1040300000C00000EFE9FFE03197F1F700C0000099
:104040008FE99FE00197F1F700C00000AFE9BFE002
:104050001197F1F700C0000073CF933031F432E0D4
:10406000E30EF11C0E941011D6CF943021F08FEF97
:10407000E81AF80AD0CF92E0E90EF11C30E020E017
:10408000B7016F5F7F4FD70111964C918053990B09
:104090008A30910558F02150310908F4BCCFEFE97E
:1040A000FFE03197F1F700C00000F5CF429EF0012C
:1040B000439EF00D11249C012E0F3F1F842F7B0186
:1040C000DFCFE22FF0E0E557FE4F5490822F869528
:1040D0008695869590E0FC01E558FE4F6490277028
:1040E000712C022E02C0759467940A94E2F731E0B5
:1040F00063227724FC01E559FE4F8490912C022E17
:1041000002C0959487940A94E2F7A1E08A22992448
:10411000FC01E55AFE4FC490D12C02C0D594C7943F
:104120002A95E2F7B1E0CB22DD246114710419F085
:1041300081EE0E943C118114910419F086EE0E94D8
:104140003C11E9E365E070E05E1202C060E570E0FA
:10415000852D0E9496118114910419F086EE0E941B
:1041600010116114710419F081EE0E941011C11434
:10417000D10409F450CF65E070E08CE2F6CE809176
:104180009801882309F46FC0B0E2EB16B2E5FB0694
:1041900008F052C0E114E2E5FE0608F0B7C0E114F1
:1041A000F0E4FF06E0F5E11420E2F20608F0DAC0E0
:1041B00030EEE316F10450F088EEE816F10408F44E
:1041C0004DC0E11491E0F90608F048C0F80184817F
:1041D000882309F443C0F7E0EF16FEE7FF0609F471
:1041E000ACC0C7018D5C9109439708F4A6C00E943A
:1041F000AC07811133C0DD2059F0809199012091E5
:1042000013042111B6C0882309F4BCC00E94040C19
:104210000E94121C9093A00180939F011FC0E11483
:10422000A0E5FA0608F08DC0F8018681807F09F0CC
:1042300099C08F2D99278BC0B0E8EB16B2E5FB062D
:1042400008F03BC0E0E6EE16E2E5FE0608F05EC0D0
:10425000F0E4EF16F2E5FF0608F466C08091A301D2
:1042600087FD1092A301F092BE01E092BD01D8013A
:104270008D919C9111979093C0018093BF01F7019C
:104280003497E533F10508F086C0E55FFD4FE49112
:1042900015968C9120EB811102C02E2FE0EBA7EC3C
:1042A000B1E090E080E03D9132136FC08C559E4F9D
:1042B000DC019396EC93F70175C020ECE21622E541
:1042C000F20660F230EEE31632E5F30608F07ECF38
:1042D00020919901C7018F7199272817190609F0B4
:1042E000BDCF8D2D0E948307D80116968C9116970D
:1042F000807F803509F0B2CF15968C91882361F1CB
:104300008091A30181508093A301A8CF20919901AE
:10431000C7018F7199272817190609F09FCFD1106F
:104320009DCF0E9491079ACF20919901C7018F716B
:1043300099272817190609F091CF8D2D0E94830720
:104340008DCFC70155E0969587955A95E1F78F7007
:10435000992720919901EDCF0E9491078091A301A7
:104360008F5FD1CFD80116968C91807F09F476CFDC
:104370002DCF30E0082E02C0359527950A94E2F73C
:1043800020FF44CF0E94E80C41CF01968630910572
:1043900009F089CF90CFC7019A95F70181159F4108
:1043A00008F4FF27D80115968C91E13DF10538F00E
:1043B000E93DF10570F0E730BEE7FB0709F188231E
:1043C00061F0FE57ED30F10540F4EC52F94C0C94DD
:1043D0000E36682F8E2F0E94830CD80115968C9173
:1043E00081118CC3809154048272F701E052F84726
:1043F000E531F10508F0DBC0EF51F94C0C940E36B5
:104400000E94FF09EACF80E00E9406191092B701CE
:1044100080E00E94210C8AE892E00E94130CDECD1D
:104420004091B0012091B70120FB47F926952370F8
:104430008091980180FB22F980919A0190919B01D3
:1044400062E370E00E9495355FEF560F550F550FF0
:10445000550F522B60E070E08FE090E00E94A6368E
:10446000BDCD81E00E942019B9CD8FEFFBCF8AE04E
:10447000F9CF86EFF7CF9091B20181E089270E94B2
:10448000FF09ACCD8091B701811101C084E08F5F3D
:1044900018160CF081E0883008F087E08093B701AF
:1044A0009DCD8091B701811101C084E08150F0CF92
:1044B0009091980181E089270E94210C8FCD8091F5
:1044C0009A0190919B01C296893EE3E09E0708F411
:1044D000A4CF88EE93E0A1CF80919A0190919B01A7
:1044E000C2978436910508F098CF84E690E095CF86
:1044F00080910B0480FF1CC0282F2E7F20930B047B
:1045000030910C0440910D0450910E0460910F0401
:104510007091100480911104909112040E9458141B
:10452000809129038160809329030E94410B56CD1D
:10453000816080930B0461E086950E94DC154ECD6E
:1045400045E056E16FE076E10E94670747CD4FE016
:1045500056E165E076E1F8CF44E955E16EE975E1B1
:10456000F3CF4EE955E164E975E1EECF4AE755E155
:1045700067E875E1E9CF47E855E16AE775E1E4CF1F
:1045800040E655E16DE675E1DFCF4DE655E160E6C9
:1045900075E1DACF48EA55E162EC75E1D5CF42EC3E
:1045A00055E168EA75E1D0CF61E081E0C6CFB7E7B9
:1045B000EB16BCE7FB0609F460C0E8E7EE16ECE793
:1045C000FE0609F45EC0F8018581E080F180882351
:1045D00009F49FC0C7010E944513D82E682FC70158
:1045E0000E944A09B7018D2D0E9426130E94FD07E3
:1045F0007C01882ED8011596AC90159716969C9044
:1046000092943FE09322809126038770F1F0CA2CA8
:10461000AA20E1F08F2D807F803451F080E28E0D52
:10462000883098F0911004C08F2D807E803269F020
:104630008091EF0282FF09C082E00E94F50C809118
:1046400026038770CC24C3948111C12CBF2CB29453
:104650002FE0B222BBE0BB1508F4C3C0EB2DF0E0A5
:10466000EA50F94C0C940E3681E00E940C0D43E0A8
:1046700062E081E00E94C80CB1CC81E00E94E80CAD
:10468000F6CF82E0FBCFF3E0EF16FCE7FF0671F117
:1046900060F4E1143CE7F306D1F081E0E8168CE722
:1046A000F80609F090CF0E94E7109BE5E9169CE719
:1046B000F90669F1ACE5EA16ACE7FA06F1F0BAE5FD
:1046C000EB16BCE7FB0609F07ECF81E01DC010921F
:1046D00054040E941B0EEFEFF4E32CE0E150F04095
:1046E0002040E1F700C000000E9434076FEF7FEF29
:1046F00090E080E00E94B236D6CF8091EF0282FB3C
:10470000882780F991E089270E9431165CCF80E0EC
:10471000FBCFC7010E940409D82E64CFEF2DEF70A4
:10472000DE2E8F2D807F19F0D29490EFD922AA200F
:10473000B9F0DD2069F080E28E0D883010F0811034
:1047400009C080915404D82AD09254040E94DE0DEE
:104750008E2D45C080916602D82AD0926602F6CF8F
:104760008E2D0E941011DD20E1F180E28E0D883047
:1047700010F0811004C08D2D0E94CC0806C0D0948A
:1047800080916602D822D09266020E94DE0D29C076
:10479000FF2DFF70DF2E8F2D807F803219F0D29495
:1047A00080EFD822882059F021E0821609F481C0D8
:1047B000AA2009F48DC0992009F44FC0C9CF809177
:1047C000EF0282FD46C0AA20F1F1DD2039F0809190
:1047D0005404D82AD09254040E94DE0D80E00E9436
:1047E0003C11AB2DA850BB0B149710F40E94BE0BCC
:1047F000CC20A9F08091260380FD11C0F80115821C
:104800008695869586950E940C0DC8010E94331FDF
:10481000809126038695869586950E94E80C20E077
:10482000D8014C9111965C91119712966C91129748
:1048300013967C91139714968C91149715969C91CE
:104840000E94A413DBCB80E00E941011DD2049F20E
:1048500092CFAA20A1F0911004C08D2D0E940611C4
:10486000C0CF31E09312BDCF809165029D2D98237A
:10487000D91609F4B6CFD82AD0926502B2CF9110DA
:10488000B0CF8D2D0E94FF10909165028D2D892350
:1048900029F08D2D809589238093650280912E02C9
:1048A0009D2D982309F49DCFD094D822D0922E022A
:1048B00098CFAA2029F085E0891508F492CFCDCFB2
:1048C00094E0991508F48DCF8D2D0E94FF1089CFAB
:1048D0009920D1F3A9E38A1209C1BFEFE7EEF3E013
:1048E000B150E040F040E1F700C000008E2D0E9482
:1048F000101177CF6A2D8E2D0E94830C72CF8F2DD1
:10490000837091F5A1106DCF4E2D4295469547705D
:10491000440F440F8E2D8F70042E01C0880F0A940F
:10492000EAF72E2D2071E4FE07C02FE030E001C031
:10493000220F4A95EAF720953F2D3695369533702C
:10494000323069F050F440916702313029F0822B07
:1049500084230E94630945CF842B822BFACF282B16
:10496000809167028227F5CF8695AA2011F08F2DBE
:104970008170882309F435CF4E2D429546954770B6
:10498000440F440F8E2D8F70042E01C0880F0A949F
:10499000EAF72E2D2071E4FE07C02FE030E001C0C1
:1049A000220F4A95EAF720953F2D369536953370BC
:1049B000323069F050F440911304313029F0822BE9
:1049C00084230E94C30C0DCF842B822BFACF282B7B
:1049D000809113048227F5CF9F2D9F70F92EAA2076
:1049E00029F0892F0E940C0D8E2D38CF8E2D0E941C
:1049F000FF108F2D0E94E80CF4CE8E2DA2EF8A16A8
:104A0000B1F1A81570F0B0EF8B16D1F0E1EF8E1672
:104A100091F0AA2009F45EC091109ACE8F2D8F716B
:104A20002AC0F3EF8F1651F124EF8212F2CF80915A
:104A3000EF0282FD2FC08F2D8F71AA20D9F21BC0EB
:104A4000AA2081F034E0391508F4CBCE2F2D2F7138
:104A500081E090E001C0880F2A95EAF79091130455
:104A60008927AFCF85E0891508F4BBCEEFCF8F2D16
:104A70008F71A110BFCF0E940C0DB3CE80E0AA2091
:104A800009F49FCF9F2D9F7181E001C0880F9A95F7
:104A9000EAF797CFAA2099F09F2D9F71F92E892FC1
:104AA0000E940C0D8091EF0282FF07C0A8E0FA9EE1
:104AB000C00111248360809326038F2DDCCF81E019
:104AC0000E94F50CB1E0B91508F08BCE82E00E948F
:104AD000F50C87CE992079F0893341F4EFEFF7EEAA
:104AE00023E0E150F0402040E1F7FECE8FE19EE46C
:104AF0000197F1F7F9CE8F2D8F717CCFB7E7EB16C9
:104B0000BCE7FB0609F4B0CDE8E7EE16ECE7FE06DD
:104B100009F0B9CD82E0A9CDCF93DF9380915C02FB
:104B2000807F09F04DC080915B02882309F448C062
:104B3000E091AF0650917606C0915702D09156028F
:104B4000609158027091590247E05E17C9F18E2FAB
:104B500090E0E49FF0011124E958F94F24812223C9
:104B600091F1489FF001499FF00D1124DF01A958F0
:104B7000B94F11962C9111972C1325C02C912D1300
:104B800022C015962C91159721111DC012962D91BA
:104B90003C91261B370B283C3105A8F480915C0220
:104BA0008F70806180935C02E358F94F80818F7031
:104BB0008061808386E592E00E94331F0E94D308C3
:104BC000DF91CF910895FC013196E770BECFA4E14B
:104BD000B0E0EDEEF5E20C94AF358C0186E0F80123
:104BE000DE011F9601900D928A95E1F7F80184810C
:104BF000E58096E5A92E92E0B92E90915A02911186
:104C000028C0882319F1EE20F1F0C8010E94811319
:104C1000F82E8823C1F087E0F801D50101900D92AC
:104C20008A95E1F780915A02813031F480915602E1
:104C3000909157020E9474130E948C258F2D6496C8
:104C4000ECE00C94CB35C8010E94331FFF24F39491
:104C5000F5CFD080C18082809380F0905B0220915C
:104C6000580230915902A401421B530BFF2009F452
:104C7000D9C0483C510508F092C08823F9F29091C0
:104C8000570280915C02282F207F09F056C0C9127C
:104C900014C090915602D91210C0E11048C08F7014
:104CA000806180935C0286E592E00E94331F8091D0
:104CB0005C02F8018683F12CC1CFE11038C06C2D65
:104CC0008D2D0E94B7056C2D8D2D0E94B705E82E05
:104CD0008111F1CFDF86C88A8F8598890E9474136D
:104CE000292F22952F70243058F49F70223088F09D
:104CF000992399F0F8019681907F79F4FE2C9ECF4C
:104D00002A5F2F70223068F0C8010E94331FEF2CF9
:104D1000F5CF992311F0882389F3805E883070F3F2
:104D2000F3CF803F58F3815F833070F7E7CF8091F6
:104D30005C02816080935C02BECFC91207C0909173
:104D40005602D91203C0EE2009F48DC0C8010E949A
:104D50008113882309F477CFEE2009F474CF809172
:104D60005C02803288F020915602309157023987D8
:104D700028879B868A8690915A029C871D868E87FB
:104D8000CE0108960E94331F87E0F801A6E5B2E045
:104D900001900D928A95E1F70E948C2557CF909152
:104DA0005C02292F207F51F486E592E00E94331F98
:104DB00087E0F50111928A95E9F77DCF882309F400
:104DC0003DCF809157028C1110C080915602D812AD
:104DD0000CC0E1100AC09683C8010E94331F87E00F
:104DE000F50111928A95E9F729CFC8010E94811334
:104DF000882309F428CFEE2009F425CF80915C02A6
:104E0000803210F220915602309157023A83298362
:104E10009C828B8290915A029D831E828F83CE0149
:104E20000196B0CF483C5105D0F6882309F40ECF47
:104E3000FE2CEE2009F407CF809157028C1120C080
:104E400080915602D8121CC080915C0280FD0FC078
:104E5000982F907F61F08683903F31F0982F907F5C
:104E6000905F8F70892B8683C8010E94331F87E073
:104E7000F801A6E5B2E001900D928A95E1F7DECE49
:104E8000C8010E94811381117FCF80915C028160F3
:104E900080935C02C8010E94331FD0CEABE1B0E02A
:104EA000E4E5F7E20C94B7354E8B5F8B688F798F12
:104EB0008A8F9B8F192F9111109266021D8A86E0AE
:104EC000FE017696DE011F9601900D928A95E1F71C
:104ED0000A8D002341F021E04F85588969897A893C
:104EE000C8010E94A4130B8B1C8B87E0FE013F9628
:104EF000DE01189601900D928A95E1F7CE01089691
:104F00000E94E72581110CC087E0FE013896DE0182
:104F1000119601900D928A95E1F78C8581110BC055
:104F200017E08091AF0690917606891333C06B9697
:104F3000E4E00C94D3352091760630E0C901019667
:104F4000877099274091AF064817190699F097E0A6
:104F5000929FD001939FB00D1124A958B94FFE0123
:104F6000319601900D929A95E1F7809376060E9412
:104F7000D308D6CF109254040E941B0E10927606CE
:104F80001092AF0687E0E6E5F2E0DF011D928A9518
:104F9000E9F7C6CF819FC00111248958994F0E941B
:104FA000E725882321F28091AF0690E00196877073
:104FB00099278093AF06B5CFACE0B0E0E2EEF7E220
:104FC0000C94B735182F062F6623B9F10E94121CD6
:104FD0001F832DEF28879A87898782E08B8781E05E
:104FE0008C874F81588569857A858B859C850E9441
:104FF0004E278FE39CE90197F1F700C000000023E2
:1050000029F10E94121C19832DEF2A839C838B8324
:1050100082E08D831E8249815A816B817C818D81E2
:105020009E810E944E278FE39CE90197F1F700C013
:1050300000002C96E4E00C94D3350E94121C1F83D0
:105040002CEF28879A87898783E0C8CF0E94121C9B
:1050500019832CEF2A839C838B8383E0DACFA1E032
:10506000B0E0E5E3F8E20C94B235EE24E394F12CE1
:1050700003E712E09E012F5F3F4F44ED52E063E0F3
:1050800082E00E94CE17C82E882339F100E080E02C
:105090001DC0D0904204D00E2D2D30E0A901425009
:1050A0005D4F7A01E1E0F0E0EC0FFD1FE00FF11D34
:1050B0001081FA019081191BB12E1B149CF0912FC5
:1050C00017FD90E0191B111118C00F5F909140045B
:1050D0000917F8F281110E94E90B8C2D2196E9E065
:1050E0000C94CE35BA94F70180818F5F808360E0A5
:1050F0008D2D0E94DC278C2DE0CF1F5FF701808172
:105100008150808361E08D2D0E94DC278C2DDBCFC8
:10511000A6E0B0E0EEE8F8E20C94B7350E94121C6D
:105120008C0180916802909169028017910781F04B
:1051300019821A820E94121C682F49815A81792F84
:1051400080E090E00E944E2710936902009368026D
:105150002696E4E00C94D335A6E0B0E0E2EBF8E26A
:105160000C94B835162F9091A701992379F08111ED
:105170000DC0198285E08A830E94121C682F498124
:105180005A81792F81E0912F0E944E2780E0269648
:10519000E3E00C94D435CF93DF93D82FC0E090E0B8
:1051A00080914604C81768F0992341F08091490422
:1051B00090914A049093480480934704DF91CF91E3
:1051C000089580914B048C0F63B1282F30E070E07C
:1051D00075956795609570956170F901E75BFB4F78
:1051E0006083295B3B4FF9012081621302C0DD23FC
:1051F00019F00E94AC2891E0CF5FD2CF9091D501F9
:1052000081E0982790934B04282F291B2093450475
:105210009091D501809346049091D50180934404E8
:105220002198299A8FE891E00197F1F700C00000DA
:1052300081E00E94CB280895A1E0B0E0E2E2F9E22B
:105240000C94B435EE24E394F12C05E712E09E01B2
:105250002F5F3F4F44EE52E065E084E00E94CE179E
:10526000D82E8823B1F08E010F5F1F4FF12CE12C57
:1052700090E0809144048E151F0409F07CF499237A
:1052800041F08091490490914A049093480480939E
:1052900047048D2D2196E7E00C94D035809145048C
:1052A0008E0D282F30E0F80161918F01F901E75B45
:1052B000FB4F6083295B3B4FF9012081621719F096
:1052C0000E94AC289D2DFFEFEF1AFF0AD2CFABE072
:1052D000B0E0EDE6F9E20C94AB3546E0642E41E037
:1052E000742E51EBE52E56E0F52E60E0C62E61E0FF
:1052F000D62E512C88248394912CD6018D916D014A
:105300000E945D0A00C0F701408036E0A32E31E024
:10531000B32EF50110E000E04191A42FA295AF70EB
:10532000B0E090968C919401002E01C0220F0A9457
:10533000EAF790E04F7002C0959587954A95E2F79D
:1053400080FD92C0422A0F5F1F4F0430110521F7E4
:10535000F601319780810E94710AF0EAFA95F1F71F
:10536000D7018C91841519F04C9255245394BFEFBA
:10537000EB1AFB0AE6E0CE16E1E0DE0609F0BDCF4F
:10538000EE24E394F12CD5018D915D010E945D0A1C
:1053900000C0C701002E01C0880F0A94EAF7782FD9
:1053A000E1EBF6E090E0C92E91E0D92E682F6095F0
:1053B000D6012D916D01822F82958F7090E0DC01D6
:1053C00090968C91AF01308190E02F7002C095953E
:1053D00087952A95E2F780FD4AC0872F832B80832B
:1053E0003196DA018C91381711F0552453946C14CE
:1053F0007D04F1F6F501319780810E94710AB0EACF
:10540000BA95F1F70F5F1F4F0830110509F0BBCFB8
:105410000091ED02552071F181E080931C020E9401
:10542000121C90931B0280931A0280911A02909191
:105430001B020E94031C059708F110E00D5F1C4F32
:1054400046E050E061EB76E0C8010E945A36892BB5
:1054500041F086E0E1EBF6E0D80101900D928A95EB
:10546000E1F710921C020AC0209542226CCF862FD1
:105470008323B5CF80911C028111D7CF0E94990B55
:10548000F82EE091ED028111B0C0F0E0ED5FFC4F2D
:1054900086E0ACE6B2E001900D928A95E1F766E015
:1054A00070E08CE692E00E94510780936B0240917D
:1054B000410450E06091430470E062507D4FCE01A2
:1054C00001960E94673689818093730261E070E0E3
:1054D000CE0101960E94510780937202C09076021D
:1054E000D0907702E0907802F090790280911D02CE
:1054F00090911E02A0911F02B0912002C816D906F9
:10550000EA06FB06D1F0C0921D02D0921E02E09284
:105510001F02F09220020E94990B81110EC00E947E
:105520004507C61AD70AE80AF90AC092E802D092DB
:10553000E902E092EA02F092EB028BE0EAE7F2E0A5
:10554000DE01119601900D928A95E1F780917A0221
:10555000869500917B02F0907C02E0907D02109194
:105560008402109284021123A9F010FF0BC09981CC
:1055700090FF35C090910B04916090930B0460E014
:105580000E94DC1511FF06C020E04E2D6F2D802FEC
:105590000E947E1480918502882321F10E9430149C
:1055A0004091460450E060914B0470E0675B7B4F94
:1055B000CE0101960E94673689818093750261E071
:1055C00070E0CE0101960E9451078093740280E042
:1055D0000E94CB28852D2B96E0E10C94C7350E94C4
:1055E0008C0BD0CF0E941514DBCF27EB36E086E082
:1055F000D9011D928A95E9F70E2F10E00D5F1C4F1F
:105600008091B0068A3008F04DC06DE278E1C801A3
:105610000E94860A882309F462C06FE278E2C8011A
:105620000E94860A882309F45AC062EF76E1C80115
:105630000E94860A882309F452C060EA77E1C80113
:105640000E94860A882309F44AC061E877E1C8010C
:105650000E94860A882309F442C06CE179E2C801FD
:105660000E94860A8823D9F11092B00681E08093C7
:1056700023020091EC0210E00D5F1C4F46E050E069
:1056800067EB76E0C8010E945A36892B09F4A2CF55
:1056900086E0E7EBF6E0D80101900D928A95E1F7FC
:1056A0005F2C98CF80912102909122020E94031CCE
:1056B000843F914008F0A9CF80912302882309F408
:1056C00089CF10922302E091EC02F0E0ED5FFC4FF5
:1056D00096E0DF011D929A95E9F7582E7BCF8091D5
:1056E000B0068F3F31F08F5F8093B0068A3008F4A8
:1056F000BDCF0E94121C9093220280932102DCCF26
:105700001F921FB61F9211248F939F93AF93BF9345
:1057100080914E04811113C080914F0490915004E8
:10572000A0915104B09152044196A11DB11D8093E6
:105730004F0490935004A0935104B0935204BF912E
:10574000AF919F918F911F901FBE1F901895CDB75D
:10575000DEB7A6970FB6F894DEBF0FBECDBF85B7F4
:10576000806885BF85B7806885BF84B7877F84BF21
:105770000FB6F894A89580916000886180936000CE
:10578000109260000FBE80E890E00FB6F89480930E
:105790006100909361000FBE8FEC97E0909311022F
:1057A000809310020E94D6050E9477068091E20045
:1057B00084608093E2007894809161048823A1F052
:1057C0001091E9001F709091EC00892F817090FD7D
:1057D00080E8182B1092E9008091E80083FD0E9478
:1057E000270E1F701093E90082E084BD93E095BD01
:1057F0009AEF97BD80936E001092E8021092E90232
:105800001092EA021092EB020E94D213811102C0A0
:105810000E94AE120E9459180E940F0B8091D50170
:105820000E945918809106010E94710A8091070117
:105830000E94710A809108010E94710A80910901F9
:105840000E94710A00E011E0D8018D918D010E9443
:10585000710AB1E006301B07B9F78091D50196E0D7
:10586000811190E09093ED0286E0891B8093EC0219
:105870000E94990B811102C00E943634E1EBF6E0E0
:10588000A3E0B3E011921D9226E0ED3BF207D1F7C1
:105890000E944816811102C00E94711882E090E0B7
:1058A0000E9470368093F10284E090E00E947E3680
:1058B0009093EF028093EE020E9467298FE39CE9A8
:1058C0000197F1F700C000000E946729809103034F
:1058D00080FF08C06FEF7FEF90E080E00E94B2365B
:1058E0000E94340783E090E00E9470360E946309B2
:1058F000809113040E949A0C0E94990B882309F44A
:10590000B1C180E08093340480E880936B040E94EE
:10591000ED326BE070E087E592E00E94EB138823A4
:10592000E9F18091340465E070E081FD9DC182E57C
:1059300092E00E94EB13882389F16DE070E080E42F
:1059400092E00E94EB13882349F10E944507605AB8
:1059500075418F4F9F4F6093360470933704809347
:10596000380490933904EEE6F4E080E092E0DF0141
:105970009C011D9221503040E1F7F0937506E093B1
:1059800074068FEF9FEF90936D0480936C0481E019
:1059900080933D0480933A04109235048091F00284
:1059A000811176C00E944816811104C00E947118AE
:1059B0000E94141688E090E00E9478364B015C014A
:1059C00084E290E00E947036282F30E040E050E002
:1059D00060E070E080E090E000E20E941B36282941
:1059E00039294A295B2920930B0430930C044093F6
:1059F0000D0450930E0460930F0470931004809371
:105A000011049093120480912903836080932903E9
:105A10002E7F89F50E94141688E090E00E94783667
:105A20006B017C0184E290E00E947036282F30E008
:105A300040E050E060E070E080E090E00E941B36C3
:105A4000B22FA32FF42FE52F5B0197018601BC290C
:105A5000A12BFE29E32BB0930B04A0930C04F0932D
:105A60000D04E0930E0460930F04B0921004809331
:105A70001104909312040E946D0780910B0480FF23
:105A800004C060E086950E94DC1581E08093F002FE
:105A90000E94FE280E94990B811102C00E94363498
:105AA0000E947F1A0E94990B81112EC083E19AE017
:105AB00090937901809378012FE130E03093740165
:105AC000209373018FE390E09093770180937601A8
:105AD0004BEB57E0509381014093800130937C0160
